{
	"Workspace.sol": {
		"Workspace": {
			"abi": [
				{
					"anonymous": false,
					"inputs": [
						{
							"indexed": false,
							"internalType": "string",
							"name": "_name",
							"type": "string"
						},
						{
							"indexed": false,
							"internalType": "address",
							"name": "_address",
							"type": "address"
						}
					],
					"name": "ContractAddition",
					"type": "event"
				},
				{
					"anonymous": false,
					"inputs": [
						{
							"indexed": false,
							"internalType": "string",
							"name": "_name",
							"type": "string"
						}
					],
					"name": "ContractRemoval",
					"type": "event"
				},
				{
					"anonymous": false,
					"inputs": [
						{
							"indexed": false,
							"internalType": "string",
							"name": "_name",
							"type": "string"
						},
						{
							"indexed": false,
							"internalType": "address",
							"name": "_address",
							"type": "address"
						}
					],
					"name": "ContractUpdate",
					"type": "event"
				},
				{
					"anonymous": false,
					"inputs": [
						{
							"indexed": false,
							"internalType": "address",
							"name": "_from",
							"type": "address"
						},
						{
							"indexed": false,
							"internalType": "address",
							"name": "_to",
							"type": "address"
						}
					],
					"name": "OwnershipChange",
					"type": "event"
				},
				{
					"stateMutability": "nonpayable",
					"type": "fallback"
				},
				{
					"inputs": [],
					"name": "AcceptOwnership",
					"outputs": [
						{
							"internalType": "bool",
							"name": "",
							"type": "bool"
						}
					],
					"stateMutability": "nonpayable",
					"type": "function"
				},
				{
					"inputs": [
						{
							"internalType": "string",
							"name": "_name",
							"type": "string"
						},
						{
							"internalType": "address",
							"name": "_address",
							"type": "address"
						}
					],
					"name": "AddContract",
					"outputs": [
						{
							"internalType": "bool",
							"name": "",
							"type": "bool"
						}
					],
					"stateMutability": "nonpayable",
					"type": "function"
				},
				{
					"inputs": [
						{
							"internalType": "address",
							"name": "_owner",
							"type": "address"
						}
					],
					"name": "ChangeOwnership",
					"outputs": [
						{
							"internalType": "bool",
							"name": "",
							"type": "bool"
						}
					],
					"stateMutability": "nonpayable",
					"type": "function"
				},
				{
					"inputs": [
						{
							"internalType": "string",
							"name": "_name",
							"type": "string"
						}
					],
					"name": "GetAddress",
					"outputs": [
						{
							"internalType": "address",
							"name": "",
							"type": "address"
						}
					],
					"stateMutability": "view",
					"type": "function"
				},
				{
					"inputs": [
						{
							"internalType": "address",
							"name": "_address",
							"type": "address"
						}
					],
					"name": "GetName",
					"outputs": [
						{
							"internalType": "string",
							"name": "",
							"type": "string"
						}
					],
					"stateMutability": "view",
					"type": "function"
				},
				{
					"inputs": [],
					"name": "GetOwner",
					"outputs": [
						{
							"internalType": "address",
							"name": "",
							"type": "address"
						}
					],
					"stateMutability": "view",
					"type": "function"
				},
				{
					"inputs": [
						{
							"internalType": "string",
							"name": "_name",
							"type": "string"
						}
					],
					"name": "RemoveContract",
					"outputs": [
						{
							"internalType": "bool",
							"name": "",
							"type": "bool"
						}
					],
					"stateMutability": "nonpayable",
					"type": "function"
				},
				{
					"inputs": [
						{
							"internalType": "string",
							"name": "_name",
							"type": "string"
						},
						{
							"internalType": "address",
							"name": "_address",
							"type": "address"
						}
					],
					"name": "UpdateContract",
					"outputs": [
						{
							"internalType": "bool",
							"name": "",
							"type": "bool"
						}
					],
					"stateMutability": "nonpayable",
					"type": "function"
				},
				{
					"stateMutability": "payable",
					"type": "receive"
				}
			],
			"devdoc": {
				"kind": "dev",
				"methods": {},
				"version": 1
			},
			"evm": {
				"assembly": "    /* \"Workspace.sol\":158:4470  contract Workspace{... */\n  mstore(0x40, 0x80)\n    /* \"Workspace.sol\":185:220  address internal owner = msg.sender */\n  0x00\n  dup1\n  sload\n    /* \"Workspace.sol\":210:220  msg.sender */\n  caller\n  not(sub(shl(0xa0, 0x01), 0x01))\n    /* \"Workspace.sol\":185:220  address internal owner = msg.sender */\n  swap2\n  dup3\n  and\n  dup2\n  or\n  swap1\n  swap3\n  sstore\n  0x01\n    /* \"Workspace.sol\":227:265  address internal newOwner = msg.sender */\n  dup1\n  sload\n  swap1\n  swap2\n  and\n  swap1\n  swap2\n  or\n  swap1\n  sstore\n    /* \"Workspace.sol\":158:4470  contract Workspace{... */\n  callvalue\n  dup1\n  iszero\n  tag_1\n  jumpi\n  0x00\n  dup1\n  revert\ntag_1:\n  pop\n  dataSize(sub_0)\n  dup1\n  dataOffset(sub_0)\n  0x00\n  codecopy\n  0x00\n  return\nstop\n\nsub_0: assembly {\n        /* \"Workspace.sol\":158:4470  contract Workspace{... */\n      mstore(0x40, 0x80)\n      jumpi(tag_1, lt(calldatasize, 0x04))\n      shr(0xe0, calldataload(0x00))\n      dup1\n      0x8a547437\n      gt\n      tag_11\n      jumpi\n      dup1\n      0x8a547437\n      eq\n      tag_7\n      jumpi\n      dup1\n      0x8b05f6de\n      eq\n      tag_8\n      jumpi\n      dup1\n      0xbc303370\n      eq\n      tag_9\n      jumpi\n      dup1\n      0xd3a72ea1\n      eq\n      tag_10\n      jumpi\n      jump(tag_2)\n    tag_11:\n      dup1\n      0x098e3bb0\n      eq\n      tag_3\n      jumpi\n      dup1\n      0x0ae50a39\n      eq\n      tag_4\n      jumpi\n      dup1\n      0x244ded7a\n      eq\n      tag_5\n      jumpi\n      dup1\n      0x3fab62ba\n      eq\n      tag_6\n      jumpi\n      jump(tag_2)\n    tag_1:\n      jumpi(tag_2, calldatasize)\n        /* \"Workspace.sol\":4383:4391  revert() */\n      0x00\n      dup1\n      revert\n        /* \"Workspace.sol\":158:4470  contract Workspace{... */\n    tag_2:\n      callvalue\n      dup1\n      iszero\n      tag_14\n      jumpi\n      0x00\n      dup1\n      revert\n    tag_14:\n        /* \"Workspace.sol\":4448:4456  revert() */\n      0x00\n      dup1\n      revert\n        /* \"Workspace.sol\":1839:2672  function AddContract(string calldata _name, address _address) external ownerOnly returns(bool){... */\n    tag_3:\n      callvalue\n      dup1\n      iszero\n      tag_17\n      jumpi\n      0x00\n      dup1\n      revert\n    tag_17:\n      pop\n      tag_18\n      tag_19\n      calldatasize\n      0x04\n      tag_20\n      jump\t// in\n    tag_19:\n      tag_21\n      jump\t// in\n    tag_18:\n      mload(0x40)\n        /* \"#utility.yul\":1223:1237   */\n      swap1\n      iszero\n        /* \"#utility.yul\":1216:1238   */\n      iszero\n        /* \"#utility.yul\":1198:1239   */\n      dup2\n      mstore\n        /* \"#utility.yul\":1186:1188   */\n      0x20\n        /* \"#utility.yul\":1171:1189   */\n      add\n        /* \"Workspace.sol\":1839:2672  function AddContract(string calldata _name, address _address) external ownerOnly returns(bool){... */\n    tag_22:\n      mload(0x40)\n      dup1\n      swap2\n      sub\n      swap1\n      return\n        /* \"Workspace.sol\":1149:1232  function GetOwner() external view returns(address){... */\n    tag_4:\n      callvalue\n      dup1\n      iszero\n      tag_24\n      jumpi\n      0x00\n      dup1\n      revert\n    tag_24:\n      pop\n        /* \"Workspace.sol\":1191:1198  address */\n      0x00\n        /* \"Workspace.sol\":1219:1224  owner */\n      sload\n      0xffffffffffffffffffffffffffffffffffffffff\n      and\n        /* \"Workspace.sol\":1149:1232  function GetOwner() external view returns(address){... */\n    tag_25:\n      mload(0x40)\n        /* \"#utility.yul\":1426:1468   */\n      0xffffffffffffffffffffffffffffffffffffffff\n        /* \"#utility.yul\":1414:1469   */\n      swap1\n      swap2\n      and\n        /* \"#utility.yul\":1396:1470   */\n      dup2\n      mstore\n        /* \"#utility.yul\":1384:1386   */\n      0x20\n        /* \"#utility.yul\":1369:1387   */\n      add\n        /* \"Workspace.sol\":1149:1232  function GetOwner() external view returns(address){... */\n      tag_22\n        /* \"#utility.yul\":1250:1476   */\n      jump\n        /* \"Workspace.sol\":1319:1454  function ChangeOwnership(address _owner) external ownerOnly returns(bool){... */\n    tag_5:\n      callvalue\n      dup1\n      iszero\n      tag_29\n      jumpi\n      0x00\n      dup1\n      revert\n    tag_29:\n      pop\n      tag_18\n      tag_31\n      calldatasize\n      0x04\n      tag_32\n      jump\t// in\n    tag_31:\n      tag_33\n      jump\t// in\n        /* \"Workspace.sol\":1462:1752  function AcceptOwnership() external returns(bool){... */\n    tag_6:\n      callvalue\n      dup1\n      iszero\n      tag_35\n      jumpi\n      0x00\n      dup1\n      revert\n    tag_35:\n      pop\n      tag_18\n      tag_37\n      jump\t// in\n        /* \"Workspace.sol\":3581:3919  function RemoveContract(string calldata _name) external ownerOnly returns(bool){... */\n    tag_7:\n      callvalue\n      dup1\n      iszero\n      tag_39\n      jumpi\n      0x00\n      dup1\n      revert\n    tag_39:\n      pop\n      tag_18\n      tag_41\n      calldatasize\n      0x04\n      tag_42\n      jump\t// in\n    tag_41:\n      tag_43\n      jump\t// in\n        /* \"Workspace.sol\":4006:4127  function GetAddress(string calldata _name) external view returns(address){... */\n    tag_8:\n      callvalue\n      dup1\n      iszero\n      tag_45\n      jumpi\n      0x00\n      dup1\n      revert\n    tag_45:\n      pop\n      tag_25\n      tag_47\n      calldatasize\n      0x04\n      tag_42\n      jump\t// in\n    tag_47:\n      tag_48\n      jump\t// in\n        /* \"Workspace.sol\":2680:3573  function UpdateContract(string calldata _name, address _address) external ownerOnly returns(bool){... */\n    tag_9:\n      callvalue\n      dup1\n      iszero\n      tag_50\n      jumpi\n      0x00\n      dup1\n      revert\n    tag_50:\n      pop\n      tag_18\n      tag_52\n      calldatasize\n      0x04\n      tag_20\n      jump\t// in\n    tag_52:\n      tag_53\n      jump\t// in\n        /* \"Workspace.sol\":4135:4257  function GetName(address _address) external view returns(string memory){... */\n    tag_10:\n      callvalue\n      dup1\n      iszero\n      tag_55\n      jumpi\n      0x00\n      dup1\n      revert\n    tag_55:\n      pop\n      tag_56\n      tag_57\n      calldatasize\n      0x04\n      tag_32\n      jump\t// in\n    tag_57:\n      tag_58\n      jump\t// in\n    tag_56:\n      mload(0x40)\n      tag_22\n      swap2\n      swap1\n      tag_60\n      jump\t// in\n        /* \"Workspace.sol\":1839:2672  function AddContract(string calldata _name, address _address) external ownerOnly returns(bool){... */\n    tag_21:\n        /* \"Workspace.sol\":1928:1932  bool */\n      0x00\n        /* \"Workspace.sol\":960:965  owner */\n      dup1\n      sload\n        /* \"Workspace.sol\":960:979  owner != msg.sender */\n      0xffffffffffffffffffffffffffffffffffffffff\n        /* \"Workspace.sol\":960:965  owner */\n      and\n        /* \"Workspace.sol\":969:979  msg.sender */\n      caller\n        /* \"Workspace.sol\":960:979  owner != msg.sender */\n      eq\n        /* \"Workspace.sol\":957:1014  if(owner != msg.sender)... */\n      tag_62\n      jumpi\n        /* \"Workspace.sol\":994:1014  revert(\"Owner only\") */\n      mload(0x40)\n      0x08c379a000000000000000000000000000000000000000000000000000000000\n      dup2\n      mstore\n        /* \"#utility.yul\":3005:3007   */\n      0x20\n        /* \"Workspace.sol\":994:1014  revert(\"Owner only\") */\n      0x04\n      dup3\n      add\n        /* \"#utility.yul\":2987:3008   */\n      mstore\n        /* \"#utility.yul\":3044:3046   */\n      0x0a\n        /* \"#utility.yul\":3024:3042   */\n      0x24\n      dup3\n      add\n        /* \"#utility.yul\":3017:3047   */\n      mstore\n        /* \"#utility.yul\":3083:3095   */\n      0x4f776e6572206f6e6c7900000000000000000000000000000000000000000000\n        /* \"#utility.yul\":3063:3081   */\n      0x44\n      dup3\n      add\n        /* \"#utility.yul\":3056:3096   */\n      mstore\n        /* \"#utility.yul\":3113:3131   */\n      0x64\n      add\n        /* \"Workspace.sol\":994:1014  revert(\"Owner only\") */\n    tag_63:\n      mload(0x40)\n      dup1\n      swap2\n      sub\n      swap1\n      revert\n        /* \"Workspace.sol\":957:1014  if(owner != msg.sender)... */\n    tag_62:\n        /* \"Workspace.sol\":1034:1042  newOwner */\n      0x01\n        /* \"Workspace.sol\":1027:1042  delete newOwner */\n      dup1\n      sload\n      0xffffffffffffffffffffffff0000000000000000000000000000000000000000\n      and\n      swap1\n      sstore\n        /* \"Workspace.sol\":1949:1969  nameToAddress[_name] */\n      mload(0x40)\n        /* \"Workspace.sol\":1034:1042  newOwner */\n      0x00\n      swap1\n        /* \"Workspace.sol\":1949:1962  nameToAddress */\n      0x02\n      swap1\n        /* \"Workspace.sol\":1949:1969  nameToAddress[_name] */\n      tag_66\n      swap1\n        /* \"Workspace.sol\":1963:1968  _name */\n      dup8\n      swap1\n      dup8\n      swap1\n        /* \"Workspace.sol\":1949:1969  nameToAddress[_name] */\n      tag_67\n      jump\t// in\n    tag_66:\n      swap1\n      dup2\n      mstore\n      mload(0x40)\n      swap1\n      dup2\n      swap1\n      sub\n      0x20\n      add\n      swap1\n      keccak256\n      sload\n      0xffffffffffffffffffffffffffffffffffffffff\n      and\n        /* \"Workspace.sol\":1949:1983  nameToAddress[_name] != address(0) */\n      eq\n        /* \"Workspace.sol\":1946:2176  if(nameToAddress[_name] != address(0))... */\n      tag_68\n      jumpi\n        /* \"Workspace.sol\":1998:2025  revert(\"Name already used\") */\n      mload(0x40)\n      0x08c379a000000000000000000000000000000000000000000000000000000000\n      dup2\n      mstore\n        /* \"#utility.yul\":3622:3624   */\n      0x20\n        /* \"Workspace.sol\":1998:2025  revert(\"Name already used\") */\n      0x04\n      dup3\n      add\n        /* \"#utility.yul\":3604:3625   */\n      mstore\n        /* \"#utility.yul\":3661:3663   */\n      0x11\n        /* \"#utility.yul\":3641:3659   */\n      0x24\n      dup3\n      add\n        /* \"#utility.yul\":3634:3664   */\n      mstore\n        /* \"#utility.yul\":3700:3719   */\n      0x4e616d6520616c72656164792075736564000000000000000000000000000000\n        /* \"#utility.yul\":3680:3698   */\n      0x44\n      dup3\n      add\n        /* \"#utility.yul\":3673:3720   */\n      mstore\n        /* \"#utility.yul\":3737:3755   */\n      0x64\n      add\n        /* \"Workspace.sol\":1998:2025  revert(\"Name already used\") */\n      tag_63\n        /* \"#utility.yul\":3420:3761   */\n      jump\n        /* \"Workspace.sol\":1946:2176  if(nameToAddress[_name] != address(0))... */\n    tag_68:\n        /* \"Workspace.sol\":2110:2130  abi.encodePacked(\"\") */\n      0x40\n      dup1\n      mload\n      0x00\n      dup1\n      dup3\n      mstore\n      0x20\n      dup1\n      dup4\n      add\n      dup1\n      dup6\n      mstore\n        /* \"Workspace.sol\":2100:2131  keccak256(abi.encodePacked(\"\")) */\n      dup4\n      mload\n      swap1\n      keccak256\n        /* \"Workspace.sol\":2071:2094  addressToName[_address] */\n      0xffffffffffffffffffffffffffffffffffffffff\n      dup8\n      and\n      dup4\n      mstore\n        /* \"Workspace.sol\":2071:2084  addressToName */\n      0x03\n        /* \"Workspace.sol\":2071:2094  addressToName[_address] */\n      swap1\n      swap2\n      mstore\n      swap1\n      dup4\n      swap1\n      keccak256\n        /* \"Workspace.sol\":2100:2131  keccak256(abi.encodePacked(\"\")) */\n      swap1\n      swap3\n        /* \"Workspace.sol\":2054:2095  abi.encodePacked(addressToName[_address]) */\n      tag_74\n      swap3\n      add\n      tag_75\n      jump\t// in\n    tag_74:\n      mload(0x40)\n      0x20\n      dup2\n      dup4\n      sub\n      sub\n      dup2\n      mstore\n      swap1\n      0x40\n      mstore\n        /* \"Workspace.sol\":2044:2096  keccak256(abi.encodePacked(addressToName[_address])) */\n      dup1\n      mload\n      swap1\n      0x20\n      add\n      keccak256\n        /* \"Workspace.sol\":2044:2131  keccak256(abi.encodePacked(addressToName[_address])) != keccak256(abi.encodePacked(\"\")) */\n      eq\n        /* \"Workspace.sol\":2041:2176  if(keccak256(abi.encodePacked(addressToName[_address])) != keccak256(abi.encodePacked(\"\")))... */\n      tag_76\n      jumpi\n        /* \"Workspace.sol\":2146:2176  revert(\"Address already used\") */\n      mload(0x40)\n      0x08c379a000000000000000000000000000000000000000000000000000000000\n      dup2\n      mstore\n        /* \"#utility.yul\":5652:5654   */\n      0x20\n        /* \"Workspace.sol\":2146:2176  revert(\"Address already used\") */\n      0x04\n      dup3\n      add\n        /* \"#utility.yul\":5634:5655   */\n      mstore\n        /* \"#utility.yul\":5691:5693   */\n      0x14\n        /* \"#utility.yul\":5671:5689   */\n      0x24\n      dup3\n      add\n        /* \"#utility.yul\":5664:5694   */\n      mstore\n        /* \"#utility.yul\":5730:5752   */\n      0x4164647265737320616c72656164792075736564000000000000000000000000\n        /* \"#utility.yul\":5710:5728   */\n      0x44\n      dup3\n      add\n        /* \"#utility.yul\":5703:5753   */\n      mstore\n        /* \"#utility.yul\":5770:5788   */\n      0x64\n      add\n        /* \"Workspace.sol\":2146:2176  revert(\"Address already used\") */\n      tag_63\n        /* \"#utility.yul\":5450:5794   */\n      jump\n        /* \"Workspace.sol\":2041:2176  if(keccak256(abi.encodePacked(addressToName[_address])) != keccak256(abi.encodePacked(\"\")))... */\n    tag_76:\n        /* \"Workspace.sol\":2228:2249  extcodesize(_address) */\n      dup2\n      extcodesize\n        /* \"Workspace.sol\":2265:2274  size == 0 */\n      0xffffffff\n      dup2\n      and\n        /* \"Workspace.sol\":2189:2200  uint32 size */\n      0x00\n        /* \"Workspace.sol\":2265:2274  size == 0 */\n      sub\n        /* \"Workspace.sol\":2262:2313  if(size == 0)... */\n      tag_79\n      jumpi\n        /* \"Workspace.sol\":2289:2313  revert(\"Not a contract\") */\n      mload(0x40)\n      0x08c379a000000000000000000000000000000000000000000000000000000000\n      dup2\n      mstore\n        /* \"#utility.yul\":6001:6003   */\n      0x20\n        /* \"Workspace.sol\":2289:2313  revert(\"Not a contract\") */\n      0x04\n      dup3\n      add\n        /* \"#utility.yul\":5983:6004   */\n      mstore\n        /* \"#utility.yul\":6040:6042   */\n      0x0e\n        /* \"#utility.yul\":6020:6038   */\n      0x24\n      dup3\n      add\n        /* \"#utility.yul\":6013:6043   */\n      mstore\n        /* \"#utility.yul\":6079:6095   */\n      0x4e6f74206120636f6e7472616374000000000000000000000000000000000000\n        /* \"#utility.yul\":6059:6077   */\n      0x44\n      dup3\n      add\n        /* \"#utility.yul\":6052:6096   */\n      mstore\n        /* \"#utility.yul\":6113:6131   */\n      0x64\n      add\n        /* \"Workspace.sol\":2289:2313  revert(\"Not a contract\") */\n      tag_63\n        /* \"#utility.yul\":5799:6137   */\n      jump\n        /* \"Workspace.sol\":2262:2313  if(size == 0)... */\n    tag_79:\n        /* \"Workspace.sol\":2326:2342  string memory cn */\n      0x00\n        /* \"Workspace.sol\":2364:2372  _address */\n      dup4\n        /* \"Workspace.sol\":2345:2378  WorkspaceInterface(_address).Name */\n      0xffffffffffffffffffffffffffffffffffffffff\n      and\n      0x8052474d\n        /* \"Workspace.sol\":2345:2380  WorkspaceInterface(_address).Name() */\n      mload(0x40)\n      dup2\n      0xffffffff\n      and\n      0xe0\n      shl\n      dup2\n      mstore\n      0x04\n      add\n      0x00\n      mload(0x40)\n      dup1\n      dup4\n      sub\n      dup2\n      dup7\n      gas\n      staticcall\n      iszero\n      dup1\n      iszero\n      tag_83\n      jumpi\n      returndatasize\n      0x00\n      dup1\n      returndatacopy\n      revert(0x00, returndatasize)\n    tag_83:\n      pop\n      pop\n      pop\n      pop\n      mload(0x40)\n      returndatasize\n      0x00\n      dup3\n      returndatacopy\n      0x1f\n      returndatasize\n      swap1\n      dup2\n      add\n      0xffffffffffffffffffffffffffffffffffffffffffffffffffffffffffffffe0\n      and\n      dup3\n      add\n      0x40\n      mstore\n      tag_84\n      swap2\n      swap1\n      dup2\n      add\n      swap1\n      tag_85\n      jump\t// in\n    tag_84:\n        /* \"Workspace.sol\":2326:2380  string memory cn = WorkspaceInterface(_address).Name() */\n      swap1\n      pop\n        /* \"Workspace.sol\":2461:2463  cn */\n      dup1\n        /* \"Workspace.sol\":2444:2464  abi.encodePacked(cn) */\n      add(0x20, mload(0x40))\n      tag_86\n      swap2\n      swap1\n      tag_87\n      jump\t// in\n    tag_86:\n      mload(0x40)\n      0x20\n      dup2\n      dup4\n      sub\n      sub\n      dup2\n      mstore\n      swap1\n      0x40\n      mstore\n        /* \"Workspace.sol\":2434:2465  keccak256(abi.encodePacked(cn)) */\n      dup1\n      mload\n      swap1\n      0x20\n      add\n      keccak256\n        /* \"Workspace.sol\":2423:2428  _name */\n      dup7\n      dup7\n        /* \"Workspace.sol\":2406:2429  abi.encodePacked(_name) */\n      add(0x20, mload(0x40))\n      tag_88\n      swap3\n      swap2\n      swap1\n      tag_67\n      jump\t// in\n    tag_88:\n      mload(0x40)\n      0x20\n      dup2\n      dup4\n      sub\n      sub\n      dup2\n      mstore\n      swap1\n      0x40\n      mstore\n        /* \"Workspace.sol\":2396:2430  keccak256(abi.encodePacked(_name)) */\n      dup1\n      mload\n      swap1\n      0x20\n      add\n      keccak256\n        /* \"Workspace.sol\":2396:2465  keccak256(abi.encodePacked(_name)) != keccak256(abi.encodePacked(cn)) */\n      eq\n        /* \"Workspace.sol\":2393:2505  if(keccak256(abi.encodePacked(_name)) != keccak256(abi.encodePacked(cn)))... */\n      tag_89\n      jumpi\n        /* \"Workspace.sol\":2480:2505  revert(\"Names missmatch\") */\n      mload(0x40)\n      0x08c379a000000000000000000000000000000000000000000000000000000000\n      dup2\n      mstore\n        /* \"#utility.yul\":7788:7790   */\n      0x20\n        /* \"Workspace.sol\":2480:2505  revert(\"Names missmatch\") */\n      0x04\n      dup3\n      add\n        /* \"#utility.yul\":7770:7791   */\n      mstore\n        /* \"#utility.yul\":7827:7829   */\n      0x0f\n        /* \"#utility.yul\":7807:7825   */\n      0x24\n      dup3\n      add\n        /* \"#utility.yul\":7800:7830   */\n      mstore\n        /* \"#utility.yul\":7866:7883   */\n      0x4e616d6573206d6973736d617463680000000000000000000000000000000000\n        /* \"#utility.yul\":7846:7864   */\n      0x44\n      dup3\n      add\n        /* \"#utility.yul\":7839:7884   */\n      mstore\n        /* \"#utility.yul\":7901:7919   */\n      0x64\n      add\n        /* \"Workspace.sol\":2480:2505  revert(\"Names missmatch\") */\n      tag_63\n        /* \"#utility.yul\":7586:7925   */\n      jump\n        /* \"Workspace.sol\":2393:2505  if(keccak256(abi.encodePacked(_name)) != keccak256(abi.encodePacked(cn)))... */\n    tag_89:\n        /* \"Workspace.sol\":2541:2549  _address */\n      dup4\n        /* \"Workspace.sol\":2518:2531  nameToAddress */\n      0x02\n        /* \"Workspace.sol\":2532:2537  _name */\n      dup8\n      dup8\n        /* \"Workspace.sol\":2518:2538  nameToAddress[_name] */\n      mload(0x40)\n      tag_92\n      swap3\n      swap2\n      swap1\n      tag_67\n      jump\t// in\n    tag_92:\n      swap1\n      dup2\n      mstore\n      0x40\n      dup1\n      mload\n      0x20\n      swap3\n      dup2\n      swap1\n      sub\n      dup4\n      add\n      swap1\n      keccak256\n        /* \"Workspace.sol\":2518:2549  nameToAddress[_name] = _address */\n      dup1\n      sload\n      0xffffffffffffffffffffffff0000000000000000000000000000000000000000\n      and\n      0xffffffffffffffffffffffffffffffffffffffff\n      swap5\n      dup6\n      and\n      or\n      swap1\n      sstore\n        /* \"Workspace.sol\":2560:2583  addressToName[_address] */\n      swap2\n      dup7\n      and\n      0x00\n      swap1\n      dup2\n      mstore\n        /* \"Workspace.sol\":2560:2573  addressToName */\n      0x03\n        /* \"Workspace.sol\":2560:2583  addressToName[_address] */\n      swap1\n      swap2\n      mstore\n      keccak256\n        /* \"Workspace.sol\":2560:2591  addressToName[_address] = _name */\n      tag_93\n        /* \"Workspace.sol\":2586:2591  _name */\n      dup7\n      dup9\n        /* \"Workspace.sol\":2560:2583  addressToName[_address] */\n      dup4\n        /* \"Workspace.sol\":2560:2591  addressToName[_address] = _name */\n      tag_94\n      jump\t// in\n    tag_93:\n      pop\n        /* \"Workspace.sol\":2609:2642  ContractAddition(_name, _address) */\n      0xb8d25cbb85ba47da9b181a587d9a84aada63fa73cbdf5e75a0f7bd4dde761904\n        /* \"Workspace.sol\":2626:2631  _name */\n      dup7\n      dup7\n        /* \"Workspace.sol\":2633:2641  _address */\n      dup7\n        /* \"Workspace.sol\":2609:2642  ContractAddition(_name, _address) */\n      mload(0x40)\n      tag_95\n      swap4\n      swap3\n      swap2\n      swap1\n      tag_96\n      jump\t// in\n    tag_95:\n      mload(0x40)\n      dup1\n      swap2\n      sub\n      swap1\n      log1\n      pop\n        /* \"Workspace.sol\":2660:2664  true */\n      0x01\n      swap6\n        /* \"Workspace.sol\":1839:2672  function AddContract(string calldata _name, address _address) external ownerOnly returns(bool){... */\n      swap5\n      pop\n      pop\n      pop\n      pop\n      pop\n      jump\t// out\n        /* \"Workspace.sol\":1319:1454  function ChangeOwnership(address _owner) external ownerOnly returns(bool){... */\n    tag_33:\n        /* \"Workspace.sol\":1387:1391  bool */\n      0x00\n        /* \"Workspace.sol\":960:965  owner */\n      dup1\n      sload\n        /* \"Workspace.sol\":960:979  owner != msg.sender */\n      0xffffffffffffffffffffffffffffffffffffffff\n        /* \"Workspace.sol\":960:965  owner */\n      and\n        /* \"Workspace.sol\":969:979  msg.sender */\n      caller\n        /* \"Workspace.sol\":960:979  owner != msg.sender */\n      eq\n        /* \"Workspace.sol\":957:1014  if(owner != msg.sender)... */\n      tag_99\n      jumpi\n        /* \"Workspace.sol\":994:1014  revert(\"Owner only\") */\n      mload(0x40)\n      0x08c379a000000000000000000000000000000000000000000000000000000000\n      dup2\n      mstore\n        /* \"#utility.yul\":3005:3007   */\n      0x20\n        /* \"Workspace.sol\":994:1014  revert(\"Owner only\") */\n      0x04\n      dup3\n      add\n        /* \"#utility.yul\":2987:3008   */\n      mstore\n        /* \"#utility.yul\":3044:3046   */\n      0x0a\n        /* \"#utility.yul\":3024:3042   */\n      0x24\n      dup3\n      add\n        /* \"#utility.yul\":3017:3047   */\n      mstore\n        /* \"#utility.yul\":3083:3095   */\n      0x4f776e6572206f6e6c7900000000000000000000000000000000000000000000\n        /* \"#utility.yul\":3063:3081   */\n      0x44\n      dup3\n      add\n        /* \"#utility.yul\":3056:3096   */\n      mstore\n        /* \"#utility.yul\":3113:3131   */\n      0x64\n      add\n        /* \"Workspace.sol\":994:1014  revert(\"Owner only\") */\n      tag_63\n        /* \"#utility.yul\":2803:3137   */\n      jump\n        /* \"Workspace.sol\":957:1014  if(owner != msg.sender)... */\n    tag_99:\n      pop\n        /* \"Workspace.sol\":1034:1042  newOwner */\n      0x01\n        /* \"Workspace.sol\":1027:1042  delete newOwner */\n      dup1\n      sload\n      0xffffffffffffffffffffffff0000000000000000000000000000000000000000\n      and\n      0xffffffffffffffffffffffffffffffffffffffff\n        /* \"Workspace.sol\":1405:1422  newOwner = _owner */\n      dup4\n      and\n      or\n      dup2\n      sstore\n        /* \"Workspace.sol\":1053:1054  _ */\n    tag_101:\n        /* \"Workspace.sol\":1319:1454  function ChangeOwnership(address _owner) external ownerOnly returns(bool){... */\n      swap2\n      swap1\n      pop\n      jump\t// out\n        /* \"Workspace.sol\":1462:1752  function AcceptOwnership() external returns(bool){... */\n    tag_37:\n        /* \"Workspace.sol\":1527:1535  newOwner */\n      sload(0x01)\n        /* \"Workspace.sol\":1506:1510  bool */\n      0x00\n      swap1\n        /* \"Workspace.sol\":1527:1549  newOwner != msg.sender */\n      0xffffffffffffffffffffffffffffffffffffffff\n        /* \"Workspace.sol\":1527:1535  newOwner */\n      and\n        /* \"Workspace.sol\":1539:1549  msg.sender */\n      caller\n        /* \"Workspace.sol\":1527:1549  newOwner != msg.sender */\n      eq\n        /* \"Workspace.sol\":1524:1588  if(newOwner != msg.sender)... */\n      tag_103\n      jumpi\n        /* \"Workspace.sol\":1564:1588  revert(\"Can not accept\") */\n      mload(0x40)\n      0x08c379a000000000000000000000000000000000000000000000000000000000\n      dup2\n      mstore\n        /* \"#utility.yul\":10946:10948   */\n      0x20\n        /* \"Workspace.sol\":1564:1588  revert(\"Can not accept\") */\n      0x04\n      dup3\n      add\n        /* \"#utility.yul\":10928:10949   */\n      mstore\n        /* \"#utility.yul\":10985:10987   */\n      0x0e\n        /* \"#utility.yul\":10965:10983   */\n      0x24\n      dup3\n      add\n        /* \"#utility.yul\":10958:10988   */\n      mstore\n        /* \"#utility.yul\":11024:11040   */\n      0x43616e206e6f7420616363657074000000000000000000000000000000000000\n        /* \"#utility.yul\":11004:11022   */\n      0x44\n      dup3\n      add\n        /* \"#utility.yul\":10997:11041   */\n      mstore\n        /* \"#utility.yul\":11058:11076   */\n      0x64\n      add\n        /* \"Workspace.sol\":1564:1588  revert(\"Can not accept\") */\n      tag_63\n        /* \"#utility.yul\":10744:11082   */\n      jump\n        /* \"Workspace.sol\":1524:1588  if(newOwner != msg.sender)... */\n    tag_103:\n        /* \"Workspace.sol\":1601:1613  address prev */\n      0x00\n        /* \"Workspace.sol\":1616:1621  owner */\n      dup1\n      sload\n      0x01\n        /* \"Workspace.sol\":1642:1650  newOwner */\n      dup1\n      sload\n        /* \"Workspace.sol\":1616:1621  owner */\n      0xffffffffffffffffffffffffffffffffffffffff\n        /* \"Workspace.sol\":1642:1650  newOwner */\n      dup1\n      dup3\n      and\n        /* \"Workspace.sol\":1634:1650  owner = newOwner */\n      0xffffffffffffffffffffffff0000000000000000000000000000000000000000\n      dup1\n      dup7\n      and\n      dup3\n      or\n      swap1\n      swap7\n      sstore\n        /* \"Workspace.sol\":1661:1676  delete newOwner */\n      swap5\n      swap1\n      swap2\n      and\n      swap1\n      swap2\n      sstore\n        /* \"Workspace.sol\":1694:1722  OwnershipChange(prev, owner) */\n      0x40\n      dup1\n      mload\n        /* \"Workspace.sol\":1616:1621  owner */\n      swap2\n      swap1\n      swap3\n      and\n        /* \"#utility.yul\":11322:11356   */\n      dup1\n      dup3\n      mstore\n        /* \"#utility.yul\":11387:11389   */\n      0x20\n        /* \"#utility.yul\":11372:11390   */\n      dup3\n      add\n        /* \"#utility.yul\":11365:11408   */\n      swap4\n      swap1\n      swap4\n      mstore\n        /* \"Workspace.sol\":1694:1722  OwnershipChange(prev, owner) */\n      0x3144a367e9e4a01c9aa66bb51a6f2c06a93959657ba200331aecf472eea506b1\n      swap2\n        /* \"#utility.yul\":11234:11252   */\n      add\n        /* \"Workspace.sol\":1694:1722  OwnershipChange(prev, owner) */\n      mload(0x40)\n      dup1\n      swap2\n      sub\n      swap1\n      log1\n        /* \"Workspace.sol\":1740:1744  true */\n      0x01\n        /* \"Workspace.sol\":1733:1744  return true */\n      swap2\n      pop\n      pop\n        /* \"Workspace.sol\":1462:1752  function AcceptOwnership() external returns(bool){... */\n      swap1\n      jump\t// out\n        /* \"Workspace.sol\":3581:3919  function RemoveContract(string calldata _name) external ownerOnly returns(bool){... */\n    tag_43:\n        /* \"Workspace.sol\":3655:3659  bool */\n      0x00\n        /* \"Workspace.sol\":960:965  owner */\n      dup1\n      sload\n        /* \"Workspace.sol\":960:979  owner != msg.sender */\n      0xffffffffffffffffffffffffffffffffffffffff\n        /* \"Workspace.sol\":960:965  owner */\n      and\n        /* \"Workspace.sol\":969:979  msg.sender */\n      caller\n        /* \"Workspace.sol\":960:979  owner != msg.sender */\n      eq\n        /* \"Workspace.sol\":957:1014  if(owner != msg.sender)... */\n      tag_109\n      jumpi\n        /* \"Workspace.sol\":994:1014  revert(\"Owner only\") */\n      mload(0x40)\n      0x08c379a000000000000000000000000000000000000000000000000000000000\n      dup2\n      mstore\n        /* \"#utility.yul\":3005:3007   */\n      0x20\n        /* \"Workspace.sol\":994:1014  revert(\"Owner only\") */\n      0x04\n      dup3\n      add\n        /* \"#utility.yul\":2987:3008   */\n      mstore\n        /* \"#utility.yul\":3044:3046   */\n      0x0a\n        /* \"#utility.yul\":3024:3042   */\n      0x24\n      dup3\n      add\n        /* \"#utility.yul\":3017:3047   */\n      mstore\n        /* \"#utility.yul\":3083:3095   */\n      0x4f776e6572206f6e6c7900000000000000000000000000000000000000000000\n        /* \"#utility.yul\":3063:3081   */\n      0x44\n      dup3\n      add\n        /* \"#utility.yul\":3056:3096   */\n      mstore\n        /* \"#utility.yul\":3113:3131   */\n      0x64\n      add\n        /* \"Workspace.sol\":994:1014  revert(\"Owner only\") */\n      tag_63\n        /* \"#utility.yul\":2803:3137   */\n      jump\n        /* \"Workspace.sol\":957:1014  if(owner != msg.sender)... */\n    tag_109:\n        /* \"Workspace.sol\":1034:1042  newOwner */\n      0x01\n        /* \"Workspace.sol\":1027:1042  delete newOwner */\n      dup1\n      sload\n      0xffffffffffffffffffffffff0000000000000000000000000000000000000000\n      and\n      swap1\n      sstore\n        /* \"Workspace.sol\":3676:3696  nameToAddress[_name] */\n      mload(0x40)\n        /* \"Workspace.sol\":1034:1042  newOwner */\n      0x00\n      swap1\n        /* \"Workspace.sol\":3676:3689  nameToAddress */\n      0x02\n      swap1\n        /* \"Workspace.sol\":3676:3696  nameToAddress[_name] */\n      tag_112\n      swap1\n        /* \"Workspace.sol\":3690:3695  _name */\n      dup7\n      swap1\n      dup7\n      swap1\n        /* \"Workspace.sol\":3676:3696  nameToAddress[_name] */\n      tag_67\n      jump\t// in\n    tag_112:\n      swap1\n      dup2\n      mstore\n      mload(0x40)\n      swap1\n      dup2\n      swap1\n      sub\n      0x20\n      add\n      swap1\n      keccak256\n      sload\n      0xffffffffffffffffffffffffffffffffffffffff\n      and\n        /* \"Workspace.sol\":3676:3710  nameToAddress[_name] == address(0) */\n      sub\n        /* \"Workspace.sol\":3673:3748  if(nameToAddress[_name] == address(0))... */\n      tag_113\n      jumpi\n        /* \"Workspace.sol\":3725:3748  revert(\"Name not used\") */\n      mload(0x40)\n      0x08c379a000000000000000000000000000000000000000000000000000000000\n      dup2\n      mstore\n        /* \"#utility.yul\":11621:11623   */\n      0x20\n        /* \"Workspace.sol\":3725:3748  revert(\"Name not used\") */\n      0x04\n      dup3\n      add\n        /* \"#utility.yul\":11603:11624   */\n      mstore\n        /* \"#utility.yul\":11660:11662   */\n      0x0d\n        /* \"#utility.yul\":11640:11658   */\n      0x24\n      dup3\n      add\n        /* \"#utility.yul\":11633:11663   */\n      mstore\n        /* \"#utility.yul\":11699:11714   */\n      0x4e616d65206e6f74207573656400000000000000000000000000000000000000\n        /* \"#utility.yul\":11679:11697   */\n      0x44\n      dup3\n      add\n        /* \"#utility.yul\":11672:11715   */\n      mstore\n        /* \"#utility.yul\":11732:11750   */\n      0x64\n      add\n        /* \"Workspace.sol\":3725:3748  revert(\"Name not used\") */\n      tag_63\n        /* \"#utility.yul\":11419:11756   */\n      jump\n        /* \"Workspace.sol\":3673:3748  if(nameToAddress[_name] == address(0))... */\n    tag_113:\n        /* \"Workspace.sol\":3776:3789  addressToName */\n      0x03\n        /* \"Workspace.sol\":3776:3811  addressToName[nameToAddress[_name]] */\n      0x00\n        /* \"Workspace.sol\":3790:3803  nameToAddress */\n      0x02\n        /* \"Workspace.sol\":3804:3809  _name */\n      dup6\n      dup6\n        /* \"Workspace.sol\":3790:3810  nameToAddress[_name] */\n      mload(0x40)\n      tag_116\n      swap3\n      swap2\n      swap1\n      tag_67\n      jump\t// in\n    tag_116:\n      swap1\n      dup2\n      mstore\n      0x40\n      dup1\n      mload\n      0x20\n      swap3\n      dup2\n      swap1\n      sub\n      dup4\n      add\n      swap1\n      keccak256\n      sload\n      0xffffffffffffffffffffffffffffffffffffffff\n      and\n        /* \"Workspace.sol\":3776:3811  addressToName[nameToAddress[_name]] */\n      dup4\n      mstore\n      swap1\n      dup3\n      add\n      swap3\n      swap1\n      swap3\n      mstore\n      add\n      0x00\n      swap1\n      dup2\n      keccak256\n        /* \"Workspace.sol\":3769:3811  delete addressToName[nameToAddress[_name]] */\n      tag_117\n      swap2\n      tag_118\n      jump\t// in\n    tag_117:\n        /* \"Workspace.sol\":3829:3842  nameToAddress */\n      0x02\n        /* \"Workspace.sol\":3843:3848  _name */\n      dup4\n      dup4\n        /* \"Workspace.sol\":3829:3849  nameToAddress[_name] */\n      mload(0x40)\n      tag_119\n      swap3\n      swap2\n      swap1\n      tag_67\n      jump\t// in\n    tag_119:\n      swap1\n      dup2\n      mstore\n      mload(0x40)\n      swap1\n      dup2\n      swap1\n      sub\n      0x20\n      add\n      dup2\n      keccak256\n        /* \"Workspace.sol\":3822:3849  delete nameToAddress[_name] */\n      dup1\n      sload\n      0xffffffffffffffffffffffff0000000000000000000000000000000000000000\n      and\n      swap1\n      sstore\n        /* \"Workspace.sol\":3867:3889  ContractRemoval(_name) */\n      0x90495817b5f4e73a4c2e73f2c4cebb64084b56ff7547fed05fc45e6776f19275\n      swap1\n      tag_120\n      swap1\n        /* \"Workspace.sol\":3883:3888  _name */\n      dup6\n      swap1\n      dup6\n      swap1\n        /* \"Workspace.sol\":3867:3889  ContractRemoval(_name) */\n      tag_121\n      jump\t// in\n    tag_120:\n      mload(0x40)\n      dup1\n      swap2\n      sub\n      swap1\n      log1\n      pop\n        /* \"Workspace.sol\":3907:3911  true */\n      0x01\n        /* \"Workspace.sol\":3581:3919  function RemoveContract(string calldata _name) external ownerOnly returns(bool){... */\n      swap3\n      swap2\n      pop\n      pop\n      jump\t// out\n        /* \"Workspace.sol\":4006:4127  function GetAddress(string calldata _name) external view returns(address){... */\n    tag_48:\n        /* \"Workspace.sol\":4071:4078  address */\n      0x00\n        /* \"Workspace.sol\":4099:4112  nameToAddress */\n      0x02\n        /* \"Workspace.sol\":4113:4118  _name */\n      dup4\n      dup4\n        /* \"Workspace.sol\":4099:4119  nameToAddress[_name] */\n      mload(0x40)\n      tag_123\n      swap3\n      swap2\n      swap1\n      tag_67\n      jump\t// in\n    tag_123:\n      swap1\n      dup2\n      mstore\n      mload(0x40)\n      swap1\n      dup2\n      swap1\n      sub\n      0x20\n      add\n      swap1\n      keccak256\n      sload\n      0xffffffffffffffffffffffffffffffffffffffff\n      and\n      swap1\n      pop\n        /* \"Workspace.sol\":4006:4127  function GetAddress(string calldata _name) external view returns(address){... */\n      swap3\n      swap2\n      pop\n      pop\n      jump\t// out\n        /* \"Workspace.sol\":2680:3573  function UpdateContract(string calldata _name, address _address) external ownerOnly returns(bool){... */\n    tag_53:\n        /* \"Workspace.sol\":2772:2776  bool */\n      0x00\n        /* \"Workspace.sol\":960:965  owner */\n      dup1\n      sload\n        /* \"Workspace.sol\":960:979  owner != msg.sender */\n      0xffffffffffffffffffffffffffffffffffffffff\n        /* \"Workspace.sol\":960:965  owner */\n      and\n        /* \"Workspace.sol\":969:979  msg.sender */\n      caller\n        /* \"Workspace.sol\":960:979  owner != msg.sender */\n      eq\n        /* \"Workspace.sol\":957:1014  if(owner != msg.sender)... */\n      tag_125\n      jumpi\n        /* \"Workspace.sol\":994:1014  revert(\"Owner only\") */\n      mload(0x40)\n      0x08c379a000000000000000000000000000000000000000000000000000000000\n      dup2\n      mstore\n        /* \"#utility.yul\":3005:3007   */\n      0x20\n        /* \"Workspace.sol\":994:1014  revert(\"Owner only\") */\n      0x04\n      dup3\n      add\n        /* \"#utility.yul\":2987:3008   */\n      mstore\n        /* \"#utility.yul\":3044:3046   */\n      0x0a\n        /* \"#utility.yul\":3024:3042   */\n      0x24\n      dup3\n      add\n        /* \"#utility.yul\":3017:3047   */\n      mstore\n        /* \"#utility.yul\":3083:3095   */\n      0x4f776e6572206f6e6c7900000000000000000000000000000000000000000000\n        /* \"#utility.yul\":3063:3081   */\n      0x44\n      dup3\n      add\n        /* \"#utility.yul\":3056:3096   */\n      mstore\n        /* \"#utility.yul\":3113:3131   */\n      0x64\n      add\n        /* \"Workspace.sol\":994:1014  revert(\"Owner only\") */\n      tag_63\n        /* \"#utility.yul\":2803:3137   */\n      jump\n        /* \"Workspace.sol\":957:1014  if(owner != msg.sender)... */\n    tag_125:\n        /* \"Workspace.sol\":1034:1042  newOwner */\n      0x01\n        /* \"Workspace.sol\":1027:1042  delete newOwner */\n      dup1\n      sload\n      0xffffffffffffffffffffffff0000000000000000000000000000000000000000\n      and\n      swap1\n      sstore\n        /* \"Workspace.sol\":2793:2813  nameToAddress[_name] */\n      mload(0x40)\n        /* \"Workspace.sol\":1034:1042  newOwner */\n      0x00\n      swap1\n        /* \"Workspace.sol\":2793:2806  nameToAddress */\n      0x02\n      swap1\n        /* \"Workspace.sol\":2793:2813  nameToAddress[_name] */\n      tag_128\n      swap1\n        /* \"Workspace.sol\":2807:2812  _name */\n      dup8\n      swap1\n      dup8\n      swap1\n        /* \"Workspace.sol\":2793:2813  nameToAddress[_name] */\n      tag_67\n      jump\t// in\n    tag_128:\n      swap1\n      dup2\n      mstore\n      mload(0x40)\n      swap1\n      dup2\n      swap1\n      sub\n      0x20\n      add\n      swap1\n      keccak256\n      sload\n      0xffffffffffffffffffffffffffffffffffffffff\n      and\n        /* \"Workspace.sol\":2793:2827  nameToAddress[_name] == address(0) */\n      sub\n        /* \"Workspace.sol\":2790:3016  if(nameToAddress[_name] == address(0))... */\n      tag_129\n      jumpi\n        /* \"Workspace.sol\":2842:2865  revert(\"Name not used\") */\n      mload(0x40)\n      0x08c379a000000000000000000000000000000000000000000000000000000000\n      dup2\n      mstore\n        /* \"#utility.yul\":11621:11623   */\n      0x20\n        /* \"Workspace.sol\":2842:2865  revert(\"Name not used\") */\n      0x04\n      dup3\n      add\n        /* \"#utility.yul\":11603:11624   */\n      mstore\n        /* \"#utility.yul\":11660:11662   */\n      0x0d\n        /* \"#utility.yul\":11640:11658   */\n      0x24\n      dup3\n      add\n        /* \"#utility.yul\":11633:11663   */\n      mstore\n        /* \"#utility.yul\":11699:11714   */\n      0x4e616d65206e6f74207573656400000000000000000000000000000000000000\n        /* \"#utility.yul\":11679:11697   */\n      0x44\n      dup3\n      add\n        /* \"#utility.yul\":11672:11715   */\n      mstore\n        /* \"#utility.yul\":11732:11750   */\n      0x64\n      add\n        /* \"Workspace.sol\":2842:2865  revert(\"Name not used\") */\n      tag_63\n        /* \"#utility.yul\":11419:11756   */\n      jump\n        /* \"Workspace.sol\":2790:3016  if(nameToAddress[_name] == address(0))... */\n    tag_129:\n        /* \"Workspace.sol\":2950:2970  abi.encodePacked(\"\") */\n      0x40\n      dup1\n      mload\n      0x00\n      dup1\n      dup3\n      mstore\n      0x20\n      dup1\n      dup4\n      add\n      dup1\n      dup6\n      mstore\n        /* \"Workspace.sol\":2940:2971  keccak256(abi.encodePacked(\"\")) */\n      dup4\n      mload\n      swap1\n      keccak256\n        /* \"Workspace.sol\":2911:2934  addressToName[_address] */\n      0xffffffffffffffffffffffffffffffffffffffff\n      dup8\n      and\n      dup4\n      mstore\n        /* \"Workspace.sol\":2911:2924  addressToName */\n      0x03\n        /* \"Workspace.sol\":2911:2934  addressToName[_address] */\n      swap1\n      swap2\n      mstore\n      swap1\n      dup4\n      swap1\n      keccak256\n        /* \"Workspace.sol\":2940:2971  keccak256(abi.encodePacked(\"\")) */\n      swap1\n      swap3\n        /* \"Workspace.sol\":2894:2935  abi.encodePacked(addressToName[_address]) */\n      tag_133\n      swap3\n      add\n      tag_75\n      jump\t// in\n    tag_133:\n      mload(0x40)\n      0x20\n      dup2\n      dup4\n      sub\n      sub\n      dup2\n      mstore\n      swap1\n      0x40\n      mstore\n        /* \"Workspace.sol\":2884:2936  keccak256(abi.encodePacked(addressToName[_address])) */\n      dup1\n      mload\n      swap1\n      0x20\n      add\n      keccak256\n        /* \"Workspace.sol\":2884:2971  keccak256(abi.encodePacked(addressToName[_address])) != keccak256(abi.encodePacked(\"\")) */\n      eq\n        /* \"Workspace.sol\":2881:3016  if(keccak256(abi.encodePacked(addressToName[_address])) != keccak256(abi.encodePacked(\"\")))... */\n      tag_134\n      jumpi\n        /* \"Workspace.sol\":2986:3016  revert(\"Address already used\") */\n      mload(0x40)\n      0x08c379a000000000000000000000000000000000000000000000000000000000\n      dup2\n      mstore\n        /* \"#utility.yul\":5652:5654   */\n      0x20\n        /* \"Workspace.sol\":2986:3016  revert(\"Address already used\") */\n      0x04\n      dup3\n      add\n        /* \"#utility.yul\":5634:5655   */\n      mstore\n        /* \"#utility.yul\":5691:5693   */\n      0x14\n        /* \"#utility.yul\":5671:5689   */\n      0x24\n      dup3\n      add\n        /* \"#utility.yul\":5664:5694   */\n      mstore\n        /* \"#utility.yul\":5730:5752   */\n      0x4164647265737320616c72656164792075736564000000000000000000000000\n        /* \"#utility.yul\":5710:5728   */\n      0x44\n      dup3\n      add\n        /* \"#utility.yul\":5703:5753   */\n      mstore\n        /* \"#utility.yul\":5770:5788   */\n      0x64\n      add\n        /* \"Workspace.sol\":2986:3016  revert(\"Address already used\") */\n      tag_63\n        /* \"#utility.yul\":5450:5794   */\n      jump\n        /* \"Workspace.sol\":2881:3016  if(keccak256(abi.encodePacked(addressToName[_address])) != keccak256(abi.encodePacked(\"\")))... */\n    tag_134:\n        /* \"Workspace.sol\":3076:3097  extcodesize(_address) */\n      dup2\n      extcodesize\n        /* \"Workspace.sol\":3113:3122  size == 0 */\n      0xffffffff\n      dup2\n      and\n        /* \"Workspace.sol\":3037:3048  uint32 size */\n      0x00\n        /* \"Workspace.sol\":3113:3122  size == 0 */\n      sub\n        /* \"Workspace.sol\":3110:3161  if(size == 0)... */\n      tag_136\n      jumpi\n        /* \"Workspace.sol\":3137:3161  revert(\"Not a contract\") */\n      mload(0x40)\n      0x08c379a000000000000000000000000000000000000000000000000000000000\n      dup2\n      mstore\n        /* \"#utility.yul\":6001:6003   */\n      0x20\n        /* \"Workspace.sol\":3137:3161  revert(\"Not a contract\") */\n      0x04\n      dup3\n      add\n        /* \"#utility.yul\":5983:6004   */\n      mstore\n        /* \"#utility.yul\":6040:6042   */\n      0x0e\n        /* \"#utility.yul\":6020:6038   */\n      0x24\n      dup3\n      add\n        /* \"#utility.yul\":6013:6043   */\n      mstore\n        /* \"#utility.yul\":6079:6095   */\n      0x4e6f74206120636f6e7472616374000000000000000000000000000000000000\n        /* \"#utility.yul\":6059:6077   */\n      0x44\n      dup3\n      add\n        /* \"#utility.yul\":6052:6096   */\n      mstore\n        /* \"#utility.yul\":6113:6131   */\n      0x64\n      add\n        /* \"Workspace.sol\":3137:3161  revert(\"Not a contract\") */\n      tag_63\n        /* \"#utility.yul\":5799:6137   */\n      jump\n        /* \"Workspace.sol\":3110:3161  if(size == 0)... */\n    tag_136:\n        /* \"Workspace.sol\":3174:3190  string memory cn */\n      0x00\n        /* \"Workspace.sol\":3212:3220  _address */\n      dup4\n        /* \"Workspace.sol\":3193:3226  WorkspaceInterface(_address).Name */\n      0xffffffffffffffffffffffffffffffffffffffff\n      and\n      0x8052474d\n        /* \"Workspace.sol\":3193:3228  WorkspaceInterface(_address).Name() */\n      mload(0x40)\n      dup2\n      0xffffffff\n      and\n      0xe0\n      shl\n      dup2\n      mstore\n      0x04\n      add\n      0x00\n      mload(0x40)\n      dup1\n      dup4\n      sub\n      dup2\n      dup7\n      gas\n      staticcall\n      iszero\n      dup1\n      iszero\n      tag_139\n      jumpi\n      returndatasize\n      0x00\n      dup1\n      returndatacopy\n      revert(0x00, returndatasize)\n    tag_139:\n      pop\n      pop\n      pop\n      pop\n      mload(0x40)\n      returndatasize\n      0x00\n      dup3\n      returndatacopy\n      0x1f\n      returndatasize\n      swap1\n      dup2\n      add\n      0xffffffffffffffffffffffffffffffffffffffffffffffffffffffffffffffe0\n      and\n      dup3\n      add\n      0x40\n      mstore\n      tag_140\n      swap2\n      swap1\n      dup2\n      add\n      swap1\n      tag_85\n      jump\t// in\n    tag_140:\n        /* \"Workspace.sol\":3174:3228  string memory cn = WorkspaceInterface(_address).Name() */\n      swap1\n      pop\n        /* \"Workspace.sol\":3309:3311  cn */\n      dup1\n        /* \"Workspace.sol\":3292:3312  abi.encodePacked(cn) */\n      add(0x20, mload(0x40))\n      tag_141\n      swap2\n      swap1\n      tag_87\n      jump\t// in\n    tag_141:\n      mload(0x40)\n      0x20\n      dup2\n      dup4\n      sub\n      sub\n      dup2\n      mstore\n      swap1\n      0x40\n      mstore\n        /* \"Workspace.sol\":3282:3313  keccak256(abi.encodePacked(cn)) */\n      dup1\n      mload\n      swap1\n      0x20\n      add\n      keccak256\n        /* \"Workspace.sol\":3271:3276  _name */\n      dup7\n      dup7\n        /* \"Workspace.sol\":3254:3277  abi.encodePacked(_name) */\n      add(0x20, mload(0x40))\n      tag_142\n      swap3\n      swap2\n      swap1\n      tag_67\n      jump\t// in\n    tag_142:\n      mload(0x40)\n      0x20\n      dup2\n      dup4\n      sub\n      sub\n      dup2\n      mstore\n      swap1\n      0x40\n      mstore\n        /* \"Workspace.sol\":3244:3278  keccak256(abi.encodePacked(_name)) */\n      dup1\n      mload\n      swap1\n      0x20\n      add\n      keccak256\n        /* \"Workspace.sol\":3244:3313  keccak256(abi.encodePacked(_name)) != keccak256(abi.encodePacked(cn)) */\n      eq\n        /* \"Workspace.sol\":3241:3353  if(keccak256(abi.encodePacked(_name)) != keccak256(abi.encodePacked(cn)))... */\n      tag_143\n      jumpi\n        /* \"Workspace.sol\":3328:3353  revert(\"Names missmatch\") */\n      mload(0x40)\n      0x08c379a000000000000000000000000000000000000000000000000000000000\n      dup2\n      mstore\n        /* \"#utility.yul\":7788:7790   */\n      0x20\n        /* \"Workspace.sol\":3328:3353  revert(\"Names missmatch\") */\n      0x04\n      dup3\n      add\n        /* \"#utility.yul\":7770:7791   */\n      mstore\n        /* \"#utility.yul\":7827:7829   */\n      0x0f\n        /* \"#utility.yul\":7807:7825   */\n      0x24\n      dup3\n      add\n        /* \"#utility.yul\":7800:7830   */\n      mstore\n        /* \"#utility.yul\":7866:7883   */\n      0x4e616d6573206d6973736d617463680000000000000000000000000000000000\n        /* \"#utility.yul\":7846:7864   */\n      0x44\n      dup3\n      add\n        /* \"#utility.yul\":7839:7884   */\n      mstore\n        /* \"#utility.yul\":7901:7919   */\n      0x64\n      add\n        /* \"Workspace.sol\":3328:3353  revert(\"Names missmatch\") */\n      tag_63\n        /* \"#utility.yul\":7586:7925   */\n      jump\n        /* \"Workspace.sol\":3241:3353  if(keccak256(abi.encodePacked(_name)) != keccak256(abi.encodePacked(cn)))... */\n    tag_143:\n        /* \"Workspace.sol\":3373:3386  addressToName */\n      0x03\n        /* \"Workspace.sol\":3373:3408  addressToName[nameToAddress[_name]] */\n      0x00\n        /* \"Workspace.sol\":3387:3400  nameToAddress */\n      0x02\n        /* \"Workspace.sol\":3401:3406  _name */\n      dup9\n      dup9\n        /* \"Workspace.sol\":3387:3407  nameToAddress[_name] */\n      mload(0x40)\n      tag_145\n      swap3\n      swap2\n      swap1\n      tag_67\n      jump\t// in\n    tag_145:\n      swap1\n      dup2\n      mstore\n      0x40\n      dup1\n      mload\n      0x20\n      swap3\n      dup2\n      swap1\n      sub\n      dup4\n      add\n      swap1\n      keccak256\n      sload\n      0xffffffffffffffffffffffffffffffffffffffff\n      and\n        /* \"Workspace.sol\":3373:3408  addressToName[nameToAddress[_name]] */\n      dup4\n      mstore\n      swap1\n      dup3\n      add\n      swap3\n      swap1\n      swap3\n      mstore\n      add\n      0x00\n      swap1\n      dup2\n      keccak256\n        /* \"Workspace.sol\":3366:3408  delete addressToName[nameToAddress[_name]] */\n      tag_146\n      swap2\n      tag_118\n      jump\t// in\n    tag_146:\n        /* \"Workspace.sol\":3444:3452  _address */\n      dup4\n        /* \"Workspace.sol\":3421:3434  nameToAddress */\n      0x02\n        /* \"Workspace.sol\":3435:3440  _name */\n      dup8\n      dup8\n        /* \"Workspace.sol\":3421:3441  nameToAddress[_name] */\n      mload(0x40)\n      tag_147\n      swap3\n      swap2\n      swap1\n      tag_67\n      jump\t// in\n    tag_147:\n      swap1\n      dup2\n      mstore\n      0x40\n      dup1\n      mload\n      0x20\n      swap3\n      dup2\n      swap1\n      sub\n      dup4\n      add\n      swap1\n      keccak256\n        /* \"Workspace.sol\":3421:3452  nameToAddress[_name] = _address */\n      dup1\n      sload\n      0xffffffffffffffffffffffff0000000000000000000000000000000000000000\n      and\n      0xffffffffffffffffffffffffffffffffffffffff\n      swap5\n      dup6\n      and\n      or\n      swap1\n      sstore\n        /* \"Workspace.sol\":3463:3486  addressToName[_address] */\n      swap2\n      dup7\n      and\n      0x00\n      swap1\n      dup2\n      mstore\n        /* \"Workspace.sol\":3463:3476  addressToName */\n      0x03\n        /* \"Workspace.sol\":3463:3486  addressToName[_address] */\n      swap1\n      swap2\n      mstore\n      keccak256\n        /* \"Workspace.sol\":3463:3494  addressToName[_address] = _name */\n      tag_148\n        /* \"Workspace.sol\":3489:3494  _name */\n      dup7\n      dup9\n        /* \"Workspace.sol\":3463:3486  addressToName[_address] */\n      dup4\n        /* \"Workspace.sol\":3463:3494  addressToName[_address] = _name */\n      tag_94\n      jump\t// in\n    tag_148:\n      pop\n        /* \"Workspace.sol\":3512:3543  ContractUpdate(_name, _address) */\n      0x74851bb416411c1b4cb986c13ce9b6a9e973e7948f03fc2e574ca42a6d3724d3\n        /* \"Workspace.sol\":3527:3532  _name */\n      dup7\n      dup7\n        /* \"Workspace.sol\":3534:3542  _address */\n      dup7\n        /* \"Workspace.sol\":3512:3543  ContractUpdate(_name, _address) */\n      mload(0x40)\n      tag_95\n      swap4\n      swap3\n      swap2\n      swap1\n      tag_96\n      jump\t// in\n        /* \"Workspace.sol\":4135:4257  function GetName(address _address) external view returns(string memory){... */\n    tag_58:\n        /* \"Workspace.sol\":4226:4249  addressToName[_address] */\n      0xffffffffffffffffffffffffffffffffffffffff\n      dup2\n      and\n      0x00\n      swap1\n      dup2\n      mstore\n        /* \"Workspace.sol\":4226:4239  addressToName */\n      0x03\n        /* \"Workspace.sol\":4226:4249  addressToName[_address] */\n      0x20\n      mstore\n      0x40\n      swap1\n      keccak256\n        /* \"Workspace.sol\":4219:4249  return addressToName[_address] */\n      dup1\n      sload\n        /* \"Workspace.sol\":4192:4205  string memory */\n      0x60\n      swap2\n        /* \"Workspace.sol\":4226:4249  addressToName[_address] */\n      swap1\n        /* \"Workspace.sol\":4219:4249  return addressToName[_address] */\n      tag_151\n      swap1\n      tag_152\n      jump\t// in\n    tag_151:\n      dup1\n      0x1f\n      add\n      0x20\n      dup1\n      swap2\n      div\n      mul\n      0x20\n      add\n      mload(0x40)\n      swap1\n      dup2\n      add\n      0x40\n      mstore\n      dup1\n      swap3\n      swap2\n      swap1\n      dup2\n      dup2\n      mstore\n      0x20\n      add\n      dup3\n      dup1\n      sload\n      tag_153\n      swap1\n      tag_152\n      jump\t// in\n    tag_153:\n      dup1\n      iszero\n      tag_154\n      jumpi\n      dup1\n      0x1f\n      lt\n      tag_155\n      jumpi\n      0x0100\n      dup1\n      dup4\n      sload\n      div\n      mul\n      dup4\n      mstore\n      swap2\n      0x20\n      add\n      swap2\n      jump(tag_154)\n    tag_155:\n      dup3\n      add\n      swap2\n      swap1\n      0x00\n      mstore\n      keccak256(0x00, 0x20)\n      swap1\n    tag_156:\n      dup2\n      sload\n      dup2\n      mstore\n      swap1\n      0x01\n      add\n      swap1\n      0x20\n      add\n      dup1\n      dup4\n      gt\n      tag_156\n      jumpi\n      dup3\n      swap1\n      sub\n      0x1f\n      and\n      dup3\n      add\n      swap2\n    tag_154:\n      pop\n      pop\n      pop\n      pop\n      pop\n      swap1\n      pop\n        /* \"Workspace.sol\":4135:4257  function GetName(address _address) external view returns(string memory){... */\n      swap2\n      swap1\n      pop\n      jump\t// out\n    tag_118:\n      pop\n      dup1\n      sload\n      tag_157\n      swap1\n      tag_152\n      jump\t// in\n    tag_157:\n      0x00\n      dup3\n      sstore\n      dup1\n      0x1f\n      lt\n      tag_159\n      jumpi\n      pop\n      pop\n      jump\t// out\n    tag_159:\n      0x1f\n      add\n      0x20\n      swap1\n      div\n      swap1\n      0x00\n      mstore\n      keccak256(0x00, 0x20)\n      swap1\n      dup2\n      add\n      swap1\n      tag_160\n      swap2\n      swap1\n      tag_161\n      jump\t// in\n    tag_160:\n      pop\n      jump\t// out\n    tag_161:\n    tag_162:\n      dup1\n      dup3\n      gt\n      iszero\n      tag_163\n      jumpi\n      0x00\n      dup2\n      sstore\n      0x01\n      add\n      jump(tag_162)\n    tag_163:\n      pop\n      swap1\n      jump\t// out\n        /* \"#utility.yul\":14:362   */\n    tag_164:\n        /* \"#utility.yul\":66:74   */\n      0x00\n        /* \"#utility.yul\":76:82   */\n      dup1\n        /* \"#utility.yul\":130:133   */\n      dup4\n        /* \"#utility.yul\":123:127   */\n      0x1f\n        /* \"#utility.yul\":115:121   */\n      dup5\n        /* \"#utility.yul\":111:128   */\n      add\n        /* \"#utility.yul\":107:134   */\n      slt\n        /* \"#utility.yul\":97:152   */\n      tag_174\n      jumpi\n        /* \"#utility.yul\":148:149   */\n      0x00\n        /* \"#utility.yul\":145:146   */\n      dup1\n        /* \"#utility.yul\":138:150   */\n      revert\n        /* \"#utility.yul\":97:152   */\n    tag_174:\n      pop\n        /* \"#utility.yul\":171:191   */\n      dup2\n      calldataload\n        /* \"#utility.yul\":214:232   */\n      0xffffffffffffffff\n        /* \"#utility.yul\":203:233   */\n      dup2\n      gt\n        /* \"#utility.yul\":200:250   */\n      iszero\n      tag_175\n      jumpi\n        /* \"#utility.yul\":246:247   */\n      0x00\n        /* \"#utility.yul\":243:244   */\n      dup1\n        /* \"#utility.yul\":236:248   */\n      revert\n        /* \"#utility.yul\":200:250   */\n    tag_175:\n        /* \"#utility.yul\":283:287   */\n      0x20\n        /* \"#utility.yul\":275:281   */\n      dup4\n        /* \"#utility.yul\":271:288   */\n      add\n        /* \"#utility.yul\":259:288   */\n      swap2\n      pop\n        /* \"#utility.yul\":335:338   */\n      dup4\n        /* \"#utility.yul\":328:332   */\n      0x20\n        /* \"#utility.yul\":319:325   */\n      dup3\n        /* \"#utility.yul\":311:317   */\n      dup6\n        /* \"#utility.yul\":307:326   */\n      add\n        /* \"#utility.yul\":303:333   */\n      add\n        /* \"#utility.yul\":300:339   */\n      gt\n        /* \"#utility.yul\":297:356   */\n      iszero\n      tag_176\n      jumpi\n        /* \"#utility.yul\":352:353   */\n      0x00\n        /* \"#utility.yul\":349:350   */\n      dup1\n        /* \"#utility.yul\":342:354   */\n      revert\n        /* \"#utility.yul\":297:356   */\n    tag_176:\n        /* \"#utility.yul\":14:362   */\n      swap3\n      pop\n      swap3\n      swap1\n      pop\n      jump\t// out\n        /* \"#utility.yul\":367:563   */\n    tag_165:\n        /* \"#utility.yul\":435:455   */\n      dup1\n      calldataload\n        /* \"#utility.yul\":495:537   */\n      0xffffffffffffffffffffffffffffffffffffffff\n        /* \"#utility.yul\":484:538   */\n      dup2\n      and\n        /* \"#utility.yul\":474:539   */\n      dup2\n      eq\n        /* \"#utility.yul\":464:557   */\n      tag_101\n      jumpi\n        /* \"#utility.yul\":553:554   */\n      0x00\n        /* \"#utility.yul\":550:551   */\n      dup1\n        /* \"#utility.yul\":543:555   */\n      revert\n        /* \"#utility.yul\":568:1053   */\n    tag_20:\n        /* \"#utility.yul\":648:654   */\n      0x00\n        /* \"#utility.yul\":656:662   */\n      dup1\n        /* \"#utility.yul\":664:670   */\n      0x00\n        /* \"#utility.yul\":717:719   */\n      0x40\n        /* \"#utility.yul\":705:714   */\n      dup5\n        /* \"#utility.yul\":696:703   */\n      dup7\n        /* \"#utility.yul\":692:715   */\n      sub\n        /* \"#utility.yul\":688:720   */\n      slt\n        /* \"#utility.yul\":685:737   */\n      iszero\n      tag_180\n      jumpi\n        /* \"#utility.yul\":733:734   */\n      0x00\n        /* \"#utility.yul\":730:731   */\n      dup1\n        /* \"#utility.yul\":723:735   */\n      revert\n        /* \"#utility.yul\":685:737   */\n    tag_180:\n        /* \"#utility.yul\":773:782   */\n      dup4\n        /* \"#utility.yul\":760:783   */\n      calldataload\n        /* \"#utility.yul\":806:824   */\n      0xffffffffffffffff\n        /* \"#utility.yul\":798:804   */\n      dup2\n        /* \"#utility.yul\":795:825   */\n      gt\n        /* \"#utility.yul\":792:842   */\n      iszero\n      tag_181\n      jumpi\n        /* \"#utility.yul\":838:839   */\n      0x00\n        /* \"#utility.yul\":835:836   */\n      dup1\n        /* \"#utility.yul\":828:840   */\n      revert\n        /* \"#utility.yul\":792:842   */\n    tag_181:\n        /* \"#utility.yul\":877:936   */\n      tag_182\n        /* \"#utility.yul\":928:935   */\n      dup7\n        /* \"#utility.yul\":919:925   */\n      dup3\n        /* \"#utility.yul\":908:917   */\n      dup8\n        /* \"#utility.yul\":904:926   */\n      add\n        /* \"#utility.yul\":877:936   */\n      tag_164\n      jump\t// in\n    tag_182:\n        /* \"#utility.yul\":955:963   */\n      swap1\n      swap5\n      pop\n        /* \"#utility.yul\":851:936   */\n      swap3\n      pop\n        /* \"#utility.yul\":1009:1047   */\n      tag_183\n      swap1\n      pop\n        /* \"#utility.yul\":1043:1045   */\n      0x20\n        /* \"#utility.yul\":1028:1046   */\n      dup6\n      add\n        /* \"#utility.yul\":1009:1047   */\n      tag_165\n      jump\t// in\n    tag_183:\n        /* \"#utility.yul\":999:1047   */\n      swap1\n      pop\n        /* \"#utility.yul\":568:1053   */\n      swap3\n      pop\n      swap3\n      pop\n      swap3\n      jump\t// out\n        /* \"#utility.yul\":1481:1667   */\n    tag_32:\n        /* \"#utility.yul\":1540:1546   */\n      0x00\n        /* \"#utility.yul\":1593:1595   */\n      0x20\n        /* \"#utility.yul\":1581:1590   */\n      dup3\n        /* \"#utility.yul\":1572:1579   */\n      dup5\n        /* \"#utility.yul\":1568:1591   */\n      sub\n        /* \"#utility.yul\":1564:1596   */\n      slt\n        /* \"#utility.yul\":1561:1613   */\n      iszero\n      tag_187\n      jumpi\n        /* \"#utility.yul\":1609:1610   */\n      0x00\n        /* \"#utility.yul\":1606:1607   */\n      dup1\n        /* \"#utility.yul\":1599:1611   */\n      revert\n        /* \"#utility.yul\":1561:1613   */\n    tag_187:\n        /* \"#utility.yul\":1632:1661   */\n      tag_188\n        /* \"#utility.yul\":1651:1660   */\n      dup3\n        /* \"#utility.yul\":1632:1661   */\n      tag_165\n      jump\t// in\n    tag_188:\n        /* \"#utility.yul\":1622:1661   */\n      swap4\n        /* \"#utility.yul\":1481:1667   */\n      swap3\n      pop\n      pop\n      pop\n      jump\t// out\n        /* \"#utility.yul\":1672:2083   */\n    tag_42:\n        /* \"#utility.yul\":1743:1749   */\n      0x00\n        /* \"#utility.yul\":1751:1757   */\n      dup1\n        /* \"#utility.yul\":1804:1806   */\n      0x20\n        /* \"#utility.yul\":1792:1801   */\n      dup4\n        /* \"#utility.yul\":1783:1790   */\n      dup6\n        /* \"#utility.yul\":1779:1802   */\n      sub\n        /* \"#utility.yul\":1775:1807   */\n      slt\n        /* \"#utility.yul\":1772:1824   */\n      iszero\n      tag_190\n      jumpi\n        /* \"#utility.yul\":1820:1821   */\n      0x00\n        /* \"#utility.yul\":1817:1818   */\n      dup1\n        /* \"#utility.yul\":1810:1822   */\n      revert\n        /* \"#utility.yul\":1772:1824   */\n    tag_190:\n        /* \"#utility.yul\":1860:1869   */\n      dup3\n        /* \"#utility.yul\":1847:1870   */\n      calldataload\n        /* \"#utility.yul\":1893:1911   */\n      0xffffffffffffffff\n        /* \"#utility.yul\":1885:1891   */\n      dup2\n        /* \"#utility.yul\":1882:1912   */\n      gt\n        /* \"#utility.yul\":1879:1929   */\n      iszero\n      tag_191\n      jumpi\n        /* \"#utility.yul\":1925:1926   */\n      0x00\n        /* \"#utility.yul\":1922:1923   */\n      dup1\n        /* \"#utility.yul\":1915:1927   */\n      revert\n        /* \"#utility.yul\":1879:1929   */\n    tag_191:\n        /* \"#utility.yul\":1964:2023   */\n      tag_192\n        /* \"#utility.yul\":2015:2022   */\n      dup6\n        /* \"#utility.yul\":2006:2012   */\n      dup3\n        /* \"#utility.yul\":1995:2004   */\n      dup7\n        /* \"#utility.yul\":1991:2013   */\n      add\n        /* \"#utility.yul\":1964:2023   */\n      tag_164\n      jump\t// in\n    tag_192:\n        /* \"#utility.yul\":2042:2050   */\n      swap1\n      swap7\n        /* \"#utility.yul\":1938:2023   */\n      swap1\n      swap6\n      pop\n        /* \"#utility.yul\":1672:2083   */\n      swap4\n      pop\n      pop\n      pop\n      pop\n      jump\t// out\n        /* \"#utility.yul\":2088:2338   */\n    tag_166:\n        /* \"#utility.yul\":2173:2174   */\n      0x00\n        /* \"#utility.yul\":2183:2296   */\n    tag_194:\n        /* \"#utility.yul\":2197:2203   */\n      dup4\n        /* \"#utility.yul\":2194:2195   */\n      dup2\n        /* \"#utility.yul\":2191:2204   */\n      lt\n        /* \"#utility.yul\":2183:2296   */\n      iszero\n      tag_196\n      jumpi\n        /* \"#utility.yul\":2273:2284   */\n      dup2\n      dup2\n      add\n        /* \"#utility.yul\":2267:2285   */\n      mload\n        /* \"#utility.yul\":2254:2265   */\n      dup4\n      dup3\n      add\n        /* \"#utility.yul\":2247:2286   */\n      mstore\n        /* \"#utility.yul\":2219:2221   */\n      0x20\n        /* \"#utility.yul\":2212:2222   */\n      add\n        /* \"#utility.yul\":2183:2296   */\n      jump(tag_194)\n    tag_196:\n      pop\n      pop\n        /* \"#utility.yul\":2330:2331   */\n      0x00\n        /* \"#utility.yul\":2312:2328   */\n      swap2\n      add\n        /* \"#utility.yul\":2305:2332   */\n      mstore\n        /* \"#utility.yul\":2088:2338   */\n      jump\t// out\n        /* \"#utility.yul\":2343:2798   */\n    tag_60:\n        /* \"#utility.yul\":2492:2494   */\n      0x20\n        /* \"#utility.yul\":2481:2490   */\n      dup2\n        /* \"#utility.yul\":2474:2495   */\n      mstore\n        /* \"#utility.yul\":2455:2459   */\n      0x00\n        /* \"#utility.yul\":2524:2530   */\n      dup3\n        /* \"#utility.yul\":2518:2531   */\n      mload\n        /* \"#utility.yul\":2567:2573   */\n      dup1\n        /* \"#utility.yul\":2562:2564   */\n      0x20\n        /* \"#utility.yul\":2551:2560   */\n      dup5\n        /* \"#utility.yul\":2547:2565   */\n      add\n        /* \"#utility.yul\":2540:2574   */\n      mstore\n        /* \"#utility.yul\":2583:2662   */\n      tag_198\n        /* \"#utility.yul\":2655:2661   */\n      dup2\n        /* \"#utility.yul\":2650:2652   */\n      0x40\n        /* \"#utility.yul\":2639:2648   */\n      dup6\n        /* \"#utility.yul\":2635:2653   */\n      add\n        /* \"#utility.yul\":2630:2632   */\n      0x20\n        /* \"#utility.yul\":2622:2628   */\n      dup8\n        /* \"#utility.yul\":2618:2633   */\n      add\n        /* \"#utility.yul\":2583:2662   */\n      tag_166\n      jump\t// in\n    tag_198:\n        /* \"#utility.yul\":2714:2716   */\n      0x1f\n        /* \"#utility.yul\":2702:2717   */\n      add\n        /* \"#utility.yul\":2719:2785   */\n      0xffffffffffffffffffffffffffffffffffffffffffffffffffffffffffffffe0\n        /* \"#utility.yul\":2698:2786   */\n      and\n        /* \"#utility.yul\":2683:2787   */\n      swap2\n      swap1\n      swap2\n      add\n        /* \"#utility.yul\":2789:2791   */\n      0x40\n        /* \"#utility.yul\":2679:2792   */\n      add\n      swap3\n        /* \"#utility.yul\":2343:2798   */\n      swap2\n      pop\n      pop\n      jump\t// out\n        /* \"#utility.yul\":3142:3415   */\n    tag_67:\n        /* \"#utility.yul\":3327:3333   */\n      dup2\n        /* \"#utility.yul\":3319:3325   */\n      dup4\n        /* \"#utility.yul\":3314:3317   */\n      dup3\n        /* \"#utility.yul\":3301:3334   */\n      calldatacopy\n        /* \"#utility.yul\":3283:3286   */\n      0x00\n        /* \"#utility.yul\":3353:3369   */\n      swap2\n      add\n        /* \"#utility.yul\":3378:3391   */\n      swap1\n      dup2\n      mstore\n        /* \"#utility.yul\":3353:3369   */\n      swap2\n        /* \"#utility.yul\":3142:3415   */\n      swap1\n      pop\n      jump\t// out\n        /* \"#utility.yul\":3977:4414   */\n    tag_152:\n        /* \"#utility.yul\":4056:4057   */\n      0x01\n        /* \"#utility.yul\":4052:4064   */\n      dup2\n      dup2\n      shr\n      swap1\n        /* \"#utility.yul\":4099:4111   */\n      dup3\n      and\n      dup1\n        /* \"#utility.yul\":4120:4181   */\n      tag_204\n      jumpi\n        /* \"#utility.yul\":4174:4178   */\n      0x7f\n        /* \"#utility.yul\":4166:4172   */\n      dup3\n        /* \"#utility.yul\":4162:4179   */\n      and\n        /* \"#utility.yul\":4152:4179   */\n      swap2\n      pop\n        /* \"#utility.yul\":4120:4181   */\n    tag_204:\n        /* \"#utility.yul\":4227:4229   */\n      0x20\n        /* \"#utility.yul\":4219:4225   */\n      dup3\n        /* \"#utility.yul\":4216:4230   */\n      lt\n        /* \"#utility.yul\":4196:4214   */\n      dup2\n        /* \"#utility.yul\":4193:4231   */\n      sub\n        /* \"#utility.yul\":4190:4408   */\n      tag_205\n      jumpi\n        /* \"#utility.yul\":4264:4341   */\n      0x4e487b7100000000000000000000000000000000000000000000000000000000\n        /* \"#utility.yul\":4261:4262   */\n      0x00\n        /* \"#utility.yul\":4254:4342   */\n      mstore\n        /* \"#utility.yul\":4365:4369   */\n      0x22\n        /* \"#utility.yul\":4362:4363   */\n      0x04\n        /* \"#utility.yul\":4355:4370   */\n      mstore\n        /* \"#utility.yul\":4393:4397   */\n      0x24\n        /* \"#utility.yul\":4390:4391   */\n      0x00\n        /* \"#utility.yul\":4383:4398   */\n      revert\n        /* \"#utility.yul\":4190:4408   */\n    tag_205:\n      pop\n        /* \"#utility.yul\":3977:4414   */\n      swap2\n      swap1\n      pop\n      jump\t// out\n        /* \"#utility.yul\":4545:5445   */\n    tag_75:\n        /* \"#utility.yul\":4673:4676   */\n      0x00\n        /* \"#utility.yul\":4702:4703   */\n      dup1\n        /* \"#utility.yul\":4735:4741   */\n      dup4\n        /* \"#utility.yul\":4729:4742   */\n      sload\n        /* \"#utility.yul\":4765:4801   */\n      tag_208\n        /* \"#utility.yul\":4791:4800   */\n      dup2\n        /* \"#utility.yul\":4765:4801   */\n      tag_152\n      jump\t// in\n    tag_208:\n        /* \"#utility.yul\":4820:4821   */\n      0x01\n        /* \"#utility.yul\":4837:4855   */\n      dup3\n      dup2\n      and\n        /* \"#utility.yul\":4864:5055   */\n      dup1\n      iszero\n      tag_210\n      jumpi\n        /* \"#utility.yul\":5069:5070   */\n      0x01\n        /* \"#utility.yul\":5064:5420   */\n      dup2\n      eq\n      tag_211\n      jumpi\n        /* \"#utility.yul\":4830:5420   */\n      jump(tag_209)\n        /* \"#utility.yul\":4864:5055   */\n    tag_210:\n        /* \"#utility.yul\":4912:4978   */\n      0xffffffffffffffffffffffffffffffffffffffffffffffffffffffffffffff00\n        /* \"#utility.yul\":4901:4910   */\n      dup5\n        /* \"#utility.yul\":4897:4979   */\n      and\n        /* \"#utility.yul\":4892:4895   */\n      dup8\n        /* \"#utility.yul\":4885:4980   */\n      mstore\n        /* \"#utility.yul\":5035:5041   */\n      dup3\n        /* \"#utility.yul\":5028:5042   */\n      iszero\n        /* \"#utility.yul\":5021:5043   */\n      iszero\n        /* \"#utility.yul\":5013:5019   */\n      dup4\n        /* \"#utility.yul\":5009:5044   */\n      mul\n        /* \"#utility.yul\":5004:5007   */\n      dup8\n        /* \"#utility.yul\":5000:5045   */\n      add\n        /* \"#utility.yul\":4993:5045   */\n      swap5\n      pop\n        /* \"#utility.yul\":4864:5055   */\n      jump(tag_209)\n        /* \"#utility.yul\":5064:5420   */\n    tag_211:\n        /* \"#utility.yul\":5095:5101   */\n      dup8\n        /* \"#utility.yul\":5092:5093   */\n      0x00\n        /* \"#utility.yul\":5085:5102   */\n      mstore\n        /* \"#utility.yul\":5125:5129   */\n      0x20\n        /* \"#utility.yul\":5170:5172   */\n      dup1\n        /* \"#utility.yul\":5167:5168   */\n      0x00\n        /* \"#utility.yul\":5157:5173   */\n      keccak256\n        /* \"#utility.yul\":5195:5196   */\n      0x00\n        /* \"#utility.yul\":5209:5374   */\n    tag_212:\n        /* \"#utility.yul\":5223:5229   */\n      dup6\n        /* \"#utility.yul\":5220:5221   */\n      dup2\n        /* \"#utility.yul\":5217:5230   */\n      lt\n        /* \"#utility.yul\":5209:5374   */\n      iszero\n      tag_214\n      jumpi\n        /* \"#utility.yul\":5301:5315   */\n      dup2\n      sload\n        /* \"#utility.yul\":5288:5299   */\n      dup11\n      dup3\n      add\n        /* \"#utility.yul\":5281:5316   */\n      mstore\n        /* \"#utility.yul\":5344:5360   */\n      swap1\n      dup5\n      add\n      swap1\n        /* \"#utility.yul\":5238:5248   */\n      dup3\n      add\n        /* \"#utility.yul\":5209:5374   */\n      jump(tag_212)\n    tag_214:\n        /* \"#utility.yul\":5213:5216   */\n      pop\n      pop\n      pop\n        /* \"#utility.yul\":5403:5409   */\n      dup3\n        /* \"#utility.yul\":5398:5401   */\n      dup8\n        /* \"#utility.yul\":5394:5410   */\n      add\n        /* \"#utility.yul\":5387:5410   */\n      swap5\n      pop\n        /* \"#utility.yul\":4830:5420   */\n    tag_209:\n      pop\n        /* \"#utility.yul\":5436:5439   */\n      swap3\n      swap7\n        /* \"#utility.yul\":4545:5445   */\n      swap6\n      pop\n      pop\n      pop\n      pop\n      pop\n      pop\n      jump\t// out\n        /* \"#utility.yul\":6142:6326   */\n    tag_168:\n        /* \"#utility.yul\":6194:6271   */\n      0x4e487b7100000000000000000000000000000000000000000000000000000000\n        /* \"#utility.yul\":6191:6192   */\n      0x00\n        /* \"#utility.yul\":6184:6272   */\n      mstore\n        /* \"#utility.yul\":6291:6295   */\n      0x41\n        /* \"#utility.yul\":6288:6289   */\n      0x04\n        /* \"#utility.yul\":6281:6296   */\n      mstore\n        /* \"#utility.yul\":6315:6319   */\n      0x24\n        /* \"#utility.yul\":6312:6313   */\n      0x00\n        /* \"#utility.yul\":6305:6320   */\n      revert\n        /* \"#utility.yul\":6331:7287   */\n    tag_85:\n        /* \"#utility.yul\":6411:6417   */\n      0x00\n        /* \"#utility.yul\":6464:6466   */\n      0x20\n        /* \"#utility.yul\":6452:6461   */\n      dup3\n        /* \"#utility.yul\":6443:6450   */\n      dup5\n        /* \"#utility.yul\":6439:6462   */\n      sub\n        /* \"#utility.yul\":6435:6467   */\n      slt\n        /* \"#utility.yul\":6432:6484   */\n      iszero\n      tag_219\n      jumpi\n        /* \"#utility.yul\":6480:6481   */\n      0x00\n        /* \"#utility.yul\":6477:6478   */\n      dup1\n        /* \"#utility.yul\":6470:6482   */\n      revert\n        /* \"#utility.yul\":6432:6484   */\n    tag_219:\n        /* \"#utility.yul\":6513:6522   */\n      dup2\n        /* \"#utility.yul\":6507:6523   */\n      mload\n        /* \"#utility.yul\":6542:6560   */\n      0xffffffffffffffff\n        /* \"#utility.yul\":6583:6585   */\n      dup1\n        /* \"#utility.yul\":6575:6581   */\n      dup3\n        /* \"#utility.yul\":6572:6586   */\n      gt\n        /* \"#utility.yul\":6569:6603   */\n      iszero\n      tag_220\n      jumpi\n        /* \"#utility.yul\":6599:6600   */\n      0x00\n        /* \"#utility.yul\":6596:6597   */\n      dup1\n        /* \"#utility.yul\":6589:6601   */\n      revert\n        /* \"#utility.yul\":6569:6603   */\n    tag_220:\n        /* \"#utility.yul\":6637:6643   */\n      dup2\n        /* \"#utility.yul\":6626:6635   */\n      dup5\n        /* \"#utility.yul\":6622:6644   */\n      add\n        /* \"#utility.yul\":6612:6644   */\n      swap2\n      pop\n        /* \"#utility.yul\":6682:6689   */\n      dup5\n        /* \"#utility.yul\":6675:6679   */\n      0x1f\n        /* \"#utility.yul\":6671:6673   */\n      dup4\n        /* \"#utility.yul\":6667:6680   */\n      add\n        /* \"#utility.yul\":6663:6690   */\n      slt\n        /* \"#utility.yul\":6653:6708   */\n      tag_221\n      jumpi\n        /* \"#utility.yul\":6704:6705   */\n      0x00\n        /* \"#utility.yul\":6701:6702   */\n      dup1\n        /* \"#utility.yul\":6694:6706   */\n      revert\n        /* \"#utility.yul\":6653:6708   */\n    tag_221:\n        /* \"#utility.yul\":6733:6735   */\n      dup2\n        /* \"#utility.yul\":6727:6736   */\n      mload\n        /* \"#utility.yul\":6755:6757   */\n      dup2\n        /* \"#utility.yul\":6751:6753   */\n      dup2\n        /* \"#utility.yul\":6748:6758   */\n      gt\n        /* \"#utility.yul\":6745:6781   */\n      iszero\n      tag_223\n      jumpi\n        /* \"#utility.yul\":6761:6779   */\n      tag_223\n      tag_168\n      jump\t// in\n    tag_223:\n        /* \"#utility.yul\":6895:6897   */\n      0x40\n        /* \"#utility.yul\":6889:6898   */\n      mload\n        /* \"#utility.yul\":6957:6961   */\n      0x1f\n        /* \"#utility.yul\":6949:6962   */\n      dup3\n      add\n        /* \"#utility.yul\":6800:6866   */\n      0xffffffffffffffffffffffffffffffffffffffffffffffffffffffffffffffe0\n        /* \"#utility.yul\":6945:6967   */\n      swap1\n      dup2\n      and\n        /* \"#utility.yul\":6969:6971   */\n      0x3f\n        /* \"#utility.yul\":6941:6972   */\n      add\n        /* \"#utility.yul\":6937:6977   */\n      and\n        /* \"#utility.yul\":6925:6978   */\n      dup2\n      add\n      swap1\n        /* \"#utility.yul\":6993:7011   */\n      dup4\n      dup3\n      gt\n        /* \"#utility.yul\":7013:7035   */\n      dup2\n      dup4\n      lt\n        /* \"#utility.yul\":6990:7036   */\n      or\n        /* \"#utility.yul\":6987:7059   */\n      iszero\n      tag_225\n      jumpi\n        /* \"#utility.yul\":7039:7057   */\n      tag_225\n      tag_168\n      jump\t// in\n    tag_225:\n        /* \"#utility.yul\":7079:7089   */\n      dup2\n        /* \"#utility.yul\":7075:7077   */\n      0x40\n        /* \"#utility.yul\":7068:7090   */\n      mstore\n        /* \"#utility.yul\":7114:7116   */\n      dup3\n        /* \"#utility.yul\":7106:7112   */\n      dup2\n        /* \"#utility.yul\":7099:7117   */\n      mstore\n        /* \"#utility.yul\":7154:7161   */\n      dup8\n        /* \"#utility.yul\":7149:7151   */\n      0x20\n        /* \"#utility.yul\":7144:7146   */\n      dup5\n        /* \"#utility.yul\":7140:7142   */\n      dup8\n        /* \"#utility.yul\":7136:7147   */\n      add\n        /* \"#utility.yul\":7132:7152   */\n      add\n        /* \"#utility.yul\":7129:7162   */\n      gt\n        /* \"#utility.yul\":7126:7179   */\n      iszero\n      tag_226\n      jumpi\n        /* \"#utility.yul\":7175:7176   */\n      0x00\n        /* \"#utility.yul\":7172:7173   */\n      dup1\n        /* \"#utility.yul\":7165:7177   */\n      revert\n        /* \"#utility.yul\":7126:7179   */\n    tag_226:\n        /* \"#utility.yul\":7188:7256   */\n      tag_227\n        /* \"#utility.yul\":7253:7255   */\n      dup4\n        /* \"#utility.yul\":7248:7250   */\n      0x20\n        /* \"#utility.yul\":7240:7246   */\n      dup4\n        /* \"#utility.yul\":7236:7251   */\n      add\n        /* \"#utility.yul\":7231:7233   */\n      0x20\n        /* \"#utility.yul\":7227:7229   */\n      dup9\n        /* \"#utility.yul\":7223:7234   */\n      add\n        /* \"#utility.yul\":7188:7256   */\n      tag_166\n      jump\t// in\n    tag_227:\n        /* \"#utility.yul\":7275:7281   */\n      swap8\n        /* \"#utility.yul\":6331:7287   */\n      swap7\n      pop\n      pop\n      pop\n      pop\n      pop\n      pop\n      pop\n      jump\t// out\n        /* \"#utility.yul\":7292:7581   */\n    tag_87:\n        /* \"#utility.yul\":7423:7426   */\n      0x00\n        /* \"#utility.yul\":7461:7467   */\n      dup3\n        /* \"#utility.yul\":7455:7468   */\n      mload\n        /* \"#utility.yul\":7477:7543   */\n      tag_229\n        /* \"#utility.yul\":7536:7542   */\n      dup2\n        /* \"#utility.yul\":7531:7534   */\n      dup5\n        /* \"#utility.yul\":7524:7528   */\n      0x20\n        /* \"#utility.yul\":7516:7522   */\n      dup8\n        /* \"#utility.yul\":7512:7529   */\n      add\n        /* \"#utility.yul\":7477:7543   */\n      tag_166\n      jump\t// in\n    tag_229:\n        /* \"#utility.yul\":7559:7575   */\n      swap2\n      swap1\n      swap2\n      add\n      swap3\n        /* \"#utility.yul\":7292:7581   */\n      swap2\n      pop\n      pop\n      jump\t// out\n        /* \"#utility.yul\":7930:8475   */\n    tag_169:\n        /* \"#utility.yul\":8032:8034   */\n      0x1f\n        /* \"#utility.yul\":8027:8030   */\n      dup3\n        /* \"#utility.yul\":8024:8035   */\n      gt\n        /* \"#utility.yul\":8021:8469   */\n      iszero\n      tag_232\n      jumpi\n        /* \"#utility.yul\":8068:8069   */\n      0x00\n        /* \"#utility.yul\":8093:8098   */\n      dup2\n        /* \"#utility.yul\":8089:8091   */\n      dup2\n        /* \"#utility.yul\":8082:8099   */\n      mstore\n        /* \"#utility.yul\":8138:8142   */\n      0x20\n        /* \"#utility.yul\":8134:8136   */\n      dup2\n        /* \"#utility.yul\":8124:8143   */\n      keccak256\n        /* \"#utility.yul\":8208:8210   */\n      0x1f\n        /* \"#utility.yul\":8196:8206   */\n      dup6\n        /* \"#utility.yul\":8192:8211   */\n      add\n        /* \"#utility.yul\":8189:8190   */\n      0x05\n        /* \"#utility.yul\":8185:8212   */\n      shr\n        /* \"#utility.yul\":8179:8183   */\n      dup2\n        /* \"#utility.yul\":8175:8213   */\n      add\n        /* \"#utility.yul\":8244:8248   */\n      0x20\n        /* \"#utility.yul\":8232:8242   */\n      dup7\n        /* \"#utility.yul\":8229:8249   */\n      lt\n        /* \"#utility.yul\":8226:8273   */\n      iszero\n      tag_233\n      jumpi\n      pop\n        /* \"#utility.yul\":8267:8271   */\n      dup1\n        /* \"#utility.yul\":8226:8273   */\n    tag_233:\n        /* \"#utility.yul\":8322:8324   */\n      0x1f\n        /* \"#utility.yul\":8317:8320   */\n      dup6\n        /* \"#utility.yul\":8313:8325   */\n      add\n        /* \"#utility.yul\":8310:8311   */\n      0x05\n        /* \"#utility.yul\":8306:8326   */\n      shr\n        /* \"#utility.yul\":8300:8304   */\n      dup3\n        /* \"#utility.yul\":8296:8327   */\n      add\n        /* \"#utility.yul\":8286:8327   */\n      swap2\n      pop\n        /* \"#utility.yul\":8377:8459   */\n    tag_234:\n        /* \"#utility.yul\":8395:8397   */\n      dup2\n        /* \"#utility.yul\":8388:8393   */\n      dup2\n        /* \"#utility.yul\":8385:8398   */\n      lt\n        /* \"#utility.yul\":8377:8459   */\n      iszero\n      tag_236\n      jumpi\n        /* \"#utility.yul\":8440:8457   */\n      dup3\n      dup2\n      sstore\n        /* \"#utility.yul\":8421:8422   */\n      0x01\n        /* \"#utility.yul\":8410:8423   */\n      add\n        /* \"#utility.yul\":8377:8459   */\n      jump(tag_234)\n    tag_236:\n        /* \"#utility.yul\":8381:8384   */\n      pop\n      pop\n      pop\n        /* \"#utility.yul\":8021:8469   */\n    tag_232:\n        /* \"#utility.yul\":7930:8475   */\n      pop\n      pop\n      pop\n      jump\t// out\n        /* \"#utility.yul\":8711:10036   */\n    tag_94:\n        /* \"#utility.yul\":8835:8853   */\n      0xffffffffffffffff\n        /* \"#utility.yul\":8830:8833   */\n      dup4\n        /* \"#utility.yul\":8827:8854   */\n      gt\n        /* \"#utility.yul\":8824:8877   */\n      iszero\n      tag_240\n      jumpi\n        /* \"#utility.yul\":8857:8875   */\n      tag_240\n      tag_168\n      jump\t// in\n    tag_240:\n        /* \"#utility.yul\":8886:8980   */\n      tag_241\n        /* \"#utility.yul\":8976:8979   */\n      dup4\n        /* \"#utility.yul\":8936:8974   */\n      tag_242\n        /* \"#utility.yul\":8968:8972   */\n      dup4\n        /* \"#utility.yul\":8962:8973   */\n      sload\n        /* \"#utility.yul\":8936:8974   */\n      tag_152\n      jump\t// in\n    tag_242:\n        /* \"#utility.yul\":8930:8934   */\n      dup4\n        /* \"#utility.yul\":8886:8980   */\n      tag_169\n      jump\t// in\n    tag_241:\n        /* \"#utility.yul\":9006:9007   */\n      0x00\n        /* \"#utility.yul\":9031:9033   */\n      0x1f\n        /* \"#utility.yul\":9026:9029   */\n      dup5\n        /* \"#utility.yul\":9023:9034   */\n      gt\n        /* \"#utility.yul\":9048:9049   */\n      0x01\n        /* \"#utility.yul\":9043:9778   */\n      dup2\n      eq\n      tag_244\n      jumpi\n        /* \"#utility.yul\":9822:9823   */\n      0x00\n        /* \"#utility.yul\":9839:9842   */\n      dup6\n        /* \"#utility.yul\":9836:9929   */\n      iszero\n      tag_245\n      jumpi\n      pop\n        /* \"#utility.yul\":9895:9914   */\n      dup4\n      dup3\n      add\n        /* \"#utility.yul\":9882:9915   */\n      calldataload\n        /* \"#utility.yul\":9836:9929   */\n    tag_245:\n        /* \"#utility.yul\":8617:8683   */\n      0xffffffffffffffffffffffffffffffffffffffffffffffffffffffffffffffff\n        /* \"#utility.yul\":8608:8609   */\n      0x03\n        /* \"#utility.yul\":8604:8615   */\n      dup8\n      swap1\n      shl\n        /* \"#utility.yul\":8600:8684   */\n      shr\n        /* \"#utility.yul\":8596:8685   */\n      not\n        /* \"#utility.yul\":8586:8686   */\n      and\n        /* \"#utility.yul\":8692:8693   */\n      0x01\n        /* \"#utility.yul\":8688:8699   */\n      dup7\n      swap1\n      shl\n        /* \"#utility.yul\":8583:8700   */\n      or\n        /* \"#utility.yul\":9942:10020   */\n      dup4\n      sstore\n        /* \"#utility.yul\":9016:10030   */\n      jump(tag_243)\n        /* \"#utility.yul\":9043:9778   */\n    tag_244:\n        /* \"#utility.yul\":4492:4493   */\n      0x00\n        /* \"#utility.yul\":4485:4499   */\n      dup4\n      dup2\n      mstore\n        /* \"#utility.yul\":4529:4533   */\n      0x20\n        /* \"#utility.yul\":4516:4534   */\n      swap1\n      keccak256\n        /* \"#utility.yul\":9088:9154   */\n      0xffffffffffffffffffffffffffffffffffffffffffffffffffffffffffffffe0\n        /* \"#utility.yul\":9079:9155   */\n      dup7\n      and\n      swap1\n        /* \"#utility.yul\":9239:9248   */\n      dup4\n        /* \"#utility.yul\":9261:9490   */\n    tag_248:\n        /* \"#utility.yul\":9275:9282   */\n      dup3\n        /* \"#utility.yul\":9272:9273   */\n      dup2\n        /* \"#utility.yul\":9269:9283   */\n      lt\n        /* \"#utility.yul\":9261:9490   */\n      iszero\n      tag_250\n      jumpi\n        /* \"#utility.yul\":9364:9383   */\n      dup7\n      dup6\n      add\n        /* \"#utility.yul\":9351:9384   */\n      calldataload\n        /* \"#utility.yul\":9336:9385   */\n      dup3\n      sstore\n        /* \"#utility.yul\":9471:9475   */\n      0x20\n        /* \"#utility.yul\":9456:9476   */\n      swap5\n      dup6\n      add\n      swap5\n        /* \"#utility.yul\":9424:9425   */\n      0x01\n        /* \"#utility.yul\":9412:9426   */\n      swap1\n      swap3\n      add\n      swap2\n        /* \"#utility.yul\":9291:9303   */\n      add\n        /* \"#utility.yul\":9261:9490   */\n      jump(tag_248)\n    tag_250:\n        /* \"#utility.yul\":9265:9268   */\n      pop\n        /* \"#utility.yul\":9518:9521   */\n      dup7\n        /* \"#utility.yul\":9509:9516   */\n      dup3\n        /* \"#utility.yul\":9506:9522   */\n      lt\n        /* \"#utility.yul\":9503:9722   */\n      iszero\n      tag_251\n      jumpi\n        /* \"#utility.yul\":9638:9704   */\n      0xffffffffffffffffffffffffffffffffffffffffffffffffffffffffffffffff\n        /* \"#utility.yul\":9632:9635   */\n      0xf8\n        /* \"#utility.yul\":9626:9629   */\n      dup9\n        /* \"#utility.yul\":9623:9624   */\n      0x03\n        /* \"#utility.yul\":9619:9630   */\n      shl\n        /* \"#utility.yul\":9615:9636   */\n      and\n        /* \"#utility.yul\":9611:9705   */\n      shr\n        /* \"#utility.yul\":9607:9706   */\n      not\n        /* \"#utility.yul\":9594:9603   */\n      dup5\n        /* \"#utility.yul\":9589:9592   */\n      dup8\n        /* \"#utility.yul\":9585:9604   */\n      add\n        /* \"#utility.yul\":9572:9605   */\n      calldataload\n        /* \"#utility.yul\":9568:9707   */\n      and\n        /* \"#utility.yul\":9560:9566   */\n      dup2\n        /* \"#utility.yul\":9553:9708   */\n      sstore\n        /* \"#utility.yul\":9503:9722   */\n    tag_251:\n      pop\n      pop\n        /* \"#utility.yul\":9765:9766   */\n      0x01\n        /* \"#utility.yul\":9759:9762   */\n      dup6\n        /* \"#utility.yul\":9756:9757   */\n      0x01\n        /* \"#utility.yul\":9752:9763   */\n      shl\n        /* \"#utility.yul\":9748:9767   */\n      add\n        /* \"#utility.yul\":9742:9746   */\n      dup4\n        /* \"#utility.yul\":9735:9768   */\n      sstore\n        /* \"#utility.yul\":9016:10030   */\n    tag_243:\n      pop\n      pop\n        /* \"#utility.yul\":8711:10036   */\n      pop\n      pop\n      pop\n      jump\t// out\n        /* \"#utility.yul\":10041:10367   */\n    tag_171:\n        /* \"#utility.yul\":10130:10136   */\n      dup2\n        /* \"#utility.yul\":10125:10128   */\n      dup4\n        /* \"#utility.yul\":10118:10137   */\n      mstore\n        /* \"#utility.yul\":10182:10188   */\n      dup2\n        /* \"#utility.yul\":10175:10180   */\n      dup2\n        /* \"#utility.yul\":10168:10172   */\n      0x20\n        /* \"#utility.yul\":10163:10166   */\n      dup6\n        /* \"#utility.yul\":10159:10173   */\n      add\n        /* \"#utility.yul\":10146:10189   */\n      calldatacopy\n      pop\n        /* \"#utility.yul\":10234:10235   */\n      0x00\n        /* \"#utility.yul\":10227:10231   */\n      0x20\n        /* \"#utility.yul\":10218:10224   */\n      dup3\n        /* \"#utility.yul\":10213:10216   */\n      dup5\n        /* \"#utility.yul\":10209:10225   */\n      add\n        /* \"#utility.yul\":10205:10232   */\n      add\n        /* \"#utility.yul\":10198:10236   */\n      mstore\n        /* \"#utility.yul\":10100:10103   */\n      0x00\n        /* \"#utility.yul\":10356:10360   */\n      0x20\n        /* \"#utility.yul\":10286:10352   */\n      0xffffffffffffffffffffffffffffffffffffffffffffffffffffffffffffffe0\n        /* \"#utility.yul\":10281:10283   */\n      0x1f\n        /* \"#utility.yul\":10273:10279   */\n      dup5\n        /* \"#utility.yul\":10269:10284   */\n      add\n        /* \"#utility.yul\":10265:10353   */\n      and\n        /* \"#utility.yul\":10260:10263   */\n      dup5\n        /* \"#utility.yul\":10256:10354   */\n      add\n        /* \"#utility.yul\":10252:10361   */\n      add\n        /* \"#utility.yul\":10245:10361   */\n      swap1\n      pop\n        /* \"#utility.yul\":10041:10367   */\n      swap3\n      swap2\n      pop\n      pop\n      jump\t// out\n        /* \"#utility.yul\":10372:10739   */\n    tag_96:\n        /* \"#utility.yul\":10559:10561   */\n      0x40\n        /* \"#utility.yul\":10548:10557   */\n      dup2\n        /* \"#utility.yul\":10541:10562   */\n      mstore\n        /* \"#utility.yul\":10522:10526   */\n      0x00\n        /* \"#utility.yul\":10579:10641   */\n      tag_254\n        /* \"#utility.yul\":10637:10639   */\n      0x40\n        /* \"#utility.yul\":10626:10635   */\n      dup4\n        /* \"#utility.yul\":10622:10640   */\n      add\n        /* \"#utility.yul\":10614:10620   */\n      dup6\n        /* \"#utility.yul\":10606:10612   */\n      dup8\n        /* \"#utility.yul\":10579:10641   */\n      tag_171\n      jump\t// in\n    tag_254:\n        /* \"#utility.yul\":10571:10641   */\n      swap1\n      pop\n        /* \"#utility.yul\":10689:10731   */\n      0xffffffffffffffffffffffffffffffffffffffff\n        /* \"#utility.yul\":10681:10687   */\n      dup4\n        /* \"#utility.yul\":10677:10732   */\n      and\n        /* \"#utility.yul\":10672:10674   */\n      0x20\n        /* \"#utility.yul\":10661:10670   */\n      dup4\n        /* \"#utility.yul\":10657:10675   */\n      add\n        /* \"#utility.yul\":10650:10733   */\n      mstore\n        /* \"#utility.yul\":10372:10739   */\n      swap5\n      swap4\n      pop\n      pop\n      pop\n      pop\n      jump\t// out\n        /* \"#utility.yul\":11761:12008   */\n    tag_121:\n        /* \"#utility.yul\":11920:11922   */\n      0x20\n        /* \"#utility.yul\":11909:11918   */\n      dup2\n        /* \"#utility.yul\":11902:11923   */\n      mstore\n        /* \"#utility.yul\":11883:11887   */\n      0x00\n        /* \"#utility.yul\":11940:12002   */\n      tag_259\n        /* \"#utility.yul\":11998:12000   */\n      0x20\n        /* \"#utility.yul\":11987:11996   */\n      dup4\n        /* \"#utility.yul\":11983:12001   */\n      add\n        /* \"#utility.yul\":11975:11981   */\n      dup5\n        /* \"#utility.yul\":11967:11973   */\n      dup7\n        /* \"#utility.yul\":11940:12002   */\n      tag_171\n      jump\t// in\n    tag_259:\n        /* \"#utility.yul\":11932:12002   */\n      swap5\n        /* \"#utility.yul\":11761:12008   */\n      swap4\n      pop\n      pop\n      pop\n      pop\n      jump\t// out\n\n    auxdata: 0xa2646970667358221220079e5ffee2ef31cf385c1e23afad3cd7365a9902b5d314c76f62b2437c0086f564736f6c63430008120033\n}\n",
				"bytecode": {
					"linkReferences": {},
					"object": "608060405260008054336001600160a01b0319918216811790925560018054909116909117905534801561003257600080fd5b50611686806100426000396000f3fe60806040526004361061007f5760003560e01c80638a5474371161004e5780638a547437146101505780638b05f6de14610170578063bc30337014610190578063d3a72ea1146101b057610089565b8063098e3bb01461009a5780630ae50a39146100cf578063244ded7a1461011b5780633fab62ba1461013b57610089565b3661008957600080fd5b34801561009557600080fd5b600080fd5b3480156100a657600080fd5b506100ba6100b536600461110d565b6101dd565b60405190151581526020015b60405180910390f35b3480156100db57600080fd5b5060005473ffffffffffffffffffffffffffffffffffffffff165b60405173ffffffffffffffffffffffffffffffffffffffff90911681526020016100c6565b34801561012757600080fd5b506100ba610136366004611161565b610671565b34801561014757600080fd5b506100ba61073a565b34801561015c57600080fd5b506100ba61016b366004611183565b610854565b34801561017c57600080fd5b506100f661018b366004611183565b610a7e565b34801561019c57600080fd5b506100ba6101ab36600461110d565b610ac0565b3480156101bc57600080fd5b506101d06101cb366004611161565b610f91565b6040516100c691906111e9565b6000805473ffffffffffffffffffffffffffffffffffffffff163314610264576040517f08c379a000000000000000000000000000000000000000000000000000000000815260206004820152600a60248201527f4f776e6572206f6e6c790000000000000000000000000000000000000000000060448201526064015b60405180910390fd5b600180547fffffffffffffffffffffffff00000000000000000000000000000000000000001690556040516000906002906102a2908790879061123a565b9081526040519081900360200190205473ffffffffffffffffffffffffffffffffffffffff161461032f576040517f08c379a000000000000000000000000000000000000000000000000000000000815260206004820152601160248201527f4e616d6520616c72656164792075736564000000000000000000000000000000604482015260640161025b565b60408051600080825260208083018085528351902073ffffffffffffffffffffffffffffffffffffffff871683526003909152908390209092610372920161129d565b60405160208183030381529060405280519060200120146103ef576040517f08c379a000000000000000000000000000000000000000000000000000000000815260206004820152601460248201527f4164647265737320616c72656164792075736564000000000000000000000000604482015260640161025b565b813b63ffffffff8116600003610461576040517f08c379a000000000000000000000000000000000000000000000000000000000815260206004820152600e60248201527f4e6f74206120636f6e7472616374000000000000000000000000000000000000604482015260640161025b565b60008373ffffffffffffffffffffffffffffffffffffffff16638052474d6040518163ffffffff1660e01b8152600401600060405180830381865afa1580156104ae573d6000803e3d6000fd5b505050506040513d6000823e601f3d9081017fffffffffffffffffffffffffffffffffffffffffffffffffffffffffffffffe01682016040526104f49190810190611360565b905080604051602001610507919061142b565b60405160208183030381529060405280519060200120868660405160200161053092919061123a565b60405160208183030381529060405280519060200120146105ad576040517f08c379a000000000000000000000000000000000000000000000000000000000815260206004820152600f60248201527f4e616d6573206d6973736d617463680000000000000000000000000000000000604482015260640161025b565b83600287876040516105c092919061123a565b908152604080516020928190038301902080547fffffffffffffffffffffffff00000000000000000000000000000000000000001673ffffffffffffffffffffffffffffffffffffffff9485161790559186166000908152600390915220610629868883611496565b507fb8d25cbb85ba47da9b181a587d9a84aada63fa73cbdf5e75a0f7bd4dde76190486868660405161065d939291906115fa565b60405180910390a150600195945050505050565b6000805473ffffffffffffffffffffffffffffffffffffffff1633146106f3576040517f08c379a000000000000000000000000000000000000000000000000000000000815260206004820152600a60248201527f4f776e6572206f6e6c7900000000000000000000000000000000000000000000604482015260640161025b565b50600180547fffffffffffffffffffffffff00000000000000000000000000000000000000001673ffffffffffffffffffffffffffffffffffffffff83161781555b919050565b60015460009073ffffffffffffffffffffffffffffffffffffffff1633146107be576040517f08c379a000000000000000000000000000000000000000000000000000000000815260206004820152600e60248201527f43616e206e6f7420616363657074000000000000000000000000000000000000604482015260640161025b565b600080546001805473ffffffffffffffffffffffffffffffffffffffff8082167fffffffffffffffffffffffff0000000000000000000000000000000000000000808616821790965594909116909155604080519190921680825260208201939093527f3144a367e9e4a01c9aa66bb51a6f2c06a93959657ba200331aecf472eea506b1910160405180910390a1600191505090565b6000805473ffffffffffffffffffffffffffffffffffffffff1633146108d6576040517f08c379a000000000000000000000000000000000000000000000000000000000815260206004820152600a60248201527f4f776e6572206f6e6c7900000000000000000000000000000000000000000000604482015260640161025b565b600180547fffffffffffffffffffffffff0000000000000000000000000000000000000000169055604051600090600290610914908690869061123a565b9081526040519081900360200190205473ffffffffffffffffffffffffffffffffffffffff16036109a1576040517f08c379a000000000000000000000000000000000000000000000000000000000815260206004820152600d60248201527f4e616d65206e6f74207573656400000000000000000000000000000000000000604482015260640161025b565b60036000600285856040516109b792919061123a565b90815260408051602092819003830190205473ffffffffffffffffffffffffffffffffffffffff168352908201929092520160009081206109f79161104a565b60028383604051610a0992919061123a565b90815260405190819003602001812080547fffffffffffffffffffffffff00000000000000000000000000000000000000001690557f90495817b5f4e73a4c2e73f2c4cebb64084b56ff7547fed05fc45e6776f1927590610a6d9085908590611634565b60405180910390a150600192915050565b600060028383604051610a9292919061123a565b9081526040519081900360200190205473ffffffffffffffffffffffffffffffffffffffff16905092915050565b6000805473ffffffffffffffffffffffffffffffffffffffff163314610b42576040517f08c379a000000000000000000000000000000000000000000000000000000000815260206004820152600a60248201527f4f776e6572206f6e6c7900000000000000000000000000000000000000000000604482015260640161025b565b600180547fffffffffffffffffffffffff0000000000000000000000000000000000000000169055604051600090600290610b80908790879061123a565b9081526040519081900360200190205473ffffffffffffffffffffffffffffffffffffffff1603610c0d576040517f08c379a000000000000000000000000000000000000000000000000000000000815260206004820152600d60248201527f4e616d65206e6f74207573656400000000000000000000000000000000000000604482015260640161025b565b60408051600080825260208083018085528351902073ffffffffffffffffffffffffffffffffffffffff871683526003909152908390209092610c50920161129d565b6040516020818303038152906040528051906020012014610ccd576040517f08c379a000000000000000000000000000000000000000000000000000000000815260206004820152601460248201527f4164647265737320616c72656164792075736564000000000000000000000000604482015260640161025b565b813b63ffffffff8116600003610d3f576040517f08c379a000000000000000000000000000000000000000000000000000000000815260206004820152600e60248201527f4e6f74206120636f6e7472616374000000000000000000000000000000000000604482015260640161025b565b60008373ffffffffffffffffffffffffffffffffffffffff16638052474d6040518163ffffffff1660e01b8152600401600060405180830381865afa158015610d8c573d6000803e3d6000fd5b505050506040513d6000823e601f3d9081017fffffffffffffffffffffffffffffffffffffffffffffffffffffffffffffffe0168201604052610dd29190810190611360565b905080604051602001610de5919061142b565b604051602081830303815290604052805190602001208686604051602001610e0e92919061123a565b6040516020818303038152906040528051906020012014610e8b576040517f08c379a000000000000000000000000000000000000000000000000000000000815260206004820152600f60248201527f4e616d6573206d6973736d617463680000000000000000000000000000000000604482015260640161025b565b6003600060028888604051610ea192919061123a565b90815260408051602092819003830190205473ffffffffffffffffffffffffffffffffffffffff16835290820192909252016000908120610ee19161104a565b8360028787604051610ef492919061123a565b908152604080516020928190038301902080547fffffffffffffffffffffffff00000000000000000000000000000000000000001673ffffffffffffffffffffffffffffffffffffffff9485161790559186166000908152600390915220610f5d868883611496565b507f74851bb416411c1b4cb986c13ce9b6a9e973e7948f03fc2e574ca42a6d3724d386868660405161065d939291906115fa565b73ffffffffffffffffffffffffffffffffffffffff81166000908152600360205260409020805460609190610fc59061124a565b80601f0160208091040260200160405190810160405280929190818152602001828054610ff19061124a565b801561103e5780601f106110135761010080835404028352916020019161103e565b820191906000526020600020905b81548152906001019060200180831161102157829003601f168201915b50505050509050919050565b5080546110569061124a565b6000825580601f10611066575050565b601f0160209004906000526020600020908101906110849190611087565b50565b5b8082111561109c5760008155600101611088565b5090565b60008083601f8401126110b257600080fd5b50813567ffffffffffffffff8111156110ca57600080fd5b6020830191508360208285010111156110e257600080fd5b9250929050565b803573ffffffffffffffffffffffffffffffffffffffff8116811461073557600080fd5b60008060006040848603121561112257600080fd5b833567ffffffffffffffff81111561113957600080fd5b611145868287016110a0565b90945092506111589050602085016110e9565b90509250925092565b60006020828403121561117357600080fd5b61117c826110e9565b9392505050565b6000806020838503121561119657600080fd5b823567ffffffffffffffff8111156111ad57600080fd5b6111b9858286016110a0565b90969095509350505050565b60005b838110156111e05781810151838201526020016111c8565b50506000910152565b60208152600082518060208401526112088160408501602087016111c5565b601f017fffffffffffffffffffffffffffffffffffffffffffffffffffffffffffffffe0169190910160400192915050565b8183823760009101908152919050565b600181811c9082168061125e57607f821691505b602082108103611297577f4e487b7100000000000000000000000000000000000000000000000000000000600052602260045260246000fd5b50919050565b60008083546112ab8161124a565b600182811680156112c357600181146112f657611325565b7fffffffffffffffffffffffffffffffffffffffffffffffffffffffffffffff0084168752821515830287019450611325565b8760005260208060002060005b8581101561131c5781548a820152908401908201611303565b50505082870194505b50929695505050505050565b7f4e487b7100000000000000000000000000000000000000000000000000000000600052604160045260246000fd5b60006020828403121561137257600080fd5b815167ffffffffffffffff8082111561138a57600080fd5b818401915084601f83011261139e57600080fd5b8151818111156113b0576113b0611331565b604051601f82017fffffffffffffffffffffffffffffffffffffffffffffffffffffffffffffffe0908116603f011681019083821181831017156113f6576113f6611331565b8160405282815287602084870101111561140f57600080fd5b6114208360208301602088016111c5565b979650505050505050565b6000825161143d8184602087016111c5565b9190910192915050565b601f82111561149157600081815260208120601f850160051c8101602086101561146e5750805b601f850160051c820191505b8181101561148d5782815560010161147a565b5050505b505050565b67ffffffffffffffff8311156114ae576114ae611331565b6114c2836114bc835461124a565b83611447565b6000601f84116001811461151457600085156114de5750838201355b7fffffffffffffffffffffffffffffffffffffffffffffffffffffffffffffffff600387901b1c1916600186901b1783556115aa565b6000838152602090207fffffffffffffffffffffffffffffffffffffffffffffffffffffffffffffffe0861690835b828110156115635786850135825560209485019460019092019101611543565b508682101561159e577fffffffffffffffffffffffffffffffffffffffffffffffffffffffffffffffff60f88860031b161c19848701351681555b505060018560011b0183555b5050505050565b8183528181602085013750600060208284010152600060207fffffffffffffffffffffffffffffffffffffffffffffffffffffffffffffffe0601f840116840101905092915050565b60408152600061160e6040830185876115b1565b905073ffffffffffffffffffffffffffffffffffffffff83166020830152949350505050565b6020815260006116486020830184866115b1565b94935050505056fea2646970667358221220079e5ffee2ef31cf385c1e23afad3cd7365a9902b5d314c76f62b2437c0086f564736f6c63430008120033",
					"opcodes": "PUSH1 0x80 PUSH1 0x40 MSTORE PUSH1 0x0 DUP1 SLOAD CALLER PUSH1 0x1 PUSH1 0x1 PUSH1 0xA0 SHL SUB NOT SWAP2 DUP3 AND DUP2 OR SWAP1 SWAP3 SSTORE PUSH1 0x1 DUP1 SLOAD SWAP1 SWAP2 AND SWAP1 SWAP2 OR SWAP1 SSTORE CALLVALUE DUP1 ISZERO PUSH2 0x32 JUMPI PUSH1 0x0 DUP1 REVERT JUMPDEST POP PUSH2 0x1686 DUP1 PUSH2 0x42 PUSH1 0x0 CODECOPY PUSH1 0x0 RETURN INVALID PUSH1 0x80 PUSH1 0x40 MSTORE PUSH1 0x4 CALLDATASIZE LT PUSH2 0x7F JUMPI PUSH1 0x0 CALLDATALOAD PUSH1 0xE0 SHR DUP1 PUSH4 0x8A547437 GT PUSH2 0x4E JUMPI DUP1 PUSH4 0x8A547437 EQ PUSH2 0x150 JUMPI DUP1 PUSH4 0x8B05F6DE EQ PUSH2 0x170 JUMPI DUP1 PUSH4 0xBC303370 EQ PUSH2 0x190 JUMPI DUP1 PUSH4 0xD3A72EA1 EQ PUSH2 0x1B0 JUMPI PUSH2 0x89 JUMP JUMPDEST DUP1 PUSH4 0x98E3BB0 EQ PUSH2 0x9A JUMPI DUP1 PUSH4 0xAE50A39 EQ PUSH2 0xCF JUMPI DUP1 PUSH4 0x244DED7A EQ PUSH2 0x11B JUMPI DUP1 PUSH4 0x3FAB62BA EQ PUSH2 0x13B JUMPI PUSH2 0x89 JUMP JUMPDEST CALLDATASIZE PUSH2 0x89 JUMPI PUSH1 0x0 DUP1 REVERT JUMPDEST CALLVALUE DUP1 ISZERO PUSH2 0x95 JUMPI PUSH1 0x0 DUP1 REVERT JUMPDEST PUSH1 0x0 DUP1 REVERT JUMPDEST CALLVALUE DUP1 ISZERO PUSH2 0xA6 JUMPI PUSH1 0x0 DUP1 REVERT JUMPDEST POP PUSH2 0xBA PUSH2 0xB5 CALLDATASIZE PUSH1 0x4 PUSH2 0x110D JUMP JUMPDEST PUSH2 0x1DD JUMP JUMPDEST PUSH1 0x40 MLOAD SWAP1 ISZERO ISZERO DUP2 MSTORE PUSH1 0x20 ADD JUMPDEST PUSH1 0x40 MLOAD DUP1 SWAP2 SUB SWAP1 RETURN JUMPDEST CALLVALUE DUP1 ISZERO PUSH2 0xDB JUMPI PUSH1 0x0 DUP1 REVERT JUMPDEST POP PUSH1 0x0 SLOAD PUSH20 0xFFFFFFFFFFFFFFFFFFFFFFFFFFFFFFFFFFFFFFFF AND JUMPDEST PUSH1 0x40 MLOAD PUSH20 0xFFFFFFFFFFFFFFFFFFFFFFFFFFFFFFFFFFFFFFFF SWAP1 SWAP2 AND DUP2 MSTORE PUSH1 0x20 ADD PUSH2 0xC6 JUMP JUMPDEST CALLVALUE DUP1 ISZERO PUSH2 0x127 JUMPI PUSH1 0x0 DUP1 REVERT JUMPDEST POP PUSH2 0xBA PUSH2 0x136 CALLDATASIZE PUSH1 0x4 PUSH2 0x1161 JUMP JUMPDEST PUSH2 0x671 JUMP JUMPDEST CALLVALUE DUP1 ISZERO PUSH2 0x147 JUMPI PUSH1 0x0 DUP1 REVERT JUMPDEST POP PUSH2 0xBA PUSH2 0x73A JUMP JUMPDEST CALLVALUE DUP1 ISZERO PUSH2 0x15C JUMPI PUSH1 0x0 DUP1 REVERT JUMPDEST POP PUSH2 0xBA PUSH2 0x16B CALLDATASIZE PUSH1 0x4 PUSH2 0x1183 JUMP JUMPDEST PUSH2 0x854 JUMP JUMPDEST CALLVALUE DUP1 ISZERO PUSH2 0x17C JUMPI PUSH1 0x0 DUP1 REVERT JUMPDEST POP PUSH2 0xF6 PUSH2 0x18B CALLDATASIZE PUSH1 0x4 PUSH2 0x1183 JUMP JUMPDEST PUSH2 0xA7E JUMP JUMPDEST CALLVALUE DUP1 ISZERO PUSH2 0x19C JUMPI PUSH1 0x0 DUP1 REVERT JUMPDEST POP PUSH2 0xBA PUSH2 0x1AB CALLDATASIZE PUSH1 0x4 PUSH2 0x110D JUMP JUMPDEST PUSH2 0xAC0 JUMP JUMPDEST CALLVALUE DUP1 ISZERO PUSH2 0x1BC JUMPI PUSH1 0x0 DUP1 REVERT JUMPDEST POP PUSH2 0x1D0 PUSH2 0x1CB CALLDATASIZE PUSH1 0x4 PUSH2 0x1161 JUMP JUMPDEST PUSH2 0xF91 JUMP JUMPDEST PUSH1 0x40 MLOAD PUSH2 0xC6 SWAP2 SWAP1 PUSH2 0x11E9 JUMP JUMPDEST PUSH1 0x0 DUP1 SLOAD PUSH20 0xFFFFFFFFFFFFFFFFFFFFFFFFFFFFFFFFFFFFFFFF AND CALLER EQ PUSH2 0x264 JUMPI PUSH1 0x40 MLOAD PUSH32 0x8C379A000000000000000000000000000000000000000000000000000000000 DUP2 MSTORE PUSH1 0x20 PUSH1 0x4 DUP3 ADD MSTORE PUSH1 0xA PUSH1 0x24 DUP3 ADD MSTORE PUSH32 0x4F776E6572206F6E6C7900000000000000000000000000000000000000000000 PUSH1 0x44 DUP3 ADD MSTORE PUSH1 0x64 ADD JUMPDEST PUSH1 0x40 MLOAD DUP1 SWAP2 SUB SWAP1 REVERT JUMPDEST PUSH1 0x1 DUP1 SLOAD PUSH32 0xFFFFFFFFFFFFFFFFFFFFFFFF0000000000000000000000000000000000000000 AND SWAP1 SSTORE PUSH1 0x40 MLOAD PUSH1 0x0 SWAP1 PUSH1 0x2 SWAP1 PUSH2 0x2A2 SWAP1 DUP8 SWAP1 DUP8 SWAP1 PUSH2 0x123A JUMP JUMPDEST SWAP1 DUP2 MSTORE PUSH1 0x40 MLOAD SWAP1 DUP2 SWAP1 SUB PUSH1 0x20 ADD SWAP1 KECCAK256 SLOAD PUSH20 0xFFFFFFFFFFFFFFFFFFFFFFFFFFFFFFFFFFFFFFFF AND EQ PUSH2 0x32F JUMPI PUSH1 0x40 MLOAD PUSH32 0x8C379A000000000000000000000000000000000000000000000000000000000 DUP2 MSTORE PUSH1 0x20 PUSH1 0x4 DUP3 ADD MSTORE PUSH1 0x11 PUSH1 0x24 DUP3 ADD MSTORE PUSH32 0x4E616D6520616C72656164792075736564000000000000000000000000000000 PUSH1 0x44 DUP3 ADD MSTORE PUSH1 0x64 ADD PUSH2 0x25B JUMP JUMPDEST PUSH1 0x40 DUP1 MLOAD PUSH1 0x0 DUP1 DUP3 MSTORE PUSH1 0x20 DUP1 DUP4 ADD DUP1 DUP6 MSTORE DUP4 MLOAD SWAP1 KECCAK256 PUSH20 0xFFFFFFFFFFFFFFFFFFFFFFFFFFFFFFFFFFFFFFFF DUP8 AND DUP4 MSTORE PUSH1 0x3 SWAP1 SWAP2 MSTORE SWAP1 DUP4 SWAP1 KECCAK256 SWAP1 SWAP3 PUSH2 0x372 SWAP3 ADD PUSH2 0x129D JUMP JUMPDEST PUSH1 0x40 MLOAD PUSH1 0x20 DUP2 DUP4 SUB SUB DUP2 MSTORE SWAP1 PUSH1 0x40 MSTORE DUP1 MLOAD SWAP1 PUSH1 0x20 ADD KECCAK256 EQ PUSH2 0x3EF JUMPI PUSH1 0x40 MLOAD PUSH32 0x8C379A000000000000000000000000000000000000000000000000000000000 DUP2 MSTORE PUSH1 0x20 PUSH1 0x4 DUP3 ADD MSTORE PUSH1 0x14 PUSH1 0x24 DUP3 ADD MSTORE PUSH32 0x4164647265737320616C72656164792075736564000000000000000000000000 PUSH1 0x44 DUP3 ADD MSTORE PUSH1 0x64 ADD PUSH2 0x25B JUMP JUMPDEST DUP2 EXTCODESIZE PUSH4 0xFFFFFFFF DUP2 AND PUSH1 0x0 SUB PUSH2 0x461 JUMPI PUSH1 0x40 MLOAD PUSH32 0x8C379A000000000000000000000000000000000000000000000000000000000 DUP2 MSTORE PUSH1 0x20 PUSH1 0x4 DUP3 ADD MSTORE PUSH1 0xE PUSH1 0x24 DUP3 ADD MSTORE PUSH32 0x4E6F74206120636F6E7472616374000000000000000000000000000000000000 PUSH1 0x44 DUP3 ADD MSTORE PUSH1 0x64 ADD PUSH2 0x25B JUMP JUMPDEST PUSH1 0x0 DUP4 PUSH20 0xFFFFFFFFFFFFFFFFFFFFFFFFFFFFFFFFFFFFFFFF AND PUSH4 0x8052474D PUSH1 0x40 MLOAD DUP2 PUSH4 0xFFFFFFFF AND PUSH1 0xE0 SHL DUP2 MSTORE PUSH1 0x4 ADD PUSH1 0x0 PUSH1 0x40 MLOAD DUP1 DUP4 SUB DUP2 DUP7 GAS STATICCALL ISZERO DUP1 ISZERO PUSH2 0x4AE JUMPI RETURNDATASIZE PUSH1 0x0 DUP1 RETURNDATACOPY RETURNDATASIZE PUSH1 0x0 REVERT JUMPDEST POP POP POP POP PUSH1 0x40 MLOAD RETURNDATASIZE PUSH1 0x0 DUP3 RETURNDATACOPY PUSH1 0x1F RETURNDATASIZE SWAP1 DUP2 ADD PUSH32 0xFFFFFFFFFFFFFFFFFFFFFFFFFFFFFFFFFFFFFFFFFFFFFFFFFFFFFFFFFFFFFFE0 AND DUP3 ADD PUSH1 0x40 MSTORE PUSH2 0x4F4 SWAP2 SWAP1 DUP2 ADD SWAP1 PUSH2 0x1360 JUMP JUMPDEST SWAP1 POP DUP1 PUSH1 0x40 MLOAD PUSH1 0x20 ADD PUSH2 0x507 SWAP2 SWAP1 PUSH2 0x142B JUMP JUMPDEST PUSH1 0x40 MLOAD PUSH1 0x20 DUP2 DUP4 SUB SUB DUP2 MSTORE SWAP1 PUSH1 0x40 MSTORE DUP1 MLOAD SWAP1 PUSH1 0x20 ADD KECCAK256 DUP7 DUP7 PUSH1 0x40 MLOAD PUSH1 0x20 ADD PUSH2 0x530 SWAP3 SWAP2 SWAP1 PUSH2 0x123A JUMP JUMPDEST PUSH1 0x40 MLOAD PUSH1 0x20 DUP2 DUP4 SUB SUB DUP2 MSTORE SWAP1 PUSH1 0x40 MSTORE DUP1 MLOAD SWAP1 PUSH1 0x20 ADD KECCAK256 EQ PUSH2 0x5AD JUMPI PUSH1 0x40 MLOAD PUSH32 0x8C379A000000000000000000000000000000000000000000000000000000000 DUP2 MSTORE PUSH1 0x20 PUSH1 0x4 DUP3 ADD MSTORE PUSH1 0xF PUSH1 0x24 DUP3 ADD MSTORE PUSH32 0x4E616D6573206D6973736D617463680000000000000000000000000000000000 PUSH1 0x44 DUP3 ADD MSTORE PUSH1 0x64 ADD PUSH2 0x25B JUMP JUMPDEST DUP4 PUSH1 0x2 DUP8 DUP8 PUSH1 0x40 MLOAD PUSH2 0x5C0 SWAP3 SWAP2 SWAP1 PUSH2 0x123A JUMP JUMPDEST SWAP1 DUP2 MSTORE PUSH1 0x40 DUP1 MLOAD PUSH1 0x20 SWAP3 DUP2 SWAP1 SUB DUP4 ADD SWAP1 KECCAK256 DUP1 SLOAD PUSH32 0xFFFFFFFFFFFFFFFFFFFFFFFF0000000000000000000000000000000000000000 AND PUSH20 0xFFFFFFFFFFFFFFFFFFFFFFFFFFFFFFFFFFFFFFFF SWAP5 DUP6 AND OR SWAP1 SSTORE SWAP2 DUP7 AND PUSH1 0x0 SWAP1 DUP2 MSTORE PUSH1 0x3 SWAP1 SWAP2 MSTORE KECCAK256 PUSH2 0x629 DUP7 DUP9 DUP4 PUSH2 0x1496 JUMP JUMPDEST POP PUSH32 0xB8D25CBB85BA47DA9B181A587D9A84AADA63FA73CBDF5E75A0F7BD4DDE761904 DUP7 DUP7 DUP7 PUSH1 0x40 MLOAD PUSH2 0x65D SWAP4 SWAP3 SWAP2 SWAP1 PUSH2 0x15FA JUMP JUMPDEST PUSH1 0x40 MLOAD DUP1 SWAP2 SUB SWAP1 LOG1 POP PUSH1 0x1 SWAP6 SWAP5 POP POP POP POP POP JUMP JUMPDEST PUSH1 0x0 DUP1 SLOAD PUSH20 0xFFFFFFFFFFFFFFFFFFFFFFFFFFFFFFFFFFFFFFFF AND CALLER EQ PUSH2 0x6F3 JUMPI PUSH1 0x40 MLOAD PUSH32 0x8C379A000000000000000000000000000000000000000000000000000000000 DUP2 MSTORE PUSH1 0x20 PUSH1 0x4 DUP3 ADD MSTORE PUSH1 0xA PUSH1 0x24 DUP3 ADD MSTORE PUSH32 0x4F776E6572206F6E6C7900000000000000000000000000000000000000000000 PUSH1 0x44 DUP3 ADD MSTORE PUSH1 0x64 ADD PUSH2 0x25B JUMP JUMPDEST POP PUSH1 0x1 DUP1 SLOAD PUSH32 0xFFFFFFFFFFFFFFFFFFFFFFFF0000000000000000000000000000000000000000 AND PUSH20 0xFFFFFFFFFFFFFFFFFFFFFFFFFFFFFFFFFFFFFFFF DUP4 AND OR DUP2 SSTORE JUMPDEST SWAP2 SWAP1 POP JUMP JUMPDEST PUSH1 0x1 SLOAD PUSH1 0x0 SWAP1 PUSH20 0xFFFFFFFFFFFFFFFFFFFFFFFFFFFFFFFFFFFFFFFF AND CALLER EQ PUSH2 0x7BE JUMPI PUSH1 0x40 MLOAD PUSH32 0x8C379A000000000000000000000000000000000000000000000000000000000 DUP2 MSTORE PUSH1 0x20 PUSH1 0x4 DUP3 ADD MSTORE PUSH1 0xE PUSH1 0x24 DUP3 ADD MSTORE PUSH32 0x43616E206E6F7420616363657074000000000000000000000000000000000000 PUSH1 0x44 DUP3 ADD MSTORE PUSH1 0x64 ADD PUSH2 0x25B JUMP JUMPDEST PUSH1 0x0 DUP1 SLOAD PUSH1 0x1 DUP1 SLOAD PUSH20 0xFFFFFFFFFFFFFFFFFFFFFFFFFFFFFFFFFFFFFFFF DUP1 DUP3 AND PUSH32 0xFFFFFFFFFFFFFFFFFFFFFFFF0000000000000000000000000000000000000000 DUP1 DUP7 AND DUP3 OR SWAP1 SWAP7 SSTORE SWAP5 SWAP1 SWAP2 AND SWAP1 SWAP2 SSTORE PUSH1 0x40 DUP1 MLOAD SWAP2 SWAP1 SWAP3 AND DUP1 DUP3 MSTORE PUSH1 0x20 DUP3 ADD SWAP4 SWAP1 SWAP4 MSTORE PUSH32 0x3144A367E9E4A01C9AA66BB51A6F2C06A93959657BA200331AECF472EEA506B1 SWAP2 ADD PUSH1 0x40 MLOAD DUP1 SWAP2 SUB SWAP1 LOG1 PUSH1 0x1 SWAP2 POP POP SWAP1 JUMP JUMPDEST PUSH1 0x0 DUP1 SLOAD PUSH20 0xFFFFFFFFFFFFFFFFFFFFFFFFFFFFFFFFFFFFFFFF AND CALLER EQ PUSH2 0x8D6 JUMPI PUSH1 0x40 MLOAD PUSH32 0x8C379A000000000000000000000000000000000000000000000000000000000 DUP2 MSTORE PUSH1 0x20 PUSH1 0x4 DUP3 ADD MSTORE PUSH1 0xA PUSH1 0x24 DUP3 ADD MSTORE PUSH32 0x4F776E6572206F6E6C7900000000000000000000000000000000000000000000 PUSH1 0x44 DUP3 ADD MSTORE PUSH1 0x64 ADD PUSH2 0x25B JUMP JUMPDEST PUSH1 0x1 DUP1 SLOAD PUSH32 0xFFFFFFFFFFFFFFFFFFFFFFFF0000000000000000000000000000000000000000 AND SWAP1 SSTORE PUSH1 0x40 MLOAD PUSH1 0x0 SWAP1 PUSH1 0x2 SWAP1 PUSH2 0x914 SWAP1 DUP7 SWAP1 DUP7 SWAP1 PUSH2 0x123A JUMP JUMPDEST SWAP1 DUP2 MSTORE PUSH1 0x40 MLOAD SWAP1 DUP2 SWAP1 SUB PUSH1 0x20 ADD SWAP1 KECCAK256 SLOAD PUSH20 0xFFFFFFFFFFFFFFFFFFFFFFFFFFFFFFFFFFFFFFFF AND SUB PUSH2 0x9A1 JUMPI PUSH1 0x40 MLOAD PUSH32 0x8C379A000000000000000000000000000000000000000000000000000000000 DUP2 MSTORE PUSH1 0x20 PUSH1 0x4 DUP3 ADD MSTORE PUSH1 0xD PUSH1 0x24 DUP3 ADD MSTORE PUSH32 0x4E616D65206E6F74207573656400000000000000000000000000000000000000 PUSH1 0x44 DUP3 ADD MSTORE PUSH1 0x64 ADD PUSH2 0x25B JUMP JUMPDEST PUSH1 0x3 PUSH1 0x0 PUSH1 0x2 DUP6 DUP6 PUSH1 0x40 MLOAD PUSH2 0x9B7 SWAP3 SWAP2 SWAP1 PUSH2 0x123A JUMP JUMPDEST SWAP1 DUP2 MSTORE PUSH1 0x40 DUP1 MLOAD PUSH1 0x20 SWAP3 DUP2 SWAP1 SUB DUP4 ADD SWAP1 KECCAK256 SLOAD PUSH20 0xFFFFFFFFFFFFFFFFFFFFFFFFFFFFFFFFFFFFFFFF AND DUP4 MSTORE SWAP1 DUP3 ADD SWAP3 SWAP1 SWAP3 MSTORE ADD PUSH1 0x0 SWAP1 DUP2 KECCAK256 PUSH2 0x9F7 SWAP2 PUSH2 0x104A JUMP JUMPDEST PUSH1 0x2 DUP4 DUP4 PUSH1 0x40 MLOAD PUSH2 0xA09 SWAP3 SWAP2 SWAP1 PUSH2 0x123A JUMP JUMPDEST SWAP1 DUP2 MSTORE PUSH1 0x40 MLOAD SWAP1 DUP2 SWAP1 SUB PUSH1 0x20 ADD DUP2 KECCAK256 DUP1 SLOAD PUSH32 0xFFFFFFFFFFFFFFFFFFFFFFFF0000000000000000000000000000000000000000 AND SWAP1 SSTORE PUSH32 0x90495817B5F4E73A4C2E73F2C4CEBB64084B56FF7547FED05FC45E6776F19275 SWAP1 PUSH2 0xA6D SWAP1 DUP6 SWAP1 DUP6 SWAP1 PUSH2 0x1634 JUMP JUMPDEST PUSH1 0x40 MLOAD DUP1 SWAP2 SUB SWAP1 LOG1 POP PUSH1 0x1 SWAP3 SWAP2 POP POP JUMP JUMPDEST PUSH1 0x0 PUSH1 0x2 DUP4 DUP4 PUSH1 0x40 MLOAD PUSH2 0xA92 SWAP3 SWAP2 SWAP1 PUSH2 0x123A JUMP JUMPDEST SWAP1 DUP2 MSTORE PUSH1 0x40 MLOAD SWAP1 DUP2 SWAP1 SUB PUSH1 0x20 ADD SWAP1 KECCAK256 SLOAD PUSH20 0xFFFFFFFFFFFFFFFFFFFFFFFFFFFFFFFFFFFFFFFF AND SWAP1 POP SWAP3 SWAP2 POP POP JUMP JUMPDEST PUSH1 0x0 DUP1 SLOAD PUSH20 0xFFFFFFFFFFFFFFFFFFFFFFFFFFFFFFFFFFFFFFFF AND CALLER EQ PUSH2 0xB42 JUMPI PUSH1 0x40 MLOAD PUSH32 0x8C379A000000000000000000000000000000000000000000000000000000000 DUP2 MSTORE PUSH1 0x20 PUSH1 0x4 DUP3 ADD MSTORE PUSH1 0xA PUSH1 0x24 DUP3 ADD MSTORE PUSH32 0x4F776E6572206F6E6C7900000000000000000000000000000000000000000000 PUSH1 0x44 DUP3 ADD MSTORE PUSH1 0x64 ADD PUSH2 0x25B JUMP JUMPDEST PUSH1 0x1 DUP1 SLOAD PUSH32 0xFFFFFFFFFFFFFFFFFFFFFFFF0000000000000000000000000000000000000000 AND SWAP1 SSTORE PUSH1 0x40 MLOAD PUSH1 0x0 SWAP1 PUSH1 0x2 SWAP1 PUSH2 0xB80 SWAP1 DUP8 SWAP1 DUP8 SWAP1 PUSH2 0x123A JUMP JUMPDEST SWAP1 DUP2 MSTORE PUSH1 0x40 MLOAD SWAP1 DUP2 SWAP1 SUB PUSH1 0x20 ADD SWAP1 KECCAK256 SLOAD PUSH20 0xFFFFFFFFFFFFFFFFFFFFFFFFFFFFFFFFFFFFFFFF AND SUB PUSH2 0xC0D JUMPI PUSH1 0x40 MLOAD PUSH32 0x8C379A000000000000000000000000000000000000000000000000000000000 DUP2 MSTORE PUSH1 0x20 PUSH1 0x4 DUP3 ADD MSTORE PUSH1 0xD PUSH1 0x24 DUP3 ADD MSTORE PUSH32 0x4E616D65206E6F74207573656400000000000000000000000000000000000000 PUSH1 0x44 DUP3 ADD MSTORE PUSH1 0x64 ADD PUSH2 0x25B JUMP JUMPDEST PUSH1 0x40 DUP1 MLOAD PUSH1 0x0 DUP1 DUP3 MSTORE PUSH1 0x20 DUP1 DUP4 ADD DUP1 DUP6 MSTORE DUP4 MLOAD SWAP1 KECCAK256 PUSH20 0xFFFFFFFFFFFFFFFFFFFFFFFFFFFFFFFFFFFFFFFF DUP8 AND DUP4 MSTORE PUSH1 0x3 SWAP1 SWAP2 MSTORE SWAP1 DUP4 SWAP1 KECCAK256 SWAP1 SWAP3 PUSH2 0xC50 SWAP3 ADD PUSH2 0x129D JUMP JUMPDEST PUSH1 0x40 MLOAD PUSH1 0x20 DUP2 DUP4 SUB SUB DUP2 MSTORE SWAP1 PUSH1 0x40 MSTORE DUP1 MLOAD SWAP1 PUSH1 0x20 ADD KECCAK256 EQ PUSH2 0xCCD JUMPI PUSH1 0x40 MLOAD PUSH32 0x8C379A000000000000000000000000000000000000000000000000000000000 DUP2 MSTORE PUSH1 0x20 PUSH1 0x4 DUP3 ADD MSTORE PUSH1 0x14 PUSH1 0x24 DUP3 ADD MSTORE PUSH32 0x4164647265737320616C72656164792075736564000000000000000000000000 PUSH1 0x44 DUP3 ADD MSTORE PUSH1 0x64 ADD PUSH2 0x25B JUMP JUMPDEST DUP2 EXTCODESIZE PUSH4 0xFFFFFFFF DUP2 AND PUSH1 0x0 SUB PUSH2 0xD3F JUMPI PUSH1 0x40 MLOAD PUSH32 0x8C379A000000000000000000000000000000000000000000000000000000000 DUP2 MSTORE PUSH1 0x20 PUSH1 0x4 DUP3 ADD MSTORE PUSH1 0xE PUSH1 0x24 DUP3 ADD MSTORE PUSH32 0x4E6F74206120636F6E7472616374000000000000000000000000000000000000 PUSH1 0x44 DUP3 ADD MSTORE PUSH1 0x64 ADD PUSH2 0x25B JUMP JUMPDEST PUSH1 0x0 DUP4 PUSH20 0xFFFFFFFFFFFFFFFFFFFFFFFFFFFFFFFFFFFFFFFF AND PUSH4 0x8052474D PUSH1 0x40 MLOAD DUP2 PUSH4 0xFFFFFFFF AND PUSH1 0xE0 SHL DUP2 MSTORE PUSH1 0x4 ADD PUSH1 0x0 PUSH1 0x40 MLOAD DUP1 DUP4 SUB DUP2 DUP7 GAS STATICCALL ISZERO DUP1 ISZERO PUSH2 0xD8C JUMPI RETURNDATASIZE PUSH1 0x0 DUP1 RETURNDATACOPY RETURNDATASIZE PUSH1 0x0 REVERT JUMPDEST POP POP POP POP PUSH1 0x40 MLOAD RETURNDATASIZE PUSH1 0x0 DUP3 RETURNDATACOPY PUSH1 0x1F RETURNDATASIZE SWAP1 DUP2 ADD PUSH32 0xFFFFFFFFFFFFFFFFFFFFFFFFFFFFFFFFFFFFFFFFFFFFFFFFFFFFFFFFFFFFFFE0 AND DUP3 ADD PUSH1 0x40 MSTORE PUSH2 0xDD2 SWAP2 SWAP1 DUP2 ADD SWAP1 PUSH2 0x1360 JUMP JUMPDEST SWAP1 POP DUP1 PUSH1 0x40 MLOAD PUSH1 0x20 ADD PUSH2 0xDE5 SWAP2 SWAP1 PUSH2 0x142B JUMP JUMPDEST PUSH1 0x40 MLOAD PUSH1 0x20 DUP2 DUP4 SUB SUB DUP2 MSTORE SWAP1 PUSH1 0x40 MSTORE DUP1 MLOAD SWAP1 PUSH1 0x20 ADD KECCAK256 DUP7 DUP7 PUSH1 0x40 MLOAD PUSH1 0x20 ADD PUSH2 0xE0E SWAP3 SWAP2 SWAP1 PUSH2 0x123A JUMP JUMPDEST PUSH1 0x40 MLOAD PUSH1 0x20 DUP2 DUP4 SUB SUB DUP2 MSTORE SWAP1 PUSH1 0x40 MSTORE DUP1 MLOAD SWAP1 PUSH1 0x20 ADD KECCAK256 EQ PUSH2 0xE8B JUMPI PUSH1 0x40 MLOAD PUSH32 0x8C379A000000000000000000000000000000000000000000000000000000000 DUP2 MSTORE PUSH1 0x20 PUSH1 0x4 DUP3 ADD MSTORE PUSH1 0xF PUSH1 0x24 DUP3 ADD MSTORE PUSH32 0x4E616D6573206D6973736D617463680000000000000000000000000000000000 PUSH1 0x44 DUP3 ADD MSTORE PUSH1 0x64 ADD PUSH2 0x25B JUMP JUMPDEST PUSH1 0x3 PUSH1 0x0 PUSH1 0x2 DUP9 DUP9 PUSH1 0x40 MLOAD PUSH2 0xEA1 SWAP3 SWAP2 SWAP1 PUSH2 0x123A JUMP JUMPDEST SWAP1 DUP2 MSTORE PUSH1 0x40 DUP1 MLOAD PUSH1 0x20 SWAP3 DUP2 SWAP1 SUB DUP4 ADD SWAP1 KECCAK256 SLOAD PUSH20 0xFFFFFFFFFFFFFFFFFFFFFFFFFFFFFFFFFFFFFFFF AND DUP4 MSTORE SWAP1 DUP3 ADD SWAP3 SWAP1 SWAP3 MSTORE ADD PUSH1 0x0 SWAP1 DUP2 KECCAK256 PUSH2 0xEE1 SWAP2 PUSH2 0x104A JUMP JUMPDEST DUP4 PUSH1 0x2 DUP8 DUP8 PUSH1 0x40 MLOAD PUSH2 0xEF4 SWAP3 SWAP2 SWAP1 PUSH2 0x123A JUMP JUMPDEST SWAP1 DUP2 MSTORE PUSH1 0x40 DUP1 MLOAD PUSH1 0x20 SWAP3 DUP2 SWAP1 SUB DUP4 ADD SWAP1 KECCAK256 DUP1 SLOAD PUSH32 0xFFFFFFFFFFFFFFFFFFFFFFFF0000000000000000000000000000000000000000 AND PUSH20 0xFFFFFFFFFFFFFFFFFFFFFFFFFFFFFFFFFFFFFFFF SWAP5 DUP6 AND OR SWAP1 SSTORE SWAP2 DUP7 AND PUSH1 0x0 SWAP1 DUP2 MSTORE PUSH1 0x3 SWAP1 SWAP2 MSTORE KECCAK256 PUSH2 0xF5D DUP7 DUP9 DUP4 PUSH2 0x1496 JUMP JUMPDEST POP PUSH32 0x74851BB416411C1B4CB986C13CE9B6A9E973E7948F03FC2E574CA42A6D3724D3 DUP7 DUP7 DUP7 PUSH1 0x40 MLOAD PUSH2 0x65D SWAP4 SWAP3 SWAP2 SWAP1 PUSH2 0x15FA JUMP JUMPDEST PUSH20 0xFFFFFFFFFFFFFFFFFFFFFFFFFFFFFFFFFFFFFFFF DUP2 AND PUSH1 0x0 SWAP1 DUP2 MSTORE PUSH1 0x3 PUSH1 0x20 MSTORE PUSH1 0x40 SWAP1 KECCAK256 DUP1 SLOAD PUSH1 0x60 SWAP2 SWAP1 PUSH2 0xFC5 SWAP1 PUSH2 0x124A JUMP JUMPDEST DUP1 PUSH1 0x1F ADD PUSH1 0x20 DUP1 SWAP2 DIV MUL PUSH1 0x20 ADD PUSH1 0x40 MLOAD SWAP1 DUP2 ADD PUSH1 0x40 MSTORE DUP1 SWAP3 SWAP2 SWAP1 DUP2 DUP2 MSTORE PUSH1 0x20 ADD DUP3 DUP1 SLOAD PUSH2 0xFF1 SWAP1 PUSH2 0x124A JUMP JUMPDEST DUP1 ISZERO PUSH2 0x103E JUMPI DUP1 PUSH1 0x1F LT PUSH2 0x1013 JUMPI PUSH2 0x100 DUP1 DUP4 SLOAD DIV MUL DUP4 MSTORE SWAP2 PUSH1 0x20 ADD SWAP2 PUSH2 0x103E JUMP JUMPDEST DUP3 ADD SWAP2 SWAP1 PUSH1 0x0 MSTORE PUSH1 0x20 PUSH1 0x0 KECCAK256 SWAP1 JUMPDEST DUP2 SLOAD DUP2 MSTORE SWAP1 PUSH1 0x1 ADD SWAP1 PUSH1 0x20 ADD DUP1 DUP4 GT PUSH2 0x1021 JUMPI DUP3 SWAP1 SUB PUSH1 0x1F AND DUP3 ADD SWAP2 JUMPDEST POP POP POP POP POP SWAP1 POP SWAP2 SWAP1 POP JUMP JUMPDEST POP DUP1 SLOAD PUSH2 0x1056 SWAP1 PUSH2 0x124A JUMP JUMPDEST PUSH1 0x0 DUP3 SSTORE DUP1 PUSH1 0x1F LT PUSH2 0x1066 JUMPI POP POP JUMP JUMPDEST PUSH1 0x1F ADD PUSH1 0x20 SWAP1 DIV SWAP1 PUSH1 0x0 MSTORE PUSH1 0x20 PUSH1 0x0 KECCAK256 SWAP1 DUP2 ADD SWAP1 PUSH2 0x1084 SWAP2 SWAP1 PUSH2 0x1087 JUMP JUMPDEST POP JUMP JUMPDEST JUMPDEST DUP1 DUP3 GT ISZERO PUSH2 0x109C JUMPI PUSH1 0x0 DUP2 SSTORE PUSH1 0x1 ADD PUSH2 0x1088 JUMP JUMPDEST POP SWAP1 JUMP JUMPDEST PUSH1 0x0 DUP1 DUP4 PUSH1 0x1F DUP5 ADD SLT PUSH2 0x10B2 JUMPI PUSH1 0x0 DUP1 REVERT JUMPDEST POP DUP2 CALLDATALOAD PUSH8 0xFFFFFFFFFFFFFFFF DUP2 GT ISZERO PUSH2 0x10CA JUMPI PUSH1 0x0 DUP1 REVERT JUMPDEST PUSH1 0x20 DUP4 ADD SWAP2 POP DUP4 PUSH1 0x20 DUP3 DUP6 ADD ADD GT ISZERO PUSH2 0x10E2 JUMPI PUSH1 0x0 DUP1 REVERT JUMPDEST SWAP3 POP SWAP3 SWAP1 POP JUMP JUMPDEST DUP1 CALLDATALOAD PUSH20 0xFFFFFFFFFFFFFFFFFFFFFFFFFFFFFFFFFFFFFFFF DUP2 AND DUP2 EQ PUSH2 0x735 JUMPI PUSH1 0x0 DUP1 REVERT JUMPDEST PUSH1 0x0 DUP1 PUSH1 0x0 PUSH1 0x40 DUP5 DUP7 SUB SLT ISZERO PUSH2 0x1122 JUMPI PUSH1 0x0 DUP1 REVERT JUMPDEST DUP4 CALLDATALOAD PUSH8 0xFFFFFFFFFFFFFFFF DUP2 GT ISZERO PUSH2 0x1139 JUMPI PUSH1 0x0 DUP1 REVERT JUMPDEST PUSH2 0x1145 DUP7 DUP3 DUP8 ADD PUSH2 0x10A0 JUMP JUMPDEST SWAP1 SWAP5 POP SWAP3 POP PUSH2 0x1158 SWAP1 POP PUSH1 0x20 DUP6 ADD PUSH2 0x10E9 JUMP JUMPDEST SWAP1 POP SWAP3 POP SWAP3 POP SWAP3 JUMP JUMPDEST PUSH1 0x0 PUSH1 0x20 DUP3 DUP5 SUB SLT ISZERO PUSH2 0x1173 JUMPI PUSH1 0x0 DUP1 REVERT JUMPDEST PUSH2 0x117C DUP3 PUSH2 0x10E9 JUMP JUMPDEST SWAP4 SWAP3 POP POP POP JUMP JUMPDEST PUSH1 0x0 DUP1 PUSH1 0x20 DUP4 DUP6 SUB SLT ISZERO PUSH2 0x1196 JUMPI PUSH1 0x0 DUP1 REVERT JUMPDEST DUP3 CALLDATALOAD PUSH8 0xFFFFFFFFFFFFFFFF DUP2 GT ISZERO PUSH2 0x11AD JUMPI PUSH1 0x0 DUP1 REVERT JUMPDEST PUSH2 0x11B9 DUP6 DUP3 DUP7 ADD PUSH2 0x10A0 JUMP JUMPDEST SWAP1 SWAP7 SWAP1 SWAP6 POP SWAP4 POP POP POP POP JUMP JUMPDEST PUSH1 0x0 JUMPDEST DUP4 DUP2 LT ISZERO PUSH2 0x11E0 JUMPI DUP2 DUP2 ADD MLOAD DUP4 DUP3 ADD MSTORE PUSH1 0x20 ADD PUSH2 0x11C8 JUMP JUMPDEST POP POP PUSH1 0x0 SWAP2 ADD MSTORE JUMP JUMPDEST PUSH1 0x20 DUP2 MSTORE PUSH1 0x0 DUP3 MLOAD DUP1 PUSH1 0x20 DUP5 ADD MSTORE PUSH2 0x1208 DUP2 PUSH1 0x40 DUP6 ADD PUSH1 0x20 DUP8 ADD PUSH2 0x11C5 JUMP JUMPDEST PUSH1 0x1F ADD PUSH32 0xFFFFFFFFFFFFFFFFFFFFFFFFFFFFFFFFFFFFFFFFFFFFFFFFFFFFFFFFFFFFFFE0 AND SWAP2 SWAP1 SWAP2 ADD PUSH1 0x40 ADD SWAP3 SWAP2 POP POP JUMP JUMPDEST DUP2 DUP4 DUP3 CALLDATACOPY PUSH1 0x0 SWAP2 ADD SWAP1 DUP2 MSTORE SWAP2 SWAP1 POP JUMP JUMPDEST PUSH1 0x1 DUP2 DUP2 SHR SWAP1 DUP3 AND DUP1 PUSH2 0x125E JUMPI PUSH1 0x7F DUP3 AND SWAP2 POP JUMPDEST PUSH1 0x20 DUP3 LT DUP2 SUB PUSH2 0x1297 JUMPI PUSH32 0x4E487B7100000000000000000000000000000000000000000000000000000000 PUSH1 0x0 MSTORE PUSH1 0x22 PUSH1 0x4 MSTORE PUSH1 0x24 PUSH1 0x0 REVERT JUMPDEST POP SWAP2 SWAP1 POP JUMP JUMPDEST PUSH1 0x0 DUP1 DUP4 SLOAD PUSH2 0x12AB DUP2 PUSH2 0x124A JUMP JUMPDEST PUSH1 0x1 DUP3 DUP2 AND DUP1 ISZERO PUSH2 0x12C3 JUMPI PUSH1 0x1 DUP2 EQ PUSH2 0x12F6 JUMPI PUSH2 0x1325 JUMP JUMPDEST PUSH32 0xFFFFFFFFFFFFFFFFFFFFFFFFFFFFFFFFFFFFFFFFFFFFFFFFFFFFFFFFFFFFFF00 DUP5 AND DUP8 MSTORE DUP3 ISZERO ISZERO DUP4 MUL DUP8 ADD SWAP5 POP PUSH2 0x1325 JUMP JUMPDEST DUP8 PUSH1 0x0 MSTORE PUSH1 0x20 DUP1 PUSH1 0x0 KECCAK256 PUSH1 0x0 JUMPDEST DUP6 DUP2 LT ISZERO PUSH2 0x131C JUMPI DUP2 SLOAD DUP11 DUP3 ADD MSTORE SWAP1 DUP5 ADD SWAP1 DUP3 ADD PUSH2 0x1303 JUMP JUMPDEST POP POP POP DUP3 DUP8 ADD SWAP5 POP JUMPDEST POP SWAP3 SWAP7 SWAP6 POP POP POP POP POP POP JUMP JUMPDEST PUSH32 0x4E487B7100000000000000000000000000000000000000000000000000000000 PUSH1 0x0 MSTORE PUSH1 0x41 PUSH1 0x4 MSTORE PUSH1 0x24 PUSH1 0x0 REVERT JUMPDEST PUSH1 0x0 PUSH1 0x20 DUP3 DUP5 SUB SLT ISZERO PUSH2 0x1372 JUMPI PUSH1 0x0 DUP1 REVERT JUMPDEST DUP2 MLOAD PUSH8 0xFFFFFFFFFFFFFFFF DUP1 DUP3 GT ISZERO PUSH2 0x138A JUMPI PUSH1 0x0 DUP1 REVERT JUMPDEST DUP2 DUP5 ADD SWAP2 POP DUP5 PUSH1 0x1F DUP4 ADD SLT PUSH2 0x139E JUMPI PUSH1 0x0 DUP1 REVERT JUMPDEST DUP2 MLOAD DUP2 DUP2 GT ISZERO PUSH2 0x13B0 JUMPI PUSH2 0x13B0 PUSH2 0x1331 JUMP JUMPDEST PUSH1 0x40 MLOAD PUSH1 0x1F DUP3 ADD PUSH32 0xFFFFFFFFFFFFFFFFFFFFFFFFFFFFFFFFFFFFFFFFFFFFFFFFFFFFFFFFFFFFFFE0 SWAP1 DUP2 AND PUSH1 0x3F ADD AND DUP2 ADD SWAP1 DUP4 DUP3 GT DUP2 DUP4 LT OR ISZERO PUSH2 0x13F6 JUMPI PUSH2 0x13F6 PUSH2 0x1331 JUMP JUMPDEST DUP2 PUSH1 0x40 MSTORE DUP3 DUP2 MSTORE DUP8 PUSH1 0x20 DUP5 DUP8 ADD ADD GT ISZERO PUSH2 0x140F JUMPI PUSH1 0x0 DUP1 REVERT JUMPDEST PUSH2 0x1420 DUP4 PUSH1 0x20 DUP4 ADD PUSH1 0x20 DUP9 ADD PUSH2 0x11C5 JUMP JUMPDEST SWAP8 SWAP7 POP POP POP POP POP POP POP JUMP JUMPDEST PUSH1 0x0 DUP3 MLOAD PUSH2 0x143D DUP2 DUP5 PUSH1 0x20 DUP8 ADD PUSH2 0x11C5 JUMP JUMPDEST SWAP2 SWAP1 SWAP2 ADD SWAP3 SWAP2 POP POP JUMP JUMPDEST PUSH1 0x1F DUP3 GT ISZERO PUSH2 0x1491 JUMPI PUSH1 0x0 DUP2 DUP2 MSTORE PUSH1 0x20 DUP2 KECCAK256 PUSH1 0x1F DUP6 ADD PUSH1 0x5 SHR DUP2 ADD PUSH1 0x20 DUP7 LT ISZERO PUSH2 0x146E JUMPI POP DUP1 JUMPDEST PUSH1 0x1F DUP6 ADD PUSH1 0x5 SHR DUP3 ADD SWAP2 POP JUMPDEST DUP2 DUP2 LT ISZERO PUSH2 0x148D JUMPI DUP3 DUP2 SSTORE PUSH1 0x1 ADD PUSH2 0x147A JUMP JUMPDEST POP POP POP JUMPDEST POP POP POP JUMP JUMPDEST PUSH8 0xFFFFFFFFFFFFFFFF DUP4 GT ISZERO PUSH2 0x14AE JUMPI PUSH2 0x14AE PUSH2 0x1331 JUMP JUMPDEST PUSH2 0x14C2 DUP4 PUSH2 0x14BC DUP4 SLOAD PUSH2 0x124A JUMP JUMPDEST DUP4 PUSH2 0x1447 JUMP JUMPDEST PUSH1 0x0 PUSH1 0x1F DUP5 GT PUSH1 0x1 DUP2 EQ PUSH2 0x1514 JUMPI PUSH1 0x0 DUP6 ISZERO PUSH2 0x14DE JUMPI POP DUP4 DUP3 ADD CALLDATALOAD JUMPDEST PUSH32 0xFFFFFFFFFFFFFFFFFFFFFFFFFFFFFFFFFFFFFFFFFFFFFFFFFFFFFFFFFFFFFFFF PUSH1 0x3 DUP8 SWAP1 SHL SHR NOT AND PUSH1 0x1 DUP7 SWAP1 SHL OR DUP4 SSTORE PUSH2 0x15AA JUMP JUMPDEST PUSH1 0x0 DUP4 DUP2 MSTORE PUSH1 0x20 SWAP1 KECCAK256 PUSH32 0xFFFFFFFFFFFFFFFFFFFFFFFFFFFFFFFFFFFFFFFFFFFFFFFFFFFFFFFFFFFFFFE0 DUP7 AND SWAP1 DUP4 JUMPDEST DUP3 DUP2 LT ISZERO PUSH2 0x1563 JUMPI DUP7 DUP6 ADD CALLDATALOAD DUP3 SSTORE PUSH1 0x20 SWAP5 DUP6 ADD SWAP5 PUSH1 0x1 SWAP1 SWAP3 ADD SWAP2 ADD PUSH2 0x1543 JUMP JUMPDEST POP DUP7 DUP3 LT ISZERO PUSH2 0x159E JUMPI PUSH32 0xFFFFFFFFFFFFFFFFFFFFFFFFFFFFFFFFFFFFFFFFFFFFFFFFFFFFFFFFFFFFFFFF PUSH1 0xF8 DUP9 PUSH1 0x3 SHL AND SHR NOT DUP5 DUP8 ADD CALLDATALOAD AND DUP2 SSTORE JUMPDEST POP POP PUSH1 0x1 DUP6 PUSH1 0x1 SHL ADD DUP4 SSTORE JUMPDEST POP POP POP POP POP JUMP JUMPDEST DUP2 DUP4 MSTORE DUP2 DUP2 PUSH1 0x20 DUP6 ADD CALLDATACOPY POP PUSH1 0x0 PUSH1 0x20 DUP3 DUP5 ADD ADD MSTORE PUSH1 0x0 PUSH1 0x20 PUSH32 0xFFFFFFFFFFFFFFFFFFFFFFFFFFFFFFFFFFFFFFFFFFFFFFFFFFFFFFFFFFFFFFE0 PUSH1 0x1F DUP5 ADD AND DUP5 ADD ADD SWAP1 POP SWAP3 SWAP2 POP POP JUMP JUMPDEST PUSH1 0x40 DUP2 MSTORE PUSH1 0x0 PUSH2 0x160E PUSH1 0x40 DUP4 ADD DUP6 DUP8 PUSH2 0x15B1 JUMP JUMPDEST SWAP1 POP PUSH20 0xFFFFFFFFFFFFFFFFFFFFFFFFFFFFFFFFFFFFFFFF DUP4 AND PUSH1 0x20 DUP4 ADD MSTORE SWAP5 SWAP4 POP POP POP POP JUMP JUMPDEST PUSH1 0x20 DUP2 MSTORE PUSH1 0x0 PUSH2 0x1648 PUSH1 0x20 DUP4 ADD DUP5 DUP7 PUSH2 0x15B1 JUMP JUMPDEST SWAP5 SWAP4 POP POP POP POP JUMP INVALID LOG2 PUSH5 0x6970667358 0x22 SLT KECCAK256 SMOD SWAP15 0x5F INVALID 0xE2 0xEF BALANCE 0xCF CODESIZE 0x5C 0x1E 0x23 0xAF 0xAD EXTCODECOPY 0xD7 CALLDATASIZE GAS SWAP10 MUL 0xB5 0xD3 EQ 0xC7 PUSH16 0x62B2437C0086F564736F6C6343000812 STOP CALLER "
				},
				"gasEstimates": {
					"creation": {
						"codeDepositCost": "1153200",
						"executionCost": "49674",
						"totalCost": "1202874"
					},
					"external": {
						"": "202",
						"AcceptOwnership()": "52219",
						"AddContract(string,address)": "infinite",
						"ChangeOwnership(address)": "infinite",
						"GetAddress(string)": "infinite",
						"GetName(address)": "infinite",
						"GetOwner()": "2319",
						"RemoveContract(string)": "infinite",
						"UpdateContract(string,address)": "infinite"
					}
				},
				"methodIdentifiers": {
					"AcceptOwnership()": "3fab62ba",
					"AddContract(string,address)": "098e3bb0",
					"ChangeOwnership(address)": "244ded7a",
					"GetAddress(string)": "8b05f6de",
					"GetName(address)": "d3a72ea1",
					"GetOwner()": "0ae50a39",
					"RemoveContract(string)": "8a547437",
					"UpdateContract(string,address)": "bc303370"
				}
			},
			"storageLayout": {
				"storage": [
					{
						"astId": 11,
						"contract": "Workspace.sol:Workspace",
						"label": "owner",
						"offset": 0,
						"slot": "0",
						"type": "t_address"
					},
					{
						"astId": 15,
						"contract": "Workspace.sol:Workspace",
						"label": "newOwner",
						"offset": 0,
						"slot": "1",
						"type": "t_address"
					},
					{
						"astId": 41,
						"contract": "Workspace.sol:Workspace",
						"label": "nameToAddress",
						"offset": 0,
						"slot": "2",
						"type": "t_mapping(t_string_memory_ptr,t_address)"
					},
					{
						"astId": 45,
						"contract": "Workspace.sol:Workspace",
						"label": "addressToName",
						"offset": 0,
						"slot": "3",
						"type": "t_mapping(t_address,t_string_storage)"
					}
				],
				"types": {
					"t_address": {
						"encoding": "inplace",
						"label": "address",
						"numberOfBytes": "20"
					},
					"t_mapping(t_address,t_string_storage)": {
						"encoding": "mapping",
						"key": "t_address",
						"label": "mapping(address => string)",
						"numberOfBytes": "32",
						"value": "t_string_storage"
					},
					"t_mapping(t_string_memory_ptr,t_address)": {
						"encoding": "mapping",
						"key": "t_string_memory_ptr",
						"label": "mapping(string => address)",
						"numberOfBytes": "32",
						"value": "t_address"
					},
					"t_string_memory_ptr": {
						"encoding": "bytes",
						"label": "string",
						"numberOfBytes": "32"
					},
					"t_string_storage": {
						"encoding": "bytes",
						"label": "string",
						"numberOfBytes": "32"
					}
				}
			},
			"userdoc": {
				"kind": "user",
				"methods": {},
				"version": 1
			}
		}
	}
}