{
	"contracts/Corporation/Clerk.sol": {
		"Clerk": {
			"abi": [
				{
					"anonymous": false,
					"inputs": [
						{
							"indexed": true,
							"internalType": "address",
							"name": "_orderer",
							"type": "address"
						},
						{
							"indexed": true,
							"internalType": "address",
							"name": "_receiver",
							"type": "address"
						},
						{
							"indexed": false,
							"internalType": "uint256",
							"name": "_amount",
							"type": "uint256"
						}
					],
					"name": "Withdraw",
					"type": "event"
				},
				{
					"stateMutability": "payable",
					"type": "fallback"
				},
				{
					"inputs": [
						{
							"internalType": "address",
							"name": "_employee",
							"type": "address"
						},
						{
							"internalType": "uint256",
							"name": "_amount",
							"type": "uint256"
						}
					],
					"name": "EmployeesWithdraw",
					"outputs": [
						{
							"internalType": "bool",
							"name": "",
							"type": "bool"
						}
					],
					"stateMutability": "nonpayable",
					"type": "function"
				},
				{
					"inputs": [],
					"name": "Name",
					"outputs": [
						{
							"internalType": "string",
							"name": "",
							"type": "string"
						}
					],
					"stateMutability": "view",
					"type": "function"
				},
				{
					"stateMutability": "payable",
					"type": "receive"
				}
			],
			"devdoc": {
				"kind": "dev",
				"methods": {},
				"version": 1
			},
			"evm": {
				"assembly": "    /* \"contracts/Corporation/Clerk.sol\":262:3305  contract Clerk{... */\n  mstore(0x40, 0x80)\n    /* \"contracts/Corporation/Clerk.sol\":740:745  false */\n  0x00\n    /* \"contracts/Corporation/Clerk.sol\":709:745  bool private reentrantLocked = false */\n  dup1\n  sload\n  not(0xff)\n  and\n  swap1\n  sstore\n    /* \"contracts/Corporation/Clerk.sol\":262:3305  contract Clerk{... */\n  callvalue\n  dup1\n  iszero\n  tag_1\n  jumpi\n  0x00\n  dup1\n  revert\ntag_1:\n  pop\n  dataSize(sub_0)\n  dup1\n  dataOffset(sub_0)\n  0x00\n  codecopy\n  0x00\n  return\nstop\n\nsub_0: assembly {\n        /* \"contracts/Corporation/Clerk.sol\":262:3305  contract Clerk{... */\n      mstore(0x40, 0x80)\n      jumpi(tag_1, lt(calldatasize, 0x04))\n      shr(0xe0, calldataload(0x00))\n      dup1\n      0x51127660\n      eq\n      tag_3\n      jumpi\n      dup1\n      0x8052474d\n      eq\n      tag_4\n      jumpi\n      stop\n    tag_1:\n      jumpi(tag_2, calldatasize)\n      stop\n    tag_2:\n      stop\n        /* \"contracts/Corporation/Clerk.sol\":2744:3141  function EmployeesWithdraw(address _employee, uint256 _amount) public noReentrant returns(bool){... */\n    tag_3:\n      callvalue\n      dup1\n      iszero\n      tag_9\n      jumpi\n      0x00\n      dup1\n      revert\n    tag_9:\n      pop\n      tag_10\n      tag_11\n      calldatasize\n      0x04\n      tag_12\n      jump\t// in\n    tag_11:\n      tag_13\n      jump\t// in\n    tag_10:\n      mload(0x40)\n        /* \"#utility.yul\":658:672   */\n      swap1\n      iszero\n        /* \"#utility.yul\":651:673   */\n      iszero\n        /* \"#utility.yul\":633:674   */\n      dup2\n      mstore\n        /* \"#utility.yul\":621:623   */\n      0x20\n        /* \"#utility.yul\":606:624   */\n      add\n        /* \"contracts/Corporation/Clerk.sol\":2744:3141  function EmployeesWithdraw(address _employee, uint256 _amount) public noReentrant returns(bool){... */\n    tag_14:\n      mload(0x40)\n      dup1\n      swap2\n      sub\n      swap1\n      return\n        /* \"contracts/Corporation/Clerk.sol\":1202:1252  string constant public Name = \".Corporation.Clerk\" */\n    tag_4:\n      callvalue\n      dup1\n      iszero\n      tag_16\n      jumpi\n      0x00\n      dup1\n      revert\n    tag_16:\n      pop\n      tag_17\n      mload(0x40)\n      dup1\n      0x40\n      add\n      0x40\n      mstore\n      dup1\n      0x12\n      dup2\n      mstore\n      0x20\n      add\n      0x2e436f72706f726174696f6e2e436c65726b0000000000000000000000000000\n      dup2\n      mstore\n      pop\n      dup2\n      jump\n    tag_17:\n      mload(0x40)\n      tag_14\n      swap2\n      swap1\n      tag_20\n      jump\t// in\n        /* \"contracts/Corporation/Clerk.sol\":2744:3141  function EmployeesWithdraw(address _employee, uint256 _amount) public noReentrant returns(bool){... */\n    tag_13:\n        /* \"contracts/Corporation/Clerk.sol\":2834:2838  bool */\n      0x00\n        /* \"contracts/Corporation/Clerk.sol\":1654:1669  reentrantLocked */\n      dup1\n      sload\n      0xff\n      and\n        /* \"contracts/Corporation/Clerk.sol\":1651:1711  if(reentrantLocked)... */\n      iszero\n      tag_22\n      jumpi\n        /* \"contracts/Corporation/Clerk.sol\":1684:1711  revert(\"Reentrance failed\") */\n      mload(0x40)\n      0x08c379a000000000000000000000000000000000000000000000000000000000\n      dup2\n      mstore\n        /* \"#utility.yul\":1499:1501   */\n      0x20\n        /* \"contracts/Corporation/Clerk.sol\":1684:1711  revert(\"Reentrance failed\") */\n      0x04\n      dup3\n      add\n        /* \"#utility.yul\":1481:1502   */\n      mstore\n        /* \"#utility.yul\":1538:1540   */\n      0x11\n        /* \"#utility.yul\":1518:1536   */\n      0x24\n      dup3\n      add\n        /* \"#utility.yul\":1511:1541   */\n      mstore\n        /* \"#utility.yul\":1577:1596   */\n      0x5265656e7472616e6365206661696c6564000000000000000000000000000000\n        /* \"#utility.yul\":1557:1575   */\n      0x44\n      dup3\n      add\n        /* \"#utility.yul\":1550:1597   */\n      mstore\n        /* \"#utility.yul\":1614:1632   */\n      0x64\n      add\n        /* \"contracts/Corporation/Clerk.sol\":1684:1711  revert(\"Reentrance failed\") */\n    tag_23:\n      mload(0x40)\n      dup1\n      swap2\n      sub\n      swap1\n      revert\n        /* \"contracts/Corporation/Clerk.sol\":1651:1711  if(reentrantLocked)... */\n    tag_22:\n        /* \"contracts/Corporation/Clerk.sol\":1724:1739  reentrantLocked */\n      0x00\n        /* \"contracts/Corporation/Clerk.sol\":1724:1746  reentrantLocked = true */\n      dup1\n      sload\n      0xffffffffffffffffffffffffffffffffffffffffffffffffffffffffffffff00\n      and\n        /* \"contracts/Corporation/Clerk.sol\":1742:1746  true */\n      0x01\n        /* \"contracts/Corporation/Clerk.sol\":1724:1746  reentrantLocked = true */\n      or\n      dup2\n      sstore\n        /* \"contracts/Corporation/Clerk.sol\":2879:2918  pt.GetAddress(\".Corporation.Employees\") */\n      mload(0x40)\n      0x8b05f6de00000000000000000000000000000000000000000000000000000000\n      dup2\n      mstore\n        /* \"#utility.yul\":1845:1847   */\n      0x20\n        /* \"contracts/Corporation/Clerk.sol\":2879:2918  pt.GetAddress(\".Corporation.Employees\") */\n      0x04\n      dup3\n      add\n        /* \"#utility.yul\":1827:1848   */\n      mstore\n        /* \"#utility.yul\":1884:1886   */\n      0x16\n        /* \"#utility.yul\":1864:1882   */\n      0x24\n      dup3\n      add\n        /* \"#utility.yul\":1857:1887   */\n      mstore\n        /* \"#utility.yul\":1923:1947   */\n      0x2e436f72706f726174696f6e2e456d706c6f7965657300000000000000000000\n        /* \"#utility.yul\":1903:1921   */\n      0x44\n      dup3\n      add\n        /* \"#utility.yul\":1896:1948   */\n      mstore\n        /* \"contracts/Corporation/Clerk.sol\":886:928  0x72ec1287FF5BB960fd54Ac2AdAE99145153C561F */\n      0x72ec1287ff5bb960fd54ac2adae99145153c561f\n      swap1\n        /* \"contracts/Corporation/Clerk.sol\":2879:2892  pt.GetAddress */\n      0x8b05f6de\n      swap1\n        /* \"#utility.yul\":1965:1983   */\n      0x64\n      add\n        /* \"contracts/Corporation/Clerk.sol\":2879:2918  pt.GetAddress(\".Corporation.Employees\") */\n      0x20\n      mload(0x40)\n      dup1\n      dup4\n      sub\n      dup2\n      dup7\n      gas\n      staticcall\n      iszero\n      dup1\n      iszero\n      tag_29\n      jumpi\n      returndatasize\n      0x00\n      dup1\n      returndatacopy\n      revert(0x00, returndatasize)\n    tag_29:\n      pop\n      pop\n      pop\n      pop\n      mload(0x40)\n      returndatasize\n      not(0x1f)\n      0x1f\n      dup3\n      add\n      and\n      dup3\n      add\n      dup1\n      0x40\n      mstore\n      pop\n      dup2\n      add\n      swap1\n      tag_30\n      swap2\n      swap1\n      tag_31\n      jump\t// in\n    tag_30:\n        /* \"contracts/Corporation/Clerk.sol\":2852:2918  address employeesAddress = pt.GetAddress(\".Corporation.Employees\") */\n      swap1\n      pop\n        /* \"contracts/Corporation/Clerk.sol\":2934:2964  employeesAddress != msg.sender */\n      0xffffffffffffffffffffffffffffffffffffffff\n      dup2\n      and\n        /* \"contracts/Corporation/Clerk.sol\":2954:2964  msg.sender */\n      caller\n        /* \"contracts/Corporation/Clerk.sol\":2934:2964  employeesAddress != msg.sender */\n      eq\n        /* \"contracts/Corporation/Clerk.sol\":2931:3003  if(employeesAddress != msg.sender)... */\n      tag_32\n      jumpi\n        /* \"contracts/Corporation/Clerk.sol\":2979:3003  revert(\"Employees only\") */\n      mload(0x40)\n      0x08c379a000000000000000000000000000000000000000000000000000000000\n      dup2\n      mstore\n        /* \"#utility.yul\":2452:2454   */\n      0x20\n        /* \"contracts/Corporation/Clerk.sol\":2979:3003  revert(\"Employees only\") */\n      0x04\n      dup3\n      add\n        /* \"#utility.yul\":2434:2455   */\n      mstore\n        /* \"#utility.yul\":2491:2493   */\n      0x0e\n        /* \"#utility.yul\":2471:2489   */\n      0x24\n      dup3\n      add\n        /* \"#utility.yul\":2464:2494   */\n      mstore\n        /* \"#utility.yul\":2530:2546   */\n      0x456d706c6f79656573206f6e6c79000000000000000000000000000000000000\n        /* \"#utility.yul\":2510:2528   */\n      0x44\n      dup3\n      add\n        /* \"#utility.yul\":2503:2547   */\n      mstore\n        /* \"#utility.yul\":2564:2582   */\n      0x64\n      add\n        /* \"contracts/Corporation/Clerk.sol\":2979:3003  revert(\"Employees only\") */\n      tag_23\n        /* \"#utility.yul\":2250:2588   */\n      jump\n        /* \"contracts/Corporation/Clerk.sol\":2931:3003  if(employeesAddress != msg.sender)... */\n    tag_32:\n        /* \"contracts/Corporation/Clerk.sol\":3016:3047  _withdrawTo(_employee, _amount) */\n      tag_35\n        /* \"contracts/Corporation/Clerk.sol\":3028:3037  _employee */\n      dup5\n        /* \"contracts/Corporation/Clerk.sol\":3039:3046  _amount */\n      dup5\n        /* \"contracts/Corporation/Clerk.sol\":3016:3027  _withdrawTo */\n      tag_36\n        /* \"contracts/Corporation/Clerk.sol\":3016:3047  _withdrawTo(_employee, _amount) */\n      jump\t// in\n    tag_35:\n        /* \"contracts/Corporation/Clerk.sol\":3092:3101  _employee */\n      dup4\n        /* \"contracts/Corporation/Clerk.sol\":3065:3111  Withdraw(employeesAddress, _employee, _amount) */\n      0xffffffffffffffffffffffffffffffffffffffff\n      and\n        /* \"contracts/Corporation/Clerk.sol\":3074:3090  employeesAddress */\n      dup2\n        /* \"contracts/Corporation/Clerk.sol\":3065:3111  Withdraw(employeesAddress, _employee, _amount) */\n      0xffffffffffffffffffffffffffffffffffffffff\n      and\n      0x9b1bfa7fa9ee420a16e124f794c35ac9f90472acc99140eb2f6447c714cad8eb\n        /* \"contracts/Corporation/Clerk.sol\":3103:3110  _amount */\n      dup6\n        /* \"contracts/Corporation/Clerk.sol\":3065:3111  Withdraw(employeesAddress, _employee, _amount) */\n      mload(0x40)\n      tag_37\n      swap2\n        /* \"#utility.yul\":2739:2764   */\n      dup2\n      mstore\n        /* \"#utility.yul\":2727:2729   */\n      0x20\n        /* \"#utility.yul\":2712:2730   */\n      add\n      swap1\n        /* \"#utility.yul\":2593:2770   */\n      jump\n        /* \"contracts/Corporation/Clerk.sol\":3065:3111  Withdraw(employeesAddress, _employee, _amount) */\n    tag_37:\n      mload(0x40)\n      dup1\n      swap2\n      sub\n      swap1\n      log3\n      pop\n      pop\n        /* \"contracts/Corporation/Clerk.sol\":1787:1792  false */\n      0x00\n        /* \"contracts/Corporation/Clerk.sol\":1769:1792  reentrantLocked = false */\n      dup1\n      sload\n      0xffffffffffffffffffffffffffffffffffffffffffffffffffffffffffffff00\n      and\n      swap1\n      sstore\n      pop\n        /* \"contracts/Corporation/Clerk.sol\":3129:3133  true */\n      0x01\n      swap2\n        /* \"contracts/Corporation/Clerk.sol\":2744:3141  function EmployeesWithdraw(address _employee, uint256 _amount) public noReentrant returns(bool){... */\n      swap1\n      pop\n      jump\t// out\n        /* \"contracts/Corporation/Clerk.sol\":2000:2547  function _withdrawTo(address _reciever, uint256 _amount) private{... */\n    tag_36:\n        /* \"contracts/Corporation/Clerk.sol\":2100:2135  pt.GetAddress(\".Corporation.Vault\") */\n      mload(0x40)\n      0x8b05f6de00000000000000000000000000000000000000000000000000000000\n      dup2\n      mstore\n        /* \"#utility.yul\":2977:2979   */\n      0x20\n        /* \"contracts/Corporation/Clerk.sol\":2100:2135  pt.GetAddress(\".Corporation.Vault\") */\n      0x04\n      dup3\n      add\n        /* \"#utility.yul\":2959:2980   */\n      mstore\n        /* \"#utility.yul\":3016:3018   */\n      0x12\n        /* \"#utility.yul\":2996:3014   */\n      0x24\n      dup3\n      add\n        /* \"#utility.yul\":2989:3019   */\n      mstore\n        /* \"#utility.yul\":3055:3075   */\n      0x2e436f72706f726174696f6e2e5661756c740000000000000000000000000000\n        /* \"#utility.yul\":3035:3053   */\n      0x44\n      dup3\n      add\n        /* \"#utility.yul\":3028:3076   */\n      mstore\n        /* \"contracts/Corporation/Clerk.sol\":2077:2097  address vaultAddress */\n      0x00\n      swap1\n        /* \"contracts/Corporation/Clerk.sol\":886:928  0x72ec1287FF5BB960fd54Ac2AdAE99145153C561F */\n      0x72ec1287ff5bb960fd54ac2adae99145153c561f\n      swap1\n        /* \"contracts/Corporation/Clerk.sol\":2100:2113  pt.GetAddress */\n      0x8b05f6de\n      swap1\n        /* \"#utility.yul\":3093:3111   */\n      0x64\n      add\n        /* \"contracts/Corporation/Clerk.sol\":2100:2135  pt.GetAddress(\".Corporation.Vault\") */\n      0x20\n      mload(0x40)\n      dup1\n      dup4\n      sub\n      dup2\n      dup7\n      gas\n      staticcall\n      iszero\n      dup1\n      iszero\n      tag_43\n      jumpi\n      returndatasize\n      0x00\n      dup1\n      returndatacopy\n      revert(0x00, returndatasize)\n    tag_43:\n      pop\n      pop\n      pop\n      pop\n      mload(0x40)\n      returndatasize\n      not(0x1f)\n      0x1f\n      dup3\n      add\n      and\n      dup3\n      add\n      dup1\n      0x40\n      mstore\n      pop\n      dup2\n      add\n      swap1\n      tag_44\n      swap2\n      swap1\n      tag_31\n      jump\t// in\n    tag_44:\n        /* \"contracts/Corporation/Clerk.sol\":2077:2135  address vaultAddress = pt.GetAddress(\".Corporation.Vault\") */\n      swap1\n      pop\n      dup1\n        /* \"contracts/Corporation/Clerk.sol\":2204:2233  address(vaultAddress).balance */\n      0xffffffffffffffffffffffffffffffffffffffff\n      dup2\n      and\n      balance\n        /* \"contracts/Corporation/Clerk.sol\":2194:2233  _amount > address(vaultAddress).balance */\n      dup4\n      gt\n        /* \"contracts/Corporation/Clerk.sol\":2191:2274  if(_amount > address(vaultAddress).balance)... */\n      iszero\n      tag_45\n      jumpi\n        /* \"contracts/Corporation/Clerk.sol\":2248:2274  revert(\"Not enough MATIC\") */\n      mload(0x40)\n      0x08c379a000000000000000000000000000000000000000000000000000000000\n      dup2\n      mstore\n        /* \"#utility.yul\":3324:3326   */\n      0x20\n        /* \"contracts/Corporation/Clerk.sol\":2248:2274  revert(\"Not enough MATIC\") */\n      0x04\n      dup3\n      add\n        /* \"#utility.yul\":3306:3327   */\n      mstore\n        /* \"#utility.yul\":3363:3365   */\n      0x10\n        /* \"#utility.yul\":3343:3361   */\n      0x24\n      dup3\n      add\n        /* \"#utility.yul\":3336:3366   */\n      mstore\n        /* \"#utility.yul\":3402:3420   */\n      0x4e6f7420656e6f756768204d4154494300000000000000000000000000000000\n        /* \"#utility.yul\":3382:3400   */\n      0x44\n      dup3\n      add\n        /* \"#utility.yul\":3375:3421   */\n      mstore\n        /* \"#utility.yul\":3438:3456   */\n      0x64\n      add\n        /* \"contracts/Corporation/Clerk.sol\":2248:2274  revert(\"Not enough MATIC\") */\n      tag_23\n        /* \"#utility.yul\":3122:3462   */\n      jump\n        /* \"contracts/Corporation/Clerk.sol\":2191:2274  if(_amount > address(vaultAddress).balance)... */\n    tag_45:\n        /* \"contracts/Corporation/Clerk.sol\":2291:2316  vt.ClerkWithdraw(_amount) */\n      mload(0x40)\n      0x84c280af00000000000000000000000000000000000000000000000000000000\n      dup2\n      mstore\n      0x04\n      dup2\n      add\n        /* \"#utility.yul\":2739:2764   */\n      dup5\n      swap1\n      mstore\n        /* \"contracts/Corporation/Clerk.sol\":2291:2307  vt.ClerkWithdraw */\n      0xffffffffffffffffffffffffffffffffffffffff\n      dup3\n      and\n      swap1\n      0x84c280af\n      swap1\n        /* \"#utility.yul\":2712:2730   */\n      0x24\n      add\n        /* \"contracts/Corporation/Clerk.sol\":2291:2316  vt.ClerkWithdraw(_amount) */\n      0x20\n      mload(0x40)\n      dup1\n      dup4\n      sub\n      dup2\n      0x00\n      dup8\n      gas\n      call\n      swap3\n      pop\n      pop\n      pop\n      dup1\n      iszero\n      tag_49\n      jumpi\n      pop\n      0x40\n      dup1\n      mload\n      0x1f\n      returndatasize\n      swap1\n      dup2\n      add\n      0xffffffffffffffffffffffffffffffffffffffffffffffffffffffffffffffe0\n      and\n      dup3\n      add\n      swap1\n      swap3\n      mstore\n      tag_50\n      swap2\n      dup2\n      add\n      swap1\n      tag_51\n      jump\t// in\n    tag_50:\n      0x01\n    tag_49:\n        /* \"contracts/Corporation/Clerk.sol\":2287:2528  try vt.ClerkWithdraw(_amount){... */\n      tag_52\n      jumpi\n        /* \"contracts/Corporation/Clerk.sol\":2495:2525  revert(\"ClerkWithdraw failed\") */\n      mload(0x40)\n      0x08c379a000000000000000000000000000000000000000000000000000000000\n      dup2\n      mstore\n        /* \"#utility.yul\":3951:3953   */\n      0x20\n        /* \"contracts/Corporation/Clerk.sol\":2495:2525  revert(\"ClerkWithdraw failed\") */\n      0x04\n      dup3\n      add\n        /* \"#utility.yul\":3933:3954   */\n      mstore\n        /* \"#utility.yul\":3990:3992   */\n      0x14\n        /* \"#utility.yul\":3970:3988   */\n      0x24\n      dup3\n      add\n        /* \"#utility.yul\":3963:3993   */\n      mstore\n        /* \"#utility.yul\":4029:4051   */\n      0x436c65726b5769746864726177206661696c6564000000000000000000000000\n        /* \"#utility.yul\":4009:4027   */\n      0x44\n      dup3\n      add\n        /* \"#utility.yul\":4002:4052   */\n      mstore\n        /* \"#utility.yul\":4069:4087   */\n      0x64\n      add\n        /* \"contracts/Corporation/Clerk.sol\":2495:2525  revert(\"ClerkWithdraw failed\") */\n      tag_23\n        /* \"#utility.yul\":3749:4093   */\n      jump\n        /* \"contracts/Corporation/Clerk.sol\":2287:2528  try vt.ClerkWithdraw(_amount){... */\n    tag_52:\n      pop\n        /* \"contracts/Corporation/Clerk.sol\":2334:2343  bool sent */\n      0x00\n        /* \"contracts/Corporation/Clerk.sol\":2356:2365  _reciever */\n      dup5\n        /* \"contracts/Corporation/Clerk.sol\":2348:2371  payable(_reciever).call */\n      0xffffffffffffffffffffffffffffffffffffffff\n      and\n        /* \"contracts/Corporation/Clerk.sol\":2380:2387  _amount */\n      dup5\n        /* \"contracts/Corporation/Clerk.sol\":2348:2392  payable(_reciever).call{value : _amount}(\"\") */\n      mload(0x40)\n      0x00\n      mload(0x40)\n      dup1\n      dup4\n      sub\n      dup2\n      dup6\n      dup8\n      gas\n      call\n      swap3\n      pop\n      pop\n      pop\n      returndatasize\n      dup1\n      0x00\n      dup2\n      eq\n      tag_63\n      jumpi\n      mload(0x40)\n      swap2\n      pop\n      and(add(returndatasize, 0x3f), not(0x1f))\n      dup3\n      add\n      0x40\n      mstore\n      returndatasize\n      dup3\n      mstore\n      returndatasize\n      0x00\n      0x20\n      dup5\n      add\n      returndatacopy\n      jump(tag_62)\n    tag_63:\n      0x60\n      swap2\n      pop\n    tag_62:\n      pop\n        /* \"contracts/Corporation/Clerk.sol\":2333:2392  (bool sent,) = payable(_reciever).call{value : _amount}(\"\") */\n      pop\n      swap1\n      pop\n        /* \"contracts/Corporation/Clerk.sol\":2413:2417  sent */\n      dup1\n        /* \"contracts/Corporation/Clerk.sol\":2409:2466  if(!sent)... */\n      tag_64\n      jumpi\n        /* \"contracts/Corporation/Clerk.sol\":2436:2466  revert(\"ClerkWithdraw failed\") */\n      mload(0x40)\n      0x08c379a000000000000000000000000000000000000000000000000000000000\n      dup2\n      mstore\n        /* \"#utility.yul\":3951:3953   */\n      0x20\n        /* \"contracts/Corporation/Clerk.sol\":2436:2466  revert(\"ClerkWithdraw failed\") */\n      0x04\n      dup3\n      add\n        /* \"#utility.yul\":3933:3954   */\n      mstore\n        /* \"#utility.yul\":3990:3992   */\n      0x14\n        /* \"#utility.yul\":3970:3988   */\n      0x24\n      dup3\n      add\n        /* \"#utility.yul\":3963:3993   */\n      mstore\n        /* \"#utility.yul\":4029:4051   */\n      0x436c65726b5769746864726177206661696c6564000000000000000000000000\n        /* \"#utility.yul\":4009:4027   */\n      0x44\n      dup3\n      add\n        /* \"#utility.yul\":4002:4052   */\n      mstore\n        /* \"#utility.yul\":4069:4087   */\n      0x64\n      add\n        /* \"contracts/Corporation/Clerk.sol\":2436:2466  revert(\"ClerkWithdraw failed\") */\n      tag_23\n        /* \"#utility.yul\":3749:4093   */\n      jump\n        /* \"contracts/Corporation/Clerk.sol\":2409:2466  if(!sent)... */\n    tag_64:\n        /* \"contracts/Corporation/Clerk.sol\":2316:2478  {... */\n      pop\n        /* \"contracts/Corporation/Clerk.sol\":2064:2547  {... */\n      pop\n      pop\n        /* \"contracts/Corporation/Clerk.sol\":2000:2547  function _withdrawTo(address _reciever, uint256 _amount) private{... */\n      pop\n      pop\n      jump\t// out\n        /* \"#utility.yul\":14:168   */\n    tag_66:\n        /* \"#utility.yul\":100:142   */\n      0xffffffffffffffffffffffffffffffffffffffff\n        /* \"#utility.yul\":93:98   */\n      dup2\n        /* \"#utility.yul\":89:143   */\n      and\n        /* \"#utility.yul\":82:87   */\n      dup2\n        /* \"#utility.yul\":79:144   */\n      eq\n        /* \"#utility.yul\":69:162   */\n      tag_69\n      jumpi\n        /* \"#utility.yul\":158:159   */\n      0x00\n        /* \"#utility.yul\":155:156   */\n      dup1\n        /* \"#utility.yul\":148:160   */\n      revert\n        /* \"#utility.yul\":69:162   */\n    tag_69:\n        /* \"#utility.yul\":14:168   */\n      pop\n      jump\t// out\n        /* \"#utility.yul\":173:488   */\n    tag_12:\n        /* \"#utility.yul\":241:247   */\n      0x00\n        /* \"#utility.yul\":249:255   */\n      dup1\n        /* \"#utility.yul\":302:304   */\n      0x40\n        /* \"#utility.yul\":290:299   */\n      dup4\n        /* \"#utility.yul\":281:288   */\n      dup6\n        /* \"#utility.yul\":277:300   */\n      sub\n        /* \"#utility.yul\":273:305   */\n      slt\n        /* \"#utility.yul\":270:322   */\n      iszero\n      tag_71\n      jumpi\n        /* \"#utility.yul\":318:319   */\n      0x00\n        /* \"#utility.yul\":315:316   */\n      dup1\n        /* \"#utility.yul\":308:320   */\n      revert\n        /* \"#utility.yul\":270:322   */\n    tag_71:\n        /* \"#utility.yul\":357:366   */\n      dup3\n        /* \"#utility.yul\":344:367   */\n      calldataload\n        /* \"#utility.yul\":376:407   */\n      tag_72\n        /* \"#utility.yul\":401:406   */\n      dup2\n        /* \"#utility.yul\":376:407   */\n      tag_66\n      jump\t// in\n    tag_72:\n        /* \"#utility.yul\":426:431   */\n      swap5\n        /* \"#utility.yul\":478:480   */\n      0x20\n        /* \"#utility.yul\":463:481   */\n      swap4\n      swap1\n      swap4\n      add\n        /* \"#utility.yul\":450:482   */\n      calldataload\n      swap4\n      pop\n      pop\n      pop\n        /* \"#utility.yul\":173:488   */\n      jump\t// out\n        /* \"#utility.yul\":685:1292   */\n    tag_20:\n        /* \"#utility.yul\":797:801   */\n      0x00\n        /* \"#utility.yul\":826:828   */\n      0x20\n        /* \"#utility.yul\":855:857   */\n      dup1\n        /* \"#utility.yul\":844:853   */\n      dup4\n        /* \"#utility.yul\":837:858   */\n      mstore\n        /* \"#utility.yul\":887:893   */\n      dup4\n        /* \"#utility.yul\":881:894   */\n      mload\n        /* \"#utility.yul\":930:936   */\n      dup1\n        /* \"#utility.yul\":925:927   */\n      dup3\n        /* \"#utility.yul\":914:923   */\n      dup6\n        /* \"#utility.yul\":910:928   */\n      add\n        /* \"#utility.yul\":903:937   */\n      mstore\n        /* \"#utility.yul\":955:956   */\n      0x00\n        /* \"#utility.yul\":965:1105   */\n    tag_75:\n        /* \"#utility.yul\":979:985   */\n      dup2\n        /* \"#utility.yul\":976:977   */\n      dup2\n        /* \"#utility.yul\":973:986   */\n      lt\n        /* \"#utility.yul\":965:1105   */\n      iszero\n      tag_77\n      jumpi\n        /* \"#utility.yul\":1074:1088   */\n      dup6\n      dup2\n      add\n        /* \"#utility.yul\":1070:1093   */\n      dup4\n      add\n        /* \"#utility.yul\":1064:1094   */\n      mload\n        /* \"#utility.yul\":1040:1057   */\n      dup6\n      dup3\n      add\n        /* \"#utility.yul\":1059:1061   */\n      0x40\n        /* \"#utility.yul\":1036:1062   */\n      add\n        /* \"#utility.yul\":1029:1095   */\n      mstore\n        /* \"#utility.yul\":994:1004   */\n      dup3\n      add\n        /* \"#utility.yul\":965:1105   */\n      jump(tag_75)\n    tag_77:\n        /* \"#utility.yul\":969:972   */\n      pop\n        /* \"#utility.yul\":1154:1155   */\n      0x00\n        /* \"#utility.yul\":1149:1151   */\n      0x40\n        /* \"#utility.yul\":1140:1146   */\n      dup3\n        /* \"#utility.yul\":1129:1138   */\n      dup7\n        /* \"#utility.yul\":1125:1147   */\n      add\n        /* \"#utility.yul\":1121:1152   */\n      add\n        /* \"#utility.yul\":1114:1156   */\n      mstore\n        /* \"#utility.yul\":1283:1285   */\n      0x40\n        /* \"#utility.yul\":1213:1279   */\n      0xffffffffffffffffffffffffffffffffffffffffffffffffffffffffffffffe0\n        /* \"#utility.yul\":1208:1210   */\n      0x1f\n        /* \"#utility.yul\":1200:1206   */\n      dup4\n        /* \"#utility.yul\":1196:1211   */\n      add\n        /* \"#utility.yul\":1192:1280   */\n      and\n        /* \"#utility.yul\":1181:1190   */\n      dup6\n        /* \"#utility.yul\":1177:1281   */\n      add\n        /* \"#utility.yul\":1173:1286   */\n      add\n        /* \"#utility.yul\":1165:1286   */\n      swap3\n      pop\n      pop\n      pop\n        /* \"#utility.yul\":685:1292   */\n      swap3\n      swap2\n      pop\n      pop\n      jump\t// out\n        /* \"#utility.yul\":1994:2245   */\n    tag_31:\n        /* \"#utility.yul\":2064:2070   */\n      0x00\n        /* \"#utility.yul\":2117:2119   */\n      0x20\n        /* \"#utility.yul\":2105:2114   */\n      dup3\n        /* \"#utility.yul\":2096:2103   */\n      dup5\n        /* \"#utility.yul\":2092:2115   */\n      sub\n        /* \"#utility.yul\":2088:2120   */\n      slt\n        /* \"#utility.yul\":2085:2137   */\n      iszero\n      tag_81\n      jumpi\n        /* \"#utility.yul\":2133:2134   */\n      0x00\n        /* \"#utility.yul\":2130:2131   */\n      dup1\n        /* \"#utility.yul\":2123:2135   */\n      revert\n        /* \"#utility.yul\":2085:2137   */\n    tag_81:\n        /* \"#utility.yul\":2165:2174   */\n      dup2\n        /* \"#utility.yul\":2159:2175   */\n      mload\n        /* \"#utility.yul\":2184:2215   */\n      tag_82\n        /* \"#utility.yul\":2209:2214   */\n      dup2\n        /* \"#utility.yul\":2184:2215   */\n      tag_66\n      jump\t// in\n    tag_82:\n        /* \"#utility.yul\":2234:2239   */\n      swap4\n        /* \"#utility.yul\":1994:2245   */\n      swap3\n      pop\n      pop\n      pop\n      jump\t// out\n        /* \"#utility.yul\":3467:3744   */\n    tag_51:\n        /* \"#utility.yul\":3534:3540   */\n      0x00\n        /* \"#utility.yul\":3587:3589   */\n      0x20\n        /* \"#utility.yul\":3575:3584   */\n      dup3\n        /* \"#utility.yul\":3566:3573   */\n      dup5\n        /* \"#utility.yul\":3562:3585   */\n      sub\n        /* \"#utility.yul\":3558:3590   */\n      slt\n        /* \"#utility.yul\":3555:3607   */\n      iszero\n      tag_88\n      jumpi\n        /* \"#utility.yul\":3603:3604   */\n      0x00\n        /* \"#utility.yul\":3600:3601   */\n      dup1\n        /* \"#utility.yul\":3593:3605   */\n      revert\n        /* \"#utility.yul\":3555:3607   */\n    tag_88:\n        /* \"#utility.yul\":3635:3644   */\n      dup2\n        /* \"#utility.yul\":3629:3645   */\n      mload\n        /* \"#utility.yul\":3688:3693   */\n      dup1\n        /* \"#utility.yul\":3681:3694   */\n      iszero\n        /* \"#utility.yul\":3674:3695   */\n      iszero\n        /* \"#utility.yul\":3667:3672   */\n      dup2\n        /* \"#utility.yul\":3664:3696   */\n      eq\n        /* \"#utility.yul\":3654:3714   */\n      tag_82\n      jumpi\n        /* \"#utility.yul\":3710:3711   */\n      0x00\n        /* \"#utility.yul\":3707:3708   */\n      dup1\n        /* \"#utility.yul\":3700:3712   */\n      revert\n\n    auxdata: 0xa2646970667358221220f4769396dac9e940fddf9a271b8c92333e0edfdc4e525cbacce2cfc37c19737064736f6c63430008120033\n}\n",
				"bytecode": {
					"linkReferences": {},
					"object": "60806040526000805460ff1916905534801561001a57600080fd5b506107938061002a6000396000f3fe60806040526004361061002a5760003560e01c806351127660146100335780638052474d1461006857005b3661003157005b005b34801561003f57600080fd5b5061005361004e36600461067f565b6100be565b60405190151581526020015b60405180910390f35b34801561007457600080fd5b506100b16040518060400160405280601281526020017f2e436f72706f726174696f6e2e436c65726b000000000000000000000000000081525081565b60405161005f91906106ab565b6000805460ff1615610131576040517f08c379a000000000000000000000000000000000000000000000000000000000815260206004820152601160248201527f5265656e7472616e6365206661696c656400000000000000000000000000000060448201526064015b60405180910390fd5b600080547fffffffffffffffffffffffffffffffffffffffffffffffffffffffffffffff001660011781556040517f8b05f6de00000000000000000000000000000000000000000000000000000000815260206004820152601660248201527f2e436f72706f726174696f6e2e456d706c6f796565730000000000000000000060448201527372ec1287ff5bb960fd54ac2adae99145153c561f90638b05f6de90606401602060405180830381865afa1580156101f2573d6000803e3d6000fd5b505050506040513d601f19601f820116820180604052508101906102169190610717565b905073ffffffffffffffffffffffffffffffffffffffff81163314610297576040517f08c379a000000000000000000000000000000000000000000000000000000000815260206004820152600e60248201527f456d706c6f79656573206f6e6c790000000000000000000000000000000000006044820152606401610128565b6102a1848461033a565b8373ffffffffffffffffffffffffffffffffffffffff168173ffffffffffffffffffffffffffffffffffffffff167f9b1bfa7fa9ee420a16e124f794c35ac9f90472acc99140eb2f6447c714cad8eb8560405161030091815260200190565b60405180910390a35050600080547fffffffffffffffffffffffffffffffffffffffffffffffffffffffffffffff00169055506001919050565b6040517f8b05f6de00000000000000000000000000000000000000000000000000000000815260206004820152601260248201527f2e436f72706f726174696f6e2e5661756c74000000000000000000000000000060448201526000907372ec1287ff5bb960fd54ac2adae99145153c561f90638b05f6de90606401602060405180830381865afa1580156103d3573d6000803e3d6000fd5b505050506040513d601f19601f820116820180604052508101906103f79190610717565b90508073ffffffffffffffffffffffffffffffffffffffff81163183111561047b576040517f08c379a000000000000000000000000000000000000000000000000000000000815260206004820152601060248201527f4e6f7420656e6f756768204d41544943000000000000000000000000000000006044820152606401610128565b6040517f84c280af0000000000000000000000000000000000000000000000000000000081526004810184905273ffffffffffffffffffffffffffffffffffffffff8216906384c280af906024016020604051808303816000875af1925050508015610522575060408051601f3d9081017fffffffffffffffffffffffffffffffffffffffffffffffffffffffffffffffe016820190925261051f9181019061073b565b60015b610588576040517f08c379a000000000000000000000000000000000000000000000000000000000815260206004820152601460248201527f436c65726b5769746864726177206661696c65640000000000000000000000006044820152606401610128565b5060008473ffffffffffffffffffffffffffffffffffffffff168460405160006040518083038185875af1925050503d80600081146105e3576040519150601f19603f3d011682016040523d82523d6000602084013e6105e8565b606091505b5050905080610653576040517f08c379a000000000000000000000000000000000000000000000000000000000815260206004820152601460248201527f436c65726b5769746864726177206661696c65640000000000000000000000006044820152606401610128565b5050505050565b73ffffffffffffffffffffffffffffffffffffffff8116811461067c57600080fd5b50565b6000806040838503121561069257600080fd5b823561069d8161065a565b946020939093013593505050565b600060208083528351808285015260005b818110156106d8578581018301518582016040015282016106bc565b5060006040828601015260407fffffffffffffffffffffffffffffffffffffffffffffffffffffffffffffffe0601f8301168501019250505092915050565b60006020828403121561072957600080fd5b81516107348161065a565b9392505050565b60006020828403121561074d57600080fd5b8151801515811461073457600080fdfea2646970667358221220f4769396dac9e940fddf9a271b8c92333e0edfdc4e525cbacce2cfc37c19737064736f6c63430008120033",
					"opcodes": "PUSH1 0x80 PUSH1 0x40 MSTORE PUSH1 0x0 DUP1 SLOAD PUSH1 0xFF NOT AND SWAP1 SSTORE CALLVALUE DUP1 ISZERO PUSH2 0x1A JUMPI PUSH1 0x0 DUP1 REVERT JUMPDEST POP PUSH2 0x793 DUP1 PUSH2 0x2A PUSH1 0x0 CODECOPY PUSH1 0x0 RETURN INVALID PUSH1 0x80 PUSH1 0x40 MSTORE PUSH1 0x4 CALLDATASIZE LT PUSH2 0x2A JUMPI PUSH1 0x0 CALLDATALOAD PUSH1 0xE0 SHR DUP1 PUSH4 0x51127660 EQ PUSH2 0x33 JUMPI DUP1 PUSH4 0x8052474D EQ PUSH2 0x68 JUMPI STOP JUMPDEST CALLDATASIZE PUSH2 0x31 JUMPI STOP JUMPDEST STOP JUMPDEST CALLVALUE DUP1 ISZERO PUSH2 0x3F JUMPI PUSH1 0x0 DUP1 REVERT JUMPDEST POP PUSH2 0x53 PUSH2 0x4E CALLDATASIZE PUSH1 0x4 PUSH2 0x67F JUMP JUMPDEST PUSH2 0xBE JUMP JUMPDEST PUSH1 0x40 MLOAD SWAP1 ISZERO ISZERO DUP2 MSTORE PUSH1 0x20 ADD JUMPDEST PUSH1 0x40 MLOAD DUP1 SWAP2 SUB SWAP1 RETURN JUMPDEST CALLVALUE DUP1 ISZERO PUSH2 0x74 JUMPI PUSH1 0x0 DUP1 REVERT JUMPDEST POP PUSH2 0xB1 PUSH1 0x40 MLOAD DUP1 PUSH1 0x40 ADD PUSH1 0x40 MSTORE DUP1 PUSH1 0x12 DUP2 MSTORE PUSH1 0x20 ADD PUSH32 0x2E436F72706F726174696F6E2E436C65726B0000000000000000000000000000 DUP2 MSTORE POP DUP2 JUMP JUMPDEST PUSH1 0x40 MLOAD PUSH2 0x5F SWAP2 SWAP1 PUSH2 0x6AB JUMP JUMPDEST PUSH1 0x0 DUP1 SLOAD PUSH1 0xFF AND ISZERO PUSH2 0x131 JUMPI PUSH1 0x40 MLOAD PUSH32 0x8C379A000000000000000000000000000000000000000000000000000000000 DUP2 MSTORE PUSH1 0x20 PUSH1 0x4 DUP3 ADD MSTORE PUSH1 0x11 PUSH1 0x24 DUP3 ADD MSTORE PUSH32 0x5265656E7472616E6365206661696C6564000000000000000000000000000000 PUSH1 0x44 DUP3 ADD MSTORE PUSH1 0x64 ADD JUMPDEST PUSH1 0x40 MLOAD DUP1 SWAP2 SUB SWAP1 REVERT JUMPDEST PUSH1 0x0 DUP1 SLOAD PUSH32 0xFFFFFFFFFFFFFFFFFFFFFFFFFFFFFFFFFFFFFFFFFFFFFFFFFFFFFFFFFFFFFF00 AND PUSH1 0x1 OR DUP2 SSTORE PUSH1 0x40 MLOAD PUSH32 0x8B05F6DE00000000000000000000000000000000000000000000000000000000 DUP2 MSTORE PUSH1 0x20 PUSH1 0x4 DUP3 ADD MSTORE PUSH1 0x16 PUSH1 0x24 DUP3 ADD MSTORE PUSH32 0x2E436F72706F726174696F6E2E456D706C6F7965657300000000000000000000 PUSH1 0x44 DUP3 ADD MSTORE PUSH20 0x72EC1287FF5BB960FD54AC2ADAE99145153C561F SWAP1 PUSH4 0x8B05F6DE SWAP1 PUSH1 0x64 ADD PUSH1 0x20 PUSH1 0x40 MLOAD DUP1 DUP4 SUB DUP2 DUP7 GAS STATICCALL ISZERO DUP1 ISZERO PUSH2 0x1F2 JUMPI RETURNDATASIZE PUSH1 0x0 DUP1 RETURNDATACOPY RETURNDATASIZE PUSH1 0x0 REVERT JUMPDEST POP POP POP POP PUSH1 0x40 MLOAD RETURNDATASIZE PUSH1 0x1F NOT PUSH1 0x1F DUP3 ADD AND DUP3 ADD DUP1 PUSH1 0x40 MSTORE POP DUP2 ADD SWAP1 PUSH2 0x216 SWAP2 SWAP1 PUSH2 0x717 JUMP JUMPDEST SWAP1 POP PUSH20 0xFFFFFFFFFFFFFFFFFFFFFFFFFFFFFFFFFFFFFFFF DUP2 AND CALLER EQ PUSH2 0x297 JUMPI PUSH1 0x40 MLOAD PUSH32 0x8C379A000000000000000000000000000000000000000000000000000000000 DUP2 MSTORE PUSH1 0x20 PUSH1 0x4 DUP3 ADD MSTORE PUSH1 0xE PUSH1 0x24 DUP3 ADD MSTORE PUSH32 0x456D706C6F79656573206F6E6C79000000000000000000000000000000000000 PUSH1 0x44 DUP3 ADD MSTORE PUSH1 0x64 ADD PUSH2 0x128 JUMP JUMPDEST PUSH2 0x2A1 DUP5 DUP5 PUSH2 0x33A JUMP JUMPDEST DUP4 PUSH20 0xFFFFFFFFFFFFFFFFFFFFFFFFFFFFFFFFFFFFFFFF AND DUP2 PUSH20 0xFFFFFFFFFFFFFFFFFFFFFFFFFFFFFFFFFFFFFFFF AND PUSH32 0x9B1BFA7FA9EE420A16E124F794C35AC9F90472ACC99140EB2F6447C714CAD8EB DUP6 PUSH1 0x40 MLOAD PUSH2 0x300 SWAP2 DUP2 MSTORE PUSH1 0x20 ADD SWAP1 JUMP JUMPDEST PUSH1 0x40 MLOAD DUP1 SWAP2 SUB SWAP1 LOG3 POP POP PUSH1 0x0 DUP1 SLOAD PUSH32 0xFFFFFFFFFFFFFFFFFFFFFFFFFFFFFFFFFFFFFFFFFFFFFFFFFFFFFFFFFFFFFF00 AND SWAP1 SSTORE POP PUSH1 0x1 SWAP2 SWAP1 POP JUMP JUMPDEST PUSH1 0x40 MLOAD PUSH32 0x8B05F6DE00000000000000000000000000000000000000000000000000000000 DUP2 MSTORE PUSH1 0x20 PUSH1 0x4 DUP3 ADD MSTORE PUSH1 0x12 PUSH1 0x24 DUP3 ADD MSTORE PUSH32 0x2E436F72706F726174696F6E2E5661756C740000000000000000000000000000 PUSH1 0x44 DUP3 ADD MSTORE PUSH1 0x0 SWAP1 PUSH20 0x72EC1287FF5BB960FD54AC2ADAE99145153C561F SWAP1 PUSH4 0x8B05F6DE SWAP1 PUSH1 0x64 ADD PUSH1 0x20 PUSH1 0x40 MLOAD DUP1 DUP4 SUB DUP2 DUP7 GAS STATICCALL ISZERO DUP1 ISZERO PUSH2 0x3D3 JUMPI RETURNDATASIZE PUSH1 0x0 DUP1 RETURNDATACOPY RETURNDATASIZE PUSH1 0x0 REVERT JUMPDEST POP POP POP POP PUSH1 0x40 MLOAD RETURNDATASIZE PUSH1 0x1F NOT PUSH1 0x1F DUP3 ADD AND DUP3 ADD DUP1 PUSH1 0x40 MSTORE POP DUP2 ADD SWAP1 PUSH2 0x3F7 SWAP2 SWAP1 PUSH2 0x717 JUMP JUMPDEST SWAP1 POP DUP1 PUSH20 0xFFFFFFFFFFFFFFFFFFFFFFFFFFFFFFFFFFFFFFFF DUP2 AND BALANCE DUP4 GT ISZERO PUSH2 0x47B JUMPI PUSH1 0x40 MLOAD PUSH32 0x8C379A000000000000000000000000000000000000000000000000000000000 DUP2 MSTORE PUSH1 0x20 PUSH1 0x4 DUP3 ADD MSTORE PUSH1 0x10 PUSH1 0x24 DUP3 ADD MSTORE PUSH32 0x4E6F7420656E6F756768204D4154494300000000000000000000000000000000 PUSH1 0x44 DUP3 ADD MSTORE PUSH1 0x64 ADD PUSH2 0x128 JUMP JUMPDEST PUSH1 0x40 MLOAD PUSH32 0x84C280AF00000000000000000000000000000000000000000000000000000000 DUP2 MSTORE PUSH1 0x4 DUP2 ADD DUP5 SWAP1 MSTORE PUSH20 0xFFFFFFFFFFFFFFFFFFFFFFFFFFFFFFFFFFFFFFFF DUP3 AND SWAP1 PUSH4 0x84C280AF SWAP1 PUSH1 0x24 ADD PUSH1 0x20 PUSH1 0x40 MLOAD DUP1 DUP4 SUB DUP2 PUSH1 0x0 DUP8 GAS CALL SWAP3 POP POP POP DUP1 ISZERO PUSH2 0x522 JUMPI POP PUSH1 0x40 DUP1 MLOAD PUSH1 0x1F RETURNDATASIZE SWAP1 DUP2 ADD PUSH32 0xFFFFFFFFFFFFFFFFFFFFFFFFFFFFFFFFFFFFFFFFFFFFFFFFFFFFFFFFFFFFFFE0 AND DUP3 ADD SWAP1 SWAP3 MSTORE PUSH2 0x51F SWAP2 DUP2 ADD SWAP1 PUSH2 0x73B JUMP JUMPDEST PUSH1 0x1 JUMPDEST PUSH2 0x588 JUMPI PUSH1 0x40 MLOAD PUSH32 0x8C379A000000000000000000000000000000000000000000000000000000000 DUP2 MSTORE PUSH1 0x20 PUSH1 0x4 DUP3 ADD MSTORE PUSH1 0x14 PUSH1 0x24 DUP3 ADD MSTORE PUSH32 0x436C65726B5769746864726177206661696C6564000000000000000000000000 PUSH1 0x44 DUP3 ADD MSTORE PUSH1 0x64 ADD PUSH2 0x128 JUMP JUMPDEST POP PUSH1 0x0 DUP5 PUSH20 0xFFFFFFFFFFFFFFFFFFFFFFFFFFFFFFFFFFFFFFFF AND DUP5 PUSH1 0x40 MLOAD PUSH1 0x0 PUSH1 0x40 MLOAD DUP1 DUP4 SUB DUP2 DUP6 DUP8 GAS CALL SWAP3 POP POP POP RETURNDATASIZE DUP1 PUSH1 0x0 DUP2 EQ PUSH2 0x5E3 JUMPI PUSH1 0x40 MLOAD SWAP2 POP PUSH1 0x1F NOT PUSH1 0x3F RETURNDATASIZE ADD AND DUP3 ADD PUSH1 0x40 MSTORE RETURNDATASIZE DUP3 MSTORE RETURNDATASIZE PUSH1 0x0 PUSH1 0x20 DUP5 ADD RETURNDATACOPY PUSH2 0x5E8 JUMP JUMPDEST PUSH1 0x60 SWAP2 POP JUMPDEST POP POP SWAP1 POP DUP1 PUSH2 0x653 JUMPI PUSH1 0x40 MLOAD PUSH32 0x8C379A000000000000000000000000000000000000000000000000000000000 DUP2 MSTORE PUSH1 0x20 PUSH1 0x4 DUP3 ADD MSTORE PUSH1 0x14 PUSH1 0x24 DUP3 ADD MSTORE PUSH32 0x436C65726B5769746864726177206661696C6564000000000000000000000000 PUSH1 0x44 DUP3 ADD MSTORE PUSH1 0x64 ADD PUSH2 0x128 JUMP JUMPDEST POP POP POP POP POP JUMP JUMPDEST PUSH20 0xFFFFFFFFFFFFFFFFFFFFFFFFFFFFFFFFFFFFFFFF DUP2 AND DUP2 EQ PUSH2 0x67C JUMPI PUSH1 0x0 DUP1 REVERT JUMPDEST POP JUMP JUMPDEST PUSH1 0x0 DUP1 PUSH1 0x40 DUP4 DUP6 SUB SLT ISZERO PUSH2 0x692 JUMPI PUSH1 0x0 DUP1 REVERT JUMPDEST DUP3 CALLDATALOAD PUSH2 0x69D DUP2 PUSH2 0x65A JUMP JUMPDEST SWAP5 PUSH1 0x20 SWAP4 SWAP1 SWAP4 ADD CALLDATALOAD SWAP4 POP POP POP JUMP JUMPDEST PUSH1 0x0 PUSH1 0x20 DUP1 DUP4 MSTORE DUP4 MLOAD DUP1 DUP3 DUP6 ADD MSTORE PUSH1 0x0 JUMPDEST DUP2 DUP2 LT ISZERO PUSH2 0x6D8 JUMPI DUP6 DUP2 ADD DUP4 ADD MLOAD DUP6 DUP3 ADD PUSH1 0x40 ADD MSTORE DUP3 ADD PUSH2 0x6BC JUMP JUMPDEST POP PUSH1 0x0 PUSH1 0x40 DUP3 DUP7 ADD ADD MSTORE PUSH1 0x40 PUSH32 0xFFFFFFFFFFFFFFFFFFFFFFFFFFFFFFFFFFFFFFFFFFFFFFFFFFFFFFFFFFFFFFE0 PUSH1 0x1F DUP4 ADD AND DUP6 ADD ADD SWAP3 POP POP POP SWAP3 SWAP2 POP POP JUMP JUMPDEST PUSH1 0x0 PUSH1 0x20 DUP3 DUP5 SUB SLT ISZERO PUSH2 0x729 JUMPI PUSH1 0x0 DUP1 REVERT JUMPDEST DUP2 MLOAD PUSH2 0x734 DUP2 PUSH2 0x65A JUMP JUMPDEST SWAP4 SWAP3 POP POP POP JUMP JUMPDEST PUSH1 0x0 PUSH1 0x20 DUP3 DUP5 SUB SLT ISZERO PUSH2 0x74D JUMPI PUSH1 0x0 DUP1 REVERT JUMPDEST DUP2 MLOAD DUP1 ISZERO ISZERO DUP2 EQ PUSH2 0x734 JUMPI PUSH1 0x0 DUP1 REVERT INVALID LOG2 PUSH5 0x6970667358 0x22 SLT KECCAK256 DELEGATECALL PUSH23 0x9396DAC9E940FDDF9A271B8C92333E0EDFDC4E525CBACC 0xE2 0xCF 0xC3 PUSH29 0x19737064736F6C63430008120033000000000000000000000000000000 "
				},
				"gasEstimates": {
					"creation": {
						"codeDepositCost": "387800",
						"executionCost": "24642",
						"totalCost": "412442"
					},
					"external": {
						"": "95",
						"EmployeesWithdraw(address,uint256)": "infinite",
						"Name()": "infinite"
					},
					"internal": {
						"_withdrawTo(address,uint256)": "infinite"
					}
				},
				"methodIdentifiers": {
					"EmployeesWithdraw(address,uint256)": "51127660",
					"Name()": "8052474d"
				}
			},
			"storageLayout": {
				"storage": [
					{
						"astId": 34,
						"contract": "contracts/Corporation/Clerk.sol:Clerk",
						"label": "reentrantLocked",
						"offset": 0,
						"slot": "0",
						"type": "t_bool"
					}
				],
				"types": {
					"t_bool": {
						"encoding": "inplace",
						"label": "bool",
						"numberOfBytes": "1"
					}
				}
			},
			"userdoc": {
				"kind": "user",
				"methods": {},
				"version": 1
			}
		}
	}
}