{
	"contracts/Corporation/Employees.sol": {
		"Employees": {
			"abi": [
				{
					"anonymous": false,
					"inputs": [
						{
							"indexed": true,
							"internalType": "address",
							"name": "_employee",
							"type": "address"
						},
						{
							"indexed": false,
							"internalType": "uint256",
							"name": "_dailyWage",
							"type": "uint256"
						}
					],
					"name": "EmployeeAddition",
					"type": "event"
				},
				{
					"anonymous": false,
					"inputs": [
						{
							"indexed": true,
							"internalType": "address",
							"name": "_employee",
							"type": "address"
						}
					],
					"name": "EmployeeRemoval",
					"type": "event"
				},
				{
					"anonymous": false,
					"inputs": [
						{
							"indexed": true,
							"internalType": "address",
							"name": "_employee",
							"type": "address"
						},
						{
							"indexed": false,
							"internalType": "uint256",
							"name": "_dailyWage",
							"type": "uint256"
						}
					],
					"name": "EmployeeUpdate",
					"type": "event"
				},
				{
					"anonymous": false,
					"inputs": [
						{
							"indexed": true,
							"internalType": "address",
							"name": "_employee",
							"type": "address"
						},
						{
							"indexed": false,
							"internalType": "uint256",
							"name": "_amount",
							"type": "uint256"
						}
					],
					"name": "PayoffSent",
					"type": "event"
				},
				{
					"stateMutability": "payable",
					"type": "fallback"
				},
				{
					"inputs": [
						{
							"internalType": "address",
							"name": "_employee",
							"type": "address"
						},
						{
							"internalType": "uint16",
							"name": "_dailyWage",
							"type": "uint16"
						}
					],
					"name": "AddEmployee",
					"outputs": [
						{
							"internalType": "bool",
							"name": "",
							"type": "bool"
						}
					],
					"stateMutability": "nonpayable",
					"type": "function"
				},
				{
					"inputs": [],
					"name": "EmployeePayoff",
					"outputs": [
						{
							"internalType": "bool",
							"name": "",
							"type": "bool"
						}
					],
					"stateMutability": "nonpayable",
					"type": "function"
				},
				{
					"inputs": [],
					"name": "Name",
					"outputs": [
						{
							"internalType": "string",
							"name": "",
							"type": "string"
						}
					],
					"stateMutability": "view",
					"type": "function"
				},
				{
					"inputs": [
						{
							"internalType": "address",
							"name": "_employee",
							"type": "address"
						}
					],
					"name": "RemoveEmployee",
					"outputs": [
						{
							"internalType": "bool",
							"name": "",
							"type": "bool"
						}
					],
					"stateMutability": "nonpayable",
					"type": "function"
				},
				{
					"inputs": [
						{
							"internalType": "address",
							"name": "_employee",
							"type": "address"
						},
						{
							"internalType": "uint16",
							"name": "_dailyWage",
							"type": "uint16"
						}
					],
					"name": "UpdateEmployee",
					"outputs": [
						{
							"internalType": "bool",
							"name": "",
							"type": "bool"
						}
					],
					"stateMutability": "nonpayable",
					"type": "function"
				},
				{
					"stateMutability": "payable",
					"type": "receive"
				}
			],
			"devdoc": {
				"kind": "dev",
				"methods": {},
				"version": 1
			},
			"evm": {
				"assembly": "    /* \"contracts/Corporation/Employees.sol\":510:5713  contract Employees{... */\n  mstore(0x40, 0x80)\n    /* \"contracts/Corporation/Employees.sol\":1181:1186  false */\n  0x00\n    /* \"contracts/Corporation/Employees.sol\":1150:1186  bool private reentrantLocked = false */\n  dup1\n  sload\n  not(0xff)\n  and\n  swap1\n  sstore\n    /* \"contracts/Corporation/Employees.sol\":510:5713  contract Employees{... */\n  callvalue\n  dup1\n  iszero\n  tag_1\n  jumpi\n  0x00\n  dup1\n  revert\ntag_1:\n  pop\n  dataSize(sub_0)\n  dup1\n  dataOffset(sub_0)\n  0x00\n  codecopy\n  0x00\n  return\nstop\n\nsub_0: assembly {\n        /* \"contracts/Corporation/Employees.sol\":510:5713  contract Employees{... */\n      mstore(0x40, 0x80)\n      jumpi(tag_1, lt(calldatasize, 0x04))\n      shr(0xe0, calldataload(0x00))\n      dup1\n      0x66a320b5\n      gt\n      tag_8\n      jumpi\n      dup1\n      0x66a320b5\n      eq\n      tag_5\n      jumpi\n      dup1\n      0x8052474d\n      eq\n      tag_6\n      jumpi\n      dup1\n      0xe68a81c9\n      eq\n      tag_7\n      jumpi\n      stop\n    tag_8:\n      dup1\n      0x04159a5a\n      eq\n      tag_3\n      jumpi\n      dup1\n      0x52d6abdc\n      eq\n      tag_4\n      jumpi\n      stop\n    tag_1:\n      jumpi(tag_2, calldatasize)\n      stop\n    tag_2:\n      stop\n        /* \"contracts/Corporation/Employees.sol\":2746:4251  function EmployeePayoff() public returns(bool){... */\n    tag_3:\n      callvalue\n      dup1\n      iszero\n      tag_13\n      jumpi\n      0x00\n      dup1\n      revert\n    tag_13:\n      pop\n      tag_14\n      tag_15\n      jump\t// in\n    tag_14:\n      mload(0x40)\n        /* \"#utility.yul\":179:193   */\n      swap1\n      iszero\n        /* \"#utility.yul\":172:194   */\n      iszero\n        /* \"#utility.yul\":154:195   */\n      dup2\n      mstore\n        /* \"#utility.yul\":142:144   */\n      0x20\n        /* \"#utility.yul\":127:145   */\n      add\n        /* \"contracts/Corporation/Employees.sol\":2746:4251  function EmployeePayoff() public returns(bool){... */\n    tag_16:\n      mload(0x40)\n      dup1\n      swap2\n      sub\n      swap1\n      return\n        /* \"contracts/Corporation/Employees.sol\":5225:5549  function RemoveEmployee(address _employee) public ownerOnly returns(bool){... */\n    tag_4:\n      callvalue\n      dup1\n      iszero\n      tag_18\n      jumpi\n      0x00\n      dup1\n      revert\n    tag_18:\n      pop\n      tag_14\n      tag_20\n      calldatasize\n      0x04\n      tag_21\n      jump\t// in\n    tag_20:\n      tag_22\n      jump\t// in\n        /* \"contracts/Corporation/Employees.sol\":4265:4783  function AddEmployee(address _employee, uint16 _dailyWage) public ownerOnly returns(bool){... */\n    tag_5:\n      callvalue\n      dup1\n      iszero\n      tag_24\n      jumpi\n      0x00\n      dup1\n      revert\n    tag_24:\n      pop\n      tag_14\n      tag_26\n      calldatasize\n      0x04\n      tag_27\n      jump\t// in\n    tag_26:\n      tag_28\n      jump\t// in\n        /* \"contracts/Corporation/Employees.sol\":1643:1697  string constant public Name = \".Corporation.Employees\" */\n    tag_6:\n      callvalue\n      dup1\n      iszero\n      tag_30\n      jumpi\n      0x00\n      dup1\n      revert\n    tag_30:\n      pop\n      tag_31\n      mload(0x40)\n      dup1\n      0x40\n      add\n      0x40\n      mstore\n      dup1\n      0x16\n      dup2\n      mstore\n      0x20\n      add\n      0x2e436f72706f726174696f6e2e456d706c6f7965657300000000000000000000\n      dup2\n      mstore\n      pop\n      dup2\n      jump\n    tag_31:\n      mload(0x40)\n      tag_16\n      swap2\n      swap1\n      tag_34\n      jump\t// in\n        /* \"contracts/Corporation/Employees.sol\":4791:5217  function UpdateEmployee(address _employee, uint16 _dailyWage) public ownerOnly returns(bool){... */\n    tag_7:\n      callvalue\n      dup1\n      iszero\n      tag_35\n      jumpi\n      0x00\n      dup1\n      revert\n    tag_35:\n      pop\n      tag_14\n      tag_37\n      calldatasize\n      0x04\n      tag_27\n      jump\t// in\n    tag_37:\n      tag_38\n      jump\t// in\n        /* \"contracts/Corporation/Employees.sol\":2746:4251  function EmployeePayoff() public returns(bool){... */\n    tag_15:\n        /* \"contracts/Corporation/Employees.sol\":2787:2791  bool */\n      0x00\n        /* \"contracts/Corporation/Employees.sol\":2808:2823  reentrantLocked */\n      dup1\n      sload\n      0xff\n      and\n        /* \"contracts/Corporation/Employees.sol\":2805:2865  if(reentrantLocked)... */\n      iszero\n      tag_41\n      jumpi\n        /* \"contracts/Corporation/Employees.sol\":2838:2865  revert(\"Reentrance failed\") */\n      mload(0x40)\n      0x08c379a000000000000000000000000000000000000000000000000000000000\n      dup2\n      mstore\n        /* \"#utility.yul\":1851:1853   */\n      0x20\n        /* \"contracts/Corporation/Employees.sol\":2838:2865  revert(\"Reentrance failed\") */\n      0x04\n      dup3\n      add\n        /* \"#utility.yul\":1833:1854   */\n      mstore\n        /* \"#utility.yul\":1890:1892   */\n      0x11\n        /* \"#utility.yul\":1870:1888   */\n      0x24\n      dup3\n      add\n        /* \"#utility.yul\":1863:1893   */\n      mstore\n        /* \"#utility.yul\":1929:1948   */\n      0x5265656e7472616e6365206661696c6564000000000000000000000000000000\n        /* \"#utility.yul\":1909:1927   */\n      0x44\n      dup3\n      add\n        /* \"#utility.yul\":1902:1949   */\n      mstore\n        /* \"#utility.yul\":1966:1984   */\n      0x64\n      add\n        /* \"contracts/Corporation/Employees.sol\":2838:2865  revert(\"Reentrance failed\") */\n    tag_42:\n      mload(0x40)\n      dup1\n      swap2\n      sub\n      swap1\n      revert\n        /* \"contracts/Corporation/Employees.sol\":2805:2865  if(reentrantLocked)... */\n    tag_41:\n        /* \"contracts/Corporation/Employees.sol\":2878:2893  reentrantLocked */\n      0x00\n        /* \"contracts/Corporation/Employees.sol\":2878:2900  reentrantLocked = true */\n      dup1\n      sload\n      0xffffffffffffffffffffffffffffffffffffffffffffffffffffffffffffff00\n      and\n        /* \"contracts/Corporation/Employees.sol\":2896:2900  true */\n      0x01\n        /* \"contracts/Corporation/Employees.sol\":2878:2900  reentrantLocked = true */\n      or\n      dup2\n      sstore\n        /* \"contracts/Corporation/Employees.sol\":2937:2981  pt.GetContractAddress(\".Corporation.Oracle\") */\n      mload(0x40)\n      0xc75ffd8600000000000000000000000000000000000000000000000000000000\n      dup2\n      mstore\n        /* \"#utility.yul\":2197:2199   */\n      0x20\n        /* \"contracts/Corporation/Employees.sol\":2937:2981  pt.GetContractAddress(\".Corporation.Oracle\") */\n      0x04\n      dup3\n      add\n        /* \"#utility.yul\":2179:2200   */\n      mstore\n        /* \"#utility.yul\":2236:2238   */\n      0x13\n        /* \"#utility.yul\":2216:2234   */\n      0x24\n      dup3\n      add\n        /* \"#utility.yul\":2209:2239   */\n      mstore\n        /* \"#utility.yul\":2275:2296   */\n      0x2e436f72706f726174696f6e2e4f7261636c6500000000000000000000000000\n        /* \"#utility.yul\":2255:2273   */\n      0x44\n      dup3\n      add\n        /* \"#utility.yul\":2248:2297   */\n      mstore\n        /* \"contracts/Corporation/Employees.sol\":1327:1369  0x72ec1287FF5BB960fd54Ac2AdAE99145153C561F */\n      0x72ec1287ff5bb960fd54ac2adae99145153c561f\n      swap1\n        /* \"contracts/Corporation/Employees.sol\":2937:2958  pt.GetContractAddress */\n      0xc75ffd86\n      swap1\n        /* \"#utility.yul\":2314:2332   */\n      0x64\n      add\n        /* \"contracts/Corporation/Employees.sol\":2937:2981  pt.GetContractAddress(\".Corporation.Oracle\") */\n      0x20\n      mload(0x40)\n      dup1\n      dup4\n      sub\n      dup2\n      dup7\n      gas\n      staticcall\n      iszero\n      dup1\n      iszero\n      tag_47\n      jumpi\n      returndatasize\n      0x00\n      dup1\n      returndatacopy\n      revert(0x00, returndatasize)\n    tag_47:\n      pop\n      pop\n      pop\n      pop\n      mload(0x40)\n      returndatasize\n      not(0x1f)\n      0x1f\n      dup3\n      add\n      and\n      dup3\n      add\n      dup1\n      0x40\n      mstore\n      pop\n      dup2\n      add\n      swap1\n      tag_48\n      swap2\n      swap1\n      tag_49\n      jump\t// in\n    tag_48:\n        /* \"contracts/Corporation/Employees.sol\":3063:3106  pt.GetContractAddress(\".Corporation.Clerk\") */\n      mload(0x40)\n      0xc75ffd8600000000000000000000000000000000000000000000000000000000\n      dup2\n      mstore\n        /* \"#utility.yul\":2801:2803   */\n      0x20\n        /* \"contracts/Corporation/Employees.sol\":3063:3106  pt.GetContractAddress(\".Corporation.Clerk\") */\n      0x04\n      dup3\n      add\n        /* \"#utility.yul\":2783:2804   */\n      mstore\n        /* \"#utility.yul\":2840:2842   */\n      0x12\n        /* \"#utility.yul\":2820:2838   */\n      0x24\n      dup3\n      add\n        /* \"#utility.yul\":2813:2843   */\n      mstore\n        /* \"#utility.yul\":2879:2899   */\n      0x2e436f72706f726174696f6e2e436c65726b0000000000000000000000000000\n        /* \"#utility.yul\":2859:2877   */\n      0x44\n      dup3\n      add\n        /* \"#utility.yul\":2852:2900   */\n      mstore\n        /* \"contracts/Corporation/Employees.sol\":2913:2981  address oracleAddress = pt.GetContractAddress(\".Corporation.Oracle\") */\n      swap1\n      swap2\n      pop\n      dup2\n      swap1\n        /* \"contracts/Corporation/Employees.sol\":2992:3002  IOracle oc */\n      0x00\n      swap1\n        /* \"contracts/Corporation/Employees.sol\":1327:1369  0x72ec1287FF5BB960fd54Ac2AdAE99145153C561F */\n      0x72ec1287ff5bb960fd54ac2adae99145153c561f\n      swap1\n        /* \"contracts/Corporation/Employees.sol\":3063:3084  pt.GetContractAddress */\n      0xc75ffd86\n      swap1\n        /* \"#utility.yul\":2917:2935   */\n      0x64\n      add\n        /* \"contracts/Corporation/Employees.sol\":3063:3106  pt.GetContractAddress(\".Corporation.Clerk\") */\n      0x20\n      mload(0x40)\n      dup1\n      dup4\n      sub\n      dup2\n      dup7\n      gas\n      staticcall\n      iszero\n      dup1\n      iszero\n      tag_53\n      jumpi\n      returndatasize\n      0x00\n      dup1\n      returndatacopy\n      revert(0x00, returndatasize)\n    tag_53:\n      pop\n      pop\n      pop\n      pop\n      mload(0x40)\n      returndatasize\n      not(0x1f)\n      0x1f\n      dup3\n      add\n      and\n      dup3\n      add\n      dup1\n      0x40\n      mstore\n      pop\n      dup2\n      add\n      swap1\n      tag_54\n      swap2\n      swap1\n      tag_49\n      jump\t// in\n    tag_54:\n        /* \"contracts/Corporation/Employees.sol\":3200:3210  msg.sender */\n      caller\n        /* \"contracts/Corporation/Employees.sol\":3117:3126  IClerk cl */\n      0x00\n        /* \"contracts/Corporation/Employees.sol\":3190:3211  employees[msg.sender] */\n      swap1\n      dup2\n      mstore\n        /* \"contracts/Corporation/Employees.sol\":3190:3199  employees */\n      0x01\n        /* \"contracts/Corporation/Employees.sol\":3190:3211  employees[msg.sender] */\n      0x20\n      mstore\n      0x40\n      dup2\n      keccak256\n        /* \"contracts/Corporation/Employees.sol\":3235:3255  employee.lastPayment */\n      dup1\n      sload\n        /* \"contracts/Corporation/Employees.sol\":3040:3106  address clerkAddress = pt.GetContractAddress(\".Corporation.Clerk\") */\n      swap3\n      swap4\n      pop\n      dup4\n      swap3\n        /* \"contracts/Corporation/Employees.sol\":3190:3211  employees[msg.sender] */\n      swap1\n      swap2\n        /* \"contracts/Corporation/Employees.sol\":3235:3255  employee.lastPayment */\n      0x01000000\n      swap1\n      swap2\n      div\n      0xffffffff\n      and\n        /* \"contracts/Corporation/Employees.sol\":3235:3260  employee.lastPayment == 0 */\n      swap1\n      sub\n        /* \"contracts/Corporation/Employees.sol\":3232:3298  if(employee.lastPayment == 0)... */\n      tag_55\n      jumpi\n        /* \"contracts/Corporation/Employees.sol\":3275:3298  revert(\"Employee only\") */\n      mload(0x40)\n      0x08c379a000000000000000000000000000000000000000000000000000000000\n      dup2\n      mstore\n        /* \"#utility.yul\":3148:3150   */\n      0x20\n        /* \"contracts/Corporation/Employees.sol\":3275:3298  revert(\"Employee only\") */\n      0x04\n      dup3\n      add\n        /* \"#utility.yul\":3130:3151   */\n      mstore\n        /* \"#utility.yul\":3187:3189   */\n      0x0d\n        /* \"#utility.yul\":3167:3185   */\n      0x24\n      dup3\n      add\n        /* \"#utility.yul\":3160:3190   */\n      mstore\n        /* \"#utility.yul\":3226:3241   */\n      0x456d706c6f796565206f6e6c7900000000000000000000000000000000000000\n        /* \"#utility.yul\":3206:3224   */\n      0x44\n      dup3\n      add\n        /* \"#utility.yul\":3199:3242   */\n      mstore\n        /* \"#utility.yul\":3259:3277   */\n      0x64\n      add\n        /* \"contracts/Corporation/Employees.sol\":3275:3298  revert(\"Employee only\") */\n      tag_42\n        /* \"#utility.yul\":2946:3283   */\n      jump\n        /* \"contracts/Corporation/Employees.sol\":3232:3298  if(employee.lastPayment == 0)... */\n    tag_55:\n        /* \"contracts/Corporation/Employees.sol\":3312:3326  uint8 decimals */\n      0x00\n        /* \"contracts/Corporation/Employees.sol\":3328:3340  bool success */\n      dup1\n        /* \"contracts/Corporation/Employees.sol\":3344:3346  oc */\n      dup6\n        /* \"contracts/Corporation/Employees.sol\":3344:3363  oc.GetMATICDecimals */\n      0xffffffffffffffffffffffffffffffffffffffff\n      and\n      0x16f0a386\n        /* \"contracts/Corporation/Employees.sol\":3344:3365  oc.GetMATICDecimals() */\n      mload(0x40)\n      dup2\n      0xffffffff\n      and\n      0xe0\n      shl\n      dup2\n      mstore\n      0x04\n      add\n      0x40\n      dup1\n      mload\n      dup1\n      dup4\n      sub\n      dup2\n      dup7\n      gas\n      staticcall\n      iszero\n      dup1\n      iszero\n      tag_59\n      jumpi\n      returndatasize\n      0x00\n      dup1\n      returndatacopy\n      revert(0x00, returndatasize)\n    tag_59:\n      pop\n      pop\n      pop\n      pop\n      mload(0x40)\n      returndatasize\n      not(0x1f)\n      0x1f\n      dup3\n      add\n      and\n      dup3\n      add\n      dup1\n      0x40\n      mstore\n      pop\n      dup2\n      add\n      swap1\n      tag_60\n      swap2\n      swap1\n      tag_61\n      jump\t// in\n    tag_60:\n        /* \"contracts/Corporation/Employees.sol\":3311:3365  (uint8 decimals, bool success) = oc.GetMATICDecimals() */\n      swap2\n      pop\n      swap2\n      pop\n        /* \"contracts/Corporation/Employees.sol\":3382:3389  success */\n      dup1\n        /* \"contracts/Corporation/Employees.sol\":3378:3432  if(!success)... */\n      tag_62\n      jumpi\n        /* \"contracts/Corporation/Employees.sol\":3404:3432  revert(\"Oracle unreachable\") */\n      mload(0x40)\n      0x08c379a000000000000000000000000000000000000000000000000000000000\n      dup2\n      mstore\n        /* \"#utility.yul\":4016:4018   */\n      0x20\n        /* \"contracts/Corporation/Employees.sol\":3404:3432  revert(\"Oracle unreachable\") */\n      0x04\n      dup3\n      add\n        /* \"#utility.yul\":3998:4019   */\n      mstore\n        /* \"#utility.yul\":4055:4057   */\n      0x12\n        /* \"#utility.yul\":4035:4053   */\n      0x24\n      dup3\n      add\n        /* \"#utility.yul\":4028:4058   */\n      mstore\n        /* \"#utility.yul\":4094:4114   */\n      0x4f7261636c6520756e726561636861626c650000000000000000000000000000\n        /* \"#utility.yul\":4074:4092   */\n      0x44\n      dup3\n      add\n        /* \"#utility.yul\":4067:4115   */\n      mstore\n        /* \"#utility.yul\":4132:4150   */\n      0x64\n      add\n        /* \"contracts/Corporation/Employees.sol\":3404:3432  revert(\"Oracle unreachable\") */\n      tag_42\n        /* \"#utility.yul\":3814:4156   */\n      jump\n        /* \"contracts/Corporation/Employees.sol\":3378:3432  if(!success)... */\n    tag_62:\n        /* \"contracts/Corporation/Employees.sol\":3445:3458  uint256 price */\n      0x00\n        /* \"contracts/Corporation/Employees.sol\":3461:3463  oc */\n      dup7\n        /* \"contracts/Corporation/Employees.sol\":3461:3477  oc.GetMATICPrice */\n      0xffffffffffffffffffffffffffffffffffffffff\n      and\n      0xf9a4bbbe\n        /* \"contracts/Corporation/Employees.sol\":3461:3479  oc.GetMATICPrice() */\n      mload(0x40)\n      dup2\n      0xffffffff\n      and\n      0xe0\n      shl\n      dup2\n      mstore\n      0x04\n      add\n      0x20\n      mload(0x40)\n      dup1\n      dup4\n      sub\n      dup2\n      dup7\n      gas\n      staticcall\n      iszero\n      dup1\n      iszero\n      tag_66\n      jumpi\n      returndatasize\n      0x00\n      dup1\n      returndatacopy\n      revert(0x00, returndatasize)\n    tag_66:\n      pop\n      pop\n      pop\n      pop\n      mload(0x40)\n      returndatasize\n      not(0x1f)\n      0x1f\n      dup3\n      add\n      and\n      dup3\n      add\n      dup1\n      0x40\n      mstore\n      pop\n      dup2\n      add\n      swap1\n      tag_67\n      swap2\n      swap1\n      tag_68\n      jump\t// in\n    tag_67:\n        /* \"contracts/Corporation/Employees.sol\":3445:3479  uint256 price = oc.GetMATICPrice() */\n      swap1\n      pop\n        /* \"contracts/Corporation/Employees.sol\":3504:3505  0 */\n      0x00\n        /* \"contracts/Corporation/Employees.sol\":3495:3500  price */\n      dup2\n        /* \"contracts/Corporation/Employees.sol\":3495:3505  price <= 0 */\n      gt\n        /* \"contracts/Corporation/Employees.sol\":3492:3546  if(price <= 0)... */\n      tag_69\n      jumpi\n        /* \"contracts/Corporation/Employees.sol\":3520:3546  revert(\"Unaccepted price\") */\n      mload(0x40)\n      0x08c379a000000000000000000000000000000000000000000000000000000000\n      dup2\n      mstore\n        /* \"#utility.yul\":4552:4554   */\n      0x20\n        /* \"contracts/Corporation/Employees.sol\":3520:3546  revert(\"Unaccepted price\") */\n      0x04\n      dup3\n      add\n        /* \"#utility.yul\":4534:4555   */\n      mstore\n        /* \"#utility.yul\":4591:4593   */\n      0x10\n        /* \"#utility.yul\":4571:4589   */\n      0x24\n      dup3\n      add\n        /* \"#utility.yul\":4564:4594   */\n      mstore\n        /* \"#utility.yul\":4630:4648   */\n      0x556e616363657074656420707269636500000000000000000000000000000000\n        /* \"#utility.yul\":4610:4628   */\n      0x44\n      dup3\n      add\n        /* \"#utility.yul\":4603:4649   */\n      mstore\n        /* \"#utility.yul\":4666:4684   */\n      0x64\n      add\n        /* \"contracts/Corporation/Employees.sol\":3520:3546  revert(\"Unaccepted price\") */\n      tag_42\n        /* \"#utility.yul\":4350:4690   */\n      jump\n        /* \"contracts/Corporation/Employees.sol\":3492:3546  if(price <= 0)... */\n    tag_69:\n        /* \"contracts/Corporation/Employees.sol\":3605:3625  employee.lastPayment */\n      dup4\n      sload\n        /* \"contracts/Corporation/Employees.sol\":3559:3576  uint32 unpaidDays */\n      0x00\n      swap1\n        /* \"contracts/Corporation/Employees.sol\":3630:3636  1 days */\n      0x015180\n      swap1\n        /* \"contracts/Corporation/Employees.sol\":3587:3625  block.timestamp - employee.lastPayment */\n      tag_72\n      swap1\n        /* \"contracts/Corporation/Employees.sol\":3605:3625  employee.lastPayment */\n      0x01000000\n      swap1\n      div\n      0xffffffff\n      and\n        /* \"contracts/Corporation/Employees.sol\":3587:3602  block.timestamp */\n      timestamp\n        /* \"contracts/Corporation/Employees.sol\":3587:3625  block.timestamp - employee.lastPayment */\n      tag_73\n      jump\t// in\n    tag_72:\n        /* \"contracts/Corporation/Employees.sol\":3586:3637  (block.timestamp - employee.lastPayment) / (1 days) */\n      tag_74\n      swap2\n      swap1\n      tag_75\n      jump\t// in\n    tag_74:\n        /* \"contracts/Corporation/Employees.sol\":3695:3715  employee.lastPayment */\n      dup6\n      sload\n        /* \"contracts/Corporation/Employees.sol\":3559:3638  uint32 unpaidDays = uint32((block.timestamp - employee.lastPayment) / (1 days)) */\n      swap1\n      swap2\n      pop\n        /* \"contracts/Corporation/Employees.sol\":3649:3666  uint32 moduloDays */\n      0x00\n      swap1\n        /* \"contracts/Corporation/Employees.sol\":3720:3726  1 days */\n      0x015180\n      swap1\n        /* \"contracts/Corporation/Employees.sol\":3677:3715  block.timestamp - employee.lastPayment */\n      tag_76\n      swap1\n        /* \"contracts/Corporation/Employees.sol\":3695:3715  employee.lastPayment */\n      0x01000000\n      swap1\n      div\n      0xffffffff\n      and\n        /* \"contracts/Corporation/Employees.sol\":3677:3692  block.timestamp */\n      timestamp\n        /* \"contracts/Corporation/Employees.sol\":3677:3715  block.timestamp - employee.lastPayment */\n      tag_73\n      jump\t// in\n    tag_76:\n        /* \"contracts/Corporation/Employees.sol\":3676:3727  (block.timestamp - employee.lastPayment) % (1 days) */\n      tag_77\n      swap2\n      swap1\n      tag_78\n      jump\t// in\n    tag_77:\n        /* \"contracts/Corporation/Employees.sol\":3649:3728  uint32 moduloDays = uint32((block.timestamp - employee.lastPayment) % (1 days)) */\n      swap1\n      pop\n        /* \"contracts/Corporation/Employees.sol\":3739:3753  uint256 amount */\n      0x00\n        /* \"contracts/Corporation/Employees.sol\":3813:3818  price */\n      dup4\n        /* \"contracts/Corporation/Employees.sol\":3798:3810  10**decimals */\n      tag_79\n        /* \"contracts/Corporation/Employees.sol\":3802:3810  decimals */\n      dup8\n        /* \"contracts/Corporation/Employees.sol\":3798:3800  10 */\n      0x0a\n        /* \"contracts/Corporation/Employees.sol\":3798:3810  10**decimals */\n      tag_80\n      jump\t// in\n    tag_79:\n        /* \"contracts/Corporation/Employees.sol\":3764:3782  employee.dailyWage */\n      dup9\n      sload\n        /* \"contracts/Corporation/Employees.sol\":3764:3795  employee.dailyWage * unpaidDays */\n      tag_81\n      swap1\n        /* \"contracts/Corporation/Employees.sol\":3785:3795  unpaidDays */\n      dup7\n      swap1\n        /* \"contracts/Corporation/Employees.sol\":3764:3782  employee.dailyWage */\n      0x0100\n      swap1\n      div\n      0xffff\n      and\n        /* \"contracts/Corporation/Employees.sol\":3764:3795  employee.dailyWage * unpaidDays */\n      tag_82\n      jump\t// in\n    tag_81:\n        /* \"contracts/Corporation/Employees.sol\":3764:3810  employee.dailyWage * unpaidDays * 10**decimals */\n      0xffffffff\n      and\n      tag_83\n      swap2\n      swap1\n      tag_84\n      jump\t// in\n    tag_83:\n        /* \"contracts/Corporation/Employees.sol\":3764:3818  employee.dailyWage * unpaidDays * 10**decimals / price */\n      tag_85\n      swap2\n      swap1\n      tag_75\n      jump\t// in\n    tag_85:\n        /* \"contracts/Corporation/Employees.sol\":3835:3850  employee.status */\n      dup8\n      sload\n        /* \"contracts/Corporation/Employees.sol\":3739:3819  uint256 amount = uint256(employee.dailyWage * unpaidDays * 10**decimals / price) */\n      swap1\n      swap2\n      pop\n        /* \"contracts/Corporation/Employees.sol\":3835:3850  employee.status */\n      0xff\n      and\n        /* \"contracts/Corporation/Employees.sol\":3835:3858  employee.status == true */\n      iszero\n      iszero\n        /* \"contracts/Corporation/Employees.sol\":3835:3850  employee.status */\n      0x01\n        /* \"contracts/Corporation/Employees.sol\":3835:3858  employee.status == true */\n      sub\n        /* \"contracts/Corporation/Employees.sol\":3832:4037  if(employee.status == true)... */\n      tag_86\n      jumpi\n        /* \"contracts/Corporation/Employees.sol\":3903:3931  block.timestamp - moduloDays */\n      tag_87\n      0xffffffff\n      dup4\n      and\n        /* \"contracts/Corporation/Employees.sol\":3903:3918  block.timestamp */\n      timestamp\n        /* \"contracts/Corporation/Employees.sol\":3903:3931  block.timestamp - moduloDays */\n      tag_73\n      jump\t// in\n    tag_87:\n        /* \"contracts/Corporation/Employees.sol\":3873:3932  employee.lastPayment = uint32(block.timestamp - moduloDays) */\n      dup8\n      sload\n      0xffffffff\n      swap2\n      swap1\n      swap2\n      and\n      0x01000000\n      mul\n      0xffffffffffffffffffffffffffffffffffffffffffffffffff00000000ffffff\n      swap1\n      swap2\n      and\n      or\n      dup8\n      sstore\n        /* \"contracts/Corporation/Employees.sol\":3832:4037  if(employee.status == true)... */\n      jump(tag_88)\n    tag_86:\n        /* \"contracts/Corporation/Employees.sol\":3964:3988  employee.lastPayment = 0 */\n      dup7\n      sload\n        /* \"contracts/Corporation/Employees.sol\":4003:4025  employee.dailyWage = 0 */\n      0xffffffffffffffffffffffffffffffffffffffffffffffffff000000000000ff\n      and\n      dup8\n      sstore\n        /* \"contracts/Corporation/Employees.sol\":3832:4037  if(employee.status == true)... */\n    tag_88:\n        /* \"contracts/Corporation/Employees.sol\":4053:4093  cl.EmployeesWithdraw(msg.sender, amount) */\n      mload(0x40)\n      0x5112766000000000000000000000000000000000000000000000000000000000\n      dup2\n      mstore\n        /* \"contracts/Corporation/Employees.sol\":4074:4084  msg.sender */\n      caller\n        /* \"contracts/Corporation/Employees.sol\":4053:4093  cl.EmployeesWithdraw(msg.sender, amount) */\n      0x04\n      dup3\n      add\n        /* \"#utility.yul\":7552:7626   */\n      mstore\n        /* \"#utility.yul\":7642:7660   */\n      0x24\n      dup2\n      add\n        /* \"#utility.yul\":7635:7669   */\n      dup3\n      swap1\n      mstore\n        /* \"contracts/Corporation/Employees.sol\":4053:4073  cl.EmployeesWithdraw */\n      0xffffffffffffffffffffffffffffffffffffffff\n      dup10\n      and\n      swap1\n      0x51127660\n      swap1\n        /* \"#utility.yul\":7525:7543   */\n      0x44\n      add\n        /* \"contracts/Corporation/Employees.sol\":4053:4093  cl.EmployeesWithdraw(msg.sender, amount) */\n      0x20\n      mload(0x40)\n      dup1\n      dup4\n      sub\n      dup2\n      0x00\n      dup8\n      gas\n      call\n      swap3\n      pop\n      pop\n      pop\n      dup1\n      iszero\n      tag_91\n      jumpi\n      pop\n      0x40\n      dup1\n      mload\n      0x1f\n      returndatasize\n      swap1\n      dup2\n      add\n      0xffffffffffffffffffffffffffffffffffffffffffffffffffffffffffffffe0\n      and\n      dup3\n      add\n      swap1\n      swap3\n      mstore\n      tag_92\n      swap2\n      dup2\n      add\n      swap1\n      tag_93\n      jump\t// in\n    tag_92:\n      0x01\n    tag_91:\n        /* \"contracts/Corporation/Employees.sol\":4049:4138  try cl.EmployeesWithdraw(msg.sender, amount){}... */\n      tag_94\n      jumpi\n        /* \"contracts/Corporation/Employees.sol\":4112:4135  revert(\"Payoff failed\") */\n      mload(0x40)\n      0x08c379a000000000000000000000000000000000000000000000000000000000\n      dup2\n      mstore\n        /* \"#utility.yul\":8089:8091   */\n      0x20\n        /* \"contracts/Corporation/Employees.sol\":4112:4135  revert(\"Payoff failed\") */\n      0x04\n      dup3\n      add\n        /* \"#utility.yul\":8071:8092   */\n      mstore\n        /* \"#utility.yul\":8128:8130   */\n      0x0d\n        /* \"#utility.yul\":8108:8126   */\n      0x24\n      dup3\n      add\n        /* \"#utility.yul\":8101:8131   */\n      mstore\n        /* \"#utility.yul\":8167:8182   */\n      0x5061796f6666206661696c656400000000000000000000000000000000000000\n        /* \"#utility.yul\":8147:8165   */\n      0x44\n      dup3\n      add\n        /* \"#utility.yul\":8140:8183   */\n      mstore\n        /* \"#utility.yul\":8200:8218   */\n      0x64\n      add\n        /* \"contracts/Corporation/Employees.sol\":4112:4135  revert(\"Payoff failed\") */\n      tag_42\n        /* \"#utility.yul\":7887:8224   */\n      jump\n        /* \"contracts/Corporation/Employees.sol\":4049:4138  try cl.EmployeesWithdraw(msg.sender, amount){}... */\n    tag_94:\n      pop\n        /* \"contracts/Corporation/Employees.sol\":4168:4173  false */\n      0x00\n        /* \"contracts/Corporation/Employees.sol\":4150:4173  reentrantLocked = false */\n      dup1\n      sload\n      0xffffffffffffffffffffffffffffffffffffffffffffffffffffffffffffff00\n      and\n      swap1\n      sstore\n        /* \"contracts/Corporation/Employees.sol\":4191:4221  PayoffSent(msg.sender, amount) */\n      mload(0x40)\n        /* \"#utility.yul\":8375:8400   */\n      dup2\n      dup2\n      mstore\n        /* \"contracts/Corporation/Employees.sol\":4202:4212  msg.sender */\n      caller\n      swap1\n        /* \"contracts/Corporation/Employees.sol\":4191:4221  PayoffSent(msg.sender, amount) */\n      0x87693b75a97f1eaab25a01087b59145b8f68e82c6ec64a4493ecdc727c23959c\n      swap1\n        /* \"#utility.yul\":8363:8365   */\n      0x20\n        /* \"#utility.yul\":8348:8366   */\n      add\n        /* \"contracts/Corporation/Employees.sol\":4191:4221  PayoffSent(msg.sender, amount) */\n      mload(0x40)\n      dup1\n      swap2\n      sub\n      swap1\n      log2\n        /* \"contracts/Corporation/Employees.sol\":4239:4243  true */\n      0x01\n        /* \"contracts/Corporation/Employees.sol\":4232:4243  return true */\n      swap12\n      pop\n      pop\n      pop\n      pop\n      pop\n      pop\n      pop\n      pop\n      pop\n      pop\n      pop\n      pop\n        /* \"contracts/Corporation/Employees.sol\":2746:4251  function EmployeePayoff() public returns(bool){... */\n      swap1\n      jump\t// out\n        /* \"contracts/Corporation/Employees.sol\":5225:5549  function RemoveEmployee(address _employee) public ownerOnly returns(bool){... */\n    tag_22:\n        /* \"contracts/Corporation/Employees.sol\":5293:5297  bool */\n      0x00\n        /* \"contracts/Corporation/Employees.sol\":2290:2300  msg.sender */\n      caller\n        /* \"contracts/Corporation/Employees.sol\":2273:2300  pt.GetOwner() != msg.sender */\n      0xffffffffffffffffffffffffffffffffffffffff\n      and\n        /* \"contracts/Corporation/Employees.sol\":1327:1369  0x72ec1287FF5BB960fd54Ac2AdAE99145153C561F */\n      0x72ec1287ff5bb960fd54ac2adae99145153c561f\n        /* \"contracts/Corporation/Employees.sol\":2273:2284  pt.GetOwner */\n      0xffffffffffffffffffffffffffffffffffffffff\n      and\n      0x0ae50a39\n        /* \"contracts/Corporation/Employees.sol\":2273:2286  pt.GetOwner() */\n      mload(0x40)\n      dup2\n      0xffffffff\n      and\n      0xe0\n      shl\n      dup2\n      mstore\n      0x04\n      add\n      0x20\n      mload(0x40)\n      dup1\n      dup4\n      sub\n      dup2\n      dup7\n      gas\n      staticcall\n      iszero\n      dup1\n      iszero\n      tag_105\n      jumpi\n      returndatasize\n      0x00\n      dup1\n      returndatacopy\n      revert(0x00, returndatasize)\n    tag_105:\n      pop\n      pop\n      pop\n      pop\n      mload(0x40)\n      returndatasize\n      not(0x1f)\n      0x1f\n      dup3\n      add\n      and\n      dup3\n      add\n      dup1\n      0x40\n      mstore\n      pop\n      dup2\n      add\n      swap1\n      tag_106\n      swap2\n      swap1\n      tag_49\n      jump\t// in\n    tag_106:\n        /* \"contracts/Corporation/Employees.sol\":2273:2300  pt.GetOwner() != msg.sender */\n      0xffffffffffffffffffffffffffffffffffffffff\n      and\n      eq\n        /* \"contracts/Corporation/Employees.sol\":2270:2335  if(pt.GetOwner() != msg.sender)... */\n      tag_107\n      jumpi\n        /* \"contracts/Corporation/Employees.sol\":2315:2335  revert(\"Owner only\") */\n      mload(0x40)\n      0x08c379a000000000000000000000000000000000000000000000000000000000\n      dup2\n      mstore\n        /* \"#utility.yul\":8613:8615   */\n      0x20\n        /* \"contracts/Corporation/Employees.sol\":2315:2335  revert(\"Owner only\") */\n      0x04\n      dup3\n      add\n        /* \"#utility.yul\":8595:8616   */\n      mstore\n        /* \"#utility.yul\":8652:8654   */\n      0x0a\n        /* \"#utility.yul\":8632:8650   */\n      0x24\n      dup3\n      add\n        /* \"#utility.yul\":8625:8655   */\n      mstore\n        /* \"#utility.yul\":8691:8703   */\n      0x4f776e6572206f6e6c7900000000000000000000000000000000000000000000\n        /* \"#utility.yul\":8671:8689   */\n      0x44\n      dup3\n      add\n        /* \"#utility.yul\":8664:8704   */\n      mstore\n        /* \"#utility.yul\":8721:8739   */\n      0x64\n      add\n        /* \"contracts/Corporation/Employees.sol\":2315:2335  revert(\"Owner only\") */\n      tag_42\n        /* \"#utility.yul\":8411:8745   */\n      jump\n        /* \"contracts/Corporation/Employees.sol\":2270:2335  if(pt.GetOwner() != msg.sender)... */\n    tag_107:\n        /* \"contracts/Corporation/Employees.sol\":5339:5359  employees[_employee] */\n      0xffffffffffffffffffffffffffffffffffffffff\n      dup3\n      and\n        /* \"contracts/Corporation/Employees.sol\":5311:5336  Employee storage employee */\n      0x00\n        /* \"contracts/Corporation/Employees.sol\":5339:5359  employees[_employee] */\n      swap1\n      dup2\n      mstore\n        /* \"contracts/Corporation/Employees.sol\":5339:5348  employees */\n      0x01\n        /* \"contracts/Corporation/Employees.sol\":5339:5359  employees[_employee] */\n      0x20\n      dup2\n      swap1\n      mstore\n      0x40\n      swap1\n      swap2\n      keccak256\n        /* \"contracts/Corporation/Employees.sol\":5375:5390  employee.status */\n      dup1\n      sload\n        /* \"contracts/Corporation/Employees.sol\":5339:5359  employees[_employee] */\n      swap1\n      swap2\n        /* \"contracts/Corporation/Employees.sol\":5375:5390  employee.status */\n      0xff\n      swap1\n      swap2\n      and\n        /* \"contracts/Corporation/Employees.sol\":5375:5398  employee.status != true */\n      iszero\n      iszero\n      eq\n        /* \"contracts/Corporation/Employees.sol\":5372:5438  if(employee.status != true)... */\n      tag_111\n      jumpi\n        /* \"contracts/Corporation/Employees.sol\":5413:5438  revert(\"Not an employee\") */\n      mload(0x40)\n      0x08c379a000000000000000000000000000000000000000000000000000000000\n      dup2\n      mstore\n        /* \"#utility.yul\":8952:8954   */\n      0x20\n        /* \"contracts/Corporation/Employees.sol\":5413:5438  revert(\"Not an employee\") */\n      0x04\n      dup3\n      add\n        /* \"#utility.yul\":8934:8955   */\n      mstore\n        /* \"#utility.yul\":8991:8993   */\n      0x0f\n        /* \"#utility.yul\":8971:8989   */\n      0x24\n      dup3\n      add\n        /* \"#utility.yul\":8964:8994   */\n      mstore\n        /* \"#utility.yul\":9030:9047   */\n      0x4e6f7420616e20656d706c6f7965650000000000000000000000000000000000\n        /* \"#utility.yul\":9010:9028   */\n      0x44\n      dup3\n      add\n        /* \"#utility.yul\":9003:9048   */\n      mstore\n        /* \"#utility.yul\":9065:9083   */\n      0x64\n      add\n        /* \"contracts/Corporation/Employees.sol\":5413:5438  revert(\"Not an employee\") */\n      tag_42\n        /* \"#utility.yul\":8750:9089   */\n      jump\n        /* \"contracts/Corporation/Employees.sol\":5372:5438  if(employee.status != true)... */\n    tag_111:\n        /* \"contracts/Corporation/Employees.sol\":5451:5474  employee.status = false */\n      dup1\n      sload\n      0xffffffffffffffffffffffffffffffffffffffffffffffffffffffffffffff00\n      and\n      dup2\n      sstore\n        /* \"contracts/Corporation/Employees.sol\":5492:5519  EmployeeRemoval( _employee) */\n      mload(0x40)\n      0xffffffffffffffffffffffffffffffffffffffff\n      dup5\n      and\n      swap1\n      0x4f8dd5393fd34d2f49290d092d4acb088e011456e5d47b4ba6188cd81ca2887d\n      swap1\n        /* \"contracts/Corporation/Employees.sol\":5469:5474  false */\n      0x00\n      swap1\n        /* \"contracts/Corporation/Employees.sol\":5492:5519  EmployeeRemoval( _employee) */\n      log2\n        /* \"contracts/Corporation/Employees.sol\":5537:5541  true */\n      0x01\n        /* \"contracts/Corporation/Employees.sol\":5530:5541  return true */\n      swap2\n      pop\n      pop\n        /* \"contracts/Corporation/Employees.sol\":2348:2349  _ */\n    tag_110:\n        /* \"contracts/Corporation/Employees.sol\":5225:5549  function RemoveEmployee(address _employee) public ownerOnly returns(bool){... */\n      swap2\n      swap1\n      pop\n      jump\t// out\n        /* \"contracts/Corporation/Employees.sol\":4265:4783  function AddEmployee(address _employee, uint16 _dailyWage) public ownerOnly returns(bool){... */\n    tag_28:\n        /* \"contracts/Corporation/Employees.sol\":4349:4353  bool */\n      0x00\n        /* \"contracts/Corporation/Employees.sol\":2290:2300  msg.sender */\n      caller\n        /* \"contracts/Corporation/Employees.sol\":2273:2300  pt.GetOwner() != msg.sender */\n      0xffffffffffffffffffffffffffffffffffffffff\n      and\n        /* \"contracts/Corporation/Employees.sol\":1327:1369  0x72ec1287FF5BB960fd54Ac2AdAE99145153C561F */\n      0x72ec1287ff5bb960fd54ac2adae99145153c561f\n        /* \"contracts/Corporation/Employees.sol\":2273:2284  pt.GetOwner */\n      0xffffffffffffffffffffffffffffffffffffffff\n      and\n      0x0ae50a39\n        /* \"contracts/Corporation/Employees.sol\":2273:2286  pt.GetOwner() */\n      mload(0x40)\n      dup2\n      0xffffffff\n      and\n      0xe0\n      shl\n      dup2\n      mstore\n      0x04\n      add\n      0x20\n      mload(0x40)\n      dup1\n      dup4\n      sub\n      dup2\n      dup7\n      gas\n      staticcall\n      iszero\n      dup1\n      iszero\n      tag_116\n      jumpi\n      returndatasize\n      0x00\n      dup1\n      returndatacopy\n      revert(0x00, returndatasize)\n    tag_116:\n      pop\n      pop\n      pop\n      pop\n      mload(0x40)\n      returndatasize\n      not(0x1f)\n      0x1f\n      dup3\n      add\n      and\n      dup3\n      add\n      dup1\n      0x40\n      mstore\n      pop\n      dup2\n      add\n      swap1\n      tag_117\n      swap2\n      swap1\n      tag_49\n      jump\t// in\n    tag_117:\n        /* \"contracts/Corporation/Employees.sol\":2273:2300  pt.GetOwner() != msg.sender */\n      0xffffffffffffffffffffffffffffffffffffffff\n      and\n      eq\n        /* \"contracts/Corporation/Employees.sol\":2270:2335  if(pt.GetOwner() != msg.sender)... */\n      tag_118\n      jumpi\n        /* \"contracts/Corporation/Employees.sol\":2315:2335  revert(\"Owner only\") */\n      mload(0x40)\n      0x08c379a000000000000000000000000000000000000000000000000000000000\n      dup2\n      mstore\n        /* \"#utility.yul\":8613:8615   */\n      0x20\n        /* \"contracts/Corporation/Employees.sol\":2315:2335  revert(\"Owner only\") */\n      0x04\n      dup3\n      add\n        /* \"#utility.yul\":8595:8616   */\n      mstore\n        /* \"#utility.yul\":8652:8654   */\n      0x0a\n        /* \"#utility.yul\":8632:8650   */\n      0x24\n      dup3\n      add\n        /* \"#utility.yul\":8625:8655   */\n      mstore\n        /* \"#utility.yul\":8691:8703   */\n      0x4f776e6572206f6e6c7900000000000000000000000000000000000000000000\n        /* \"#utility.yul\":8671:8689   */\n      0x44\n      dup3\n      add\n        /* \"#utility.yul\":8664:8704   */\n      mstore\n        /* \"#utility.yul\":8721:8739   */\n      0x64\n      add\n        /* \"contracts/Corporation/Employees.sol\":2315:2335  revert(\"Owner only\") */\n      tag_42\n        /* \"#utility.yul\":8411:8745   */\n      jump\n        /* \"contracts/Corporation/Employees.sol\":2270:2335  if(pt.GetOwner() != msg.sender)... */\n    tag_118:\n        /* \"contracts/Corporation/Employees.sol\":4395:4415  employees[_employee] */\n      0xffffffffffffffffffffffffffffffffffffffff\n      dup4\n      and\n        /* \"contracts/Corporation/Employees.sol\":4367:4392  Employee storage employee */\n      0x00\n        /* \"contracts/Corporation/Employees.sol\":4395:4415  employees[_employee] */\n      swap1\n      dup2\n      mstore\n        /* \"contracts/Corporation/Employees.sol\":4395:4404  employees */\n      0x01\n        /* \"contracts/Corporation/Employees.sol\":4395:4415  employees[_employee] */\n      0x20\n      dup2\n      swap1\n      mstore\n      0x40\n      swap1\n      swap2\n      keccak256\n        /* \"contracts/Corporation/Employees.sol\":4431:4446  employee.status */\n      dup1\n      sload\n        /* \"contracts/Corporation/Employees.sol\":4395:4415  employees[_employee] */\n      swap1\n      swap2\n        /* \"contracts/Corporation/Employees.sol\":4431:4446  employee.status */\n      0xff\n      swap1\n      swap2\n      and\n        /* \"contracts/Corporation/Employees.sol\":4431:4454  employee.status == true */\n      iszero\n      iszero\n      swap1\n      sub\n        /* \"contracts/Corporation/Employees.sol\":4428:4496  if(employee.status == true)... */\n      tag_121\n      jumpi\n        /* \"contracts/Corporation/Employees.sol\":4469:4496  revert(\"Already employeed\") */\n      mload(0x40)\n      0x08c379a000000000000000000000000000000000000000000000000000000000\n      dup2\n      mstore\n        /* \"#utility.yul\":9296:9298   */\n      0x20\n        /* \"contracts/Corporation/Employees.sol\":4469:4496  revert(\"Already employeed\") */\n      0x04\n      dup3\n      add\n        /* \"#utility.yul\":9278:9299   */\n      mstore\n        /* \"#utility.yul\":9335:9337   */\n      0x11\n        /* \"#utility.yul\":9315:9333   */\n      0x24\n      dup3\n      add\n        /* \"#utility.yul\":9308:9338   */\n      mstore\n        /* \"#utility.yul\":9374:9393   */\n      0x416c726561647920656d706c6f79656564000000000000000000000000000000\n        /* \"#utility.yul\":9354:9372   */\n      0x44\n      dup3\n      add\n        /* \"#utility.yul\":9347:9394   */\n      mstore\n        /* \"#utility.yul\":9411:9429   */\n      0x64\n      add\n        /* \"contracts/Corporation/Employees.sol\":4469:4496  revert(\"Already employeed\") */\n      tag_42\n        /* \"#utility.yul\":9094:9435   */\n      jump\n        /* \"contracts/Corporation/Employees.sol\":4428:4496  if(employee.status == true)... */\n    tag_121:\n        /* \"contracts/Corporation/Employees.sol\":4512:4522  _dailyWage */\n      dup3\n        /* \"contracts/Corporation/Employees.sol\":4512:4527  _dailyWage == 0 */\n      0xffff\n      and\n        /* \"contracts/Corporation/Employees.sol\":4526:4527  0 */\n      0x00\n        /* \"contracts/Corporation/Employees.sol\":4512:4527  _dailyWage == 0 */\n      sub\n        /* \"contracts/Corporation/Employees.sol\":4509:4561  if(_dailyWage == 0)... */\n      tag_124\n      jumpi\n        /* \"contracts/Corporation/Employees.sol\":4542:4561  revert(\"Zero wage\") */\n      mload(0x40)\n      0x08c379a000000000000000000000000000000000000000000000000000000000\n      dup2\n      mstore\n        /* \"#utility.yul\":9642:9644   */\n      0x20\n        /* \"contracts/Corporation/Employees.sol\":4542:4561  revert(\"Zero wage\") */\n      0x04\n      dup3\n      add\n        /* \"#utility.yul\":9624:9645   */\n      mstore\n        /* \"#utility.yul\":9681:9682   */\n      0x09\n        /* \"#utility.yul\":9661:9679   */\n      0x24\n      dup3\n      add\n        /* \"#utility.yul\":9654:9683   */\n      mstore\n        /* \"#utility.yul\":9719:9730   */\n      0x5a65726f20776167650000000000000000000000000000000000000000000000\n        /* \"#utility.yul\":9699:9717   */\n      0x44\n      dup3\n      add\n        /* \"#utility.yul\":9692:9731   */\n      mstore\n        /* \"#utility.yul\":9748:9766   */\n      0x64\n      add\n        /* \"contracts/Corporation/Employees.sol\":4542:4561  revert(\"Zero wage\") */\n      tag_42\n        /* \"#utility.yul\":9440:9772   */\n      jump\n        /* \"contracts/Corporation/Employees.sol\":4509:4561  if(_dailyWage == 0)... */\n    tag_124:\n        /* \"contracts/Corporation/Employees.sol\":4574:4605  employee.dailyWage = _dailyWage */\n      dup1\n      sload\n        /* \"contracts/Corporation/Employees.sol\":4673:4695  employee.status = true */\n      0xffffffffffffffffffffffffffffffffffffffffffffffffffffffffffffff00\n        /* \"contracts/Corporation/Employees.sol\":4616:4662  employee.lastPayment = uint32(block.timestamp) */\n      0xffffffff\n        /* \"contracts/Corporation/Employees.sol\":4646:4661  block.timestamp */\n      timestamp\n        /* \"contracts/Corporation/Employees.sol\":4616:4662  employee.lastPayment = uint32(block.timestamp) */\n      and\n      0x01000000\n      mul\n      0xffffffffffffffffffffffffffffffffffffffffffffffffff00000000ffffff\n        /* \"contracts/Corporation/Employees.sol\":4574:4605  employee.dailyWage = _dailyWage */\n      0xffff\n      dup8\n      and\n      0x0100\n      dup2\n      mul\n        /* \"contracts/Corporation/Employees.sol\":4616:4662  employee.lastPayment = uint32(block.timestamp) */\n      swap2\n      swap1\n      swap2\n      and\n      0xffffffffffffffffffffffffffffffffffffffffffffffffff000000000000ff\n      swap1\n      swap5\n      and\n      swap4\n      swap1\n      swap4\n      or\n      or\n        /* \"contracts/Corporation/Employees.sol\":4673:4695  employee.status = true */\n      and\n        /* \"contracts/Corporation/Employees.sol\":4574:4592  employee.dailyWage */\n      0x01\n        /* \"contracts/Corporation/Employees.sol\":4673:4695  employee.status = true */\n      or\n      dup3\n      sstore\n        /* \"contracts/Corporation/Employees.sol\":4713:4753  EmployeeAddition(_employee,  _dailyWage) */\n      mload(0x40)\n        /* \"#utility.yul\":9922:9960   */\n      swap1\n      dup2\n      mstore\n        /* \"contracts/Corporation/Employees.sol\":4713:4753  EmployeeAddition(_employee,  _dailyWage) */\n      0xffffffffffffffffffffffffffffffffffffffff\n      dup6\n      and\n      swap1\n      0xcce11e3d6f477d5366660c25bc52487e09546e4f633512a0b70afe53cad75888\n      swap1\n        /* \"#utility.yul\":9910:9912   */\n      0x20\n        /* \"#utility.yul\":9895:9913   */\n      add\n        /* \"contracts/Corporation/Employees.sol\":4713:4753  EmployeeAddition(_employee,  _dailyWage) */\n    tag_127:\n      mload(0x40)\n      dup1\n      swap2\n      sub\n      swap1\n      log2\n        /* \"contracts/Corporation/Employees.sol\":4771:4775  true */\n      0x01\n        /* \"contracts/Corporation/Employees.sol\":4764:4775  return true */\n      swap2\n      pop\n      pop\n        /* \"contracts/Corporation/Employees.sol\":2348:2349  _ */\n    tag_120:\n        /* \"contracts/Corporation/Employees.sol\":4265:4783  function AddEmployee(address _employee, uint16 _dailyWage) public ownerOnly returns(bool){... */\n      swap3\n      swap2\n      pop\n      pop\n      jump\t// out\n        /* \"contracts/Corporation/Employees.sol\":4791:5217  function UpdateEmployee(address _employee, uint16 _dailyWage) public ownerOnly returns(bool){... */\n    tag_38:\n        /* \"contracts/Corporation/Employees.sol\":4878:4882  bool */\n      0x00\n        /* \"contracts/Corporation/Employees.sol\":2290:2300  msg.sender */\n      caller\n        /* \"contracts/Corporation/Employees.sol\":2273:2300  pt.GetOwner() != msg.sender */\n      0xffffffffffffffffffffffffffffffffffffffff\n      and\n        /* \"contracts/Corporation/Employees.sol\":1327:1369  0x72ec1287FF5BB960fd54Ac2AdAE99145153C561F */\n      0x72ec1287ff5bb960fd54ac2adae99145153c561f\n        /* \"contracts/Corporation/Employees.sol\":2273:2284  pt.GetOwner */\n      0xffffffffffffffffffffffffffffffffffffffff\n      and\n      0x0ae50a39\n        /* \"contracts/Corporation/Employees.sol\":2273:2286  pt.GetOwner() */\n      mload(0x40)\n      dup2\n      0xffffffff\n      and\n      0xe0\n      shl\n      dup2\n      mstore\n      0x04\n      add\n      0x20\n      mload(0x40)\n      dup1\n      dup4\n      sub\n      dup2\n      dup7\n      gas\n      staticcall\n      iszero\n      dup1\n      iszero\n      tag_131\n      jumpi\n      returndatasize\n      0x00\n      dup1\n      returndatacopy\n      revert(0x00, returndatasize)\n    tag_131:\n      pop\n      pop\n      pop\n      pop\n      mload(0x40)\n      returndatasize\n      not(0x1f)\n      0x1f\n      dup3\n      add\n      and\n      dup3\n      add\n      dup1\n      0x40\n      mstore\n      pop\n      dup2\n      add\n      swap1\n      tag_132\n      swap2\n      swap1\n      tag_49\n      jump\t// in\n    tag_132:\n        /* \"contracts/Corporation/Employees.sol\":2273:2300  pt.GetOwner() != msg.sender */\n      0xffffffffffffffffffffffffffffffffffffffff\n      and\n      eq\n        /* \"contracts/Corporation/Employees.sol\":2270:2335  if(pt.GetOwner() != msg.sender)... */\n      tag_133\n      jumpi\n        /* \"contracts/Corporation/Employees.sol\":2315:2335  revert(\"Owner only\") */\n      mload(0x40)\n      0x08c379a000000000000000000000000000000000000000000000000000000000\n      dup2\n      mstore\n        /* \"#utility.yul\":8613:8615   */\n      0x20\n        /* \"contracts/Corporation/Employees.sol\":2315:2335  revert(\"Owner only\") */\n      0x04\n      dup3\n      add\n        /* \"#utility.yul\":8595:8616   */\n      mstore\n        /* \"#utility.yul\":8652:8654   */\n      0x0a\n        /* \"#utility.yul\":8632:8650   */\n      0x24\n      dup3\n      add\n        /* \"#utility.yul\":8625:8655   */\n      mstore\n        /* \"#utility.yul\":8691:8703   */\n      0x4f776e6572206f6e6c7900000000000000000000000000000000000000000000\n        /* \"#utility.yul\":8671:8689   */\n      0x44\n      dup3\n      add\n        /* \"#utility.yul\":8664:8704   */\n      mstore\n        /* \"#utility.yul\":8721:8739   */\n      0x64\n      add\n        /* \"contracts/Corporation/Employees.sol\":2315:2335  revert(\"Owner only\") */\n      tag_42\n        /* \"#utility.yul\":8411:8745   */\n      jump\n        /* \"contracts/Corporation/Employees.sol\":2270:2335  if(pt.GetOwner() != msg.sender)... */\n    tag_133:\n        /* \"contracts/Corporation/Employees.sol\":4924:4944  employees[_employee] */\n      0xffffffffffffffffffffffffffffffffffffffff\n      dup4\n      and\n        /* \"contracts/Corporation/Employees.sol\":4896:4921  Employee storage employee */\n      0x00\n        /* \"contracts/Corporation/Employees.sol\":4924:4944  employees[_employee] */\n      swap1\n      dup2\n      mstore\n        /* \"contracts/Corporation/Employees.sol\":4924:4933  employees */\n      0x01\n        /* \"contracts/Corporation/Employees.sol\":4924:4944  employees[_employee] */\n      0x20\n      dup2\n      swap1\n      mstore\n      0x40\n      swap1\n      swap2\n      keccak256\n        /* \"contracts/Corporation/Employees.sol\":4960:4975  employee.status */\n      dup1\n      sload\n        /* \"contracts/Corporation/Employees.sol\":4924:4944  employees[_employee] */\n      swap1\n      swap2\n        /* \"contracts/Corporation/Employees.sol\":4960:4975  employee.status */\n      0xff\n      swap1\n      swap2\n      and\n        /* \"contracts/Corporation/Employees.sol\":4960:4983  employee.status != true */\n      iszero\n      iszero\n      eq\n        /* \"contracts/Corporation/Employees.sol\":4957:5023  if(employee.status != true)... */\n      tag_136\n      jumpi\n        /* \"contracts/Corporation/Employees.sol\":4998:5023  revert(\"Not an employee\") */\n      mload(0x40)\n      0x08c379a000000000000000000000000000000000000000000000000000000000\n      dup2\n      mstore\n        /* \"#utility.yul\":8952:8954   */\n      0x20\n        /* \"contracts/Corporation/Employees.sol\":4998:5023  revert(\"Not an employee\") */\n      0x04\n      dup3\n      add\n        /* \"#utility.yul\":8934:8955   */\n      mstore\n        /* \"#utility.yul\":8991:8993   */\n      0x0f\n        /* \"#utility.yul\":8971:8989   */\n      0x24\n      dup3\n      add\n        /* \"#utility.yul\":8964:8994   */\n      mstore\n        /* \"#utility.yul\":9030:9047   */\n      0x4e6f7420616e20656d706c6f7965650000000000000000000000000000000000\n        /* \"#utility.yul\":9010:9028   */\n      0x44\n      dup3\n      add\n        /* \"#utility.yul\":9003:9048   */\n      mstore\n        /* \"#utility.yul\":9065:9083   */\n      0x64\n      add\n        /* \"contracts/Corporation/Employees.sol\":4998:5023  revert(\"Not an employee\") */\n      tag_42\n        /* \"#utility.yul\":8750:9089   */\n      jump\n        /* \"contracts/Corporation/Employees.sol\":4957:5023  if(employee.status != true)... */\n    tag_136:\n        /* \"contracts/Corporation/Employees.sol\":5039:5049  _dailyWage */\n      dup3\n        /* \"contracts/Corporation/Employees.sol\":5039:5054  _dailyWage == 0 */\n      0xffff\n      and\n        /* \"contracts/Corporation/Employees.sol\":5053:5054  0 */\n      0x00\n        /* \"contracts/Corporation/Employees.sol\":5039:5054  _dailyWage == 0 */\n      sub\n        /* \"contracts/Corporation/Employees.sol\":5036:5088  if(_dailyWage == 0)... */\n      tag_138\n      jumpi\n        /* \"contracts/Corporation/Employees.sol\":5069:5088  revert(\"Zero wage\") */\n      mload(0x40)\n      0x08c379a000000000000000000000000000000000000000000000000000000000\n      dup2\n      mstore\n        /* \"#utility.yul\":9642:9644   */\n      0x20\n        /* \"contracts/Corporation/Employees.sol\":5069:5088  revert(\"Zero wage\") */\n      0x04\n      dup3\n      add\n        /* \"#utility.yul\":9624:9645   */\n      mstore\n        /* \"#utility.yul\":9681:9682   */\n      0x09\n        /* \"#utility.yul\":9661:9679   */\n      0x24\n      dup3\n      add\n        /* \"#utility.yul\":9654:9683   */\n      mstore\n        /* \"#utility.yul\":9719:9730   */\n      0x5a65726f20776167650000000000000000000000000000000000000000000000\n        /* \"#utility.yul\":9699:9717   */\n      0x44\n      dup3\n      add\n        /* \"#utility.yul\":9692:9731   */\n      mstore\n        /* \"#utility.yul\":9748:9766   */\n      0x64\n      add\n        /* \"contracts/Corporation/Employees.sol\":5069:5088  revert(\"Zero wage\") */\n      tag_42\n        /* \"#utility.yul\":9440:9772   */\n      jump\n        /* \"contracts/Corporation/Employees.sol\":5036:5088  if(_dailyWage == 0)... */\n    tag_138:\n        /* \"contracts/Corporation/Employees.sol\":5101:5132  employee.dailyWage = _dailyWage */\n      dup1\n      sload\n      0xffffffffffffffffffffffffffffffffffffffffffffffffffffffffff0000ff\n      and\n      0x0100\n      0xffff\n      dup6\n      and\n      swap1\n      dup2\n      mul\n      swap2\n      swap1\n      swap2\n      or\n      dup3\n      sstore\n        /* \"contracts/Corporation/Employees.sol\":5150:5187  EmployeeUpdate(_employee, _dailyWage) */\n      mload(0x40)\n        /* \"#utility.yul\":9922:9960   */\n      swap1\n      dup2\n      mstore\n        /* \"contracts/Corporation/Employees.sol\":5150:5187  EmployeeUpdate(_employee, _dailyWage) */\n      0xffffffffffffffffffffffffffffffffffffffff\n      dup6\n      and\n      swap1\n      0xf1b941e2361086e5213d894077d063bf4e875acdd8259232c63f368648d62ce1\n      swap1\n        /* \"#utility.yul\":9910:9912   */\n      0x20\n        /* \"#utility.yul\":9895:9913   */\n      add\n        /* \"contracts/Corporation/Employees.sol\":5150:5187  EmployeeUpdate(_employee, _dailyWage) */\n      tag_127\n        /* \"#utility.yul\":9777:9966   */\n      jump\n        /* \"#utility.yul\":206:360   */\n    tag_141:\n        /* \"#utility.yul\":292:334   */\n      0xffffffffffffffffffffffffffffffffffffffff\n        /* \"#utility.yul\":285:290   */\n      dup2\n        /* \"#utility.yul\":281:335   */\n      and\n        /* \"#utility.yul\":274:279   */\n      dup2\n        /* \"#utility.yul\":271:336   */\n      eq\n        /* \"#utility.yul\":261:354   */\n      tag_150\n      jumpi\n        /* \"#utility.yul\":350:351   */\n      0x00\n        /* \"#utility.yul\":347:348   */\n      dup1\n        /* \"#utility.yul\":340:352   */\n      revert\n        /* \"#utility.yul\":261:354   */\n    tag_150:\n        /* \"#utility.yul\":206:360   */\n      pop\n      jump\t// out\n        /* \"#utility.yul\":365:612   */\n    tag_21:\n        /* \"#utility.yul\":424:430   */\n      0x00\n        /* \"#utility.yul\":477:479   */\n      0x20\n        /* \"#utility.yul\":465:474   */\n      dup3\n        /* \"#utility.yul\":456:463   */\n      dup5\n        /* \"#utility.yul\":452:475   */\n      sub\n        /* \"#utility.yul\":448:480   */\n      slt\n        /* \"#utility.yul\":445:497   */\n      iszero\n      tag_152\n      jumpi\n        /* \"#utility.yul\":493:494   */\n      0x00\n        /* \"#utility.yul\":490:491   */\n      dup1\n        /* \"#utility.yul\":483:495   */\n      revert\n        /* \"#utility.yul\":445:497   */\n    tag_152:\n        /* \"#utility.yul\":532:541   */\n      dup2\n        /* \"#utility.yul\":519:542   */\n      calldataload\n        /* \"#utility.yul\":551:582   */\n      tag_153\n        /* \"#utility.yul\":576:581   */\n      dup2\n        /* \"#utility.yul\":551:582   */\n      tag_141\n      jump\t// in\n    tag_153:\n        /* \"#utility.yul\":601:606   */\n      swap4\n        /* \"#utility.yul\":365:612   */\n      swap3\n      pop\n      pop\n      pop\n      jump\t// out\n        /* \"#utility.yul\":617:1032   */\n    tag_27:\n        /* \"#utility.yul\":684:690   */\n      0x00\n        /* \"#utility.yul\":692:698   */\n      dup1\n        /* \"#utility.yul\":745:747   */\n      0x40\n        /* \"#utility.yul\":733:742   */\n      dup4\n        /* \"#utility.yul\":724:731   */\n      dup6\n        /* \"#utility.yul\":720:743   */\n      sub\n        /* \"#utility.yul\":716:748   */\n      slt\n        /* \"#utility.yul\":713:765   */\n      iszero\n      tag_155\n      jumpi\n        /* \"#utility.yul\":761:762   */\n      0x00\n        /* \"#utility.yul\":758:759   */\n      dup1\n        /* \"#utility.yul\":751:763   */\n      revert\n        /* \"#utility.yul\":713:765   */\n    tag_155:\n        /* \"#utility.yul\":800:809   */\n      dup3\n        /* \"#utility.yul\":787:810   */\n      calldataload\n        /* \"#utility.yul\":819:850   */\n      tag_156\n        /* \"#utility.yul\":844:849   */\n      dup2\n        /* \"#utility.yul\":819:850   */\n      tag_141\n      jump\t// in\n    tag_156:\n        /* \"#utility.yul\":869:874   */\n      swap2\n      pop\n        /* \"#utility.yul\":926:928   */\n      0x20\n        /* \"#utility.yul\":911:929   */\n      dup4\n      add\n        /* \"#utility.yul\":898:930   */\n      calldataload\n        /* \"#utility.yul\":974:980   */\n      0xffff\n        /* \"#utility.yul\":961:981   */\n      dup2\n      and\n        /* \"#utility.yul\":949:982   */\n      dup2\n      eq\n        /* \"#utility.yul\":939:1000   */\n      tag_157\n      jumpi\n        /* \"#utility.yul\":996:997   */\n      0x00\n        /* \"#utility.yul\":993:994   */\n      dup1\n        /* \"#utility.yul\":986:998   */\n      revert\n        /* \"#utility.yul\":939:1000   */\n    tag_157:\n        /* \"#utility.yul\":1019:1026   */\n      dup1\n        /* \"#utility.yul\":1009:1026   */\n      swap2\n      pop\n      pop\n        /* \"#utility.yul\":617:1032   */\n      swap3\n      pop\n      swap3\n      swap1\n      pop\n      jump\t// out\n        /* \"#utility.yul\":1037:1644   */\n    tag_34:\n        /* \"#utility.yul\":1149:1153   */\n      0x00\n        /* \"#utility.yul\":1178:1180   */\n      0x20\n        /* \"#utility.yul\":1207:1209   */\n      dup1\n        /* \"#utility.yul\":1196:1205   */\n      dup4\n        /* \"#utility.yul\":1189:1210   */\n      mstore\n        /* \"#utility.yul\":1239:1245   */\n      dup4\n        /* \"#utility.yul\":1233:1246   */\n      mload\n        /* \"#utility.yul\":1282:1288   */\n      dup1\n        /* \"#utility.yul\":1277:1279   */\n      dup3\n        /* \"#utility.yul\":1266:1275   */\n      dup6\n        /* \"#utility.yul\":1262:1280   */\n      add\n        /* \"#utility.yul\":1255:1289   */\n      mstore\n        /* \"#utility.yul\":1307:1308   */\n      0x00\n        /* \"#utility.yul\":1317:1457   */\n    tag_159:\n        /* \"#utility.yul\":1331:1337   */\n      dup2\n        /* \"#utility.yul\":1328:1329   */\n      dup2\n        /* \"#utility.yul\":1325:1338   */\n      lt\n        /* \"#utility.yul\":1317:1457   */\n      iszero\n      tag_161\n      jumpi\n        /* \"#utility.yul\":1426:1440   */\n      dup6\n      dup2\n      add\n        /* \"#utility.yul\":1422:1445   */\n      dup4\n      add\n        /* \"#utility.yul\":1416:1446   */\n      mload\n        /* \"#utility.yul\":1392:1409   */\n      dup6\n      dup3\n      add\n        /* \"#utility.yul\":1411:1413   */\n      0x40\n        /* \"#utility.yul\":1388:1414   */\n      add\n        /* \"#utility.yul\":1381:1447   */\n      mstore\n        /* \"#utility.yul\":1346:1356   */\n      dup3\n      add\n        /* \"#utility.yul\":1317:1457   */\n      jump(tag_159)\n    tag_161:\n        /* \"#utility.yul\":1321:1324   */\n      pop\n        /* \"#utility.yul\":1506:1507   */\n      0x00\n        /* \"#utility.yul\":1501:1503   */\n      0x40\n        /* \"#utility.yul\":1492:1498   */\n      dup3\n        /* \"#utility.yul\":1481:1490   */\n      dup7\n        /* \"#utility.yul\":1477:1499   */\n      add\n        /* \"#utility.yul\":1473:1504   */\n      add\n        /* \"#utility.yul\":1466:1508   */\n      mstore\n        /* \"#utility.yul\":1635:1637   */\n      0x40\n        /* \"#utility.yul\":1565:1631   */\n      0xffffffffffffffffffffffffffffffffffffffffffffffffffffffffffffffe0\n        /* \"#utility.yul\":1560:1562   */\n      0x1f\n        /* \"#utility.yul\":1552:1558   */\n      dup4\n        /* \"#utility.yul\":1548:1563   */\n      add\n        /* \"#utility.yul\":1544:1632   */\n      and\n        /* \"#utility.yul\":1533:1542   */\n      dup6\n        /* \"#utility.yul\":1529:1633   */\n      add\n        /* \"#utility.yul\":1525:1638   */\n      add\n        /* \"#utility.yul\":1517:1638   */\n      swap3\n      pop\n      pop\n      pop\n        /* \"#utility.yul\":1037:1644   */\n      swap3\n      swap2\n      pop\n      pop\n      jump\t// out\n        /* \"#utility.yul\":2343:2594   */\n    tag_49:\n        /* \"#utility.yul\":2413:2419   */\n      0x00\n        /* \"#utility.yul\":2466:2468   */\n      0x20\n        /* \"#utility.yul\":2454:2463   */\n      dup3\n        /* \"#utility.yul\":2445:2452   */\n      dup5\n        /* \"#utility.yul\":2441:2464   */\n      sub\n        /* \"#utility.yul\":2437:2469   */\n      slt\n        /* \"#utility.yul\":2434:2486   */\n      iszero\n      tag_165\n      jumpi\n        /* \"#utility.yul\":2482:2483   */\n      0x00\n        /* \"#utility.yul\":2479:2480   */\n      dup1\n        /* \"#utility.yul\":2472:2484   */\n      revert\n        /* \"#utility.yul\":2434:2486   */\n    tag_165:\n        /* \"#utility.yul\":2514:2523   */\n      dup2\n        /* \"#utility.yul\":2508:2524   */\n      mload\n        /* \"#utility.yul\":2533:2564   */\n      tag_153\n        /* \"#utility.yul\":2558:2563   */\n      dup2\n        /* \"#utility.yul\":2533:2564   */\n      tag_141\n      jump\t// in\n        /* \"#utility.yul\":3288:3452   */\n    tag_142:\n        /* \"#utility.yul\":3364:3377   */\n      dup1\n      mload\n        /* \"#utility.yul\":3413:3426   */\n      dup1\n      iszero\n        /* \"#utility.yul\":3406:3427   */\n      iszero\n        /* \"#utility.yul\":3396:3428   */\n      dup2\n      eq\n        /* \"#utility.yul\":3386:3446   */\n      tag_110\n      jumpi\n        /* \"#utility.yul\":3442:3443   */\n      0x00\n        /* \"#utility.yul\":3439:3440   */\n      dup1\n        /* \"#utility.yul\":3432:3444   */\n      revert\n        /* \"#utility.yul\":3457:3809   */\n    tag_61:\n        /* \"#utility.yul\":3531:3537   */\n      0x00\n        /* \"#utility.yul\":3539:3545   */\n      dup1\n        /* \"#utility.yul\":3592:3594   */\n      0x40\n        /* \"#utility.yul\":3580:3589   */\n      dup4\n        /* \"#utility.yul\":3571:3578   */\n      dup6\n        /* \"#utility.yul\":3567:3590   */\n      sub\n        /* \"#utility.yul\":3563:3595   */\n      slt\n        /* \"#utility.yul\":3560:3612   */\n      iszero\n      tag_172\n      jumpi\n        /* \"#utility.yul\":3608:3609   */\n      0x00\n        /* \"#utility.yul\":3605:3606   */\n      dup1\n        /* \"#utility.yul\":3598:3610   */\n      revert\n        /* \"#utility.yul\":3560:3612   */\n    tag_172:\n        /* \"#utility.yul\":3640:3649   */\n      dup3\n        /* \"#utility.yul\":3634:3650   */\n      mload\n        /* \"#utility.yul\":3690:3694   */\n      0xff\n        /* \"#utility.yul\":3683:3688   */\n      dup2\n        /* \"#utility.yul\":3679:3695   */\n      and\n        /* \"#utility.yul\":3672:3677   */\n      dup2\n        /* \"#utility.yul\":3669:3696   */\n      eq\n        /* \"#utility.yul\":3659:3714   */\n      tag_173\n      jumpi\n        /* \"#utility.yul\":3710:3711   */\n      0x00\n        /* \"#utility.yul\":3707:3708   */\n      dup1\n        /* \"#utility.yul\":3700:3712   */\n      revert\n        /* \"#utility.yul\":3659:3714   */\n    tag_173:\n        /* \"#utility.yul\":3733:3738   */\n      swap2\n      pop\n        /* \"#utility.yul\":3757:3803   */\n      tag_174\n        /* \"#utility.yul\":3799:3801   */\n      0x20\n        /* \"#utility.yul\":3784:3802   */\n      dup5\n      add\n        /* \"#utility.yul\":3757:3803   */\n      tag_142\n      jump\t// in\n    tag_174:\n        /* \"#utility.yul\":3747:3803   */\n      swap1\n      pop\n        /* \"#utility.yul\":3457:3809   */\n      swap3\n      pop\n      swap3\n      swap1\n      pop\n      jump\t// out\n        /* \"#utility.yul\":4161:4345   */\n    tag_68:\n        /* \"#utility.yul\":4231:4237   */\n      0x00\n        /* \"#utility.yul\":4284:4286   */\n      0x20\n        /* \"#utility.yul\":4272:4281   */\n      dup3\n        /* \"#utility.yul\":4263:4270   */\n      dup5\n        /* \"#utility.yul\":4259:4282   */\n      sub\n        /* \"#utility.yul\":4255:4287   */\n      slt\n        /* \"#utility.yul\":4252:4304   */\n      iszero\n      tag_177\n      jumpi\n        /* \"#utility.yul\":4300:4301   */\n      0x00\n        /* \"#utility.yul\":4297:4298   */\n      dup1\n        /* \"#utility.yul\":4290:4302   */\n      revert\n        /* \"#utility.yul\":4252:4304   */\n    tag_177:\n      pop\n        /* \"#utility.yul\":4323:4339   */\n      mload\n      swap2\n        /* \"#utility.yul\":4161:4345   */\n      swap1\n      pop\n      jump\t// out\n        /* \"#utility.yul\":4695:4879   */\n    tag_143:\n        /* \"#utility.yul\":4747:4824   */\n      0x4e487b7100000000000000000000000000000000000000000000000000000000\n        /* \"#utility.yul\":4744:4745   */\n      0x00\n        /* \"#utility.yul\":4737:4825   */\n      mstore\n        /* \"#utility.yul\":4844:4848   */\n      0x11\n        /* \"#utility.yul\":4841:4842   */\n      0x04\n        /* \"#utility.yul\":4834:4849   */\n      mstore\n        /* \"#utility.yul\":4868:4872   */\n      0x24\n        /* \"#utility.yul\":4865:4866   */\n      0x00\n        /* \"#utility.yul\":4858:4873   */\n      revert\n        /* \"#utility.yul\":4884:5012   */\n    tag_73:\n        /* \"#utility.yul\":4951:4960   */\n      dup2\n      dup2\n      sub\n        /* \"#utility.yul\":4972:4983   */\n      dup2\n      dup2\n      gt\n        /* \"#utility.yul\":4969:5006   */\n      iszero\n      tag_120\n      jumpi\n        /* \"#utility.yul\":4986:5004   */\n      tag_120\n      tag_143\n      jump\t// in\n        /* \"#utility.yul\":5017:5201   */\n    tag_144:\n        /* \"#utility.yul\":5069:5146   */\n      0x4e487b7100000000000000000000000000000000000000000000000000000000\n        /* \"#utility.yul\":5066:5067   */\n      0x00\n        /* \"#utility.yul\":5059:5147   */\n      mstore\n        /* \"#utility.yul\":5166:5170   */\n      0x12\n        /* \"#utility.yul\":5163:5164   */\n      0x04\n        /* \"#utility.yul\":5156:5171   */\n      mstore\n        /* \"#utility.yul\":5190:5194   */\n      0x24\n        /* \"#utility.yul\":5187:5188   */\n      0x00\n        /* \"#utility.yul\":5180:5195   */\n      revert\n        /* \"#utility.yul\":5206:5326   */\n    tag_75:\n        /* \"#utility.yul\":5246:5247   */\n      0x00\n        /* \"#utility.yul\":5272:5273   */\n      dup3\n        /* \"#utility.yul\":5262:5297   */\n      tag_186\n      jumpi\n        /* \"#utility.yul\":5277:5295   */\n      tag_186\n      tag_144\n      jump\t// in\n    tag_186:\n      pop\n        /* \"#utility.yul\":5311:5320   */\n      div\n      swap1\n        /* \"#utility.yul\":5206:5326   */\n      jump\t// out\n        /* \"#utility.yul\":5331:5443   */\n    tag_78:\n        /* \"#utility.yul\":5363:5364   */\n      0x00\n        /* \"#utility.yul\":5389:5390   */\n      dup3\n        /* \"#utility.yul\":5379:5414   */\n      tag_189\n      jumpi\n        /* \"#utility.yul\":5394:5412   */\n      tag_189\n      tag_144\n      jump\t// in\n    tag_189:\n      pop\n        /* \"#utility.yul\":5428:5437   */\n      mod\n      swap1\n        /* \"#utility.yul\":5331:5443   */\n      jump\t// out\n        /* \"#utility.yul\":5448:5930   */\n    tag_145:\n        /* \"#utility.yul\":5537:5538   */\n      0x01\n        /* \"#utility.yul\":5580:5585   */\n      dup2\n        /* \"#utility.yul\":5537:5538   */\n      dup2\n        /* \"#utility.yul\":5594:5924   */\n    tag_191:\n        /* \"#utility.yul\":5615:5622   */\n      dup1\n        /* \"#utility.yul\":5605:5613   */\n      dup6\n        /* \"#utility.yul\":5602:5623   */\n      gt\n        /* \"#utility.yul\":5594:5924   */\n      iszero\n      tag_193\n      jumpi\n        /* \"#utility.yul\":5734:5738   */\n      dup2\n        /* \"#utility.yul\":5666:5732   */\n      0xffffffffffffffffffffffffffffffffffffffffffffffffffffffffffffffff\n        /* \"#utility.yul\":5662:5739   */\n      div\n        /* \"#utility.yul\":5656:5660   */\n      dup3\n        /* \"#utility.yul\":5653:5740   */\n      gt\n        /* \"#utility.yul\":5650:5763   */\n      iszero\n      tag_195\n      jumpi\n        /* \"#utility.yul\":5743:5761   */\n      tag_195\n      tag_143\n      jump\t// in\n    tag_195:\n        /* \"#utility.yul\":5793:5800   */\n      dup1\n        /* \"#utility.yul\":5783:5791   */\n      dup6\n        /* \"#utility.yul\":5779:5801   */\n      and\n        /* \"#utility.yul\":5776:5831   */\n      iszero\n      tag_196\n      jumpi\n        /* \"#utility.yul\":5813:5829   */\n      swap2\n      dup2\n      mul\n      swap2\n        /* \"#utility.yul\":5776:5831   */\n    tag_196:\n        /* \"#utility.yul\":5892:5914   */\n      swap4\n      dup5\n      shr\n      swap4\n        /* \"#utility.yul\":5852:5867   */\n      swap1\n      dup1\n      mul\n      swap1\n        /* \"#utility.yul\":5594:5924   */\n      jump(tag_191)\n    tag_193:\n        /* \"#utility.yul\":5598:5601   */\n      pop\n        /* \"#utility.yul\":5448:5930   */\n      swap3\n      pop\n      swap3\n      swap1\n      pop\n      jump\t// out\n        /* \"#utility.yul\":5935:6801   */\n    tag_146:\n        /* \"#utility.yul\":5984:5989   */\n      0x00\n        /* \"#utility.yul\":6014:6022   */\n      dup3\n        /* \"#utility.yul\":6004:6084   */\n      tag_198\n      jumpi\n      pop\n        /* \"#utility.yul\":6055:6056   */\n      0x01\n        /* \"#utility.yul\":6069:6074   */\n      jump(tag_120)\n        /* \"#utility.yul\":6004:6084   */\n    tag_198:\n        /* \"#utility.yul\":6103:6107   */\n      dup2\n        /* \"#utility.yul\":6093:6169   */\n      tag_199\n      jumpi\n      pop\n        /* \"#utility.yul\":6140:6141   */\n      0x00\n        /* \"#utility.yul\":6154:6159   */\n      jump(tag_120)\n        /* \"#utility.yul\":6093:6169   */\n    tag_199:\n        /* \"#utility.yul\":6185:6189   */\n      dup2\n        /* \"#utility.yul\":6203:6204   */\n      0x01\n        /* \"#utility.yul\":6198:6257   */\n      dup2\n      eq\n      tag_201\n      jumpi\n        /* \"#utility.yul\":6271:6272   */\n      0x02\n        /* \"#utility.yul\":6266:6396   */\n      dup2\n      eq\n      tag_202\n      jumpi\n        /* \"#utility.yul\":6178:6396   */\n      jump(tag_200)\n        /* \"#utility.yul\":6198:6257   */\n    tag_201:\n        /* \"#utility.yul\":6228:6229   */\n      0x01\n        /* \"#utility.yul\":6219:6229   */\n      swap2\n      pop\n        /* \"#utility.yul\":6242:6247   */\n      pop\n      jump(tag_120)\n        /* \"#utility.yul\":6266:6396   */\n    tag_202:\n        /* \"#utility.yul\":6303:6306   */\n      0xff\n        /* \"#utility.yul\":6293:6301   */\n      dup5\n        /* \"#utility.yul\":6290:6307   */\n      gt\n        /* \"#utility.yul\":6287:6330   */\n      iszero\n      tag_204\n      jumpi\n        /* \"#utility.yul\":6310:6328   */\n      tag_204\n      tag_143\n      jump\t// in\n    tag_204:\n      pop\n      pop\n        /* \"#utility.yul\":6366:6367   */\n      0x01\n        /* \"#utility.yul\":6352:6368   */\n      dup3\n      shl\n        /* \"#utility.yul\":6381:6386   */\n      jump(tag_120)\n        /* \"#utility.yul\":6178:6396   */\n    tag_200:\n      pop\n        /* \"#utility.yul\":6480:6482   */\n      0x20\n        /* \"#utility.yul\":6470:6478   */\n      dup4\n        /* \"#utility.yul\":6467:6483   */\n      lt\n        /* \"#utility.yul\":6461:6464   */\n      0x0133\n        /* \"#utility.yul\":6455:6459   */\n      dup4\n        /* \"#utility.yul\":6452:6465   */\n      lt\n        /* \"#utility.yul\":6448:6484   */\n      and\n        /* \"#utility.yul\":6442:6444   */\n      0x4e\n        /* \"#utility.yul\":6432:6440   */\n      dup5\n        /* \"#utility.yul\":6429:6445   */\n      lt\n        /* \"#utility.yul\":6424:6426   */\n      0x0b\n        /* \"#utility.yul\":6418:6422   */\n      dup5\n        /* \"#utility.yul\":6415:6427   */\n      lt\n        /* \"#utility.yul\":6411:6446   */\n      and\n        /* \"#utility.yul\":6408:6485   */\n      or\n        /* \"#utility.yul\":6405:6564   */\n      iszero\n      tag_205\n      jumpi\n      pop\n        /* \"#utility.yul\":6517:6536   */\n      dup2\n      dup2\n      exp\n        /* \"#utility.yul\":6549:6554   */\n      jump(tag_120)\n        /* \"#utility.yul\":6405:6564   */\n    tag_205:\n        /* \"#utility.yul\":6596:6630   */\n      tag_206\n        /* \"#utility.yul\":6621:6629   */\n      dup4\n        /* \"#utility.yul\":6615:6619   */\n      dup4\n        /* \"#utility.yul\":6596:6630   */\n      tag_145\n      jump\t// in\n    tag_206:\n        /* \"#utility.yul\":6726:6732   */\n      dup1\n        /* \"#utility.yul\":6658:6724   */\n      0xffffffffffffffffffffffffffffffffffffffffffffffffffffffffffffffff\n        /* \"#utility.yul\":6654:6733   */\n      div\n        /* \"#utility.yul\":6645:6652   */\n      dup3\n        /* \"#utility.yul\":6642:6734   */\n      gt\n        /* \"#utility.yul\":6639:6757   */\n      iszero\n      tag_208\n      jumpi\n        /* \"#utility.yul\":6737:6755   */\n      tag_208\n      tag_143\n      jump\t// in\n    tag_208:\n        /* \"#utility.yul\":6775:6795   */\n      mul\n      swap4\n        /* \"#utility.yul\":5935:6801   */\n      swap3\n      pop\n      pop\n      pop\n      jump\t// out\n        /* \"#utility.yul\":6806:6946   */\n    tag_80:\n        /* \"#utility.yul\":6864:6869   */\n      0x00\n        /* \"#utility.yul\":6893:6940   */\n      tag_153\n        /* \"#utility.yul\":6934:6938   */\n      0xff\n        /* \"#utility.yul\":6924:6932   */\n      dup5\n        /* \"#utility.yul\":6920:6939   */\n      and\n        /* \"#utility.yul\":6914:6918   */\n      dup4\n        /* \"#utility.yul\":6893:6940   */\n      tag_146\n      jump\t// in\n        /* \"#utility.yul\":6951:7200   */\n    tag_82:\n        /* \"#utility.yul\":7022:7032   */\n      0xffffffff\n        /* \"#utility.yul\":7064:7074   */\n      dup2\n      dup2\n      and\n        /* \"#utility.yul\":7076:7086   */\n      dup4\n      dup3\n      and\n        /* \"#utility.yul\":7060:7087   */\n      mul\n        /* \"#utility.yul\":7107:7127   */\n      dup1\n      dup3\n      and\n      swap2\n        /* \"#utility.yul\":7022:7032   */\n      swap1\n        /* \"#utility.yul\":7146:7170   */\n      dup3\n      dup2\n      eq\n        /* \"#utility.yul\":7136:7194   */\n      tag_213\n      jumpi\n        /* \"#utility.yul\":7174:7192   */\n      tag_213\n      tag_143\n      jump\t// in\n    tag_213:\n        /* \"#utility.yul\":7136:7194   */\n      pop\n      pop\n        /* \"#utility.yul\":6951:7200   */\n      swap3\n      swap2\n      pop\n      pop\n      jump\t// out\n        /* \"#utility.yul\":7205:7373   */\n    tag_84:\n        /* \"#utility.yul\":7278:7287   */\n      dup1\n      dup3\n      mul\n        /* \"#utility.yul\":7309:7318   */\n      dup2\n      iszero\n        /* \"#utility.yul\":7326:7341   */\n      dup3\n      dup3\n      div\n        /* \"#utility.yul\":7320:7342   */\n      dup5\n      eq\n        /* \"#utility.yul\":7306:7343   */\n      or\n        /* \"#utility.yul\":7296:7367   */\n      tag_120\n      jumpi\n        /* \"#utility.yul\":7347:7365   */\n      tag_120\n      tag_143\n      jump\t// in\n        /* \"#utility.yul\":7680:7882   */\n    tag_93:\n        /* \"#utility.yul\":7747:7753   */\n      0x00\n        /* \"#utility.yul\":7800:7802   */\n      0x20\n        /* \"#utility.yul\":7788:7797   */\n      dup3\n        /* \"#utility.yul\":7779:7786   */\n      dup5\n        /* \"#utility.yul\":7775:7798   */\n      sub\n        /* \"#utility.yul\":7771:7803   */\n      slt\n        /* \"#utility.yul\":7768:7820   */\n      iszero\n      tag_219\n      jumpi\n        /* \"#utility.yul\":7816:7817   */\n      0x00\n        /* \"#utility.yul\":7813:7814   */\n      dup1\n        /* \"#utility.yul\":7806:7818   */\n      revert\n        /* \"#utility.yul\":7768:7820   */\n    tag_219:\n        /* \"#utility.yul\":7839:7876   */\n      tag_153\n        /* \"#utility.yul\":7866:7875   */\n      dup3\n        /* \"#utility.yul\":7839:7876   */\n      tag_142\n      jump\t// in\n\n    auxdata: 0xa26469706673582212202443ca09ac8eeb350e4ed2cb4adb7d9d6ba5e993597bf18095a592b9a31330a164736f6c63430008120033\n}\n",
				"bytecode": {
					"linkReferences": {},
					"object": "60806040526000805460ff1916905534801561001a57600080fd5b506113dc8061002a6000396000f3fe6080604052600436106100585760003560e01c806366a320b51161004057806366a320b5146100ab5780638052474d146100cb578063e68a81c91461012157005b806304159a5a1461006157806352d6abdc1461008b57005b3661005f57005b005b34801561006d57600080fd5b50610076610141565b60405190151581526020015b60405180910390f35b34801561009757600080fd5b506100766100a6366004611033565b610843565b3480156100b757600080fd5b506100766100c6366004611057565b610a68565b3480156100d757600080fd5b506101146040518060400160405280601681526020017f2e436f72706f726174696f6e2e456d706c6f796565730000000000000000000081525081565b6040516100829190611097565b34801561012d57600080fd5b5061007661013c366004611057565b610d70565b6000805460ff16156101b4576040517f08c379a000000000000000000000000000000000000000000000000000000000815260206004820152601160248201527f5265656e7472616e6365206661696c656400000000000000000000000000000060448201526064015b60405180910390fd5b600080547fffffffffffffffffffffffffffffffffffffffffffffffffffffffffffffff001660011781556040517fc75ffd8600000000000000000000000000000000000000000000000000000000815260206004820152601360248201527f2e436f72706f726174696f6e2e4f7261636c650000000000000000000000000060448201527372ec1287ff5bb960fd54ac2adae99145153c561f9063c75ffd8690606401602060405180830381865afa158015610275573d6000803e3d6000fd5b505050506040513d601f19601f820116820180604052508101906102999190611103565b6040517fc75ffd8600000000000000000000000000000000000000000000000000000000815260206004820152601260248201527f2e436f72706f726174696f6e2e436c65726b0000000000000000000000000000604482015290915081906000907372ec1287ff5bb960fd54ac2adae99145153c561f9063c75ffd8690606401602060405180830381865afa158015610337573d6000803e3d6000fd5b505050506040513d601f19601f8201168201806040525081019061035b9190611103565b336000908152600160205260408120805492935083929091630100000090910463ffffffff1690036103e9576040517f08c379a000000000000000000000000000000000000000000000000000000000815260206004820152600d60248201527f456d706c6f796565206f6e6c790000000000000000000000000000000000000060448201526064016101ab565b6000808573ffffffffffffffffffffffffffffffffffffffff166316f0a3866040518163ffffffff1660e01b81526004016040805180830381865afa158015610436573d6000803e3d6000fd5b505050506040513d601f19601f8201168201806040525081019061045a9190611130565b91509150806104c5576040517f08c379a000000000000000000000000000000000000000000000000000000000815260206004820152601260248201527f4f7261636c6520756e726561636861626c65000000000000000000000000000060448201526064016101ab565b60008673ffffffffffffffffffffffffffffffffffffffff1663f9a4bbbe6040518163ffffffff1660e01b8152600401602060405180830381865afa158015610512573d6000803e3d6000fd5b505050506040513d601f19601f82011682018060405250810190610536919061116b565b9050600081116105a2576040517f08c379a000000000000000000000000000000000000000000000000000000000815260206004820152601060248201527f556e61636365707465642070726963650000000000000000000000000000000060448201526064016101ab565b835460009062015180906105c3906301000000900463ffffffff16426111b3565b6105cd91906111f5565b855490915060009062015180906105f1906301000000900463ffffffff16426111b3565b6105fb9190611209565b905060008361060b87600a61133d565b8854610621908690610100900461ffff1661134c565b63ffffffff166106319190611374565b61063b91906111f5565b875490915060ff1615156001036106995761065c63ffffffff8316426111b3565b875463ffffffff919091166301000000027fffffffffffffffffffffffffffffffffffffffffffffffffff00000000ffffff9091161787556106c0565b86547fffffffffffffffffffffffffffffffffffffffffffffffffff000000000000ff1687555b6040517f511276600000000000000000000000000000000000000000000000000000000081523360048201526024810182905273ffffffffffffffffffffffffffffffffffffffff8916906351127660906044016020604051808303816000875af192505050801561076d575060408051601f3d9081017fffffffffffffffffffffffffffffffffffffffffffffffffffffffffffffffe016820190925261076a9181019061138b565b60015b6107d3576040517f08c379a000000000000000000000000000000000000000000000000000000000815260206004820152600d60248201527f5061796f6666206661696c65640000000000000000000000000000000000000060448201526064016101ab565b50600080547fffffffffffffffffffffffffffffffffffffffffffffffffffffffffffffff0016905560405181815233907f87693b75a97f1eaab25a01087b59145b8f68e82c6ec64a4493ecdc727c23959c9060200160405180910390a260019b50505050505050505050505090565b60003373ffffffffffffffffffffffffffffffffffffffff167372ec1287ff5bb960fd54ac2adae99145153c561f73ffffffffffffffffffffffffffffffffffffffff16630ae50a396040518163ffffffff1660e01b8152600401602060405180830381865afa1580156108bb573d6000803e3d6000fd5b505050506040513d601f19601f820116820180604052508101906108df9190611103565b73ffffffffffffffffffffffffffffffffffffffff161461095c576040517f08c379a000000000000000000000000000000000000000000000000000000000815260206004820152600a60248201527f4f776e6572206f6e6c790000000000000000000000000000000000000000000060448201526064016101ab565b73ffffffffffffffffffffffffffffffffffffffff821660009081526001602081905260409091208054909160ff9091161515146109f6576040517f08c379a000000000000000000000000000000000000000000000000000000000815260206004820152600f60248201527f4e6f7420616e20656d706c6f796565000000000000000000000000000000000060448201526064016101ab565b80547fffffffffffffffffffffffffffffffffffffffffffffffffffffffffffffff0016815560405173ffffffffffffffffffffffffffffffffffffffff8416907f4f8dd5393fd34d2f49290d092d4acb088e011456e5d47b4ba6188cd81ca2887d90600090a260019150505b919050565b60003373ffffffffffffffffffffffffffffffffffffffff167372ec1287ff5bb960fd54ac2adae99145153c561f73ffffffffffffffffffffffffffffffffffffffff16630ae50a396040518163ffffffff1660e01b8152600401602060405180830381865afa158015610ae0573d6000803e3d6000fd5b505050506040513d601f19601f82011682018060405250810190610b049190611103565b73ffffffffffffffffffffffffffffffffffffffff1614610b81576040517f08c379a000000000000000000000000000000000000000000000000000000000815260206004820152600a60248201527f4f776e6572206f6e6c790000000000000000000000000000000000000000000060448201526064016101ab565b73ffffffffffffffffffffffffffffffffffffffff831660009081526001602081905260409091208054909160ff90911615159003610c1c576040517f08c379a000000000000000000000000000000000000000000000000000000000815260206004820152601160248201527f416c726561647920656d706c6f7965656400000000000000000000000000000060448201526064016101ab565b8261ffff16600003610c8a576040517f08c379a000000000000000000000000000000000000000000000000000000000815260206004820152600960248201527f5a65726f2077616765000000000000000000000000000000000000000000000060448201526064016101ab565b80547fffffffffffffffffffffffffffffffffffffffffffffffffffffffffffffff0063ffffffff42166301000000027fffffffffffffffffffffffffffffffffffffffffffffffffff00000000ffffff61ffff87166101008102919091167fffffffffffffffffffffffffffffffffffffffffffffffffff000000000000ff909416939093171716600117825560405190815273ffffffffffffffffffffffffffffffffffffffff8516907fcce11e3d6f477d5366660c25bc52487e09546e4f633512a0b70afe53cad75888906020015b60405180910390a260019150505b92915050565b60003373ffffffffffffffffffffffffffffffffffffffff167372ec1287ff5bb960fd54ac2adae99145153c561f73ffffffffffffffffffffffffffffffffffffffff16630ae50a396040518163ffffffff1660e01b8152600401602060405180830381865afa158015610de8573d6000803e3d6000fd5b505050506040513d601f19601f82011682018060405250810190610e0c9190611103565b73ffffffffffffffffffffffffffffffffffffffff1614610e89576040517f08c379a000000000000000000000000000000000000000000000000000000000815260206004820152600a60248201527f4f776e6572206f6e6c790000000000000000000000000000000000000000000060448201526064016101ab565b73ffffffffffffffffffffffffffffffffffffffff831660009081526001602081905260409091208054909160ff909116151514610f23576040517f08c379a000000000000000000000000000000000000000000000000000000000815260206004820152600f60248201527f4e6f7420616e20656d706c6f796565000000000000000000000000000000000060448201526064016101ab565b8261ffff16600003610f91576040517f08c379a000000000000000000000000000000000000000000000000000000000815260206004820152600960248201527f5a65726f2077616765000000000000000000000000000000000000000000000060448201526064016101ab565b80547fffffffffffffffffffffffffffffffffffffffffffffffffffffffffff0000ff1661010061ffff851690810291909117825560405190815273ffffffffffffffffffffffffffffffffffffffff8516907ff1b941e2361086e5213d894077d063bf4e875acdd8259232c63f368648d62ce190602001610d5c565b73ffffffffffffffffffffffffffffffffffffffff8116811461103057600080fd5b50565b60006020828403121561104557600080fd5b81356110508161100e565b9392505050565b6000806040838503121561106a57600080fd5b82356110758161100e565b9150602083013561ffff8116811461108c57600080fd5b809150509250929050565b600060208083528351808285015260005b818110156110c4578581018301518582016040015282016110a8565b5060006040828601015260407fffffffffffffffffffffffffffffffffffffffffffffffffffffffffffffffe0601f8301168501019250505092915050565b60006020828403121561111557600080fd5b81516110508161100e565b80518015158114610a6357600080fd5b6000806040838503121561114357600080fd5b825160ff8116811461115457600080fd5b915061116260208401611120565b90509250929050565b60006020828403121561117d57600080fd5b5051919050565b7f4e487b7100000000000000000000000000000000000000000000000000000000600052601160045260246000fd5b81810381811115610d6a57610d6a611184565b7f4e487b7100000000000000000000000000000000000000000000000000000000600052601260045260246000fd5b600082611204576112046111c6565b500490565b600082611218576112186111c6565b500690565b600181815b8085111561127657817fffffffffffffffffffffffffffffffffffffffffffffffffffffffffffffffff0482111561125c5761125c611184565b8085161561126957918102915b93841c9390800290611222565b509250929050565b60008261128d57506001610d6a565b8161129a57506000610d6a565b81600181146112b057600281146112ba576112d6565b6001915050610d6a565b60ff8411156112cb576112cb611184565b50506001821b610d6a565b5060208310610133831016604e8410600b84101617156112f9575081810a610d6a565b611303838361121d565b807fffffffffffffffffffffffffffffffffffffffffffffffffffffffffffffffff0482111561133557611335611184565b029392505050565b600061105060ff84168361127e565b63ffffffff81811683821602808216919082811461136c5761136c611184565b505092915050565b8082028115828204841417610d6a57610d6a611184565b60006020828403121561139d57600080fd5b6110508261112056fea26469706673582212202443ca09ac8eeb350e4ed2cb4adb7d9d6ba5e993597bf18095a592b9a31330a164736f6c63430008120033",
					"opcodes": "PUSH1 0x80 PUSH1 0x40 MSTORE PUSH1 0x0 DUP1 SLOAD PUSH1 0xFF NOT AND SWAP1 SSTORE CALLVALUE DUP1 ISZERO PUSH2 0x1A JUMPI PUSH1 0x0 DUP1 REVERT JUMPDEST POP PUSH2 0x13DC DUP1 PUSH2 0x2A PUSH1 0x0 CODECOPY PUSH1 0x0 RETURN INVALID PUSH1 0x80 PUSH1 0x40 MSTORE PUSH1 0x4 CALLDATASIZE LT PUSH2 0x58 JUMPI PUSH1 0x0 CALLDATALOAD PUSH1 0xE0 SHR DUP1 PUSH4 0x66A320B5 GT PUSH2 0x40 JUMPI DUP1 PUSH4 0x66A320B5 EQ PUSH2 0xAB JUMPI DUP1 PUSH4 0x8052474D EQ PUSH2 0xCB JUMPI DUP1 PUSH4 0xE68A81C9 EQ PUSH2 0x121 JUMPI STOP JUMPDEST DUP1 PUSH4 0x4159A5A EQ PUSH2 0x61 JUMPI DUP1 PUSH4 0x52D6ABDC EQ PUSH2 0x8B JUMPI STOP JUMPDEST CALLDATASIZE PUSH2 0x5F JUMPI STOP JUMPDEST STOP JUMPDEST CALLVALUE DUP1 ISZERO PUSH2 0x6D JUMPI PUSH1 0x0 DUP1 REVERT JUMPDEST POP PUSH2 0x76 PUSH2 0x141 JUMP JUMPDEST PUSH1 0x40 MLOAD SWAP1 ISZERO ISZERO DUP2 MSTORE PUSH1 0x20 ADD JUMPDEST PUSH1 0x40 MLOAD DUP1 SWAP2 SUB SWAP1 RETURN JUMPDEST CALLVALUE DUP1 ISZERO PUSH2 0x97 JUMPI PUSH1 0x0 DUP1 REVERT JUMPDEST POP PUSH2 0x76 PUSH2 0xA6 CALLDATASIZE PUSH1 0x4 PUSH2 0x1033 JUMP JUMPDEST PUSH2 0x843 JUMP JUMPDEST CALLVALUE DUP1 ISZERO PUSH2 0xB7 JUMPI PUSH1 0x0 DUP1 REVERT JUMPDEST POP PUSH2 0x76 PUSH2 0xC6 CALLDATASIZE PUSH1 0x4 PUSH2 0x1057 JUMP JUMPDEST PUSH2 0xA68 JUMP JUMPDEST CALLVALUE DUP1 ISZERO PUSH2 0xD7 JUMPI PUSH1 0x0 DUP1 REVERT JUMPDEST POP PUSH2 0x114 PUSH1 0x40 MLOAD DUP1 PUSH1 0x40 ADD PUSH1 0x40 MSTORE DUP1 PUSH1 0x16 DUP2 MSTORE PUSH1 0x20 ADD PUSH32 0x2E436F72706F726174696F6E2E456D706C6F7965657300000000000000000000 DUP2 MSTORE POP DUP2 JUMP JUMPDEST PUSH1 0x40 MLOAD PUSH2 0x82 SWAP2 SWAP1 PUSH2 0x1097 JUMP JUMPDEST CALLVALUE DUP1 ISZERO PUSH2 0x12D JUMPI PUSH1 0x0 DUP1 REVERT JUMPDEST POP PUSH2 0x76 PUSH2 0x13C CALLDATASIZE PUSH1 0x4 PUSH2 0x1057 JUMP JUMPDEST PUSH2 0xD70 JUMP JUMPDEST PUSH1 0x0 DUP1 SLOAD PUSH1 0xFF AND ISZERO PUSH2 0x1B4 JUMPI PUSH1 0x40 MLOAD PUSH32 0x8C379A000000000000000000000000000000000000000000000000000000000 DUP2 MSTORE PUSH1 0x20 PUSH1 0x4 DUP3 ADD MSTORE PUSH1 0x11 PUSH1 0x24 DUP3 ADD MSTORE PUSH32 0x5265656E7472616E6365206661696C6564000000000000000000000000000000 PUSH1 0x44 DUP3 ADD MSTORE PUSH1 0x64 ADD JUMPDEST PUSH1 0x40 MLOAD DUP1 SWAP2 SUB SWAP1 REVERT JUMPDEST PUSH1 0x0 DUP1 SLOAD PUSH32 0xFFFFFFFFFFFFFFFFFFFFFFFFFFFFFFFFFFFFFFFFFFFFFFFFFFFFFFFFFFFFFF00 AND PUSH1 0x1 OR DUP2 SSTORE PUSH1 0x40 MLOAD PUSH32 0xC75FFD8600000000000000000000000000000000000000000000000000000000 DUP2 MSTORE PUSH1 0x20 PUSH1 0x4 DUP3 ADD MSTORE PUSH1 0x13 PUSH1 0x24 DUP3 ADD MSTORE PUSH32 0x2E436F72706F726174696F6E2E4F7261636C6500000000000000000000000000 PUSH1 0x44 DUP3 ADD MSTORE PUSH20 0x72EC1287FF5BB960FD54AC2ADAE99145153C561F SWAP1 PUSH4 0xC75FFD86 SWAP1 PUSH1 0x64 ADD PUSH1 0x20 PUSH1 0x40 MLOAD DUP1 DUP4 SUB DUP2 DUP7 GAS STATICCALL ISZERO DUP1 ISZERO PUSH2 0x275 JUMPI RETURNDATASIZE PUSH1 0x0 DUP1 RETURNDATACOPY RETURNDATASIZE PUSH1 0x0 REVERT JUMPDEST POP POP POP POP PUSH1 0x40 MLOAD RETURNDATASIZE PUSH1 0x1F NOT PUSH1 0x1F DUP3 ADD AND DUP3 ADD DUP1 PUSH1 0x40 MSTORE POP DUP2 ADD SWAP1 PUSH2 0x299 SWAP2 SWAP1 PUSH2 0x1103 JUMP JUMPDEST PUSH1 0x40 MLOAD PUSH32 0xC75FFD8600000000000000000000000000000000000000000000000000000000 DUP2 MSTORE PUSH1 0x20 PUSH1 0x4 DUP3 ADD MSTORE PUSH1 0x12 PUSH1 0x24 DUP3 ADD MSTORE PUSH32 0x2E436F72706F726174696F6E2E436C65726B0000000000000000000000000000 PUSH1 0x44 DUP3 ADD MSTORE SWAP1 SWAP2 POP DUP2 SWAP1 PUSH1 0x0 SWAP1 PUSH20 0x72EC1287FF5BB960FD54AC2ADAE99145153C561F SWAP1 PUSH4 0xC75FFD86 SWAP1 PUSH1 0x64 ADD PUSH1 0x20 PUSH1 0x40 MLOAD DUP1 DUP4 SUB DUP2 DUP7 GAS STATICCALL ISZERO DUP1 ISZERO PUSH2 0x337 JUMPI RETURNDATASIZE PUSH1 0x0 DUP1 RETURNDATACOPY RETURNDATASIZE PUSH1 0x0 REVERT JUMPDEST POP POP POP POP PUSH1 0x40 MLOAD RETURNDATASIZE PUSH1 0x1F NOT PUSH1 0x1F DUP3 ADD AND DUP3 ADD DUP1 PUSH1 0x40 MSTORE POP DUP2 ADD SWAP1 PUSH2 0x35B SWAP2 SWAP1 PUSH2 0x1103 JUMP JUMPDEST CALLER PUSH1 0x0 SWAP1 DUP2 MSTORE PUSH1 0x1 PUSH1 0x20 MSTORE PUSH1 0x40 DUP2 KECCAK256 DUP1 SLOAD SWAP3 SWAP4 POP DUP4 SWAP3 SWAP1 SWAP2 PUSH4 0x1000000 SWAP1 SWAP2 DIV PUSH4 0xFFFFFFFF AND SWAP1 SUB PUSH2 0x3E9 JUMPI PUSH1 0x40 MLOAD PUSH32 0x8C379A000000000000000000000000000000000000000000000000000000000 DUP2 MSTORE PUSH1 0x20 PUSH1 0x4 DUP3 ADD MSTORE PUSH1 0xD PUSH1 0x24 DUP3 ADD MSTORE PUSH32 0x456D706C6F796565206F6E6C7900000000000000000000000000000000000000 PUSH1 0x44 DUP3 ADD MSTORE PUSH1 0x64 ADD PUSH2 0x1AB JUMP JUMPDEST PUSH1 0x0 DUP1 DUP6 PUSH20 0xFFFFFFFFFFFFFFFFFFFFFFFFFFFFFFFFFFFFFFFF AND PUSH4 0x16F0A386 PUSH1 0x40 MLOAD DUP2 PUSH4 0xFFFFFFFF AND PUSH1 0xE0 SHL DUP2 MSTORE PUSH1 0x4 ADD PUSH1 0x40 DUP1 MLOAD DUP1 DUP4 SUB DUP2 DUP7 GAS STATICCALL ISZERO DUP1 ISZERO PUSH2 0x436 JUMPI RETURNDATASIZE PUSH1 0x0 DUP1 RETURNDATACOPY RETURNDATASIZE PUSH1 0x0 REVERT JUMPDEST POP POP POP POP PUSH1 0x40 MLOAD RETURNDATASIZE PUSH1 0x1F NOT PUSH1 0x1F DUP3 ADD AND DUP3 ADD DUP1 PUSH1 0x40 MSTORE POP DUP2 ADD SWAP1 PUSH2 0x45A SWAP2 SWAP1 PUSH2 0x1130 JUMP JUMPDEST SWAP2 POP SWAP2 POP DUP1 PUSH2 0x4C5 JUMPI PUSH1 0x40 MLOAD PUSH32 0x8C379A000000000000000000000000000000000000000000000000000000000 DUP2 MSTORE PUSH1 0x20 PUSH1 0x4 DUP3 ADD MSTORE PUSH1 0x12 PUSH1 0x24 DUP3 ADD MSTORE PUSH32 0x4F7261636C6520756E726561636861626C650000000000000000000000000000 PUSH1 0x44 DUP3 ADD MSTORE PUSH1 0x64 ADD PUSH2 0x1AB JUMP JUMPDEST PUSH1 0x0 DUP7 PUSH20 0xFFFFFFFFFFFFFFFFFFFFFFFFFFFFFFFFFFFFFFFF AND PUSH4 0xF9A4BBBE PUSH1 0x40 MLOAD DUP2 PUSH4 0xFFFFFFFF AND PUSH1 0xE0 SHL DUP2 MSTORE PUSH1 0x4 ADD PUSH1 0x20 PUSH1 0x40 MLOAD DUP1 DUP4 SUB DUP2 DUP7 GAS STATICCALL ISZERO DUP1 ISZERO PUSH2 0x512 JUMPI RETURNDATASIZE PUSH1 0x0 DUP1 RETURNDATACOPY RETURNDATASIZE PUSH1 0x0 REVERT JUMPDEST POP POP POP POP PUSH1 0x40 MLOAD RETURNDATASIZE PUSH1 0x1F NOT PUSH1 0x1F DUP3 ADD AND DUP3 ADD DUP1 PUSH1 0x40 MSTORE POP DUP2 ADD SWAP1 PUSH2 0x536 SWAP2 SWAP1 PUSH2 0x116B JUMP JUMPDEST SWAP1 POP PUSH1 0x0 DUP2 GT PUSH2 0x5A2 JUMPI PUSH1 0x40 MLOAD PUSH32 0x8C379A000000000000000000000000000000000000000000000000000000000 DUP2 MSTORE PUSH1 0x20 PUSH1 0x4 DUP3 ADD MSTORE PUSH1 0x10 PUSH1 0x24 DUP3 ADD MSTORE PUSH32 0x556E616363657074656420707269636500000000000000000000000000000000 PUSH1 0x44 DUP3 ADD MSTORE PUSH1 0x64 ADD PUSH2 0x1AB JUMP JUMPDEST DUP4 SLOAD PUSH1 0x0 SWAP1 PUSH3 0x15180 SWAP1 PUSH2 0x5C3 SWAP1 PUSH4 0x1000000 SWAP1 DIV PUSH4 0xFFFFFFFF AND TIMESTAMP PUSH2 0x11B3 JUMP JUMPDEST PUSH2 0x5CD SWAP2 SWAP1 PUSH2 0x11F5 JUMP JUMPDEST DUP6 SLOAD SWAP1 SWAP2 POP PUSH1 0x0 SWAP1 PUSH3 0x15180 SWAP1 PUSH2 0x5F1 SWAP1 PUSH4 0x1000000 SWAP1 DIV PUSH4 0xFFFFFFFF AND TIMESTAMP PUSH2 0x11B3 JUMP JUMPDEST PUSH2 0x5FB SWAP2 SWAP1 PUSH2 0x1209 JUMP JUMPDEST SWAP1 POP PUSH1 0x0 DUP4 PUSH2 0x60B DUP8 PUSH1 0xA PUSH2 0x133D JUMP JUMPDEST DUP9 SLOAD PUSH2 0x621 SWAP1 DUP7 SWAP1 PUSH2 0x100 SWAP1 DIV PUSH2 0xFFFF AND PUSH2 0x134C JUMP JUMPDEST PUSH4 0xFFFFFFFF AND PUSH2 0x631 SWAP2 SWAP1 PUSH2 0x1374 JUMP JUMPDEST PUSH2 0x63B SWAP2 SWAP1 PUSH2 0x11F5 JUMP JUMPDEST DUP8 SLOAD SWAP1 SWAP2 POP PUSH1 0xFF AND ISZERO ISZERO PUSH1 0x1 SUB PUSH2 0x699 JUMPI PUSH2 0x65C PUSH4 0xFFFFFFFF DUP4 AND TIMESTAMP PUSH2 0x11B3 JUMP JUMPDEST DUP8 SLOAD PUSH4 0xFFFFFFFF SWAP2 SWAP1 SWAP2 AND PUSH4 0x1000000 MUL PUSH32 0xFFFFFFFFFFFFFFFFFFFFFFFFFFFFFFFFFFFFFFFFFFFFFFFFFF00000000FFFFFF SWAP1 SWAP2 AND OR DUP8 SSTORE PUSH2 0x6C0 JUMP JUMPDEST DUP7 SLOAD PUSH32 0xFFFFFFFFFFFFFFFFFFFFFFFFFFFFFFFFFFFFFFFFFFFFFFFFFF000000000000FF AND DUP8 SSTORE JUMPDEST PUSH1 0x40 MLOAD PUSH32 0x5112766000000000000000000000000000000000000000000000000000000000 DUP2 MSTORE CALLER PUSH1 0x4 DUP3 ADD MSTORE PUSH1 0x24 DUP2 ADD DUP3 SWAP1 MSTORE PUSH20 0xFFFFFFFFFFFFFFFFFFFFFFFFFFFFFFFFFFFFFFFF DUP10 AND SWAP1 PUSH4 0x51127660 SWAP1 PUSH1 0x44 ADD PUSH1 0x20 PUSH1 0x40 MLOAD DUP1 DUP4 SUB DUP2 PUSH1 0x0 DUP8 GAS CALL SWAP3 POP POP POP DUP1 ISZERO PUSH2 0x76D JUMPI POP PUSH1 0x40 DUP1 MLOAD PUSH1 0x1F RETURNDATASIZE SWAP1 DUP2 ADD PUSH32 0xFFFFFFFFFFFFFFFFFFFFFFFFFFFFFFFFFFFFFFFFFFFFFFFFFFFFFFFFFFFFFFE0 AND DUP3 ADD SWAP1 SWAP3 MSTORE PUSH2 0x76A SWAP2 DUP2 ADD SWAP1 PUSH2 0x138B JUMP JUMPDEST PUSH1 0x1 JUMPDEST PUSH2 0x7D3 JUMPI PUSH1 0x40 MLOAD PUSH32 0x8C379A000000000000000000000000000000000000000000000000000000000 DUP2 MSTORE PUSH1 0x20 PUSH1 0x4 DUP3 ADD MSTORE PUSH1 0xD PUSH1 0x24 DUP3 ADD MSTORE PUSH32 0x5061796F6666206661696C656400000000000000000000000000000000000000 PUSH1 0x44 DUP3 ADD MSTORE PUSH1 0x64 ADD PUSH2 0x1AB JUMP JUMPDEST POP PUSH1 0x0 DUP1 SLOAD PUSH32 0xFFFFFFFFFFFFFFFFFFFFFFFFFFFFFFFFFFFFFFFFFFFFFFFFFFFFFFFFFFFFFF00 AND SWAP1 SSTORE PUSH1 0x40 MLOAD DUP2 DUP2 MSTORE CALLER SWAP1 PUSH32 0x87693B75A97F1EAAB25A01087B59145B8F68E82C6EC64A4493ECDC727C23959C SWAP1 PUSH1 0x20 ADD PUSH1 0x40 MLOAD DUP1 SWAP2 SUB SWAP1 LOG2 PUSH1 0x1 SWAP12 POP POP POP POP POP POP POP POP POP POP POP POP SWAP1 JUMP JUMPDEST PUSH1 0x0 CALLER PUSH20 0xFFFFFFFFFFFFFFFFFFFFFFFFFFFFFFFFFFFFFFFF AND PUSH20 0x72EC1287FF5BB960FD54AC2ADAE99145153C561F PUSH20 0xFFFFFFFFFFFFFFFFFFFFFFFFFFFFFFFFFFFFFFFF AND PUSH4 0xAE50A39 PUSH1 0x40 MLOAD DUP2 PUSH4 0xFFFFFFFF AND PUSH1 0xE0 SHL DUP2 MSTORE PUSH1 0x4 ADD PUSH1 0x20 PUSH1 0x40 MLOAD DUP1 DUP4 SUB DUP2 DUP7 GAS STATICCALL ISZERO DUP1 ISZERO PUSH2 0x8BB JUMPI RETURNDATASIZE PUSH1 0x0 DUP1 RETURNDATACOPY RETURNDATASIZE PUSH1 0x0 REVERT JUMPDEST POP POP POP POP PUSH1 0x40 MLOAD RETURNDATASIZE PUSH1 0x1F NOT PUSH1 0x1F DUP3 ADD AND DUP3 ADD DUP1 PUSH1 0x40 MSTORE POP DUP2 ADD SWAP1 PUSH2 0x8DF SWAP2 SWAP1 PUSH2 0x1103 JUMP JUMPDEST PUSH20 0xFFFFFFFFFFFFFFFFFFFFFFFFFFFFFFFFFFFFFFFF AND EQ PUSH2 0x95C JUMPI PUSH1 0x40 MLOAD PUSH32 0x8C379A000000000000000000000000000000000000000000000000000000000 DUP2 MSTORE PUSH1 0x20 PUSH1 0x4 DUP3 ADD MSTORE PUSH1 0xA PUSH1 0x24 DUP3 ADD MSTORE PUSH32 0x4F776E6572206F6E6C7900000000000000000000000000000000000000000000 PUSH1 0x44 DUP3 ADD MSTORE PUSH1 0x64 ADD PUSH2 0x1AB JUMP JUMPDEST PUSH20 0xFFFFFFFFFFFFFFFFFFFFFFFFFFFFFFFFFFFFFFFF DUP3 AND PUSH1 0x0 SWAP1 DUP2 MSTORE PUSH1 0x1 PUSH1 0x20 DUP2 SWAP1 MSTORE PUSH1 0x40 SWAP1 SWAP2 KECCAK256 DUP1 SLOAD SWAP1 SWAP2 PUSH1 0xFF SWAP1 SWAP2 AND ISZERO ISZERO EQ PUSH2 0x9F6 JUMPI PUSH1 0x40 MLOAD PUSH32 0x8C379A000000000000000000000000000000000000000000000000000000000 DUP2 MSTORE PUSH1 0x20 PUSH1 0x4 DUP3 ADD MSTORE PUSH1 0xF PUSH1 0x24 DUP3 ADD MSTORE PUSH32 0x4E6F7420616E20656D706C6F7965650000000000000000000000000000000000 PUSH1 0x44 DUP3 ADD MSTORE PUSH1 0x64 ADD PUSH2 0x1AB JUMP JUMPDEST DUP1 SLOAD PUSH32 0xFFFFFFFFFFFFFFFFFFFFFFFFFFFFFFFFFFFFFFFFFFFFFFFFFFFFFFFFFFFFFF00 AND DUP2 SSTORE PUSH1 0x40 MLOAD PUSH20 0xFFFFFFFFFFFFFFFFFFFFFFFFFFFFFFFFFFFFFFFF DUP5 AND SWAP1 PUSH32 0x4F8DD5393FD34D2F49290D092D4ACB088E011456E5D47B4BA6188CD81CA2887D SWAP1 PUSH1 0x0 SWAP1 LOG2 PUSH1 0x1 SWAP2 POP POP JUMPDEST SWAP2 SWAP1 POP JUMP JUMPDEST PUSH1 0x0 CALLER PUSH20 0xFFFFFFFFFFFFFFFFFFFFFFFFFFFFFFFFFFFFFFFF AND PUSH20 0x72EC1287FF5BB960FD54AC2ADAE99145153C561F PUSH20 0xFFFFFFFFFFFFFFFFFFFFFFFFFFFFFFFFFFFFFFFF AND PUSH4 0xAE50A39 PUSH1 0x40 MLOAD DUP2 PUSH4 0xFFFFFFFF AND PUSH1 0xE0 SHL DUP2 MSTORE PUSH1 0x4 ADD PUSH1 0x20 PUSH1 0x40 MLOAD DUP1 DUP4 SUB DUP2 DUP7 GAS STATICCALL ISZERO DUP1 ISZERO PUSH2 0xAE0 JUMPI RETURNDATASIZE PUSH1 0x0 DUP1 RETURNDATACOPY RETURNDATASIZE PUSH1 0x0 REVERT JUMPDEST POP POP POP POP PUSH1 0x40 MLOAD RETURNDATASIZE PUSH1 0x1F NOT PUSH1 0x1F DUP3 ADD AND DUP3 ADD DUP1 PUSH1 0x40 MSTORE POP DUP2 ADD SWAP1 PUSH2 0xB04 SWAP2 SWAP1 PUSH2 0x1103 JUMP JUMPDEST PUSH20 0xFFFFFFFFFFFFFFFFFFFFFFFFFFFFFFFFFFFFFFFF AND EQ PUSH2 0xB81 JUMPI PUSH1 0x40 MLOAD PUSH32 0x8C379A000000000000000000000000000000000000000000000000000000000 DUP2 MSTORE PUSH1 0x20 PUSH1 0x4 DUP3 ADD MSTORE PUSH1 0xA PUSH1 0x24 DUP3 ADD MSTORE PUSH32 0x4F776E6572206F6E6C7900000000000000000000000000000000000000000000 PUSH1 0x44 DUP3 ADD MSTORE PUSH1 0x64 ADD PUSH2 0x1AB JUMP JUMPDEST PUSH20 0xFFFFFFFFFFFFFFFFFFFFFFFFFFFFFFFFFFFFFFFF DUP4 AND PUSH1 0x0 SWAP1 DUP2 MSTORE PUSH1 0x1 PUSH1 0x20 DUP2 SWAP1 MSTORE PUSH1 0x40 SWAP1 SWAP2 KECCAK256 DUP1 SLOAD SWAP1 SWAP2 PUSH1 0xFF SWAP1 SWAP2 AND ISZERO ISZERO SWAP1 SUB PUSH2 0xC1C JUMPI PUSH1 0x40 MLOAD PUSH32 0x8C379A000000000000000000000000000000000000000000000000000000000 DUP2 MSTORE PUSH1 0x20 PUSH1 0x4 DUP3 ADD MSTORE PUSH1 0x11 PUSH1 0x24 DUP3 ADD MSTORE PUSH32 0x416C726561647920656D706C6F79656564000000000000000000000000000000 PUSH1 0x44 DUP3 ADD MSTORE PUSH1 0x64 ADD PUSH2 0x1AB JUMP JUMPDEST DUP3 PUSH2 0xFFFF AND PUSH1 0x0 SUB PUSH2 0xC8A JUMPI PUSH1 0x40 MLOAD PUSH32 0x8C379A000000000000000000000000000000000000000000000000000000000 DUP2 MSTORE PUSH1 0x20 PUSH1 0x4 DUP3 ADD MSTORE PUSH1 0x9 PUSH1 0x24 DUP3 ADD MSTORE PUSH32 0x5A65726F20776167650000000000000000000000000000000000000000000000 PUSH1 0x44 DUP3 ADD MSTORE PUSH1 0x64 ADD PUSH2 0x1AB JUMP JUMPDEST DUP1 SLOAD PUSH32 0xFFFFFFFFFFFFFFFFFFFFFFFFFFFFFFFFFFFFFFFFFFFFFFFFFFFFFFFFFFFFFF00 PUSH4 0xFFFFFFFF TIMESTAMP AND PUSH4 0x1000000 MUL PUSH32 0xFFFFFFFFFFFFFFFFFFFFFFFFFFFFFFFFFFFFFFFFFFFFFFFFFF00000000FFFFFF PUSH2 0xFFFF DUP8 AND PUSH2 0x100 DUP2 MUL SWAP2 SWAP1 SWAP2 AND PUSH32 0xFFFFFFFFFFFFFFFFFFFFFFFFFFFFFFFFFFFFFFFFFFFFFFFFFF000000000000FF SWAP1 SWAP5 AND SWAP4 SWAP1 SWAP4 OR OR AND PUSH1 0x1 OR DUP3 SSTORE PUSH1 0x40 MLOAD SWAP1 DUP2 MSTORE PUSH20 0xFFFFFFFFFFFFFFFFFFFFFFFFFFFFFFFFFFFFFFFF DUP6 AND SWAP1 PUSH32 0xCCE11E3D6F477D5366660C25BC52487E09546E4F633512A0B70AFE53CAD75888 SWAP1 PUSH1 0x20 ADD JUMPDEST PUSH1 0x40 MLOAD DUP1 SWAP2 SUB SWAP1 LOG2 PUSH1 0x1 SWAP2 POP POP JUMPDEST SWAP3 SWAP2 POP POP JUMP JUMPDEST PUSH1 0x0 CALLER PUSH20 0xFFFFFFFFFFFFFFFFFFFFFFFFFFFFFFFFFFFFFFFF AND PUSH20 0x72EC1287FF5BB960FD54AC2ADAE99145153C561F PUSH20 0xFFFFFFFFFFFFFFFFFFFFFFFFFFFFFFFFFFFFFFFF AND PUSH4 0xAE50A39 PUSH1 0x40 MLOAD DUP2 PUSH4 0xFFFFFFFF AND PUSH1 0xE0 SHL DUP2 MSTORE PUSH1 0x4 ADD PUSH1 0x20 PUSH1 0x40 MLOAD DUP1 DUP4 SUB DUP2 DUP7 GAS STATICCALL ISZERO DUP1 ISZERO PUSH2 0xDE8 JUMPI RETURNDATASIZE PUSH1 0x0 DUP1 RETURNDATACOPY RETURNDATASIZE PUSH1 0x0 REVERT JUMPDEST POP POP POP POP PUSH1 0x40 MLOAD RETURNDATASIZE PUSH1 0x1F NOT PUSH1 0x1F DUP3 ADD AND DUP3 ADD DUP1 PUSH1 0x40 MSTORE POP DUP2 ADD SWAP1 PUSH2 0xE0C SWAP2 SWAP1 PUSH2 0x1103 JUMP JUMPDEST PUSH20 0xFFFFFFFFFFFFFFFFFFFFFFFFFFFFFFFFFFFFFFFF AND EQ PUSH2 0xE89 JUMPI PUSH1 0x40 MLOAD PUSH32 0x8C379A000000000000000000000000000000000000000000000000000000000 DUP2 MSTORE PUSH1 0x20 PUSH1 0x4 DUP3 ADD MSTORE PUSH1 0xA PUSH1 0x24 DUP3 ADD MSTORE PUSH32 0x4F776E6572206F6E6C7900000000000000000000000000000000000000000000 PUSH1 0x44 DUP3 ADD MSTORE PUSH1 0x64 ADD PUSH2 0x1AB JUMP JUMPDEST PUSH20 0xFFFFFFFFFFFFFFFFFFFFFFFFFFFFFFFFFFFFFFFF DUP4 AND PUSH1 0x0 SWAP1 DUP2 MSTORE PUSH1 0x1 PUSH1 0x20 DUP2 SWAP1 MSTORE PUSH1 0x40 SWAP1 SWAP2 KECCAK256 DUP1 SLOAD SWAP1 SWAP2 PUSH1 0xFF SWAP1 SWAP2 AND ISZERO ISZERO EQ PUSH2 0xF23 JUMPI PUSH1 0x40 MLOAD PUSH32 0x8C379A000000000000000000000000000000000000000000000000000000000 DUP2 MSTORE PUSH1 0x20 PUSH1 0x4 DUP3 ADD MSTORE PUSH1 0xF PUSH1 0x24 DUP3 ADD MSTORE PUSH32 0x4E6F7420616E20656D706C6F7965650000000000000000000000000000000000 PUSH1 0x44 DUP3 ADD MSTORE PUSH1 0x64 ADD PUSH2 0x1AB JUMP JUMPDEST DUP3 PUSH2 0xFFFF AND PUSH1 0x0 SUB PUSH2 0xF91 JUMPI PUSH1 0x40 MLOAD PUSH32 0x8C379A000000000000000000000000000000000000000000000000000000000 DUP2 MSTORE PUSH1 0x20 PUSH1 0x4 DUP3 ADD MSTORE PUSH1 0x9 PUSH1 0x24 DUP3 ADD MSTORE PUSH32 0x5A65726F20776167650000000000000000000000000000000000000000000000 PUSH1 0x44 DUP3 ADD MSTORE PUSH1 0x64 ADD PUSH2 0x1AB JUMP JUMPDEST DUP1 SLOAD PUSH32 0xFFFFFFFFFFFFFFFFFFFFFFFFFFFFFFFFFFFFFFFFFFFFFFFFFFFFFFFFFF0000FF AND PUSH2 0x100 PUSH2 0xFFFF DUP6 AND SWAP1 DUP2 MUL SWAP2 SWAP1 SWAP2 OR DUP3 SSTORE PUSH1 0x40 MLOAD SWAP1 DUP2 MSTORE PUSH20 0xFFFFFFFFFFFFFFFFFFFFFFFFFFFFFFFFFFFFFFFF DUP6 AND SWAP1 PUSH32 0xF1B941E2361086E5213D894077D063BF4E875ACDD8259232C63F368648D62CE1 SWAP1 PUSH1 0x20 ADD PUSH2 0xD5C JUMP JUMPDEST PUSH20 0xFFFFFFFFFFFFFFFFFFFFFFFFFFFFFFFFFFFFFFFF DUP2 AND DUP2 EQ PUSH2 0x1030 JUMPI PUSH1 0x0 DUP1 REVERT JUMPDEST POP JUMP JUMPDEST PUSH1 0x0 PUSH1 0x20 DUP3 DUP5 SUB SLT ISZERO PUSH2 0x1045 JUMPI PUSH1 0x0 DUP1 REVERT JUMPDEST DUP2 CALLDATALOAD PUSH2 0x1050 DUP2 PUSH2 0x100E JUMP JUMPDEST SWAP4 SWAP3 POP POP POP JUMP JUMPDEST PUSH1 0x0 DUP1 PUSH1 0x40 DUP4 DUP6 SUB SLT ISZERO PUSH2 0x106A JUMPI PUSH1 0x0 DUP1 REVERT JUMPDEST DUP3 CALLDATALOAD PUSH2 0x1075 DUP2 PUSH2 0x100E JUMP JUMPDEST SWAP2 POP PUSH1 0x20 DUP4 ADD CALLDATALOAD PUSH2 0xFFFF DUP2 AND DUP2 EQ PUSH2 0x108C JUMPI PUSH1 0x0 DUP1 REVERT JUMPDEST DUP1 SWAP2 POP POP SWAP3 POP SWAP3 SWAP1 POP JUMP JUMPDEST PUSH1 0x0 PUSH1 0x20 DUP1 DUP4 MSTORE DUP4 MLOAD DUP1 DUP3 DUP6 ADD MSTORE PUSH1 0x0 JUMPDEST DUP2 DUP2 LT ISZERO PUSH2 0x10C4 JUMPI DUP6 DUP2 ADD DUP4 ADD MLOAD DUP6 DUP3 ADD PUSH1 0x40 ADD MSTORE DUP3 ADD PUSH2 0x10A8 JUMP JUMPDEST POP PUSH1 0x0 PUSH1 0x40 DUP3 DUP7 ADD ADD MSTORE PUSH1 0x40 PUSH32 0xFFFFFFFFFFFFFFFFFFFFFFFFFFFFFFFFFFFFFFFFFFFFFFFFFFFFFFFFFFFFFFE0 PUSH1 0x1F DUP4 ADD AND DUP6 ADD ADD SWAP3 POP POP POP SWAP3 SWAP2 POP POP JUMP JUMPDEST PUSH1 0x0 PUSH1 0x20 DUP3 DUP5 SUB SLT ISZERO PUSH2 0x1115 JUMPI PUSH1 0x0 DUP1 REVERT JUMPDEST DUP2 MLOAD PUSH2 0x1050 DUP2 PUSH2 0x100E JUMP JUMPDEST DUP1 MLOAD DUP1 ISZERO ISZERO DUP2 EQ PUSH2 0xA63 JUMPI PUSH1 0x0 DUP1 REVERT JUMPDEST PUSH1 0x0 DUP1 PUSH1 0x40 DUP4 DUP6 SUB SLT ISZERO PUSH2 0x1143 JUMPI PUSH1 0x0 DUP1 REVERT JUMPDEST DUP3 MLOAD PUSH1 0xFF DUP2 AND DUP2 EQ PUSH2 0x1154 JUMPI PUSH1 0x0 DUP1 REVERT JUMPDEST SWAP2 POP PUSH2 0x1162 PUSH1 0x20 DUP5 ADD PUSH2 0x1120 JUMP JUMPDEST SWAP1 POP SWAP3 POP SWAP3 SWAP1 POP JUMP JUMPDEST PUSH1 0x0 PUSH1 0x20 DUP3 DUP5 SUB SLT ISZERO PUSH2 0x117D JUMPI PUSH1 0x0 DUP1 REVERT JUMPDEST POP MLOAD SWAP2 SWAP1 POP JUMP JUMPDEST PUSH32 0x4E487B7100000000000000000000000000000000000000000000000000000000 PUSH1 0x0 MSTORE PUSH1 0x11 PUSH1 0x4 MSTORE PUSH1 0x24 PUSH1 0x0 REVERT JUMPDEST DUP2 DUP2 SUB DUP2 DUP2 GT ISZERO PUSH2 0xD6A JUMPI PUSH2 0xD6A PUSH2 0x1184 JUMP JUMPDEST PUSH32 0x4E487B7100000000000000000000000000000000000000000000000000000000 PUSH1 0x0 MSTORE PUSH1 0x12 PUSH1 0x4 MSTORE PUSH1 0x24 PUSH1 0x0 REVERT JUMPDEST PUSH1 0x0 DUP3 PUSH2 0x1204 JUMPI PUSH2 0x1204 PUSH2 0x11C6 JUMP JUMPDEST POP DIV SWAP1 JUMP JUMPDEST PUSH1 0x0 DUP3 PUSH2 0x1218 JUMPI PUSH2 0x1218 PUSH2 0x11C6 JUMP JUMPDEST POP MOD SWAP1 JUMP JUMPDEST PUSH1 0x1 DUP2 DUP2 JUMPDEST DUP1 DUP6 GT ISZERO PUSH2 0x1276 JUMPI DUP2 PUSH32 0xFFFFFFFFFFFFFFFFFFFFFFFFFFFFFFFFFFFFFFFFFFFFFFFFFFFFFFFFFFFFFFFF DIV DUP3 GT ISZERO PUSH2 0x125C JUMPI PUSH2 0x125C PUSH2 0x1184 JUMP JUMPDEST DUP1 DUP6 AND ISZERO PUSH2 0x1269 JUMPI SWAP2 DUP2 MUL SWAP2 JUMPDEST SWAP4 DUP5 SHR SWAP4 SWAP1 DUP1 MUL SWAP1 PUSH2 0x1222 JUMP JUMPDEST POP SWAP3 POP SWAP3 SWAP1 POP JUMP JUMPDEST PUSH1 0x0 DUP3 PUSH2 0x128D JUMPI POP PUSH1 0x1 PUSH2 0xD6A JUMP JUMPDEST DUP2 PUSH2 0x129A JUMPI POP PUSH1 0x0 PUSH2 0xD6A JUMP JUMPDEST DUP2 PUSH1 0x1 DUP2 EQ PUSH2 0x12B0 JUMPI PUSH1 0x2 DUP2 EQ PUSH2 0x12BA JUMPI PUSH2 0x12D6 JUMP JUMPDEST PUSH1 0x1 SWAP2 POP POP PUSH2 0xD6A JUMP JUMPDEST PUSH1 0xFF DUP5 GT ISZERO PUSH2 0x12CB JUMPI PUSH2 0x12CB PUSH2 0x1184 JUMP JUMPDEST POP POP PUSH1 0x1 DUP3 SHL PUSH2 0xD6A JUMP JUMPDEST POP PUSH1 0x20 DUP4 LT PUSH2 0x133 DUP4 LT AND PUSH1 0x4E DUP5 LT PUSH1 0xB DUP5 LT AND OR ISZERO PUSH2 0x12F9 JUMPI POP DUP2 DUP2 EXP PUSH2 0xD6A JUMP JUMPDEST PUSH2 0x1303 DUP4 DUP4 PUSH2 0x121D JUMP JUMPDEST DUP1 PUSH32 0xFFFFFFFFFFFFFFFFFFFFFFFFFFFFFFFFFFFFFFFFFFFFFFFFFFFFFFFFFFFFFFFF DIV DUP3 GT ISZERO PUSH2 0x1335 JUMPI PUSH2 0x1335 PUSH2 0x1184 JUMP JUMPDEST MUL SWAP4 SWAP3 POP POP POP JUMP JUMPDEST PUSH1 0x0 PUSH2 0x1050 PUSH1 0xFF DUP5 AND DUP4 PUSH2 0x127E JUMP JUMPDEST PUSH4 0xFFFFFFFF DUP2 DUP2 AND DUP4 DUP3 AND MUL DUP1 DUP3 AND SWAP2 SWAP1 DUP3 DUP2 EQ PUSH2 0x136C JUMPI PUSH2 0x136C PUSH2 0x1184 JUMP JUMPDEST POP POP SWAP3 SWAP2 POP POP JUMP JUMPDEST DUP1 DUP3 MUL DUP2 ISZERO DUP3 DUP3 DIV DUP5 EQ OR PUSH2 0xD6A JUMPI PUSH2 0xD6A PUSH2 0x1184 JUMP JUMPDEST PUSH1 0x0 PUSH1 0x20 DUP3 DUP5 SUB SLT ISZERO PUSH2 0x139D JUMPI PUSH1 0x0 DUP1 REVERT JUMPDEST PUSH2 0x1050 DUP3 PUSH2 0x1120 JUMP INVALID LOG2 PUSH5 0x6970667358 0x22 SLT KECCAK256 0x24 NUMBER 0xCA MULMOD 0xAC DUP15 0xEB CALLDATALOAD 0xE 0x4E 0xD2 0xCB 0x4A 0xDB PUSH30 0x9D6BA5E993597BF18095A592B9A31330A164736F6C634300081200330000 "
				},
				"gasEstimates": {
					"creation": {
						"codeDepositCost": "1016800",
						"executionCost": "25272",
						"totalCost": "1042072"
					},
					"external": {
						"": "118",
						"AddEmployee(address,uint16)": "infinite",
						"EmployeePayoff()": "infinite",
						"Name()": "infinite",
						"RemoveEmployee(address)": "infinite",
						"UpdateEmployee(address,uint16)": "infinite"
					}
				},
				"methodIdentifiers": {
					"AddEmployee(address,uint16)": "66a320b5",
					"EmployeePayoff()": "04159a5a",
					"Name()": "8052474d",
					"RemoveEmployee(address)": "52d6abdc",
					"UpdateEmployee(address,uint16)": "e68a81c9"
				}
			},
			"storageLayout": {
				"storage": [
					{
						"astId": 68,
						"contract": "contracts/Corporation/Employees.sol:Employees",
						"label": "reentrantLocked",
						"offset": 0,
						"slot": "0",
						"type": "t_bool"
					},
					{
						"astId": 86,
						"contract": "contracts/Corporation/Employees.sol:Employees",
						"label": "employees",
						"offset": 0,
						"slot": "1",
						"type": "t_mapping(t_address,t_struct(Employee)81_storage)"
					}
				],
				"types": {
					"t_address": {
						"encoding": "inplace",
						"label": "address",
						"numberOfBytes": "20"
					},
					"t_bool": {
						"encoding": "inplace",
						"label": "bool",
						"numberOfBytes": "1"
					},
					"t_mapping(t_address,t_struct(Employee)81_storage)": {
						"encoding": "mapping",
						"key": "t_address",
						"label": "mapping(address => struct Employees.Employee)",
						"numberOfBytes": "32",
						"value": "t_struct(Employee)81_storage"
					},
					"t_struct(Employee)81_storage": {
						"encoding": "inplace",
						"label": "struct Employees.Employee",
						"members": [
							{
								"astId": 76,
								"contract": "contracts/Corporation/Employees.sol:Employees",
								"label": "status",
								"offset": 0,
								"slot": "0",
								"type": "t_bool"
							},
							{
								"astId": 78,
								"contract": "contracts/Corporation/Employees.sol:Employees",
								"label": "dailyWage",
								"offset": 1,
								"slot": "0",
								"type": "t_uint16"
							},
							{
								"astId": 80,
								"contract": "contracts/Corporation/Employees.sol:Employees",
								"label": "lastPayment",
								"offset": 3,
								"slot": "0",
								"type": "t_uint32"
							}
						],
						"numberOfBytes": "32"
					},
					"t_uint16": {
						"encoding": "inplace",
						"label": "uint16",
						"numberOfBytes": "2"
					},
					"t_uint32": {
						"encoding": "inplace",
						"label": "uint32",
						"numberOfBytes": "4"
					}
				}
			},
			"userdoc": {
				"kind": "user",
				"methods": {},
				"version": 1
			}
		}
	}
}