{
	"contracts/Corporation/Oracle.sol": {
		"Oracle": {
			"abi": [
				{
					"stateMutability": "nonpayable",
					"type": "fallback"
				},
				{
					"inputs": [],
					"name": "GetMATICDecimals",
					"outputs": [
						{
							"internalType": "uint8",
							"name": "",
							"type": "uint8"
						},
						{
							"internalType": "bool",
							"name": "",
							"type": "bool"
						}
					],
					"stateMutability": "view",
					"type": "function"
				},
				{
					"inputs": [],
					"name": "GetMATICPrice",
					"outputs": [
						{
							"internalType": "uint256",
							"name": "",
							"type": "uint256"
						}
					],
					"stateMutability": "view",
					"type": "function"
				},
				{
					"inputs": [],
					"name": "Name",
					"outputs": [
						{
							"internalType": "string",
							"name": "",
							"type": "string"
						}
					],
					"stateMutability": "view",
					"type": "function"
				},
				{
					"stateMutability": "payable",
					"type": "receive"
				}
			],
			"devdoc": {
				"kind": "dev",
				"methods": {},
				"version": 1
			},
			"evm": {
				"assembly": "    /* \"contracts/Corporation/Oracle.sol\":203:2440  contract Oracle{... */\n  mstore(0x40, 0x80)\n  callvalue\n  dup1\n  iszero\n  tag_1\n  jumpi\n  0x00\n  dup1\n  revert\ntag_1:\n  pop\n  dataSize(sub_0)\n  dup1\n  dataOffset(sub_0)\n  0x00\n  codecopy\n  0x00\n  return\nstop\n\nsub_0: assembly {\n        /* \"contracts/Corporation/Oracle.sol\":203:2440  contract Oracle{... */\n      mstore(0x40, 0x80)\n      jumpi(tag_1, lt(calldatasize, 0x04))\n      shr(0xe0, calldataload(0x00))\n      dup1\n      0x16f0a386\n      eq\n      tag_3\n      jumpi\n      dup1\n      0x8052474d\n      eq\n      tag_4\n      jumpi\n      dup1\n      0xf9a4bbbe\n      eq\n      tag_5\n      jumpi\n      jump(tag_2)\n    tag_1:\n      jumpi(tag_2, calldatasize)\n      stop\n    tag_2:\n      callvalue\n      dup1\n      iszero\n      tag_8\n      jumpi\n      0x00\n      dup1\n      revert\n    tag_8:\n      stop\n        /* \"contracts/Corporation/Oracle.sol\":1984:2192  function GetMATICDecimals() public view returns(uint8, bool){... */\n    tag_3:\n      callvalue\n      dup1\n      iszero\n      tag_11\n      jumpi\n      0x00\n      dup1\n      revert\n    tag_11:\n      pop\n      tag_12\n      tag_13\n      jump\t// in\n    tag_12:\n      mload(0x40)\n      tag_14\n      swap3\n      swap2\n      swap1\n      tag_15\n      jump\t// in\n    tag_14:\n      mload(0x40)\n      dup1\n      swap2\n      sub\n      swap1\n      return\n        /* \"contracts/Corporation/Oracle.sol\":1016:1067  string constant public Name = \".Corporation.Oracle\" */\n    tag_4:\n      callvalue\n      dup1\n      iszero\n      tag_16\n      jumpi\n      0x00\n      dup1\n      revert\n    tag_16:\n      pop\n      tag_17\n      tag_18\n      jump\t// in\n    tag_17:\n      mload(0x40)\n      tag_19\n      swap2\n      swap1\n      tag_20\n      jump\t// in\n    tag_19:\n      mload(0x40)\n      dup1\n      swap2\n      sub\n      swap1\n      return\n        /* \"contracts/Corporation/Oracle.sol\":1720:1976  function GetMATICPrice() public view returns(uint256){... */\n    tag_5:\n      callvalue\n      dup1\n      iszero\n      tag_21\n      jumpi\n      0x00\n      dup1\n      revert\n    tag_21:\n      pop\n      tag_22\n      tag_23\n      jump\t// in\n    tag_22:\n      mload(0x40)\n      tag_24\n      swap2\n      swap1\n      tag_25\n      jump\t// in\n    tag_24:\n      mload(0x40)\n      dup1\n      swap2\n      sub\n      swap1\n      return\n        /* \"contracts/Corporation/Oracle.sol\":1984:2192  function GetMATICDecimals() public view returns(uint8, bool){... */\n    tag_13:\n        /* \"contracts/Corporation/Oracle.sol\":2032:2037  uint8 */\n      0x00\n        /* \"contracts/Corporation/Oracle.sol\":2039:2043  bool */\n      dup1\n        /* \"contracts/Corporation/Oracle.sol\":700:742  0xAB594600376Ec9fD91F8e885dADF0CE036862dE0 */\n      0xab594600376ec9fd91f8e885dadf0ce036862de0\n        /* \"contracts/Corporation/Oracle.sol\":2061:2072  mu.decimals */\n      0xffffffffffffffffffffffffffffffffffffffff\n      and\n      0x313ce567\n        /* \"contracts/Corporation/Oracle.sol\":2061:2074  mu.decimals() */\n      mload(0x40)\n      dup2\n      0xffffffff\n      and\n      0xe0\n      shl\n      dup2\n      mstore\n      0x04\n      add\n      0x20\n      mload(0x40)\n      dup1\n      dup4\n      sub\n      dup2\n      dup7\n      gas\n      staticcall\n      swap3\n      pop\n      pop\n      pop\n      dup1\n      iszero\n      tag_27\n      jumpi\n      pop\n      mload(0x40)\n      returndatasize\n      not(0x1f)\n      0x1f\n      dup3\n      add\n      and\n      dup3\n      add\n      dup1\n      0x40\n      mstore\n      pop\n      dup2\n      add\n      swap1\n      tag_28\n      swap2\n      swap1\n      tag_29\n      jump\t// in\n    tag_28:\n      0x01\n    tag_27:\n        /* \"contracts/Corporation/Oracle.sol\":2057:2185  try mu.decimals() returns(uint8 decimals){... */\n      tag_30\n      jumpi\n        /* \"contracts/Corporation/Oracle.sol\":2173:2174  0 */\n      0x00\n        /* \"contracts/Corporation/Oracle.sol\":2176:2181  false */\n      dup1\n        /* \"contracts/Corporation/Oracle.sol\":2166:2182  return(0, false) */\n      swap2\n      pop\n      swap2\n      pop\n      jump(tag_26)\n        /* \"contracts/Corporation/Oracle.sol\":2057:2185  try mu.decimals() returns(uint8 decimals){... */\n    tag_30:\n        /* \"contracts/Corporation/Oracle.sol\":2122:2130  decimals */\n      dup1\n        /* \"contracts/Corporation/Oracle.sol\":2132:2136  true */\n      0x01\n        /* \"contracts/Corporation/Oracle.sol\":2115:2137  return(decimals, true) */\n      swap3\n      pop\n      swap3\n      pop\n      pop\n        /* \"contracts/Corporation/Oracle.sol\":1984:2192  function GetMATICDecimals() public view returns(uint8, bool){... */\n    tag_26:\n      swap1\n      swap2\n      jump\t// out\n        /* \"contracts/Corporation/Oracle.sol\":1016:1067  string constant public Name = \".Corporation.Oracle\" */\n    tag_18:\n      mload(0x40)\n      dup1\n      0x40\n      add\n      0x40\n      mstore\n      dup1\n      0x13\n      dup2\n      mstore\n      0x20\n      add\n      0x2e436f72706f726174696f6e2e4f7261636c6500000000000000000000000000\n      dup2\n      mstore\n      pop\n      dup2\n      jump\t// out\n        /* \"contracts/Corporation/Oracle.sol\":1720:1976  function GetMATICPrice() public view returns(uint256){... */\n    tag_23:\n        /* \"contracts/Corporation/Oracle.sol\":1765:1772  uint256 */\n      0x00\n        /* \"contracts/Corporation/Oracle.sol\":700:742  0xAB594600376Ec9fD91F8e885dADF0CE036862dE0 */\n      0xab594600376ec9fd91f8e885dadf0ce036862de0\n        /* \"contracts/Corporation/Oracle.sol\":1790:1805  mu.latestAnswer */\n      0xffffffffffffffffffffffffffffffffffffffff\n      and\n      0x50d25bcd\n        /* \"contracts/Corporation/Oracle.sol\":1790:1807  mu.latestAnswer() */\n      mload(0x40)\n      dup2\n      0xffffffff\n      and\n      0xe0\n      shl\n      dup2\n      mstore\n      0x04\n      add\n      0x20\n      mload(0x40)\n      dup1\n      dup4\n      sub\n      dup2\n      dup7\n      gas\n      staticcall\n      swap3\n      pop\n      pop\n      pop\n      dup1\n      iszero\n      tag_36\n      jumpi\n      pop\n      mload(0x40)\n      returndatasize\n      not(0x1f)\n      0x1f\n      dup3\n      add\n      and\n      dup3\n      add\n      dup1\n      0x40\n      mstore\n      pop\n      dup2\n      add\n      swap1\n      tag_37\n      swap2\n      swap1\n      tag_38\n      jump\t// in\n    tag_37:\n      0x01\n    tag_36:\n        /* \"contracts/Corporation/Oracle.sol\":1786:1969  try mu.latestAnswer() returns(int256 answer){... */\n      tag_39\n      jumpi\n        /* \"contracts/Corporation/Oracle.sol\":1964:1965  0 */\n      0x00\n        /* \"contracts/Corporation/Oracle.sol\":1957:1966  return(0) */\n      swap1\n      pop\n      jump(tag_35)\n        /* \"contracts/Corporation/Oracle.sol\":1786:1969  try mu.latestAnswer() returns(int256 answer){... */\n    tag_39:\n        /* \"contracts/Corporation/Oracle.sol\":1859:1860  0 */\n      0x00\n        /* \"contracts/Corporation/Oracle.sol\":1850:1856  answer */\n      dup2\n        /* \"contracts/Corporation/Oracle.sol\":1850:1860  answer <=0 */\n      sgt\n        /* \"contracts/Corporation/Oracle.sol\":1847:1888  if(answer <=0)... */\n      tag_44\n      jumpi\n        /* \"contracts/Corporation/Oracle.sol\":1886:1887  0 */\n      0x00\n        /* \"contracts/Corporation/Oracle.sol\":1879:1888  return(0) */\n      swap2\n      pop\n      pop\n      jump(tag_35)\n        /* \"contracts/Corporation/Oracle.sol\":1847:1888  if(answer <=0)... */\n    tag_44:\n        /* \"contracts/Corporation/Oracle.sol\":1920:1926  answer */\n      dup1\n        /* \"contracts/Corporation/Oracle.sol\":1905:1928  return(uint256(answer)) */\n      swap2\n      pop\n      pop\n        /* \"contracts/Corporation/Oracle.sol\":1720:1976  function GetMATICPrice() public view returns(uint256){... */\n    tag_35:\n      swap1\n      jump\t// out\n        /* \"#utility.yul\":7:93   */\n    tag_45:\n        /* \"#utility.yul\":42:49   */\n      0x00\n        /* \"#utility.yul\":82:86   */\n      0xff\n        /* \"#utility.yul\":75:80   */\n      dup3\n        /* \"#utility.yul\":71:87   */\n      and\n        /* \"#utility.yul\":60:87   */\n      swap1\n      pop\n        /* \"#utility.yul\":7:93   */\n      swap2\n      swap1\n      pop\n      jump\t// out\n        /* \"#utility.yul\":99:211   */\n    tag_46:\n        /* \"#utility.yul\":182:204   */\n      tag_67\n        /* \"#utility.yul\":198:203   */\n      dup2\n        /* \"#utility.yul\":182:204   */\n      tag_45\n      jump\t// in\n    tag_67:\n        /* \"#utility.yul\":177:180   */\n      dup3\n        /* \"#utility.yul\":170:205   */\n      mstore\n        /* \"#utility.yul\":99:211   */\n      pop\n      pop\n      jump\t// out\n        /* \"#utility.yul\":217:307   */\n    tag_47:\n        /* \"#utility.yul\":251:258   */\n      0x00\n        /* \"#utility.yul\":294:299   */\n      dup2\n        /* \"#utility.yul\":287:300   */\n      iszero\n        /* \"#utility.yul\":280:301   */\n      iszero\n        /* \"#utility.yul\":269:301   */\n      swap1\n      pop\n        /* \"#utility.yul\":217:307   */\n      swap2\n      swap1\n      pop\n      jump\t// out\n        /* \"#utility.yul\":313:422   */\n    tag_48:\n        /* \"#utility.yul\":394:415   */\n      tag_70\n        /* \"#utility.yul\":409:414   */\n      dup2\n        /* \"#utility.yul\":394:415   */\n      tag_47\n      jump\t// in\n    tag_70:\n        /* \"#utility.yul\":389:392   */\n      dup3\n        /* \"#utility.yul\":382:416   */\n      mstore\n        /* \"#utility.yul\":313:422   */\n      pop\n      pop\n      jump\t// out\n        /* \"#utility.yul\":428:740   */\n    tag_15:\n        /* \"#utility.yul\":539:543   */\n      0x00\n        /* \"#utility.yul\":577:579   */\n      0x40\n        /* \"#utility.yul\":566:575   */\n      dup3\n        /* \"#utility.yul\":562:580   */\n      add\n        /* \"#utility.yul\":554:580   */\n      swap1\n      pop\n        /* \"#utility.yul\":590:657   */\n      tag_72\n        /* \"#utility.yul\":654:655   */\n      0x00\n        /* \"#utility.yul\":643:652   */\n      dup4\n        /* \"#utility.yul\":639:656   */\n      add\n        /* \"#utility.yul\":630:636   */\n      dup6\n        /* \"#utility.yul\":590:657   */\n      tag_46\n      jump\t// in\n    tag_72:\n        /* \"#utility.yul\":667:733   */\n      tag_73\n        /* \"#utility.yul\":729:731   */\n      0x20\n        /* \"#utility.yul\":718:727   */\n      dup4\n        /* \"#utility.yul\":714:732   */\n      add\n        /* \"#utility.yul\":705:711   */\n      dup5\n        /* \"#utility.yul\":667:733   */\n      tag_48\n      jump\t// in\n    tag_73:\n        /* \"#utility.yul\":428:740   */\n      swap4\n      swap3\n      pop\n      pop\n      pop\n      jump\t// out\n        /* \"#utility.yul\":746:845   */\n    tag_49:\n        /* \"#utility.yul\":798:804   */\n      0x00\n        /* \"#utility.yul\":832:837   */\n      dup2\n        /* \"#utility.yul\":826:838   */\n      mload\n        /* \"#utility.yul\":816:838   */\n      swap1\n      pop\n        /* \"#utility.yul\":746:845   */\n      swap2\n      swap1\n      pop\n      jump\t// out\n        /* \"#utility.yul\":851:1020   */\n    tag_50:\n        /* \"#utility.yul\":935:946   */\n      0x00\n        /* \"#utility.yul\":969:975   */\n      dup3\n        /* \"#utility.yul\":964:967   */\n      dup3\n        /* \"#utility.yul\":957:976   */\n      mstore\n        /* \"#utility.yul\":1009:1013   */\n      0x20\n        /* \"#utility.yul\":1004:1007   */\n      dup3\n        /* \"#utility.yul\":1000:1014   */\n      add\n        /* \"#utility.yul\":985:1014   */\n      swap1\n      pop\n        /* \"#utility.yul\":851:1020   */\n      swap3\n      swap2\n      pop\n      pop\n      jump\t// out\n        /* \"#utility.yul\":1026:1272   */\n    tag_51:\n        /* \"#utility.yul\":1107:1108   */\n      0x00\n        /* \"#utility.yul\":1117:1230   */\n    tag_77:\n        /* \"#utility.yul\":1131:1137   */\n      dup4\n        /* \"#utility.yul\":1128:1129   */\n      dup2\n        /* \"#utility.yul\":1125:1138   */\n      lt\n        /* \"#utility.yul\":1117:1230   */\n      iszero\n      tag_79\n      jumpi\n        /* \"#utility.yul\":1216:1217   */\n      dup1\n        /* \"#utility.yul\":1211:1214   */\n      dup3\n        /* \"#utility.yul\":1207:1218   */\n      add\n        /* \"#utility.yul\":1201:1219   */\n      mload\n        /* \"#utility.yul\":1197:1198   */\n      dup2\n        /* \"#utility.yul\":1192:1195   */\n      dup5\n        /* \"#utility.yul\":1188:1199   */\n      add\n        /* \"#utility.yul\":1181:1220   */\n      mstore\n        /* \"#utility.yul\":1153:1155   */\n      0x20\n        /* \"#utility.yul\":1150:1151   */\n      dup2\n        /* \"#utility.yul\":1146:1156   */\n      add\n        /* \"#utility.yul\":1141:1156   */\n      swap1\n      pop\n        /* \"#utility.yul\":1117:1230   */\n      jump(tag_77)\n    tag_79:\n        /* \"#utility.yul\":1264:1265   */\n      0x00\n        /* \"#utility.yul\":1255:1261   */\n      dup5\n        /* \"#utility.yul\":1250:1253   */\n      dup5\n        /* \"#utility.yul\":1246:1262   */\n      add\n        /* \"#utility.yul\":1239:1266   */\n      mstore\n        /* \"#utility.yul\":1088:1272   */\n      pop\n        /* \"#utility.yul\":1026:1272   */\n      pop\n      pop\n      pop\n      jump\t// out\n        /* \"#utility.yul\":1278:1380   */\n    tag_52:\n        /* \"#utility.yul\":1319:1325   */\n      0x00\n        /* \"#utility.yul\":1370:1372   */\n      0x1f\n        /* \"#utility.yul\":1366:1373   */\n      not\n        /* \"#utility.yul\":1361:1363   */\n      0x1f\n        /* \"#utility.yul\":1354:1359   */\n      dup4\n        /* \"#utility.yul\":1350:1364   */\n      add\n        /* \"#utility.yul\":1346:1374   */\n      and\n        /* \"#utility.yul\":1336:1374   */\n      swap1\n      pop\n        /* \"#utility.yul\":1278:1380   */\n      swap2\n      swap1\n      pop\n      jump\t// out\n        /* \"#utility.yul\":1386:1763   */\n    tag_53:\n        /* \"#utility.yul\":1474:1477   */\n      0x00\n        /* \"#utility.yul\":1502:1541   */\n      tag_82\n        /* \"#utility.yul\":1535:1540   */\n      dup3\n        /* \"#utility.yul\":1502:1541   */\n      tag_49\n      jump\t// in\n    tag_82:\n        /* \"#utility.yul\":1557:1628   */\n      tag_83\n        /* \"#utility.yul\":1621:1627   */\n      dup2\n        /* \"#utility.yul\":1616:1619   */\n      dup6\n        /* \"#utility.yul\":1557:1628   */\n      tag_50\n      jump\t// in\n    tag_83:\n        /* \"#utility.yul\":1550:1628   */\n      swap4\n      pop\n        /* \"#utility.yul\":1637:1702   */\n      tag_84\n        /* \"#utility.yul\":1695:1701   */\n      dup2\n        /* \"#utility.yul\":1690:1693   */\n      dup6\n        /* \"#utility.yul\":1683:1687   */\n      0x20\n        /* \"#utility.yul\":1676:1681   */\n      dup7\n        /* \"#utility.yul\":1672:1688   */\n      add\n        /* \"#utility.yul\":1637:1702   */\n      tag_51\n      jump\t// in\n    tag_84:\n        /* \"#utility.yul\":1727:1756   */\n      tag_85\n        /* \"#utility.yul\":1749:1755   */\n      dup2\n        /* \"#utility.yul\":1727:1756   */\n      tag_52\n      jump\t// in\n    tag_85:\n        /* \"#utility.yul\":1722:1725   */\n      dup5\n        /* \"#utility.yul\":1718:1757   */\n      add\n        /* \"#utility.yul\":1711:1757   */\n      swap2\n      pop\n        /* \"#utility.yul\":1478:1763   */\n      pop\n        /* \"#utility.yul\":1386:1763   */\n      swap3\n      swap2\n      pop\n      pop\n      jump\t// out\n        /* \"#utility.yul\":1769:2082   */\n    tag_20:\n        /* \"#utility.yul\":1882:1886   */\n      0x00\n        /* \"#utility.yul\":1920:1922   */\n      0x20\n        /* \"#utility.yul\":1909:1918   */\n      dup3\n        /* \"#utility.yul\":1905:1923   */\n      add\n        /* \"#utility.yul\":1897:1923   */\n      swap1\n      pop\n        /* \"#utility.yul\":1969:1978   */\n      dup2\n        /* \"#utility.yul\":1963:1967   */\n      dup2\n        /* \"#utility.yul\":1959:1979   */\n      sub\n        /* \"#utility.yul\":1955:1956   */\n      0x00\n        /* \"#utility.yul\":1944:1953   */\n      dup4\n        /* \"#utility.yul\":1940:1957   */\n      add\n        /* \"#utility.yul\":1933:1980   */\n      mstore\n        /* \"#utility.yul\":1997:2075   */\n      tag_87\n        /* \"#utility.yul\":2070:2074   */\n      dup2\n        /* \"#utility.yul\":2061:2067   */\n      dup5\n        /* \"#utility.yul\":1997:2075   */\n      tag_53\n      jump\t// in\n    tag_87:\n        /* \"#utility.yul\":1989:2075   */\n      swap1\n      pop\n        /* \"#utility.yul\":1769:2082   */\n      swap3\n      swap2\n      pop\n      pop\n      jump\t// out\n        /* \"#utility.yul\":2088:2165   */\n    tag_54:\n        /* \"#utility.yul\":2125:2132   */\n      0x00\n        /* \"#utility.yul\":2154:2159   */\n      dup2\n        /* \"#utility.yul\":2143:2159   */\n      swap1\n      pop\n        /* \"#utility.yul\":2088:2165   */\n      swap2\n      swap1\n      pop\n      jump\t// out\n        /* \"#utility.yul\":2171:2289   */\n    tag_55:\n        /* \"#utility.yul\":2258:2282   */\n      tag_90\n        /* \"#utility.yul\":2276:2281   */\n      dup2\n        /* \"#utility.yul\":2258:2282   */\n      tag_54\n      jump\t// in\n    tag_90:\n        /* \"#utility.yul\":2253:2256   */\n      dup3\n        /* \"#utility.yul\":2246:2283   */\n      mstore\n        /* \"#utility.yul\":2171:2289   */\n      pop\n      pop\n      jump\t// out\n        /* \"#utility.yul\":2295:2517   */\n    tag_25:\n        /* \"#utility.yul\":2388:2392   */\n      0x00\n        /* \"#utility.yul\":2426:2428   */\n      0x20\n        /* \"#utility.yul\":2415:2424   */\n      dup3\n        /* \"#utility.yul\":2411:2429   */\n      add\n        /* \"#utility.yul\":2403:2429   */\n      swap1\n      pop\n        /* \"#utility.yul\":2439:2510   */\n      tag_92\n        /* \"#utility.yul\":2507:2508   */\n      0x00\n        /* \"#utility.yul\":2496:2505   */\n      dup4\n        /* \"#utility.yul\":2492:2509   */\n      add\n        /* \"#utility.yul\":2483:2489   */\n      dup5\n        /* \"#utility.yul\":2439:2510   */\n      tag_55\n      jump\t// in\n    tag_92:\n        /* \"#utility.yul\":2295:2517   */\n      swap3\n      swap2\n      pop\n      pop\n      jump\t// out\n        /* \"#utility.yul\":2604:2721   */\n    tag_57:\n        /* \"#utility.yul\":2713:2714   */\n      0x00\n        /* \"#utility.yul\":2710:2711   */\n      dup1\n        /* \"#utility.yul\":2703:2715   */\n      revert\n        /* \"#utility.yul\":2850:2968   */\n    tag_59:\n        /* \"#utility.yul\":2921:2943   */\n      tag_97\n        /* \"#utility.yul\":2937:2942   */\n      dup2\n        /* \"#utility.yul\":2921:2943   */\n      tag_45\n      jump\t// in\n    tag_97:\n        /* \"#utility.yul\":2914:2919   */\n      dup2\n        /* \"#utility.yul\":2911:2944   */\n      eq\n        /* \"#utility.yul\":2901:2962   */\n      tag_98\n      jumpi\n        /* \"#utility.yul\":2958:2959   */\n      0x00\n        /* \"#utility.yul\":2955:2956   */\n      dup1\n        /* \"#utility.yul\":2948:2960   */\n      revert\n        /* \"#utility.yul\":2901:2962   */\n    tag_98:\n        /* \"#utility.yul\":2850:2968   */\n      pop\n      jump\t// out\n        /* \"#utility.yul\":2974:3113   */\n    tag_60:\n        /* \"#utility.yul\":3029:3034   */\n      0x00\n        /* \"#utility.yul\":3060:3066   */\n      dup2\n        /* \"#utility.yul\":3054:3067   */\n      mload\n        /* \"#utility.yul\":3045:3067   */\n      swap1\n      pop\n        /* \"#utility.yul\":3076:3107   */\n      tag_100\n        /* \"#utility.yul\":3101:3106   */\n      dup2\n        /* \"#utility.yul\":3076:3107   */\n      tag_59\n      jump\t// in\n    tag_100:\n        /* \"#utility.yul\":2974:3113   */\n      swap3\n      swap2\n      pop\n      pop\n      jump\t// out\n        /* \"#utility.yul\":3119:3466   */\n    tag_29:\n        /* \"#utility.yul\":3187:3193   */\n      0x00\n        /* \"#utility.yul\":3236:3238   */\n      0x20\n        /* \"#utility.yul\":3224:3233   */\n      dup3\n        /* \"#utility.yul\":3215:3222   */\n      dup5\n        /* \"#utility.yul\":3211:3234   */\n      sub\n        /* \"#utility.yul\":3207:3239   */\n      slt\n        /* \"#utility.yul\":3204:3323   */\n      iszero\n      tag_102\n      jumpi\n        /* \"#utility.yul\":3242:3321   */\n      tag_103\n      tag_57\n      jump\t// in\n    tag_103:\n        /* \"#utility.yul\":3204:3323   */\n    tag_102:\n        /* \"#utility.yul\":3362:3363   */\n      0x00\n        /* \"#utility.yul\":3387:3449   */\n      tag_104\n        /* \"#utility.yul\":3441:3448   */\n      dup5\n        /* \"#utility.yul\":3432:3438   */\n      dup3\n        /* \"#utility.yul\":3421:3430   */\n      dup6\n        /* \"#utility.yul\":3417:3439   */\n      add\n        /* \"#utility.yul\":3387:3449   */\n      tag_60\n      jump\t// in\n    tag_104:\n        /* \"#utility.yul\":3377:3449   */\n      swap2\n      pop\n        /* \"#utility.yul\":3333:3459   */\n      pop\n        /* \"#utility.yul\":3119:3466   */\n      swap3\n      swap2\n      pop\n      pop\n      jump\t// out\n        /* \"#utility.yul\":3472:3548   */\n    tag_61:\n        /* \"#utility.yul\":3508:3515   */\n      0x00\n        /* \"#utility.yul\":3537:3542   */\n      dup2\n        /* \"#utility.yul\":3526:3542   */\n      swap1\n      pop\n        /* \"#utility.yul\":3472:3548   */\n      swap2\n      swap1\n      pop\n      jump\t// out\n        /* \"#utility.yul\":3554:3674   */\n    tag_62:\n        /* \"#utility.yul\":3626:3649   */\n      tag_107\n        /* \"#utility.yul\":3643:3648   */\n      dup2\n        /* \"#utility.yul\":3626:3649   */\n      tag_61\n      jump\t// in\n    tag_107:\n        /* \"#utility.yul\":3619:3624   */\n      dup2\n        /* \"#utility.yul\":3616:3650   */\n      eq\n        /* \"#utility.yul\":3606:3668   */\n      tag_108\n      jumpi\n        /* \"#utility.yul\":3664:3665   */\n      0x00\n        /* \"#utility.yul\":3661:3662   */\n      dup1\n        /* \"#utility.yul\":3654:3666   */\n      revert\n        /* \"#utility.yul\":3606:3668   */\n    tag_108:\n        /* \"#utility.yul\":3554:3674   */\n      pop\n      jump\t// out\n        /* \"#utility.yul\":3680:3821   */\n    tag_63:\n        /* \"#utility.yul\":3736:3741   */\n      0x00\n        /* \"#utility.yul\":3767:3773   */\n      dup2\n        /* \"#utility.yul\":3761:3774   */\n      mload\n        /* \"#utility.yul\":3752:3774   */\n      swap1\n      pop\n        /* \"#utility.yul\":3783:3815   */\n      tag_110\n        /* \"#utility.yul\":3809:3814   */\n      dup2\n        /* \"#utility.yul\":3783:3815   */\n      tag_62\n      jump\t// in\n    tag_110:\n        /* \"#utility.yul\":3680:3821   */\n      swap3\n      swap2\n      pop\n      pop\n      jump\t// out\n        /* \"#utility.yul\":3827:4176   */\n    tag_38:\n        /* \"#utility.yul\":3896:3902   */\n      0x00\n        /* \"#utility.yul\":3945:3947   */\n      0x20\n        /* \"#utility.yul\":3933:3942   */\n      dup3\n        /* \"#utility.yul\":3924:3931   */\n      dup5\n        /* \"#utility.yul\":3920:3943   */\n      sub\n        /* \"#utility.yul\":3916:3948   */\n      slt\n        /* \"#utility.yul\":3913:4032   */\n      iszero\n      tag_112\n      jumpi\n        /* \"#utility.yul\":3951:4030   */\n      tag_113\n      tag_57\n      jump\t// in\n    tag_113:\n        /* \"#utility.yul\":3913:4032   */\n    tag_112:\n        /* \"#utility.yul\":4071:4072   */\n      0x00\n        /* \"#utility.yul\":4096:4159   */\n      tag_114\n        /* \"#utility.yul\":4151:4158   */\n      dup5\n        /* \"#utility.yul\":4142:4148   */\n      dup3\n        /* \"#utility.yul\":4131:4140   */\n      dup6\n        /* \"#utility.yul\":4127:4149   */\n      add\n        /* \"#utility.yul\":4096:4159   */\n      tag_63\n      jump\t// in\n    tag_114:\n        /* \"#utility.yul\":4086:4159   */\n      swap2\n      pop\n        /* \"#utility.yul\":4042:4169   */\n      pop\n        /* \"#utility.yul\":3827:4176   */\n      swap3\n      swap2\n      pop\n      pop\n      jump\t// out\n\n    auxdata: 0xa2646970667358221220cc46fff03ee3b073087820befb318e7bbe8a62097e93738f397b55e9822ce47164736f6c63430008120033\n}\n",
				"bytecode": {
					"linkReferences": {},
					"object": "608060405234801561001057600080fd5b50610486806100206000396000f3fe6080604052600436106100385760003560e01c806316f0a3861461004d5780638052474d14610079578063f9a4bbbe146100a45761003f565b3661003f57005b34801561004b57600080fd5b005b34801561005957600080fd5b506100626100cf565b604051610070929190610280565b60405180910390f35b34801561008557600080fd5b5061008e61016b565b60405161009b9190610339565b60405180910390f35b3480156100b057600080fd5b506100b96101a4565b6040516100c69190610374565b60405180910390f35b60008073ab594600376ec9fd91f8e885dadf0ce036862de073ffffffffffffffffffffffffffffffffffffffff1663313ce5676040518163ffffffff1660e01b8152600401602060405180830381865afa92505050801561014e57506040513d601f19601f8201168201806040525081019061014b91906103c0565b60015b61015e5760008091509150610167565b80600192509250505b9091565b6040518060400160405280601381526020017f2e436f72706f726174696f6e2e4f7261636c650000000000000000000000000081525081565b600073ab594600376ec9fd91f8e885dadf0ce036862de073ffffffffffffffffffffffffffffffffffffffff166350d25bcd6040518163ffffffff1660e01b8152600401602060405180830381865afa92505050801561022257506040513d601f19601f8201168201806040525081019061021f9190610423565b60015b61022f5760009050610246565b60008113610241576000915050610246565b809150505b90565b600060ff82169050919050565b61025f81610249565b82525050565b60008115159050919050565b61027a81610265565b82525050565b60006040820190506102956000830185610256565b6102a26020830184610271565b9392505050565b600081519050919050565b600082825260208201905092915050565b60005b838110156102e35780820151818401526020810190506102c8565b60008484015250505050565b6000601f19601f8301169050919050565b600061030b826102a9565b61031581856102b4565b93506103258185602086016102c5565b61032e816102ef565b840191505092915050565b600060208201905081810360008301526103538184610300565b905092915050565b6000819050919050565b61036e8161035b565b82525050565b60006020820190506103896000830184610365565b92915050565b600080fd5b61039d81610249565b81146103a857600080fd5b50565b6000815190506103ba81610394565b92915050565b6000602082840312156103d6576103d561038f565b5b60006103e4848285016103ab565b91505092915050565b6000819050919050565b610400816103ed565b811461040b57600080fd5b50565b60008151905061041d816103f7565b92915050565b6000602082840312156104395761043861038f565b5b60006104478482850161040e565b9150509291505056fea2646970667358221220cc46fff03ee3b073087820befb318e7bbe8a62097e93738f397b55e9822ce47164736f6c63430008120033",
					"opcodes": "PUSH1 0x80 PUSH1 0x40 MSTORE CALLVALUE DUP1 ISZERO PUSH2 0x10 JUMPI PUSH1 0x0 DUP1 REVERT JUMPDEST POP PUSH2 0x486 DUP1 PUSH2 0x20 PUSH1 0x0 CODECOPY PUSH1 0x0 RETURN INVALID PUSH1 0x80 PUSH1 0x40 MSTORE PUSH1 0x4 CALLDATASIZE LT PUSH2 0x38 JUMPI PUSH1 0x0 CALLDATALOAD PUSH1 0xE0 SHR DUP1 PUSH4 0x16F0A386 EQ PUSH2 0x4D JUMPI DUP1 PUSH4 0x8052474D EQ PUSH2 0x79 JUMPI DUP1 PUSH4 0xF9A4BBBE EQ PUSH2 0xA4 JUMPI PUSH2 0x3F JUMP JUMPDEST CALLDATASIZE PUSH2 0x3F JUMPI STOP JUMPDEST CALLVALUE DUP1 ISZERO PUSH2 0x4B JUMPI PUSH1 0x0 DUP1 REVERT JUMPDEST STOP JUMPDEST CALLVALUE DUP1 ISZERO PUSH2 0x59 JUMPI PUSH1 0x0 DUP1 REVERT JUMPDEST POP PUSH2 0x62 PUSH2 0xCF JUMP JUMPDEST PUSH1 0x40 MLOAD PUSH2 0x70 SWAP3 SWAP2 SWAP1 PUSH2 0x280 JUMP JUMPDEST PUSH1 0x40 MLOAD DUP1 SWAP2 SUB SWAP1 RETURN JUMPDEST CALLVALUE DUP1 ISZERO PUSH2 0x85 JUMPI PUSH1 0x0 DUP1 REVERT JUMPDEST POP PUSH2 0x8E PUSH2 0x16B JUMP JUMPDEST PUSH1 0x40 MLOAD PUSH2 0x9B SWAP2 SWAP1 PUSH2 0x339 JUMP JUMPDEST PUSH1 0x40 MLOAD DUP1 SWAP2 SUB SWAP1 RETURN JUMPDEST CALLVALUE DUP1 ISZERO PUSH2 0xB0 JUMPI PUSH1 0x0 DUP1 REVERT JUMPDEST POP PUSH2 0xB9 PUSH2 0x1A4 JUMP JUMPDEST PUSH1 0x40 MLOAD PUSH2 0xC6 SWAP2 SWAP1 PUSH2 0x374 JUMP JUMPDEST PUSH1 0x40 MLOAD DUP1 SWAP2 SUB SWAP1 RETURN JUMPDEST PUSH1 0x0 DUP1 PUSH20 0xAB594600376EC9FD91F8E885DADF0CE036862DE0 PUSH20 0xFFFFFFFFFFFFFFFFFFFFFFFFFFFFFFFFFFFFFFFF AND PUSH4 0x313CE567 PUSH1 0x40 MLOAD DUP2 PUSH4 0xFFFFFFFF AND PUSH1 0xE0 SHL DUP2 MSTORE PUSH1 0x4 ADD PUSH1 0x20 PUSH1 0x40 MLOAD DUP1 DUP4 SUB DUP2 DUP7 GAS STATICCALL SWAP3 POP POP POP DUP1 ISZERO PUSH2 0x14E JUMPI POP PUSH1 0x40 MLOAD RETURNDATASIZE PUSH1 0x1F NOT PUSH1 0x1F DUP3 ADD AND DUP3 ADD DUP1 PUSH1 0x40 MSTORE POP DUP2 ADD SWAP1 PUSH2 0x14B SWAP2 SWAP1 PUSH2 0x3C0 JUMP JUMPDEST PUSH1 0x1 JUMPDEST PUSH2 0x15E JUMPI PUSH1 0x0 DUP1 SWAP2 POP SWAP2 POP PUSH2 0x167 JUMP JUMPDEST DUP1 PUSH1 0x1 SWAP3 POP SWAP3 POP POP JUMPDEST SWAP1 SWAP2 JUMP JUMPDEST PUSH1 0x40 MLOAD DUP1 PUSH1 0x40 ADD PUSH1 0x40 MSTORE DUP1 PUSH1 0x13 DUP2 MSTORE PUSH1 0x20 ADD PUSH32 0x2E436F72706F726174696F6E2E4F7261636C6500000000000000000000000000 DUP2 MSTORE POP DUP2 JUMP JUMPDEST PUSH1 0x0 PUSH20 0xAB594600376EC9FD91F8E885DADF0CE036862DE0 PUSH20 0xFFFFFFFFFFFFFFFFFFFFFFFFFFFFFFFFFFFFFFFF AND PUSH4 0x50D25BCD PUSH1 0x40 MLOAD DUP2 PUSH4 0xFFFFFFFF AND PUSH1 0xE0 SHL DUP2 MSTORE PUSH1 0x4 ADD PUSH1 0x20 PUSH1 0x40 MLOAD DUP1 DUP4 SUB DUP2 DUP7 GAS STATICCALL SWAP3 POP POP POP DUP1 ISZERO PUSH2 0x222 JUMPI POP PUSH1 0x40 MLOAD RETURNDATASIZE PUSH1 0x1F NOT PUSH1 0x1F DUP3 ADD AND DUP3 ADD DUP1 PUSH1 0x40 MSTORE POP DUP2 ADD SWAP1 PUSH2 0x21F SWAP2 SWAP1 PUSH2 0x423 JUMP JUMPDEST PUSH1 0x1 JUMPDEST PUSH2 0x22F JUMPI PUSH1 0x0 SWAP1 POP PUSH2 0x246 JUMP JUMPDEST PUSH1 0x0 DUP2 SGT PUSH2 0x241 JUMPI PUSH1 0x0 SWAP2 POP POP PUSH2 0x246 JUMP JUMPDEST DUP1 SWAP2 POP POP JUMPDEST SWAP1 JUMP JUMPDEST PUSH1 0x0 PUSH1 0xFF DUP3 AND SWAP1 POP SWAP2 SWAP1 POP JUMP JUMPDEST PUSH2 0x25F DUP2 PUSH2 0x249 JUMP JUMPDEST DUP3 MSTORE POP POP JUMP JUMPDEST PUSH1 0x0 DUP2 ISZERO ISZERO SWAP1 POP SWAP2 SWAP1 POP JUMP JUMPDEST PUSH2 0x27A DUP2 PUSH2 0x265 JUMP JUMPDEST DUP3 MSTORE POP POP JUMP JUMPDEST PUSH1 0x0 PUSH1 0x40 DUP3 ADD SWAP1 POP PUSH2 0x295 PUSH1 0x0 DUP4 ADD DUP6 PUSH2 0x256 JUMP JUMPDEST PUSH2 0x2A2 PUSH1 0x20 DUP4 ADD DUP5 PUSH2 0x271 JUMP JUMPDEST SWAP4 SWAP3 POP POP POP JUMP JUMPDEST PUSH1 0x0 DUP2 MLOAD SWAP1 POP SWAP2 SWAP1 POP JUMP JUMPDEST PUSH1 0x0 DUP3 DUP3 MSTORE PUSH1 0x20 DUP3 ADD SWAP1 POP SWAP3 SWAP2 POP POP JUMP JUMPDEST PUSH1 0x0 JUMPDEST DUP4 DUP2 LT ISZERO PUSH2 0x2E3 JUMPI DUP1 DUP3 ADD MLOAD DUP2 DUP5 ADD MSTORE PUSH1 0x20 DUP2 ADD SWAP1 POP PUSH2 0x2C8 JUMP JUMPDEST PUSH1 0x0 DUP5 DUP5 ADD MSTORE POP POP POP POP JUMP JUMPDEST PUSH1 0x0 PUSH1 0x1F NOT PUSH1 0x1F DUP4 ADD AND SWAP1 POP SWAP2 SWAP1 POP JUMP JUMPDEST PUSH1 0x0 PUSH2 0x30B DUP3 PUSH2 0x2A9 JUMP JUMPDEST PUSH2 0x315 DUP2 DUP6 PUSH2 0x2B4 JUMP JUMPDEST SWAP4 POP PUSH2 0x325 DUP2 DUP6 PUSH1 0x20 DUP7 ADD PUSH2 0x2C5 JUMP JUMPDEST PUSH2 0x32E DUP2 PUSH2 0x2EF JUMP JUMPDEST DUP5 ADD SWAP2 POP POP SWAP3 SWAP2 POP POP JUMP JUMPDEST PUSH1 0x0 PUSH1 0x20 DUP3 ADD SWAP1 POP DUP2 DUP2 SUB PUSH1 0x0 DUP4 ADD MSTORE PUSH2 0x353 DUP2 DUP5 PUSH2 0x300 JUMP JUMPDEST SWAP1 POP SWAP3 SWAP2 POP POP JUMP JUMPDEST PUSH1 0x0 DUP2 SWAP1 POP SWAP2 SWAP1 POP JUMP JUMPDEST PUSH2 0x36E DUP2 PUSH2 0x35B JUMP JUMPDEST DUP3 MSTORE POP POP JUMP JUMPDEST PUSH1 0x0 PUSH1 0x20 DUP3 ADD SWAP1 POP PUSH2 0x389 PUSH1 0x0 DUP4 ADD DUP5 PUSH2 0x365 JUMP JUMPDEST SWAP3 SWAP2 POP POP JUMP JUMPDEST PUSH1 0x0 DUP1 REVERT JUMPDEST PUSH2 0x39D DUP2 PUSH2 0x249 JUMP JUMPDEST DUP2 EQ PUSH2 0x3A8 JUMPI PUSH1 0x0 DUP1 REVERT JUMPDEST POP JUMP JUMPDEST PUSH1 0x0 DUP2 MLOAD SWAP1 POP PUSH2 0x3BA DUP2 PUSH2 0x394 JUMP JUMPDEST SWAP3 SWAP2 POP POP JUMP JUMPDEST PUSH1 0x0 PUSH1 0x20 DUP3 DUP5 SUB SLT ISZERO PUSH2 0x3D6 JUMPI PUSH2 0x3D5 PUSH2 0x38F JUMP JUMPDEST JUMPDEST PUSH1 0x0 PUSH2 0x3E4 DUP5 DUP3 DUP6 ADD PUSH2 0x3AB JUMP JUMPDEST SWAP2 POP POP SWAP3 SWAP2 POP POP JUMP JUMPDEST PUSH1 0x0 DUP2 SWAP1 POP SWAP2 SWAP1 POP JUMP JUMPDEST PUSH2 0x400 DUP2 PUSH2 0x3ED JUMP JUMPDEST DUP2 EQ PUSH2 0x40B JUMPI PUSH1 0x0 DUP1 REVERT JUMPDEST POP JUMP JUMPDEST PUSH1 0x0 DUP2 MLOAD SWAP1 POP PUSH2 0x41D DUP2 PUSH2 0x3F7 JUMP JUMPDEST SWAP3 SWAP2 POP POP JUMP JUMPDEST PUSH1 0x0 PUSH1 0x20 DUP3 DUP5 SUB SLT ISZERO PUSH2 0x439 JUMPI PUSH2 0x438 PUSH2 0x38F JUMP JUMPDEST JUMPDEST PUSH1 0x0 PUSH2 0x447 DUP5 DUP3 DUP6 ADD PUSH2 0x40E JUMP JUMPDEST SWAP2 POP POP SWAP3 SWAP2 POP POP JUMP INVALID LOG2 PUSH5 0x6970667358 0x22 SLT KECCAK256 0xCC CHAINID SELFDESTRUCT CREATE RETURNDATACOPY 0xE3 0xB0 PUSH20 0x87820BEFB318E7BBE8A62097E93738F397B55E9 DUP3 0x2C 0xE4 PUSH18 0x64736F6C6343000812003300000000000000 "
				},
				"gasEstimates": {
					"creation": {
						"codeDepositCost": "231600",
						"executionCost": "275",
						"totalCost": "231875"
					},
					"external": {
						"": "156",
						"GetMATICDecimals()": "infinite",
						"GetMATICPrice()": "infinite",
						"Name()": "infinite"
					}
				},
				"methodIdentifiers": {
					"GetMATICDecimals()": "16f0a386",
					"GetMATICPrice()": "f9a4bbbe",
					"Name()": "8052474d"
				}
			},
			"storageLayout": {
				"storage": [],
				"types": null
			},
			"userdoc": {
				"kind": "user",
				"methods": {},
				"version": 1
			}
		}
	}
}