{
	"contracts/Payment/Proccessor.sol": {
		"Proccessor": {
			"abi": [
				{
					"inputs": [],
					"stateMutability": "nonpayable",
					"type": "constructor"
				},
				{
					"anonymous": false,
					"inputs": [
						{
							"indexed": true,
							"internalType": "address",
							"name": "_from",
							"type": "address"
						},
						{
							"indexed": true,
							"internalType": "address",
							"name": "_receiver",
							"type": "address"
						},
						{
							"indexed": false,
							"internalType": "address",
							"name": "_currency",
							"type": "address"
						},
						{
							"indexed": false,
							"internalType": "uint256",
							"name": "_amount",
							"type": "uint256"
						}
					],
					"name": "Proccessed",
					"type": "event"
				},
				{
					"stateMutability": "payable",
					"type": "fallback"
				},
				{
					"inputs": [],
					"name": "Name",
					"outputs": [
						{
							"internalType": "string",
							"name": "",
							"type": "string"
						}
					],
					"stateMutability": "view",
					"type": "function"
				},
				{
					"inputs": [
						{
							"internalType": "string",
							"name": "_symbol",
							"type": "string"
						},
						{
							"internalType": "uint256",
							"name": "_amount",
							"type": "uint256"
						},
						{
							"internalType": "address",
							"name": "_receiver",
							"type": "address"
						},
						{
							"internalType": "address",
							"name": "_implementor",
							"type": "address"
						}
					],
					"name": "Proccess",
					"outputs": [
						{
							"internalType": "bool",
							"name": "",
							"type": "bool"
						}
					],
					"stateMutability": "payable",
					"type": "function"
				},
				{
					"stateMutability": "payable",
					"type": "receive"
				}
			],
			"devdoc": {
				"kind": "dev",
				"methods": {},
				"version": 1
			},
			"evm": {
				"assembly": "    /* \"contracts/Payment/Proccessor.sol\":1315:7749  contract Proccessor{... */\n  mstore(0x40, 0xa0)\n    /* \"contracts/Payment/Proccessor.sol\":1816:1821  false */\n  0x00\n    /* \"contracts/Payment/Proccessor.sol\":1785:1821  bool private reentrantLocked = false */\n  dup1\n  sload\n  not(0xff)\n  and\n  swap1\n  sstore\n    /* \"contracts/Payment/Proccessor.sol\":2836:2895  constructor(){... */\n  callvalue\n  dup1\n  iszero\n  tag_1\n  jumpi\n  0x00\n  dup1\n  revert\ntag_1:\n  pop\n    /* \"contracts/Payment/Proccessor.sol\":1962:2004  0x477D7bd757c281419b69154Ac05116748cd6E6df */\n  0x477d7bd757c281419b69154ac05116748cd6e6df\n  sub(shl(0xa0, 0x01), 0x01)\n    /* \"contracts/Payment/Proccessor.sol\":2874:2885  pt.GetMATIC */\n  and\n  0xee5503d0\n    /* \"contracts/Payment/Proccessor.sol\":2874:2887  pt.GetMATIC() */\n  mload(0x40)\n  dup2\n  0xffffffff\n  and\n  0xe0\n  shl\n  dup2\n  mstore\n  0x04\n  add\n  0x20\n  mload(0x40)\n  dup1\n  dup4\n  sub\n  dup2\n  dup7\n  gas\n  staticcall\n  iszero\n  dup1\n  iszero\n  tag_5\n  jumpi\n  returndatasize\n  0x00\n  dup1\n  returndatacopy\n  revert(0x00, returndatasize)\ntag_5:\n  pop\n  pop\n  pop\n  pop\n  mload(0x40)\n  returndatasize\n  not(0x1f)\n  0x1f\n  dup3\n  add\n  and\n  dup3\n  add\n  dup1\n  0x40\n  mstore\n  pop\n  dup2\n  add\n  swap1\n  tag_6\n  swap2\n  swap1\n  tag_7\n  jump\t// in\ntag_6:\n  sub(shl(0xa0, 0x01), 0x01)\n    /* \"contracts/Payment/Proccessor.sol\":2866:2887  MATIC = pt.GetMATIC() */\n  and\n  0x80\n  mstore\n    /* \"contracts/Payment/Proccessor.sol\":1315:7749  contract Proccessor{... */\n  jump(tag_9)\n    /* \"#utility.yul\":14:304   */\ntag_7:\n    /* \"#utility.yul\":84:90   */\n  0x00\n    /* \"#utility.yul\":137:139   */\n  0x20\n    /* \"#utility.yul\":125:134   */\n  dup3\n    /* \"#utility.yul\":116:123   */\n  dup5\n    /* \"#utility.yul\":112:135   */\n  sub\n    /* \"#utility.yul\":108:140   */\n  slt\n    /* \"#utility.yul\":105:157   */\n  iszero\n  tag_11\n  jumpi\n    /* \"#utility.yul\":153:154   */\n  0x00\n    /* \"#utility.yul\":150:151   */\n  dup1\n    /* \"#utility.yul\":143:155   */\n  revert\n    /* \"#utility.yul\":105:157   */\ntag_11:\n    /* \"#utility.yul\":179:195   */\n  dup2\n  mload\n  sub(shl(0xa0, 0x01), 0x01)\n    /* \"#utility.yul\":224:255   */\n  dup2\n  and\n    /* \"#utility.yul\":214:256   */\n  dup2\n  eq\n    /* \"#utility.yul\":204:274   */\n  tag_12\n  jumpi\n    /* \"#utility.yul\":270:271   */\n  0x00\n    /* \"#utility.yul\":267:268   */\n  dup1\n    /* \"#utility.yul\":260:272   */\n  revert\n    /* \"#utility.yul\":204:274   */\ntag_12:\n    /* \"#utility.yul\":293:298   */\n  swap4\n    /* \"#utility.yul\":14:304   */\n  swap3\n  pop\n  pop\n  pop\n  jump\t// out\ntag_9:\n    /* \"contracts/Payment/Proccessor.sol\":1315:7749  contract Proccessor{... */\n  mload(0x80)\n  codecopy(0x00, dataOffset(sub_0), dataSize(sub_0))\n  0x00\n  assignImmutable(\"0xa413d075ec804ca282f1637fedbe82ecda1992097d14e4d900d254e0f5fe523d\")\n  return(0x00, dataSize(sub_0))\nstop\n\nsub_0: assembly {\n        /* \"contracts/Payment/Proccessor.sol\":1315:7749  contract Proccessor{... */\n      mstore(0x40, 0x80)\n      jumpi(tag_1, lt(calldatasize, 0x04))\n      shr(0xe0, calldataload(0x00))\n      dup1\n      0x57d8686d\n      eq\n      tag_3\n      jumpi\n      dup1\n      0x8052474d\n      eq\n      tag_4\n      jumpi\n      stop\n    tag_1:\n      jumpi(tag_2, calldatasize)\n      stop\n    tag_2:\n      stop\n        /* \"contracts/Payment/Proccessor.sol\":6404:7585  function Proccess(string calldata _symbol, uint256 _amount, address _receiver, address _implementor) public payable returns(bool){... */\n    tag_3:\n      tag_9\n      tag_10\n      calldatasize\n      0x04\n      tag_11\n      jump\t// in\n    tag_10:\n      tag_12\n      jump\t// in\n    tag_9:\n      mload(0x40)\n        /* \"#utility.yul\":1286:1300   */\n      swap1\n      iszero\n        /* \"#utility.yul\":1279:1301   */\n      iszero\n        /* \"#utility.yul\":1261:1302   */\n      dup2\n      mstore\n        /* \"#utility.yul\":1249:1251   */\n      0x20\n        /* \"#utility.yul\":1234:1252   */\n      add\n        /* \"contracts/Payment/Proccessor.sol\":6404:7585  function Proccess(string calldata _symbol, uint256 _amount, address _receiver, address _implementor) public payable returns(bool){... */\n    tag_13:\n      mload(0x40)\n      dup1\n      swap2\n      sub\n      swap1\n      return\n        /* \"contracts/Payment/Proccessor.sol\":2326:2377  string constant public Name = \".Payment.Proccessor\" */\n    tag_4:\n      callvalue\n      dup1\n      iszero\n      tag_15\n      jumpi\n      0x00\n      dup1\n      revert\n    tag_15:\n      pop\n      tag_16\n      mload(0x40)\n      dup1\n      0x40\n      add\n      0x40\n      mstore\n      dup1\n      0x13\n      dup2\n      mstore\n      0x20\n      add\n      0x2e5061796d656e742e50726f63636573736f7200000000000000000000000000\n      dup2\n      mstore\n      pop\n      dup2\n      jump\n    tag_16:\n      mload(0x40)\n      tag_13\n      swap2\n      swap1\n      tag_19\n      jump\t// in\n        /* \"contracts/Payment/Proccessor.sol\":6404:7585  function Proccess(string calldata _symbol, uint256 _amount, address _receiver, address _implementor) public payable returns(bool){... */\n    tag_12:\n        /* \"contracts/Payment/Proccessor.sol\":6528:6532  bool */\n      0x00\n        /* \"contracts/Payment/Proccessor.sol\":6549:6564  reentrantLocked */\n      dup1\n      sload\n      0xff\n      and\n        /* \"contracts/Payment/Proccessor.sol\":6549:6572  reentrantLocked == true */\n      iszero\n      iszero\n        /* \"contracts/Payment/Proccessor.sol\":6549:6564  reentrantLocked */\n      0x01\n        /* \"contracts/Payment/Proccessor.sol\":6549:6572  reentrantLocked == true */\n      sub\n        /* \"contracts/Payment/Proccessor.sol\":6546:6614  if(reentrantLocked == true)... */\n      tag_21\n      jumpi\n        /* \"contracts/Payment/Proccessor.sol\":6587:6614  revert(\"Reentrance failed\") */\n      mload(0x40)\n      0x08c379a000000000000000000000000000000000000000000000000000000000\n      dup2\n      mstore\n        /* \"#utility.yul\":2230:2232   */\n      0x20\n        /* \"contracts/Payment/Proccessor.sol\":6587:6614  revert(\"Reentrance failed\") */\n      0x04\n      dup3\n      add\n        /* \"#utility.yul\":2212:2233   */\n      mstore\n        /* \"#utility.yul\":2269:2271   */\n      0x11\n        /* \"#utility.yul\":2249:2267   */\n      0x24\n      dup3\n      add\n        /* \"#utility.yul\":2242:2272   */\n      mstore\n        /* \"#utility.yul\":2308:2327   */\n      0x5265656e7472616e6365206661696c6564000000000000000000000000000000\n        /* \"#utility.yul\":2288:2306   */\n      0x44\n      dup3\n      add\n        /* \"#utility.yul\":2281:2328   */\n      mstore\n        /* \"#utility.yul\":2345:2363   */\n      0x64\n      add\n        /* \"contracts/Payment/Proccessor.sol\":6587:6614  revert(\"Reentrance failed\") */\n    tag_22:\n      mload(0x40)\n      dup1\n      swap2\n      sub\n      swap1\n      revert\n        /* \"contracts/Payment/Proccessor.sol\":6546:6614  if(reentrantLocked == true)... */\n    tag_21:\n        /* \"contracts/Payment/Proccessor.sol\":6627:6642  reentrantLocked */\n      0x00\n        /* \"contracts/Payment/Proccessor.sol\":6627:6649  reentrantLocked = true */\n      dup1\n      sload\n      0xffffffffffffffffffffffffffffffffffffffffffffffffffffffffffffff00\n      and\n        /* \"contracts/Payment/Proccessor.sol\":6645:6649  true */\n      0x01\n        /* \"contracts/Payment/Proccessor.sol\":6627:6649  reentrantLocked = true */\n      or\n      swap1\n      sstore\n        /* \"contracts/Payment/Proccessor.sol\":6701:6723  extcodesize(_receiver) */\n      dup3\n      extcodesize\n        /* \"contracts/Payment/Proccessor.sol\":6739:6748  size != 0 */\n      0xffffffff\n      dup2\n      and\n      iszero\n        /* \"contracts/Payment/Proccessor.sol\":6736:6793  if(size != 0)... */\n      tag_24\n      jumpi\n        /* \"contracts/Payment/Proccessor.sol\":6763:6793  revert(\"Receiver is contract\") */\n      mload(0x40)\n      0x08c379a000000000000000000000000000000000000000000000000000000000\n      dup2\n      mstore\n        /* \"#utility.yul\":2576:2578   */\n      0x20\n        /* \"contracts/Payment/Proccessor.sol\":6763:6793  revert(\"Receiver is contract\") */\n      0x04\n      dup3\n      add\n        /* \"#utility.yul\":2558:2579   */\n      mstore\n        /* \"#utility.yul\":2615:2617   */\n      0x14\n        /* \"#utility.yul\":2595:2613   */\n      0x24\n      dup3\n      add\n        /* \"#utility.yul\":2588:2618   */\n      mstore\n        /* \"#utility.yul\":2654:2676   */\n      0x526563656976657220697320636f6e7472616374000000000000000000000000\n        /* \"#utility.yul\":2634:2652   */\n      0x44\n      dup3\n      add\n        /* \"#utility.yul\":2627:2677   */\n      mstore\n        /* \"#utility.yul\":2694:2712   */\n      0x64\n      add\n        /* \"contracts/Payment/Proccessor.sol\":6763:6793  revert(\"Receiver is contract\") */\n      tag_22\n        /* \"#utility.yul\":2374:2718   */\n      jump\n        /* \"contracts/Payment/Proccessor.sol\":6736:6793  if(size != 0)... */\n    tag_24:\n      pop\n        /* \"contracts/Payment/Proccessor.sol\":6823:6848  extcodesize(_implementor) */\n      dup2\n      extcodesize\n        /* \"contracts/Payment/Proccessor.sol\":6864:6873  size != 0 */\n      0xffffffff\n      dup2\n      and\n      iszero\n        /* \"contracts/Payment/Proccessor.sol\":6861:6921  if(size != 0)... */\n      tag_27\n      jumpi\n        /* \"contracts/Payment/Proccessor.sol\":6888:6921  revert(\"Implementor is contract\") */\n      mload(0x40)\n      0x08c379a000000000000000000000000000000000000000000000000000000000\n      dup2\n      mstore\n        /* \"#utility.yul\":2925:2927   */\n      0x20\n        /* \"contracts/Payment/Proccessor.sol\":6888:6921  revert(\"Implementor is contract\") */\n      0x04\n      dup3\n      add\n        /* \"#utility.yul\":2907:2928   */\n      mstore\n        /* \"#utility.yul\":2964:2966   */\n      0x17\n        /* \"#utility.yul\":2944:2962   */\n      0x24\n      dup3\n      add\n        /* \"#utility.yul\":2937:2967   */\n      mstore\n        /* \"#utility.yul\":3003:3028   */\n      0x496d706c656d656e746f7220697320636f6e7472616374000000000000000000\n        /* \"#utility.yul\":2983:3001   */\n      0x44\n      dup3\n      add\n        /* \"#utility.yul\":2976:3029   */\n      mstore\n        /* \"#utility.yul\":3046:3064   */\n      0x64\n      add\n        /* \"contracts/Payment/Proccessor.sol\":6888:6921  revert(\"Implementor is contract\") */\n      tag_22\n        /* \"#utility.yul\":2723:3070   */\n      jump\n        /* \"contracts/Payment/Proccessor.sol\":6861:6921  if(size != 0)... */\n    tag_27:\n        /* \"contracts/Payment/Proccessor.sol\":7033:7058  abi.encodePacked(\"MATIC\") */\n      mload(0x40)\n        /* \"#utility.yul\":3289:3296   */\n      0x4d41544943000000000000000000000000000000000000000000000000000000\n        /* \"contracts/Payment/Proccessor.sol\":7033:7058  abi.encodePacked(\"MATIC\") */\n      0x20\n      dup3\n      add\n        /* \"#utility.yul\":3277:3297   */\n      mstore\n        /* \"contracts/Payment/Proccessor.sol\":6934:6954  address tokenAddress */\n      0x00\n      swap1\n        /* \"#utility.yul\":3313:3324   */\n      0x25\n      add\n        /* \"contracts/Payment/Proccessor.sol\":7033:7058  abi.encodePacked(\"MATIC\") */\n      mload(0x40)\n      0x20\n      dup2\n      dup4\n      sub\n      sub\n      dup2\n      mstore\n      swap1\n      0x40\n      mstore\n        /* \"contracts/Payment/Proccessor.sol\":7023:7059  keccak256(abi.encodePacked(\"MATIC\")) */\n      dup1\n      mload\n      swap1\n      0x20\n      add\n      keccak256\n        /* \"contracts/Payment/Proccessor.sol\":7010:7017  _symbol */\n      dup9\n      dup9\n        /* \"contracts/Payment/Proccessor.sol\":6993:7018  abi.encodePacked(_symbol) */\n      add(0x20, mload(0x40))\n      tag_32\n      swap3\n      swap2\n      swap1\n      tag_33\n      jump\t// in\n    tag_32:\n      mload(0x40)\n      0x20\n      dup2\n      dup4\n      sub\n      sub\n      dup2\n      mstore\n      swap1\n      0x40\n      mstore\n        /* \"contracts/Payment/Proccessor.sol\":6983:7019  keccak256(abi.encodePacked(_symbol)) */\n      dup1\n      mload\n      swap1\n      0x20\n      add\n      keccak256\n        /* \"contracts/Payment/Proccessor.sol\":6983:7059  keccak256(abi.encodePacked(_symbol)) == keccak256(abi.encodePacked(\"MATIC\")) */\n      eq\n        /* \"contracts/Payment/Proccessor.sol\":6983:7076  keccak256(abi.encodePacked(_symbol)) == keccak256(abi.encodePacked(\"MATIC\")) && msg.value > 0 */\n      dup1\n      iszero\n      tag_34\n      jumpi\n      pop\n        /* \"contracts/Payment/Proccessor.sol\":7075:7076  0 */\n      0x00\n        /* \"contracts/Payment/Proccessor.sol\":7063:7072  msg.value */\n      callvalue\n        /* \"contracts/Payment/Proccessor.sol\":7063:7076  msg.value > 0 */\n      gt\n        /* \"contracts/Payment/Proccessor.sol\":6983:7076  keccak256(abi.encodePacked(_symbol)) == keccak256(abi.encodePacked(\"MATIC\")) && msg.value > 0 */\n    tag_34:\n        /* \"contracts/Payment/Proccessor.sol\":6983:7092  keccak256(abi.encodePacked(_symbol)) == keccak256(abi.encodePacked(\"MATIC\")) && msg.value > 0 && _amount == 0 */\n      dup1\n      iszero\n      tag_35\n      jumpi\n      pop\n        /* \"contracts/Payment/Proccessor.sol\":7080:7092  _amount == 0 */\n      dup6\n      iszero\n        /* \"contracts/Payment/Proccessor.sol\":6983:7092  keccak256(abi.encodePacked(_symbol)) == keccak256(abi.encodePacked(\"MATIC\")) && msg.value > 0 && _amount == 0 */\n    tag_35:\n        /* \"contracts/Payment/Proccessor.sol\":6980:7444  if(keccak256(abi.encodePacked(_symbol)) == keccak256(abi.encodePacked(\"MATIC\")) && msg.value > 0 && _amount == 0)... */\n      iszero\n      tag_36\n      jumpi\n        /* \"contracts/Payment/Proccessor.sol\":7122:7172  _transferMATIC(msg.value, _receiver, _implementor) */\n      tag_37\n        /* \"contracts/Payment/Proccessor.sol\":7137:7146  msg.value */\n      callvalue\n        /* \"contracts/Payment/Proccessor.sol\":7148:7157  _receiver */\n      dup7\n        /* \"contracts/Payment/Proccessor.sol\":7159:7171  _implementor */\n      dup7\n        /* \"contracts/Payment/Proccessor.sol\":7122:7136  _transferMATIC */\n      tag_38\n        /* \"contracts/Payment/Proccessor.sol\":7122:7172  _transferMATIC(msg.value, _receiver, _implementor) */\n      jump\t// in\n    tag_37:\n        /* \"contracts/Payment/Proccessor.sol\":7107:7172  tokenAddress = _transferMATIC(msg.value, _receiver, _implementor) */\n      swap1\n      pop\n        /* \"contracts/Payment/Proccessor.sol\":6980:7444  if(keccak256(abi.encodePacked(_symbol)) == keccak256(abi.encodePacked(\"MATIC\")) && msg.value > 0 && _amount == 0)... */\n      jump(tag_47)\n    tag_36:\n        /* \"contracts/Payment/Proccessor.sol\":7241:7266  abi.encodePacked(\"MATIC\") */\n      mload(0x40)\n        /* \"#utility.yul\":3289:3296   */\n      0x4d41544943000000000000000000000000000000000000000000000000000000\n        /* \"contracts/Payment/Proccessor.sol\":7241:7266  abi.encodePacked(\"MATIC\") */\n      0x20\n      dup3\n      add\n        /* \"#utility.yul\":3277:3297   */\n      mstore\n        /* \"#utility.yul\":3313:3324   */\n      0x25\n      add\n        /* \"contracts/Payment/Proccessor.sol\":7241:7266  abi.encodePacked(\"MATIC\") */\n      mload(0x40)\n      0x20\n      dup2\n      dup4\n      sub\n      sub\n      dup2\n      mstore\n      swap1\n      0x40\n      mstore\n        /* \"contracts/Payment/Proccessor.sol\":7231:7267  keccak256(abi.encodePacked(\"MATIC\")) */\n      dup1\n      mload\n      swap1\n      0x20\n      add\n      keccak256\n        /* \"contracts/Payment/Proccessor.sol\":7218:7225  _symbol */\n      dup9\n      dup9\n        /* \"contracts/Payment/Proccessor.sol\":7201:7226  abi.encodePacked(_symbol) */\n      add(0x20, mload(0x40))\n      tag_41\n      swap3\n      swap2\n      swap1\n      tag_33\n      jump\t// in\n    tag_41:\n      mload(0x40)\n      0x20\n      dup2\n      dup4\n      sub\n      sub\n      dup2\n      mstore\n      swap1\n      0x40\n      mstore\n        /* \"contracts/Payment/Proccessor.sol\":7191:7227  keccak256(abi.encodePacked(_symbol)) */\n      dup1\n      mload\n      swap1\n      0x20\n      add\n      keccak256\n        /* \"contracts/Payment/Proccessor.sol\":7191:7267  keccak256(abi.encodePacked(_symbol)) != keccak256(abi.encodePacked(\"MATIC\")) */\n      eq\n      iszero\n        /* \"contracts/Payment/Proccessor.sol\":7191:7282  keccak256(abi.encodePacked(_symbol)) != keccak256(abi.encodePacked(\"MATIC\")) && _amount > 0 */\n      dup1\n      iszero\n      tag_42\n      jumpi\n      pop\n        /* \"contracts/Payment/Proccessor.sol\":7281:7282  0 */\n      0x00\n        /* \"contracts/Payment/Proccessor.sol\":7271:7278  _amount */\n      dup7\n        /* \"contracts/Payment/Proccessor.sol\":7271:7282  _amount > 0 */\n      gt\n        /* \"contracts/Payment/Proccessor.sol\":7191:7282  keccak256(abi.encodePacked(_symbol)) != keccak256(abi.encodePacked(\"MATIC\")) && _amount > 0 */\n    tag_42:\n        /* \"contracts/Payment/Proccessor.sol\":7191:7300  keccak256(abi.encodePacked(_symbol)) != keccak256(abi.encodePacked(\"MATIC\")) && _amount > 0 && msg.value == 0 */\n      dup1\n      iszero\n      tag_43\n      jumpi\n      pop\n        /* \"contracts/Payment/Proccessor.sol\":7286:7295  msg.value */\n      callvalue\n        /* \"contracts/Payment/Proccessor.sol\":7286:7300  msg.value == 0 */\n      iszero\n        /* \"contracts/Payment/Proccessor.sol\":7191:7300  keccak256(abi.encodePacked(_symbol)) != keccak256(abi.encodePacked(\"MATIC\")) && _amount > 0 && msg.value == 0 */\n    tag_43:\n        /* \"contracts/Payment/Proccessor.sol\":7188:7444  if(keccak256(abi.encodePacked(_symbol)) != keccak256(abi.encodePacked(\"MATIC\")) && _amount > 0 && msg.value == 0)... */\n      iszero\n      tag_44\n      jumpi\n        /* \"contracts/Payment/Proccessor.sol\":7330:7387  _transferToken(_symbol, _amount, _receiver, _implementor) */\n      tag_37\n        /* \"contracts/Payment/Proccessor.sol\":7345:7352  _symbol */\n      dup9\n      dup9\n        /* \"contracts/Payment/Proccessor.sol\":7354:7361  _amount */\n      dup9\n        /* \"contracts/Payment/Proccessor.sol\":7363:7372  _receiver */\n      dup9\n        /* \"contracts/Payment/Proccessor.sol\":7374:7386  _implementor */\n      dup9\n        /* \"contracts/Payment/Proccessor.sol\":7330:7344  _transferToken */\n      tag_46\n        /* \"contracts/Payment/Proccessor.sol\":7330:7387  _transferToken(_symbol, _amount, _receiver, _implementor) */\n      jump\t// in\n        /* \"contracts/Payment/Proccessor.sol\":7188:7444  if(keccak256(abi.encodePacked(_symbol)) != keccak256(abi.encodePacked(\"MATIC\")) && _amount > 0 && msg.value == 0)... */\n    tag_44:\n        /* \"contracts/Payment/Proccessor.sol\":7416:7444  revert(\"Proccessing failed\") */\n      mload(0x40)\n      0x08c379a000000000000000000000000000000000000000000000000000000000\n      dup2\n      mstore\n        /* \"#utility.yul\":3815:3817   */\n      0x20\n        /* \"contracts/Payment/Proccessor.sol\":7416:7444  revert(\"Proccessing failed\") */\n      0x04\n      dup3\n      add\n        /* \"#utility.yul\":3797:3818   */\n      mstore\n        /* \"#utility.yul\":3854:3856   */\n      0x12\n        /* \"#utility.yul\":3834:3852   */\n      0x24\n      dup3\n      add\n        /* \"#utility.yul\":3827:3857   */\n      mstore\n        /* \"#utility.yul\":3893:3913   */\n      0x50726f6363657373696e67206661696c65640000000000000000000000000000\n        /* \"#utility.yul\":3873:3891   */\n      0x44\n      dup3\n      add\n        /* \"#utility.yul\":3866:3914   */\n      mstore\n        /* \"#utility.yul\":3931:3949   */\n      0x64\n      add\n        /* \"contracts/Payment/Proccessor.sol\":7416:7444  revert(\"Proccessing failed\") */\n      tag_22\n        /* \"#utility.yul\":3613:3955   */\n      jump\n        /* \"contracts/Payment/Proccessor.sol\":7188:7444  if(keccak256(abi.encodePacked(_symbol)) != keccak256(abi.encodePacked(\"MATIC\")) && _amount > 0 && msg.value == 0)... */\n    tag_47:\n        /* \"contracts/Payment/Proccessor.sol\":7475:7480  false */\n      0x00\n        /* \"contracts/Payment/Proccessor.sol\":7457:7480  reentrantLocked = false */\n      dup1\n      sload\n      0xffffffffffffffffffffffffffffffffffffffffffffffffffffffffffffff00\n      and\n      swap1\n      sstore\n        /* \"contracts/Payment/Proccessor.sol\":7498:7554  Proccessed(msg.sender, _receiver, tokenAddress, _amount) */\n      0x40\n      dup1\n      mload\n      0xffffffffffffffffffffffffffffffffffffffff\n        /* \"#utility.yul\":4152:4207   */\n      dup4\n      dup2\n      and\n        /* \"#utility.yul\":4134:4208   */\n      dup3\n      mstore\n        /* \"#utility.yul\":4239:4241   */\n      0x20\n        /* \"#utility.yul\":4224:4242   */\n      dup3\n      add\n        /* \"#utility.yul\":4217:4251   */\n      dup10\n      swap1\n      mstore\n        /* \"contracts/Payment/Proccessor.sol\":7498:7554  Proccessed(msg.sender, _receiver, tokenAddress, _amount) */\n      dup8\n      and\n      swap2\n        /* \"contracts/Payment/Proccessor.sol\":7509:7519  msg.sender */\n      caller\n      swap2\n        /* \"contracts/Payment/Proccessor.sol\":7498:7554  Proccessed(msg.sender, _receiver, tokenAddress, _amount) */\n      0x9e1501bf0bdb2da757d89a99a50272ce437437bd8e162153ed6016e61f324ba5\n      swap2\n        /* \"#utility.yul\":4107:4125   */\n      add\n        /* \"contracts/Payment/Proccessor.sol\":7498:7554  Proccessed(msg.sender, _receiver, tokenAddress, _amount) */\n      mload(0x40)\n      dup1\n      swap2\n      sub\n      swap1\n      log3\n      pop\n        /* \"contracts/Payment/Proccessor.sol\":7572:7576  true */\n      0x01\n      swap8\n        /* \"contracts/Payment/Proccessor.sol\":6404:7585  function Proccess(string calldata _symbol, uint256 _amount, address _receiver, address _implementor) public payable returns(bool){... */\n      swap7\n      pop\n      pop\n      pop\n      pop\n      pop\n      pop\n      pop\n      jump\t// out\n        /* \"contracts/Payment/Proccessor.sol\":3979:4832  function _transferMATIC(uint256 _amount, address _receiver, address _implementor) private returns(address){... */\n    tag_38:\n        /* \"contracts/Payment/Proccessor.sol\":4077:4084  address */\n      0x00\n        /* \"contracts/Payment/Proccessor.sol\":4099:4114  uint256 ramount */\n      dup1\n        /* \"contracts/Payment/Proccessor.sol\":4116:4131  uint256 iamount */\n      0x00\n        /* \"contracts/Payment/Proccessor.sol\":4133:4148  uint256 vamount */\n      dup1\n        /* \"contracts/Payment/Proccessor.sol\":4152:4190  _split(\"MATIC\", _amount, _implementor) */\n      tag_53\n      mload(0x40)\n      dup1\n      0x40\n      add\n      0x40\n      mstore\n      dup1\n      0x05\n      dup2\n      mstore\n      0x20\n      add\n      0x4d41544943000000000000000000000000000000000000000000000000000000\n      dup2\n      mstore\n      pop\n        /* \"contracts/Payment/Proccessor.sol\":4168:4175  _amount */\n      dup9\n        /* \"contracts/Payment/Proccessor.sol\":4177:4189  _implementor */\n      dup8\n        /* \"contracts/Payment/Proccessor.sol\":4152:4158  _split */\n      tag_54\n        /* \"contracts/Payment/Proccessor.sol\":4152:4190  _split(\"MATIC\", _amount, _implementor) */\n      jump\t// in\n    tag_53:\n        /* \"contracts/Payment/Proccessor.sol\":4226:4269  pt.GetContractAddress(\".Corporation.Vault\") */\n      mload(0x40)\n      0xc75ffd8600000000000000000000000000000000000000000000000000000000\n      dup2\n      mstore\n        /* \"#utility.yul\":4464:4466   */\n      0x20\n        /* \"contracts/Payment/Proccessor.sol\":4226:4269  pt.GetContractAddress(\".Corporation.Vault\") */\n      0x04\n      dup3\n      add\n        /* \"#utility.yul\":4446:4467   */\n      mstore\n        /* \"#utility.yul\":4503:4505   */\n      0x12\n        /* \"#utility.yul\":4483:4501   */\n      0x24\n      dup3\n      add\n        /* \"#utility.yul\":4476:4506   */\n      mstore\n        /* \"#utility.yul\":4542:4562   */\n      0x2e436f72706f726174696f6e2e5661756c740000000000000000000000000000\n        /* \"#utility.yul\":4522:4540   */\n      0x44\n      dup3\n      add\n        /* \"#utility.yul\":4515:4563   */\n      mstore\n        /* \"contracts/Payment/Proccessor.sol\":4098:4190  (uint256 ramount, uint256 iamount, uint256 vamount) = _split(\"MATIC\", _amount, _implementor) */\n      swap3\n      swap6\n      pop\n      swap1\n      swap4\n      pop\n      swap2\n      pop\n        /* \"contracts/Payment/Proccessor.sol\":4203:4223  address vaultAddress */\n      0x00\n      swap1\n        /* \"contracts/Payment/Proccessor.sol\":1962:2004  0x477D7bd757c281419b69154Ac05116748cd6E6df */\n      0x477d7bd757c281419b69154ac05116748cd6e6df\n      swap1\n        /* \"contracts/Payment/Proccessor.sol\":4226:4247  pt.GetContractAddress */\n      0xc75ffd86\n      swap1\n        /* \"#utility.yul\":4580:4598   */\n      0x64\n      add\n        /* \"contracts/Payment/Proccessor.sol\":4226:4269  pt.GetContractAddress(\".Corporation.Vault\") */\n      0x20\n      mload(0x40)\n      dup1\n      dup4\n      sub\n      dup2\n      dup7\n      gas\n      staticcall\n      iszero\n      dup1\n      iszero\n      tag_58\n      jumpi\n      returndatasize\n      0x00\n      dup1\n      returndatacopy\n      revert(0x00, returndatasize)\n    tag_58:\n      pop\n      pop\n      pop\n      pop\n      mload(0x40)\n      returndatasize\n      not(0x1f)\n      0x1f\n      dup3\n      add\n      and\n      dup3\n      add\n      dup1\n      0x40\n      mstore\n      pop\n      dup2\n      add\n      swap1\n      tag_59\n      swap2\n      swap1\n      tag_60\n      jump\t// in\n    tag_59:\n        /* \"contracts/Payment/Proccessor.sol\":4302:4343  pt.GetContractAddress(\".Payment.Swapper\") */\n      mload(0x40)\n      0xc75ffd8600000000000000000000000000000000000000000000000000000000\n      dup2\n      mstore\n        /* \"#utility.yul\":5067:5069   */\n      0x20\n        /* \"contracts/Payment/Proccessor.sol\":4302:4343  pt.GetContractAddress(\".Payment.Swapper\") */\n      0x04\n      dup3\n      add\n        /* \"#utility.yul\":5049:5070   */\n      mstore\n        /* \"#utility.yul\":5106:5108   */\n      0x10\n        /* \"#utility.yul\":5086:5104   */\n      0x24\n      dup3\n      add\n        /* \"#utility.yul\":5079:5109   */\n      mstore\n        /* \"#utility.yul\":5145:5163   */\n      0x2e5061796d656e742e5377617070657200000000000000000000000000000000\n        /* \"#utility.yul\":5125:5143   */\n      0x44\n      dup3\n      add\n        /* \"#utility.yul\":5118:5164   */\n      mstore\n        /* \"contracts/Payment/Proccessor.sol\":4203:4269  address vaultAddress = pt.GetContractAddress(\".Corporation.Vault\") */\n      swap1\n      swap2\n      pop\n        /* \"contracts/Payment/Proccessor.sol\":4280:4299  address swapAddress */\n      0x00\n      swap1\n        /* \"contracts/Payment/Proccessor.sol\":1962:2004  0x477D7bd757c281419b69154Ac05116748cd6E6df */\n      0x477d7bd757c281419b69154ac05116748cd6e6df\n      swap1\n        /* \"contracts/Payment/Proccessor.sol\":4302:4323  pt.GetContractAddress */\n      0xc75ffd86\n      swap1\n        /* \"#utility.yul\":5181:5199   */\n      0x64\n      add\n        /* \"contracts/Payment/Proccessor.sol\":4302:4343  pt.GetContractAddress(\".Payment.Swapper\") */\n      0x20\n      mload(0x40)\n      dup1\n      dup4\n      sub\n      dup2\n      dup7\n      gas\n      staticcall\n      iszero\n      dup1\n      iszero\n      tag_64\n      jumpi\n      returndatasize\n      0x00\n      dup1\n      returndatacopy\n      revert(0x00, returndatasize)\n    tag_64:\n      pop\n      pop\n      pop\n      pop\n      mload(0x40)\n      returndatasize\n      not(0x1f)\n      0x1f\n      dup3\n      add\n      and\n      dup3\n      add\n      dup1\n      0x40\n      mstore\n      pop\n      dup2\n      add\n      swap1\n      tag_65\n      swap2\n      swap1\n      tag_60\n      jump\t// in\n    tag_65:\n        /* \"contracts/Payment/Proccessor.sol\":4280:4343  address swapAddress = pt.GetContractAddress(\".Payment.Swapper\") */\n      swap1\n      pop\n        /* \"contracts/Payment/Proccessor.sol\":4364:4373  _receiver */\n      dup8\n        /* \"contracts/Payment/Proccessor.sol\":4356:4379  payable(_receiver).call */\n      0xffffffffffffffffffffffffffffffffffffffff\n      and\n        /* \"contracts/Payment/Proccessor.sol\":4388:4395  ramount */\n      dup6\n        /* \"contracts/Payment/Proccessor.sol\":4356:4400  payable(_receiver).call{value : ramount}(\"\") */\n      mload(0x40)\n      0x00\n      mload(0x40)\n      dup1\n      dup4\n      sub\n      dup2\n      dup6\n      dup8\n      gas\n      call\n      swap3\n      pop\n      pop\n      pop\n      returndatasize\n      dup1\n      0x00\n      dup2\n      eq\n      tag_70\n      jumpi\n      mload(0x40)\n      swap2\n      pop\n      and(add(returndatasize, 0x3f), not(0x1f))\n      dup3\n      add\n      0x40\n      mstore\n      returndatasize\n      dup3\n      mstore\n      returndatasize\n      0x00\n      0x20\n      dup5\n      add\n      returndatacopy\n      jump(tag_69)\n    tag_70:\n      0x60\n      swap2\n      pop\n    tag_69:\n      pop\n      pop\n      pop\n        /* \"contracts/Payment/Proccessor.sol\":4416:4442  _implementor != address(0) */\n      0xffffffffffffffffffffffffffffffffffffffff\n      dup8\n      and\n      iszero\n        /* \"contracts/Payment/Proccessor.sol\":4413:4504  if(_implementor != address(0))... */\n      tag_71\n      jumpi\n        /* \"contracts/Payment/Proccessor.sol\":4457:4504  payable(_implementor).call{value : iamount}(\"\") */\n      mload(0x40)\n        /* \"contracts/Payment/Proccessor.sol\":4457:4483  payable(_implementor).call */\n      0xffffffffffffffffffffffffffffffffffffffff\n      dup9\n      and\n      swap1\n        /* \"contracts/Payment/Proccessor.sol\":4492:4499  iamount */\n      dup6\n      swap1\n        /* \"contracts/Payment/Proccessor.sol\":4457:4504  payable(_implementor).call{value : iamount}(\"\") */\n      0x00\n      dup2\n      dup2\n      dup2\n        /* \"contracts/Payment/Proccessor.sol\":4492:4499  iamount */\n      dup6\n        /* \"contracts/Payment/Proccessor.sol\":4457:4483  payable(_implementor).call */\n      dup8\n        /* \"contracts/Payment/Proccessor.sol\":4457:4504  payable(_implementor).call{value : iamount}(\"\") */\n      gas\n      call\n      swap3\n      pop\n      pop\n      pop\n      returndatasize\n      dup1\n      0x00\n      dup2\n      eq\n      tag_75\n      jumpi\n      mload(0x40)\n      swap2\n      pop\n      and(add(returndatasize, 0x3f), not(0x1f))\n      dup3\n      add\n      0x40\n      mstore\n      returndatasize\n      dup3\n      mstore\n      returndatasize\n      0x00\n      0x20\n      dup5\n      add\n      returndatacopy\n      jump(tag_74)\n    tag_75:\n      0x60\n      swap2\n      pop\n    tag_74:\n      pop\n      pop\n      pop\n        /* \"contracts/Payment/Proccessor.sol\":4413:4504  if(_implementor != address(0))... */\n    tag_71:\n        /* \"contracts/Payment/Proccessor.sol\":4528:4554  vaultAddress != address(0) */\n      0xffffffffffffffffffffffffffffffffffffffff\n      dup3\n      and\n      iszero\n        /* \"contracts/Payment/Proccessor.sol\":4525:4798  if(vaultAddress != address(0))... */\n      tag_76\n      jumpi\n        /* \"contracts/Payment/Proccessor.sol\":4577:4589  vaultAddress */\n      dup2\n        /* \"contracts/Payment/Proccessor.sol\":4569:4595  payable(vaultAddress).call */\n      0xffffffffffffffffffffffffffffffffffffffff\n      and\n        /* \"contracts/Payment/Proccessor.sol\":4604:4611  vamount */\n      dup4\n        /* \"contracts/Payment/Proccessor.sol\":4569:4616  payable(vaultAddress).call{value : vamount}(\"\") */\n      mload(0x40)\n    tag_77:\n      0x00\n      mload(0x40)\n      dup1\n      dup4\n      sub\n      dup2\n      dup6\n      dup8\n      gas\n      call\n      swap3\n      pop\n      pop\n      pop\n      returndatasize\n      dup1\n      0x00\n      dup2\n      eq\n      tag_80\n      jumpi\n      mload(0x40)\n      swap2\n      pop\n      and(add(returndatasize, 0x3f), not(0x1f))\n      dup3\n      add\n      0x40\n      mstore\n      returndatasize\n      dup3\n      mstore\n      returndatasize\n      0x00\n      0x20\n      dup5\n      add\n      returndatacopy\n      jump(tag_79)\n    tag_80:\n      0x60\n      swap2\n      pop\n    tag_79:\n      pop\n      pop\n      pop\n        /* \"contracts/Payment/Proccessor.sol\":4525:4798  if(vaultAddress != address(0))... */\n      jump(tag_87)\n    tag_76:\n        /* \"contracts/Payment/Proccessor.sol\":4635:4660  swapAddress != address(0) */\n      0xffffffffffffffffffffffffffffffffffffffff\n      dup2\n      and\n      iszero\n        /* \"contracts/Payment/Proccessor.sol\":4632:4798  if(swapAddress != address(0))... */\n      tag_82\n      jumpi\n        /* \"contracts/Payment/Proccessor.sol\":4683:4694  swapAddress */\n      dup1\n        /* \"contracts/Payment/Proccessor.sol\":4675:4700  payable(swapAddress).call */\n      0xffffffffffffffffffffffffffffffffffffffff\n      and\n        /* \"contracts/Payment/Proccessor.sol\":4709:4716  vamount */\n      dup4\n        /* \"contracts/Payment/Proccessor.sol\":4675:4721  payable(swapAddress).call{value : vamount}(\"\") */\n      mload(0x40)\n      tag_77\n        /* \"#utility.yul\":5210:5415   */\n      jump\n        /* \"contracts/Payment/Proccessor.sol\":4632:4798  if(swapAddress != address(0))... */\n    tag_82:\n        /* \"contracts/Payment/Proccessor.sol\":1962:2004  0x477D7bd757c281419b69154Ac05116748cd6E6df */\n      0x477d7bd757c281419b69154ac05116748cd6e6df\n        /* \"contracts/Payment/Proccessor.sol\":4758:4769  pt.GetOwner */\n      0xffffffffffffffffffffffffffffffffffffffff\n      and\n      0x0ae50a39\n        /* \"contracts/Payment/Proccessor.sol\":4758:4771  pt.GetOwner() */\n      mload(0x40)\n      dup2\n      0xffffffff\n      and\n      0xe0\n      shl\n      dup2\n      mstore\n      0x04\n      add\n      0x20\n      mload(0x40)\n      dup1\n      dup4\n      sub\n      dup2\n      dup7\n      gas\n      staticcall\n      iszero\n      dup1\n      iszero\n      tag_89\n      jumpi\n      returndatasize\n      0x00\n      dup1\n      returndatacopy\n      revert(0x00, returndatasize)\n    tag_89:\n      pop\n      pop\n      pop\n      pop\n      mload(0x40)\n      returndatasize\n      not(0x1f)\n      0x1f\n      dup3\n      add\n      and\n      dup3\n      add\n      dup1\n      0x40\n      mstore\n      pop\n      dup2\n      add\n      swap1\n      tag_90\n      swap2\n      swap1\n      tag_60\n      jump\t// in\n    tag_90:\n        /* \"contracts/Payment/Proccessor.sol\":4750:4777  payable(pt.GetOwner()).call */\n      0xffffffffffffffffffffffffffffffffffffffff\n      and\n        /* \"contracts/Payment/Proccessor.sol\":4786:4793  vamount */\n      dup4\n        /* \"contracts/Payment/Proccessor.sol\":4750:4798  payable(pt.GetOwner()).call{value : vamount}(\"\") */\n      mload(0x40)\n      0x00\n      mload(0x40)\n      dup1\n      dup4\n      sub\n      dup2\n      dup6\n      dup8\n      gas\n      call\n      swap3\n      pop\n      pop\n      pop\n      returndatasize\n      dup1\n      0x00\n      dup2\n      eq\n      tag_94\n      jumpi\n      mload(0x40)\n      swap2\n      pop\n      and(add(returndatasize, 0x3f), not(0x1f))\n      dup3\n      add\n      0x40\n      mstore\n      returndatasize\n      dup3\n      mstore\n      returndatasize\n      0x00\n      0x20\n      dup5\n      add\n      returndatacopy\n      jump(tag_93)\n    tag_94:\n      0x60\n      swap2\n      pop\n    tag_93:\n      pop\n      pop\n      pop\n        /* \"contracts/Payment/Proccessor.sol\":4632:4798  if(swapAddress != address(0))... */\n    tag_87:\n      pop\n        /* \"contracts/Payment/Proccessor.sol\":4818:4823  MATIC */\n      immutable(\"0xa413d075ec804ca282f1637fedbe82ecda1992097d14e4d900d254e0f5fe523d\")\n      swap9\n        /* \"contracts/Payment/Proccessor.sol\":3979:4832  function _transferMATIC(uint256 _amount, address _receiver, address _implementor) private returns(address){... */\n      swap8\n      pop\n      pop\n      pop\n      pop\n      pop\n      pop\n      pop\n      pop\n      jump\t// out\n        /* \"contracts/Payment/Proccessor.sol\":4840:6207  function _transferToken(string calldata _symbol, uint256 _amount, address _receiver, address _implementor) private returns(address){... */\n    tag_46:\n        /* \"contracts/Payment/Proccessor.sol\":5009:5050  pt.GetContractAddress(\".Payment.Swapper\") */\n      mload(0x40)\n      0xc75ffd8600000000000000000000000000000000000000000000000000000000\n      dup2\n      mstore\n        /* \"#utility.yul\":5067:5069   */\n      0x20\n        /* \"contracts/Payment/Proccessor.sol\":5009:5050  pt.GetContractAddress(\".Payment.Swapper\") */\n      0x04\n      dup3\n      add\n        /* \"#utility.yul\":5049:5070   */\n      mstore\n        /* \"#utility.yul\":5106:5108   */\n      0x10\n        /* \"#utility.yul\":5086:5104   */\n      0x24\n      dup3\n      add\n        /* \"#utility.yul\":5079:5109   */\n      mstore\n        /* \"#utility.yul\":5145:5163   */\n      0x2e5061796d656e742e5377617070657200000000000000000000000000000000\n        /* \"#utility.yul\":5125:5143   */\n      0x44\n      dup3\n      add\n        /* \"#utility.yul\":5118:5164   */\n      mstore\n        /* \"contracts/Payment/Proccessor.sol\":4963:4970  address */\n      0x00\n      swap1\n      dup2\n      swap1\n        /* \"contracts/Payment/Proccessor.sol\":1962:2004  0x477D7bd757c281419b69154Ac05116748cd6E6df */\n      0x477d7bd757c281419b69154ac05116748cd6e6df\n      swap1\n        /* \"contracts/Payment/Proccessor.sol\":5009:5030  pt.GetContractAddress */\n      0xc75ffd86\n      swap1\n        /* \"#utility.yul\":5181:5199   */\n      0x64\n      add\n        /* \"contracts/Payment/Proccessor.sol\":5009:5050  pt.GetContractAddress(\".Payment.Swapper\") */\n      0x20\n      mload(0x40)\n      dup1\n      dup4\n      sub\n      dup2\n      dup7\n      gas\n      staticcall\n      iszero\n      dup1\n      iszero\n      tag_98\n      jumpi\n      returndatasize\n      0x00\n      dup1\n      returndatacopy\n      revert(0x00, returndatasize)\n    tag_98:\n      pop\n      pop\n      pop\n      pop\n      mload(0x40)\n      returndatasize\n      not(0x1f)\n      0x1f\n      dup3\n      add\n      and\n      dup3\n      add\n      dup1\n      0x40\n      mstore\n      pop\n      dup2\n      add\n      swap1\n      tag_99\n      swap2\n      swap1\n      tag_60\n      jump\t// in\n    tag_99:\n        /* \"contracts/Payment/Proccessor.sol\":5140:5184  pt.GetContractAddress(\".Payment.Currencies\") */\n      mload(0x40)\n      0xc75ffd8600000000000000000000000000000000000000000000000000000000\n      dup2\n      mstore\n        /* \"#utility.yul\":5622:5624   */\n      0x20\n        /* \"contracts/Payment/Proccessor.sol\":5140:5184  pt.GetContractAddress(\".Payment.Currencies\") */\n      0x04\n      dup3\n      add\n        /* \"#utility.yul\":5604:5625   */\n      mstore\n        /* \"#utility.yul\":5661:5663   */\n      0x13\n        /* \"#utility.yul\":5641:5659   */\n      0x24\n      dup3\n      add\n        /* \"#utility.yul\":5634:5664   */\n      mstore\n        /* \"#utility.yul\":5700:5721   */\n      0x2e5061796d656e742e43757272656e6369657300000000000000000000000000\n        /* \"#utility.yul\":5680:5698   */\n      0x44\n      dup3\n      add\n        /* \"#utility.yul\":5673:5722   */\n      mstore\n        /* \"contracts/Payment/Proccessor.sol\":4984:5050  address swapperAddress = pt.GetContractAddress(\".Payment.Swapper\") */\n      swap1\n      swap2\n      pop\n      dup2\n      swap1\n        /* \"contracts/Payment/Proccessor.sol\":5061:5072  ISwapper sw */\n      0x00\n      swap1\n        /* \"contracts/Payment/Proccessor.sol\":1962:2004  0x477D7bd757c281419b69154Ac05116748cd6E6df */\n      0x477d7bd757c281419b69154ac05116748cd6e6df\n      swap1\n        /* \"contracts/Payment/Proccessor.sol\":5140:5161  pt.GetContractAddress */\n      0xc75ffd86\n      swap1\n        /* \"#utility.yul\":5739:5757   */\n      0x64\n      add\n        /* \"contracts/Payment/Proccessor.sol\":5140:5184  pt.GetContractAddress(\".Payment.Currencies\") */\n      0x20\n      mload(0x40)\n      dup1\n      dup4\n      sub\n      dup2\n      dup7\n      gas\n      staticcall\n      iszero\n      dup1\n      iszero\n      tag_103\n      jumpi\n      returndatasize\n      0x00\n      dup1\n      returndatacopy\n      revert(0x00, returndatasize)\n    tag_103:\n      pop\n      pop\n      pop\n      pop\n      mload(0x40)\n      returndatasize\n      not(0x1f)\n      0x1f\n      dup3\n      add\n      and\n      dup3\n      add\n      dup1\n      0x40\n      mstore\n      pop\n      dup2\n      add\n      swap1\n      tag_104\n      swap2\n      swap1\n      tag_60\n      jump\t// in\n    tag_104:\n        /* \"contracts/Payment/Proccessor.sol\":5278:5308  cc.GetCurrencyAddress(_symbol) */\n      mload(0x40)\n      0xda240f1e00000000000000000000000000000000000000000000000000000000\n      dup2\n      mstore\n        /* \"contracts/Payment/Proccessor.sol\":5112:5184  address currenciesAddress = pt.GetContractAddress(\".Payment.Currencies\") */\n      swap1\n      swap2\n      pop\n      dup2\n      swap1\n        /* \"contracts/Payment/Proccessor.sol\":5195:5209  ICurrencies cc */\n      0x00\n      swap1\n        /* \"contracts/Payment/Proccessor.sol\":5278:5299  cc.GetCurrencyAddress */\n      0xffffffffffffffffffffffffffffffffffffffff\n      dup4\n      and\n      swap1\n      0xda240f1e\n      swap1\n        /* \"contracts/Payment/Proccessor.sol\":5278:5308  cc.GetCurrencyAddress(_symbol) */\n      tag_105\n      swap1\n        /* \"contracts/Payment/Proccessor.sol\":5300:5307  _symbol */\n      dup15\n      swap1\n      dup15\n      swap1\n        /* \"contracts/Payment/Proccessor.sol\":5278:5308  cc.GetCurrencyAddress(_symbol) */\n      0x04\n      add\n      tag_106\n      jump\t// in\n    tag_105:\n      0x20\n      mload(0x40)\n      dup1\n      dup4\n      sub\n      dup2\n      dup7\n      gas\n      staticcall\n      iszero\n      dup1\n      iszero\n      tag_108\n      jumpi\n      returndatasize\n      0x00\n      dup1\n      returndatacopy\n      revert(0x00, returndatasize)\n    tag_108:\n      pop\n      pop\n      pop\n      pop\n      mload(0x40)\n      returndatasize\n      not(0x1f)\n      0x1f\n      dup3\n      add\n      and\n      dup3\n      add\n      dup1\n      0x40\n      mstore\n      pop\n      dup2\n      add\n      swap1\n      tag_109\n      swap2\n      swap1\n      tag_60\n      jump\t// in\n    tag_109:\n        /* \"contracts/Payment/Proccessor.sol\":5255:5308  address tokenAddress = cc.GetCurrencyAddress(_symbol) */\n      swap1\n      pop\n      dup1\n        /* \"contracts/Payment/Proccessor.sol\":5367:5393  tokenAddress == address(0) */\n      0xffffffffffffffffffffffffffffffffffffffff\n      dup2\n      and\n        /* \"contracts/Payment/Proccessor.sol\":5364:5437  if(tokenAddress == address(0))... */\n      tag_110\n      jumpi\n        /* \"contracts/Payment/Proccessor.sol\":5408:5437  revert(\"Token not supported\") */\n      mload(0x40)\n      0x08c379a000000000000000000000000000000000000000000000000000000000\n      dup2\n      mstore\n        /* \"#utility.yul\":6424:6426   */\n      0x20\n        /* \"contracts/Payment/Proccessor.sol\":5408:5437  revert(\"Token not supported\") */\n      0x04\n      dup3\n      add\n        /* \"#utility.yul\":6406:6427   */\n      mstore\n        /* \"#utility.yul\":6463:6465   */\n      0x13\n        /* \"#utility.yul\":6443:6461   */\n      0x24\n      dup3\n      add\n        /* \"#utility.yul\":6436:6466   */\n      mstore\n        /* \"#utility.yul\":6502:6523   */\n      0x546f6b656e206e6f7420737570706f7274656400000000000000000000000000\n        /* \"#utility.yul\":6482:6500   */\n      0x44\n      dup3\n      add\n        /* \"#utility.yul\":6475:6524   */\n      mstore\n        /* \"#utility.yul\":6541:6559   */\n      0x64\n      add\n        /* \"contracts/Payment/Proccessor.sol\":5408:5437  revert(\"Token not supported\") */\n      tag_22\n        /* \"#utility.yul\":6222:6565   */\n      jump\n        /* \"contracts/Payment/Proccessor.sol\":5364:5437  if(tokenAddress == address(0))... */\n    tag_110:\n        /* \"contracts/Payment/Proccessor.sol\":5453:5477  tk.balanceOf(msg.sender) */\n      mload(0x40)\n      0x70a0823100000000000000000000000000000000000000000000000000000000\n      dup2\n      mstore\n        /* \"contracts/Payment/Proccessor.sol\":5466:5476  msg.sender */\n      caller\n        /* \"contracts/Payment/Proccessor.sol\":5453:5477  tk.balanceOf(msg.sender) */\n      0x04\n      dup3\n      add\n        /* \"#utility.yul\":6716:6790   */\n      mstore\n        /* \"contracts/Payment/Proccessor.sol\":5480:5487  _amount */\n      dup11\n      swap1\n        /* \"contracts/Payment/Proccessor.sol\":5453:5465  tk.balanceOf */\n      0xffffffffffffffffffffffffffffffffffffffff\n      dup4\n      and\n      swap1\n      0x70a08231\n      swap1\n        /* \"#utility.yul\":6689:6707   */\n      0x24\n      add\n        /* \"contracts/Payment/Proccessor.sol\":5453:5477  tk.balanceOf(msg.sender) */\n      0x20\n      mload(0x40)\n      dup1\n      dup4\n      sub\n      dup2\n      dup7\n      gas\n      staticcall\n      iszero\n      dup1\n      iszero\n      tag_116\n      jumpi\n      returndatasize\n      0x00\n      dup1\n      returndatacopy\n      revert(0x00, returndatasize)\n    tag_116:\n      pop\n      pop\n      pop\n      pop\n      mload(0x40)\n      returndatasize\n      not(0x1f)\n      0x1f\n      dup3\n      add\n      and\n      dup3\n      add\n      dup1\n      0x40\n      mstore\n      pop\n      dup2\n      add\n      swap1\n      tag_117\n      swap2\n      swap1\n      tag_118\n      jump\t// in\n    tag_117:\n        /* \"contracts/Payment/Proccessor.sol\":5453:5487  tk.balanceOf(msg.sender) < _amount */\n      lt\n        /* \"contracts/Payment/Proccessor.sol\":5450:5532  if(tk.balanceOf(msg.sender) < _amount)... */\n      iszero\n      tag_119\n      jumpi\n        /* \"contracts/Payment/Proccessor.sol\":5502:5532  revert(\"Insufficient balance\") */\n      mload(0x40)\n      0x08c379a000000000000000000000000000000000000000000000000000000000\n      dup2\n      mstore\n        /* \"#utility.yul\":7192:7194   */\n      0x20\n        /* \"contracts/Payment/Proccessor.sol\":5502:5532  revert(\"Insufficient balance\") */\n      0x04\n      dup3\n      add\n        /* \"#utility.yul\":7174:7195   */\n      mstore\n        /* \"#utility.yul\":7231:7233   */\n      0x14\n        /* \"#utility.yul\":7211:7229   */\n      0x24\n      dup3\n      add\n        /* \"#utility.yul\":7204:7234   */\n      mstore\n        /* \"#utility.yul\":7270:7292   */\n      0x496e73756666696369656e742062616c616e6365000000000000000000000000\n        /* \"#utility.yul\":7250:7268   */\n      0x44\n      dup3\n      add\n        /* \"#utility.yul\":7243:7293   */\n      mstore\n        /* \"#utility.yul\":7310:7328   */\n      0x64\n      add\n        /* \"contracts/Payment/Proccessor.sol\":5502:5532  revert(\"Insufficient balance\") */\n      tag_22\n        /* \"#utility.yul\":6990:7334   */\n      jump\n        /* \"contracts/Payment/Proccessor.sol\":5450:5532  if(tk.balanceOf(msg.sender) < _amount)... */\n    tag_119:\n        /* \"contracts/Payment/Proccessor.sol\":5548:5587  tk.allowance(msg.sender, address(this)) */\n      mload(0x40)\n      0xdd62ed3e00000000000000000000000000000000000000000000000000000000\n      dup2\n      mstore\n        /* \"contracts/Payment/Proccessor.sol\":5561:5571  msg.sender */\n      caller\n        /* \"contracts/Payment/Proccessor.sol\":5548:5587  tk.allowance(msg.sender, address(this)) */\n      0x04\n      dup3\n      add\n        /* \"#utility.yul\":7574:7608   */\n      mstore\n        /* \"contracts/Payment/Proccessor.sol\":5581:5585  this */\n      address\n        /* \"#utility.yul\":7624:7642   */\n      0x24\n      dup3\n      add\n        /* \"#utility.yul\":7617:7660   */\n      mstore\n        /* \"contracts/Payment/Proccessor.sol\":5590:5597  _amount */\n      dup11\n      swap1\n        /* \"contracts/Payment/Proccessor.sol\":5548:5560  tk.allowance */\n      0xffffffffffffffffffffffffffffffffffffffff\n      dup4\n      and\n      swap1\n      0xdd62ed3e\n      swap1\n        /* \"#utility.yul\":7486:7504   */\n      0x44\n      add\n        /* \"contracts/Payment/Proccessor.sol\":5548:5587  tk.allowance(msg.sender, address(this)) */\n      0x20\n      mload(0x40)\n      dup1\n      dup4\n      sub\n      dup2\n      dup7\n      gas\n      staticcall\n      iszero\n      dup1\n      iszero\n      tag_125\n      jumpi\n      returndatasize\n      0x00\n      dup1\n      returndatacopy\n      revert(0x00, returndatasize)\n    tag_125:\n      pop\n      pop\n      pop\n      pop\n      mload(0x40)\n      returndatasize\n      not(0x1f)\n      0x1f\n      dup3\n      add\n      and\n      dup3\n      add\n      dup1\n      0x40\n      mstore\n      pop\n      dup2\n      add\n      swap1\n      tag_126\n      swap2\n      swap1\n      tag_118\n      jump\t// in\n    tag_126:\n        /* \"contracts/Payment/Proccessor.sol\":5548:5597  tk.allowance(msg.sender, address(this)) < _amount */\n      lt\n        /* \"contracts/Payment/Proccessor.sol\":5545:5645  if(tk.allowance(msg.sender, address(this)) < _amount)... */\n      iszero\n      tag_127\n      jumpi\n        /* \"contracts/Payment/Proccessor.sol\":5612:5645  revert(\"Proccessor not approved\") */\n      mload(0x40)\n      0x08c379a000000000000000000000000000000000000000000000000000000000\n      dup2\n      mstore\n        /* \"#utility.yul\":7873:7875   */\n      0x20\n        /* \"contracts/Payment/Proccessor.sol\":5612:5645  revert(\"Proccessor not approved\") */\n      0x04\n      dup3\n      add\n        /* \"#utility.yul\":7855:7876   */\n      mstore\n        /* \"#utility.yul\":7912:7914   */\n      0x17\n        /* \"#utility.yul\":7892:7910   */\n      0x24\n      dup3\n      add\n        /* \"#utility.yul\":7885:7915   */\n      mstore\n        /* \"#utility.yul\":7951:7976   */\n      0x50726f63636573736f72206e6f7420617070726f766564000000000000000000\n        /* \"#utility.yul\":7931:7949   */\n      0x44\n      dup3\n      add\n        /* \"#utility.yul\":7924:7977   */\n      mstore\n        /* \"#utility.yul\":7994:8012   */\n      0x64\n      add\n        /* \"contracts/Payment/Proccessor.sol\":5612:5645  revert(\"Proccessor not approved\") */\n      tag_22\n        /* \"#utility.yul\":7671:8018   */\n      jump\n        /* \"contracts/Payment/Proccessor.sol\":5545:5645  if(tk.allowance(msg.sender, address(this)) < _amount)... */\n    tag_127:\n        /* \"contracts/Payment/Proccessor.sol\":5658:5709  tk.transferFrom(msg.sender, address(this), _amount) */\n      mload(0x40)\n      0x23b872dd00000000000000000000000000000000000000000000000000000000\n      dup2\n      mstore\n        /* \"contracts/Payment/Proccessor.sol\":5674:5684  msg.sender */\n      caller\n        /* \"contracts/Payment/Proccessor.sol\":5658:5709  tk.transferFrom(msg.sender, address(this), _amount) */\n      0x04\n      dup3\n      add\n        /* \"#utility.yul\":8286:8320   */\n      mstore\n        /* \"contracts/Payment/Proccessor.sol\":5694:5698  this */\n      address\n        /* \"#utility.yul\":8336:8354   */\n      0x24\n      dup3\n      add\n        /* \"#utility.yul\":8329:8372   */\n      mstore\n        /* \"#utility.yul\":8388:8406   */\n      0x44\n      dup2\n      add\n        /* \"#utility.yul\":8381:8415   */\n      dup12\n      swap1\n      mstore\n        /* \"contracts/Payment/Proccessor.sol\":5658:5673  tk.transferFrom */\n      0xffffffffffffffffffffffffffffffffffffffff\n      dup3\n      and\n      swap1\n      0x23b872dd\n      swap1\n        /* \"#utility.yul\":8198:8216   */\n      0x64\n      add\n        /* \"contracts/Payment/Proccessor.sol\":5658:5709  tk.transferFrom(msg.sender, address(this), _amount) */\n      0x20\n      mload(0x40)\n      dup1\n      dup4\n      sub\n      dup2\n      0x00\n      dup8\n      gas\n      call\n      iszero\n      dup1\n      iszero\n      tag_133\n      jumpi\n      returndatasize\n      0x00\n      dup1\n      returndatacopy\n      revert(0x00, returndatasize)\n    tag_133:\n      pop\n      pop\n      pop\n      pop\n      mload(0x40)\n      returndatasize\n      not(0x1f)\n      0x1f\n      dup3\n      add\n      and\n      dup3\n      add\n      dup1\n      0x40\n      mstore\n      pop\n      dup2\n      add\n      swap1\n      tag_134\n      swap2\n      swap1\n      tag_135\n      jump\t// in\n    tag_134:\n      pop\n        /* \"contracts/Payment/Proccessor.sol\":5723:5738  uint256 ramount */\n      0x00\n        /* \"contracts/Payment/Proccessor.sol\":5740:5755  uint256 iamount */\n      dup1\n        /* \"contracts/Payment/Proccessor.sol\":5757:5772  uint256 vamount */\n      0x00\n        /* \"contracts/Payment/Proccessor.sol\":5776:5814  _split(_symbol, _amount, _implementor) */\n      tag_136\n        /* \"contracts/Payment/Proccessor.sol\":5783:5790  _symbol */\n      dup16\n      dup16\n        /* \"contracts/Payment/Proccessor.sol\":5776:5814  _split(_symbol, _amount, _implementor) */\n      dup1\n      dup1\n      0x1f\n      add\n      0x20\n      dup1\n      swap2\n      div\n      mul\n      0x20\n      add\n      mload(0x40)\n      swap1\n      dup2\n      add\n      0x40\n      mstore\n      dup1\n      swap4\n      swap3\n      swap2\n      swap1\n      dup2\n      dup2\n      mstore\n      0x20\n      add\n      dup4\n      dup4\n      dup1\n      dup3\n      dup5\n      calldatacopy\n      0x00\n      dup2\n      dup5\n      add\n      mstore\n      not(0x1f)\n      0x1f\n      dup3\n      add\n      and\n      swap1\n      pop\n      dup1\n      dup4\n      add\n      swap3\n      pop\n      pop\n      pop\n      pop\n      pop\n      pop\n      pop\n        /* \"contracts/Payment/Proccessor.sol\":5792:5799  _amount */\n      dup15\n        /* \"contracts/Payment/Proccessor.sol\":5801:5813  _implementor */\n      dup14\n        /* \"contracts/Payment/Proccessor.sol\":5776:5782  _split */\n      tag_54\n        /* \"contracts/Payment/Proccessor.sol\":5776:5814  _split(_symbol, _amount, _implementor) */\n      jump\t// in\n    tag_136:\n        /* \"contracts/Payment/Proccessor.sol\":5722:5814  (uint256 ramount, uint256 iamount, uint256 vamount) = _split(_symbol, _amount, _implementor) */\n      swap3\n      pop\n      swap3\n      pop\n      swap3\n      pop\n        /* \"contracts/Payment/Proccessor.sol\":5827:5829  tk */\n      dup4\n        /* \"contracts/Payment/Proccessor.sol\":5827:5838  tk.transfer */\n      0xffffffffffffffffffffffffffffffffffffffff\n      and\n      0xa9059cbb\n        /* \"contracts/Payment/Proccessor.sol\":5839:5848  _receiver */\n      dup14\n        /* \"contracts/Payment/Proccessor.sol\":5850:5857  ramount */\n      dup6\n        /* \"contracts/Payment/Proccessor.sol\":5827:5858  tk.transfer(_receiver, ramount) */\n      mload(0x40)\n      dup4\n      0xffffffff\n      and\n      0xe0\n      shl\n      dup2\n      mstore\n      0x04\n      add\n      tag_137\n      swap3\n      swap2\n      swap1\n        /* \"#utility.yul\":4164:4206   */\n      0xffffffffffffffffffffffffffffffffffffffff\n        /* \"#utility.yul\":4152:4207   */\n      swap3\n      swap1\n      swap3\n      and\n        /* \"#utility.yul\":4134:4208   */\n      dup3\n      mstore\n        /* \"#utility.yul\":4239:4241   */\n      0x20\n        /* \"#utility.yul\":4224:4242   */\n      dup3\n      add\n        /* \"#utility.yul\":4217:4251   */\n      mstore\n        /* \"#utility.yul\":4122:4124   */\n      0x40\n        /* \"#utility.yul\":4107:4125   */\n      add\n      swap1\n        /* \"#utility.yul\":3960:4257   */\n      jump\n        /* \"contracts/Payment/Proccessor.sol\":5827:5858  tk.transfer(_receiver, ramount) */\n    tag_137:\n      0x20\n      mload(0x40)\n      dup1\n      dup4\n      sub\n      dup2\n      0x00\n      dup8\n      gas\n      call\n      iszero\n      dup1\n      iszero\n      tag_139\n      jumpi\n      returndatasize\n      0x00\n      dup1\n      returndatacopy\n      revert(0x00, returndatasize)\n    tag_139:\n      pop\n      pop\n      pop\n      pop\n      mload(0x40)\n      returndatasize\n      not(0x1f)\n      0x1f\n      dup3\n      add\n      and\n      dup3\n      add\n      dup1\n      0x40\n      mstore\n      pop\n      dup2\n      add\n      swap1\n      tag_140\n      swap2\n      swap1\n      tag_135\n      jump\t// in\n    tag_140:\n      pop\n        /* \"contracts/Payment/Proccessor.sol\":5874:5900  _implementor != address(0) */\n      0xffffffffffffffffffffffffffffffffffffffff\n      dup12\n      and\n      iszero\n        /* \"contracts/Payment/Proccessor.sol\":5871:5949  if(_implementor != address(0))... */\n      tag_141\n      jumpi\n        /* \"contracts/Payment/Proccessor.sol\":5915:5949  tk.transfer(_implementor, iamount) */\n      mload(0x40)\n      0xa9059cbb00000000000000000000000000000000000000000000000000000000\n      dup2\n      mstore\n        /* \"contracts/Payment/Proccessor.sol\":5915:5926  tk.transfer */\n      0xffffffffffffffffffffffffffffffffffffffff\n        /* \"#utility.yul\":4152:4207   */\n      dup13\n      dup2\n      and\n        /* \"contracts/Payment/Proccessor.sol\":5915:5949  tk.transfer(_implementor, iamount) */\n      0x04\n      dup4\n      add\n        /* \"#utility.yul\":4134:4208   */\n      mstore\n        /* \"#utility.yul\":4224:4242   */\n      0x24\n      dup3\n      add\n        /* \"#utility.yul\":4217:4251   */\n      dup5\n      swap1\n      mstore\n        /* \"contracts/Payment/Proccessor.sol\":5915:5926  tk.transfer */\n      dup6\n      and\n      swap1\n      0xa9059cbb\n      swap1\n        /* \"#utility.yul\":4107:4125   */\n      0x44\n      add\n        /* \"contracts/Payment/Proccessor.sol\":5915:5949  tk.transfer(_implementor, iamount) */\n      0x20\n      mload(0x40)\n      dup1\n      dup4\n      sub\n      dup2\n      0x00\n      dup8\n      gas\n      call\n      iszero\n      dup1\n      iszero\n      tag_144\n      jumpi\n      returndatasize\n      0x00\n      dup1\n      returndatacopy\n      revert(0x00, returndatasize)\n    tag_144:\n      pop\n      pop\n      pop\n      pop\n      mload(0x40)\n      returndatasize\n      not(0x1f)\n      0x1f\n      dup3\n      add\n      and\n      dup3\n      add\n      dup1\n      0x40\n      mstore\n      pop\n      dup2\n      add\n      swap1\n      tag_145\n      swap2\n      swap1\n      tag_135\n      jump\t// in\n    tag_145:\n      pop\n        /* \"contracts/Payment/Proccessor.sol\":5871:5949  if(_implementor != address(0))... */\n    tag_141:\n        /* \"contracts/Payment/Proccessor.sol\":5965:5993  swapperAddress != address(0) */\n      0xffffffffffffffffffffffffffffffffffffffff\n      dup10\n      and\n      iszero\n        /* \"contracts/Payment/Proccessor.sol\":5962:6166  if(swapperAddress != address(0)){... */\n      tag_146\n      jumpi\n        /* \"contracts/Payment/Proccessor.sol\":6011:6046  tk.approve(swapperAddress, vamount) */\n      mload(0x40)\n      0x095ea7b300000000000000000000000000000000000000000000000000000000\n      dup2\n      mstore\n        /* \"contracts/Payment/Proccessor.sol\":6011:6021  tk.approve */\n      0xffffffffffffffffffffffffffffffffffffffff\n        /* \"#utility.yul\":4152:4207   */\n      dup11\n      dup2\n      and\n        /* \"contracts/Payment/Proccessor.sol\":6011:6046  tk.approve(swapperAddress, vamount) */\n      0x04\n      dup4\n      add\n        /* \"#utility.yul\":4134:4208   */\n      mstore\n        /* \"#utility.yul\":4224:4242   */\n      0x24\n      dup3\n      add\n        /* \"#utility.yul\":4217:4251   */\n      dup4\n      swap1\n      mstore\n        /* \"contracts/Payment/Proccessor.sol\":6011:6021  tk.approve */\n      dup6\n      and\n      swap1\n      0x095ea7b3\n      swap1\n        /* \"#utility.yul\":4107:4125   */\n      0x44\n      add\n        /* \"contracts/Payment/Proccessor.sol\":6011:6046  tk.approve(swapperAddress, vamount) */\n      0x20\n      mload(0x40)\n      dup1\n      dup4\n      sub\n      dup2\n      0x00\n      dup8\n      gas\n      call\n      iszero\n      dup1\n      iszero\n      tag_149\n      jumpi\n      returndatasize\n      0x00\n      dup1\n      returndatacopy\n      revert(0x00, returndatasize)\n    tag_149:\n      pop\n      pop\n      pop\n      pop\n      mload(0x40)\n      returndatasize\n      not(0x1f)\n      0x1f\n      dup3\n      add\n      and\n      dup3\n      add\n      dup1\n      0x40\n      mstore\n      pop\n      dup2\n      add\n      swap1\n      tag_150\n      swap2\n      swap1\n      tag_135\n      jump\t// in\n    tag_150:\n      pop\n        /* \"contracts/Payment/Proccessor.sol\":6061:6091  sw.Swap(tokenAddress, vamount) */\n      mload(0x40)\n      0x562c219500000000000000000000000000000000000000000000000000000000\n      dup2\n      mstore\n        /* \"contracts/Payment/Proccessor.sol\":6061:6068  sw.Swap */\n      0xffffffffffffffffffffffffffffffffffffffff\n        /* \"#utility.yul\":4152:4207   */\n      dup7\n      dup2\n      and\n        /* \"contracts/Payment/Proccessor.sol\":6061:6091  sw.Swap(tokenAddress, vamount) */\n      0x04\n      dup4\n      add\n        /* \"#utility.yul\":4134:4208   */\n      mstore\n        /* \"#utility.yul\":4224:4242   */\n      0x24\n      dup3\n      add\n        /* \"#utility.yul\":4217:4251   */\n      dup4\n      swap1\n      mstore\n        /* \"contracts/Payment/Proccessor.sol\":6061:6068  sw.Swap */\n      dup10\n      and\n      swap1\n      0x562c2195\n      swap1\n        /* \"#utility.yul\":4107:4125   */\n      0x44\n      add\n        /* \"contracts/Payment/Proccessor.sol\":6061:6091  sw.Swap(tokenAddress, vamount) */\n      0x20\n      mload(0x40)\n      dup1\n      dup4\n      sub\n      dup2\n      0x00\n      dup8\n      gas\n      call\n      iszero\n      dup1\n      iszero\n      tag_153\n      jumpi\n      returndatasize\n      0x00\n      dup1\n      returndatacopy\n      revert(0x00, returndatasize)\n    tag_153:\n      pop\n      pop\n      pop\n      pop\n      mload(0x40)\n      returndatasize\n      not(0x1f)\n      0x1f\n      dup3\n      add\n      and\n      dup3\n      add\n      dup1\n      0x40\n      mstore\n      pop\n      dup2\n      add\n      swap1\n      tag_154\n      swap2\n      swap1\n      tag_135\n      jump\t// in\n    tag_154:\n      pop\n        /* \"contracts/Payment/Proccessor.sol\":5962:6166  if(swapperAddress != address(0)){... */\n      jump(tag_155)\n    tag_146:\n        /* \"contracts/Payment/Proccessor.sol\":6131:6133  tk */\n      dup4\n        /* \"contracts/Payment/Proccessor.sol\":6131:6142  tk.transfer */\n      0xffffffffffffffffffffffffffffffffffffffff\n      and\n      0xa9059cbb\n        /* \"contracts/Payment/Proccessor.sol\":1962:2004  0x477D7bd757c281419b69154Ac05116748cd6E6df */\n      0x477d7bd757c281419b69154ac05116748cd6e6df\n        /* \"contracts/Payment/Proccessor.sol\":6143:6154  pt.GetOwner */\n      0xffffffffffffffffffffffffffffffffffffffff\n      and\n      0x0ae50a39\n        /* \"contracts/Payment/Proccessor.sol\":6143:6156  pt.GetOwner() */\n      mload(0x40)\n      dup2\n      0xffffffff\n      and\n      0xe0\n      shl\n      dup2\n      mstore\n      0x04\n      add\n      0x20\n      mload(0x40)\n      dup1\n      dup4\n      sub\n      dup2\n      dup7\n      gas\n      staticcall\n      iszero\n      dup1\n      iszero\n      tag_157\n      jumpi\n      returndatasize\n      0x00\n      dup1\n      returndatacopy\n      revert(0x00, returndatasize)\n    tag_157:\n      pop\n      pop\n      pop\n      pop\n      mload(0x40)\n      returndatasize\n      not(0x1f)\n      0x1f\n      dup3\n      add\n      and\n      dup3\n      add\n      dup1\n      0x40\n      mstore\n      pop\n      dup2\n      add\n      swap1\n      tag_158\n      swap2\n      swap1\n      tag_60\n      jump\t// in\n    tag_158:\n        /* \"contracts/Payment/Proccessor.sol\":6131:6166  tk.transfer(pt.GetOwner(), vamount) */\n      mload(0x40)\n      0xffffffff00000000000000000000000000000000000000000000000000000000\n      0xe0\n      dup5\n      swap1\n      shl\n      and\n      dup2\n      mstore\n        /* \"#utility.yul\":4164:4206   */\n      0xffffffffffffffffffffffffffffffffffffffff\n        /* \"#utility.yul\":4152:4207   */\n      swap1\n      swap2\n      and\n        /* \"contracts/Payment/Proccessor.sol\":6131:6166  tk.transfer(pt.GetOwner(), vamount) */\n      0x04\n      dup3\n      add\n        /* \"#utility.yul\":4134:4208   */\n      mstore\n        /* \"#utility.yul\":4224:4242   */\n      0x24\n      dup2\n      add\n        /* \"#utility.yul\":4217:4251   */\n      dup5\n      swap1\n      mstore\n        /* \"#utility.yul\":4107:4125   */\n      0x44\n      add\n        /* \"contracts/Payment/Proccessor.sol\":6131:6166  tk.transfer(pt.GetOwner(), vamount) */\n      0x20\n      mload(0x40)\n      dup1\n      dup4\n      sub\n      dup2\n      0x00\n      dup8\n      gas\n      call\n      iszero\n      dup1\n      iszero\n      tag_161\n      jumpi\n      returndatasize\n      0x00\n      dup1\n      returndatacopy\n      revert(0x00, returndatasize)\n    tag_161:\n      pop\n      pop\n      pop\n      pop\n      mload(0x40)\n      returndatasize\n      not(0x1f)\n      0x1f\n      dup3\n      add\n      and\n      dup3\n      add\n      dup1\n      0x40\n      mstore\n      pop\n      dup2\n      add\n      swap1\n      tag_162\n      swap2\n      swap1\n      tag_135\n      jump\t// in\n    tag_162:\n      pop\n        /* \"contracts/Payment/Proccessor.sol\":5962:6166  if(swapperAddress != address(0)){... */\n    tag_155:\n      pop\n        /* \"contracts/Payment/Proccessor.sol\":6186:6198  tokenAddress */\n      swap3\n      swap14\n        /* \"contracts/Payment/Proccessor.sol\":4840:6207  function _transferToken(string calldata _symbol, uint256 _amount, address _receiver, address _implementor) private returns(address){... */\n      swap13\n      pop\n      pop\n      pop\n      pop\n      pop\n      pop\n      pop\n      pop\n      pop\n      pop\n      pop\n      pop\n      pop\n      jump\t// out\n        /* \"contracts/Payment/Proccessor.sol\":3002:3971  function _split(string memory _symbol, uint256 _amount, address _implementor) private returns(uint256 ramount, uint256 iamount, uint256 vamount){... */\n    tag_54:\n        /* \"contracts/Payment/Proccessor.sol\":3189:3235  pt.GetContractAddress(\".Payment.Implementors\") */\n      mload(0x40)\n      0xc75ffd8600000000000000000000000000000000000000000000000000000000\n      dup2\n      mstore\n        /* \"#utility.yul\":8910:8912   */\n      0x20\n        /* \"contracts/Payment/Proccessor.sol\":3189:3235  pt.GetContractAddress(\".Payment.Implementors\") */\n      0x04\n      dup3\n      add\n        /* \"#utility.yul\":8892:8913   */\n      mstore\n        /* \"#utility.yul\":8949:8951   */\n      0x15\n        /* \"#utility.yul\":8929:8947   */\n      0x24\n      dup3\n      add\n        /* \"#utility.yul\":8922:8952   */\n      mstore\n        /* \"#utility.yul\":8988:9011   */\n      0x2e5061796d656e742e496d706c656d656e746f72730000000000000000000000\n        /* \"#utility.yul\":8968:8986   */\n      0x44\n      dup3\n      add\n        /* \"#utility.yul\":8961:9012   */\n      mstore\n        /* \"contracts/Payment/Proccessor.sol\":3096:3111  uint256 ramount */\n      0x00\n      swap1\n      dup2\n      swap1\n      dup2\n      swap1\n      dup2\n      swap1\n        /* \"contracts/Payment/Proccessor.sol\":1962:2004  0x477D7bd757c281419b69154Ac05116748cd6E6df */\n      0x477d7bd757c281419b69154ac05116748cd6e6df\n      swap1\n        /* \"contracts/Payment/Proccessor.sol\":3189:3210  pt.GetContractAddress */\n      0xc75ffd86\n      swap1\n        /* \"#utility.yul\":9029:9047   */\n      0x64\n      add\n        /* \"contracts/Payment/Proccessor.sol\":3189:3235  pt.GetContractAddress(\".Payment.Implementors\") */\n      0x20\n      mload(0x40)\n      dup1\n      dup4\n      sub\n      dup2\n      dup7\n      gas\n      staticcall\n      iszero\n      dup1\n      iszero\n      tag_167\n      jumpi\n      returndatasize\n      0x00\n      dup1\n      returndatacopy\n      revert(0x00, returndatasize)\n    tag_167:\n      pop\n      pop\n      pop\n      pop\n      mload(0x40)\n      returndatasize\n      not(0x1f)\n      0x1f\n      dup3\n      add\n      and\n      dup3\n      add\n      dup1\n      0x40\n      mstore\n      pop\n      dup2\n      add\n      swap1\n      tag_168\n      swap2\n      swap1\n      tag_60\n      jump\t// in\n    tag_168:\n        /* \"contracts/Payment/Proccessor.sol\":3340:3384  pt.GetContractAddress(\".Payment.Currencies\") */\n      mload(0x40)\n      0xc75ffd8600000000000000000000000000000000000000000000000000000000\n      dup2\n      mstore\n        /* \"#utility.yul\":5622:5624   */\n      0x20\n        /* \"contracts/Payment/Proccessor.sol\":3340:3384  pt.GetContractAddress(\".Payment.Currencies\") */\n      0x04\n      dup3\n      add\n        /* \"#utility.yul\":5604:5625   */\n      mstore\n        /* \"#utility.yul\":5661:5663   */\n      0x13\n        /* \"#utility.yul\":5641:5659   */\n      0x24\n      dup3\n      add\n        /* \"#utility.yul\":5634:5664   */\n      mstore\n        /* \"#utility.yul\":5700:5721   */\n      0x2e5061796d656e742e43757272656e6369657300000000000000000000000000\n        /* \"#utility.yul\":5680:5698   */\n      0x44\n      dup3\n      add\n        /* \"#utility.yul\":5673:5722   */\n      mstore\n        /* \"contracts/Payment/Proccessor.sol\":3159:3235  address implementorsAddress = pt.GetContractAddress(\".Payment.Implementors\") */\n      swap1\n      swap2\n      pop\n      dup2\n      swap1\n        /* \"contracts/Payment/Proccessor.sol\":3246:3262  IImplementors ir */\n      0x00\n      swap1\n        /* \"contracts/Payment/Proccessor.sol\":1962:2004  0x477D7bd757c281419b69154Ac05116748cd6E6df */\n      0x477d7bd757c281419b69154ac05116748cd6e6df\n      swap1\n        /* \"contracts/Payment/Proccessor.sol\":3340:3361  pt.GetContractAddress */\n      0xc75ffd86\n      swap1\n        /* \"#utility.yul\":5739:5757   */\n      0x64\n      add\n        /* \"contracts/Payment/Proccessor.sol\":3340:3384  pt.GetContractAddress(\".Payment.Currencies\") */\n      0x20\n      mload(0x40)\n      dup1\n      dup4\n      sub\n      dup2\n      dup7\n      gas\n      staticcall\n      iszero\n      dup1\n      iszero\n      tag_171\n      jumpi\n      returndatasize\n      0x00\n      dup1\n      returndatacopy\n      revert(0x00, returndatasize)\n    tag_171:\n      pop\n      pop\n      pop\n      pop\n      mload(0x40)\n      returndatasize\n      not(0x1f)\n      0x1f\n      dup3\n      add\n      and\n      dup3\n      add\n      dup1\n      0x40\n      mstore\n      pop\n      dup2\n      add\n      swap1\n      tag_172\n      swap2\n      swap1\n      tag_60\n      jump\t// in\n    tag_172:\n        /* \"contracts/Payment/Proccessor.sol\":3562:3587  abi.encodePacked(\"MATIC\") */\n      mload(0x40)\n        /* \"#utility.yul\":3289:3296   */\n      0x4d41544943000000000000000000000000000000000000000000000000000000\n        /* \"contracts/Payment/Proccessor.sol\":3562:3587  abi.encodePacked(\"MATIC\") */\n      0x20\n      dup3\n      add\n        /* \"#utility.yul\":3277:3297   */\n      mstore\n        /* \"contracts/Payment/Proccessor.sol\":3312:3384  address currenciesAddress = pt.GetContractAddress(\".Payment.Currencies\") */\n      swap1\n      swap2\n      pop\n      dup2\n      swap1\n        /* \"contracts/Payment/Proccessor.sol\":3395:3409  ICurrencies cy */\n      0x00\n      swap1\n      dup2\n      swap1\n        /* \"#utility.yul\":3313:3324   */\n      0x25\n      add\n        /* \"contracts/Payment/Proccessor.sol\":3562:3587  abi.encodePacked(\"MATIC\") */\n      mload(0x40)\n      0x20\n      dup2\n      dup4\n      sub\n      sub\n      dup2\n      mstore\n      swap1\n      0x40\n      mstore\n        /* \"contracts/Payment/Proccessor.sol\":3552:3588  keccak256(abi.encodePacked(\"MATIC\")) */\n      dup1\n      mload\n      swap1\n      0x20\n      add\n      keccak256\n        /* \"contracts/Payment/Proccessor.sol\":3539:3546  _symbol */\n      dup13\n        /* \"contracts/Payment/Proccessor.sol\":3522:3547  abi.encodePacked(_symbol) */\n      add(0x20, mload(0x40))\n      tag_174\n      swap2\n      swap1\n      tag_175\n      jump\t// in\n    tag_174:\n      mload(0x40)\n      0x20\n      dup2\n      dup4\n      sub\n      sub\n      dup2\n      mstore\n      swap1\n      0x40\n      mstore\n        /* \"contracts/Payment/Proccessor.sol\":3512:3548  keccak256(abi.encodePacked(_symbol)) */\n      dup1\n      mload\n      swap1\n      0x20\n      add\n      keccak256\n        /* \"contracts/Payment/Proccessor.sol\":3512:3588  keccak256(abi.encodePacked(_symbol)) == keccak256(abi.encodePacked(\"MATIC\")) */\n      sub\n        /* \"contracts/Payment/Proccessor.sol\":3509:3683  if(keccak256(abi.encodePacked(_symbol)) == keccak256(abi.encodePacked(\"MATIC\")))... */\n      tag_176\n      jumpi\n        /* \"contracts/Payment/Proccessor.sol\":3609:3611  cy */\n      dup3\n        /* \"contracts/Payment/Proccessor.sol\":3609:3623  cy.GetMATICFee */\n      0xffffffffffffffffffffffffffffffffffffffff\n      and\n      0xe43dd488\n        /* \"contracts/Payment/Proccessor.sol\":3609:3625  cy.GetMATICFee() */\n      mload(0x40)\n      dup2\n      0xffffffff\n      and\n      0xe0\n      shl\n      dup2\n      mstore\n      0x04\n      add\n      0x20\n      mload(0x40)\n      dup1\n      dup4\n      sub\n      dup2\n      dup7\n      gas\n      staticcall\n      iszero\n      dup1\n      iszero\n      tag_178\n      jumpi\n      returndatasize\n      0x00\n      dup1\n      returndatacopy\n      revert(0x00, returndatasize)\n    tag_178:\n      pop\n      pop\n      pop\n      pop\n      mload(0x40)\n      returndatasize\n      not(0x1f)\n      0x1f\n      dup3\n      add\n      and\n      dup3\n      add\n      dup1\n      0x40\n      mstore\n      pop\n      dup2\n      add\n      swap1\n      tag_179\n      swap2\n      swap1\n      tag_180\n      jump\t// in\n    tag_179:\n        /* \"contracts/Payment/Proccessor.sol\":3603:3625  fee = cy.GetMATICFee() */\n      swap1\n      pop\n        /* \"contracts/Payment/Proccessor.sol\":3509:3683  if(keccak256(abi.encodePacked(_symbol)) == keccak256(abi.encodePacked(\"MATIC\")))... */\n      jump(tag_181)\n    tag_176:\n        /* \"contracts/Payment/Proccessor.sol\":3660:3683  cy.GetTokenFee(_symbol) */\n      mload(0x40)\n      0x1727de4e00000000000000000000000000000000000000000000000000000000\n      dup2\n      mstore\n        /* \"contracts/Payment/Proccessor.sol\":3660:3674  cy.GetTokenFee */\n      0xffffffffffffffffffffffffffffffffffffffff\n      dup5\n      and\n      swap1\n      0x1727de4e\n      swap1\n        /* \"contracts/Payment/Proccessor.sol\":3660:3683  cy.GetTokenFee(_symbol) */\n      tag_182\n      swap1\n        /* \"contracts/Payment/Proccessor.sol\":3675:3682  _symbol */\n      dup16\n      swap1\n        /* \"contracts/Payment/Proccessor.sol\":3660:3683  cy.GetTokenFee(_symbol) */\n      0x04\n      add\n      tag_19\n      jump\t// in\n    tag_182:\n      0x20\n      mload(0x40)\n      dup1\n      dup4\n      sub\n      dup2\n      dup7\n      gas\n      staticcall\n      iszero\n      dup1\n      iszero\n      tag_184\n      jumpi\n      returndatasize\n      0x00\n      dup1\n      returndatacopy\n      revert(0x00, returndatasize)\n    tag_184:\n      pop\n      pop\n      pop\n      pop\n      mload(0x40)\n      returndatasize\n      not(0x1f)\n      0x1f\n      dup3\n      add\n      and\n      dup3\n      add\n      dup1\n      0x40\n      mstore\n      pop\n      dup2\n      add\n      swap1\n      tag_185\n      swap2\n      swap1\n      tag_180\n      jump\t// in\n    tag_185:\n        /* \"contracts/Payment/Proccessor.sol\":3654:3683  fee = cy.GetTokenFee(_symbol) */\n      swap1\n      pop\n        /* \"contracts/Payment/Proccessor.sol\":3509:3683  if(keccak256(abi.encodePacked(_symbol)) == keccak256(abi.encodePacked(\"MATIC\")))... */\n    tag_181:\n        /* \"contracts/Payment/Proccessor.sol\":3699:3725  _implementor != address(0) */\n      0xffffffffffffffffffffffffffffffffffffffff\n      dup11\n      and\n      iszero\n        /* \"contracts/Payment/Proccessor.sol\":3696:3780  if(_implementor != address(0))... */\n      tag_186\n      jumpi\n        /* \"contracts/Payment/Proccessor.sol\":3749:3780  ir.GetEpochReward(_implementor) */\n      mload(0x40)\n      0x6452c22d00000000000000000000000000000000000000000000000000000000\n      dup2\n      mstore\n        /* \"contracts/Payment/Proccessor.sol\":3749:3766  ir.GetEpochReward */\n      0xffffffffffffffffffffffffffffffffffffffff\n        /* \"#utility.yul\":6734:6789   */\n      dup12\n      dup2\n      and\n        /* \"contracts/Payment/Proccessor.sol\":3749:3780  ir.GetEpochReward(_implementor) */\n      0x04\n      dup4\n      add\n        /* \"#utility.yul\":6716:6790   */\n      mstore\n        /* \"contracts/Payment/Proccessor.sol\":3749:3766  ir.GetEpochReward */\n      dup7\n      and\n      swap1\n      0x6452c22d\n      swap1\n        /* \"#utility.yul\":6689:6707   */\n      0x24\n      add\n        /* \"contracts/Payment/Proccessor.sol\":3749:3780  ir.GetEpochReward(_implementor) */\n      0x20\n      mload(0x40)\n      dup1\n      dup4\n      sub\n      dup2\n      0x00\n      dup8\n      gas\n      call\n      iszero\n      dup1\n      iszero\n      tag_189\n      jumpi\n      returndatasize\n      0x00\n      dup1\n      returndatacopy\n      revert(0x00, returndatasize)\n    tag_189:\n      pop\n      pop\n      pop\n      pop\n      mload(0x40)\n      returndatasize\n      not(0x1f)\n      0x1f\n      dup3\n      add\n      and\n      dup3\n      add\n      dup1\n      0x40\n      mstore\n      pop\n      dup2\n      add\n      swap1\n      tag_190\n      swap2\n      swap1\n      tag_191\n      jump\t// in\n    tag_190:\n        /* \"contracts/Payment/Proccessor.sol\":3740:3780  reward = ir.GetEpochReward(_implementor) */\n      swap2\n      pop\n        /* \"contracts/Payment/Proccessor.sol\":3696:3780  if(_implementor != address(0))... */\n    tag_186:\n        /* \"contracts/Payment/Proccessor.sol\":3839:3845  100000 */\n      0x0186a0\n        /* \"contracts/Payment/Proccessor.sol\":3822:3835  _amount * fee */\n      tag_192\n      0xffffff\n      dup4\n      and\n        /* \"contracts/Payment/Proccessor.sol\":3822:3829  _amount */\n      dup14\n        /* \"contracts/Payment/Proccessor.sol\":3822:3835  _amount * fee */\n      tag_193\n      jump\t// in\n    tag_192:\n        /* \"contracts/Payment/Proccessor.sol\":3821:3845  (_amount * fee) / 100000 */\n      tag_194\n      swap2\n      swap1\n      tag_195\n      jump\t// in\n    tag_194:\n        /* \"contracts/Payment/Proccessor.sol\":3811:3845  _amount - (_amount * fee) / 100000 */\n      tag_196\n      swap1\n        /* \"contracts/Payment/Proccessor.sol\":3811:3818  _amount */\n      dup13\n        /* \"contracts/Payment/Proccessor.sol\":3811:3845  _amount - (_amount * fee) / 100000 */\n      tag_197\n      jump\t// in\n    tag_196:\n        /* \"contracts/Payment/Proccessor.sol\":3793:3846  ramount = uint256(_amount - (_amount * fee) / 100000) */\n      swap9\n      pop\n        /* \"contracts/Payment/Proccessor.sol\":3908:3912  1000 */\n      0x03e8\n        /* \"contracts/Payment/Proccessor.sol\":3876:3904  (_amount - ramount) * reward */\n      0xff\n      dup4\n      and\n        /* \"contracts/Payment/Proccessor.sol\":3877:3894  _amount - ramount */\n      tag_198\n        /* \"contracts/Payment/Proccessor.sol\":3793:3846  ramount = uint256(_amount - (_amount * fee) / 100000) */\n      dup12\n        /* \"contracts/Payment/Proccessor.sol\":3877:3884  _amount */\n      dup15\n        /* \"contracts/Payment/Proccessor.sol\":3877:3894  _amount - ramount */\n      tag_197\n      jump\t// in\n    tag_198:\n        /* \"contracts/Payment/Proccessor.sol\":3876:3904  (_amount - ramount) * reward */\n      tag_199\n      swap2\n      swap1\n      tag_193\n      jump\t// in\n    tag_199:\n        /* \"contracts/Payment/Proccessor.sol\":3875:3912  ((_amount - ramount) * reward) / 1000 */\n      tag_200\n      swap2\n      swap1\n      tag_195\n      jump\t// in\n    tag_200:\n        /* \"contracts/Payment/Proccessor.sol\":3857:3913  iamount = uint256(((_amount - ramount) * reward) / 1000) */\n      swap8\n      pop\n        /* \"contracts/Payment/Proccessor.sol\":3945:3962  ramount + iamount */\n      tag_201\n        /* \"contracts/Payment/Proccessor.sol\":3857:3913  iamount = uint256(((_amount - ramount) * reward) / 1000) */\n      dup9\n        /* \"contracts/Payment/Proccessor.sol\":3945:3952  ramount */\n      dup11\n        /* \"contracts/Payment/Proccessor.sol\":3945:3962  ramount + iamount */\n      tag_202\n      jump\t// in\n    tag_201:\n        /* \"contracts/Payment/Proccessor.sol\":3934:3963  _amount - (ramount + iamount) */\n      tag_203\n      swap1\n        /* \"contracts/Payment/Proccessor.sol\":3934:3941  _amount */\n      dup13\n        /* \"contracts/Payment/Proccessor.sol\":3934:3963  _amount - (ramount + iamount) */\n      tag_197\n      jump\t// in\n    tag_203:\n        /* \"contracts/Payment/Proccessor.sol\":3924:3963  vamount = _amount - (ramount + iamount) */\n      swap7\n      pop\n        /* \"contracts/Payment/Proccessor.sol\":3146:3971  {... */\n      pop\n      pop\n      pop\n      pop\n      pop\n      pop\n        /* \"contracts/Payment/Proccessor.sol\":3002:3971  function _split(string memory _symbol, uint256 _amount, address _implementor) private returns(uint256 ramount, uint256 iamount, uint256 vamount){... */\n      swap4\n      pop\n      swap4\n      pop\n      swap4\n      swap1\n      pop\n      jump\t// out\n        /* \"#utility.yul\":14:168   */\n    tag_204:\n        /* \"#utility.yul\":100:142   */\n      0xffffffffffffffffffffffffffffffffffffffff\n        /* \"#utility.yul\":93:98   */\n      dup2\n        /* \"#utility.yul\":89:143   */\n      and\n        /* \"#utility.yul\":82:87   */\n      dup2\n        /* \"#utility.yul\":79:144   */\n      eq\n        /* \"#utility.yul\":69:162   */\n      tag_209\n      jumpi\n        /* \"#utility.yul\":158:159   */\n      0x00\n        /* \"#utility.yul\":155:156   */\n      dup1\n        /* \"#utility.yul\":148:160   */\n      revert\n        /* \"#utility.yul\":69:162   */\n    tag_209:\n        /* \"#utility.yul\":14:168   */\n      pop\n      jump\t// out\n        /* \"#utility.yul\":173:1116   */\n    tag_11:\n        /* \"#utility.yul\":271:277   */\n      0x00\n        /* \"#utility.yul\":279:285   */\n      dup1\n        /* \"#utility.yul\":287:293   */\n      0x00\n        /* \"#utility.yul\":295:301   */\n      dup1\n        /* \"#utility.yul\":303:309   */\n      0x00\n        /* \"#utility.yul\":356:359   */\n      0x80\n        /* \"#utility.yul\":344:353   */\n      dup7\n        /* \"#utility.yul\":335:342   */\n      dup9\n        /* \"#utility.yul\":331:354   */\n      sub\n        /* \"#utility.yul\":327:360   */\n      slt\n        /* \"#utility.yul\":324:377   */\n      iszero\n      tag_211\n      jumpi\n        /* \"#utility.yul\":373:374   */\n      0x00\n        /* \"#utility.yul\":370:371   */\n      dup1\n        /* \"#utility.yul\":363:375   */\n      revert\n        /* \"#utility.yul\":324:377   */\n    tag_211:\n        /* \"#utility.yul\":413:422   */\n      dup6\n        /* \"#utility.yul\":400:423   */\n      calldataload\n        /* \"#utility.yul\":442:460   */\n      0xffffffffffffffff\n        /* \"#utility.yul\":483:485   */\n      dup1\n        /* \"#utility.yul\":475:481   */\n      dup3\n        /* \"#utility.yul\":472:486   */\n      gt\n        /* \"#utility.yul\":469:503   */\n      iszero\n      tag_212\n      jumpi\n        /* \"#utility.yul\":499:500   */\n      0x00\n        /* \"#utility.yul\":496:497   */\n      dup1\n        /* \"#utility.yul\":489:501   */\n      revert\n        /* \"#utility.yul\":469:503   */\n    tag_212:\n        /* \"#utility.yul\":537:543   */\n      dup2\n        /* \"#utility.yul\":526:535   */\n      dup9\n        /* \"#utility.yul\":522:544   */\n      add\n        /* \"#utility.yul\":512:544   */\n      swap2\n      pop\n        /* \"#utility.yul\":582:589   */\n      dup9\n        /* \"#utility.yul\":575:579   */\n      0x1f\n        /* \"#utility.yul\":571:573   */\n      dup4\n        /* \"#utility.yul\":567:580   */\n      add\n        /* \"#utility.yul\":563:590   */\n      slt\n        /* \"#utility.yul\":553:608   */\n      tag_213\n      jumpi\n        /* \"#utility.yul\":604:605   */\n      0x00\n        /* \"#utility.yul\":601:602   */\n      dup1\n        /* \"#utility.yul\":594:606   */\n      revert\n        /* \"#utility.yul\":553:608   */\n    tag_213:\n        /* \"#utility.yul\":644:646   */\n      dup2\n        /* \"#utility.yul\":631:647   */\n      calldataload\n        /* \"#utility.yul\":670:672   */\n      dup2\n        /* \"#utility.yul\":662:668   */\n      dup2\n        /* \"#utility.yul\":659:673   */\n      gt\n        /* \"#utility.yul\":656:690   */\n      iszero\n      tag_214\n      jumpi\n        /* \"#utility.yul\":686:687   */\n      0x00\n        /* \"#utility.yul\":683:684   */\n      dup1\n        /* \"#utility.yul\":676:688   */\n      revert\n        /* \"#utility.yul\":656:690   */\n    tag_214:\n        /* \"#utility.yul\":733:740   */\n      dup10\n        /* \"#utility.yul\":726:730   */\n      0x20\n        /* \"#utility.yul\":717:723   */\n      dup3\n        /* \"#utility.yul\":713:715   */\n      dup6\n        /* \"#utility.yul\":709:724   */\n      add\n        /* \"#utility.yul\":705:731   */\n      add\n        /* \"#utility.yul\":702:741   */\n      gt\n        /* \"#utility.yul\":699:758   */\n      iszero\n      tag_215\n      jumpi\n        /* \"#utility.yul\":754:755   */\n      0x00\n        /* \"#utility.yul\":751:752   */\n      dup1\n        /* \"#utility.yul\":744:756   */\n      revert\n        /* \"#utility.yul\":699:758   */\n    tag_215:\n        /* \"#utility.yul\":785:789   */\n      0x20\n        /* \"#utility.yul\":777:790   */\n      swap3\n      dup4\n      add\n      swap8\n      pop\n        /* \"#utility.yul\":809:815   */\n      swap6\n      pop\n      pop\n        /* \"#utility.yul\":847:867   */\n      dup7\n      add\n        /* \"#utility.yul\":834:868   */\n      calldataload\n      swap3\n      pop\n        /* \"#utility.yul\":918:920   */\n      0x40\n        /* \"#utility.yul\":903:921   */\n      dup7\n      add\n        /* \"#utility.yul\":890:922   */\n      calldataload\n        /* \"#utility.yul\":931:962   */\n      tag_216\n        /* \"#utility.yul\":890:922   */\n      dup2\n        /* \"#utility.yul\":931:962   */\n      tag_204\n      jump\t// in\n    tag_216:\n        /* \"#utility.yul\":981:986   */\n      swap2\n      pop\n        /* \"#utility.yul\":1038:1040   */\n      0x60\n        /* \"#utility.yul\":1023:1041   */\n      dup7\n      add\n        /* \"#utility.yul\":1010:1042   */\n      calldataload\n        /* \"#utility.yul\":1051:1084   */\n      tag_217\n        /* \"#utility.yul\":1010:1042   */\n      dup2\n        /* \"#utility.yul\":1051:1084   */\n      tag_204\n      jump\t// in\n    tag_217:\n        /* \"#utility.yul\":1103:1110   */\n      dup1\n        /* \"#utility.yul\":1093:1110   */\n      swap2\n      pop\n      pop\n        /* \"#utility.yul\":173:1116   */\n      swap3\n      swap6\n      pop\n      swap3\n      swap6\n      swap1\n      swap4\n      pop\n      jump\t// out\n        /* \"#utility.yul\":1313:1563   */\n    tag_205:\n        /* \"#utility.yul\":1398:1399   */\n      0x00\n        /* \"#utility.yul\":1408:1521   */\n    tag_220:\n        /* \"#utility.yul\":1422:1428   */\n      dup4\n        /* \"#utility.yul\":1419:1420   */\n      dup2\n        /* \"#utility.yul\":1416:1429   */\n      lt\n        /* \"#utility.yul\":1408:1521   */\n      iszero\n      tag_222\n      jumpi\n        /* \"#utility.yul\":1498:1509   */\n      dup2\n      dup2\n      add\n        /* \"#utility.yul\":1492:1510   */\n      mload\n        /* \"#utility.yul\":1479:1490   */\n      dup4\n      dup3\n      add\n        /* \"#utility.yul\":1472:1511   */\n      mstore\n        /* \"#utility.yul\":1444:1446   */\n      0x20\n        /* \"#utility.yul\":1437:1447   */\n      add\n        /* \"#utility.yul\":1408:1521   */\n      jump(tag_220)\n    tag_222:\n      pop\n      pop\n        /* \"#utility.yul\":1555:1556   */\n      0x00\n        /* \"#utility.yul\":1537:1553   */\n      swap2\n      add\n        /* \"#utility.yul\":1530:1557   */\n      mstore\n        /* \"#utility.yul\":1313:1563   */\n      jump\t// out\n        /* \"#utility.yul\":1568:2023   */\n    tag_19:\n        /* \"#utility.yul\":1717:1719   */\n      0x20\n        /* \"#utility.yul\":1706:1715   */\n      dup2\n        /* \"#utility.yul\":1699:1720   */\n      mstore\n        /* \"#utility.yul\":1680:1684   */\n      0x00\n        /* \"#utility.yul\":1749:1755   */\n      dup3\n        /* \"#utility.yul\":1743:1756   */\n      mload\n        /* \"#utility.yul\":1792:1798   */\n      dup1\n        /* \"#utility.yul\":1787:1789   */\n      0x20\n        /* \"#utility.yul\":1776:1785   */\n      dup5\n        /* \"#utility.yul\":1772:1790   */\n      add\n        /* \"#utility.yul\":1765:1799   */\n      mstore\n        /* \"#utility.yul\":1808:1887   */\n      tag_224\n        /* \"#utility.yul\":1880:1886   */\n      dup2\n        /* \"#utility.yul\":1875:1877   */\n      0x40\n        /* \"#utility.yul\":1864:1873   */\n      dup6\n        /* \"#utility.yul\":1860:1878   */\n      add\n        /* \"#utility.yul\":1855:1857   */\n      0x20\n        /* \"#utility.yul\":1847:1853   */\n      dup8\n        /* \"#utility.yul\":1843:1858   */\n      add\n        /* \"#utility.yul\":1808:1887   */\n      tag_205\n      jump\t// in\n    tag_224:\n        /* \"#utility.yul\":1939:1941   */\n      0x1f\n        /* \"#utility.yul\":1927:1942   */\n      add\n        /* \"#utility.yul\":1944:2010   */\n      0xffffffffffffffffffffffffffffffffffffffffffffffffffffffffffffffe0\n        /* \"#utility.yul\":1923:2011   */\n      and\n        /* \"#utility.yul\":1908:2012   */\n      swap2\n      swap1\n      swap2\n      add\n        /* \"#utility.yul\":2014:2016   */\n      0x40\n        /* \"#utility.yul\":1904:2017   */\n      add\n      swap3\n        /* \"#utility.yul\":1568:2023   */\n      swap2\n      pop\n      pop\n      jump\t// out\n        /* \"#utility.yul\":3335:3608   */\n    tag_33:\n        /* \"#utility.yul\":3520:3526   */\n      dup2\n        /* \"#utility.yul\":3512:3518   */\n      dup4\n        /* \"#utility.yul\":3507:3510   */\n      dup3\n        /* \"#utility.yul\":3494:3527   */\n      calldatacopy\n        /* \"#utility.yul\":3476:3479   */\n      0x00\n        /* \"#utility.yul\":3546:3562   */\n      swap2\n      add\n        /* \"#utility.yul\":3571:3584   */\n      swap1\n      dup2\n      mstore\n        /* \"#utility.yul\":3546:3562   */\n      swap2\n        /* \"#utility.yul\":3335:3608   */\n      swap1\n      pop\n      jump\t// out\n        /* \"#utility.yul\":4609:4860   */\n    tag_60:\n        /* \"#utility.yul\":4679:4685   */\n      0x00\n        /* \"#utility.yul\":4732:4734   */\n      0x20\n        /* \"#utility.yul\":4720:4729   */\n      dup3\n        /* \"#utility.yul\":4711:4718   */\n      dup5\n        /* \"#utility.yul\":4707:4730   */\n      sub\n        /* \"#utility.yul\":4703:4735   */\n      slt\n        /* \"#utility.yul\":4700:4752   */\n      iszero\n      tag_234\n      jumpi\n        /* \"#utility.yul\":4748:4749   */\n      0x00\n        /* \"#utility.yul\":4745:4746   */\n      dup1\n        /* \"#utility.yul\":4738:4750   */\n      revert\n        /* \"#utility.yul\":4700:4752   */\n    tag_234:\n        /* \"#utility.yul\":4780:4789   */\n      dup2\n        /* \"#utility.yul\":4774:4790   */\n      mload\n        /* \"#utility.yul\":4799:4830   */\n      tag_235\n        /* \"#utility.yul\":4824:4829   */\n      dup2\n        /* \"#utility.yul\":4799:4830   */\n      tag_204\n      jump\t// in\n    tag_235:\n        /* \"#utility.yul\":4849:4854   */\n      swap4\n        /* \"#utility.yul\":4609:4860   */\n      swap3\n      pop\n      pop\n      pop\n      jump\t// out\n        /* \"#utility.yul\":5768:6217   */\n    tag_106:\n        /* \"#utility.yul\":5927:5929   */\n      0x20\n        /* \"#utility.yul\":5916:5925   */\n      dup2\n        /* \"#utility.yul\":5909:5930   */\n      mstore\n        /* \"#utility.yul\":5966:5972   */\n      dup2\n        /* \"#utility.yul\":5961:5963   */\n      0x20\n        /* \"#utility.yul\":5950:5959   */\n      dup3\n        /* \"#utility.yul\":5946:5964   */\n      add\n        /* \"#utility.yul\":5939:5973   */\n      mstore\n        /* \"#utility.yul\":6023:6029   */\n      dup2\n        /* \"#utility.yul\":6015:6021   */\n      dup4\n        /* \"#utility.yul\":6010:6012   */\n      0x40\n        /* \"#utility.yul\":5999:6008   */\n      dup4\n        /* \"#utility.yul\":5995:6013   */\n      add\n        /* \"#utility.yul\":5982:6030   */\n      calldatacopy\n        /* \"#utility.yul\":6079:6080   */\n      0x00\n        /* \"#utility.yul\":6050:6072   */\n      dup2\n      dup4\n      add\n        /* \"#utility.yul\":6074:6076   */\n      0x40\n        /* \"#utility.yul\":6046:6077   */\n      swap1\n      dup2\n      add\n        /* \"#utility.yul\":6039:6081   */\n      swap2\n      swap1\n      swap2\n      mstore\n        /* \"#utility.yul\":6133:6135   */\n      0x1f\n        /* \"#utility.yul\":6121:6136   */\n      swap1\n      swap3\n      add\n        /* \"#utility.yul\":6138:6204   */\n      0xffffffffffffffffffffffffffffffffffffffffffffffffffffffffffffffe0\n        /* \"#utility.yul\":6117:6205   */\n      and\n        /* \"#utility.yul\":6102:6206   */\n      add\n        /* \"#utility.yul\":6098:6211   */\n      add\n      swap2\n        /* \"#utility.yul\":5768:6217   */\n      swap1\n      pop\n      jump\t// out\n        /* \"#utility.yul\":6801:6985   */\n    tag_118:\n        /* \"#utility.yul\":6871:6877   */\n      0x00\n        /* \"#utility.yul\":6924:6926   */\n      0x20\n        /* \"#utility.yul\":6912:6921   */\n      dup3\n        /* \"#utility.yul\":6903:6910   */\n      dup5\n        /* \"#utility.yul\":6899:6922   */\n      sub\n        /* \"#utility.yul\":6895:6927   */\n      slt\n        /* \"#utility.yul\":6892:6944   */\n      iszero\n      tag_243\n      jumpi\n        /* \"#utility.yul\":6940:6941   */\n      0x00\n        /* \"#utility.yul\":6937:6938   */\n      dup1\n        /* \"#utility.yul\":6930:6942   */\n      revert\n        /* \"#utility.yul\":6892:6944   */\n    tag_243:\n      pop\n        /* \"#utility.yul\":6963:6979   */\n      mload\n      swap2\n        /* \"#utility.yul\":6801:6985   */\n      swap1\n      pop\n      jump\t// out\n        /* \"#utility.yul\":8426:8703   */\n    tag_135:\n        /* \"#utility.yul\":8493:8499   */\n      0x00\n        /* \"#utility.yul\":8546:8548   */\n      0x20\n        /* \"#utility.yul\":8534:8543   */\n      dup3\n        /* \"#utility.yul\":8525:8532   */\n      dup5\n        /* \"#utility.yul\":8521:8544   */\n      sub\n        /* \"#utility.yul\":8517:8549   */\n      slt\n        /* \"#utility.yul\":8514:8566   */\n      iszero\n      tag_249\n      jumpi\n        /* \"#utility.yul\":8562:8563   */\n      0x00\n        /* \"#utility.yul\":8559:8560   */\n      dup1\n        /* \"#utility.yul\":8552:8564   */\n      revert\n        /* \"#utility.yul\":8514:8566   */\n    tag_249:\n        /* \"#utility.yul\":8594:8603   */\n      dup2\n        /* \"#utility.yul\":8588:8604   */\n      mload\n        /* \"#utility.yul\":8647:8652   */\n      dup1\n        /* \"#utility.yul\":8640:8653   */\n      iszero\n        /* \"#utility.yul\":8633:8654   */\n      iszero\n        /* \"#utility.yul\":8626:8631   */\n      dup2\n        /* \"#utility.yul\":8623:8655   */\n      eq\n        /* \"#utility.yul\":8613:8673   */\n      tag_235\n      jumpi\n        /* \"#utility.yul\":8669:8670   */\n      0x00\n        /* \"#utility.yul\":8666:8667   */\n      dup1\n        /* \"#utility.yul\":8659:8671   */\n      revert\n        /* \"#utility.yul\":9058:9347   */\n    tag_175:\n        /* \"#utility.yul\":9189:9192   */\n      0x00\n        /* \"#utility.yul\":9227:9233   */\n      dup3\n        /* \"#utility.yul\":9221:9234   */\n      mload\n        /* \"#utility.yul\":9243:9309   */\n      tag_253\n        /* \"#utility.yul\":9302:9308   */\n      dup2\n        /* \"#utility.yul\":9297:9300   */\n      dup5\n        /* \"#utility.yul\":9290:9294   */\n      0x20\n        /* \"#utility.yul\":9282:9288   */\n      dup8\n        /* \"#utility.yul\":9278:9295   */\n      add\n        /* \"#utility.yul\":9243:9309   */\n      tag_205\n      jump\t// in\n    tag_253:\n        /* \"#utility.yul\":9325:9341   */\n      swap2\n      swap1\n      swap2\n      add\n      swap3\n        /* \"#utility.yul\":9058:9347   */\n      swap2\n      pop\n      pop\n      jump\t// out\n        /* \"#utility.yul\":9352:9630   */\n    tag_180:\n        /* \"#utility.yul\":9421:9427   */\n      0x00\n        /* \"#utility.yul\":9474:9476   */\n      0x20\n        /* \"#utility.yul\":9462:9471   */\n      dup3\n        /* \"#utility.yul\":9453:9460   */\n      dup5\n        /* \"#utility.yul\":9449:9472   */\n      sub\n        /* \"#utility.yul\":9445:9477   */\n      slt\n        /* \"#utility.yul\":9442:9494   */\n      iszero\n      tag_255\n      jumpi\n        /* \"#utility.yul\":9490:9491   */\n      0x00\n        /* \"#utility.yul\":9487:9488   */\n      dup1\n        /* \"#utility.yul\":9480:9492   */\n      revert\n        /* \"#utility.yul\":9442:9494   */\n    tag_255:\n        /* \"#utility.yul\":9522:9531   */\n      dup2\n        /* \"#utility.yul\":9516:9532   */\n      mload\n        /* \"#utility.yul\":9572:9580   */\n      0xffffff\n        /* \"#utility.yul\":9565:9570   */\n      dup2\n        /* \"#utility.yul\":9561:9581   */\n      and\n        /* \"#utility.yul\":9554:9559   */\n      dup2\n        /* \"#utility.yul\":9551:9582   */\n      eq\n        /* \"#utility.yul\":9541:9600   */\n      tag_235\n      jumpi\n        /* \"#utility.yul\":9596:9597   */\n      0x00\n        /* \"#utility.yul\":9593:9594   */\n      dup1\n        /* \"#utility.yul\":9586:9598   */\n      revert\n        /* \"#utility.yul\":9635:9908   */\n    tag_191:\n        /* \"#utility.yul\":9703:9709   */\n      0x00\n        /* \"#utility.yul\":9756:9758   */\n      0x20\n        /* \"#utility.yul\":9744:9753   */\n      dup3\n        /* \"#utility.yul\":9735:9742   */\n      dup5\n        /* \"#utility.yul\":9731:9754   */\n      sub\n        /* \"#utility.yul\":9727:9759   */\n      slt\n        /* \"#utility.yul\":9724:9776   */\n      iszero\n      tag_258\n      jumpi\n        /* \"#utility.yul\":9772:9773   */\n      0x00\n        /* \"#utility.yul\":9769:9770   */\n      dup1\n        /* \"#utility.yul\":9762:9774   */\n      revert\n        /* \"#utility.yul\":9724:9776   */\n    tag_258:\n        /* \"#utility.yul\":9804:9813   */\n      dup2\n        /* \"#utility.yul\":9798:9814   */\n      mload\n        /* \"#utility.yul\":9854:9858   */\n      0xff\n        /* \"#utility.yul\":9847:9852   */\n      dup2\n        /* \"#utility.yul\":9843:9859   */\n      and\n        /* \"#utility.yul\":9836:9841   */\n      dup2\n        /* \"#utility.yul\":9833:9860   */\n      eq\n        /* \"#utility.yul\":9823:9878   */\n      tag_235\n      jumpi\n        /* \"#utility.yul\":9874:9875   */\n      0x00\n        /* \"#utility.yul\":9871:9872   */\n      dup1\n        /* \"#utility.yul\":9864:9876   */\n      revert\n        /* \"#utility.yul\":9913:10097   */\n    tag_206:\n        /* \"#utility.yul\":9965:10042   */\n      0x4e487b7100000000000000000000000000000000000000000000000000000000\n        /* \"#utility.yul\":9962:9963   */\n      0x00\n        /* \"#utility.yul\":9955:10043   */\n      mstore\n        /* \"#utility.yul\":10062:10066   */\n      0x11\n        /* \"#utility.yul\":10059:10060   */\n      0x04\n        /* \"#utility.yul\":10052:10067   */\n      mstore\n        /* \"#utility.yul\":10086:10090   */\n      0x24\n        /* \"#utility.yul\":10083:10084   */\n      0x00\n        /* \"#utility.yul\":10076:10091   */\n      revert\n        /* \"#utility.yul\":10102:10270   */\n    tag_193:\n        /* \"#utility.yul\":10175:10184   */\n      dup1\n      dup3\n      mul\n        /* \"#utility.yul\":10206:10215   */\n      dup2\n      iszero\n        /* \"#utility.yul\":10223:10238   */\n      dup3\n      dup3\n      div\n        /* \"#utility.yul\":10217:10239   */\n      dup5\n      eq\n        /* \"#utility.yul\":10203:10240   */\n      or\n        /* \"#utility.yul\":10193:10264   */\n      tag_263\n      jumpi\n        /* \"#utility.yul\":10244:10262   */\n      tag_263\n      tag_206\n      jump\t// in\n    tag_263:\n        /* \"#utility.yul\":10102:10270   */\n      swap3\n      swap2\n      pop\n      pop\n      jump\t// out\n        /* \"#utility.yul\":10275:10549   */\n    tag_195:\n        /* \"#utility.yul\":10315:10316   */\n      0x00\n        /* \"#utility.yul\":10341:10342   */\n      dup3\n        /* \"#utility.yul\":10331:10520   */\n      tag_265\n      jumpi\n        /* \"#utility.yul\":10376:10453   */\n      0x4e487b7100000000000000000000000000000000000000000000000000000000\n        /* \"#utility.yul\":10373:10374   */\n      0x00\n        /* \"#utility.yul\":10366:10454   */\n      mstore\n        /* \"#utility.yul\":10477:10481   */\n      0x12\n        /* \"#utility.yul\":10474:10475   */\n      0x04\n        /* \"#utility.yul\":10467:10482   */\n      mstore\n        /* \"#utility.yul\":10505:10509   */\n      0x24\n        /* \"#utility.yul\":10502:10503   */\n      0x00\n        /* \"#utility.yul\":10495:10510   */\n      revert\n        /* \"#utility.yul\":10331:10520   */\n    tag_265:\n      pop\n        /* \"#utility.yul\":10534:10543   */\n      div\n      swap1\n        /* \"#utility.yul\":10275:10549   */\n      jump\t// out\n        /* \"#utility.yul\":10554:10682   */\n    tag_197:\n        /* \"#utility.yul\":10621:10630   */\n      dup2\n      dup2\n      sub\n        /* \"#utility.yul\":10642:10653   */\n      dup2\n      dup2\n      gt\n        /* \"#utility.yul\":10639:10676   */\n      iszero\n      tag_263\n      jumpi\n        /* \"#utility.yul\":10656:10674   */\n      tag_263\n      tag_206\n      jump\t// in\n        /* \"#utility.yul\":10687:10812   */\n    tag_202:\n        /* \"#utility.yul\":10752:10761   */\n      dup1\n      dup3\n      add\n        /* \"#utility.yul\":10773:10783   */\n      dup1\n      dup3\n      gt\n        /* \"#utility.yul\":10770:10806   */\n      iszero\n      tag_263\n      jumpi\n        /* \"#utility.yul\":10786:10804   */\n      tag_263\n      tag_206\n      jump\t// in\n\n    auxdata: 0xa2646970667358221220678748442a7c00482620c238995d66b9404112b8b0713d3f0ade78dd95762ff964736f6c63430008120033\n}\n",
				"bytecode": {
					"linkReferences": {},
					"object": "60a06040526000805460ff1916905534801561001a57600080fd5b5073477d7bd757c281419b69154ac05116748cd6e6df6001600160a01b031663ee5503d06040518163ffffffff1660e01b8152600401602060405180830381865afa15801561006d573d6000803e3d6000fd5b505050506040513d601f19601f8201168201806040525081019061009191906100a2565b6001600160a01b03166080526100d2565b6000602082840312156100b457600080fd5b81516001600160a01b03811681146100cb57600080fd5b9392505050565b6080516119b76100ed600039600061089e01526119b76000f3fe60806040526004361061002a5760003560e01c806357d8686d146100335780638052474d1461005b57005b3661003157005b005b61004661004136600461169f565b6100b1565b60405190151581526020015b60405180910390f35b34801561006757600080fd5b506100a46040518060400160405280601381526020017f2e5061796d656e742e50726f63636573736f720000000000000000000000000081525081565b6040516100529190611763565b6000805460ff161515600103610128576040517f08c379a000000000000000000000000000000000000000000000000000000000815260206004820152601160248201527f5265656e7472616e6365206661696c656400000000000000000000000000000060448201526064015b60405180910390fd5b600080547fffffffffffffffffffffffffffffffffffffffffffffffffffffffffffffff00166001179055823b63ffffffff8116156101c3576040517f08c379a000000000000000000000000000000000000000000000000000000000815260206004820152601460248201527f526563656976657220697320636f6e7472616374000000000000000000000000604482015260640161011f565b50813b63ffffffff811615610234576040517f08c379a000000000000000000000000000000000000000000000000000000000815260206004820152601760248201527f496d706c656d656e746f7220697320636f6e7472616374000000000000000000604482015260640161011f565b6040517f4d41544943000000000000000000000000000000000000000000000000000000602082015260009060250160405160208183030381529060405280519060200120888860405160200161028c9291906117b4565b604051602081830303815290604052805190602001201480156102af5750600034115b80156102b9575085155b156102d0576102c9348686610452565b90506103c7565b6040517f4d4154494300000000000000000000000000000000000000000000000000000060208201526025016040516020818303038152906040528051906020012088886040516020016103259291906117b4565b60405160208183030381529060405280519060200120141580156103495750600086115b8015610353575034155b15610365576102c988888888886108c9565b6040517f08c379a000000000000000000000000000000000000000000000000000000000815260206004820152601260248201527f50726f6363657373696e67206661696c65640000000000000000000000000000604482015260640161011f565b600080547fffffffffffffffffffffffffffffffffffffffffffffffffffffffffffffff001690556040805173ffffffffffffffffffffffffffffffffffffffff83811682526020820189905287169133917f9e1501bf0bdb2da757d89a99a50272ce437437bd8e162153ed6016e61f324ba5910160405180910390a3506001979650505050505050565b6000806000806104986040518060400160405280600581526020017f4d41544943000000000000000000000000000000000000000000000000000000815250888761124b565b6040517fc75ffd8600000000000000000000000000000000000000000000000000000000815260206004820152601260248201527f2e436f72706f726174696f6e2e5661756c7400000000000000000000000000006044820152929550909350915060009073477d7bd757c281419b69154ac05116748cd6e6df9063c75ffd8690606401602060405180830381865afa158015610539573d6000803e3d6000fd5b505050506040513d601f19601f8201168201806040525081019061055d91906117c4565b6040517fc75ffd8600000000000000000000000000000000000000000000000000000000815260206004820152601060248201527f2e5061796d656e742e5377617070657200000000000000000000000000000000604482015290915060009073477d7bd757c281419b69154ac05116748cd6e6df9063c75ffd8690606401602060405180830381865afa1580156105f9573d6000803e3d6000fd5b505050506040513d601f19601f8201168201806040525081019061061d91906117c4565b90508773ffffffffffffffffffffffffffffffffffffffff168560405160006040518083038185875af1925050503d8060008114610677576040519150601f19603f3d011682016040523d82523d6000602084013e61067c565b606091505b50505073ffffffffffffffffffffffffffffffffffffffff8716156106fa5760405173ffffffffffffffffffffffffffffffffffffffff8816908590600081818185875af1925050503d80600081146106f1576040519150601f19603f3d011682016040523d82523d6000602084013e6106f6565b606091505b5050505b73ffffffffffffffffffffffffffffffffffffffff82161561077c578173ffffffffffffffffffffffffffffffffffffffff16836040515b60006040518083038185875af1925050503d806000811461076f576040519150601f19603f3d011682016040523d82523d6000602084013e610774565b606091505b50505061089b565b73ffffffffffffffffffffffffffffffffffffffff8116156107b8578073ffffffffffffffffffffffffffffffffffffffff1683604051610732565b73477d7bd757c281419b69154ac05116748cd6e6df73ffffffffffffffffffffffffffffffffffffffff16630ae50a396040518163ffffffff1660e01b8152600401602060405180830381865afa158015610817573d6000803e3d6000fd5b505050506040513d601f19601f8201168201806040525081019061083b91906117c4565b73ffffffffffffffffffffffffffffffffffffffff168360405160006040518083038185875af1925050503d8060008114610892576040519150601f19603f3d011682016040523d82523d6000602084013e610897565b606091505b5050505b507f000000000000000000000000000000000000000000000000000000000000000098975050505050505050565b6040517fc75ffd8600000000000000000000000000000000000000000000000000000000815260206004820152601060248201527f2e5061796d656e742e53776170706572000000000000000000000000000000006044820152600090819073477d7bd757c281419b69154ac05116748cd6e6df9063c75ffd8690606401602060405180830381865afa158015610964573d6000803e3d6000fd5b505050506040513d601f19601f8201168201806040525081019061098891906117c4565b6040517fc75ffd8600000000000000000000000000000000000000000000000000000000815260206004820152601360248201527f2e5061796d656e742e43757272656e63696573000000000000000000000000006044820152909150819060009073477d7bd757c281419b69154ac05116748cd6e6df9063c75ffd8690606401602060405180830381865afa158015610a26573d6000803e3d6000fd5b505050506040513d601f19601f82011682018060405250810190610a4a91906117c4565b6040517fda240f1e000000000000000000000000000000000000000000000000000000008152909150819060009073ffffffffffffffffffffffffffffffffffffffff83169063da240f1e90610aa6908e908e906004016117e8565b602060405180830381865afa158015610ac3573d6000803e3d6000fd5b505050506040513d601f19601f82011682018060405250810190610ae791906117c4565b90508073ffffffffffffffffffffffffffffffffffffffff8116610b67576040517f08c379a000000000000000000000000000000000000000000000000000000000815260206004820152601360248201527f546f6b656e206e6f7420737570706f7274656400000000000000000000000000604482015260640161011f565b6040517f70a082310000000000000000000000000000000000000000000000000000000081523360048201528a9073ffffffffffffffffffffffffffffffffffffffff8316906370a0823190602401602060405180830381865afa158015610bd3573d6000803e3d6000fd5b505050506040513d601f19601f82011682018060405250810190610bf79190611835565b1015610c5f576040517f08c379a000000000000000000000000000000000000000000000000000000000815260206004820152601460248201527f496e73756666696369656e742062616c616e6365000000000000000000000000604482015260640161011f565b6040517fdd62ed3e0000000000000000000000000000000000000000000000000000000081523360048201523060248201528a9073ffffffffffffffffffffffffffffffffffffffff83169063dd62ed3e90604401602060405180830381865afa158015610cd1573d6000803e3d6000fd5b505050506040513d601f19601f82011682018060405250810190610cf59190611835565b1015610d5d576040517f08c379a000000000000000000000000000000000000000000000000000000000815260206004820152601760248201527f50726f63636573736f72206e6f7420617070726f766564000000000000000000604482015260640161011f565b6040517f23b872dd000000000000000000000000000000000000000000000000000000008152336004820152306024820152604481018b905273ffffffffffffffffffffffffffffffffffffffff8216906323b872dd906064016020604051808303816000875af1158015610dd6573d6000803e3d6000fd5b505050506040513d601f19601f82011682018060405250810190610dfa919061184e565b506000806000610e4f8f8f8080601f016020809104026020016040519081016040528093929190818152602001838380828437600081840152601f19601f820116905080830192505050505050508e8d61124b565b9250925092508373ffffffffffffffffffffffffffffffffffffffff1663a9059cbb8d856040518363ffffffff1660e01b8152600401610eb192919073ffffffffffffffffffffffffffffffffffffffff929092168252602082015260400190565b6020604051808303816000875af1158015610ed0573d6000803e3d6000fd5b505050506040513d601f19601f82011682018060405250810190610ef4919061184e565b5073ffffffffffffffffffffffffffffffffffffffff8b1615610fac576040517fa9059cbb00000000000000000000000000000000000000000000000000000000815273ffffffffffffffffffffffffffffffffffffffff8c811660048301526024820184905285169063a9059cbb906044016020604051808303816000875af1158015610f86573d6000803e3d6000fd5b505050506040513d601f19601f82011682018060405250810190610faa919061184e565b505b73ffffffffffffffffffffffffffffffffffffffff891615611101576040517f095ea7b300000000000000000000000000000000000000000000000000000000815273ffffffffffffffffffffffffffffffffffffffff8a811660048301526024820183905285169063095ea7b3906044016020604051808303816000875af115801561103d573d6000803e3d6000fd5b505050506040513d601f19601f82011682018060405250810190611061919061184e565b506040517f562c219500000000000000000000000000000000000000000000000000000000815273ffffffffffffffffffffffffffffffffffffffff86811660048301526024820183905289169063562c2195906044016020604051808303816000875af11580156110d7573d6000803e3d6000fd5b505050506040513d601f19601f820116820180604052508101906110fb919061184e565b50611238565b8373ffffffffffffffffffffffffffffffffffffffff1663a9059cbb73477d7bd757c281419b69154ac05116748cd6e6df73ffffffffffffffffffffffffffffffffffffffff16630ae50a396040518163ffffffff1660e01b8152600401602060405180830381865afa15801561117c573d6000803e3d6000fd5b505050506040513d601f19601f820116820180604052508101906111a091906117c4565b6040517fffffffff0000000000000000000000000000000000000000000000000000000060e084901b16815273ffffffffffffffffffffffffffffffffffffffff9091166004820152602481018490526044016020604051808303816000875af1158015611212573d6000803e3d6000fd5b505050506040513d601f19601f82011682018060405250810190611236919061184e565b505b50929d9c50505050505050505050505050565b6040517fc75ffd8600000000000000000000000000000000000000000000000000000000815260206004820152601560248201527f2e5061796d656e742e496d706c656d656e746f72730000000000000000000000604482015260009081908190819073477d7bd757c281419b69154ac05116748cd6e6df9063c75ffd8690606401602060405180830381865afa1580156112ea573d6000803e3d6000fd5b505050506040513d601f19601f8201168201806040525081019061130e91906117c4565b6040517fc75ffd8600000000000000000000000000000000000000000000000000000000815260206004820152601360248201527f2e5061796d656e742e43757272656e63696573000000000000000000000000006044820152909150819060009073477d7bd757c281419b69154ac05116748cd6e6df9063c75ffd8690606401602060405180830381865afa1580156113ac573d6000803e3d6000fd5b505050506040513d601f19601f820116820180604052508101906113d091906117c4565b6040517f4d41544943000000000000000000000000000000000000000000000000000000602082015290915081906000908190602501604051602081830303815290604052805190602001208c60405160200161142d9190611870565b60405160208183030381529060405280519060200120036114be578273ffffffffffffffffffffffffffffffffffffffff1663e43dd4886040518163ffffffff1660e01b8152600401602060405180830381865afa158015611493573d6000803e3d6000fd5b505050506040513d601f19601f820116820180604052508101906114b7919061188c565b9050611554565b6040517f1727de4e00000000000000000000000000000000000000000000000000000000815273ffffffffffffffffffffffffffffffffffffffff841690631727de4e90611510908f90600401611763565b602060405180830381865afa15801561152d573d6000803e3d6000fd5b505050506040513d601f19601f82011682018060405250810190611551919061188c565b90505b73ffffffffffffffffffffffffffffffffffffffff8a1615611605576040517f6452c22d00000000000000000000000000000000000000000000000000000000815273ffffffffffffffffffffffffffffffffffffffff8b81166004830152861690636452c22d906024016020604051808303816000875af11580156115de573d6000803e3d6000fd5b505050506040513d601f19601f8201168201806040525081019061160291906118b1565b91505b620186a061161862ffffff83168d611903565b6116229190611920565b61162c908c61195b565b98506103e860ff831661163f8b8e61195b565b6116499190611903565b6116539190611920565b975061165f888a61196e565b611669908c61195b565b965050505050505093509350939050565b73ffffffffffffffffffffffffffffffffffffffff8116811461169c57600080fd5b50565b6000806000806000608086880312156116b757600080fd5b853567ffffffffffffffff808211156116cf57600080fd5b818801915088601f8301126116e357600080fd5b8135818111156116f257600080fd5b89602082850101111561170457600080fd5b60209283019750955050860135925060408601356117218161167a565b915060608601356117318161167a565b809150509295509295909350565b60005b8381101561175a578181015183820152602001611742565b50506000910152565b602081526000825180602084015261178281604085016020870161173f565b601f017fffffffffffffffffffffffffffffffffffffffffffffffffffffffffffffffe0169190910160400192915050565b8183823760009101908152919050565b6000602082840312156117d657600080fd5b81516117e18161167a565b9392505050565b60208152816020820152818360408301376000818301604090810191909152601f9092017fffffffffffffffffffffffffffffffffffffffffffffffffffffffffffffffe0160101919050565b60006020828403121561184757600080fd5b5051919050565b60006020828403121561186057600080fd5b815180151581146117e157600080fd5b6000825161188281846020870161173f565b9190910192915050565b60006020828403121561189e57600080fd5b815162ffffff811681146117e157600080fd5b6000602082840312156118c357600080fd5b815160ff811681146117e157600080fd5b7f4e487b7100000000000000000000000000000000000000000000000000000000600052601160045260246000fd5b808202811582820484141761191a5761191a6118d4565b92915050565b600082611956577f4e487b7100000000000000000000000000000000000000000000000000000000600052601260045260246000fd5b500490565b8181038181111561191a5761191a6118d4565b8082018082111561191a5761191a6118d456fea2646970667358221220678748442a7c00482620c238995d66b9404112b8b0713d3f0ade78dd95762ff964736f6c63430008120033",
					"opcodes": "PUSH1 0xA0 PUSH1 0x40 MSTORE PUSH1 0x0 DUP1 SLOAD PUSH1 0xFF NOT AND SWAP1 SSTORE CALLVALUE DUP1 ISZERO PUSH2 0x1A JUMPI PUSH1 0x0 DUP1 REVERT JUMPDEST POP PUSH20 0x477D7BD757C281419B69154AC05116748CD6E6DF PUSH1 0x1 PUSH1 0x1 PUSH1 0xA0 SHL SUB AND PUSH4 0xEE5503D0 PUSH1 0x40 MLOAD DUP2 PUSH4 0xFFFFFFFF AND PUSH1 0xE0 SHL DUP2 MSTORE PUSH1 0x4 ADD PUSH1 0x20 PUSH1 0x40 MLOAD DUP1 DUP4 SUB DUP2 DUP7 GAS STATICCALL ISZERO DUP1 ISZERO PUSH2 0x6D JUMPI RETURNDATASIZE PUSH1 0x0 DUP1 RETURNDATACOPY RETURNDATASIZE PUSH1 0x0 REVERT JUMPDEST POP POP POP POP PUSH1 0x40 MLOAD RETURNDATASIZE PUSH1 0x1F NOT PUSH1 0x1F DUP3 ADD AND DUP3 ADD DUP1 PUSH1 0x40 MSTORE POP DUP2 ADD SWAP1 PUSH2 0x91 SWAP2 SWAP1 PUSH2 0xA2 JUMP JUMPDEST PUSH1 0x1 PUSH1 0x1 PUSH1 0xA0 SHL SUB AND PUSH1 0x80 MSTORE PUSH2 0xD2 JUMP JUMPDEST PUSH1 0x0 PUSH1 0x20 DUP3 DUP5 SUB SLT ISZERO PUSH2 0xB4 JUMPI PUSH1 0x0 DUP1 REVERT JUMPDEST DUP2 MLOAD PUSH1 0x1 PUSH1 0x1 PUSH1 0xA0 SHL SUB DUP2 AND DUP2 EQ PUSH2 0xCB JUMPI PUSH1 0x0 DUP1 REVERT JUMPDEST SWAP4 SWAP3 POP POP POP JUMP JUMPDEST PUSH1 0x80 MLOAD PUSH2 0x19B7 PUSH2 0xED PUSH1 0x0 CODECOPY PUSH1 0x0 PUSH2 0x89E ADD MSTORE PUSH2 0x19B7 PUSH1 0x0 RETURN INVALID PUSH1 0x80 PUSH1 0x40 MSTORE PUSH1 0x4 CALLDATASIZE LT PUSH2 0x2A JUMPI PUSH1 0x0 CALLDATALOAD PUSH1 0xE0 SHR DUP1 PUSH4 0x57D8686D EQ PUSH2 0x33 JUMPI DUP1 PUSH4 0x8052474D EQ PUSH2 0x5B JUMPI STOP JUMPDEST CALLDATASIZE PUSH2 0x31 JUMPI STOP JUMPDEST STOP JUMPDEST PUSH2 0x46 PUSH2 0x41 CALLDATASIZE PUSH1 0x4 PUSH2 0x169F JUMP JUMPDEST PUSH2 0xB1 JUMP JUMPDEST PUSH1 0x40 MLOAD SWAP1 ISZERO ISZERO DUP2 MSTORE PUSH1 0x20 ADD JUMPDEST PUSH1 0x40 MLOAD DUP1 SWAP2 SUB SWAP1 RETURN JUMPDEST CALLVALUE DUP1 ISZERO PUSH2 0x67 JUMPI PUSH1 0x0 DUP1 REVERT JUMPDEST POP PUSH2 0xA4 PUSH1 0x40 MLOAD DUP1 PUSH1 0x40 ADD PUSH1 0x40 MSTORE DUP1 PUSH1 0x13 DUP2 MSTORE PUSH1 0x20 ADD PUSH32 0x2E5061796D656E742E50726F63636573736F7200000000000000000000000000 DUP2 MSTORE POP DUP2 JUMP JUMPDEST PUSH1 0x40 MLOAD PUSH2 0x52 SWAP2 SWAP1 PUSH2 0x1763 JUMP JUMPDEST PUSH1 0x0 DUP1 SLOAD PUSH1 0xFF AND ISZERO ISZERO PUSH1 0x1 SUB PUSH2 0x128 JUMPI PUSH1 0x40 MLOAD PUSH32 0x8C379A000000000000000000000000000000000000000000000000000000000 DUP2 MSTORE PUSH1 0x20 PUSH1 0x4 DUP3 ADD MSTORE PUSH1 0x11 PUSH1 0x24 DUP3 ADD MSTORE PUSH32 0x5265656E7472616E6365206661696C6564000000000000000000000000000000 PUSH1 0x44 DUP3 ADD MSTORE PUSH1 0x64 ADD JUMPDEST PUSH1 0x40 MLOAD DUP1 SWAP2 SUB SWAP1 REVERT JUMPDEST PUSH1 0x0 DUP1 SLOAD PUSH32 0xFFFFFFFFFFFFFFFFFFFFFFFFFFFFFFFFFFFFFFFFFFFFFFFFFFFFFFFFFFFFFF00 AND PUSH1 0x1 OR SWAP1 SSTORE DUP3 EXTCODESIZE PUSH4 0xFFFFFFFF DUP2 AND ISZERO PUSH2 0x1C3 JUMPI PUSH1 0x40 MLOAD PUSH32 0x8C379A000000000000000000000000000000000000000000000000000000000 DUP2 MSTORE PUSH1 0x20 PUSH1 0x4 DUP3 ADD MSTORE PUSH1 0x14 PUSH1 0x24 DUP3 ADD MSTORE PUSH32 0x526563656976657220697320636F6E7472616374000000000000000000000000 PUSH1 0x44 DUP3 ADD MSTORE PUSH1 0x64 ADD PUSH2 0x11F JUMP JUMPDEST POP DUP2 EXTCODESIZE PUSH4 0xFFFFFFFF DUP2 AND ISZERO PUSH2 0x234 JUMPI PUSH1 0x40 MLOAD PUSH32 0x8C379A000000000000000000000000000000000000000000000000000000000 DUP2 MSTORE PUSH1 0x20 PUSH1 0x4 DUP3 ADD MSTORE PUSH1 0x17 PUSH1 0x24 DUP3 ADD MSTORE PUSH32 0x496D706C656D656E746F7220697320636F6E7472616374000000000000000000 PUSH1 0x44 DUP3 ADD MSTORE PUSH1 0x64 ADD PUSH2 0x11F JUMP JUMPDEST PUSH1 0x40 MLOAD PUSH32 0x4D41544943000000000000000000000000000000000000000000000000000000 PUSH1 0x20 DUP3 ADD MSTORE PUSH1 0x0 SWAP1 PUSH1 0x25 ADD PUSH1 0x40 MLOAD PUSH1 0x20 DUP2 DUP4 SUB SUB DUP2 MSTORE SWAP1 PUSH1 0x40 MSTORE DUP1 MLOAD SWAP1 PUSH1 0x20 ADD KECCAK256 DUP9 DUP9 PUSH1 0x40 MLOAD PUSH1 0x20 ADD PUSH2 0x28C SWAP3 SWAP2 SWAP1 PUSH2 0x17B4 JUMP JUMPDEST PUSH1 0x40 MLOAD PUSH1 0x20 DUP2 DUP4 SUB SUB DUP2 MSTORE SWAP1 PUSH1 0x40 MSTORE DUP1 MLOAD SWAP1 PUSH1 0x20 ADD KECCAK256 EQ DUP1 ISZERO PUSH2 0x2AF JUMPI POP PUSH1 0x0 CALLVALUE GT JUMPDEST DUP1 ISZERO PUSH2 0x2B9 JUMPI POP DUP6 ISZERO JUMPDEST ISZERO PUSH2 0x2D0 JUMPI PUSH2 0x2C9 CALLVALUE DUP7 DUP7 PUSH2 0x452 JUMP JUMPDEST SWAP1 POP PUSH2 0x3C7 JUMP JUMPDEST PUSH1 0x40 MLOAD PUSH32 0x4D41544943000000000000000000000000000000000000000000000000000000 PUSH1 0x20 DUP3 ADD MSTORE PUSH1 0x25 ADD PUSH1 0x40 MLOAD PUSH1 0x20 DUP2 DUP4 SUB SUB DUP2 MSTORE SWAP1 PUSH1 0x40 MSTORE DUP1 MLOAD SWAP1 PUSH1 0x20 ADD KECCAK256 DUP9 DUP9 PUSH1 0x40 MLOAD PUSH1 0x20 ADD PUSH2 0x325 SWAP3 SWAP2 SWAP1 PUSH2 0x17B4 JUMP JUMPDEST PUSH1 0x40 MLOAD PUSH1 0x20 DUP2 DUP4 SUB SUB DUP2 MSTORE SWAP1 PUSH1 0x40 MSTORE DUP1 MLOAD SWAP1 PUSH1 0x20 ADD KECCAK256 EQ ISZERO DUP1 ISZERO PUSH2 0x349 JUMPI POP PUSH1 0x0 DUP7 GT JUMPDEST DUP1 ISZERO PUSH2 0x353 JUMPI POP CALLVALUE ISZERO JUMPDEST ISZERO PUSH2 0x365 JUMPI PUSH2 0x2C9 DUP9 DUP9 DUP9 DUP9 DUP9 PUSH2 0x8C9 JUMP JUMPDEST PUSH1 0x40 MLOAD PUSH32 0x8C379A000000000000000000000000000000000000000000000000000000000 DUP2 MSTORE PUSH1 0x20 PUSH1 0x4 DUP3 ADD MSTORE PUSH1 0x12 PUSH1 0x24 DUP3 ADD MSTORE PUSH32 0x50726F6363657373696E67206661696C65640000000000000000000000000000 PUSH1 0x44 DUP3 ADD MSTORE PUSH1 0x64 ADD PUSH2 0x11F JUMP JUMPDEST PUSH1 0x0 DUP1 SLOAD PUSH32 0xFFFFFFFFFFFFFFFFFFFFFFFFFFFFFFFFFFFFFFFFFFFFFFFFFFFFFFFFFFFFFF00 AND SWAP1 SSTORE PUSH1 0x40 DUP1 MLOAD PUSH20 0xFFFFFFFFFFFFFFFFFFFFFFFFFFFFFFFFFFFFFFFF DUP4 DUP2 AND DUP3 MSTORE PUSH1 0x20 DUP3 ADD DUP10 SWAP1 MSTORE DUP8 AND SWAP2 CALLER SWAP2 PUSH32 0x9E1501BF0BDB2DA757D89A99A50272CE437437BD8E162153ED6016E61F324BA5 SWAP2 ADD PUSH1 0x40 MLOAD DUP1 SWAP2 SUB SWAP1 LOG3 POP PUSH1 0x1 SWAP8 SWAP7 POP POP POP POP POP POP POP JUMP JUMPDEST PUSH1 0x0 DUP1 PUSH1 0x0 DUP1 PUSH2 0x498 PUSH1 0x40 MLOAD DUP1 PUSH1 0x40 ADD PUSH1 0x40 MSTORE DUP1 PUSH1 0x5 DUP2 MSTORE PUSH1 0x20 ADD PUSH32 0x4D41544943000000000000000000000000000000000000000000000000000000 DUP2 MSTORE POP DUP9 DUP8 PUSH2 0x124B JUMP JUMPDEST PUSH1 0x40 MLOAD PUSH32 0xC75FFD8600000000000000000000000000000000000000000000000000000000 DUP2 MSTORE PUSH1 0x20 PUSH1 0x4 DUP3 ADD MSTORE PUSH1 0x12 PUSH1 0x24 DUP3 ADD MSTORE PUSH32 0x2E436F72706F726174696F6E2E5661756C740000000000000000000000000000 PUSH1 0x44 DUP3 ADD MSTORE SWAP3 SWAP6 POP SWAP1 SWAP4 POP SWAP2 POP PUSH1 0x0 SWAP1 PUSH20 0x477D7BD757C281419B69154AC05116748CD6E6DF SWAP1 PUSH4 0xC75FFD86 SWAP1 PUSH1 0x64 ADD PUSH1 0x20 PUSH1 0x40 MLOAD DUP1 DUP4 SUB DUP2 DUP7 GAS STATICCALL ISZERO DUP1 ISZERO PUSH2 0x539 JUMPI RETURNDATASIZE PUSH1 0x0 DUP1 RETURNDATACOPY RETURNDATASIZE PUSH1 0x0 REVERT JUMPDEST POP POP POP POP PUSH1 0x40 MLOAD RETURNDATASIZE PUSH1 0x1F NOT PUSH1 0x1F DUP3 ADD AND DUP3 ADD DUP1 PUSH1 0x40 MSTORE POP DUP2 ADD SWAP1 PUSH2 0x55D SWAP2 SWAP1 PUSH2 0x17C4 JUMP JUMPDEST PUSH1 0x40 MLOAD PUSH32 0xC75FFD8600000000000000000000000000000000000000000000000000000000 DUP2 MSTORE PUSH1 0x20 PUSH1 0x4 DUP3 ADD MSTORE PUSH1 0x10 PUSH1 0x24 DUP3 ADD MSTORE PUSH32 0x2E5061796D656E742E5377617070657200000000000000000000000000000000 PUSH1 0x44 DUP3 ADD MSTORE SWAP1 SWAP2 POP PUSH1 0x0 SWAP1 PUSH20 0x477D7BD757C281419B69154AC05116748CD6E6DF SWAP1 PUSH4 0xC75FFD86 SWAP1 PUSH1 0x64 ADD PUSH1 0x20 PUSH1 0x40 MLOAD DUP1 DUP4 SUB DUP2 DUP7 GAS STATICCALL ISZERO DUP1 ISZERO PUSH2 0x5F9 JUMPI RETURNDATASIZE PUSH1 0x0 DUP1 RETURNDATACOPY RETURNDATASIZE PUSH1 0x0 REVERT JUMPDEST POP POP POP POP PUSH1 0x40 MLOAD RETURNDATASIZE PUSH1 0x1F NOT PUSH1 0x1F DUP3 ADD AND DUP3 ADD DUP1 PUSH1 0x40 MSTORE POP DUP2 ADD SWAP1 PUSH2 0x61D SWAP2 SWAP1 PUSH2 0x17C4 JUMP JUMPDEST SWAP1 POP DUP8 PUSH20 0xFFFFFFFFFFFFFFFFFFFFFFFFFFFFFFFFFFFFFFFF AND DUP6 PUSH1 0x40 MLOAD PUSH1 0x0 PUSH1 0x40 MLOAD DUP1 DUP4 SUB DUP2 DUP6 DUP8 GAS CALL SWAP3 POP POP POP RETURNDATASIZE DUP1 PUSH1 0x0 DUP2 EQ PUSH2 0x677 JUMPI PUSH1 0x40 MLOAD SWAP2 POP PUSH1 0x1F NOT PUSH1 0x3F RETURNDATASIZE ADD AND DUP3 ADD PUSH1 0x40 MSTORE RETURNDATASIZE DUP3 MSTORE RETURNDATASIZE PUSH1 0x0 PUSH1 0x20 DUP5 ADD RETURNDATACOPY PUSH2 0x67C JUMP JUMPDEST PUSH1 0x60 SWAP2 POP JUMPDEST POP POP POP PUSH20 0xFFFFFFFFFFFFFFFFFFFFFFFFFFFFFFFFFFFFFFFF DUP8 AND ISZERO PUSH2 0x6FA JUMPI PUSH1 0x40 MLOAD PUSH20 0xFFFFFFFFFFFFFFFFFFFFFFFFFFFFFFFFFFFFFFFF DUP9 AND SWAP1 DUP6 SWAP1 PUSH1 0x0 DUP2 DUP2 DUP2 DUP6 DUP8 GAS CALL SWAP3 POP POP POP RETURNDATASIZE DUP1 PUSH1 0x0 DUP2 EQ PUSH2 0x6F1 JUMPI PUSH1 0x40 MLOAD SWAP2 POP PUSH1 0x1F NOT PUSH1 0x3F RETURNDATASIZE ADD AND DUP3 ADD PUSH1 0x40 MSTORE RETURNDATASIZE DUP3 MSTORE RETURNDATASIZE PUSH1 0x0 PUSH1 0x20 DUP5 ADD RETURNDATACOPY PUSH2 0x6F6 JUMP JUMPDEST PUSH1 0x60 SWAP2 POP JUMPDEST POP POP POP JUMPDEST PUSH20 0xFFFFFFFFFFFFFFFFFFFFFFFFFFFFFFFFFFFFFFFF DUP3 AND ISZERO PUSH2 0x77C JUMPI DUP2 PUSH20 0xFFFFFFFFFFFFFFFFFFFFFFFFFFFFFFFFFFFFFFFF AND DUP4 PUSH1 0x40 MLOAD JUMPDEST PUSH1 0x0 PUSH1 0x40 MLOAD DUP1 DUP4 SUB DUP2 DUP6 DUP8 GAS CALL SWAP3 POP POP POP RETURNDATASIZE DUP1 PUSH1 0x0 DUP2 EQ PUSH2 0x76F JUMPI PUSH1 0x40 MLOAD SWAP2 POP PUSH1 0x1F NOT PUSH1 0x3F RETURNDATASIZE ADD AND DUP3 ADD PUSH1 0x40 MSTORE RETURNDATASIZE DUP3 MSTORE RETURNDATASIZE PUSH1 0x0 PUSH1 0x20 DUP5 ADD RETURNDATACOPY PUSH2 0x774 JUMP JUMPDEST PUSH1 0x60 SWAP2 POP JUMPDEST POP POP POP PUSH2 0x89B JUMP JUMPDEST PUSH20 0xFFFFFFFFFFFFFFFFFFFFFFFFFFFFFFFFFFFFFFFF DUP2 AND ISZERO PUSH2 0x7B8 JUMPI DUP1 PUSH20 0xFFFFFFFFFFFFFFFFFFFFFFFFFFFFFFFFFFFFFFFF AND DUP4 PUSH1 0x40 MLOAD PUSH2 0x732 JUMP JUMPDEST PUSH20 0x477D7BD757C281419B69154AC05116748CD6E6DF PUSH20 0xFFFFFFFFFFFFFFFFFFFFFFFFFFFFFFFFFFFFFFFF AND PUSH4 0xAE50A39 PUSH1 0x40 MLOAD DUP2 PUSH4 0xFFFFFFFF AND PUSH1 0xE0 SHL DUP2 MSTORE PUSH1 0x4 ADD PUSH1 0x20 PUSH1 0x40 MLOAD DUP1 DUP4 SUB DUP2 DUP7 GAS STATICCALL ISZERO DUP1 ISZERO PUSH2 0x817 JUMPI RETURNDATASIZE PUSH1 0x0 DUP1 RETURNDATACOPY RETURNDATASIZE PUSH1 0x0 REVERT JUMPDEST POP POP POP POP PUSH1 0x40 MLOAD RETURNDATASIZE PUSH1 0x1F NOT PUSH1 0x1F DUP3 ADD AND DUP3 ADD DUP1 PUSH1 0x40 MSTORE POP DUP2 ADD SWAP1 PUSH2 0x83B SWAP2 SWAP1 PUSH2 0x17C4 JUMP JUMPDEST PUSH20 0xFFFFFFFFFFFFFFFFFFFFFFFFFFFFFFFFFFFFFFFF AND DUP4 PUSH1 0x40 MLOAD PUSH1 0x0 PUSH1 0x40 MLOAD DUP1 DUP4 SUB DUP2 DUP6 DUP8 GAS CALL SWAP3 POP POP POP RETURNDATASIZE DUP1 PUSH1 0x0 DUP2 EQ PUSH2 0x892 JUMPI PUSH1 0x40 MLOAD SWAP2 POP PUSH1 0x1F NOT PUSH1 0x3F RETURNDATASIZE ADD AND DUP3 ADD PUSH1 0x40 MSTORE RETURNDATASIZE DUP3 MSTORE RETURNDATASIZE PUSH1 0x0 PUSH1 0x20 DUP5 ADD RETURNDATACOPY PUSH2 0x897 JUMP JUMPDEST PUSH1 0x60 SWAP2 POP JUMPDEST POP POP POP JUMPDEST POP PUSH32 0x0 SWAP9 SWAP8 POP POP POP POP POP POP POP POP JUMP JUMPDEST PUSH1 0x40 MLOAD PUSH32 0xC75FFD8600000000000000000000000000000000000000000000000000000000 DUP2 MSTORE PUSH1 0x20 PUSH1 0x4 DUP3 ADD MSTORE PUSH1 0x10 PUSH1 0x24 DUP3 ADD MSTORE PUSH32 0x2E5061796D656E742E5377617070657200000000000000000000000000000000 PUSH1 0x44 DUP3 ADD MSTORE PUSH1 0x0 SWAP1 DUP2 SWAP1 PUSH20 0x477D7BD757C281419B69154AC05116748CD6E6DF SWAP1 PUSH4 0xC75FFD86 SWAP1 PUSH1 0x64 ADD PUSH1 0x20 PUSH1 0x40 MLOAD DUP1 DUP4 SUB DUP2 DUP7 GAS STATICCALL ISZERO DUP1 ISZERO PUSH2 0x964 JUMPI RETURNDATASIZE PUSH1 0x0 DUP1 RETURNDATACOPY RETURNDATASIZE PUSH1 0x0 REVERT JUMPDEST POP POP POP POP PUSH1 0x40 MLOAD RETURNDATASIZE PUSH1 0x1F NOT PUSH1 0x1F DUP3 ADD AND DUP3 ADD DUP1 PUSH1 0x40 MSTORE POP DUP2 ADD SWAP1 PUSH2 0x988 SWAP2 SWAP1 PUSH2 0x17C4 JUMP JUMPDEST PUSH1 0x40 MLOAD PUSH32 0xC75FFD8600000000000000000000000000000000000000000000000000000000 DUP2 MSTORE PUSH1 0x20 PUSH1 0x4 DUP3 ADD MSTORE PUSH1 0x13 PUSH1 0x24 DUP3 ADD MSTORE PUSH32 0x2E5061796D656E742E43757272656E6369657300000000000000000000000000 PUSH1 0x44 DUP3 ADD MSTORE SWAP1 SWAP2 POP DUP2 SWAP1 PUSH1 0x0 SWAP1 PUSH20 0x477D7BD757C281419B69154AC05116748CD6E6DF SWAP1 PUSH4 0xC75FFD86 SWAP1 PUSH1 0x64 ADD PUSH1 0x20 PUSH1 0x40 MLOAD DUP1 DUP4 SUB DUP2 DUP7 GAS STATICCALL ISZERO DUP1 ISZERO PUSH2 0xA26 JUMPI RETURNDATASIZE PUSH1 0x0 DUP1 RETURNDATACOPY RETURNDATASIZE PUSH1 0x0 REVERT JUMPDEST POP POP POP POP PUSH1 0x40 MLOAD RETURNDATASIZE PUSH1 0x1F NOT PUSH1 0x1F DUP3 ADD AND DUP3 ADD DUP1 PUSH1 0x40 MSTORE POP DUP2 ADD SWAP1 PUSH2 0xA4A SWAP2 SWAP1 PUSH2 0x17C4 JUMP JUMPDEST PUSH1 0x40 MLOAD PUSH32 0xDA240F1E00000000000000000000000000000000000000000000000000000000 DUP2 MSTORE SWAP1 SWAP2 POP DUP2 SWAP1 PUSH1 0x0 SWAP1 PUSH20 0xFFFFFFFFFFFFFFFFFFFFFFFFFFFFFFFFFFFFFFFF DUP4 AND SWAP1 PUSH4 0xDA240F1E SWAP1 PUSH2 0xAA6 SWAP1 DUP15 SWAP1 DUP15 SWAP1 PUSH1 0x4 ADD PUSH2 0x17E8 JUMP JUMPDEST PUSH1 0x20 PUSH1 0x40 MLOAD DUP1 DUP4 SUB DUP2 DUP7 GAS STATICCALL ISZERO DUP1 ISZERO PUSH2 0xAC3 JUMPI RETURNDATASIZE PUSH1 0x0 DUP1 RETURNDATACOPY RETURNDATASIZE PUSH1 0x0 REVERT JUMPDEST POP POP POP POP PUSH1 0x40 MLOAD RETURNDATASIZE PUSH1 0x1F NOT PUSH1 0x1F DUP3 ADD AND DUP3 ADD DUP1 PUSH1 0x40 MSTORE POP DUP2 ADD SWAP1 PUSH2 0xAE7 SWAP2 SWAP1 PUSH2 0x17C4 JUMP JUMPDEST SWAP1 POP DUP1 PUSH20 0xFFFFFFFFFFFFFFFFFFFFFFFFFFFFFFFFFFFFFFFF DUP2 AND PUSH2 0xB67 JUMPI PUSH1 0x40 MLOAD PUSH32 0x8C379A000000000000000000000000000000000000000000000000000000000 DUP2 MSTORE PUSH1 0x20 PUSH1 0x4 DUP3 ADD MSTORE PUSH1 0x13 PUSH1 0x24 DUP3 ADD MSTORE PUSH32 0x546F6B656E206E6F7420737570706F7274656400000000000000000000000000 PUSH1 0x44 DUP3 ADD MSTORE PUSH1 0x64 ADD PUSH2 0x11F JUMP JUMPDEST PUSH1 0x40 MLOAD PUSH32 0x70A0823100000000000000000000000000000000000000000000000000000000 DUP2 MSTORE CALLER PUSH1 0x4 DUP3 ADD MSTORE DUP11 SWAP1 PUSH20 0xFFFFFFFFFFFFFFFFFFFFFFFFFFFFFFFFFFFFFFFF DUP4 AND SWAP1 PUSH4 0x70A08231 SWAP1 PUSH1 0x24 ADD PUSH1 0x20 PUSH1 0x40 MLOAD DUP1 DUP4 SUB DUP2 DUP7 GAS STATICCALL ISZERO DUP1 ISZERO PUSH2 0xBD3 JUMPI RETURNDATASIZE PUSH1 0x0 DUP1 RETURNDATACOPY RETURNDATASIZE PUSH1 0x0 REVERT JUMPDEST POP POP POP POP PUSH1 0x40 MLOAD RETURNDATASIZE PUSH1 0x1F NOT PUSH1 0x1F DUP3 ADD AND DUP3 ADD DUP1 PUSH1 0x40 MSTORE POP DUP2 ADD SWAP1 PUSH2 0xBF7 SWAP2 SWAP1 PUSH2 0x1835 JUMP JUMPDEST LT ISZERO PUSH2 0xC5F JUMPI PUSH1 0x40 MLOAD PUSH32 0x8C379A000000000000000000000000000000000000000000000000000000000 DUP2 MSTORE PUSH1 0x20 PUSH1 0x4 DUP3 ADD MSTORE PUSH1 0x14 PUSH1 0x24 DUP3 ADD MSTORE PUSH32 0x496E73756666696369656E742062616C616E6365000000000000000000000000 PUSH1 0x44 DUP3 ADD MSTORE PUSH1 0x64 ADD PUSH2 0x11F JUMP JUMPDEST PUSH1 0x40 MLOAD PUSH32 0xDD62ED3E00000000000000000000000000000000000000000000000000000000 DUP2 MSTORE CALLER PUSH1 0x4 DUP3 ADD MSTORE ADDRESS PUSH1 0x24 DUP3 ADD MSTORE DUP11 SWAP1 PUSH20 0xFFFFFFFFFFFFFFFFFFFFFFFFFFFFFFFFFFFFFFFF DUP4 AND SWAP1 PUSH4 0xDD62ED3E SWAP1 PUSH1 0x44 ADD PUSH1 0x20 PUSH1 0x40 MLOAD DUP1 DUP4 SUB DUP2 DUP7 GAS STATICCALL ISZERO DUP1 ISZERO PUSH2 0xCD1 JUMPI RETURNDATASIZE PUSH1 0x0 DUP1 RETURNDATACOPY RETURNDATASIZE PUSH1 0x0 REVERT JUMPDEST POP POP POP POP PUSH1 0x40 MLOAD RETURNDATASIZE PUSH1 0x1F NOT PUSH1 0x1F DUP3 ADD AND DUP3 ADD DUP1 PUSH1 0x40 MSTORE POP DUP2 ADD SWAP1 PUSH2 0xCF5 SWAP2 SWAP1 PUSH2 0x1835 JUMP JUMPDEST LT ISZERO PUSH2 0xD5D JUMPI PUSH1 0x40 MLOAD PUSH32 0x8C379A000000000000000000000000000000000000000000000000000000000 DUP2 MSTORE PUSH1 0x20 PUSH1 0x4 DUP3 ADD MSTORE PUSH1 0x17 PUSH1 0x24 DUP3 ADD MSTORE PUSH32 0x50726F63636573736F72206E6F7420617070726F766564000000000000000000 PUSH1 0x44 DUP3 ADD MSTORE PUSH1 0x64 ADD PUSH2 0x11F JUMP JUMPDEST PUSH1 0x40 MLOAD PUSH32 0x23B872DD00000000000000000000000000000000000000000000000000000000 DUP2 MSTORE CALLER PUSH1 0x4 DUP3 ADD MSTORE ADDRESS PUSH1 0x24 DUP3 ADD MSTORE PUSH1 0x44 DUP2 ADD DUP12 SWAP1 MSTORE PUSH20 0xFFFFFFFFFFFFFFFFFFFFFFFFFFFFFFFFFFFFFFFF DUP3 AND SWAP1 PUSH4 0x23B872DD SWAP1 PUSH1 0x64 ADD PUSH1 0x20 PUSH1 0x40 MLOAD DUP1 DUP4 SUB DUP2 PUSH1 0x0 DUP8 GAS CALL ISZERO DUP1 ISZERO PUSH2 0xDD6 JUMPI RETURNDATASIZE PUSH1 0x0 DUP1 RETURNDATACOPY RETURNDATASIZE PUSH1 0x0 REVERT JUMPDEST POP POP POP POP PUSH1 0x40 MLOAD RETURNDATASIZE PUSH1 0x1F NOT PUSH1 0x1F DUP3 ADD AND DUP3 ADD DUP1 PUSH1 0x40 MSTORE POP DUP2 ADD SWAP1 PUSH2 0xDFA SWAP2 SWAP1 PUSH2 0x184E JUMP JUMPDEST POP PUSH1 0x0 DUP1 PUSH1 0x0 PUSH2 0xE4F DUP16 DUP16 DUP1 DUP1 PUSH1 0x1F ADD PUSH1 0x20 DUP1 SWAP2 DIV MUL PUSH1 0x20 ADD PUSH1 0x40 MLOAD SWAP1 DUP2 ADD PUSH1 0x40 MSTORE DUP1 SWAP4 SWAP3 SWAP2 SWAP1 DUP2 DUP2 MSTORE PUSH1 0x20 ADD DUP4 DUP4 DUP1 DUP3 DUP5 CALLDATACOPY PUSH1 0x0 DUP2 DUP5 ADD MSTORE PUSH1 0x1F NOT PUSH1 0x1F DUP3 ADD AND SWAP1 POP DUP1 DUP4 ADD SWAP3 POP POP POP POP POP POP POP DUP15 DUP14 PUSH2 0x124B JUMP JUMPDEST SWAP3 POP SWAP3 POP SWAP3 POP DUP4 PUSH20 0xFFFFFFFFFFFFFFFFFFFFFFFFFFFFFFFFFFFFFFFF AND PUSH4 0xA9059CBB DUP14 DUP6 PUSH1 0x40 MLOAD DUP4 PUSH4 0xFFFFFFFF AND PUSH1 0xE0 SHL DUP2 MSTORE PUSH1 0x4 ADD PUSH2 0xEB1 SWAP3 SWAP2 SWAP1 PUSH20 0xFFFFFFFFFFFFFFFFFFFFFFFFFFFFFFFFFFFFFFFF SWAP3 SWAP1 SWAP3 AND DUP3 MSTORE PUSH1 0x20 DUP3 ADD MSTORE PUSH1 0x40 ADD SWAP1 JUMP JUMPDEST PUSH1 0x20 PUSH1 0x40 MLOAD DUP1 DUP4 SUB DUP2 PUSH1 0x0 DUP8 GAS CALL ISZERO DUP1 ISZERO PUSH2 0xED0 JUMPI RETURNDATASIZE PUSH1 0x0 DUP1 RETURNDATACOPY RETURNDATASIZE PUSH1 0x0 REVERT JUMPDEST POP POP POP POP PUSH1 0x40 MLOAD RETURNDATASIZE PUSH1 0x1F NOT PUSH1 0x1F DUP3 ADD AND DUP3 ADD DUP1 PUSH1 0x40 MSTORE POP DUP2 ADD SWAP1 PUSH2 0xEF4 SWAP2 SWAP1 PUSH2 0x184E JUMP JUMPDEST POP PUSH20 0xFFFFFFFFFFFFFFFFFFFFFFFFFFFFFFFFFFFFFFFF DUP12 AND ISZERO PUSH2 0xFAC JUMPI PUSH1 0x40 MLOAD PUSH32 0xA9059CBB00000000000000000000000000000000000000000000000000000000 DUP2 MSTORE PUSH20 0xFFFFFFFFFFFFFFFFFFFFFFFFFFFFFFFFFFFFFFFF DUP13 DUP2 AND PUSH1 0x4 DUP4 ADD MSTORE PUSH1 0x24 DUP3 ADD DUP5 SWAP1 MSTORE DUP6 AND SWAP1 PUSH4 0xA9059CBB SWAP1 PUSH1 0x44 ADD PUSH1 0x20 PUSH1 0x40 MLOAD DUP1 DUP4 SUB DUP2 PUSH1 0x0 DUP8 GAS CALL ISZERO DUP1 ISZERO PUSH2 0xF86 JUMPI RETURNDATASIZE PUSH1 0x0 DUP1 RETURNDATACOPY RETURNDATASIZE PUSH1 0x0 REVERT JUMPDEST POP POP POP POP PUSH1 0x40 MLOAD RETURNDATASIZE PUSH1 0x1F NOT PUSH1 0x1F DUP3 ADD AND DUP3 ADD DUP1 PUSH1 0x40 MSTORE POP DUP2 ADD SWAP1 PUSH2 0xFAA SWAP2 SWAP1 PUSH2 0x184E JUMP JUMPDEST POP JUMPDEST PUSH20 0xFFFFFFFFFFFFFFFFFFFFFFFFFFFFFFFFFFFFFFFF DUP10 AND ISZERO PUSH2 0x1101 JUMPI PUSH1 0x40 MLOAD PUSH32 0x95EA7B300000000000000000000000000000000000000000000000000000000 DUP2 MSTORE PUSH20 0xFFFFFFFFFFFFFFFFFFFFFFFFFFFFFFFFFFFFFFFF DUP11 DUP2 AND PUSH1 0x4 DUP4 ADD MSTORE PUSH1 0x24 DUP3 ADD DUP4 SWAP1 MSTORE DUP6 AND SWAP1 PUSH4 0x95EA7B3 SWAP1 PUSH1 0x44 ADD PUSH1 0x20 PUSH1 0x40 MLOAD DUP1 DUP4 SUB DUP2 PUSH1 0x0 DUP8 GAS CALL ISZERO DUP1 ISZERO PUSH2 0x103D JUMPI RETURNDATASIZE PUSH1 0x0 DUP1 RETURNDATACOPY RETURNDATASIZE PUSH1 0x0 REVERT JUMPDEST POP POP POP POP PUSH1 0x40 MLOAD RETURNDATASIZE PUSH1 0x1F NOT PUSH1 0x1F DUP3 ADD AND DUP3 ADD DUP1 PUSH1 0x40 MSTORE POP DUP2 ADD SWAP1 PUSH2 0x1061 SWAP2 SWAP1 PUSH2 0x184E JUMP JUMPDEST POP PUSH1 0x40 MLOAD PUSH32 0x562C219500000000000000000000000000000000000000000000000000000000 DUP2 MSTORE PUSH20 0xFFFFFFFFFFFFFFFFFFFFFFFFFFFFFFFFFFFFFFFF DUP7 DUP2 AND PUSH1 0x4 DUP4 ADD MSTORE PUSH1 0x24 DUP3 ADD DUP4 SWAP1 MSTORE DUP10 AND SWAP1 PUSH4 0x562C2195 SWAP1 PUSH1 0x44 ADD PUSH1 0x20 PUSH1 0x40 MLOAD DUP1 DUP4 SUB DUP2 PUSH1 0x0 DUP8 GAS CALL ISZERO DUP1 ISZERO PUSH2 0x10D7 JUMPI RETURNDATASIZE PUSH1 0x0 DUP1 RETURNDATACOPY RETURNDATASIZE PUSH1 0x0 REVERT JUMPDEST POP POP POP POP PUSH1 0x40 MLOAD RETURNDATASIZE PUSH1 0x1F NOT PUSH1 0x1F DUP3 ADD AND DUP3 ADD DUP1 PUSH1 0x40 MSTORE POP DUP2 ADD SWAP1 PUSH2 0x10FB SWAP2 SWAP1 PUSH2 0x184E JUMP JUMPDEST POP PUSH2 0x1238 JUMP JUMPDEST DUP4 PUSH20 0xFFFFFFFFFFFFFFFFFFFFFFFFFFFFFFFFFFFFFFFF AND PUSH4 0xA9059CBB PUSH20 0x477D7BD757C281419B69154AC05116748CD6E6DF PUSH20 0xFFFFFFFFFFFFFFFFFFFFFFFFFFFFFFFFFFFFFFFF AND PUSH4 0xAE50A39 PUSH1 0x40 MLOAD DUP2 PUSH4 0xFFFFFFFF AND PUSH1 0xE0 SHL DUP2 MSTORE PUSH1 0x4 ADD PUSH1 0x20 PUSH1 0x40 MLOAD DUP1 DUP4 SUB DUP2 DUP7 GAS STATICCALL ISZERO DUP1 ISZERO PUSH2 0x117C JUMPI RETURNDATASIZE PUSH1 0x0 DUP1 RETURNDATACOPY RETURNDATASIZE PUSH1 0x0 REVERT JUMPDEST POP POP POP POP PUSH1 0x40 MLOAD RETURNDATASIZE PUSH1 0x1F NOT PUSH1 0x1F DUP3 ADD AND DUP3 ADD DUP1 PUSH1 0x40 MSTORE POP DUP2 ADD SWAP1 PUSH2 0x11A0 SWAP2 SWAP1 PUSH2 0x17C4 JUMP JUMPDEST PUSH1 0x40 MLOAD PUSH32 0xFFFFFFFF00000000000000000000000000000000000000000000000000000000 PUSH1 0xE0 DUP5 SWAP1 SHL AND DUP2 MSTORE PUSH20 0xFFFFFFFFFFFFFFFFFFFFFFFFFFFFFFFFFFFFFFFF SWAP1 SWAP2 AND PUSH1 0x4 DUP3 ADD MSTORE PUSH1 0x24 DUP2 ADD DUP5 SWAP1 MSTORE PUSH1 0x44 ADD PUSH1 0x20 PUSH1 0x40 MLOAD DUP1 DUP4 SUB DUP2 PUSH1 0x0 DUP8 GAS CALL ISZERO DUP1 ISZERO PUSH2 0x1212 JUMPI RETURNDATASIZE PUSH1 0x0 DUP1 RETURNDATACOPY RETURNDATASIZE PUSH1 0x0 REVERT JUMPDEST POP POP POP POP PUSH1 0x40 MLOAD RETURNDATASIZE PUSH1 0x1F NOT PUSH1 0x1F DUP3 ADD AND DUP3 ADD DUP1 PUSH1 0x40 MSTORE POP DUP2 ADD SWAP1 PUSH2 0x1236 SWAP2 SWAP1 PUSH2 0x184E JUMP JUMPDEST POP JUMPDEST POP SWAP3 SWAP14 SWAP13 POP POP POP POP POP POP POP POP POP POP POP POP POP JUMP JUMPDEST PUSH1 0x40 MLOAD PUSH32 0xC75FFD8600000000000000000000000000000000000000000000000000000000 DUP2 MSTORE PUSH1 0x20 PUSH1 0x4 DUP3 ADD MSTORE PUSH1 0x15 PUSH1 0x24 DUP3 ADD MSTORE PUSH32 0x2E5061796D656E742E496D706C656D656E746F72730000000000000000000000 PUSH1 0x44 DUP3 ADD MSTORE PUSH1 0x0 SWAP1 DUP2 SWAP1 DUP2 SWAP1 DUP2 SWAP1 PUSH20 0x477D7BD757C281419B69154AC05116748CD6E6DF SWAP1 PUSH4 0xC75FFD86 SWAP1 PUSH1 0x64 ADD PUSH1 0x20 PUSH1 0x40 MLOAD DUP1 DUP4 SUB DUP2 DUP7 GAS STATICCALL ISZERO DUP1 ISZERO PUSH2 0x12EA JUMPI RETURNDATASIZE PUSH1 0x0 DUP1 RETURNDATACOPY RETURNDATASIZE PUSH1 0x0 REVERT JUMPDEST POP POP POP POP PUSH1 0x40 MLOAD RETURNDATASIZE PUSH1 0x1F NOT PUSH1 0x1F DUP3 ADD AND DUP3 ADD DUP1 PUSH1 0x40 MSTORE POP DUP2 ADD SWAP1 PUSH2 0x130E SWAP2 SWAP1 PUSH2 0x17C4 JUMP JUMPDEST PUSH1 0x40 MLOAD PUSH32 0xC75FFD8600000000000000000000000000000000000000000000000000000000 DUP2 MSTORE PUSH1 0x20 PUSH1 0x4 DUP3 ADD MSTORE PUSH1 0x13 PUSH1 0x24 DUP3 ADD MSTORE PUSH32 0x2E5061796D656E742E43757272656E6369657300000000000000000000000000 PUSH1 0x44 DUP3 ADD MSTORE SWAP1 SWAP2 POP DUP2 SWAP1 PUSH1 0x0 SWAP1 PUSH20 0x477D7BD757C281419B69154AC05116748CD6E6DF SWAP1 PUSH4 0xC75FFD86 SWAP1 PUSH1 0x64 ADD PUSH1 0x20 PUSH1 0x40 MLOAD DUP1 DUP4 SUB DUP2 DUP7 GAS STATICCALL ISZERO DUP1 ISZERO PUSH2 0x13AC JUMPI RETURNDATASIZE PUSH1 0x0 DUP1 RETURNDATACOPY RETURNDATASIZE PUSH1 0x0 REVERT JUMPDEST POP POP POP POP PUSH1 0x40 MLOAD RETURNDATASIZE PUSH1 0x1F NOT PUSH1 0x1F DUP3 ADD AND DUP3 ADD DUP1 PUSH1 0x40 MSTORE POP DUP2 ADD SWAP1 PUSH2 0x13D0 SWAP2 SWAP1 PUSH2 0x17C4 JUMP JUMPDEST PUSH1 0x40 MLOAD PUSH32 0x4D41544943000000000000000000000000000000000000000000000000000000 PUSH1 0x20 DUP3 ADD MSTORE SWAP1 SWAP2 POP DUP2 SWAP1 PUSH1 0x0 SWAP1 DUP2 SWAP1 PUSH1 0x25 ADD PUSH1 0x40 MLOAD PUSH1 0x20 DUP2 DUP4 SUB SUB DUP2 MSTORE SWAP1 PUSH1 0x40 MSTORE DUP1 MLOAD SWAP1 PUSH1 0x20 ADD KECCAK256 DUP13 PUSH1 0x40 MLOAD PUSH1 0x20 ADD PUSH2 0x142D SWAP2 SWAP1 PUSH2 0x1870 JUMP JUMPDEST PUSH1 0x40 MLOAD PUSH1 0x20 DUP2 DUP4 SUB SUB DUP2 MSTORE SWAP1 PUSH1 0x40 MSTORE DUP1 MLOAD SWAP1 PUSH1 0x20 ADD KECCAK256 SUB PUSH2 0x14BE JUMPI DUP3 PUSH20 0xFFFFFFFFFFFFFFFFFFFFFFFFFFFFFFFFFFFFFFFF AND PUSH4 0xE43DD488 PUSH1 0x40 MLOAD DUP2 PUSH4 0xFFFFFFFF AND PUSH1 0xE0 SHL DUP2 MSTORE PUSH1 0x4 ADD PUSH1 0x20 PUSH1 0x40 MLOAD DUP1 DUP4 SUB DUP2 DUP7 GAS STATICCALL ISZERO DUP1 ISZERO PUSH2 0x1493 JUMPI RETURNDATASIZE PUSH1 0x0 DUP1 RETURNDATACOPY RETURNDATASIZE PUSH1 0x0 REVERT JUMPDEST POP POP POP POP PUSH1 0x40 MLOAD RETURNDATASIZE PUSH1 0x1F NOT PUSH1 0x1F DUP3 ADD AND DUP3 ADD DUP1 PUSH1 0x40 MSTORE POP DUP2 ADD SWAP1 PUSH2 0x14B7 SWAP2 SWAP1 PUSH2 0x188C JUMP JUMPDEST SWAP1 POP PUSH2 0x1554 JUMP JUMPDEST PUSH1 0x40 MLOAD PUSH32 0x1727DE4E00000000000000000000000000000000000000000000000000000000 DUP2 MSTORE PUSH20 0xFFFFFFFFFFFFFFFFFFFFFFFFFFFFFFFFFFFFFFFF DUP5 AND SWAP1 PUSH4 0x1727DE4E SWAP1 PUSH2 0x1510 SWAP1 DUP16 SWAP1 PUSH1 0x4 ADD PUSH2 0x1763 JUMP JUMPDEST PUSH1 0x20 PUSH1 0x40 MLOAD DUP1 DUP4 SUB DUP2 DUP7 GAS STATICCALL ISZERO DUP1 ISZERO PUSH2 0x152D JUMPI RETURNDATASIZE PUSH1 0x0 DUP1 RETURNDATACOPY RETURNDATASIZE PUSH1 0x0 REVERT JUMPDEST POP POP POP POP PUSH1 0x40 MLOAD RETURNDATASIZE PUSH1 0x1F NOT PUSH1 0x1F DUP3 ADD AND DUP3 ADD DUP1 PUSH1 0x40 MSTORE POP DUP2 ADD SWAP1 PUSH2 0x1551 SWAP2 SWAP1 PUSH2 0x188C JUMP JUMPDEST SWAP1 POP JUMPDEST PUSH20 0xFFFFFFFFFFFFFFFFFFFFFFFFFFFFFFFFFFFFFFFF DUP11 AND ISZERO PUSH2 0x1605 JUMPI PUSH1 0x40 MLOAD PUSH32 0x6452C22D00000000000000000000000000000000000000000000000000000000 DUP2 MSTORE PUSH20 0xFFFFFFFFFFFFFFFFFFFFFFFFFFFFFFFFFFFFFFFF DUP12 DUP2 AND PUSH1 0x4 DUP4 ADD MSTORE DUP7 AND SWAP1 PUSH4 0x6452C22D SWAP1 PUSH1 0x24 ADD PUSH1 0x20 PUSH1 0x40 MLOAD DUP1 DUP4 SUB DUP2 PUSH1 0x0 DUP8 GAS CALL ISZERO DUP1 ISZERO PUSH2 0x15DE JUMPI RETURNDATASIZE PUSH1 0x0 DUP1 RETURNDATACOPY RETURNDATASIZE PUSH1 0x0 REVERT JUMPDEST POP POP POP POP PUSH1 0x40 MLOAD RETURNDATASIZE PUSH1 0x1F NOT PUSH1 0x1F DUP3 ADD AND DUP3 ADD DUP1 PUSH1 0x40 MSTORE POP DUP2 ADD SWAP1 PUSH2 0x1602 SWAP2 SWAP1 PUSH2 0x18B1 JUMP JUMPDEST SWAP2 POP JUMPDEST PUSH3 0x186A0 PUSH2 0x1618 PUSH3 0xFFFFFF DUP4 AND DUP14 PUSH2 0x1903 JUMP JUMPDEST PUSH2 0x1622 SWAP2 SWAP1 PUSH2 0x1920 JUMP JUMPDEST PUSH2 0x162C SWAP1 DUP13 PUSH2 0x195B JUMP JUMPDEST SWAP9 POP PUSH2 0x3E8 PUSH1 0xFF DUP4 AND PUSH2 0x163F DUP12 DUP15 PUSH2 0x195B JUMP JUMPDEST PUSH2 0x1649 SWAP2 SWAP1 PUSH2 0x1903 JUMP JUMPDEST PUSH2 0x1653 SWAP2 SWAP1 PUSH2 0x1920 JUMP JUMPDEST SWAP8 POP PUSH2 0x165F DUP9 DUP11 PUSH2 0x196E JUMP JUMPDEST PUSH2 0x1669 SWAP1 DUP13 PUSH2 0x195B JUMP JUMPDEST SWAP7 POP POP POP POP POP POP POP SWAP4 POP SWAP4 POP SWAP4 SWAP1 POP JUMP JUMPDEST PUSH20 0xFFFFFFFFFFFFFFFFFFFFFFFFFFFFFFFFFFFFFFFF DUP2 AND DUP2 EQ PUSH2 0x169C JUMPI PUSH1 0x0 DUP1 REVERT JUMPDEST POP JUMP JUMPDEST PUSH1 0x0 DUP1 PUSH1 0x0 DUP1 PUSH1 0x0 PUSH1 0x80 DUP7 DUP9 SUB SLT ISZERO PUSH2 0x16B7 JUMPI PUSH1 0x0 DUP1 REVERT JUMPDEST DUP6 CALLDATALOAD PUSH8 0xFFFFFFFFFFFFFFFF DUP1 DUP3 GT ISZERO PUSH2 0x16CF JUMPI PUSH1 0x0 DUP1 REVERT JUMPDEST DUP2 DUP9 ADD SWAP2 POP DUP9 PUSH1 0x1F DUP4 ADD SLT PUSH2 0x16E3 JUMPI PUSH1 0x0 DUP1 REVERT JUMPDEST DUP2 CALLDATALOAD DUP2 DUP2 GT ISZERO PUSH2 0x16F2 JUMPI PUSH1 0x0 DUP1 REVERT JUMPDEST DUP10 PUSH1 0x20 DUP3 DUP6 ADD ADD GT ISZERO PUSH2 0x1704 JUMPI PUSH1 0x0 DUP1 REVERT JUMPDEST PUSH1 0x20 SWAP3 DUP4 ADD SWAP8 POP SWAP6 POP POP DUP7 ADD CALLDATALOAD SWAP3 POP PUSH1 0x40 DUP7 ADD CALLDATALOAD PUSH2 0x1721 DUP2 PUSH2 0x167A JUMP JUMPDEST SWAP2 POP PUSH1 0x60 DUP7 ADD CALLDATALOAD PUSH2 0x1731 DUP2 PUSH2 0x167A JUMP JUMPDEST DUP1 SWAP2 POP POP SWAP3 SWAP6 POP SWAP3 SWAP6 SWAP1 SWAP4 POP JUMP JUMPDEST PUSH1 0x0 JUMPDEST DUP4 DUP2 LT ISZERO PUSH2 0x175A JUMPI DUP2 DUP2 ADD MLOAD DUP4 DUP3 ADD MSTORE PUSH1 0x20 ADD PUSH2 0x1742 JUMP JUMPDEST POP POP PUSH1 0x0 SWAP2 ADD MSTORE JUMP JUMPDEST PUSH1 0x20 DUP2 MSTORE PUSH1 0x0 DUP3 MLOAD DUP1 PUSH1 0x20 DUP5 ADD MSTORE PUSH2 0x1782 DUP2 PUSH1 0x40 DUP6 ADD PUSH1 0x20 DUP8 ADD PUSH2 0x173F JUMP JUMPDEST PUSH1 0x1F ADD PUSH32 0xFFFFFFFFFFFFFFFFFFFFFFFFFFFFFFFFFFFFFFFFFFFFFFFFFFFFFFFFFFFFFFE0 AND SWAP2 SWAP1 SWAP2 ADD PUSH1 0x40 ADD SWAP3 SWAP2 POP POP JUMP JUMPDEST DUP2 DUP4 DUP3 CALLDATACOPY PUSH1 0x0 SWAP2 ADD SWAP1 DUP2 MSTORE SWAP2 SWAP1 POP JUMP JUMPDEST PUSH1 0x0 PUSH1 0x20 DUP3 DUP5 SUB SLT ISZERO PUSH2 0x17D6 JUMPI PUSH1 0x0 DUP1 REVERT JUMPDEST DUP2 MLOAD PUSH2 0x17E1 DUP2 PUSH2 0x167A JUMP JUMPDEST SWAP4 SWAP3 POP POP POP JUMP JUMPDEST PUSH1 0x20 DUP2 MSTORE DUP2 PUSH1 0x20 DUP3 ADD MSTORE DUP2 DUP4 PUSH1 0x40 DUP4 ADD CALLDATACOPY PUSH1 0x0 DUP2 DUP4 ADD PUSH1 0x40 SWAP1 DUP2 ADD SWAP2 SWAP1 SWAP2 MSTORE PUSH1 0x1F SWAP1 SWAP3 ADD PUSH32 0xFFFFFFFFFFFFFFFFFFFFFFFFFFFFFFFFFFFFFFFFFFFFFFFFFFFFFFFFFFFFFFE0 AND ADD ADD SWAP2 SWAP1 POP JUMP JUMPDEST PUSH1 0x0 PUSH1 0x20 DUP3 DUP5 SUB SLT ISZERO PUSH2 0x1847 JUMPI PUSH1 0x0 DUP1 REVERT JUMPDEST POP MLOAD SWAP2 SWAP1 POP JUMP JUMPDEST PUSH1 0x0 PUSH1 0x20 DUP3 DUP5 SUB SLT ISZERO PUSH2 0x1860 JUMPI PUSH1 0x0 DUP1 REVERT JUMPDEST DUP2 MLOAD DUP1 ISZERO ISZERO DUP2 EQ PUSH2 0x17E1 JUMPI PUSH1 0x0 DUP1 REVERT JUMPDEST PUSH1 0x0 DUP3 MLOAD PUSH2 0x1882 DUP2 DUP5 PUSH1 0x20 DUP8 ADD PUSH2 0x173F JUMP JUMPDEST SWAP2 SWAP1 SWAP2 ADD SWAP3 SWAP2 POP POP JUMP JUMPDEST PUSH1 0x0 PUSH1 0x20 DUP3 DUP5 SUB SLT ISZERO PUSH2 0x189E JUMPI PUSH1 0x0 DUP1 REVERT JUMPDEST DUP2 MLOAD PUSH3 0xFFFFFF DUP2 AND DUP2 EQ PUSH2 0x17E1 JUMPI PUSH1 0x0 DUP1 REVERT JUMPDEST PUSH1 0x0 PUSH1 0x20 DUP3 DUP5 SUB SLT ISZERO PUSH2 0x18C3 JUMPI PUSH1 0x0 DUP1 REVERT JUMPDEST DUP2 MLOAD PUSH1 0xFF DUP2 AND DUP2 EQ PUSH2 0x17E1 JUMPI PUSH1 0x0 DUP1 REVERT JUMPDEST PUSH32 0x4E487B7100000000000000000000000000000000000000000000000000000000 PUSH1 0x0 MSTORE PUSH1 0x11 PUSH1 0x4 MSTORE PUSH1 0x24 PUSH1 0x0 REVERT JUMPDEST DUP1 DUP3 MUL DUP2 ISZERO DUP3 DUP3 DIV DUP5 EQ OR PUSH2 0x191A JUMPI PUSH2 0x191A PUSH2 0x18D4 JUMP JUMPDEST SWAP3 SWAP2 POP POP JUMP JUMPDEST PUSH1 0x0 DUP3 PUSH2 0x1956 JUMPI PUSH32 0x4E487B7100000000000000000000000000000000000000000000000000000000 PUSH1 0x0 MSTORE PUSH1 0x12 PUSH1 0x4 MSTORE PUSH1 0x24 PUSH1 0x0 REVERT JUMPDEST POP DIV SWAP1 JUMP JUMPDEST DUP2 DUP2 SUB DUP2 DUP2 GT ISZERO PUSH2 0x191A JUMPI PUSH2 0x191A PUSH2 0x18D4 JUMP JUMPDEST DUP1 DUP3 ADD DUP1 DUP3 GT ISZERO PUSH2 0x191A JUMPI PUSH2 0x191A PUSH2 0x18D4 JUMP INVALID LOG2 PUSH5 0x6970667358 0x22 SLT KECCAK256 PUSH8 0x8748442A7C004826 KECCAK256 0xC2 CODESIZE SWAP10 0x5D PUSH7 0xB9404112B8B071 RETURNDATASIZE EXTCODEHASH EXP 0xDE PUSH25 0xDD95762FF964736F6C63430008120033000000000000000000 "
				},
				"gasEstimates": {
					"creation": {
						"codeDepositCost": "1316600",
						"executionCost": "infinite",
						"totalCost": "infinite"
					},
					"external": {
						"": "95",
						"Name()": "infinite",
						"Proccess(string,uint256,address,address)": "infinite"
					},
					"internal": {
						"_split(string memory,uint256,address)": "infinite",
						"_transferMATIC(uint256,address,address)": "infinite",
						"_transferToken(string calldata,uint256,address,address)": "infinite"
					}
				},
				"methodIdentifiers": {
					"Name()": "8052474d",
					"Proccess(string,uint256,address,address)": "57d8686d"
				}
			},
			"storageLayout": {
				"storage": [
					{
						"astId": 129,
						"contract": "contracts/Payment/Proccessor.sol:Proccessor",
						"label": "reentrantLocked",
						"offset": 0,
						"slot": "0",
						"type": "t_bool"
					}
				],
				"types": {
					"t_bool": {
						"encoding": "inplace",
						"label": "bool",
						"numberOfBytes": "1"
					}
				}
			},
			"userdoc": {
				"kind": "user",
				"methods": {},
				"version": 1
			}
		}
	}
}