{
	"Payment/Currencies.sol": {
		"Currencies": {
			"abi": [
				{
					"anonymous": false,
					"inputs": [
						{
							"indexed": false,
							"internalType": "string",
							"name": "_symbol",
							"type": "string"
						},
						{
							"indexed": false,
							"internalType": "address",
							"name": "_address",
							"type": "address"
						}
					],
					"name": "CurrencyAddition",
					"type": "event"
				},
				{
					"anonymous": false,
					"inputs": [
						{
							"indexed": false,
							"internalType": "string",
							"name": "_symbol",
							"type": "string"
						}
					],
					"name": "CurrencyRemoval",
					"type": "event"
				},
				{
					"stateMutability": "nonpayable",
					"type": "fallback"
				},
				{
					"inputs": [
						{
							"internalType": "string",
							"name": "_symbol",
							"type": "string"
						},
						{
							"internalType": "address",
							"name": "_address",
							"type": "address"
						}
					],
					"name": "AddCurrency",
					"outputs": [
						{
							"internalType": "bool",
							"name": "",
							"type": "bool"
						}
					],
					"stateMutability": "payable",
					"type": "function"
				},
				{
					"inputs": [],
					"name": "CurrencyList",
					"outputs": [
						{
							"internalType": "string[]",
							"name": "",
							"type": "string[]"
						}
					],
					"stateMutability": "view",
					"type": "function"
				},
				{
					"inputs": [
						{
							"internalType": "string",
							"name": "_symbol",
							"type": "string"
						}
					],
					"name": "GetAddress",
					"outputs": [
						{
							"internalType": "address",
							"name": "",
							"type": "address"
						}
					],
					"stateMutability": "view",
					"type": "function"
				},
				{
					"inputs": [
						{
							"internalType": "address",
							"name": "_address",
							"type": "address"
						}
					],
					"name": "GetSymbol",
					"outputs": [
						{
							"internalType": "string",
							"name": "",
							"type": "string"
						}
					],
					"stateMutability": "view",
					"type": "function"
				},
				{
					"inputs": [],
					"name": "Name",
					"outputs": [
						{
							"internalType": "string",
							"name": "",
							"type": "string"
						}
					],
					"stateMutability": "view",
					"type": "function"
				},
				{
					"inputs": [
						{
							"internalType": "string",
							"name": "_symbol",
							"type": "string"
						}
					],
					"name": "RemoveCurrency",
					"outputs": [
						{
							"internalType": "bool",
							"name": "",
							"type": "bool"
						}
					],
					"stateMutability": "nonpayable",
					"type": "function"
				},
				{
					"stateMutability": "payable",
					"type": "receive"
				}
			],
			"devdoc": {
				"kind": "dev",
				"methods": {},
				"version": 1
			},
			"evm": {
				"assembly": "    /* \"Payment/Currencies.sol\":640:4216  contract Currencies{... */\n  mstore(0x40, 0x80)\n  callvalue\n  dup1\n  iszero\n  tag_1\n  jumpi\n  0x00\n  dup1\n  revert\ntag_1:\n  pop\n  dataSize(sub_0)\n  dup1\n  dataOffset(sub_0)\n  0x00\n  codecopy\n  0x00\n  return\nstop\n\nsub_0: assembly {\n        /* \"Payment/Currencies.sol\":640:4216  contract Currencies{... */\n      mstore(0x40, 0x80)\n      jumpi(tag_1, lt(calldatasize, 0x04))\n      shr(0xe0, calldataload(0x00))\n      dup1\n      0x1d64f872\n      eq\n      tag_3\n      jumpi\n      dup1\n      0x6080e7ff\n      eq\n      tag_4\n      jumpi\n      dup1\n      0x67ac4450\n      eq\n      tag_5\n      jumpi\n      dup1\n      0x8052474d\n      eq\n      tag_6\n      jumpi\n      dup1\n      0x8b05f6de\n      eq\n      tag_7\n      jumpi\n      dup1\n      0x8e9497d2\n      eq\n      tag_8\n      jumpi\n      jump(tag_2)\n    tag_1:\n      jumpi(tag_2, calldatasize)\n        /* \"Payment/Currencies.sol\":4129:4137  revert() */\n      0x00\n      dup1\n      revert\n        /* \"Payment/Currencies.sol\":640:4216  contract Currencies{... */\n    tag_2:\n      callvalue\n      dup1\n      iszero\n      tag_11\n      jumpi\n      0x00\n      dup1\n      revert\n    tag_11:\n        /* \"Payment/Currencies.sol\":4194:4202  revert() */\n      0x00\n      dup1\n      revert\n        /* \"Payment/Currencies.sol\":3690:3816  function GetSymbol(address _address) external view returns(string memory){... */\n    tag_3:\n      callvalue\n      dup1\n      iszero\n      tag_14\n      jumpi\n      0x00\n      dup1\n      revert\n    tag_14:\n      pop\n      tag_15\n      0x04\n      dup1\n      calldatasize\n      sub\n      dup2\n      add\n      swap1\n      tag_16\n      swap2\n      swap1\n      tag_17\n      jump\t// in\n    tag_16:\n      tag_18\n      jump\t// in\n    tag_15:\n      mload(0x40)\n      tag_19\n      swap2\n      swap1\n      tag_20\n      jump\t// in\n    tag_19:\n      mload(0x40)\n      dup1\n      swap2\n      sub\n      swap1\n      return\n        /* \"Payment/Currencies.sol\":1613:2777  function AddCurrency(string calldata _symbol, address _address) external payable ownerOnly returns(bool){... */\n    tag_4:\n      tag_21\n      0x04\n      dup1\n      calldatasize\n      sub\n      dup2\n      add\n      swap1\n      tag_22\n      swap2\n      swap1\n      tag_23\n      jump\t// in\n    tag_22:\n      tag_24\n      jump\t// in\n    tag_21:\n      mload(0x40)\n      tag_25\n      swap2\n      swap1\n      tag_26\n      jump\t// in\n    tag_25:\n      mload(0x40)\n      dup1\n      swap2\n      sub\n      swap1\n      return\n        /* \"Payment/Currencies.sol\":3903:4003  function CurrencyList() public view returns (string[] memory){... */\n    tag_5:\n      callvalue\n      dup1\n      iszero\n      tag_27\n      jumpi\n      0x00\n      dup1\n      revert\n    tag_27:\n      pop\n      tag_28\n      tag_29\n      jump\t// in\n    tag_28:\n      mload(0x40)\n      tag_30\n      swap2\n      swap1\n      tag_31\n      jump\t// in\n    tag_30:\n      mload(0x40)\n      dup1\n      swap2\n      sub\n      swap1\n      return\n        /* \"Payment/Currencies.sol\":668:718  string constant public Name = \"Payment.Currencies\" */\n    tag_6:\n      callvalue\n      dup1\n      iszero\n      tag_32\n      jumpi\n      0x00\n      dup1\n      revert\n    tag_32:\n      pop\n      tag_33\n      tag_34\n      jump\t// in\n    tag_33:\n      mload(0x40)\n      tag_35\n      swap2\n      swap1\n      tag_20\n      jump\t// in\n    tag_35:\n      mload(0x40)\n      dup1\n      swap2\n      sub\n      swap1\n      return\n        /* \"Payment/Currencies.sol\":3555:3682  function GetAddress(string calldata _symbol) external view returns(address){... */\n    tag_7:\n      callvalue\n      dup1\n      iszero\n      tag_36\n      jumpi\n      0x00\n      dup1\n      revert\n    tag_36:\n      pop\n      tag_37\n      0x04\n      dup1\n      calldatasize\n      sub\n      dup2\n      add\n      swap1\n      tag_38\n      swap2\n      swap1\n      tag_39\n      jump\t// in\n    tag_38:\n      tag_40\n      jump\t// in\n    tag_37:\n      mload(0x40)\n      tag_41\n      swap2\n      swap1\n      tag_42\n      jump\t// in\n    tag_41:\n      mload(0x40)\n      dup1\n      swap2\n      sub\n      swap1\n      return\n        /* \"Payment/Currencies.sol\":2785:3468  function RemoveCurrency(string calldata _symbol) external ownerOnly returns(bool){... */\n    tag_8:\n      callvalue\n      dup1\n      iszero\n      tag_43\n      jumpi\n      0x00\n      dup1\n      revert\n    tag_43:\n      pop\n      tag_44\n      0x04\n      dup1\n      calldatasize\n      sub\n      dup2\n      add\n      swap1\n      tag_45\n      swap2\n      swap1\n      tag_39\n      jump\t// in\n    tag_45:\n      tag_46\n      jump\t// in\n    tag_44:\n      mload(0x40)\n      tag_47\n      swap2\n      swap1\n      tag_26\n      jump\t// in\n    tag_47:\n      mload(0x40)\n      dup1\n      swap2\n      sub\n      swap1\n      return\n        /* \"Payment/Currencies.sol\":3690:3816  function GetSymbol(address _address) external view returns(string memory){... */\n    tag_18:\n        /* \"Payment/Currencies.sol\":3749:3762  string memory */\n      0x60\n        /* \"Payment/Currencies.sol\":3783:3798  addressToSymbol */\n      0x01\n        /* \"Payment/Currencies.sol\":3783:3808  addressToSymbol[_address] */\n      0x00\n        /* \"Payment/Currencies.sol\":3799:3807  _address */\n      dup4\n        /* \"Payment/Currencies.sol\":3783:3808  addressToSymbol[_address] */\n      0xffffffffffffffffffffffffffffffffffffffff\n      and\n      0xffffffffffffffffffffffffffffffffffffffff\n      and\n      dup2\n      mstore\n      0x20\n      add\n      swap1\n      dup2\n      mstore\n      0x20\n      add\n      0x00\n      keccak256\n        /* \"Payment/Currencies.sol\":3776:3808  return addressToSymbol[_address] */\n      dup1\n      sload\n      tag_49\n      swap1\n      tag_50\n      jump\t// in\n    tag_49:\n      dup1\n      0x1f\n      add\n      0x20\n      dup1\n      swap2\n      div\n      mul\n      0x20\n      add\n      mload(0x40)\n      swap1\n      dup2\n      add\n      0x40\n      mstore\n      dup1\n      swap3\n      swap2\n      swap1\n      dup2\n      dup2\n      mstore\n      0x20\n      add\n      dup3\n      dup1\n      sload\n      tag_51\n      swap1\n      tag_50\n      jump\t// in\n    tag_51:\n      dup1\n      iszero\n      tag_52\n      jumpi\n      dup1\n      0x1f\n      lt\n      tag_53\n      jumpi\n      0x0100\n      dup1\n      dup4\n      sload\n      div\n      mul\n      dup4\n      mstore\n      swap2\n      0x20\n      add\n      swap2\n      jump(tag_52)\n    tag_53:\n      dup3\n      add\n      swap2\n      swap1\n      0x00\n      mstore\n      keccak256(0x00, 0x20)\n      swap1\n    tag_54:\n      dup2\n      sload\n      dup2\n      mstore\n      swap1\n      0x01\n      add\n      swap1\n      0x20\n      add\n      dup1\n      dup4\n      gt\n      tag_54\n      jumpi\n      dup3\n      swap1\n      sub\n      0x1f\n      and\n      dup3\n      add\n      swap2\n    tag_52:\n      pop\n      pop\n      pop\n      pop\n      pop\n      swap1\n      pop\n        /* \"Payment/Currencies.sol\":3690:3816  function GetSymbol(address _address) external view returns(string memory){... */\n      swap2\n      swap1\n      pop\n      jump\t// out\n        /* \"Payment/Currencies.sol\":1613:2777  function AddCurrency(string calldata _symbol, address _address) external payable ownerOnly returns(bool){... */\n    tag_24:\n        /* \"Payment/Currencies.sol\":1712:1716  bool */\n      0x00\n        /* \"Payment/Currencies.sol\":1459:1469  msg.sender */\n      caller\n        /* \"Payment/Currencies.sol\":1442:1469  ws.GetOwner() != msg.sender */\n      0xffffffffffffffffffffffffffffffffffffffff\n      and\n        /* \"Payment/Currencies.sol\":771:813  0x7F6b1F900113A9b46E4F38395bFC28075324a9F4 */\n      0x7f6b1f900113a9b46e4f38395bfc28075324a9f4\n        /* \"Payment/Currencies.sol\":1442:1453  ws.GetOwner */\n      0xffffffffffffffffffffffffffffffffffffffff\n      and\n      0x0ae50a39\n        /* \"Payment/Currencies.sol\":1442:1455  ws.GetOwner() */\n      mload(0x40)\n      dup2\n      0xffffffff\n      and\n      0xe0\n      shl\n      dup2\n      mstore\n      0x04\n      add\n      0x20\n      mload(0x40)\n      dup1\n      dup4\n      sub\n      dup2\n      dup7\n      gas\n      staticcall\n      iszero\n      dup1\n      iszero\n      tag_57\n      jumpi\n      returndatasize\n      0x00\n      dup1\n      returndatacopy\n      revert(0x00, returndatasize)\n    tag_57:\n      pop\n      pop\n      pop\n      pop\n      mload(0x40)\n      returndatasize\n      not(0x1f)\n      0x1f\n      dup3\n      add\n      and\n      dup3\n      add\n      dup1\n      0x40\n      mstore\n      pop\n      dup2\n      add\n      swap1\n      tag_58\n      swap2\n      swap1\n      tag_59\n      jump\t// in\n    tag_58:\n        /* \"Payment/Currencies.sol\":1442:1469  ws.GetOwner() != msg.sender */\n      0xffffffffffffffffffffffffffffffffffffffff\n      and\n      eq\n        /* \"Payment/Currencies.sol\":1439:1504  if(ws.GetOwner() != msg.sender)... */\n      tag_60\n      jumpi\n        /* \"Payment/Currencies.sol\":1484:1504  revert(\"Owner only\") */\n      mload(0x40)\n      0x08c379a000000000000000000000000000000000000000000000000000000000\n      dup2\n      mstore\n      0x04\n      add\n      tag_61\n      swap1\n      tag_62\n      jump\t// in\n    tag_61:\n      mload(0x40)\n      dup1\n      swap2\n      sub\n      swap1\n      revert\n        /* \"Payment/Currencies.sol\":1439:1504  if(ws.GetOwner() != msg.sender)... */\n    tag_60:\n        /* \"Payment/Currencies.sol\":1769:1770  0 */\n      0x00\n        /* \"Payment/Currencies.sol\":1733:1771  symbolToAddress[_symbol] != address(0) */\n      0xffffffffffffffffffffffffffffffffffffffff\n      and\n        /* \"Payment/Currencies.sol\":1733:1748  symbolToAddress */\n      0x00\n        /* \"Payment/Currencies.sol\":1749:1756  _symbol */\n      dup6\n      dup6\n        /* \"Payment/Currencies.sol\":1733:1757  symbolToAddress[_symbol] */\n      mload(0x40)\n      tag_64\n      swap3\n      swap2\n      swap1\n      tag_65\n      jump\t// in\n    tag_64:\n      swap1\n      dup2\n      mstore\n      0x20\n      add\n      mload(0x40)\n      dup1\n      swap2\n      sub\n      swap1\n      keccak256\n      0x00\n      swap1\n      sload\n      swap1\n      0x0100\n      exp\n      swap1\n      div\n      0xffffffffffffffffffffffffffffffffffffffff\n      and\n        /* \"Payment/Currencies.sol\":1733:1771  symbolToAddress[_symbol] != address(0) */\n      0xffffffffffffffffffffffffffffffffffffffff\n      and\n      eq\n        /* \"Payment/Currencies.sol\":1730:1968  if(symbolToAddress[_symbol] != address(0))... */\n      tag_66\n      jumpi\n        /* \"Payment/Currencies.sol\":1786:1815  revert(\"Symbol already used\") */\n      mload(0x40)\n      0x08c379a000000000000000000000000000000000000000000000000000000000\n      dup2\n      mstore\n      0x04\n      add\n      tag_67\n      swap1\n      tag_68\n      jump\t// in\n    tag_67:\n      mload(0x40)\n      dup1\n      swap2\n      sub\n      swap1\n      revert\n        /* \"Payment/Currencies.sol\":1730:1968  if(symbolToAddress[_symbol] != address(0))... */\n    tag_66:\n        /* \"Payment/Currencies.sol\":1902:1922  abi.encodePacked(\"\") */\n      add(0x20, mload(0x40))\n      tag_70\n      swap1\n      tag_71\n      jump\t// in\n    tag_70:\n      mload(0x40)\n      0x20\n      dup2\n      dup4\n      sub\n      sub\n      dup2\n      mstore\n      swap1\n      0x40\n      mstore\n        /* \"Payment/Currencies.sol\":1892:1923  keccak256(abi.encodePacked(\"\")) */\n      dup1\n      mload\n      swap1\n      0x20\n      add\n      keccak256\n        /* \"Payment/Currencies.sol\":1861:1876  addressToSymbol */\n      0x01\n        /* \"Payment/Currencies.sol\":1861:1886  addressToSymbol[_address] */\n      0x00\n        /* \"Payment/Currencies.sol\":1877:1885  _address */\n      dup5\n        /* \"Payment/Currencies.sol\":1861:1886  addressToSymbol[_address] */\n      0xffffffffffffffffffffffffffffffffffffffff\n      and\n      0xffffffffffffffffffffffffffffffffffffffff\n      and\n      dup2\n      mstore\n      0x20\n      add\n      swap1\n      dup2\n      mstore\n      0x20\n      add\n      0x00\n      keccak256\n        /* \"Payment/Currencies.sol\":1844:1887  abi.encodePacked(addressToSymbol[_address]) */\n      add(0x20, mload(0x40))\n      tag_72\n      swap2\n      swap1\n      tag_73\n      jump\t// in\n    tag_72:\n      mload(0x40)\n      0x20\n      dup2\n      dup4\n      sub\n      sub\n      dup2\n      mstore\n      swap1\n      0x40\n      mstore\n        /* \"Payment/Currencies.sol\":1834:1888  keccak256(abi.encodePacked(addressToSymbol[_address])) */\n      dup1\n      mload\n      swap1\n      0x20\n      add\n      keccak256\n        /* \"Payment/Currencies.sol\":1834:1923  keccak256(abi.encodePacked(addressToSymbol[_address])) != keccak256(abi.encodePacked(\"\")) */\n      eq\n        /* \"Payment/Currencies.sol\":1831:1968  if(keccak256(abi.encodePacked(addressToSymbol[_address])) != keccak256(abi.encodePacked(\"\")))... */\n      tag_74\n      jumpi\n        /* \"Payment/Currencies.sol\":1938:1968  revert(\"Address already used\") */\n      mload(0x40)\n      0x08c379a000000000000000000000000000000000000000000000000000000000\n      dup2\n      mstore\n      0x04\n      add\n      tag_75\n      swap1\n      tag_76\n      jump\t// in\n    tag_75:\n      mload(0x40)\n      dup1\n      swap2\n      sub\n      swap1\n      revert\n        /* \"Payment/Currencies.sol\":1831:1968  if(keccak256(abi.encodePacked(addressToSymbol[_address])) != keccak256(abi.encodePacked(\"\")))... */\n    tag_74:\n        /* \"Payment/Currencies.sol\":1981:1992  uint32 size */\n      0x00\n        /* \"Payment/Currencies.sol\":2032:2040  _address */\n      dup3\n        /* \"Payment/Currencies.sol\":2020:2041  extcodesize(_address) */\n      extcodesize\n        /* \"Payment/Currencies.sol\":2012:2041  size := extcodesize(_address) */\n      swap1\n      pop\n        /* \"Payment/Currencies.sol\":2065:2066  0 */\n      0x00\n        /* \"Payment/Currencies.sol\":2057:2061  size */\n      dup2\n        /* \"Payment/Currencies.sol\":2057:2066  size == 0 */\n      0xffffffff\n      and\n      sub\n        /* \"Payment/Currencies.sol\":2054:2105  if(size == 0)... */\n      tag_77\n      jumpi\n        /* \"Payment/Currencies.sol\":2081:2105  revert(\"Not a contract\") */\n      mload(0x40)\n      0x08c379a000000000000000000000000000000000000000000000000000000000\n      dup2\n      mstore\n      0x04\n      add\n      tag_78\n      swap1\n      tag_79\n      jump\t// in\n    tag_78:\n      mload(0x40)\n      dup1\n      swap2\n      sub\n      swap1\n      revert\n        /* \"Payment/Currencies.sol\":2054:2105  if(size == 0)... */\n    tag_77:\n        /* \"Payment/Currencies.sol\":2118:2140  CurrenciesInterface tk */\n      0x00\n        /* \"Payment/Currencies.sol\":2163:2171  _address */\n      dup4\n        /* \"Payment/Currencies.sol\":2118:2172  CurrenciesInterface tk = CurrenciesInterface(_address) */\n      swap1\n      pop\n        /* \"Payment/Currencies.sol\":2255:2257  tk */\n      dup1\n        /* \"Payment/Currencies.sol\":2255:2264  tk.symbol */\n      0xffffffffffffffffffffffffffffffffffffffff\n      and\n      0x95d89b41\n        /* \"Payment/Currencies.sol\":2255:2266  tk.symbol() */\n      mload(0x40)\n      dup2\n      0xffffffff\n      and\n      0xe0\n      shl\n      dup2\n      mstore\n      0x04\n      add\n      0x00\n      mload(0x40)\n      dup1\n      dup4\n      sub\n      dup2\n      dup7\n      gas\n      staticcall\n      iszero\n      dup1\n      iszero\n      tag_81\n      jumpi\n      returndatasize\n      0x00\n      dup1\n      returndatacopy\n      revert(0x00, returndatasize)\n    tag_81:\n      pop\n      pop\n      pop\n      pop\n      mload(0x40)\n      returndatasize\n      0x00\n      dup3\n      returndatacopy\n      returndatasize\n      not(0x1f)\n      0x1f\n      dup3\n      add\n      and\n      dup3\n      add\n      dup1\n      0x40\n      mstore\n      pop\n      dup2\n      add\n      swap1\n      tag_82\n      swap2\n      swap1\n      tag_83\n      jump\t// in\n    tag_82:\n        /* \"Payment/Currencies.sol\":2238:2267  abi.encodePacked(tk.symbol()) */\n      add(0x20, mload(0x40))\n      tag_84\n      swap2\n      swap1\n      tag_85\n      jump\t// in\n    tag_84:\n      mload(0x40)\n      0x20\n      dup2\n      dup4\n      sub\n      sub\n      dup2\n      mstore\n      swap1\n      0x40\n      mstore\n        /* \"Payment/Currencies.sol\":2228:2268  keccak256(abi.encodePacked(tk.symbol())) */\n      dup1\n      mload\n      swap1\n      0x20\n      add\n      keccak256\n        /* \"Payment/Currencies.sol\":2215:2222  _symbol */\n      dup7\n      dup7\n        /* \"Payment/Currencies.sol\":2198:2223  abi.encodePacked(_symbol) */\n      add(0x20, mload(0x40))\n      tag_86\n      swap3\n      swap2\n      swap1\n      tag_65\n      jump\t// in\n    tag_86:\n      mload(0x40)\n      0x20\n      dup2\n      dup4\n      sub\n      sub\n      dup2\n      mstore\n      swap1\n      0x40\n      mstore\n        /* \"Payment/Currencies.sol\":2188:2224  keccak256(abi.encodePacked(_symbol)) */\n      dup1\n      mload\n      swap1\n      0x20\n      add\n      keccak256\n        /* \"Payment/Currencies.sol\":2188:2268  keccak256(abi.encodePacked(_symbol)) != keccak256(abi.encodePacked(tk.symbol())) */\n      eq\n        /* \"Payment/Currencies.sol\":2185:2309  if(keccak256(abi.encodePacked(_symbol)) != keccak256(abi.encodePacked(tk.symbol())))... */\n      tag_87\n      jumpi\n        /* \"Payment/Currencies.sol\":2283:2309  revert(\"Symbols mismatch\") */\n      mload(0x40)\n      0x08c379a000000000000000000000000000000000000000000000000000000000\n      dup2\n      mstore\n      0x04\n      add\n      tag_88\n      swap1\n      tag_89\n      jump\t// in\n    tag_88:\n      mload(0x40)\n      dup1\n      swap2\n      sub\n      swap1\n      revert\n        /* \"Payment/Currencies.sol\":2185:2309  if(keccak256(abi.encodePacked(_symbol)) != keccak256(abi.encodePacked(tk.symbol())))... */\n    tag_87:\n        /* \"Payment/Currencies.sol\":2322:2341  address swapAddress */\n      0x00\n        /* \"Payment/Currencies.sol\":771:813  0x7F6b1F900113A9b46E4F38395bFC28075324a9F4 */\n      0x7f6b1f900113a9b46e4f38395bfc28075324a9f4\n        /* \"Payment/Currencies.sol\":2344:2357  ws.GetAddress */\n      0xffffffffffffffffffffffffffffffffffffffff\n      and\n      0x8b05f6de\n        /* \"Payment/Currencies.sol\":2344:2373  ws.GetAddress(\"Payment.Swap\") */\n      mload(0x40)\n      dup2\n      0xffffffff\n      and\n      0xe0\n      shl\n      dup2\n      mstore\n      0x04\n      add\n      tag_90\n      swap1\n      tag_91\n      jump\t// in\n    tag_90:\n      0x20\n      mload(0x40)\n      dup1\n      dup4\n      sub\n      dup2\n      dup7\n      gas\n      staticcall\n      iszero\n      dup1\n      iszero\n      tag_93\n      jumpi\n      returndatasize\n      0x00\n      dup1\n      returndatacopy\n      revert(0x00, returndatasize)\n    tag_93:\n      pop\n      pop\n      pop\n      pop\n      mload(0x40)\n      returndatasize\n      not(0x1f)\n      0x1f\n      dup3\n      add\n      and\n      dup3\n      add\n      dup1\n      0x40\n      mstore\n      pop\n      dup2\n      add\n      swap1\n      tag_94\n      swap2\n      swap1\n      tag_59\n      jump\t// in\n    tag_94:\n        /* \"Payment/Currencies.sol\":2322:2373  address swapAddress = ws.GetAddress(\"Payment.Swap\") */\n      swap1\n      pop\n        /* \"Payment/Currencies.sol\":2384:2407  CurrenciesInterface  sw */\n      0x00\n        /* \"Payment/Currencies.sol\":2430:2441  swapAddress */\n      dup2\n        /* \"Payment/Currencies.sol\":2384:2442  CurrenciesInterface  sw = CurrenciesInterface(swapAddress) */\n      swap1\n      pop\n        /* \"Payment/Currencies.sol\":2459:2461  sw */\n      dup1\n        /* \"Payment/Currencies.sol\":2459:2484  sw.SwapExactMATICForToken */\n      0xffffffffffffffffffffffffffffffffffffffff\n      and\n      0x846114d5\n        /* \"Payment/Currencies.sol\":2493:2502  msg.value */\n      callvalue\n        /* \"Payment/Currencies.sol\":2504:2512  _address */\n      dup9\n        /* \"Payment/Currencies.sol\":2459:2513  sw.SwapExactMATICForToken{value : msg.value}(_address) */\n      mload(0x40)\n      dup4\n      0xffffffff\n      and\n      0xe0\n      shl\n      dup2\n      mstore\n      0x04\n      add\n      tag_95\n      swap2\n      swap1\n      tag_42\n      jump\t// in\n    tag_95:\n      0x00\n      mload(0x40)\n      dup1\n      dup4\n      sub\n      dup2\n      dup6\n      dup9\n      gas\n      call\n      swap4\n      pop\n      pop\n      pop\n      pop\n      dup1\n      iszero\n      tag_96\n      jumpi\n      pop\n      mload(0x40)\n      returndatasize\n      0x00\n      dup3\n      returndatacopy\n      returndatasize\n      not(0x1f)\n      0x1f\n      dup3\n      add\n      and\n      dup3\n      add\n      dup1\n      0x40\n      mstore\n      pop\n      dup2\n      add\n      swap1\n      tag_97\n      swap2\n      swap1\n      tag_98\n      jump\t// in\n    tag_97:\n      0x01\n    tag_96:\n        /* \"Payment/Currencies.sol\":2455:2564  try sw.SwapExactMATICForToken{value : msg.value}(_address){}... */\n      tag_99\n      jumpi\n        /* \"Payment/Currencies.sol\":2532:2561  revert(\"Token not Supported\") */\n      mload(0x40)\n      0x08c379a000000000000000000000000000000000000000000000000000000000\n      dup2\n      mstore\n      0x04\n      add\n      tag_103\n      swap1\n      tag_104\n      jump\t// in\n    tag_103:\n      mload(0x40)\n      dup1\n      swap2\n      sub\n      swap1\n      revert\n        /* \"Payment/Currencies.sol\":2455:2564  try sw.SwapExactMATICForToken{value : msg.value}(_address){}... */\n    tag_99:\n      pop\n        /* \"Payment/Currencies.sol\":2603:2611  _address */\n      dup6\n        /* \"Payment/Currencies.sol\":2576:2591  symbolToAddress */\n      0x00\n        /* \"Payment/Currencies.sol\":2592:2599  _symbol */\n      dup10\n      dup10\n        /* \"Payment/Currencies.sol\":2576:2600  symbolToAddress[_symbol] */\n      mload(0x40)\n      tag_106\n      swap3\n      swap2\n      swap1\n      tag_65\n      jump\t// in\n    tag_106:\n      swap1\n      dup2\n      mstore\n      0x20\n      add\n      mload(0x40)\n      dup1\n      swap2\n      sub\n      swap1\n      keccak256\n      0x00\n        /* \"Payment/Currencies.sol\":2576:2611  symbolToAddress[_symbol] = _address */\n      0x0100\n      exp\n      dup2\n      sload\n      dup2\n      0xffffffffffffffffffffffffffffffffffffffff\n      mul\n      not\n      and\n      swap1\n      dup4\n      0xffffffffffffffffffffffffffffffffffffffff\n      and\n      mul\n      or\n      swap1\n      sstore\n      pop\n        /* \"Payment/Currencies.sol\":2650:2657  _symbol */\n      dup8\n      dup8\n        /* \"Payment/Currencies.sol\":2622:2637  addressToSymbol */\n      0x01\n        /* \"Payment/Currencies.sol\":2622:2647  addressToSymbol[_address] */\n      0x00\n        /* \"Payment/Currencies.sol\":2638:2646  _address */\n      dup10\n        /* \"Payment/Currencies.sol\":2622:2647  addressToSymbol[_address] */\n      0xffffffffffffffffffffffffffffffffffffffff\n      and\n      0xffffffffffffffffffffffffffffffffffffffff\n      and\n      dup2\n      mstore\n      0x20\n      add\n      swap1\n      dup2\n      mstore\n      0x20\n      add\n      0x00\n      keccak256\n        /* \"Payment/Currencies.sol\":2622:2657  addressToSymbol[_address] = _symbol */\n      swap2\n      dup3\n      tag_107\n      swap3\n      swap2\n      swap1\n      tag_108\n      jump\t// in\n    tag_107:\n      pop\n        /* \"Payment/Currencies.sol\":2670:2680  currencies */\n      0x02\n        /* \"Payment/Currencies.sol\":2686:2693  _symbol */\n      dup9\n      dup9\n        /* \"Payment/Currencies.sol\":2670:2694  currencies.push(_symbol) */\n      swap1\n      swap2\n      dup1\n      0x01\n      dup2\n      sload\n      add\n      dup1\n      dup3\n      sstore\n      dup1\n      swap2\n      pop\n      pop\n      0x01\n      swap1\n      sub\n      swap1\n      0x00\n      mstore\n      keccak256(0x00, 0x20)\n      add\n      0x00\n      swap1\n      swap2\n      swap3\n      swap1\n      swap2\n      swap3\n      swap1\n      swap2\n      swap3\n      swap1\n      swap2\n      swap3\n      pop\n      swap2\n      dup3\n      tag_110\n      swap3\n      swap2\n      swap1\n      tag_108\n      jump\t// in\n    tag_110:\n      pop\n        /* \"Payment/Currencies.sol\":2712:2747  CurrencyAddition(_symbol, _address) */\n      0xc0717ff4ff71aeb2317847926c6b6ac81e722c75d43a89b0c0b5b1b1a2f0819a\n        /* \"Payment/Currencies.sol\":2729:2736  _symbol */\n      dup9\n      dup9\n        /* \"Payment/Currencies.sol\":2738:2746  _address */\n      dup9\n        /* \"Payment/Currencies.sol\":2712:2747  CurrencyAddition(_symbol, _address) */\n      mload(0x40)\n      tag_111\n      swap4\n      swap3\n      swap2\n      swap1\n      tag_112\n      jump\t// in\n    tag_111:\n      mload(0x40)\n      dup1\n      swap2\n      sub\n      swap1\n      log1\n        /* \"Payment/Currencies.sol\":2765:2769  true */\n      0x01\n        /* \"Payment/Currencies.sol\":2758:2769  return true */\n      swap5\n      pop\n      pop\n      pop\n      pop\n      pop\n        /* \"Payment/Currencies.sol\":1613:2777  function AddCurrency(string calldata _symbol, address _address) external payable ownerOnly returns(bool){... */\n      swap4\n      swap3\n      pop\n      pop\n      pop\n      jump\t// out\n        /* \"Payment/Currencies.sol\":3903:4003  function CurrencyList() public view returns (string[] memory){... */\n    tag_29:\n        /* \"Payment/Currencies.sol\":3948:3963  string[] memory */\n      0x60\n        /* \"Payment/Currencies.sol\":3984:3994  currencies */\n      0x02\n        /* \"Payment/Currencies.sol\":3977:3995  return(currencies) */\n      dup1\n      sload\n      dup1\n      0x20\n      mul\n      0x20\n      add\n      mload(0x40)\n      swap1\n      dup2\n      add\n      0x40\n      mstore\n      dup1\n      swap3\n      swap2\n      swap1\n      dup2\n      dup2\n      mstore\n      0x20\n      add\n      0x00\n      swap1\n    tag_114:\n      dup3\n      dup3\n      lt\n      iszero\n      tag_115\n      jumpi\n      dup4\n      dup3\n      swap1\n      0x00\n      mstore\n      keccak256(0x00, 0x20)\n      add\n      dup1\n      sload\n      tag_117\n      swap1\n      tag_50\n      jump\t// in\n    tag_117:\n      dup1\n      0x1f\n      add\n      0x20\n      dup1\n      swap2\n      div\n      mul\n      0x20\n      add\n      mload(0x40)\n      swap1\n      dup2\n      add\n      0x40\n      mstore\n      dup1\n      swap3\n      swap2\n      swap1\n      dup2\n      dup2\n      mstore\n      0x20\n      add\n      dup3\n      dup1\n      sload\n      tag_118\n      swap1\n      tag_50\n      jump\t// in\n    tag_118:\n      dup1\n      iszero\n      tag_119\n      jumpi\n      dup1\n      0x1f\n      lt\n      tag_120\n      jumpi\n      0x0100\n      dup1\n      dup4\n      sload\n      div\n      mul\n      dup4\n      mstore\n      swap2\n      0x20\n      add\n      swap2\n      jump(tag_119)\n    tag_120:\n      dup3\n      add\n      swap2\n      swap1\n      0x00\n      mstore\n      keccak256(0x00, 0x20)\n      swap1\n    tag_121:\n      dup2\n      sload\n      dup2\n      mstore\n      swap1\n      0x01\n      add\n      swap1\n      0x20\n      add\n      dup1\n      dup4\n      gt\n      tag_121\n      jumpi\n      dup3\n      swap1\n      sub\n      0x1f\n      and\n      dup3\n      add\n      swap2\n    tag_119:\n      pop\n      pop\n      pop\n      pop\n      pop\n      dup2\n      mstore\n      0x20\n      add\n      swap1\n      0x01\n      add\n      swap1\n      jump(tag_114)\n    tag_115:\n      pop\n      pop\n      pop\n      pop\n      swap1\n      pop\n        /* \"Payment/Currencies.sol\":3903:4003  function CurrencyList() public view returns (string[] memory){... */\n      swap1\n      jump\t// out\n        /* \"Payment/Currencies.sol\":668:718  string constant public Name = \"Payment.Currencies\" */\n    tag_34:\n      mload(0x40)\n      dup1\n      0x40\n      add\n      0x40\n      mstore\n      dup1\n      0x12\n      dup2\n      mstore\n      0x20\n      add\n      0x5061796d656e742e43757272656e636965730000000000000000000000000000\n      dup2\n      mstore\n      pop\n      dup2\n      jump\t// out\n        /* \"Payment/Currencies.sol\":3555:3682  function GetAddress(string calldata _symbol) external view returns(address){... */\n    tag_40:\n        /* \"Payment/Currencies.sol\":3622:3629  address */\n      0x00\n        /* \"Payment/Currencies.sol\":3650:3665  symbolToAddress */\n      dup1\n        /* \"Payment/Currencies.sol\":3666:3673  _symbol */\n      dup4\n      dup4\n        /* \"Payment/Currencies.sol\":3650:3674  symbolToAddress[_symbol] */\n      mload(0x40)\n      tag_123\n      swap3\n      swap2\n      swap1\n      tag_65\n      jump\t// in\n    tag_123:\n      swap1\n      dup2\n      mstore\n      0x20\n      add\n      mload(0x40)\n      dup1\n      swap2\n      sub\n      swap1\n      keccak256\n      0x00\n      swap1\n      sload\n      swap1\n      0x0100\n      exp\n      swap1\n      div\n      0xffffffffffffffffffffffffffffffffffffffff\n      and\n        /* \"Payment/Currencies.sol\":3643:3674  return symbolToAddress[_symbol] */\n      swap1\n      pop\n        /* \"Payment/Currencies.sol\":3555:3682  function GetAddress(string calldata _symbol) external view returns(address){... */\n      swap3\n      swap2\n      pop\n      pop\n      jump\t// out\n        /* \"Payment/Currencies.sol\":2785:3468  function RemoveCurrency(string calldata _symbol) external ownerOnly returns(bool){... */\n    tag_46:\n        /* \"Payment/Currencies.sol\":2861:2865  bool */\n      0x00\n        /* \"Payment/Currencies.sol\":1459:1469  msg.sender */\n      caller\n        /* \"Payment/Currencies.sol\":1442:1469  ws.GetOwner() != msg.sender */\n      0xffffffffffffffffffffffffffffffffffffffff\n      and\n        /* \"Payment/Currencies.sol\":771:813  0x7F6b1F900113A9b46E4F38395bFC28075324a9F4 */\n      0x7f6b1f900113a9b46e4f38395bfc28075324a9f4\n        /* \"Payment/Currencies.sol\":1442:1453  ws.GetOwner */\n      0xffffffffffffffffffffffffffffffffffffffff\n      and\n      0x0ae50a39\n        /* \"Payment/Currencies.sol\":1442:1455  ws.GetOwner() */\n      mload(0x40)\n      dup2\n      0xffffffff\n      and\n      0xe0\n      shl\n      dup2\n      mstore\n      0x04\n      add\n      0x20\n      mload(0x40)\n      dup1\n      dup4\n      sub\n      dup2\n      dup7\n      gas\n      staticcall\n      iszero\n      dup1\n      iszero\n      tag_126\n      jumpi\n      returndatasize\n      0x00\n      dup1\n      returndatacopy\n      revert(0x00, returndatasize)\n    tag_126:\n      pop\n      pop\n      pop\n      pop\n      mload(0x40)\n      returndatasize\n      not(0x1f)\n      0x1f\n      dup3\n      add\n      and\n      dup3\n      add\n      dup1\n      0x40\n      mstore\n      pop\n      dup2\n      add\n      swap1\n      tag_127\n      swap2\n      swap1\n      tag_59\n      jump\t// in\n    tag_127:\n        /* \"Payment/Currencies.sol\":1442:1469  ws.GetOwner() != msg.sender */\n      0xffffffffffffffffffffffffffffffffffffffff\n      and\n      eq\n        /* \"Payment/Currencies.sol\":1439:1504  if(ws.GetOwner() != msg.sender)... */\n      tag_128\n      jumpi\n        /* \"Payment/Currencies.sol\":1484:1504  revert(\"Owner only\") */\n      mload(0x40)\n      0x08c379a000000000000000000000000000000000000000000000000000000000\n      dup2\n      mstore\n      0x04\n      add\n      tag_129\n      swap1\n      tag_62\n      jump\t// in\n    tag_129:\n      mload(0x40)\n      dup1\n      swap2\n      sub\n      swap1\n      revert\n        /* \"Payment/Currencies.sol\":1439:1504  if(ws.GetOwner() != msg.sender)... */\n    tag_128:\n        /* \"Payment/Currencies.sol\":2918:2919  0 */\n      0x00\n        /* \"Payment/Currencies.sol\":2882:2920  symbolToAddress[_symbol] == address(0) */\n      0xffffffffffffffffffffffffffffffffffffffff\n      and\n        /* \"Payment/Currencies.sol\":2882:2897  symbolToAddress */\n      0x00\n        /* \"Payment/Currencies.sol\":2898:2905  _symbol */\n      dup5\n      dup5\n        /* \"Payment/Currencies.sol\":2882:2906  symbolToAddress[_symbol] */\n      mload(0x40)\n      tag_131\n      swap3\n      swap2\n      swap1\n      tag_65\n      jump\t// in\n    tag_131:\n      swap1\n      dup2\n      mstore\n      0x20\n      add\n      mload(0x40)\n      dup1\n      swap2\n      sub\n      swap1\n      keccak256\n      0x00\n      swap1\n      sload\n      swap1\n      0x0100\n      exp\n      swap1\n      div\n      0xffffffffffffffffffffffffffffffffffffffff\n      and\n        /* \"Payment/Currencies.sol\":2882:2920  symbolToAddress[_symbol] == address(0) */\n      0xffffffffffffffffffffffffffffffffffffffff\n      and\n      sub\n        /* \"Payment/Currencies.sol\":2879:2960  if(symbolToAddress[_symbol] == address(0))... */\n      tag_132\n      jumpi\n        /* \"Payment/Currencies.sol\":2935:2960  revert(\"Symbol not used\") */\n      mload(0x40)\n      0x08c379a000000000000000000000000000000000000000000000000000000000\n      dup2\n      mstore\n      0x04\n      add\n      tag_133\n      swap1\n      tag_134\n      jump\t// in\n    tag_133:\n      mload(0x40)\n      dup1\n      swap2\n      sub\n      swap1\n      revert\n        /* \"Payment/Currencies.sol\":2879:2960  if(symbolToAddress[_symbol] == address(0))... */\n    tag_132:\n        /* \"Payment/Currencies.sol\":2988:3003  addressToSymbol */\n      0x01\n        /* \"Payment/Currencies.sol\":2988:3029  addressToSymbol[symbolToAddress[_symbol]] */\n      0x00\n        /* \"Payment/Currencies.sol\":3004:3019  symbolToAddress */\n      dup1\n        /* \"Payment/Currencies.sol\":3020:3027  _symbol */\n      dup6\n      dup6\n        /* \"Payment/Currencies.sol\":3004:3028  symbolToAddress[_symbol] */\n      mload(0x40)\n      tag_135\n      swap3\n      swap2\n      swap1\n      tag_65\n      jump\t// in\n    tag_135:\n      swap1\n      dup2\n      mstore\n      0x20\n      add\n      mload(0x40)\n      dup1\n      swap2\n      sub\n      swap1\n      keccak256\n      0x00\n      swap1\n      sload\n      swap1\n      0x0100\n      exp\n      swap1\n      div\n      0xffffffffffffffffffffffffffffffffffffffff\n      and\n        /* \"Payment/Currencies.sol\":2988:3029  addressToSymbol[symbolToAddress[_symbol]] */\n      0xffffffffffffffffffffffffffffffffffffffff\n      and\n      0xffffffffffffffffffffffffffffffffffffffff\n      and\n      dup2\n      mstore\n      0x20\n      add\n      swap1\n      dup2\n      mstore\n      0x20\n      add\n      0x00\n      keccak256\n      0x00\n        /* \"Payment/Currencies.sol\":2981:3029  delete addressToSymbol[symbolToAddress[_symbol]] */\n      tag_136\n      swap2\n      swap1\n      tag_137\n      jump\t// in\n    tag_136:\n        /* \"Payment/Currencies.sol\":3047:3062  symbolToAddress */\n      0x00\n        /* \"Payment/Currencies.sol\":3063:3070  _symbol */\n      dup4\n      dup4\n        /* \"Payment/Currencies.sol\":3047:3071  symbolToAddress[_symbol] */\n      mload(0x40)\n      tag_138\n      swap3\n      swap2\n      swap1\n      tag_65\n      jump\t// in\n    tag_138:\n      swap1\n      dup2\n      mstore\n      0x20\n      add\n      mload(0x40)\n      dup1\n      swap2\n      sub\n      swap1\n      keccak256\n      0x00\n        /* \"Payment/Currencies.sol\":3040:3071  delete symbolToAddress[_symbol] */\n      0x0100\n      exp\n      dup2\n      sload\n      swap1\n      0xffffffffffffffffffffffffffffffffffffffff\n      mul\n      not\n      and\n      swap1\n      sstore\n        /* \"Payment/Currencies.sol\":3084:3095  uint256 lng */\n      0x00\n        /* \"Payment/Currencies.sol\":3098:3108  currencies */\n      0x02\n        /* \"Payment/Currencies.sol\":3098:3115  currencies.length */\n      dup1\n      sload\n      swap1\n      pop\n        /* \"Payment/Currencies.sol\":3084:3115  uint256 lng = currencies.length */\n      swap1\n      pop\n        /* \"Payment/Currencies.sol\":3132:3141  uint256 i */\n      0x00\n        /* \"Payment/Currencies.sol\":3128:3368  for(uint256 i = 0; i < lng; i++){... */\n    tag_139:\n        /* \"Payment/Currencies.sol\":3151:3154  lng */\n      dup2\n        /* \"Payment/Currencies.sol\":3147:3148  i */\n      dup2\n        /* \"Payment/Currencies.sol\":3147:3154  i < lng */\n      lt\n        /* \"Payment/Currencies.sol\":3128:3368  for(uint256 i = 0; i < lng; i++){... */\n      iszero\n      tag_140\n      jumpi\n        /* \"Payment/Currencies.sol\":3247:3257  currencies */\n      0x02\n        /* \"Payment/Currencies.sol\":3258:3259  i */\n      dup2\n        /* \"Payment/Currencies.sol\":3247:3260  currencies[i] */\n      dup2\n      sload\n      dup2\n      lt\n      tag_142\n      jumpi\n      tag_143\n      tag_144\n      jump\t// in\n    tag_143:\n    tag_142:\n      swap1\n      0x00\n      mstore\n      keccak256(0x00, 0x20)\n      add\n        /* \"Payment/Currencies.sol\":3230:3261  abi.encodePacked(currencies[i]) */\n      add(0x20, mload(0x40))\n      tag_146\n      swap2\n      swap1\n      tag_73\n      jump\t// in\n    tag_146:\n      mload(0x40)\n      0x20\n      dup2\n      dup4\n      sub\n      sub\n      dup2\n      mstore\n      swap1\n      0x40\n      mstore\n        /* \"Payment/Currencies.sol\":3220:3262  keccak256(abi.encodePacked(currencies[i])) */\n      dup1\n      mload\n      swap1\n      0x20\n      add\n      keccak256\n        /* \"Payment/Currencies.sol\":3207:3214  _symbol */\n      dup6\n      dup6\n        /* \"Payment/Currencies.sol\":3190:3215  abi.encodePacked(_symbol) */\n      add(0x20, mload(0x40))\n      tag_147\n      swap3\n      swap2\n      swap1\n      tag_65\n      jump\t// in\n    tag_147:\n      mload(0x40)\n      0x20\n      dup2\n      dup4\n      sub\n      sub\n      dup2\n      mstore\n      swap1\n      0x40\n      mstore\n        /* \"Payment/Currencies.sol\":3180:3216  keccak256(abi.encodePacked(_symbol)) */\n      dup1\n      mload\n      swap1\n      0x20\n      add\n      keccak256\n        /* \"Payment/Currencies.sol\":3180:3262  keccak256(abi.encodePacked(_symbol)) == keccak256(abi.encodePacked(currencies[i])) */\n      sub\n        /* \"Payment/Currencies.sol\":3177:3357  if(keccak256(abi.encodePacked(_symbol)) == keccak256(abi.encodePacked(currencies[i]))){... */\n      tag_148\n      jumpi\n        /* \"Payment/Currencies.sol\":3300:3310  currencies */\n      0x02\n        /* \"Payment/Currencies.sol\":3315:3316  1 */\n      0x01\n        /* \"Payment/Currencies.sol\":3311:3314  lng */\n      dup4\n        /* \"Payment/Currencies.sol\":3311:3316  lng-1 */\n      tag_149\n      swap2\n      swap1\n      tag_150\n      jump\t// in\n    tag_149:\n        /* \"Payment/Currencies.sol\":3300:3317  currencies[lng-1] */\n      dup2\n      sload\n      dup2\n      lt\n      tag_151\n      jumpi\n      tag_152\n      tag_144\n      jump\t// in\n    tag_152:\n    tag_151:\n      swap1\n      0x00\n      mstore\n      keccak256(0x00, 0x20)\n      add\n        /* \"Payment/Currencies.sol\":3284:3294  currencies */\n      0x02\n        /* \"Payment/Currencies.sol\":3295:3296  i */\n      dup3\n        /* \"Payment/Currencies.sol\":3284:3297  currencies[i] */\n      dup2\n      sload\n      dup2\n      lt\n      tag_154\n      jumpi\n      tag_155\n      tag_144\n      jump\t// in\n    tag_155:\n    tag_154:\n      swap1\n      0x00\n      mstore\n      keccak256(0x00, 0x20)\n      add\n        /* \"Payment/Currencies.sol\":3284:3317  currencies[i] = currencies[lng-1] */\n      swap1\n      dup2\n      tag_157\n      swap2\n      swap1\n      tag_158\n      jump\t// in\n    tag_157:\n      pop\n        /* \"Payment/Currencies.sol\":3336:3341  break */\n      jump(tag_140)\n        /* \"Payment/Currencies.sol\":3177:3357  if(keccak256(abi.encodePacked(_symbol)) == keccak256(abi.encodePacked(currencies[i]))){... */\n    tag_148:\n        /* \"Payment/Currencies.sol\":3156:3159  i++ */\n      dup1\n      dup1\n      tag_159\n      swap1\n      tag_160\n      jump\t// in\n    tag_159:\n      swap2\n      pop\n      pop\n        /* \"Payment/Currencies.sol\":3128:3368  for(uint256 i = 0; i < lng; i++){... */\n      jump(tag_139)\n    tag_140:\n      pop\n        /* \"Payment/Currencies.sol\":3380:3390  currencies */\n      0x02\n        /* \"Payment/Currencies.sol\":3380:3396  currencies.pop() */\n      dup1\n      sload\n      dup1\n      tag_161\n      jumpi\n      tag_162\n      tag_163\n      jump\t// in\n    tag_162:\n    tag_161:\n      0x01\n      swap1\n      sub\n      dup2\n      dup2\n      swap1\n      0x00\n      mstore\n      keccak256(0x00, 0x20)\n      add\n      0x00\n      tag_165\n      swap2\n      swap1\n      tag_137\n      jump\t// in\n    tag_165:\n      swap1\n      sstore\n        /* \"Payment/Currencies.sol\":3414:3438  CurrencyRemoval(_symbol) */\n      0x13e5a601ba75c0d6275edbe545df6c19619713764e298f2ae79eb881367405c5\n        /* \"Payment/Currencies.sol\":3430:3437  _symbol */\n      dup5\n      dup5\n        /* \"Payment/Currencies.sol\":3414:3438  CurrencyRemoval(_symbol) */\n      mload(0x40)\n      tag_166\n      swap3\n      swap2\n      swap1\n      tag_167\n      jump\t// in\n    tag_166:\n      mload(0x40)\n      dup1\n      swap2\n      sub\n      swap1\n      log1\n        /* \"Payment/Currencies.sol\":3456:3460  true */\n      0x01\n        /* \"Payment/Currencies.sol\":3449:3460  return true */\n      swap2\n      pop\n      pop\n        /* \"Payment/Currencies.sol\":2785:3468  function RemoveCurrency(string calldata _symbol) external ownerOnly returns(bool){... */\n      swap3\n      swap2\n      pop\n      pop\n      jump\t// out\n    tag_137:\n      pop\n      dup1\n      sload\n      tag_168\n      swap1\n      tag_50\n      jump\t// in\n    tag_168:\n      0x00\n      dup3\n      sstore\n      dup1\n      0x1f\n      lt\n      tag_170\n      jumpi\n      pop\n      jump(tag_169)\n    tag_170:\n      0x1f\n      add\n      0x20\n      swap1\n      div\n      swap1\n      0x00\n      mstore\n      keccak256(0x00, 0x20)\n      swap1\n      dup2\n      add\n      swap1\n      tag_171\n      swap2\n      swap1\n      tag_172\n      jump\t// in\n    tag_171:\n    tag_169:\n      pop\n      jump\t// out\n    tag_172:\n    tag_173:\n      dup1\n      dup3\n      gt\n      iszero\n      tag_174\n      jumpi\n      0x00\n      dup2\n      0x00\n      swap1\n      sstore\n      pop\n      0x01\n      add\n      jump(tag_173)\n    tag_174:\n      pop\n      swap1\n      jump\t// out\n        /* \"#utility.yul\":7:82   */\n    tag_175:\n        /* \"#utility.yul\":40:46   */\n      0x00\n        /* \"#utility.yul\":73:75   */\n      0x40\n        /* \"#utility.yul\":67:76   */\n      mload\n        /* \"#utility.yul\":57:76   */\n      swap1\n      pop\n        /* \"#utility.yul\":7:82   */\n      swap1\n      jump\t// out\n        /* \"#utility.yul\":88:205   */\n    tag_176:\n        /* \"#utility.yul\":197:198   */\n      0x00\n        /* \"#utility.yul\":194:195   */\n      dup1\n        /* \"#utility.yul\":187:199   */\n      revert\n        /* \"#utility.yul\":211:328   */\n    tag_177:\n        /* \"#utility.yul\":320:321   */\n      0x00\n        /* \"#utility.yul\":317:318   */\n      dup1\n        /* \"#utility.yul\":310:322   */\n      revert\n        /* \"#utility.yul\":334:460   */\n    tag_178:\n        /* \"#utility.yul\":371:378   */\n      0x00\n        /* \"#utility.yul\":411:453   */\n      0xffffffffffffffffffffffffffffffffffffffff\n        /* \"#utility.yul\":404:409   */\n      dup3\n        /* \"#utility.yul\":400:454   */\n      and\n        /* \"#utility.yul\":389:454   */\n      swap1\n      pop\n        /* \"#utility.yul\":334:460   */\n      swap2\n      swap1\n      pop\n      jump\t// out\n        /* \"#utility.yul\":466:562   */\n    tag_179:\n        /* \"#utility.yul\":503:510   */\n      0x00\n        /* \"#utility.yul\":532:556   */\n      tag_266\n        /* \"#utility.yul\":550:555   */\n      dup3\n        /* \"#utility.yul\":532:556   */\n      tag_178\n      jump\t// in\n    tag_266:\n        /* \"#utility.yul\":521:556   */\n      swap1\n      pop\n        /* \"#utility.yul\":466:562   */\n      swap2\n      swap1\n      pop\n      jump\t// out\n        /* \"#utility.yul\":568:690   */\n    tag_180:\n        /* \"#utility.yul\":641:665   */\n      tag_268\n        /* \"#utility.yul\":659:664   */\n      dup2\n        /* \"#utility.yul\":641:665   */\n      tag_179\n      jump\t// in\n    tag_268:\n        /* \"#utility.yul\":634:639   */\n      dup2\n        /* \"#utility.yul\":631:666   */\n      eq\n        /* \"#utility.yul\":621:684   */\n      tag_269\n      jumpi\n        /* \"#utility.yul\":680:681   */\n      0x00\n        /* \"#utility.yul\":677:678   */\n      dup1\n        /* \"#utility.yul\":670:682   */\n      revert\n        /* \"#utility.yul\":621:684   */\n    tag_269:\n        /* \"#utility.yul\":568:690   */\n      pop\n      jump\t// out\n        /* \"#utility.yul\":696:835   */\n    tag_181:\n        /* \"#utility.yul\":742:747   */\n      0x00\n        /* \"#utility.yul\":780:786   */\n      dup2\n        /* \"#utility.yul\":767:787   */\n      calldataload\n        /* \"#utility.yul\":758:787   */\n      swap1\n      pop\n        /* \"#utility.yul\":796:829   */\n      tag_271\n        /* \"#utility.yul\":823:828   */\n      dup2\n        /* \"#utility.yul\":796:829   */\n      tag_180\n      jump\t// in\n    tag_271:\n        /* \"#utility.yul\":696:835   */\n      swap3\n      swap2\n      pop\n      pop\n      jump\t// out\n        /* \"#utility.yul\":841:1170   */\n    tag_17:\n        /* \"#utility.yul\":900:906   */\n      0x00\n        /* \"#utility.yul\":949:951   */\n      0x20\n        /* \"#utility.yul\":937:946   */\n      dup3\n        /* \"#utility.yul\":928:935   */\n      dup5\n        /* \"#utility.yul\":924:947   */\n      sub\n        /* \"#utility.yul\":920:952   */\n      slt\n        /* \"#utility.yul\":917:1036   */\n      iszero\n      tag_273\n      jumpi\n        /* \"#utility.yul\":955:1034   */\n      tag_274\n      tag_176\n      jump\t// in\n    tag_274:\n        /* \"#utility.yul\":917:1036   */\n    tag_273:\n        /* \"#utility.yul\":1075:1076   */\n      0x00\n        /* \"#utility.yul\":1100:1153   */\n      tag_275\n        /* \"#utility.yul\":1145:1152   */\n      dup5\n        /* \"#utility.yul\":1136:1142   */\n      dup3\n        /* \"#utility.yul\":1125:1134   */\n      dup6\n        /* \"#utility.yul\":1121:1143   */\n      add\n        /* \"#utility.yul\":1100:1153   */\n      tag_181\n      jump\t// in\n    tag_275:\n        /* \"#utility.yul\":1090:1153   */\n      swap2\n      pop\n        /* \"#utility.yul\":1046:1163   */\n      pop\n        /* \"#utility.yul\":841:1170   */\n      swap3\n      swap2\n      pop\n      pop\n      jump\t// out\n        /* \"#utility.yul\":1176:1275   */\n    tag_182:\n        /* \"#utility.yul\":1228:1234   */\n      0x00\n        /* \"#utility.yul\":1262:1267   */\n      dup2\n        /* \"#utility.yul\":1256:1268   */\n      mload\n        /* \"#utility.yul\":1246:1268   */\n      swap1\n      pop\n        /* \"#utility.yul\":1176:1275   */\n      swap2\n      swap1\n      pop\n      jump\t// out\n        /* \"#utility.yul\":1281:1450   */\n    tag_183:\n        /* \"#utility.yul\":1365:1376   */\n      0x00\n        /* \"#utility.yul\":1399:1405   */\n      dup3\n        /* \"#utility.yul\":1394:1397   */\n      dup3\n        /* \"#utility.yul\":1387:1406   */\n      mstore\n        /* \"#utility.yul\":1439:1443   */\n      0x20\n        /* \"#utility.yul\":1434:1437   */\n      dup3\n        /* \"#utility.yul\":1430:1444   */\n      add\n        /* \"#utility.yul\":1415:1444   */\n      swap1\n      pop\n        /* \"#utility.yul\":1281:1450   */\n      swap3\n      swap2\n      pop\n      pop\n      jump\t// out\n        /* \"#utility.yul\":1456:1702   */\n    tag_184:\n        /* \"#utility.yul\":1537:1538   */\n      0x00\n        /* \"#utility.yul\":1547:1660   */\n    tag_279:\n        /* \"#utility.yul\":1561:1567   */\n      dup4\n        /* \"#utility.yul\":1558:1559   */\n      dup2\n        /* \"#utility.yul\":1555:1568   */\n      lt\n        /* \"#utility.yul\":1547:1660   */\n      iszero\n      tag_281\n      jumpi\n        /* \"#utility.yul\":1646:1647   */\n      dup1\n        /* \"#utility.yul\":1641:1644   */\n      dup3\n        /* \"#utility.yul\":1637:1648   */\n      add\n        /* \"#utility.yul\":1631:1649   */\n      mload\n        /* \"#utility.yul\":1627:1628   */\n      dup2\n        /* \"#utility.yul\":1622:1625   */\n      dup5\n        /* \"#utility.yul\":1618:1629   */\n      add\n        /* \"#utility.yul\":1611:1650   */\n      mstore\n        /* \"#utility.yul\":1583:1585   */\n      0x20\n        /* \"#utility.yul\":1580:1581   */\n      dup2\n        /* \"#utility.yul\":1576:1586   */\n      add\n        /* \"#utility.yul\":1571:1586   */\n      swap1\n      pop\n        /* \"#utility.yul\":1547:1660   */\n      jump(tag_279)\n    tag_281:\n        /* \"#utility.yul\":1694:1695   */\n      0x00\n        /* \"#utility.yul\":1685:1691   */\n      dup5\n        /* \"#utility.yul\":1680:1683   */\n      dup5\n        /* \"#utility.yul\":1676:1692   */\n      add\n        /* \"#utility.yul\":1669:1696   */\n      mstore\n        /* \"#utility.yul\":1518:1702   */\n      pop\n        /* \"#utility.yul\":1456:1702   */\n      pop\n      pop\n      pop\n      jump\t// out\n        /* \"#utility.yul\":1708:1810   */\n    tag_185:\n        /* \"#utility.yul\":1749:1755   */\n      0x00\n        /* \"#utility.yul\":1800:1802   */\n      0x1f\n        /* \"#utility.yul\":1796:1803   */\n      not\n        /* \"#utility.yul\":1791:1793   */\n      0x1f\n        /* \"#utility.yul\":1784:1789   */\n      dup4\n        /* \"#utility.yul\":1780:1794   */\n      add\n        /* \"#utility.yul\":1776:1804   */\n      and\n        /* \"#utility.yul\":1766:1804   */\n      swap1\n      pop\n        /* \"#utility.yul\":1708:1810   */\n      swap2\n      swap1\n      pop\n      jump\t// out\n        /* \"#utility.yul\":1816:2193   */\n    tag_186:\n        /* \"#utility.yul\":1904:1907   */\n      0x00\n        /* \"#utility.yul\":1932:1971   */\n      tag_284\n        /* \"#utility.yul\":1965:1970   */\n      dup3\n        /* \"#utility.yul\":1932:1971   */\n      tag_182\n      jump\t// in\n    tag_284:\n        /* \"#utility.yul\":1987:2058   */\n      tag_285\n        /* \"#utility.yul\":2051:2057   */\n      dup2\n        /* \"#utility.yul\":2046:2049   */\n      dup6\n        /* \"#utility.yul\":1987:2058   */\n      tag_183\n      jump\t// in\n    tag_285:\n        /* \"#utility.yul\":1980:2058   */\n      swap4\n      pop\n        /* \"#utility.yul\":2067:2132   */\n      tag_286\n        /* \"#utility.yul\":2125:2131   */\n      dup2\n        /* \"#utility.yul\":2120:2123   */\n      dup6\n        /* \"#utility.yul\":2113:2117   */\n      0x20\n        /* \"#utility.yul\":2106:2111   */\n      dup7\n        /* \"#utility.yul\":2102:2118   */\n      add\n        /* \"#utility.yul\":2067:2132   */\n      tag_184\n      jump\t// in\n    tag_286:\n        /* \"#utility.yul\":2157:2186   */\n      tag_287\n        /* \"#utility.yul\":2179:2185   */\n      dup2\n        /* \"#utility.yul\":2157:2186   */\n      tag_185\n      jump\t// in\n    tag_287:\n        /* \"#utility.yul\":2152:2155   */\n      dup5\n        /* \"#utility.yul\":2148:2187   */\n      add\n        /* \"#utility.yul\":2141:2187   */\n      swap2\n      pop\n        /* \"#utility.yul\":1908:2193   */\n      pop\n        /* \"#utility.yul\":1816:2193   */\n      swap3\n      swap2\n      pop\n      pop\n      jump\t// out\n        /* \"#utility.yul\":2199:2512   */\n    tag_20:\n        /* \"#utility.yul\":2312:2316   */\n      0x00\n        /* \"#utility.yul\":2350:2352   */\n      0x20\n        /* \"#utility.yul\":2339:2348   */\n      dup3\n        /* \"#utility.yul\":2335:2353   */\n      add\n        /* \"#utility.yul\":2327:2353   */\n      swap1\n      pop\n        /* \"#utility.yul\":2399:2408   */\n      dup2\n        /* \"#utility.yul\":2393:2397   */\n      dup2\n        /* \"#utility.yul\":2389:2409   */\n      sub\n        /* \"#utility.yul\":2385:2386   */\n      0x00\n        /* \"#utility.yul\":2374:2383   */\n      dup4\n        /* \"#utility.yul\":2370:2387   */\n      add\n        /* \"#utility.yul\":2363:2410   */\n      mstore\n        /* \"#utility.yul\":2427:2505   */\n      tag_289\n        /* \"#utility.yul\":2500:2504   */\n      dup2\n        /* \"#utility.yul\":2491:2497   */\n      dup5\n        /* \"#utility.yul\":2427:2505   */\n      tag_186\n      jump\t// in\n    tag_289:\n        /* \"#utility.yul\":2419:2505   */\n      swap1\n      pop\n        /* \"#utility.yul\":2199:2512   */\n      swap3\n      swap2\n      pop\n      pop\n      jump\t// out\n        /* \"#utility.yul\":2518:2635   */\n    tag_187:\n        /* \"#utility.yul\":2627:2628   */\n      0x00\n        /* \"#utility.yul\":2624:2625   */\n      dup1\n        /* \"#utility.yul\":2617:2629   */\n      revert\n        /* \"#utility.yul\":2641:2758   */\n    tag_188:\n        /* \"#utility.yul\":2750:2751   */\n      0x00\n        /* \"#utility.yul\":2747:2748   */\n      dup1\n        /* \"#utility.yul\":2740:2752   */\n      revert\n        /* \"#utility.yul\":2764:2881   */\n    tag_189:\n        /* \"#utility.yul\":2873:2874   */\n      0x00\n        /* \"#utility.yul\":2870:2871   */\n      dup1\n        /* \"#utility.yul\":2863:2875   */\n      revert\n        /* \"#utility.yul\":2901:3454   */\n    tag_190:\n        /* \"#utility.yul\":2959:2967   */\n      0x00\n        /* \"#utility.yul\":2969:2975   */\n      dup1\n        /* \"#utility.yul\":3019:3022   */\n      dup4\n        /* \"#utility.yul\":3012:3016   */\n      0x1f\n        /* \"#utility.yul\":3004:3010   */\n      dup5\n        /* \"#utility.yul\":3000:3017   */\n      add\n        /* \"#utility.yul\":2996:3023   */\n      slt\n        /* \"#utility.yul\":2986:3108   */\n      tag_294\n      jumpi\n        /* \"#utility.yul\":3027:3106   */\n      tag_295\n      tag_187\n      jump\t// in\n    tag_295:\n        /* \"#utility.yul\":2986:3108   */\n    tag_294:\n        /* \"#utility.yul\":3140:3146   */\n      dup3\n        /* \"#utility.yul\":3127:3147   */\n      calldataload\n        /* \"#utility.yul\":3117:3147   */\n      swap1\n      pop\n        /* \"#utility.yul\":3170:3188   */\n      0xffffffffffffffff\n        /* \"#utility.yul\":3162:3168   */\n      dup2\n        /* \"#utility.yul\":3159:3189   */\n      gt\n        /* \"#utility.yul\":3156:3273   */\n      iszero\n      tag_296\n      jumpi\n        /* \"#utility.yul\":3192:3271   */\n      tag_297\n      tag_188\n      jump\t// in\n    tag_297:\n        /* \"#utility.yul\":3156:3273   */\n    tag_296:\n        /* \"#utility.yul\":3306:3310   */\n      0x20\n        /* \"#utility.yul\":3298:3304   */\n      dup4\n        /* \"#utility.yul\":3294:3311   */\n      add\n        /* \"#utility.yul\":3282:3311   */\n      swap2\n      pop\n        /* \"#utility.yul\":3360:3363   */\n      dup4\n        /* \"#utility.yul\":3352:3356   */\n      0x01\n        /* \"#utility.yul\":3344:3350   */\n      dup3\n        /* \"#utility.yul\":3340:3357   */\n      mul\n        /* \"#utility.yul\":3330:3338   */\n      dup4\n        /* \"#utility.yul\":3326:3358   */\n      add\n        /* \"#utility.yul\":3323:3364   */\n      gt\n        /* \"#utility.yul\":3320:3448   */\n      iszero\n      tag_298\n      jumpi\n        /* \"#utility.yul\":3367:3446   */\n      tag_299\n      tag_189\n      jump\t// in\n    tag_299:\n        /* \"#utility.yul\":3320:3448   */\n    tag_298:\n        /* \"#utility.yul\":2901:3454   */\n      swap3\n      pop\n      swap3\n      swap1\n      pop\n      jump\t// out\n        /* \"#utility.yul\":3460:4134   */\n    tag_23:\n        /* \"#utility.yul\":3540:3546   */\n      0x00\n        /* \"#utility.yul\":3548:3554   */\n      dup1\n        /* \"#utility.yul\":3556:3562   */\n      0x00\n        /* \"#utility.yul\":3605:3607   */\n      0x40\n        /* \"#utility.yul\":3593:3602   */\n      dup5\n        /* \"#utility.yul\":3584:3591   */\n      dup7\n        /* \"#utility.yul\":3580:3603   */\n      sub\n        /* \"#utility.yul\":3576:3608   */\n      slt\n        /* \"#utility.yul\":3573:3692   */\n      iszero\n      tag_301\n      jumpi\n        /* \"#utility.yul\":3611:3690   */\n      tag_302\n      tag_176\n      jump\t// in\n    tag_302:\n        /* \"#utility.yul\":3573:3692   */\n    tag_301:\n        /* \"#utility.yul\":3759:3760   */\n      0x00\n        /* \"#utility.yul\":3748:3757   */\n      dup5\n        /* \"#utility.yul\":3744:3761   */\n      add\n        /* \"#utility.yul\":3731:3762   */\n      calldataload\n        /* \"#utility.yul\":3789:3807   */\n      0xffffffffffffffff\n        /* \"#utility.yul\":3781:3787   */\n      dup2\n        /* \"#utility.yul\":3778:3808   */\n      gt\n        /* \"#utility.yul\":3775:3892   */\n      iszero\n      tag_303\n      jumpi\n        /* \"#utility.yul\":3811:3890   */\n      tag_304\n      tag_177\n      jump\t// in\n    tag_304:\n        /* \"#utility.yul\":3775:3892   */\n    tag_303:\n        /* \"#utility.yul\":3924:3989   */\n      tag_305\n        /* \"#utility.yul\":3981:3988   */\n      dup7\n        /* \"#utility.yul\":3972:3978   */\n      dup3\n        /* \"#utility.yul\":3961:3970   */\n      dup8\n        /* \"#utility.yul\":3957:3979   */\n      add\n        /* \"#utility.yul\":3924:3989   */\n      tag_190\n      jump\t// in\n    tag_305:\n        /* \"#utility.yul\":3906:3989   */\n      swap4\n      pop\n      swap4\n      pop\n        /* \"#utility.yul\":3702:3999   */\n      pop\n        /* \"#utility.yul\":4038:4040   */\n      0x20\n        /* \"#utility.yul\":4064:4117   */\n      tag_306\n        /* \"#utility.yul\":4109:4116   */\n      dup7\n        /* \"#utility.yul\":4100:4106   */\n      dup3\n        /* \"#utility.yul\":4089:4098   */\n      dup8\n        /* \"#utility.yul\":4085:4107   */\n      add\n        /* \"#utility.yul\":4064:4117   */\n      tag_181\n      jump\t// in\n    tag_306:\n        /* \"#utility.yul\":4054:4117   */\n      swap2\n      pop\n        /* \"#utility.yul\":4009:4127   */\n      pop\n        /* \"#utility.yul\":3460:4134   */\n      swap3\n      pop\n      swap3\n      pop\n      swap3\n      jump\t// out\n        /* \"#utility.yul\":4140:4230   */\n    tag_191:\n        /* \"#utility.yul\":4174:4181   */\n      0x00\n        /* \"#utility.yul\":4217:4222   */\n      dup2\n        /* \"#utility.yul\":4210:4223   */\n      iszero\n        /* \"#utility.yul\":4203:4224   */\n      iszero\n        /* \"#utility.yul\":4192:4224   */\n      swap1\n      pop\n        /* \"#utility.yul\":4140:4230   */\n      swap2\n      swap1\n      pop\n      jump\t// out\n        /* \"#utility.yul\":4236:4345   */\n    tag_192:\n        /* \"#utility.yul\":4317:4338   */\n      tag_309\n        /* \"#utility.yul\":4332:4337   */\n      dup2\n        /* \"#utility.yul\":4317:4338   */\n      tag_191\n      jump\t// in\n    tag_309:\n        /* \"#utility.yul\":4312:4315   */\n      dup3\n        /* \"#utility.yul\":4305:4339   */\n      mstore\n        /* \"#utility.yul\":4236:4345   */\n      pop\n      pop\n      jump\t// out\n        /* \"#utility.yul\":4351:4561   */\n    tag_26:\n        /* \"#utility.yul\":4438:4442   */\n      0x00\n        /* \"#utility.yul\":4476:4478   */\n      0x20\n        /* \"#utility.yul\":4465:4474   */\n      dup3\n        /* \"#utility.yul\":4461:4479   */\n      add\n        /* \"#utility.yul\":4453:4479   */\n      swap1\n      pop\n        /* \"#utility.yul\":4489:4554   */\n      tag_311\n        /* \"#utility.yul\":4551:4552   */\n      0x00\n        /* \"#utility.yul\":4540:4549   */\n      dup4\n        /* \"#utility.yul\":4536:4553   */\n      add\n        /* \"#utility.yul\":4527:4533   */\n      dup5\n        /* \"#utility.yul\":4489:4554   */\n      tag_192\n      jump\t// in\n    tag_311:\n        /* \"#utility.yul\":4351:4561   */\n      swap3\n      swap2\n      pop\n      pop\n      jump\t// out\n        /* \"#utility.yul\":4567:4691   */\n    tag_193:\n        /* \"#utility.yul\":4644:4650   */\n      0x00\n        /* \"#utility.yul\":4678:4683   */\n      dup2\n        /* \"#utility.yul\":4672:4684   */\n      mload\n        /* \"#utility.yul\":4662:4684   */\n      swap1\n      pop\n        /* \"#utility.yul\":4567:4691   */\n      swap2\n      swap1\n      pop\n      jump\t// out\n        /* \"#utility.yul\":4697:4891   */\n    tag_194:\n        /* \"#utility.yul\":4806:4817   */\n      0x00\n        /* \"#utility.yul\":4840:4846   */\n      dup3\n        /* \"#utility.yul\":4835:4838   */\n      dup3\n        /* \"#utility.yul\":4828:4847   */\n      mstore\n        /* \"#utility.yul\":4880:4884   */\n      0x20\n        /* \"#utility.yul\":4875:4878   */\n      dup3\n        /* \"#utility.yul\":4871:4885   */\n      add\n        /* \"#utility.yul\":4856:4885   */\n      swap1\n      pop\n        /* \"#utility.yul\":4697:4891   */\n      swap3\n      swap2\n      pop\n      pop\n      jump\t// out\n        /* \"#utility.yul\":4897:5039   */\n    tag_195:\n        /* \"#utility.yul\":4974:4978   */\n      0x00\n        /* \"#utility.yul\":4997:5000   */\n      dup2\n        /* \"#utility.yul\":4989:5000   */\n      swap1\n      pop\n        /* \"#utility.yul\":5027:5031   */\n      0x20\n        /* \"#utility.yul\":5022:5025   */\n      dup3\n        /* \"#utility.yul\":5018:5032   */\n      add\n        /* \"#utility.yul\":5010:5032   */\n      swap1\n      pop\n        /* \"#utility.yul\":4897:5039   */\n      swap2\n      swap1\n      pop\n      jump\t// out\n        /* \"#utility.yul\":5045:5204   */\n    tag_196:\n        /* \"#utility.yul\":5119:5130   */\n      0x00\n        /* \"#utility.yul\":5153:5159   */\n      dup3\n        /* \"#utility.yul\":5148:5151   */\n      dup3\n        /* \"#utility.yul\":5141:5160   */\n      mstore\n        /* \"#utility.yul\":5193:5197   */\n      0x20\n        /* \"#utility.yul\":5188:5191   */\n      dup3\n        /* \"#utility.yul\":5184:5198   */\n      add\n        /* \"#utility.yul\":5169:5198   */\n      swap1\n      pop\n        /* \"#utility.yul\":5045:5204   */\n      swap3\n      swap2\n      pop\n      pop\n      jump\t// out\n        /* \"#utility.yul\":5210:5567   */\n    tag_197:\n        /* \"#utility.yul\":5288:5291   */\n      0x00\n        /* \"#utility.yul\":5316:5355   */\n      tag_317\n        /* \"#utility.yul\":5349:5354   */\n      dup3\n        /* \"#utility.yul\":5316:5355   */\n      tag_182\n      jump\t// in\n    tag_317:\n        /* \"#utility.yul\":5371:5432   */\n      tag_318\n        /* \"#utility.yul\":5425:5431   */\n      dup2\n        /* \"#utility.yul\":5420:5423   */\n      dup6\n        /* \"#utility.yul\":5371:5432   */\n      tag_196\n      jump\t// in\n    tag_318:\n        /* \"#utility.yul\":5364:5432   */\n      swap4\n      pop\n        /* \"#utility.yul\":5441:5506   */\n      tag_319\n        /* \"#utility.yul\":5499:5505   */\n      dup2\n        /* \"#utility.yul\":5494:5497   */\n      dup6\n        /* \"#utility.yul\":5487:5491   */\n      0x20\n        /* \"#utility.yul\":5480:5485   */\n      dup7\n        /* \"#utility.yul\":5476:5492   */\n      add\n        /* \"#utility.yul\":5441:5506   */\n      tag_184\n      jump\t// in\n    tag_319:\n        /* \"#utility.yul\":5531:5560   */\n      tag_320\n        /* \"#utility.yul\":5553:5559   */\n      dup2\n        /* \"#utility.yul\":5531:5560   */\n      tag_185\n      jump\t// in\n    tag_320:\n        /* \"#utility.yul\":5526:5529   */\n      dup5\n        /* \"#utility.yul\":5522:5561   */\n      add\n        /* \"#utility.yul\":5515:5561   */\n      swap2\n      pop\n        /* \"#utility.yul\":5292:5567   */\n      pop\n        /* \"#utility.yul\":5210:5567   */\n      swap3\n      swap2\n      pop\n      pop\n      jump\t// out\n        /* \"#utility.yul\":5573:5769   */\n    tag_198:\n        /* \"#utility.yul\":5662:5672   */\n      0x00\n        /* \"#utility.yul\":5697:5763   */\n      tag_322\n        /* \"#utility.yul\":5759:5762   */\n      dup4\n        /* \"#utility.yul\":5751:5757   */\n      dup4\n        /* \"#utility.yul\":5697:5763   */\n      tag_197\n      jump\t// in\n    tag_322:\n        /* \"#utility.yul\":5683:5763   */\n      swap1\n      pop\n        /* \"#utility.yul\":5573:5769   */\n      swap3\n      swap2\n      pop\n      pop\n      jump\t// out\n        /* \"#utility.yul\":5775:5898   */\n    tag_199:\n        /* \"#utility.yul\":5855:5859   */\n      0x00\n        /* \"#utility.yul\":5887:5891   */\n      0x20\n        /* \"#utility.yul\":5882:5885   */\n      dup3\n        /* \"#utility.yul\":5878:5892   */\n      add\n        /* \"#utility.yul\":5870:5892   */\n      swap1\n      pop\n        /* \"#utility.yul\":5775:5898   */\n      swap2\n      swap1\n      pop\n      jump\t// out\n        /* \"#utility.yul\":5932:6923   */\n    tag_200:\n        /* \"#utility.yul\":6071:6074   */\n      0x00\n        /* \"#utility.yul\":6100:6164   */\n      tag_325\n        /* \"#utility.yul\":6158:6163   */\n      dup3\n        /* \"#utility.yul\":6100:6164   */\n      tag_193\n      jump\t// in\n    tag_325:\n        /* \"#utility.yul\":6180:6276   */\n      tag_326\n        /* \"#utility.yul\":6269:6275   */\n      dup2\n        /* \"#utility.yul\":6264:6267   */\n      dup6\n        /* \"#utility.yul\":6180:6276   */\n      tag_194\n      jump\t// in\n    tag_326:\n        /* \"#utility.yul\":6173:6276   */\n      swap4\n      pop\n        /* \"#utility.yul\":6302:6305   */\n      dup4\n        /* \"#utility.yul\":6347:6351   */\n      0x20\n        /* \"#utility.yul\":6339:6345   */\n      dup3\n        /* \"#utility.yul\":6335:6352   */\n      mul\n        /* \"#utility.yul\":6330:6333   */\n      dup6\n        /* \"#utility.yul\":6326:6353   */\n      add\n        /* \"#utility.yul\":6377:6443   */\n      tag_327\n        /* \"#utility.yul\":6437:6442   */\n      dup6\n        /* \"#utility.yul\":6377:6443   */\n      tag_195\n      jump\t// in\n    tag_327:\n        /* \"#utility.yul\":6466:6473   */\n      dup1\n        /* \"#utility.yul\":6497:6498   */\n      0x00\n        /* \"#utility.yul\":6482:6878   */\n    tag_328:\n        /* \"#utility.yul\":6507:6513   */\n      dup6\n        /* \"#utility.yul\":6504:6505   */\n      dup2\n        /* \"#utility.yul\":6501:6514   */\n      lt\n        /* \"#utility.yul\":6482:6878   */\n      iszero\n      tag_330\n      jumpi\n        /* \"#utility.yul\":6578:6587   */\n      dup5\n        /* \"#utility.yul\":6572:6576   */\n      dup5\n        /* \"#utility.yul\":6568:6588   */\n      sub\n        /* \"#utility.yul\":6563:6566   */\n      dup10\n        /* \"#utility.yul\":6556:6589   */\n      mstore\n        /* \"#utility.yul\":6629:6635   */\n      dup2\n        /* \"#utility.yul\":6623:6636   */\n      mload\n        /* \"#utility.yul\":6657:6741   */\n      tag_331\n        /* \"#utility.yul\":6736:6740   */\n      dup6\n        /* \"#utility.yul\":6721:6734   */\n      dup3\n        /* \"#utility.yul\":6657:6741   */\n      tag_198\n      jump\t// in\n    tag_331:\n        /* \"#utility.yul\":6649:6741   */\n      swap5\n      pop\n        /* \"#utility.yul\":6764:6834   */\n      tag_332\n        /* \"#utility.yul\":6827:6833   */\n      dup4\n        /* \"#utility.yul\":6764:6834   */\n      tag_199\n      jump\t// in\n    tag_332:\n        /* \"#utility.yul\":6754:6834   */\n      swap3\n      pop\n        /* \"#utility.yul\":6863:6867   */\n      0x20\n        /* \"#utility.yul\":6858:6861   */\n      dup11\n        /* \"#utility.yul\":6854:6868   */\n      add\n        /* \"#utility.yul\":6847:6868   */\n      swap10\n      pop\n        /* \"#utility.yul\":6542:6878   */\n      pop\n        /* \"#utility.yul\":6529:6530   */\n      0x01\n        /* \"#utility.yul\":6526:6527   */\n      dup2\n        /* \"#utility.yul\":6522:6531   */\n      add\n        /* \"#utility.yul\":6517:6531   */\n      swap1\n      pop\n        /* \"#utility.yul\":6482:6878   */\n      jump(tag_328)\n    tag_330:\n        /* \"#utility.yul\":6486:6500   */\n      pop\n        /* \"#utility.yul\":6894:6898   */\n      dup3\n        /* \"#utility.yul\":6887:6898   */\n      swap8\n      pop\n        /* \"#utility.yul\":6914:6917   */\n      dup8\n        /* \"#utility.yul\":6907:6917   */\n      swap6\n      pop\n        /* \"#utility.yul\":6076:6923   */\n      pop\n      pop\n      pop\n      pop\n      pop\n        /* \"#utility.yul\":5932:6923   */\n      swap3\n      swap2\n      pop\n      pop\n      jump\t// out\n        /* \"#utility.yul\":6929:7342   */\n    tag_31:\n        /* \"#utility.yul\":7092:7096   */\n      0x00\n        /* \"#utility.yul\":7130:7132   */\n      0x20\n        /* \"#utility.yul\":7119:7128   */\n      dup3\n        /* \"#utility.yul\":7115:7133   */\n      add\n        /* \"#utility.yul\":7107:7133   */\n      swap1\n      pop\n        /* \"#utility.yul\":7179:7188   */\n      dup2\n        /* \"#utility.yul\":7173:7177   */\n      dup2\n        /* \"#utility.yul\":7169:7189   */\n      sub\n        /* \"#utility.yul\":7165:7166   */\n      0x00\n        /* \"#utility.yul\":7154:7163   */\n      dup4\n        /* \"#utility.yul\":7150:7167   */\n      add\n        /* \"#utility.yul\":7143:7190   */\n      mstore\n        /* \"#utility.yul\":7207:7335   */\n      tag_334\n        /* \"#utility.yul\":7330:7334   */\n      dup2\n        /* \"#utility.yul\":7321:7327   */\n      dup5\n        /* \"#utility.yul\":7207:7335   */\n      tag_200\n      jump\t// in\n    tag_334:\n        /* \"#utility.yul\":7199:7335   */\n      swap1\n      pop\n        /* \"#utility.yul\":6929:7342   */\n      swap3\n      swap2\n      pop\n      pop\n      jump\t// out\n        /* \"#utility.yul\":7348:7877   */\n    tag_39:\n        /* \"#utility.yul\":7419:7425   */\n      0x00\n        /* \"#utility.yul\":7427:7433   */\n      dup1\n        /* \"#utility.yul\":7476:7478   */\n      0x20\n        /* \"#utility.yul\":7464:7473   */\n      dup4\n        /* \"#utility.yul\":7455:7462   */\n      dup6\n        /* \"#utility.yul\":7451:7474   */\n      sub\n        /* \"#utility.yul\":7447:7479   */\n      slt\n        /* \"#utility.yul\":7444:7563   */\n      iszero\n      tag_336\n      jumpi\n        /* \"#utility.yul\":7482:7561   */\n      tag_337\n      tag_176\n      jump\t// in\n    tag_337:\n        /* \"#utility.yul\":7444:7563   */\n    tag_336:\n        /* \"#utility.yul\":7630:7631   */\n      0x00\n        /* \"#utility.yul\":7619:7628   */\n      dup4\n        /* \"#utility.yul\":7615:7632   */\n      add\n        /* \"#utility.yul\":7602:7633   */\n      calldataload\n        /* \"#utility.yul\":7660:7678   */\n      0xffffffffffffffff\n        /* \"#utility.yul\":7652:7658   */\n      dup2\n        /* \"#utility.yul\":7649:7679   */\n      gt\n        /* \"#utility.yul\":7646:7763   */\n      iszero\n      tag_338\n      jumpi\n        /* \"#utility.yul\":7682:7761   */\n      tag_339\n      tag_177\n      jump\t// in\n    tag_339:\n        /* \"#utility.yul\":7646:7763   */\n    tag_338:\n        /* \"#utility.yul\":7795:7860   */\n      tag_340\n        /* \"#utility.yul\":7852:7859   */\n      dup6\n        /* \"#utility.yul\":7843:7849   */\n      dup3\n        /* \"#utility.yul\":7832:7841   */\n      dup7\n        /* \"#utility.yul\":7828:7850   */\n      add\n        /* \"#utility.yul\":7795:7860   */\n      tag_190\n      jump\t// in\n    tag_340:\n        /* \"#utility.yul\":7777:7860   */\n      swap3\n      pop\n      swap3\n      pop\n        /* \"#utility.yul\":7573:7870   */\n      pop\n        /* \"#utility.yul\":7348:7877   */\n      swap3\n      pop\n      swap3\n      swap1\n      pop\n      jump\t// out\n        /* \"#utility.yul\":7883:8001   */\n    tag_201:\n        /* \"#utility.yul\":7970:7994   */\n      tag_342\n        /* \"#utility.yul\":7988:7993   */\n      dup2\n        /* \"#utility.yul\":7970:7994   */\n      tag_179\n      jump\t// in\n    tag_342:\n        /* \"#utility.yul\":7965:7968   */\n      dup3\n        /* \"#utility.yul\":7958:7995   */\n      mstore\n        /* \"#utility.yul\":7883:8001   */\n      pop\n      pop\n      jump\t// out\n        /* \"#utility.yul\":8007:8229   */\n    tag_42:\n        /* \"#utility.yul\":8100:8104   */\n      0x00\n        /* \"#utility.yul\":8138:8140   */\n      0x20\n        /* \"#utility.yul\":8127:8136   */\n      dup3\n        /* \"#utility.yul\":8123:8141   */\n      add\n        /* \"#utility.yul\":8115:8141   */\n      swap1\n      pop\n        /* \"#utility.yul\":8151:8222   */\n      tag_344\n        /* \"#utility.yul\":8219:8220   */\n      0x00\n        /* \"#utility.yul\":8208:8217   */\n      dup4\n        /* \"#utility.yul\":8204:8221   */\n      add\n        /* \"#utility.yul\":8195:8201   */\n      dup5\n        /* \"#utility.yul\":8151:8222   */\n      tag_201\n      jump\t// in\n    tag_344:\n        /* \"#utility.yul\":8007:8229   */\n      swap3\n      swap2\n      pop\n      pop\n      jump\t// out\n        /* \"#utility.yul\":8235:8415   */\n    tag_202:\n        /* \"#utility.yul\":8283:8360   */\n      0x4e487b7100000000000000000000000000000000000000000000000000000000\n        /* \"#utility.yul\":8280:8281   */\n      0x00\n        /* \"#utility.yul\":8273:8361   */\n      mstore\n        /* \"#utility.yul\":8380:8384   */\n      0x22\n        /* \"#utility.yul\":8377:8378   */\n      0x04\n        /* \"#utility.yul\":8370:8385   */\n      mstore\n        /* \"#utility.yul\":8404:8408   */\n      0x24\n        /* \"#utility.yul\":8401:8402   */\n      0x00\n        /* \"#utility.yul\":8394:8409   */\n      revert\n        /* \"#utility.yul\":8421:8741   */\n    tag_50:\n        /* \"#utility.yul\":8465:8471   */\n      0x00\n        /* \"#utility.yul\":8502:8503   */\n      0x02\n        /* \"#utility.yul\":8496:8500   */\n      dup3\n        /* \"#utility.yul\":8492:8504   */\n      div\n        /* \"#utility.yul\":8482:8504   */\n      swap1\n      pop\n        /* \"#utility.yul\":8549:8550   */\n      0x01\n        /* \"#utility.yul\":8543:8547   */\n      dup3\n        /* \"#utility.yul\":8539:8551   */\n      and\n        /* \"#utility.yul\":8570:8588   */\n      dup1\n        /* \"#utility.yul\":8560:8641   */\n      tag_347\n      jumpi\n        /* \"#utility.yul\":8626:8630   */\n      0x7f\n        /* \"#utility.yul\":8618:8624   */\n      dup3\n        /* \"#utility.yul\":8614:8631   */\n      and\n        /* \"#utility.yul\":8604:8631   */\n      swap2\n      pop\n        /* \"#utility.yul\":8560:8641   */\n    tag_347:\n        /* \"#utility.yul\":8688:8690   */\n      0x20\n        /* \"#utility.yul\":8680:8686   */\n      dup3\n        /* \"#utility.yul\":8677:8691   */\n      lt\n        /* \"#utility.yul\":8657:8675   */\n      dup2\n        /* \"#utility.yul\":8654:8692   */\n      sub\n        /* \"#utility.yul\":8651:8735   */\n      tag_348\n      jumpi\n        /* \"#utility.yul\":8707:8725   */\n      tag_349\n      tag_202\n      jump\t// in\n    tag_349:\n        /* \"#utility.yul\":8651:8735   */\n    tag_348:\n        /* \"#utility.yul\":8472:8741   */\n      pop\n        /* \"#utility.yul\":8421:8741   */\n      swap2\n      swap1\n      pop\n      jump\t// out\n        /* \"#utility.yul\":8747:8890   */\n    tag_203:\n        /* \"#utility.yul\":8804:8809   */\n      0x00\n        /* \"#utility.yul\":8835:8841   */\n      dup2\n        /* \"#utility.yul\":8829:8842   */\n      mload\n        /* \"#utility.yul\":8820:8842   */\n      swap1\n      pop\n        /* \"#utility.yul\":8851:8884   */\n      tag_351\n        /* \"#utility.yul\":8878:8883   */\n      dup2\n        /* \"#utility.yul\":8851:8884   */\n      tag_180\n      jump\t// in\n    tag_351:\n        /* \"#utility.yul\":8747:8890   */\n      swap3\n      swap2\n      pop\n      pop\n      jump\t// out\n        /* \"#utility.yul\":8896:9247   */\n    tag_59:\n        /* \"#utility.yul\":8966:8972   */\n      0x00\n        /* \"#utility.yul\":9015:9017   */\n      0x20\n        /* \"#utility.yul\":9003:9012   */\n      dup3\n        /* \"#utility.yul\":8994:9001   */\n      dup5\n        /* \"#utility.yul\":8990:9013   */\n      sub\n        /* \"#utility.yul\":8986:9018   */\n      slt\n        /* \"#utility.yul\":8983:9102   */\n      iszero\n      tag_353\n      jumpi\n        /* \"#utility.yul\":9021:9100   */\n      tag_354\n      tag_176\n      jump\t// in\n    tag_354:\n        /* \"#utility.yul\":8983:9102   */\n    tag_353:\n        /* \"#utility.yul\":9141:9142   */\n      0x00\n        /* \"#utility.yul\":9166:9230   */\n      tag_355\n        /* \"#utility.yul\":9222:9229   */\n      dup5\n        /* \"#utility.yul\":9213:9219   */\n      dup3\n        /* \"#utility.yul\":9202:9211   */\n      dup6\n        /* \"#utility.yul\":9198:9220   */\n      add\n        /* \"#utility.yul\":9166:9230   */\n      tag_203\n      jump\t// in\n    tag_355:\n        /* \"#utility.yul\":9156:9230   */\n      swap2\n      pop\n        /* \"#utility.yul\":9112:9240   */\n      pop\n        /* \"#utility.yul\":8896:9247   */\n      swap3\n      swap2\n      pop\n      pop\n      jump\t// out\n        /* \"#utility.yul\":9253:9413   */\n    tag_204:\n        /* \"#utility.yul\":9393:9405   */\n      0x4f776e6572206f6e6c7900000000000000000000000000000000000000000000\n        /* \"#utility.yul\":9389:9390   */\n      0x00\n        /* \"#utility.yul\":9381:9387   */\n      dup3\n        /* \"#utility.yul\":9377:9391   */\n      add\n        /* \"#utility.yul\":9370:9406   */\n      mstore\n        /* \"#utility.yul\":9253:9413   */\n      pop\n      jump\t// out\n        /* \"#utility.yul\":9419:9785   */\n    tag_205:\n        /* \"#utility.yul\":9561:9564   */\n      0x00\n        /* \"#utility.yul\":9582:9649   */\n      tag_358\n        /* \"#utility.yul\":9646:9648   */\n      0x0a\n        /* \"#utility.yul\":9641:9644   */\n      dup4\n        /* \"#utility.yul\":9582:9649   */\n      tag_183\n      jump\t// in\n    tag_358:\n        /* \"#utility.yul\":9575:9649   */\n      swap2\n      pop\n        /* \"#utility.yul\":9658:9751   */\n      tag_359\n        /* \"#utility.yul\":9747:9750   */\n      dup3\n        /* \"#utility.yul\":9658:9751   */\n      tag_204\n      jump\t// in\n    tag_359:\n        /* \"#utility.yul\":9776:9778   */\n      0x20\n        /* \"#utility.yul\":9771:9774   */\n      dup3\n        /* \"#utility.yul\":9767:9779   */\n      add\n        /* \"#utility.yul\":9760:9779   */\n      swap1\n      pop\n        /* \"#utility.yul\":9419:9785   */\n      swap2\n      swap1\n      pop\n      jump\t// out\n        /* \"#utility.yul\":9791:10210   */\n    tag_62:\n        /* \"#utility.yul\":9957:9961   */\n      0x00\n        /* \"#utility.yul\":9995:9997   */\n      0x20\n        /* \"#utility.yul\":9984:9993   */\n      dup3\n        /* \"#utility.yul\":9980:9998   */\n      add\n        /* \"#utility.yul\":9972:9998   */\n      swap1\n      pop\n        /* \"#utility.yul\":10044:10053   */\n      dup2\n        /* \"#utility.yul\":10038:10042   */\n      dup2\n        /* \"#utility.yul\":10034:10054   */\n      sub\n        /* \"#utility.yul\":10030:10031   */\n      0x00\n        /* \"#utility.yul\":10019:10028   */\n      dup4\n        /* \"#utility.yul\":10015:10032   */\n      add\n        /* \"#utility.yul\":10008:10055   */\n      mstore\n        /* \"#utility.yul\":10072:10203   */\n      tag_361\n        /* \"#utility.yul\":10198:10202   */\n      dup2\n        /* \"#utility.yul\":10072:10203   */\n      tag_205\n      jump\t// in\n    tag_361:\n        /* \"#utility.yul\":10064:10203   */\n      swap1\n      pop\n        /* \"#utility.yul\":9791:10210   */\n      swap2\n      swap1\n      pop\n      jump\t// out\n        /* \"#utility.yul\":10216:10364   */\n    tag_206:\n        /* \"#utility.yul\":10318:10329   */\n      0x00\n        /* \"#utility.yul\":10355:10358   */\n      dup2\n        /* \"#utility.yul\":10340:10358   */\n      swap1\n      pop\n        /* \"#utility.yul\":10216:10364   */\n      swap3\n      swap2\n      pop\n      pop\n      jump\t// out\n        /* \"#utility.yul\":10370:10516   */\n    tag_207:\n        /* \"#utility.yul\":10467:10473   */\n      dup3\n        /* \"#utility.yul\":10462:10465   */\n      dup2\n        /* \"#utility.yul\":10457:10460   */\n      dup4\n        /* \"#utility.yul\":10444:10474   */\n      calldatacopy\n        /* \"#utility.yul\":10508:10509   */\n      0x00\n        /* \"#utility.yul\":10499:10505   */\n      dup4\n        /* \"#utility.yul\":10494:10497   */\n      dup4\n        /* \"#utility.yul\":10490:10506   */\n      add\n        /* \"#utility.yul\":10483:10510   */\n      mstore\n        /* \"#utility.yul\":10370:10516   */\n      pop\n      pop\n      pop\n      jump\t// out\n        /* \"#utility.yul\":10546:10876   */\n    tag_208:\n        /* \"#utility.yul\":10662:10665   */\n      0x00\n        /* \"#utility.yul\":10683:10772   */\n      tag_365\n        /* \"#utility.yul\":10765:10771   */\n      dup4\n        /* \"#utility.yul\":10760:10763   */\n      dup6\n        /* \"#utility.yul\":10683:10772   */\n      tag_206\n      jump\t// in\n    tag_365:\n        /* \"#utility.yul\":10676:10772   */\n      swap4\n      pop\n        /* \"#utility.yul\":10782:10838   */\n      tag_366\n        /* \"#utility.yul\":10831:10837   */\n      dup4\n        /* \"#utility.yul\":10826:10829   */\n      dup6\n        /* \"#utility.yul\":10819:10824   */\n      dup5\n        /* \"#utility.yul\":10782:10838   */\n      tag_207\n      jump\t// in\n    tag_366:\n        /* \"#utility.yul\":10863:10869   */\n      dup3\n        /* \"#utility.yul\":10858:10861   */\n      dup5\n        /* \"#utility.yul\":10854:10870   */\n      add\n        /* \"#utility.yul\":10847:10870   */\n      swap1\n      pop\n        /* \"#utility.yul\":10546:10876   */\n      swap4\n      swap3\n      pop\n      pop\n      pop\n      jump\t// out\n        /* \"#utility.yul\":10882:11177   */\n    tag_65:\n        /* \"#utility.yul\":11024:11027   */\n      0x00\n        /* \"#utility.yul\":11046:11151   */\n      tag_368\n        /* \"#utility.yul\":11147:11150   */\n      dup3\n        /* \"#utility.yul\":11138:11144   */\n      dup5\n        /* \"#utility.yul\":11130:11136   */\n      dup7\n        /* \"#utility.yul\":11046:11151   */\n      tag_208\n      jump\t// in\n    tag_368:\n        /* \"#utility.yul\":11039:11151   */\n      swap2\n      pop\n        /* \"#utility.yul\":11168:11171   */\n      dup2\n        /* \"#utility.yul\":11161:11171   */\n      swap1\n      pop\n        /* \"#utility.yul\":10882:11177   */\n      swap4\n      swap3\n      pop\n      pop\n      pop\n      jump\t// out\n        /* \"#utility.yul\":11183:11352   */\n    tag_209:\n        /* \"#utility.yul\":11323:11344   */\n      0x53796d626f6c20616c7265616479207573656400000000000000000000000000\n        /* \"#utility.yul\":11319:11320   */\n      0x00\n        /* \"#utility.yul\":11311:11317   */\n      dup3\n        /* \"#utility.yul\":11307:11321   */\n      add\n        /* \"#utility.yul\":11300:11345   */\n      mstore\n        /* \"#utility.yul\":11183:11352   */\n      pop\n      jump\t// out\n        /* \"#utility.yul\":11358:11724   */\n    tag_210:\n        /* \"#utility.yul\":11500:11503   */\n      0x00\n        /* \"#utility.yul\":11521:11588   */\n      tag_371\n        /* \"#utility.yul\":11585:11587   */\n      0x13\n        /* \"#utility.yul\":11580:11583   */\n      dup4\n        /* \"#utility.yul\":11521:11588   */\n      tag_183\n      jump\t// in\n    tag_371:\n        /* \"#utility.yul\":11514:11588   */\n      swap2\n      pop\n        /* \"#utility.yul\":11597:11690   */\n      tag_372\n        /* \"#utility.yul\":11686:11689   */\n      dup3\n        /* \"#utility.yul\":11597:11690   */\n      tag_209\n      jump\t// in\n    tag_372:\n        /* \"#utility.yul\":11715:11717   */\n      0x20\n        /* \"#utility.yul\":11710:11713   */\n      dup3\n        /* \"#utility.yul\":11706:11718   */\n      add\n        /* \"#utility.yul\":11699:11718   */\n      swap1\n      pop\n        /* \"#utility.yul\":11358:11724   */\n      swap2\n      swap1\n      pop\n      jump\t// out\n        /* \"#utility.yul\":11730:12149   */\n    tag_68:\n        /* \"#utility.yul\":11896:11900   */\n      0x00\n        /* \"#utility.yul\":11934:11936   */\n      0x20\n        /* \"#utility.yul\":11923:11932   */\n      dup3\n        /* \"#utility.yul\":11919:11937   */\n      add\n        /* \"#utility.yul\":11911:11937   */\n      swap1\n      pop\n        /* \"#utility.yul\":11983:11992   */\n      dup2\n        /* \"#utility.yul\":11977:11981   */\n      dup2\n        /* \"#utility.yul\":11973:11993   */\n      sub\n        /* \"#utility.yul\":11969:11970   */\n      0x00\n        /* \"#utility.yul\":11958:11967   */\n      dup4\n        /* \"#utility.yul\":11954:11971   */\n      add\n        /* \"#utility.yul\":11947:11994   */\n      mstore\n        /* \"#utility.yul\":12011:12142   */\n      tag_374\n        /* \"#utility.yul\":12137:12141   */\n      dup2\n        /* \"#utility.yul\":12011:12142   */\n      tag_210\n      jump\t// in\n    tag_374:\n        /* \"#utility.yul\":12003:12142   */\n      swap1\n      pop\n        /* \"#utility.yul\":11730:12149   */\n      swap2\n      swap1\n      pop\n      jump\t// out\n        /* \"#utility.yul\":12155:12269   */\n    tag_211:\n      pop\n      jump\t// out\n        /* \"#utility.yul\":12275:12675   */\n    tag_212:\n        /* \"#utility.yul\":12435:12438   */\n      0x00\n        /* \"#utility.yul\":12456:12540   */\n      tag_377\n        /* \"#utility.yul\":12538:12539   */\n      0x00\n        /* \"#utility.yul\":12533:12536   */\n      dup4\n        /* \"#utility.yul\":12456:12540   */\n      tag_206\n      jump\t// in\n    tag_377:\n        /* \"#utility.yul\":12449:12540   */\n      swap2\n      pop\n        /* \"#utility.yul\":12549:12642   */\n      tag_378\n        /* \"#utility.yul\":12638:12641   */\n      dup3\n        /* \"#utility.yul\":12549:12642   */\n      tag_211\n      jump\t// in\n    tag_378:\n        /* \"#utility.yul\":12667:12668   */\n      0x00\n        /* \"#utility.yul\":12662:12665   */\n      dup3\n        /* \"#utility.yul\":12658:12669   */\n      add\n        /* \"#utility.yul\":12651:12669   */\n      swap1\n      pop\n        /* \"#utility.yul\":12275:12675   */\n      swap2\n      swap1\n      pop\n      jump\t// out\n        /* \"#utility.yul\":12681:13062   */\n    tag_71:\n        /* \"#utility.yul\":12866:12869   */\n      0x00\n        /* \"#utility.yul\":12888:13036   */\n      tag_380\n        /* \"#utility.yul\":13032:13035   */\n      dup3\n        /* \"#utility.yul\":12888:13036   */\n      tag_212\n      jump\t// in\n    tag_380:\n        /* \"#utility.yul\":12881:13036   */\n      swap2\n      pop\n        /* \"#utility.yul\":13053:13056   */\n      dup2\n        /* \"#utility.yul\":13046:13056   */\n      swap1\n      pop\n        /* \"#utility.yul\":12681:13062   */\n      swap2\n      swap1\n      pop\n      jump\t// out\n        /* \"#utility.yul\":13068:13209   */\n    tag_213:\n        /* \"#utility.yul\":13117:13121   */\n      0x00\n        /* \"#utility.yul\":13140:13143   */\n      dup2\n        /* \"#utility.yul\":13132:13143   */\n      swap1\n      pop\n        /* \"#utility.yul\":13163:13166   */\n      dup2\n        /* \"#utility.yul\":13160:13161   */\n      0x00\n        /* \"#utility.yul\":13153:13167   */\n      mstore\n        /* \"#utility.yul\":13197:13201   */\n      0x20\n        /* \"#utility.yul\":13194:13195   */\n      0x00\n        /* \"#utility.yul\":13184:13202   */\n      keccak256\n        /* \"#utility.yul\":13176:13202   */\n      swap1\n      pop\n        /* \"#utility.yul\":13068:13209   */\n      swap2\n      swap1\n      pop\n      jump\t// out\n        /* \"#utility.yul\":13239:14113   */\n    tag_214:\n        /* \"#utility.yul\":13342:13345   */\n      0x00\n        /* \"#utility.yul\":13379:13384   */\n      dup2\n        /* \"#utility.yul\":13373:13385   */\n      sload\n        /* \"#utility.yul\":13408:13444   */\n      tag_383\n        /* \"#utility.yul\":13434:13443   */\n      dup2\n        /* \"#utility.yul\":13408:13444   */\n      tag_50\n      jump\t// in\n    tag_383:\n        /* \"#utility.yul\":13460:13549   */\n      tag_384\n        /* \"#utility.yul\":13542:13548   */\n      dup2\n        /* \"#utility.yul\":13537:13540   */\n      dup7\n        /* \"#utility.yul\":13460:13549   */\n      tag_206\n      jump\t// in\n    tag_384:\n        /* \"#utility.yul\":13453:13549   */\n      swap5\n      pop\n        /* \"#utility.yul\":13580:13581   */\n      0x01\n        /* \"#utility.yul\":13569:13578   */\n      dup3\n        /* \"#utility.yul\":13565:13582   */\n      and\n        /* \"#utility.yul\":13596:13597   */\n      0x00\n        /* \"#utility.yul\":13591:13757   */\n      dup2\n      eq\n      tag_386\n      jumpi\n        /* \"#utility.yul\":13771:13772   */\n      0x01\n        /* \"#utility.yul\":13766:14107   */\n      dup2\n      eq\n      tag_387\n      jumpi\n        /* \"#utility.yul\":13558:14107   */\n      jump(tag_385)\n        /* \"#utility.yul\":13591:13757   */\n    tag_386:\n        /* \"#utility.yul\":13675:13679   */\n      0xff\n        /* \"#utility.yul\":13671:13680   */\n      not\n        /* \"#utility.yul\":13660:13669   */\n      dup4\n        /* \"#utility.yul\":13656:13681   */\n      and\n        /* \"#utility.yul\":13651:13654   */\n      dup7\n        /* \"#utility.yul\":13644:13682   */\n      mstore\n        /* \"#utility.yul\":13737:13743   */\n      dup2\n        /* \"#utility.yul\":13730:13744   */\n      iszero\n        /* \"#utility.yul\":13723:13745   */\n      iszero\n        /* \"#utility.yul\":13715:13721   */\n      dup3\n        /* \"#utility.yul\":13711:13746   */\n      mul\n        /* \"#utility.yul\":13706:13709   */\n      dup7\n        /* \"#utility.yul\":13702:13747   */\n      add\n        /* \"#utility.yul\":13695:13747   */\n      swap4\n      pop\n        /* \"#utility.yul\":13591:13757   */\n      jump(tag_385)\n        /* \"#utility.yul\":13766:14107   */\n    tag_387:\n        /* \"#utility.yul\":13833:13871   */\n      tag_388\n        /* \"#utility.yul\":13865:13870   */\n      dup6\n        /* \"#utility.yul\":13833:13871   */\n      tag_213\n      jump\t// in\n    tag_388:\n        /* \"#utility.yul\":13893:13894   */\n      0x00\n        /* \"#utility.yul\":13907:14061   */\n    tag_389:\n        /* \"#utility.yul\":13921:13927   */\n      dup4\n        /* \"#utility.yul\":13918:13919   */\n      dup2\n        /* \"#utility.yul\":13915:13928   */\n      lt\n        /* \"#utility.yul\":13907:14061   */\n      iszero\n      tag_391\n      jumpi\n        /* \"#utility.yul\":13995:14002   */\n      dup2\n        /* \"#utility.yul\":13989:14003   */\n      sload\n        /* \"#utility.yul\":13985:13986   */\n      dup2\n        /* \"#utility.yul\":13980:13983   */\n      dup10\n        /* \"#utility.yul\":13976:13987   */\n      add\n        /* \"#utility.yul\":13969:14004   */\n      mstore\n        /* \"#utility.yul\":14045:14046   */\n      0x01\n        /* \"#utility.yul\":14036:14043   */\n      dup3\n        /* \"#utility.yul\":14032:14047   */\n      add\n        /* \"#utility.yul\":14021:14047   */\n      swap2\n      pop\n        /* \"#utility.yul\":13943:13947   */\n      0x20\n        /* \"#utility.yul\":13940:13941   */\n      dup2\n        /* \"#utility.yul\":13936:13948   */\n      add\n        /* \"#utility.yul\":13931:13948   */\n      swap1\n      pop\n        /* \"#utility.yul\":13907:14061   */\n      jump(tag_389)\n    tag_391:\n        /* \"#utility.yul\":14090:14096   */\n      dup4\n        /* \"#utility.yul\":14085:14088   */\n      dup9\n        /* \"#utility.yul\":14081:14097   */\n      add\n        /* \"#utility.yul\":14074:14097   */\n      swap6\n      pop\n        /* \"#utility.yul\":13773:14107   */\n      pop\n      pop\n        /* \"#utility.yul\":13558:14107   */\n    tag_385:\n      pop\n        /* \"#utility.yul\":13346:14113   */\n      pop\n      pop\n        /* \"#utility.yul\":13239:14113   */\n      swap3\n      swap2\n      pop\n      pop\n      jump\t// out\n        /* \"#utility.yul\":14119:14388   */\n    tag_73:\n        /* \"#utility.yul\":14248:14251   */\n      0x00\n        /* \"#utility.yul\":14270:14362   */\n      tag_393\n        /* \"#utility.yul\":14358:14361   */\n      dup3\n        /* \"#utility.yul\":14349:14355   */\n      dup5\n        /* \"#utility.yul\":14270:14362   */\n      tag_214\n      jump\t// in\n    tag_393:\n        /* \"#utility.yul\":14263:14362   */\n      swap2\n      pop\n        /* \"#utility.yul\":14379:14382   */\n      dup2\n        /* \"#utility.yul\":14372:14382   */\n      swap1\n      pop\n        /* \"#utility.yul\":14119:14388   */\n      swap3\n      swap2\n      pop\n      pop\n      jump\t// out\n        /* \"#utility.yul\":14394:14564   */\n    tag_215:\n        /* \"#utility.yul\":14534:14556   */\n      0x4164647265737320616c72656164792075736564000000000000000000000000\n        /* \"#utility.yul\":14530:14531   */\n      0x00\n        /* \"#utility.yul\":14522:14528   */\n      dup3\n        /* \"#utility.yul\":14518:14532   */\n      add\n        /* \"#utility.yul\":14511:14557   */\n      mstore\n        /* \"#utility.yul\":14394:14564   */\n      pop\n      jump\t// out\n        /* \"#utility.yul\":14570:14936   */\n    tag_216:\n        /* \"#utility.yul\":14712:14715   */\n      0x00\n        /* \"#utility.yul\":14733:14800   */\n      tag_396\n        /* \"#utility.yul\":14797:14799   */\n      0x14\n        /* \"#utility.yul\":14792:14795   */\n      dup4\n        /* \"#utility.yul\":14733:14800   */\n      tag_183\n      jump\t// in\n    tag_396:\n        /* \"#utility.yul\":14726:14800   */\n      swap2\n      pop\n        /* \"#utility.yul\":14809:14902   */\n      tag_397\n        /* \"#utility.yul\":14898:14901   */\n      dup3\n        /* \"#utility.yul\":14809:14902   */\n      tag_215\n      jump\t// in\n    tag_397:\n        /* \"#utility.yul\":14927:14929   */\n      0x20\n        /* \"#utility.yul\":14922:14925   */\n      dup3\n        /* \"#utility.yul\":14918:14930   */\n      add\n        /* \"#utility.yul\":14911:14930   */\n      swap1\n      pop\n        /* \"#utility.yul\":14570:14936   */\n      swap2\n      swap1\n      pop\n      jump\t// out\n        /* \"#utility.yul\":14942:15361   */\n    tag_76:\n        /* \"#utility.yul\":15108:15112   */\n      0x00\n        /* \"#utility.yul\":15146:15148   */\n      0x20\n        /* \"#utility.yul\":15135:15144   */\n      dup3\n        /* \"#utility.yul\":15131:15149   */\n      add\n        /* \"#utility.yul\":15123:15149   */\n      swap1\n      pop\n        /* \"#utility.yul\":15195:15204   */\n      dup2\n        /* \"#utility.yul\":15189:15193   */\n      dup2\n        /* \"#utility.yul\":15185:15205   */\n      sub\n        /* \"#utility.yul\":15181:15182   */\n      0x00\n        /* \"#utility.yul\":15170:15179   */\n      dup4\n        /* \"#utility.yul\":15166:15183   */\n      add\n        /* \"#utility.yul\":15159:15206   */\n      mstore\n        /* \"#utility.yul\":15223:15354   */\n      tag_399\n        /* \"#utility.yul\":15349:15353   */\n      dup2\n        /* \"#utility.yul\":15223:15354   */\n      tag_216\n      jump\t// in\n    tag_399:\n        /* \"#utility.yul\":15215:15354   */\n      swap1\n      pop\n        /* \"#utility.yul\":14942:15361   */\n      swap2\n      swap1\n      pop\n      jump\t// out\n        /* \"#utility.yul\":15367:15531   */\n    tag_217:\n        /* \"#utility.yul\":15507:15523   */\n      0x4e6f74206120636f6e7472616374000000000000000000000000000000000000\n        /* \"#utility.yul\":15503:15504   */\n      0x00\n        /* \"#utility.yul\":15495:15501   */\n      dup3\n        /* \"#utility.yul\":15491:15505   */\n      add\n        /* \"#utility.yul\":15484:15524   */\n      mstore\n        /* \"#utility.yul\":15367:15531   */\n      pop\n      jump\t// out\n        /* \"#utility.yul\":15537:15903   */\n    tag_218:\n        /* \"#utility.yul\":15679:15682   */\n      0x00\n        /* \"#utility.yul\":15700:15767   */\n      tag_402\n        /* \"#utility.yul\":15764:15766   */\n      0x0e\n        /* \"#utility.yul\":15759:15762   */\n      dup4\n        /* \"#utility.yul\":15700:15767   */\n      tag_183\n      jump\t// in\n    tag_402:\n        /* \"#utility.yul\":15693:15767   */\n      swap2\n      pop\n        /* \"#utility.yul\":15776:15869   */\n      tag_403\n        /* \"#utility.yul\":15865:15868   */\n      dup3\n        /* \"#utility.yul\":15776:15869   */\n      tag_217\n      jump\t// in\n    tag_403:\n        /* \"#utility.yul\":15894:15896   */\n      0x20\n        /* \"#utility.yul\":15889:15892   */\n      dup3\n        /* \"#utility.yul\":15885:15897   */\n      add\n        /* \"#utility.yul\":15878:15897   */\n      swap1\n      pop\n        /* \"#utility.yul\":15537:15903   */\n      swap2\n      swap1\n      pop\n      jump\t// out\n        /* \"#utility.yul\":15909:16328   */\n    tag_79:\n        /* \"#utility.yul\":16075:16079   */\n      0x00\n        /* \"#utility.yul\":16113:16115   */\n      0x20\n        /* \"#utility.yul\":16102:16111   */\n      dup3\n        /* \"#utility.yul\":16098:16116   */\n      add\n        /* \"#utility.yul\":16090:16116   */\n      swap1\n      pop\n        /* \"#utility.yul\":16162:16171   */\n      dup2\n        /* \"#utility.yul\":16156:16160   */\n      dup2\n        /* \"#utility.yul\":16152:16172   */\n      sub\n        /* \"#utility.yul\":16148:16149   */\n      0x00\n        /* \"#utility.yul\":16137:16146   */\n      dup4\n        /* \"#utility.yul\":16133:16150   */\n      add\n        /* \"#utility.yul\":16126:16173   */\n      mstore\n        /* \"#utility.yul\":16190:16321   */\n      tag_405\n        /* \"#utility.yul\":16316:16320   */\n      dup2\n        /* \"#utility.yul\":16190:16321   */\n      tag_218\n      jump\t// in\n    tag_405:\n        /* \"#utility.yul\":16182:16321   */\n      swap1\n      pop\n        /* \"#utility.yul\":15909:16328   */\n      swap2\n      swap1\n      pop\n      jump\t// out\n        /* \"#utility.yul\":16334:16451   */\n    tag_219:\n        /* \"#utility.yul\":16443:16444   */\n      0x00\n        /* \"#utility.yul\":16440:16441   */\n      dup1\n        /* \"#utility.yul\":16433:16445   */\n      revert\n        /* \"#utility.yul\":16457:16637   */\n    tag_220:\n        /* \"#utility.yul\":16505:16582   */\n      0x4e487b7100000000000000000000000000000000000000000000000000000000\n        /* \"#utility.yul\":16502:16503   */\n      0x00\n        /* \"#utility.yul\":16495:16583   */\n      mstore\n        /* \"#utility.yul\":16602:16606   */\n      0x41\n        /* \"#utility.yul\":16599:16600   */\n      0x04\n        /* \"#utility.yul\":16592:16607   */\n      mstore\n        /* \"#utility.yul\":16626:16630   */\n      0x24\n        /* \"#utility.yul\":16623:16624   */\n      0x00\n        /* \"#utility.yul\":16616:16631   */\n      revert\n        /* \"#utility.yul\":16643:16924   */\n    tag_221:\n        /* \"#utility.yul\":16726:16753   */\n      tag_409\n        /* \"#utility.yul\":16748:16752   */\n      dup3\n        /* \"#utility.yul\":16726:16753   */\n      tag_185\n      jump\t// in\n    tag_409:\n        /* \"#utility.yul\":16718:16724   */\n      dup2\n        /* \"#utility.yul\":16714:16754   */\n      add\n        /* \"#utility.yul\":16856:16862   */\n      dup2\n        /* \"#utility.yul\":16844:16854   */\n      dup2\n        /* \"#utility.yul\":16841:16863   */\n      lt\n        /* \"#utility.yul\":16820:16838   */\n      0xffffffffffffffff\n        /* \"#utility.yul\":16808:16818   */\n      dup3\n        /* \"#utility.yul\":16805:16839   */\n      gt\n        /* \"#utility.yul\":16802:16864   */\n      or\n        /* \"#utility.yul\":16799:16887   */\n      iszero\n      tag_410\n      jumpi\n        /* \"#utility.yul\":16867:16885   */\n      tag_411\n      tag_220\n      jump\t// in\n    tag_411:\n        /* \"#utility.yul\":16799:16887   */\n    tag_410:\n        /* \"#utility.yul\":16907:16917   */\n      dup1\n        /* \"#utility.yul\":16903:16905   */\n      0x40\n        /* \"#utility.yul\":16896:16918   */\n      mstore\n        /* \"#utility.yul\":16686:16924   */\n      pop\n        /* \"#utility.yul\":16643:16924   */\n      pop\n      pop\n      jump\t// out\n        /* \"#utility.yul\":16930:17059   */\n    tag_222:\n        /* \"#utility.yul\":16964:16970   */\n      0x00\n        /* \"#utility.yul\":16991:17011   */\n      tag_413\n      tag_175\n      jump\t// in\n    tag_413:\n        /* \"#utility.yul\":16981:17011   */\n      swap1\n      pop\n        /* \"#utility.yul\":17020:17053   */\n      tag_414\n        /* \"#utility.yul\":17048:17052   */\n      dup3\n        /* \"#utility.yul\":17040:17046   */\n      dup3\n        /* \"#utility.yul\":17020:17053   */\n      tag_221\n      jump\t// in\n    tag_414:\n        /* \"#utility.yul\":16930:17059   */\n      swap2\n      swap1\n      pop\n      jump\t// out\n        /* \"#utility.yul\":17065:17373   */\n    tag_223:\n        /* \"#utility.yul\":17127:17131   */\n      0x00\n        /* \"#utility.yul\":17217:17235   */\n      0xffffffffffffffff\n        /* \"#utility.yul\":17209:17215   */\n      dup3\n        /* \"#utility.yul\":17206:17236   */\n      gt\n        /* \"#utility.yul\":17203:17259   */\n      iszero\n      tag_416\n      jumpi\n        /* \"#utility.yul\":17239:17257   */\n      tag_417\n      tag_220\n      jump\t// in\n    tag_417:\n        /* \"#utility.yul\":17203:17259   */\n    tag_416:\n        /* \"#utility.yul\":17277:17306   */\n      tag_418\n        /* \"#utility.yul\":17299:17305   */\n      dup3\n        /* \"#utility.yul\":17277:17306   */\n      tag_185\n      jump\t// in\n    tag_418:\n        /* \"#utility.yul\":17269:17306   */\n      swap1\n      pop\n        /* \"#utility.yul\":17361:17365   */\n      0x20\n        /* \"#utility.yul\":17355:17359   */\n      dup2\n        /* \"#utility.yul\":17351:17366   */\n      add\n        /* \"#utility.yul\":17343:17366   */\n      swap1\n      pop\n        /* \"#utility.yul\":17065:17373   */\n      swap2\n      swap1\n      pop\n      jump\t// out\n        /* \"#utility.yul\":17379:17813   */\n    tag_224:\n        /* \"#utility.yul\":17468:17473   */\n      0x00\n        /* \"#utility.yul\":17493:17559   */\n      tag_420\n        /* \"#utility.yul\":17509:17558   */\n      tag_421\n        /* \"#utility.yul\":17551:17557   */\n      dup5\n        /* \"#utility.yul\":17509:17558   */\n      tag_223\n      jump\t// in\n    tag_421:\n        /* \"#utility.yul\":17493:17559   */\n      tag_222\n      jump\t// in\n    tag_420:\n        /* \"#utility.yul\":17484:17559   */\n      swap1\n      pop\n        /* \"#utility.yul\":17582:17588   */\n      dup3\n        /* \"#utility.yul\":17575:17580   */\n      dup2\n        /* \"#utility.yul\":17568:17589   */\n      mstore\n        /* \"#utility.yul\":17620:17624   */\n      0x20\n        /* \"#utility.yul\":17613:17618   */\n      dup2\n        /* \"#utility.yul\":17609:17625   */\n      add\n        /* \"#utility.yul\":17658:17661   */\n      dup5\n        /* \"#utility.yul\":17649:17655   */\n      dup5\n        /* \"#utility.yul\":17644:17647   */\n      dup5\n        /* \"#utility.yul\":17640:17656   */\n      add\n        /* \"#utility.yul\":17637:17662   */\n      gt\n        /* \"#utility.yul\":17634:17746   */\n      iszero\n      tag_422\n      jumpi\n        /* \"#utility.yul\":17665:17744   */\n      tag_423\n      tag_219\n      jump\t// in\n    tag_423:\n        /* \"#utility.yul\":17634:17746   */\n    tag_422:\n        /* \"#utility.yul\":17755:17807   */\n      tag_424\n        /* \"#utility.yul\":17800:17806   */\n      dup5\n        /* \"#utility.yul\":17795:17798   */\n      dup3\n        /* \"#utility.yul\":17790:17793   */\n      dup6\n        /* \"#utility.yul\":17755:17807   */\n      tag_184\n      jump\t// in\n    tag_424:\n        /* \"#utility.yul\":17474:17813   */\n      pop\n        /* \"#utility.yul\":17379:17813   */\n      swap4\n      swap3\n      pop\n      pop\n      pop\n      jump\t// out\n        /* \"#utility.yul\":17833:18188   */\n    tag_225:\n        /* \"#utility.yul\":17900:17905   */\n      0x00\n        /* \"#utility.yul\":17949:17952   */\n      dup3\n        /* \"#utility.yul\":17942:17946   */\n      0x1f\n        /* \"#utility.yul\":17934:17940   */\n      dup4\n        /* \"#utility.yul\":17930:17947   */\n      add\n        /* \"#utility.yul\":17926:17953   */\n      slt\n        /* \"#utility.yul\":17916:18038   */\n      tag_426\n      jumpi\n        /* \"#utility.yul\":17957:18036   */\n      tag_427\n      tag_187\n      jump\t// in\n    tag_427:\n        /* \"#utility.yul\":17916:18038   */\n    tag_426:\n        /* \"#utility.yul\":18067:18073   */\n      dup2\n        /* \"#utility.yul\":18061:18074   */\n      mload\n        /* \"#utility.yul\":18092:18182   */\n      tag_428\n        /* \"#utility.yul\":18178:18181   */\n      dup5\n        /* \"#utility.yul\":18170:18176   */\n      dup3\n        /* \"#utility.yul\":18163:18167   */\n      0x20\n        /* \"#utility.yul\":18155:18161   */\n      dup7\n        /* \"#utility.yul\":18151:18168   */\n      add\n        /* \"#utility.yul\":18092:18182   */\n      tag_224\n      jump\t// in\n    tag_428:\n        /* \"#utility.yul\":18083:18182   */\n      swap2\n      pop\n        /* \"#utility.yul\":17906:18188   */\n      pop\n        /* \"#utility.yul\":17833:18188   */\n      swap3\n      swap2\n      pop\n      pop\n      jump\t// out\n        /* \"#utility.yul\":18194:18718   */\n    tag_83:\n        /* \"#utility.yul\":18274:18280   */\n      0x00\n        /* \"#utility.yul\":18323:18325   */\n      0x20\n        /* \"#utility.yul\":18311:18320   */\n      dup3\n        /* \"#utility.yul\":18302:18309   */\n      dup5\n        /* \"#utility.yul\":18298:18321   */\n      sub\n        /* \"#utility.yul\":18294:18326   */\n      slt\n        /* \"#utility.yul\":18291:18410   */\n      iszero\n      tag_430\n      jumpi\n        /* \"#utility.yul\":18329:18408   */\n      tag_431\n      tag_176\n      jump\t// in\n    tag_431:\n        /* \"#utility.yul\":18291:18410   */\n    tag_430:\n        /* \"#utility.yul\":18470:18471   */\n      0x00\n        /* \"#utility.yul\":18459:18468   */\n      dup3\n        /* \"#utility.yul\":18455:18472   */\n      add\n        /* \"#utility.yul\":18449:18473   */\n      mload\n        /* \"#utility.yul\":18500:18518   */\n      0xffffffffffffffff\n        /* \"#utility.yul\":18492:18498   */\n      dup2\n        /* \"#utility.yul\":18489:18519   */\n      gt\n        /* \"#utility.yul\":18486:18603   */\n      iszero\n      tag_432\n      jumpi\n        /* \"#utility.yul\":18522:18601   */\n      tag_433\n      tag_177\n      jump\t// in\n    tag_433:\n        /* \"#utility.yul\":18486:18603   */\n    tag_432:\n        /* \"#utility.yul\":18627:18701   */\n      tag_434\n        /* \"#utility.yul\":18693:18700   */\n      dup5\n        /* \"#utility.yul\":18684:18690   */\n      dup3\n        /* \"#utility.yul\":18673:18682   */\n      dup6\n        /* \"#utility.yul\":18669:18691   */\n      add\n        /* \"#utility.yul\":18627:18701   */\n      tag_225\n      jump\t// in\n    tag_434:\n        /* \"#utility.yul\":18617:18701   */\n      swap2\n      pop\n        /* \"#utility.yul\":18420:18711   */\n      pop\n        /* \"#utility.yul\":18194:18718   */\n      swap3\n      swap2\n      pop\n      pop\n      jump\t// out\n        /* \"#utility.yul\":18724:19114   */\n    tag_226:\n        /* \"#utility.yul\":18830:18833   */\n      0x00\n        /* \"#utility.yul\":18858:18897   */\n      tag_436\n        /* \"#utility.yul\":18891:18896   */\n      dup3\n        /* \"#utility.yul\":18858:18897   */\n      tag_182\n      jump\t// in\n    tag_436:\n        /* \"#utility.yul\":18913:19002   */\n      tag_437\n        /* \"#utility.yul\":18995:19001   */\n      dup2\n        /* \"#utility.yul\":18990:18993   */\n      dup6\n        /* \"#utility.yul\":18913:19002   */\n      tag_206\n      jump\t// in\n    tag_437:\n        /* \"#utility.yul\":18906:19002   */\n      swap4\n      pop\n        /* \"#utility.yul\":19011:19076   */\n      tag_438\n        /* \"#utility.yul\":19069:19075   */\n      dup2\n        /* \"#utility.yul\":19064:19067   */\n      dup6\n        /* \"#utility.yul\":19057:19061   */\n      0x20\n        /* \"#utility.yul\":19050:19055   */\n      dup7\n        /* \"#utility.yul\":19046:19062   */\n      add\n        /* \"#utility.yul\":19011:19076   */\n      tag_184\n      jump\t// in\n    tag_438:\n        /* \"#utility.yul\":19101:19107   */\n      dup1\n        /* \"#utility.yul\":19096:19099   */\n      dup5\n        /* \"#utility.yul\":19092:19108   */\n      add\n        /* \"#utility.yul\":19085:19108   */\n      swap2\n      pop\n        /* \"#utility.yul\":18834:19114   */\n      pop\n        /* \"#utility.yul\":18724:19114   */\n      swap3\n      swap2\n      pop\n      pop\n      jump\t// out\n        /* \"#utility.yul\":19120:19395   */\n    tag_85:\n        /* \"#utility.yul\":19252:19255   */\n      0x00\n        /* \"#utility.yul\":19274:19369   */\n      tag_440\n        /* \"#utility.yul\":19365:19368   */\n      dup3\n        /* \"#utility.yul\":19356:19362   */\n      dup5\n        /* \"#utility.yul\":19274:19369   */\n      tag_226\n      jump\t// in\n    tag_440:\n        /* \"#utility.yul\":19267:19369   */\n      swap2\n      pop\n        /* \"#utility.yul\":19386:19389   */\n      dup2\n        /* \"#utility.yul\":19379:19389   */\n      swap1\n      pop\n        /* \"#utility.yul\":19120:19395   */\n      swap3\n      swap2\n      pop\n      pop\n      jump\t// out\n        /* \"#utility.yul\":19401:19567   */\n    tag_227:\n        /* \"#utility.yul\":19541:19559   */\n      0x53796d626f6c73206d69736d6174636800000000000000000000000000000000\n        /* \"#utility.yul\":19537:19538   */\n      0x00\n        /* \"#utility.yul\":19529:19535   */\n      dup3\n        /* \"#utility.yul\":19525:19539   */\n      add\n        /* \"#utility.yul\":19518:19560   */\n      mstore\n        /* \"#utility.yul\":19401:19567   */\n      pop\n      jump\t// out\n        /* \"#utility.yul\":19573:19939   */\n    tag_228:\n        /* \"#utility.yul\":19715:19718   */\n      0x00\n        /* \"#utility.yul\":19736:19803   */\n      tag_443\n        /* \"#utility.yul\":19800:19802   */\n      0x10\n        /* \"#utility.yul\":19795:19798   */\n      dup4\n        /* \"#utility.yul\":19736:19803   */\n      tag_183\n      jump\t// in\n    tag_443:\n        /* \"#utility.yul\":19729:19803   */\n      swap2\n      pop\n        /* \"#utility.yul\":19812:19905   */\n      tag_444\n        /* \"#utility.yul\":19901:19904   */\n      dup3\n        /* \"#utility.yul\":19812:19905   */\n      tag_227\n      jump\t// in\n    tag_444:\n        /* \"#utility.yul\":19930:19932   */\n      0x20\n        /* \"#utility.yul\":19925:19928   */\n      dup3\n        /* \"#utility.yul\":19921:19933   */\n      add\n        /* \"#utility.yul\":19914:19933   */\n      swap1\n      pop\n        /* \"#utility.yul\":19573:19939   */\n      swap2\n      swap1\n      pop\n      jump\t// out\n        /* \"#utility.yul\":19945:20364   */\n    tag_89:\n        /* \"#utility.yul\":20111:20115   */\n      0x00\n        /* \"#utility.yul\":20149:20151   */\n      0x20\n        /* \"#utility.yul\":20138:20147   */\n      dup3\n        /* \"#utility.yul\":20134:20152   */\n      add\n        /* \"#utility.yul\":20126:20152   */\n      swap1\n      pop\n        /* \"#utility.yul\":20198:20207   */\n      dup2\n        /* \"#utility.yul\":20192:20196   */\n      dup2\n        /* \"#utility.yul\":20188:20208   */\n      sub\n        /* \"#utility.yul\":20184:20185   */\n      0x00\n        /* \"#utility.yul\":20173:20182   */\n      dup4\n        /* \"#utility.yul\":20169:20186   */\n      add\n        /* \"#utility.yul\":20162:20209   */\n      mstore\n        /* \"#utility.yul\":20226:20357   */\n      tag_446\n        /* \"#utility.yul\":20352:20356   */\n      dup2\n        /* \"#utility.yul\":20226:20357   */\n      tag_228\n      jump\t// in\n    tag_446:\n        /* \"#utility.yul\":20218:20357   */\n      swap1\n      pop\n        /* \"#utility.yul\":19945:20364   */\n      swap2\n      swap1\n      pop\n      jump\t// out\n        /* \"#utility.yul\":20370:20532   */\n    tag_229:\n        /* \"#utility.yul\":20510:20524   */\n      0x5061796d656e742e537761700000000000000000000000000000000000000000\n        /* \"#utility.yul\":20506:20507   */\n      0x00\n        /* \"#utility.yul\":20498:20504   */\n      dup3\n        /* \"#utility.yul\":20494:20508   */\n      add\n        /* \"#utility.yul\":20487:20525   */\n      mstore\n        /* \"#utility.yul\":20370:20532   */\n      pop\n      jump\t// out\n        /* \"#utility.yul\":20538:20904   */\n    tag_230:\n        /* \"#utility.yul\":20680:20683   */\n      0x00\n        /* \"#utility.yul\":20701:20768   */\n      tag_449\n        /* \"#utility.yul\":20765:20767   */\n      0x0c\n        /* \"#utility.yul\":20760:20763   */\n      dup4\n        /* \"#utility.yul\":20701:20768   */\n      tag_183\n      jump\t// in\n    tag_449:\n        /* \"#utility.yul\":20694:20768   */\n      swap2\n      pop\n        /* \"#utility.yul\":20777:20870   */\n      tag_450\n        /* \"#utility.yul\":20866:20869   */\n      dup3\n        /* \"#utility.yul\":20777:20870   */\n      tag_229\n      jump\t// in\n    tag_450:\n        /* \"#utility.yul\":20895:20897   */\n      0x20\n        /* \"#utility.yul\":20890:20893   */\n      dup3\n        /* \"#utility.yul\":20886:20898   */\n      add\n        /* \"#utility.yul\":20879:20898   */\n      swap1\n      pop\n        /* \"#utility.yul\":20538:20904   */\n      swap2\n      swap1\n      pop\n      jump\t// out\n        /* \"#utility.yul\":20910:21329   */\n    tag_91:\n        /* \"#utility.yul\":21076:21080   */\n      0x00\n        /* \"#utility.yul\":21114:21116   */\n      0x20\n        /* \"#utility.yul\":21103:21112   */\n      dup3\n        /* \"#utility.yul\":21099:21117   */\n      add\n        /* \"#utility.yul\":21091:21117   */\n      swap1\n      pop\n        /* \"#utility.yul\":21163:21172   */\n      dup2\n        /* \"#utility.yul\":21157:21161   */\n      dup2\n        /* \"#utility.yul\":21153:21173   */\n      sub\n        /* \"#utility.yul\":21149:21150   */\n      0x00\n        /* \"#utility.yul\":21138:21147   */\n      dup4\n        /* \"#utility.yul\":21134:21151   */\n      add\n        /* \"#utility.yul\":21127:21174   */\n      mstore\n        /* \"#utility.yul\":21191:21322   */\n      tag_452\n        /* \"#utility.yul\":21317:21321   */\n      dup2\n        /* \"#utility.yul\":21191:21322   */\n      tag_230\n      jump\t// in\n    tag_452:\n        /* \"#utility.yul\":21183:21322   */\n      swap1\n      pop\n        /* \"#utility.yul\":20910:21329   */\n      swap2\n      swap1\n      pop\n      jump\t// out\n        /* \"#utility.yul\":21335:21646   */\n    tag_231:\n        /* \"#utility.yul\":21412:21416   */\n      0x00\n        /* \"#utility.yul\":21502:21520   */\n      0xffffffffffffffff\n        /* \"#utility.yul\":21494:21500   */\n      dup3\n        /* \"#utility.yul\":21491:21521   */\n      gt\n        /* \"#utility.yul\":21488:21544   */\n      iszero\n      tag_454\n      jumpi\n        /* \"#utility.yul\":21524:21542   */\n      tag_455\n      tag_220\n      jump\t// in\n    tag_455:\n        /* \"#utility.yul\":21488:21544   */\n    tag_454:\n        /* \"#utility.yul\":21574:21578   */\n      0x20\n        /* \"#utility.yul\":21566:21572   */\n      dup3\n        /* \"#utility.yul\":21562:21579   */\n      mul\n        /* \"#utility.yul\":21554:21579   */\n      swap1\n      pop\n        /* \"#utility.yul\":21634:21638   */\n      0x20\n        /* \"#utility.yul\":21628:21632   */\n      dup2\n        /* \"#utility.yul\":21624:21639   */\n      add\n        /* \"#utility.yul\":21616:21639   */\n      swap1\n      pop\n        /* \"#utility.yul\":21335:21646   */\n      swap2\n      swap1\n      pop\n      jump\t// out\n        /* \"#utility.yul\":21652:21729   */\n    tag_232:\n        /* \"#utility.yul\":21689:21696   */\n      0x00\n        /* \"#utility.yul\":21718:21723   */\n      dup2\n        /* \"#utility.yul\":21707:21723   */\n      swap1\n      pop\n        /* \"#utility.yul\":21652:21729   */\n      swap2\n      swap1\n      pop\n      jump\t// out\n        /* \"#utility.yul\":21735:21857   */\n    tag_233:\n        /* \"#utility.yul\":21808:21832   */\n      tag_458\n        /* \"#utility.yul\":21826:21831   */\n      dup2\n        /* \"#utility.yul\":21808:21832   */\n      tag_232\n      jump\t// in\n    tag_458:\n        /* \"#utility.yul\":21801:21806   */\n      dup2\n        /* \"#utility.yul\":21798:21833   */\n      eq\n        /* \"#utility.yul\":21788:21851   */\n      tag_459\n      jumpi\n        /* \"#utility.yul\":21847:21848   */\n      0x00\n        /* \"#utility.yul\":21844:21845   */\n      dup1\n        /* \"#utility.yul\":21837:21849   */\n      revert\n        /* \"#utility.yul\":21788:21851   */\n    tag_459:\n        /* \"#utility.yul\":21735:21857   */\n      pop\n      jump\t// out\n        /* \"#utility.yul\":21863:22006   */\n    tag_234:\n        /* \"#utility.yul\":21920:21925   */\n      0x00\n        /* \"#utility.yul\":21951:21957   */\n      dup2\n        /* \"#utility.yul\":21945:21958   */\n      mload\n        /* \"#utility.yul\":21936:21958   */\n      swap1\n      pop\n        /* \"#utility.yul\":21967:22000   */\n      tag_461\n        /* \"#utility.yul\":21994:21999   */\n      dup2\n        /* \"#utility.yul\":21967:22000   */\n      tag_233\n      jump\t// in\n    tag_461:\n        /* \"#utility.yul\":21863:22006   */\n      swap3\n      swap2\n      pop\n      pop\n      jump\t// out\n        /* \"#utility.yul\":22029:22761   */\n    tag_235:\n        /* \"#utility.yul\":22136:22141   */\n      0x00\n        /* \"#utility.yul\":22161:22242   */\n      tag_463\n        /* \"#utility.yul\":22177:22241   */\n      tag_464\n        /* \"#utility.yul\":22234:22240   */\n      dup5\n        /* \"#utility.yul\":22177:22241   */\n      tag_231\n      jump\t// in\n    tag_464:\n        /* \"#utility.yul\":22161:22242   */\n      tag_222\n      jump\t// in\n    tag_463:\n        /* \"#utility.yul\":22152:22242   */\n      swap1\n      pop\n        /* \"#utility.yul\":22262:22267   */\n      dup1\n        /* \"#utility.yul\":22291:22297   */\n      dup4\n        /* \"#utility.yul\":22284:22289   */\n      dup3\n        /* \"#utility.yul\":22277:22298   */\n      mstore\n        /* \"#utility.yul\":22325:22329   */\n      0x20\n        /* \"#utility.yul\":22318:22323   */\n      dup3\n        /* \"#utility.yul\":22314:22330   */\n      add\n        /* \"#utility.yul\":22307:22330   */\n      swap1\n      pop\n        /* \"#utility.yul\":22378:22382   */\n      0x20\n        /* \"#utility.yul\":22370:22376   */\n      dup5\n        /* \"#utility.yul\":22366:22383   */\n      mul\n        /* \"#utility.yul\":22358:22364   */\n      dup4\n        /* \"#utility.yul\":22354:22384   */\n      add\n        /* \"#utility.yul\":22407:22410   */\n      dup6\n        /* \"#utility.yul\":22399:22405   */\n      dup2\n        /* \"#utility.yul\":22396:22411   */\n      gt\n        /* \"#utility.yul\":22393:22515   */\n      iszero\n      tag_465\n      jumpi\n        /* \"#utility.yul\":22426:22505   */\n      tag_466\n      tag_189\n      jump\t// in\n    tag_466:\n        /* \"#utility.yul\":22393:22515   */\n    tag_465:\n        /* \"#utility.yul\":22541:22547   */\n      dup4\n        /* \"#utility.yul\":22524:22755   */\n    tag_467:\n        /* \"#utility.yul\":22558:22564   */\n      dup2\n        /* \"#utility.yul\":22553:22556   */\n      dup2\n        /* \"#utility.yul\":22550:22565   */\n      lt\n        /* \"#utility.yul\":22524:22755   */\n      iszero\n      tag_469\n      jumpi\n        /* \"#utility.yul\":22633:22636   */\n      dup1\n        /* \"#utility.yul\":22662:22710   */\n      tag_470\n        /* \"#utility.yul\":22706:22709   */\n      dup9\n        /* \"#utility.yul\":22694:22704   */\n      dup3\n        /* \"#utility.yul\":22662:22710   */\n      tag_234\n      jump\t// in\n    tag_470:\n        /* \"#utility.yul\":22657:22660   */\n      dup5\n        /* \"#utility.yul\":22650:22711   */\n      mstore\n        /* \"#utility.yul\":22740:22744   */\n      0x20\n        /* \"#utility.yul\":22735:22738   */\n      dup5\n        /* \"#utility.yul\":22731:22745   */\n      add\n        /* \"#utility.yul\":22724:22745   */\n      swap4\n      pop\n        /* \"#utility.yul\":22600:22755   */\n      pop\n        /* \"#utility.yul\":22584:22588   */\n      0x20\n        /* \"#utility.yul\":22579:22582   */\n      dup2\n        /* \"#utility.yul\":22575:22589   */\n      add\n        /* \"#utility.yul\":22568:22589   */\n      swap1\n      pop\n        /* \"#utility.yul\":22524:22755   */\n      jump(tag_467)\n    tag_469:\n        /* \"#utility.yul\":22528:22549   */\n      pop\n        /* \"#utility.yul\":22142:22761   */\n      pop\n      pop\n        /* \"#utility.yul\":22029:22761   */\n      swap4\n      swap3\n      pop\n      pop\n      pop\n      jump\t// out\n        /* \"#utility.yul\":22784:23169   */\n    tag_236:\n        /* \"#utility.yul\":22866:22871   */\n      0x00\n        /* \"#utility.yul\":22915:22918   */\n      dup3\n        /* \"#utility.yul\":22908:22912   */\n      0x1f\n        /* \"#utility.yul\":22900:22906   */\n      dup4\n        /* \"#utility.yul\":22896:22913   */\n      add\n        /* \"#utility.yul\":22892:22919   */\n      slt\n        /* \"#utility.yul\":22882:23004   */\n      tag_472\n      jumpi\n        /* \"#utility.yul\":22923:23002   */\n      tag_473\n      tag_187\n      jump\t// in\n    tag_473:\n        /* \"#utility.yul\":22882:23004   */\n    tag_472:\n        /* \"#utility.yul\":23033:23039   */\n      dup2\n        /* \"#utility.yul\":23027:23040   */\n      mload\n        /* \"#utility.yul\":23058:23163   */\n      tag_474\n        /* \"#utility.yul\":23159:23162   */\n      dup5\n        /* \"#utility.yul\":23151:23157   */\n      dup3\n        /* \"#utility.yul\":23144:23148   */\n      0x20\n        /* \"#utility.yul\":23136:23142   */\n      dup7\n        /* \"#utility.yul\":23132:23149   */\n      add\n        /* \"#utility.yul\":23058:23163   */\n      tag_235\n      jump\t// in\n    tag_474:\n        /* \"#utility.yul\":23049:23163   */\n      swap2\n      pop\n        /* \"#utility.yul\":22872:23169   */\n      pop\n        /* \"#utility.yul\":22784:23169   */\n      swap3\n      swap2\n      pop\n      pop\n      jump\t// out\n        /* \"#utility.yul\":23175:23729   */\n    tag_98:\n        /* \"#utility.yul\":23270:23276   */\n      0x00\n        /* \"#utility.yul\":23319:23321   */\n      0x20\n        /* \"#utility.yul\":23307:23316   */\n      dup3\n        /* \"#utility.yul\":23298:23305   */\n      dup5\n        /* \"#utility.yul\":23294:23317   */\n      sub\n        /* \"#utility.yul\":23290:23322   */\n      slt\n        /* \"#utility.yul\":23287:23406   */\n      iszero\n      tag_476\n      jumpi\n        /* \"#utility.yul\":23325:23404   */\n      tag_477\n      tag_176\n      jump\t// in\n    tag_477:\n        /* \"#utility.yul\":23287:23406   */\n    tag_476:\n        /* \"#utility.yul\":23466:23467   */\n      0x00\n        /* \"#utility.yul\":23455:23464   */\n      dup3\n        /* \"#utility.yul\":23451:23468   */\n      add\n        /* \"#utility.yul\":23445:23469   */\n      mload\n        /* \"#utility.yul\":23496:23514   */\n      0xffffffffffffffff\n        /* \"#utility.yul\":23488:23494   */\n      dup2\n        /* \"#utility.yul\":23485:23515   */\n      gt\n        /* \"#utility.yul\":23482:23599   */\n      iszero\n      tag_478\n      jumpi\n        /* \"#utility.yul\":23518:23597   */\n      tag_479\n      tag_177\n      jump\t// in\n    tag_479:\n        /* \"#utility.yul\":23482:23599   */\n    tag_478:\n        /* \"#utility.yul\":23623:23712   */\n      tag_480\n        /* \"#utility.yul\":23704:23711   */\n      dup5\n        /* \"#utility.yul\":23695:23701   */\n      dup3\n        /* \"#utility.yul\":23684:23693   */\n      dup6\n        /* \"#utility.yul\":23680:23702   */\n      add\n        /* \"#utility.yul\":23623:23712   */\n      tag_236\n      jump\t// in\n    tag_480:\n        /* \"#utility.yul\":23613:23712   */\n      swap2\n      pop\n        /* \"#utility.yul\":23416:23722   */\n      pop\n        /* \"#utility.yul\":23175:23729   */\n      swap3\n      swap2\n      pop\n      pop\n      jump\t// out\n        /* \"#utility.yul\":23735:23904   */\n    tag_237:\n        /* \"#utility.yul\":23875:23896   */\n      0x546f6b656e206e6f7420537570706f7274656400000000000000000000000000\n        /* \"#utility.yul\":23871:23872   */\n      0x00\n        /* \"#utility.yul\":23863:23869   */\n      dup3\n        /* \"#utility.yul\":23859:23873   */\n      add\n        /* \"#utility.yul\":23852:23897   */\n      mstore\n        /* \"#utility.yul\":23735:23904   */\n      pop\n      jump\t// out\n        /* \"#utility.yul\":23910:24276   */\n    tag_238:\n        /* \"#utility.yul\":24052:24055   */\n      0x00\n        /* \"#utility.yul\":24073:24140   */\n      tag_483\n        /* \"#utility.yul\":24137:24139   */\n      0x13\n        /* \"#utility.yul\":24132:24135   */\n      dup4\n        /* \"#utility.yul\":24073:24140   */\n      tag_183\n      jump\t// in\n    tag_483:\n        /* \"#utility.yul\":24066:24140   */\n      swap2\n      pop\n        /* \"#utility.yul\":24149:24242   */\n      tag_484\n        /* \"#utility.yul\":24238:24241   */\n      dup3\n        /* \"#utility.yul\":24149:24242   */\n      tag_237\n      jump\t// in\n    tag_484:\n        /* \"#utility.yul\":24267:24269   */\n      0x20\n        /* \"#utility.yul\":24262:24265   */\n      dup3\n        /* \"#utility.yul\":24258:24270   */\n      add\n        /* \"#utility.yul\":24251:24270   */\n      swap1\n      pop\n        /* \"#utility.yul\":23910:24276   */\n      swap2\n      swap1\n      pop\n      jump\t// out\n        /* \"#utility.yul\":24282:24701   */\n    tag_104:\n        /* \"#utility.yul\":24448:24452   */\n      0x00\n        /* \"#utility.yul\":24486:24488   */\n      0x20\n        /* \"#utility.yul\":24475:24484   */\n      dup3\n        /* \"#utility.yul\":24471:24489   */\n      add\n        /* \"#utility.yul\":24463:24489   */\n      swap1\n      pop\n        /* \"#utility.yul\":24535:24544   */\n      dup2\n        /* \"#utility.yul\":24529:24533   */\n      dup2\n        /* \"#utility.yul\":24525:24545   */\n      sub\n        /* \"#utility.yul\":24521:24522   */\n      0x00\n        /* \"#utility.yul\":24510:24519   */\n      dup4\n        /* \"#utility.yul\":24506:24523   */\n      add\n        /* \"#utility.yul\":24499:24546   */\n      mstore\n        /* \"#utility.yul\":24563:24694   */\n      tag_486\n        /* \"#utility.yul\":24689:24693   */\n      dup2\n        /* \"#utility.yul\":24563:24694   */\n      tag_238\n      jump\t// in\n    tag_486:\n        /* \"#utility.yul\":24555:24694   */\n      swap1\n      pop\n        /* \"#utility.yul\":24282:24701   */\n      swap2\n      swap1\n      pop\n      jump\t// out\n        /* \"#utility.yul\":24707:24804   */\n    tag_239:\n        /* \"#utility.yul\":24766:24772   */\n      0x00\n        /* \"#utility.yul\":24794:24797   */\n      dup3\n        /* \"#utility.yul\":24784:24797   */\n      swap1\n      pop\n        /* \"#utility.yul\":24707:24804   */\n      swap3\n      swap2\n      pop\n      pop\n      jump\t// out\n        /* \"#utility.yul\":24810:24903   */\n    tag_240:\n        /* \"#utility.yul\":24847:24853   */\n      0x00\n        /* \"#utility.yul\":24894:24896   */\n      0x20\n        /* \"#utility.yul\":24889:24891   */\n      0x1f\n        /* \"#utility.yul\":24882:24887   */\n      dup4\n        /* \"#utility.yul\":24878:24892   */\n      add\n        /* \"#utility.yul\":24874:24897   */\n      div\n        /* \"#utility.yul\":24864:24897   */\n      swap1\n      pop\n        /* \"#utility.yul\":24810:24903   */\n      swap2\n      swap1\n      pop\n      jump\t// out\n        /* \"#utility.yul\":24909:25016   */\n    tag_241:\n        /* \"#utility.yul\":24953:24961   */\n      0x00\n        /* \"#utility.yul\":25003:25008   */\n      dup3\n        /* \"#utility.yul\":24997:25001   */\n      dup3\n        /* \"#utility.yul\":24993:25009   */\n      shl\n        /* \"#utility.yul\":24972:25009   */\n      swap1\n      pop\n        /* \"#utility.yul\":24909:25016   */\n      swap3\n      swap2\n      pop\n      pop\n      jump\t// out\n        /* \"#utility.yul\":25022:25415   */\n    tag_242:\n        /* \"#utility.yul\":25091:25097   */\n      0x00\n        /* \"#utility.yul\":25141:25142   */\n      0x08\n        /* \"#utility.yul\":25129:25139   */\n      dup4\n        /* \"#utility.yul\":25125:25143   */\n      mul\n        /* \"#utility.yul\":25164:25261   */\n      tag_491\n        /* \"#utility.yul\":25194:25260   */\n      0xffffffffffffffffffffffffffffffffffffffffffffffffffffffffffffffff\n        /* \"#utility.yul\":25183:25192   */\n      dup3\n        /* \"#utility.yul\":25164:25261   */\n      tag_241\n      jump\t// in\n    tag_491:\n        /* \"#utility.yul\":25282:25321   */\n      tag_492\n        /* \"#utility.yul\":25312:25320   */\n      dup7\n        /* \"#utility.yul\":25301:25310   */\n      dup4\n        /* \"#utility.yul\":25282:25321   */\n      tag_241\n      jump\t// in\n    tag_492:\n        /* \"#utility.yul\":25270:25321   */\n      swap6\n      pop\n        /* \"#utility.yul\":25354:25358   */\n      dup1\n        /* \"#utility.yul\":25350:25359   */\n      not\n        /* \"#utility.yul\":25343:25348   */\n      dup5\n        /* \"#utility.yul\":25339:25360   */\n      and\n        /* \"#utility.yul\":25330:25360   */\n      swap4\n      pop\n        /* \"#utility.yul\":25403:25407   */\n      dup1\n        /* \"#utility.yul\":25393:25401   */\n      dup7\n        /* \"#utility.yul\":25389:25408   */\n      and\n        /* \"#utility.yul\":25382:25387   */\n      dup5\n        /* \"#utility.yul\":25379:25409   */\n      or\n        /* \"#utility.yul\":25369:25409   */\n      swap3\n      pop\n        /* \"#utility.yul\":25098:25415   */\n      pop\n      pop\n        /* \"#utility.yul\":25022:25415   */\n      swap4\n      swap3\n      pop\n      pop\n      pop\n      jump\t// out\n        /* \"#utility.yul\":25421:25481   */\n    tag_243:\n        /* \"#utility.yul\":25449:25452   */\n      0x00\n        /* \"#utility.yul\":25470:25475   */\n      dup2\n        /* \"#utility.yul\":25463:25475   */\n      swap1\n      pop\n        /* \"#utility.yul\":25421:25481   */\n      swap2\n      swap1\n      pop\n      jump\t// out\n        /* \"#utility.yul\":25487:25629   */\n    tag_244:\n        /* \"#utility.yul\":25537:25546   */\n      0x00\n        /* \"#utility.yul\":25570:25623   */\n      tag_495\n        /* \"#utility.yul\":25588:25622   */\n      tag_496\n        /* \"#utility.yul\":25597:25621   */\n      tag_497\n        /* \"#utility.yul\":25615:25620   */\n      dup5\n        /* \"#utility.yul\":25597:25621   */\n      tag_232\n      jump\t// in\n    tag_497:\n        /* \"#utility.yul\":25588:25622   */\n      tag_243\n      jump\t// in\n    tag_496:\n        /* \"#utility.yul\":25570:25623   */\n      tag_232\n      jump\t// in\n    tag_495:\n        /* \"#utility.yul\":25557:25623   */\n      swap1\n      pop\n        /* \"#utility.yul\":25487:25629   */\n      swap2\n      swap1\n      pop\n      jump\t// out\n        /* \"#utility.yul\":25635:25710   */\n    tag_245:\n        /* \"#utility.yul\":25678:25681   */\n      0x00\n        /* \"#utility.yul\":25699:25704   */\n      dup2\n        /* \"#utility.yul\":25692:25704   */\n      swap1\n      pop\n        /* \"#utility.yul\":25635:25710   */\n      swap2\n      swap1\n      pop\n      jump\t// out\n        /* \"#utility.yul\":25716:25985   */\n    tag_246:\n        /* \"#utility.yul\":25826:25865   */\n      tag_500\n        /* \"#utility.yul\":25857:25864   */\n      dup4\n        /* \"#utility.yul\":25826:25865   */\n      tag_244\n      jump\t// in\n    tag_500:\n        /* \"#utility.yul\":25887:25978   */\n      tag_501\n        /* \"#utility.yul\":25936:25977   */\n      tag_502\n        /* \"#utility.yul\":25960:25976   */\n      dup3\n        /* \"#utility.yul\":25936:25977   */\n      tag_245\n      jump\t// in\n    tag_502:\n        /* \"#utility.yul\":25928:25934   */\n      dup5\n        /* \"#utility.yul\":25921:25925   */\n      dup5\n        /* \"#utility.yul\":25915:25926   */\n      sload\n        /* \"#utility.yul\":25887:25978   */\n      tag_242\n      jump\t// in\n    tag_501:\n        /* \"#utility.yul\":25881:25885   */\n      dup3\n        /* \"#utility.yul\":25874:25979   */\n      sstore\n        /* \"#utility.yul\":25792:25985   */\n      pop\n        /* \"#utility.yul\":25716:25985   */\n      pop\n      pop\n      pop\n      jump\t// out\n        /* \"#utility.yul\":25991:26064   */\n    tag_247:\n        /* \"#utility.yul\":26036:26039   */\n      0x00\n        /* \"#utility.yul\":25991:26064   */\n      swap1\n      jump\t// out\n        /* \"#utility.yul\":26070:26259   */\n    tag_248:\n        /* \"#utility.yul\":26147:26179   */\n      tag_505\n      tag_247\n      jump\t// in\n    tag_505:\n        /* \"#utility.yul\":26188:26253   */\n      tag_506\n        /* \"#utility.yul\":26246:26252   */\n      dup2\n        /* \"#utility.yul\":26238:26244   */\n      dup5\n        /* \"#utility.yul\":26232:26236   */\n      dup5\n        /* \"#utility.yul\":26188:26253   */\n      tag_246\n      jump\t// in\n    tag_506:\n        /* \"#utility.yul\":26123:26259   */\n      pop\n        /* \"#utility.yul\":26070:26259   */\n      pop\n      pop\n      jump\t// out\n        /* \"#utility.yul\":26265:26451   */\n    tag_249:\n        /* \"#utility.yul\":26325:26445   */\n    tag_508:\n        /* \"#utility.yul\":26342:26345   */\n      dup2\n        /* \"#utility.yul\":26335:26340   */\n      dup2\n        /* \"#utility.yul\":26332:26346   */\n      lt\n        /* \"#utility.yul\":26325:26445   */\n      iszero\n      tag_510\n      jumpi\n        /* \"#utility.yul\":26396:26435   */\n      tag_511\n        /* \"#utility.yul\":26433:26434   */\n      0x00\n        /* \"#utility.yul\":26426:26431   */\n      dup3\n        /* \"#utility.yul\":26396:26435   */\n      tag_248\n      jump\t// in\n    tag_511:\n        /* \"#utility.yul\":26369:26370   */\n      0x01\n        /* \"#utility.yul\":26362:26367   */\n      dup2\n        /* \"#utility.yul\":26358:26371   */\n      add\n        /* \"#utility.yul\":26349:26371   */\n      swap1\n      pop\n        /* \"#utility.yul\":26325:26445   */\n      jump(tag_508)\n    tag_510:\n        /* \"#utility.yul\":26265:26451   */\n      pop\n      pop\n      jump\t// out\n        /* \"#utility.yul\":26457:27000   */\n    tag_250:\n        /* \"#utility.yul\":26558:26560   */\n      0x1f\n        /* \"#utility.yul\":26553:26556   */\n      dup3\n        /* \"#utility.yul\":26550:26561   */\n      gt\n        /* \"#utility.yul\":26547:26993   */\n      iszero\n      tag_513\n      jumpi\n        /* \"#utility.yul\":26592:26630   */\n      tag_514\n        /* \"#utility.yul\":26624:26629   */\n      dup2\n        /* \"#utility.yul\":26592:26630   */\n      tag_213\n      jump\t// in\n    tag_514:\n        /* \"#utility.yul\":26676:26705   */\n      tag_515\n        /* \"#utility.yul\":26694:26704   */\n      dup5\n        /* \"#utility.yul\":26676:26705   */\n      tag_240\n      jump\t// in\n    tag_515:\n        /* \"#utility.yul\":26666:26674   */\n      dup2\n        /* \"#utility.yul\":26662:26706   */\n      add\n        /* \"#utility.yul\":26859:26861   */\n      0x20\n        /* \"#utility.yul\":26847:26857   */\n      dup6\n        /* \"#utility.yul\":26844:26862   */\n      lt\n        /* \"#utility.yul\":26841:26890   */\n      iszero\n      tag_516\n      jumpi\n        /* \"#utility.yul\":26880:26888   */\n      dup2\n        /* \"#utility.yul\":26865:26888   */\n      swap1\n      pop\n        /* \"#utility.yul\":26841:26890   */\n    tag_516:\n        /* \"#utility.yul\":26903:26983   */\n      tag_517\n        /* \"#utility.yul\":26959:26981   */\n      tag_518\n        /* \"#utility.yul\":26977:26980   */\n      dup6\n        /* \"#utility.yul\":26959:26981   */\n      tag_240\n      jump\t// in\n    tag_518:\n        /* \"#utility.yul\":26949:26957   */\n      dup4\n        /* \"#utility.yul\":26945:26982   */\n      add\n        /* \"#utility.yul\":26932:26943   */\n      dup3\n        /* \"#utility.yul\":26903:26983   */\n      tag_249\n      jump\t// in\n    tag_517:\n        /* \"#utility.yul\":26562:26993   */\n      pop\n      pop\n        /* \"#utility.yul\":26547:26993   */\n    tag_513:\n        /* \"#utility.yul\":26457:27000   */\n      pop\n      pop\n      pop\n      jump\t// out\n        /* \"#utility.yul\":27006:27123   */\n    tag_251:\n        /* \"#utility.yul\":27060:27068   */\n      0x00\n        /* \"#utility.yul\":27110:27115   */\n      dup3\n        /* \"#utility.yul\":27104:27108   */\n      dup3\n        /* \"#utility.yul\":27100:27116   */\n      shr\n        /* \"#utility.yul\":27079:27116   */\n      swap1\n      pop\n        /* \"#utility.yul\":27006:27123   */\n      swap3\n      swap2\n      pop\n      pop\n      jump\t// out\n        /* \"#utility.yul\":27129:27298   */\n    tag_252:\n        /* \"#utility.yul\":27173:27179   */\n      0x00\n        /* \"#utility.yul\":27206:27257   */\n      tag_521\n        /* \"#utility.yul\":27254:27255   */\n      0x00\n        /* \"#utility.yul\":27250:27256   */\n      not\n        /* \"#utility.yul\":27242:27247   */\n      dup5\n        /* \"#utility.yul\":27239:27240   */\n      0x08\n        /* \"#utility.yul\":27235:27248   */\n      mul\n        /* \"#utility.yul\":27206:27257   */\n      tag_251\n      jump\t// in\n    tag_521:\n        /* \"#utility.yul\":27202:27258   */\n      not\n        /* \"#utility.yul\":27287:27291   */\n      dup1\n        /* \"#utility.yul\":27281:27285   */\n      dup4\n        /* \"#utility.yul\":27277:27292   */\n      and\n        /* \"#utility.yul\":27267:27292   */\n      swap2\n      pop\n        /* \"#utility.yul\":27180:27298   */\n      pop\n        /* \"#utility.yul\":27129:27298   */\n      swap3\n      swap2\n      pop\n      pop\n      jump\t// out\n        /* \"#utility.yul\":27303:27598   */\n    tag_253:\n        /* \"#utility.yul\":27379:27383   */\n      0x00\n        /* \"#utility.yul\":27525:27554   */\n      tag_523\n        /* \"#utility.yul\":27550:27553   */\n      dup4\n        /* \"#utility.yul\":27544:27548   */\n      dup4\n        /* \"#utility.yul\":27525:27554   */\n      tag_252\n      jump\t// in\n    tag_523:\n        /* \"#utility.yul\":27517:27554   */\n      swap2\n      pop\n        /* \"#utility.yul\":27587:27590   */\n      dup3\n        /* \"#utility.yul\":27584:27585   */\n      0x02\n        /* \"#utility.yul\":27580:27591   */\n      mul\n        /* \"#utility.yul\":27574:27578   */\n      dup3\n        /* \"#utility.yul\":27571:27592   */\n      or\n        /* \"#utility.yul\":27563:27592   */\n      swap1\n      pop\n        /* \"#utility.yul\":27303:27598   */\n      swap3\n      swap2\n      pop\n      pop\n      jump\t// out\n        /* \"#utility.yul\":27603:29006   */\n    tag_108:\n        /* \"#utility.yul\":27727:27771   */\n      tag_525\n        /* \"#utility.yul\":27767:27770   */\n      dup4\n        /* \"#utility.yul\":27762:27765   */\n      dup4\n        /* \"#utility.yul\":27727:27771   */\n      tag_239\n      jump\t// in\n    tag_525:\n        /* \"#utility.yul\":27836:27854   */\n      0xffffffffffffffff\n        /* \"#utility.yul\":27828:27834   */\n      dup2\n        /* \"#utility.yul\":27825:27855   */\n      gt\n        /* \"#utility.yul\":27822:27878   */\n      iszero\n      tag_526\n      jumpi\n        /* \"#utility.yul\":27858:27876   */\n      tag_527\n      tag_220\n      jump\t// in\n    tag_527:\n        /* \"#utility.yul\":27822:27878   */\n    tag_526:\n        /* \"#utility.yul\":27902:27940   */\n      tag_528\n        /* \"#utility.yul\":27934:27938   */\n      dup3\n        /* \"#utility.yul\":27928:27939   */\n      sload\n        /* \"#utility.yul\":27902:27940   */\n      tag_50\n      jump\t// in\n    tag_528:\n        /* \"#utility.yul\":27987:28054   */\n      tag_529\n        /* \"#utility.yul\":28047:28053   */\n      dup3\n        /* \"#utility.yul\":28039:28045   */\n      dup3\n        /* \"#utility.yul\":28033:28037   */\n      dup6\n        /* \"#utility.yul\":27987:28054   */\n      tag_250\n      jump\t// in\n    tag_529:\n        /* \"#utility.yul\":28081:28082   */\n      0x00\n        /* \"#utility.yul\":28110:28112   */\n      0x1f\n        /* \"#utility.yul\":28102:28108   */\n      dup4\n        /* \"#utility.yul\":28099:28113   */\n      gt\n        /* \"#utility.yul\":28127:28128   */\n      0x01\n        /* \"#utility.yul\":28122:28754   */\n      dup2\n      eq\n      tag_531\n      jumpi\n        /* \"#utility.yul\":28798:28799   */\n      0x00\n        /* \"#utility.yul\":28815:28821   */\n      dup5\n        /* \"#utility.yul\":28812:28896   */\n      iszero\n      tag_532\n      jumpi\n        /* \"#utility.yul\":28871:28880   */\n      dup3\n        /* \"#utility.yul\":28866:28869   */\n      dup8\n        /* \"#utility.yul\":28862:28881   */\n      add\n        /* \"#utility.yul\":28849:28882   */\n      calldataload\n        /* \"#utility.yul\":28840:28882   */\n      swap1\n      pop\n        /* \"#utility.yul\":28812:28896   */\n    tag_532:\n        /* \"#utility.yul\":28922:28989   */\n      tag_533\n        /* \"#utility.yul\":28982:28988   */\n      dup6\n        /* \"#utility.yul\":28975:28980   */\n      dup3\n        /* \"#utility.yul\":28922:28989   */\n      tag_253\n      jump\t// in\n    tag_533:\n        /* \"#utility.yul\":28916:28920   */\n      dup7\n        /* \"#utility.yul\":28909:28990   */\n      sstore\n        /* \"#utility.yul\":28771:29000   */\n      pop\n        /* \"#utility.yul\":28092:29000   */\n      jump(tag_530)\n        /* \"#utility.yul\":28122:28754   */\n    tag_531:\n        /* \"#utility.yul\":28174:28178   */\n      0x1f\n        /* \"#utility.yul\":28170:28179   */\n      not\n        /* \"#utility.yul\":28162:28168   */\n      dup5\n        /* \"#utility.yul\":28158:28180   */\n      and\n        /* \"#utility.yul\":28208:28245   */\n      tag_534\n        /* \"#utility.yul\":28240:28244   */\n      dup7\n        /* \"#utility.yul\":28208:28245   */\n      tag_213\n      jump\t// in\n    tag_534:\n        /* \"#utility.yul\":28267:28268   */\n      0x00\n        /* \"#utility.yul\":28281:28496   */\n    tag_535:\n        /* \"#utility.yul\":28295:28302   */\n      dup3\n        /* \"#utility.yul\":28292:28293   */\n      dup2\n        /* \"#utility.yul\":28289:28303   */\n      lt\n        /* \"#utility.yul\":28281:28496   */\n      iszero\n      tag_537\n      jumpi\n        /* \"#utility.yul\":28381:28390   */\n      dup5\n        /* \"#utility.yul\":28376:28379   */\n      dup10\n        /* \"#utility.yul\":28372:28391   */\n      add\n        /* \"#utility.yul\":28359:28392   */\n      calldataload\n        /* \"#utility.yul\":28351:28357   */\n      dup3\n        /* \"#utility.yul\":28344:28393   */\n      sstore\n        /* \"#utility.yul\":28432:28433   */\n      0x01\n        /* \"#utility.yul\":28424:28430   */\n      dup3\n        /* \"#utility.yul\":28420:28434   */\n      add\n        /* \"#utility.yul\":28410:28434   */\n      swap2\n      pop\n        /* \"#utility.yul\":28479:28481   */\n      0x20\n        /* \"#utility.yul\":28468:28477   */\n      dup6\n        /* \"#utility.yul\":28464:28482   */\n      add\n        /* \"#utility.yul\":28451:28482   */\n      swap5\n      pop\n        /* \"#utility.yul\":28318:28322   */\n      0x20\n        /* \"#utility.yul\":28315:28316   */\n      dup2\n        /* \"#utility.yul\":28311:28323   */\n      add\n        /* \"#utility.yul\":28306:28323   */\n      swap1\n      pop\n        /* \"#utility.yul\":28281:28496   */\n      jump(tag_535)\n    tag_537:\n        /* \"#utility.yul\":28524:28530   */\n      dup7\n        /* \"#utility.yul\":28515:28522   */\n      dup4\n        /* \"#utility.yul\":28512:28531   */\n      lt\n        /* \"#utility.yul\":28509:28695   */\n      iszero\n      tag_538\n      jumpi\n        /* \"#utility.yul\":28589:28598   */\n      dup5\n        /* \"#utility.yul\":28584:28587   */\n      dup10\n        /* \"#utility.yul\":28580:28599   */\n      add\n        /* \"#utility.yul\":28567:28600   */\n      calldataload\n        /* \"#utility.yul\":28632:28680   */\n      tag_539\n        /* \"#utility.yul\":28674:28678   */\n      0x1f\n        /* \"#utility.yul\":28666:28672   */\n      dup10\n        /* \"#utility.yul\":28662:28679   */\n      and\n        /* \"#utility.yul\":28651:28660   */\n      dup3\n        /* \"#utility.yul\":28632:28680   */\n      tag_252\n      jump\t// in\n    tag_539:\n        /* \"#utility.yul\":28624:28630   */\n      dup4\n        /* \"#utility.yul\":28617:28681   */\n      sstore\n        /* \"#utility.yul\":28532:28695   */\n      pop\n        /* \"#utility.yul\":28509:28695   */\n    tag_538:\n        /* \"#utility.yul\":28741:28742   */\n      0x01\n        /* \"#utility.yul\":28737:28738   */\n      0x02\n        /* \"#utility.yul\":28729:28735   */\n      dup9\n        /* \"#utility.yul\":28725:28739   */\n      mul\n        /* \"#utility.yul\":28721:28743   */\n      add\n        /* \"#utility.yul\":28715:28719   */\n      dup9\n        /* \"#utility.yul\":28708:28744   */\n      sstore\n        /* \"#utility.yul\":28129:28754   */\n      pop\n      pop\n      pop\n        /* \"#utility.yul\":28092:29000   */\n    tag_530:\n      pop\n        /* \"#utility.yul\":27702:29006   */\n      pop\n      pop\n      pop\n        /* \"#utility.yul\":27603:29006   */\n      pop\n      pop\n      pop\n      jump\t// out\n        /* \"#utility.yul\":29036:29353   */\n    tag_254:\n        /* \"#utility.yul\":29134:29137   */\n      0x00\n        /* \"#utility.yul\":29155:29226   */\n      tag_541\n        /* \"#utility.yul\":29219:29225   */\n      dup4\n        /* \"#utility.yul\":29214:29217   */\n      dup6\n        /* \"#utility.yul\":29155:29226   */\n      tag_183\n      jump\t// in\n    tag_541:\n        /* \"#utility.yul\":29148:29226   */\n      swap4\n      pop\n        /* \"#utility.yul\":29236:29292   */\n      tag_542\n        /* \"#utility.yul\":29285:29291   */\n      dup4\n        /* \"#utility.yul\":29280:29283   */\n      dup6\n        /* \"#utility.yul\":29273:29278   */\n      dup5\n        /* \"#utility.yul\":29236:29292   */\n      tag_207\n      jump\t// in\n    tag_542:\n        /* \"#utility.yul\":29317:29346   */\n      tag_543\n        /* \"#utility.yul\":29339:29345   */\n      dup4\n        /* \"#utility.yul\":29317:29346   */\n      tag_185\n      jump\t// in\n    tag_543:\n        /* \"#utility.yul\":29312:29315   */\n      dup5\n        /* \"#utility.yul\":29308:29347   */\n      add\n        /* \"#utility.yul\":29301:29347   */\n      swap1\n      pop\n        /* \"#utility.yul\":29036:29353   */\n      swap4\n      swap3\n      pop\n      pop\n      pop\n      jump\t// out\n        /* \"#utility.yul\":29359:29802   */\n    tag_112:\n        /* \"#utility.yul\":29510:29514   */\n      0x00\n        /* \"#utility.yul\":29548:29550   */\n      0x40\n        /* \"#utility.yul\":29537:29546   */\n      dup3\n        /* \"#utility.yul\":29533:29551   */\n      add\n        /* \"#utility.yul\":29525:29551   */\n      swap1\n      pop\n        /* \"#utility.yul\":29597:29606   */\n      dup2\n        /* \"#utility.yul\":29591:29595   */\n      dup2\n        /* \"#utility.yul\":29587:29607   */\n      sub\n        /* \"#utility.yul\":29583:29584   */\n      0x00\n        /* \"#utility.yul\":29572:29581   */\n      dup4\n        /* \"#utility.yul\":29568:29585   */\n      add\n        /* \"#utility.yul\":29561:29608   */\n      mstore\n        /* \"#utility.yul\":29625:29713   */\n      tag_545\n        /* \"#utility.yul\":29708:29712   */\n      dup2\n        /* \"#utility.yul\":29699:29705   */\n      dup6\n        /* \"#utility.yul\":29691:29697   */\n      dup8\n        /* \"#utility.yul\":29625:29713   */\n      tag_254\n      jump\t// in\n    tag_545:\n        /* \"#utility.yul\":29617:29713   */\n      swap1\n      pop\n        /* \"#utility.yul\":29723:29795   */\n      tag_546\n        /* \"#utility.yul\":29791:29793   */\n      0x20\n        /* \"#utility.yul\":29780:29789   */\n      dup4\n        /* \"#utility.yul\":29776:29794   */\n      add\n        /* \"#utility.yul\":29767:29773   */\n      dup5\n        /* \"#utility.yul\":29723:29795   */\n      tag_201\n      jump\t// in\n    tag_546:\n        /* \"#utility.yul\":29359:29802   */\n      swap5\n      swap4\n      pop\n      pop\n      pop\n      pop\n      jump\t// out\n        /* \"#utility.yul\":29808:29973   */\n    tag_255:\n        /* \"#utility.yul\":29948:29965   */\n      0x53796d626f6c206e6f7420757365640000000000000000000000000000000000\n        /* \"#utility.yul\":29944:29945   */\n      0x00\n        /* \"#utility.yul\":29936:29942   */\n      dup3\n        /* \"#utility.yul\":29932:29946   */\n      add\n        /* \"#utility.yul\":29925:29966   */\n      mstore\n        /* \"#utility.yul\":29808:29973   */\n      pop\n      jump\t// out\n        /* \"#utility.yul\":29979:30345   */\n    tag_256:\n        /* \"#utility.yul\":30121:30124   */\n      0x00\n        /* \"#utility.yul\":30142:30209   */\n      tag_549\n        /* \"#utility.yul\":30206:30208   */\n      0x0f\n        /* \"#utility.yul\":30201:30204   */\n      dup4\n        /* \"#utility.yul\":30142:30209   */\n      tag_183\n      jump\t// in\n    tag_549:\n        /* \"#utility.yul\":30135:30209   */\n      swap2\n      pop\n        /* \"#utility.yul\":30218:30311   */\n      tag_550\n        /* \"#utility.yul\":30307:30310   */\n      dup3\n        /* \"#utility.yul\":30218:30311   */\n      tag_255\n      jump\t// in\n    tag_550:\n        /* \"#utility.yul\":30336:30338   */\n      0x20\n        /* \"#utility.yul\":30331:30334   */\n      dup3\n        /* \"#utility.yul\":30327:30339   */\n      add\n        /* \"#utility.yul\":30320:30339   */\n      swap1\n      pop\n        /* \"#utility.yul\":29979:30345   */\n      swap2\n      swap1\n      pop\n      jump\t// out\n        /* \"#utility.yul\":30351:30770   */\n    tag_134:\n        /* \"#utility.yul\":30517:30521   */\n      0x00\n        /* \"#utility.yul\":30555:30557   */\n      0x20\n        /* \"#utility.yul\":30544:30553   */\n      dup3\n        /* \"#utility.yul\":30540:30558   */\n      add\n        /* \"#utility.yul\":30532:30558   */\n      swap1\n      pop\n        /* \"#utility.yul\":30604:30613   */\n      dup2\n        /* \"#utility.yul\":30598:30602   */\n      dup2\n        /* \"#utility.yul\":30594:30614   */\n      sub\n        /* \"#utility.yul\":30590:30591   */\n      0x00\n        /* \"#utility.yul\":30579:30588   */\n      dup4\n        /* \"#utility.yul\":30575:30592   */\n      add\n        /* \"#utility.yul\":30568:30615   */\n      mstore\n        /* \"#utility.yul\":30632:30763   */\n      tag_552\n        /* \"#utility.yul\":30758:30762   */\n      dup2\n        /* \"#utility.yul\":30632:30763   */\n      tag_256\n      jump\t// in\n    tag_552:\n        /* \"#utility.yul\":30624:30763   */\n      swap1\n      pop\n        /* \"#utility.yul\":30351:30770   */\n      swap2\n      swap1\n      pop\n      jump\t// out\n        /* \"#utility.yul\":30776:30956   */\n    tag_144:\n        /* \"#utility.yul\":30824:30901   */\n      0x4e487b7100000000000000000000000000000000000000000000000000000000\n        /* \"#utility.yul\":30821:30822   */\n      0x00\n        /* \"#utility.yul\":30814:30902   */\n      mstore\n        /* \"#utility.yul\":30921:30925   */\n      0x32\n        /* \"#utility.yul\":30918:30919   */\n      0x04\n        /* \"#utility.yul\":30911:30926   */\n      mstore\n        /* \"#utility.yul\":30945:30949   */\n      0x24\n        /* \"#utility.yul\":30942:30943   */\n      0x00\n        /* \"#utility.yul\":30935:30950   */\n      revert\n        /* \"#utility.yul\":30962:31142   */\n    tag_257:\n        /* \"#utility.yul\":31010:31087   */\n      0x4e487b7100000000000000000000000000000000000000000000000000000000\n        /* \"#utility.yul\":31007:31008   */\n      0x00\n        /* \"#utility.yul\":31000:31088   */\n      mstore\n        /* \"#utility.yul\":31107:31111   */\n      0x11\n        /* \"#utility.yul\":31104:31105   */\n      0x04\n        /* \"#utility.yul\":31097:31112   */\n      mstore\n        /* \"#utility.yul\":31131:31135   */\n      0x24\n        /* \"#utility.yul\":31128:31129   */\n      0x00\n        /* \"#utility.yul\":31121:31136   */\n      revert\n        /* \"#utility.yul\":31148:31342   */\n    tag_150:\n        /* \"#utility.yul\":31188:31192   */\n      0x00\n        /* \"#utility.yul\":31208:31228   */\n      tag_556\n        /* \"#utility.yul\":31226:31227   */\n      dup3\n        /* \"#utility.yul\":31208:31228   */\n      tag_232\n      jump\t// in\n    tag_556:\n        /* \"#utility.yul\":31203:31228   */\n      swap2\n      pop\n        /* \"#utility.yul\":31242:31262   */\n      tag_557\n        /* \"#utility.yul\":31260:31261   */\n      dup4\n        /* \"#utility.yul\":31242:31262   */\n      tag_232\n      jump\t// in\n    tag_557:\n        /* \"#utility.yul\":31237:31262   */\n      swap3\n      pop\n        /* \"#utility.yul\":31286:31287   */\n      dup3\n        /* \"#utility.yul\":31283:31284   */\n      dup3\n        /* \"#utility.yul\":31279:31288   */\n      sub\n        /* \"#utility.yul\":31271:31288   */\n      swap1\n      pop\n        /* \"#utility.yul\":31310:31311   */\n      dup2\n        /* \"#utility.yul\":31304:31308   */\n      dup2\n        /* \"#utility.yul\":31301:31312   */\n      gt\n        /* \"#utility.yul\":31298:31335   */\n      iszero\n      tag_558\n      jumpi\n        /* \"#utility.yul\":31315:31333   */\n      tag_559\n      tag_257\n      jump\t// in\n    tag_559:\n        /* \"#utility.yul\":31298:31335   */\n    tag_558:\n        /* \"#utility.yul\":31148:31342   */\n      swap3\n      swap2\n      pop\n      pop\n      jump\t// out\n        /* \"#utility.yul\":31348:31501   */\n    tag_258:\n        /* \"#utility.yul\":31401:31407   */\n      0x00\n        /* \"#utility.yul\":31435:31440   */\n      dup2\n        /* \"#utility.yul\":31429:31441   */\n      sload\n        /* \"#utility.yul\":31419:31441   */\n      swap1\n      pop\n        /* \"#utility.yul\":31461:31494   */\n      tag_561\n        /* \"#utility.yul\":31487:31493   */\n      dup2\n        /* \"#utility.yul\":31461:31494   */\n      tag_50\n      jump\t// in\n    tag_561:\n        /* \"#utility.yul\":31451:31494   */\n      swap1\n      pop\n        /* \"#utility.yul\":31348:31501   */\n      swap2\n      swap1\n      pop\n      jump\t// out\n        /* \"#utility.yul\":31507:31652   */\n    tag_259:\n        /* \"#utility.yul\":31560:31564   */\n      0x00\n        /* \"#utility.yul\":31583:31586   */\n      dup2\n        /* \"#utility.yul\":31575:31586   */\n      swap1\n      pop\n        /* \"#utility.yul\":31606:31609   */\n      dup2\n        /* \"#utility.yul\":31603:31604   */\n      0x00\n        /* \"#utility.yul\":31596:31610   */\n      mstore\n        /* \"#utility.yul\":31640:31644   */\n      0x20\n        /* \"#utility.yul\":31637:31638   */\n      0x00\n        /* \"#utility.yul\":31627:31645   */\n      keccak256\n        /* \"#utility.yul\":31619:31645   */\n      swap1\n      pop\n        /* \"#utility.yul\":31507:31652   */\n      swap2\n      swap1\n      pop\n      jump\t// out\n        /* \"#utility.yul\":31658:33121   */\n    tag_158:\n        /* \"#utility.yul\":31773:31776   */\n      dup2\n        /* \"#utility.yul\":31767:31771   */\n      dup2\n        /* \"#utility.yul\":31764:31777   */\n      sub\n        /* \"#utility.yul\":31761:31787   */\n      tag_564\n      jumpi\n        /* \"#utility.yul\":31780:31785   */\n      pop\n      pop\n      jump(tag_563)\n        /* \"#utility.yul\":31761:31787   */\n    tag_564:\n        /* \"#utility.yul\":31811:31849   */\n      tag_565\n        /* \"#utility.yul\":31845:31848   */\n      dup3\n        /* \"#utility.yul\":31811:31849   */\n      tag_258\n      jump\t// in\n    tag_565:\n        /* \"#utility.yul\":31914:31932   */\n      0xffffffffffffffff\n        /* \"#utility.yul\":31906:31912   */\n      dup2\n        /* \"#utility.yul\":31903:31933   */\n      gt\n        /* \"#utility.yul\":31900:31956   */\n      iszero\n      tag_566\n      jumpi\n        /* \"#utility.yul\":31936:31954   */\n      tag_567\n      tag_220\n      jump\t// in\n    tag_567:\n        /* \"#utility.yul\":31900:31956   */\n    tag_566:\n        /* \"#utility.yul\":31980:32018   */\n      tag_568\n        /* \"#utility.yul\":32012:32016   */\n      dup3\n        /* \"#utility.yul\":32006:32017   */\n      sload\n        /* \"#utility.yul\":31980:32018   */\n      tag_50\n      jump\t// in\n    tag_568:\n        /* \"#utility.yul\":32065:32132   */\n      tag_569\n        /* \"#utility.yul\":32125:32131   */\n      dup3\n        /* \"#utility.yul\":32117:32123   */\n      dup3\n        /* \"#utility.yul\":32111:32115   */\n      dup6\n        /* \"#utility.yul\":32065:32132   */\n      tag_250\n      jump\t// in\n    tag_569:\n        /* \"#utility.yul\":32159:32160   */\n      0x00\n        /* \"#utility.yul\":32188:32190   */\n      0x1f\n        /* \"#utility.yul\":32180:32186   */\n      dup4\n        /* \"#utility.yul\":32177:32191   */\n      gt\n        /* \"#utility.yul\":32205:32206   */\n      0x01\n        /* \"#utility.yul\":32200:32876   */\n      dup2\n      eq\n      tag_571\n      jumpi\n        /* \"#utility.yul\":32920:32921   */\n      0x00\n        /* \"#utility.yul\":32937:32943   */\n      dup5\n        /* \"#utility.yul\":32934:33011   */\n      iszero\n      tag_572\n      jumpi\n        /* \"#utility.yul\":32986:32995   */\n      dup3\n        /* \"#utility.yul\":32981:32984   */\n      dup8\n        /* \"#utility.yul\":32977:32996   */\n      add\n        /* \"#utility.yul\":32971:32997   */\n      sload\n        /* \"#utility.yul\":32962:32997   */\n      swap1\n      pop\n        /* \"#utility.yul\":32934:33011   */\n    tag_572:\n        /* \"#utility.yul\":33037:33104   */\n      tag_573\n        /* \"#utility.yul\":33097:33103   */\n      dup6\n        /* \"#utility.yul\":33090:33095   */\n      dup3\n        /* \"#utility.yul\":33037:33104   */\n      tag_253\n      jump\t// in\n    tag_573:\n        /* \"#utility.yul\":33031:33035   */\n      dup7\n        /* \"#utility.yul\":33024:33105   */\n      sstore\n        /* \"#utility.yul\":32893:33115   */\n      pop\n        /* \"#utility.yul\":32170:33115   */\n      jump(tag_570)\n        /* \"#utility.yul\":32200:32876   */\n    tag_571:\n        /* \"#utility.yul\":32252:32256   */\n      0x1f\n        /* \"#utility.yul\":32248:32257   */\n      not\n        /* \"#utility.yul\":32240:32246   */\n      dup5\n        /* \"#utility.yul\":32236:32258   */\n      and\n        /* \"#utility.yul\":32278:32318   */\n      tag_574\n        /* \"#utility.yul\":32314:32317   */\n      dup8\n        /* \"#utility.yul\":32278:32318   */\n      tag_259\n      jump\t// in\n    tag_574:\n        /* \"#utility.yul\":32271:32318   */\n      swap7\n      pop\n        /* \"#utility.yul\":32345:32382   */\n      tag_575\n        /* \"#utility.yul\":32377:32381   */\n      dup7\n        /* \"#utility.yul\":32345:32382   */\n      tag_213\n      jump\t// in\n    tag_575:\n        /* \"#utility.yul\":32404:32405   */\n      0x00\n        /* \"#utility.yul\":32418:32625   */\n    tag_576:\n        /* \"#utility.yul\":32432:32439   */\n      dup3\n        /* \"#utility.yul\":32429:32430   */\n      dup2\n        /* \"#utility.yul\":32426:32440   */\n      lt\n        /* \"#utility.yul\":32418:32625   */\n      iszero\n      tag_578\n      jumpi\n        /* \"#utility.yul\":32511:32520   */\n      dup5\n        /* \"#utility.yul\":32506:32509   */\n      dup10\n        /* \"#utility.yul\":32502:32521   */\n      add\n        /* \"#utility.yul\":32496:32522   */\n      sload\n        /* \"#utility.yul\":32488:32494   */\n      dup3\n        /* \"#utility.yul\":32481:32523   */\n      sstore\n        /* \"#utility.yul\":32562:32563   */\n      0x01\n        /* \"#utility.yul\":32554:32560   */\n      dup3\n        /* \"#utility.yul\":32550:32564   */\n      add\n        /* \"#utility.yul\":32540:32564   */\n      swap2\n      pop\n        /* \"#utility.yul\":32609:32610   */\n      0x01\n        /* \"#utility.yul\":32598:32607   */\n      dup6\n        /* \"#utility.yul\":32594:32611   */\n      add\n        /* \"#utility.yul\":32581:32611   */\n      swap5\n      pop\n        /* \"#utility.yul\":32455:32459   */\n      0x20\n        /* \"#utility.yul\":32452:32453   */\n      dup2\n        /* \"#utility.yul\":32448:32460   */\n      add\n        /* \"#utility.yul\":32443:32460   */\n      swap1\n      pop\n        /* \"#utility.yul\":32418:32625   */\n      jump(tag_576)\n    tag_578:\n        /* \"#utility.yul\":32653:32659   */\n      dup7\n        /* \"#utility.yul\":32644:32651   */\n      dup4\n        /* \"#utility.yul\":32641:32660   */\n      lt\n        /* \"#utility.yul\":32638:32817   */\n      iszero\n      tag_579\n      jumpi\n        /* \"#utility.yul\":32711:32720   */\n      dup5\n        /* \"#utility.yul\":32706:32709   */\n      dup10\n        /* \"#utility.yul\":32702:32721   */\n      add\n        /* \"#utility.yul\":32696:32722   */\n      sload\n        /* \"#utility.yul\":32754:32802   */\n      tag_580\n        /* \"#utility.yul\":32796:32800   */\n      0x1f\n        /* \"#utility.yul\":32788:32794   */\n      dup10\n        /* \"#utility.yul\":32784:32801   */\n      and\n        /* \"#utility.yul\":32773:32782   */\n      dup3\n        /* \"#utility.yul\":32754:32802   */\n      tag_252\n      jump\t// in\n    tag_580:\n        /* \"#utility.yul\":32746:32752   */\n      dup4\n        /* \"#utility.yul\":32739:32803   */\n      sstore\n        /* \"#utility.yul\":32661:32817   */\n      pop\n        /* \"#utility.yul\":32638:32817   */\n    tag_579:\n        /* \"#utility.yul\":32863:32864   */\n      0x01\n        /* \"#utility.yul\":32859:32860   */\n      0x02\n        /* \"#utility.yul\":32851:32857   */\n      dup9\n        /* \"#utility.yul\":32847:32861   */\n      mul\n        /* \"#utility.yul\":32843:32865   */\n      add\n        /* \"#utility.yul\":32837:32841   */\n      dup9\n        /* \"#utility.yul\":32830:32866   */\n      sstore\n        /* \"#utility.yul\":32207:32876   */\n      pop\n      pop\n      pop\n        /* \"#utility.yul\":32170:33115   */\n    tag_570:\n      pop\n        /* \"#utility.yul\":31751:33121   */\n      pop\n      pop\n      pop\n        /* \"#utility.yul\":31658:33121   */\n      pop\n      pop\n    tag_563:\n      jump\t// out\n        /* \"#utility.yul\":33127:33360   */\n    tag_160:\n        /* \"#utility.yul\":33166:33169   */\n      0x00\n        /* \"#utility.yul\":33189:33213   */\n      tag_582\n        /* \"#utility.yul\":33207:33212   */\n      dup3\n        /* \"#utility.yul\":33189:33213   */\n      tag_232\n      jump\t// in\n    tag_582:\n        /* \"#utility.yul\":33180:33213   */\n      swap2\n      pop\n        /* \"#utility.yul\":33235:33301   */\n      0xffffffffffffffffffffffffffffffffffffffffffffffffffffffffffffffff\n        /* \"#utility.yul\":33228:33233   */\n      dup3\n        /* \"#utility.yul\":33225:33302   */\n      sub\n        /* \"#utility.yul\":33222:33325   */\n      tag_583\n      jumpi\n        /* \"#utility.yul\":33305:33323   */\n      tag_584\n      tag_257\n      jump\t// in\n    tag_584:\n        /* \"#utility.yul\":33222:33325   */\n    tag_583:\n        /* \"#utility.yul\":33352:33353   */\n      0x01\n        /* \"#utility.yul\":33345:33350   */\n      dup3\n        /* \"#utility.yul\":33341:33354   */\n      add\n        /* \"#utility.yul\":33334:33354   */\n      swap1\n      pop\n        /* \"#utility.yul\":33127:33360   */\n      swap2\n      swap1\n      pop\n      jump\t// out\n        /* \"#utility.yul\":33366:33546   */\n    tag_163:\n        /* \"#utility.yul\":33414:33491   */\n      0x4e487b7100000000000000000000000000000000000000000000000000000000\n        /* \"#utility.yul\":33411:33412   */\n      0x00\n        /* \"#utility.yul\":33404:33492   */\n      mstore\n        /* \"#utility.yul\":33511:33515   */\n      0x31\n        /* \"#utility.yul\":33508:33509   */\n      0x04\n        /* \"#utility.yul\":33501:33516   */\n      mstore\n        /* \"#utility.yul\":33535:33539   */\n      0x24\n        /* \"#utility.yul\":33532:33533   */\n      0x00\n        /* \"#utility.yul\":33525:33540   */\n      revert\n        /* \"#utility.yul\":33552:33885   */\n    tag_167:\n        /* \"#utility.yul\":33675:33679   */\n      0x00\n        /* \"#utility.yul\":33713:33715   */\n      0x20\n        /* \"#utility.yul\":33702:33711   */\n      dup3\n        /* \"#utility.yul\":33698:33716   */\n      add\n        /* \"#utility.yul\":33690:33716   */\n      swap1\n      pop\n        /* \"#utility.yul\":33762:33771   */\n      dup2\n        /* \"#utility.yul\":33756:33760   */\n      dup2\n        /* \"#utility.yul\":33752:33772   */\n      sub\n        /* \"#utility.yul\":33748:33749   */\n      0x00\n        /* \"#utility.yul\":33737:33746   */\n      dup4\n        /* \"#utility.yul\":33733:33750   */\n      add\n        /* \"#utility.yul\":33726:33773   */\n      mstore\n        /* \"#utility.yul\":33790:33878   */\n      tag_587\n        /* \"#utility.yul\":33873:33877   */\n      dup2\n        /* \"#utility.yul\":33864:33870   */\n      dup5\n        /* \"#utility.yul\":33856:33862   */\n      dup7\n        /* \"#utility.yul\":33790:33878   */\n      tag_254\n      jump\t// in\n    tag_587:\n        /* \"#utility.yul\":33782:33878   */\n      swap1\n      pop\n        /* \"#utility.yul\":33552:33885   */\n      swap4\n      swap3\n      pop\n      pop\n      pop\n      jump\t// out\n\n    auxdata: 0xa2646970667358221220ff61bf5231146aefcc475513e2d3dd6228297256863bf25f288c9c0795854ec364736f6c63430008120033\n}\n",
				"bytecode": {
					"linkReferences": {},
					"object": "608060405234801561001057600080fd5b50611fca806100206000396000f3fe6080604052600436106100595760003560e01c80631d64f872146100745780636080e7ff146100b157806367ac4450146100e15780638052474d1461010c5780638b05f6de146101375780638e9497d21461017457610063565b3661006357600080fd5b34801561006f57600080fd5b600080fd5b34801561008057600080fd5b5061009b60048036038101906100969190610ecc565b6101b1565b6040516100a89190610f89565b60405180910390f35b6100cb60048036038101906100c69190611010565b610282565b6040516100d8919061108b565b60405180910390f35b3480156100ed57600080fd5b506100f66108ca565b60405161010391906111b2565b60405180910390f35b34801561011857600080fd5b506101216109a3565b60405161012e9190610f89565b60405180910390f35b34801561014357600080fd5b5061015e600480360381019061015991906111d4565b6109dc565b60405161016b9190611230565b60405180910390f35b34801561018057600080fd5b5061019b600480360381019061019691906111d4565b610a26565b6040516101a8919061108b565b60405180910390f35b6060600160008373ffffffffffffffffffffffffffffffffffffffff1673ffffffffffffffffffffffffffffffffffffffff16815260200190815260200160002080546101fd9061127a565b80601f01602080910402602001604051908101604052809291908181526020018280546102299061127a565b80156102765780601f1061024b57610100808354040283529160200191610276565b820191906000526020600020905b81548152906001019060200180831161025957829003601f168201915b50505050509050919050565b60003373ffffffffffffffffffffffffffffffffffffffff16737f6b1f900113a9b46e4f38395bfc28075324a9f473ffffffffffffffffffffffffffffffffffffffff16630ae50a396040518163ffffffff1660e01b8152600401602060405180830381865afa1580156102fa573d6000803e3d6000fd5b505050506040513d601f19601f8201168201806040525081019061031e91906112c0565b73ffffffffffffffffffffffffffffffffffffffff1614610374576040517f08c379a000000000000000000000000000000000000000000000000000000000815260040161036b90611339565b60405180910390fd5b600073ffffffffffffffffffffffffffffffffffffffff166000858560405161039e929190611398565b908152602001604051809103902060009054906101000a900473ffffffffffffffffffffffffffffffffffffffff1673ffffffffffffffffffffffffffffffffffffffff1614610423576040517f08c379a000000000000000000000000000000000000000000000000000000000815260040161041a906113fd565b60405180910390fd5b60405160200161043290611443565b60405160208183030381529060405280519060200120600160008473ffffffffffffffffffffffffffffffffffffffff1673ffffffffffffffffffffffffffffffffffffffff16815260200190815260200160002060405160200161049791906114f0565b60405160208183030381529060405280519060200120146104ed576040517f08c379a00000000000000000000000000000000000000000000000000000000081526004016104e490611553565b60405180910390fd5b6000823b905060008163ffffffff160361053c576040517f08c379a0000000000000000000000000000000000000000000000000000000008152600401610533906115bf565b60405180910390fd5b60008390508073ffffffffffffffffffffffffffffffffffffffff166395d89b416040518163ffffffff1660e01b8152600401600060405180830381865afa15801561058c573d6000803e3d6000fd5b505050506040513d6000823e3d601f19601f820116820180604052508101906105b59190611700565b6040516020016105c5919061177a565b6040516020818303038152906040528051906020012086866040516020016105ee929190611398565b6040516020818303038152906040528051906020012014610644576040517f08c379a000000000000000000000000000000000000000000000000000000000815260040161063b906117dd565b60405180910390fd5b6000737f6b1f900113a9b46e4f38395bfc28075324a9f473ffffffffffffffffffffffffffffffffffffffff16638b05f6de6040518163ffffffff1660e01b815260040161069190611849565b602060405180830381865afa1580156106ae573d6000803e3d6000fd5b505050506040513d601f19601f820116820180604052508101906106d291906112c0565b905060008190508073ffffffffffffffffffffffffffffffffffffffff1663846114d534886040518363ffffffff1660e01b81526004016107139190611230565b60006040518083038185885af19350505050801561075457506040513d6000823e3d601f19601f820116820180604052508101906107519190611962565b60015b610793576040517f08c379a000000000000000000000000000000000000000000000000000000000815260040161078a906119f7565b60405180910390fd5b5085600089896040516107a7929190611398565b908152602001604051809103902060006101000a81548173ffffffffffffffffffffffffffffffffffffffff021916908373ffffffffffffffffffffffffffffffffffffffff1602179055508787600160008973ffffffffffffffffffffffffffffffffffffffff1673ffffffffffffffffffffffffffffffffffffffff1681526020019081526020016000209182610841929190611bb9565b50600288889091806001815401808255809150506001900390600052602060002001600090919290919290919290919250918261087f929190611bb9565b507fc0717ff4ff71aeb2317847926c6b6ac81e722c75d43a89b0c0b5b1b1a2f0819a8888886040516108b393929190611cb6565b60405180910390a160019450505050509392505050565b60606002805480602002602001604051908101604052809291908181526020016000905b8282101561099a57838290600052602060002001805461090d9061127a565b80601f01602080910402602001604051908101604052809291908181526020018280546109399061127a565b80156109865780601f1061095b57610100808354040283529160200191610986565b820191906000526020600020905b81548152906001019060200180831161096957829003601f168201915b5050505050815260200190600101906108ee565b50505050905090565b6040518060400160405280601281526020017f5061796d656e742e43757272656e63696573000000000000000000000000000081525081565b60008083836040516109ef929190611398565b908152602001604051809103902060009054906101000a900473ffffffffffffffffffffffffffffffffffffffff16905092915050565b60003373ffffffffffffffffffffffffffffffffffffffff16737f6b1f900113a9b46e4f38395bfc28075324a9f473ffffffffffffffffffffffffffffffffffffffff16630ae50a396040518163ffffffff1660e01b8152600401602060405180830381865afa158015610a9e573d6000803e3d6000fd5b505050506040513d601f19601f82011682018060405250810190610ac291906112c0565b73ffffffffffffffffffffffffffffffffffffffff1614610b18576040517f08c379a0000000000000000000000000000000000000000000000000000000008152600401610b0f90611339565b60405180910390fd5b600073ffffffffffffffffffffffffffffffffffffffff1660008484604051610b42929190611398565b908152602001604051809103902060009054906101000a900473ffffffffffffffffffffffffffffffffffffffff1673ffffffffffffffffffffffffffffffffffffffff1603610bc7576040517f08c379a0000000000000000000000000000000000000000000000000000000008152600401610bbe90611d34565b60405180910390fd5b60016000808585604051610bdc929190611398565b908152602001604051809103902060009054906101000a900473ffffffffffffffffffffffffffffffffffffffff1673ffffffffffffffffffffffffffffffffffffffff1673ffffffffffffffffffffffffffffffffffffffff1681526020019081526020016000206000610c519190610dfd565b60008383604051610c63929190611398565b908152602001604051809103902060006101000a81549073ffffffffffffffffffffffffffffffffffffffff02191690556000600280549050905060005b81811015610d885760028181548110610cbd57610cbc611d54565b5b90600052602060002001604051602001610cd791906114f0565b604051602081830303815290604052805190602001208585604051602001610d00929190611398565b6040516020818303038152906040528051906020012003610d75576002600183610d2a9190611db2565b81548110610d3b57610d3a611d54565b5b9060005260206000200160028281548110610d5957610d58611d54565b5b906000526020600020019081610d6f9190611e11565b50610d88565b8080610d8090611ef9565b915050610ca1565b506002805480610d9b57610d9a611f41565b5b600190038181906000526020600020016000610db79190610dfd565b90557f13e5a601ba75c0d6275edbe545df6c19619713764e298f2ae79eb881367405c58484604051610dea929190611f70565b60405180910390a1600191505092915050565b508054610e099061127a565b6000825580601f10610e1b5750610e3a565b601f016020900490600052602060002090810190610e399190610e3d565b5b50565b5b80821115610e56576000816000905550600101610e3e565b5090565b6000604051905090565b600080fd5b600080fd5b600073ffffffffffffffffffffffffffffffffffffffff82169050919050565b6000610e9982610e6e565b9050919050565b610ea981610e8e565b8114610eb457600080fd5b50565b600081359050610ec681610ea0565b92915050565b600060208284031215610ee257610ee1610e64565b5b6000610ef084828501610eb7565b91505092915050565b600081519050919050565b600082825260208201905092915050565b60005b83811015610f33578082015181840152602081019050610f18565b60008484015250505050565b6000601f19601f8301169050919050565b6000610f5b82610ef9565b610f658185610f04565b9350610f75818560208601610f15565b610f7e81610f3f565b840191505092915050565b60006020820190508181036000830152610fa38184610f50565b905092915050565b600080fd5b600080fd5b600080fd5b60008083601f840112610fd057610fcf610fab565b5b8235905067ffffffffffffffff811115610fed57610fec610fb0565b5b60208301915083600182028301111561100957611008610fb5565b5b9250929050565b60008060006040848603121561102957611028610e64565b5b600084013567ffffffffffffffff81111561104757611046610e69565b5b61105386828701610fba565b9350935050602061106686828701610eb7565b9150509250925092565b60008115159050919050565b61108581611070565b82525050565b60006020820190506110a0600083018461107c565b92915050565b600081519050919050565b600082825260208201905092915050565b6000819050602082019050919050565b600082825260208201905092915050565b60006110ee82610ef9565b6110f881856110d2565b9350611108818560208601610f15565b61111181610f3f565b840191505092915050565b600061112883836110e3565b905092915050565b6000602082019050919050565b6000611148826110a6565b61115281856110b1565b935083602082028501611164856110c2565b8060005b858110156111a05784840389528151611181858261111c565b945061118c83611130565b925060208a01995050600181019050611168565b50829750879550505050505092915050565b600060208201905081810360008301526111cc818461113d565b905092915050565b600080602083850312156111eb576111ea610e64565b5b600083013567ffffffffffffffff81111561120957611208610e69565b5b61121585828601610fba565b92509250509250929050565b61122a81610e8e565b82525050565b60006020820190506112456000830184611221565b92915050565b7f4e487b7100000000000000000000000000000000000000000000000000000000600052602260045260246000fd5b6000600282049050600182168061129257607f821691505b6020821081036112a5576112a461124b565b5b50919050565b6000815190506112ba81610ea0565b92915050565b6000602082840312156112d6576112d5610e64565b5b60006112e4848285016112ab565b91505092915050565b7f4f776e6572206f6e6c7900000000000000000000000000000000000000000000600082015250565b6000611323600a83610f04565b915061132e826112ed565b602082019050919050565b6000602082019050818103600083015261135281611316565b9050919050565b600081905092915050565b82818337600083830152505050565b600061137f8385611359565b935061138c838584611364565b82840190509392505050565b60006113a5828486611373565b91508190509392505050565b7f53796d626f6c20616c7265616479207573656400000000000000000000000000600082015250565b60006113e7601383610f04565b91506113f2826113b1565b602082019050919050565b60006020820190508181036000830152611416816113da565b9050919050565b50565b600061142d600083611359565b91506114388261141d565b600082019050919050565b600061144e82611420565b9150819050919050565b60008190508160005260206000209050919050565b6000815461147a8161127a565b6114848186611359565b9450600182166000811461149f57600181146114b4576114e7565b60ff19831686528115158202860193506114e7565b6114bd85611458565b60005b838110156114df578154818901526001820191506020810190506114c0565b838801955050505b50505092915050565b60006114fc828461146d565b915081905092915050565b7f4164647265737320616c72656164792075736564000000000000000000000000600082015250565b600061153d601483610f04565b915061154882611507565b602082019050919050565b6000602082019050818103600083015261156c81611530565b9050919050565b7f4e6f74206120636f6e7472616374000000000000000000000000000000000000600082015250565b60006115a9600e83610f04565b91506115b482611573565b602082019050919050565b600060208201905081810360008301526115d88161159c565b9050919050565b600080fd5b7f4e487b7100000000000000000000000000000000000000000000000000000000600052604160045260246000fd5b61161c82610f3f565b810181811067ffffffffffffffff8211171561163b5761163a6115e4565b5b80604052505050565b600061164e610e5a565b905061165a8282611613565b919050565b600067ffffffffffffffff82111561167a576116796115e4565b5b61168382610f3f565b9050602081019050919050565b60006116a361169e8461165f565b611644565b9050828152602081018484840111156116bf576116be6115df565b5b6116ca848285610f15565b509392505050565b600082601f8301126116e7576116e6610fab565b5b81516116f7848260208601611690565b91505092915050565b60006020828403121561171657611715610e64565b5b600082015167ffffffffffffffff81111561173457611733610e69565b5b611740848285016116d2565b91505092915050565b600061175482610ef9565b61175e8185611359565b935061176e818560208601610f15565b80840191505092915050565b60006117868284611749565b915081905092915050565b7f53796d626f6c73206d69736d6174636800000000000000000000000000000000600082015250565b60006117c7601083610f04565b91506117d282611791565b602082019050919050565b600060208201905081810360008301526117f6816117ba565b9050919050565b7f5061796d656e742e537761700000000000000000000000000000000000000000600082015250565b6000611833600c83610f04565b915061183e826117fd565b602082019050919050565b6000602082019050818103600083015261186281611826565b9050919050565b600067ffffffffffffffff821115611884576118836115e4565b5b602082029050602081019050919050565b6000819050919050565b6118a881611895565b81146118b357600080fd5b50565b6000815190506118c58161189f565b92915050565b60006118de6118d984611869565b611644565b9050808382526020820190506020840283018581111561190157611900610fb5565b5b835b8181101561192a578061191688826118b6565b845260208401935050602081019050611903565b5050509392505050565b600082601f83011261194957611948610fab565b5b81516119598482602086016118cb565b91505092915050565b60006020828403121561197857611977610e64565b5b600082015167ffffffffffffffff81111561199657611995610e69565b5b6119a284828501611934565b91505092915050565b7f546f6b656e206e6f7420537570706f7274656400000000000000000000000000600082015250565b60006119e1601383610f04565b91506119ec826119ab565b602082019050919050565b60006020820190508181036000830152611a10816119d4565b9050919050565b600082905092915050565b60006020601f8301049050919050565b600082821b905092915050565b600060088302611a6f7fffffffffffffffffffffffffffffffffffffffffffffffffffffffffffffffff82611a32565b611a798683611a32565b95508019841693508086168417925050509392505050565b6000819050919050565b6000611ab6611ab1611aac84611895565b611a91565b611895565b9050919050565b6000819050919050565b611ad083611a9b565b611ae4611adc82611abd565b848454611a3f565b825550505050565b600090565b611af9611aec565b611b04818484611ac7565b505050565b5b81811015611b2857611b1d600082611af1565b600181019050611b0a565b5050565b601f821115611b6d57611b3e81611458565b611b4784611a22565b81016020851015611b56578190505b611b6a611b6285611a22565b830182611b09565b50505b505050565b600082821c905092915050565b6000611b9060001984600802611b72565b1980831691505092915050565b6000611ba98383611b7f565b9150826002028217905092915050565b611bc38383611a17565b67ffffffffffffffff811115611bdc57611bdb6115e4565b5b611be6825461127a565b611bf1828285611b2c565b6000601f831160018114611c205760008415611c0e578287013590505b611c188582611b9d565b865550611c80565b601f198416611c2e86611458565b60005b82811015611c5657848901358255600182019150602085019450602081019050611c31565b86831015611c735784890135611c6f601f891682611b7f565b8355505b6001600288020188555050505b50505050505050565b6000611c958385610f04565b9350611ca2838584611364565b611cab83610f3f565b840190509392505050565b60006040820190508181036000830152611cd1818587611c89565b9050611ce06020830184611221565b949350505050565b7f53796d626f6c206e6f7420757365640000000000000000000000000000000000600082015250565b6000611d1e600f83610f04565b9150611d2982611ce8565b602082019050919050565b60006020820190508181036000830152611d4d81611d11565b9050919050565b7f4e487b7100000000000000000000000000000000000000000000000000000000600052603260045260246000fd5b7f4e487b7100000000000000000000000000000000000000000000000000000000600052601160045260246000fd5b6000611dbd82611895565b9150611dc883611895565b9250828203905081811115611de057611ddf611d83565b5b92915050565b600081549050611df58161127a565b9050919050565b60008190508160005260206000209050919050565b818103611e1f575050611ef7565b611e2882611de6565b67ffffffffffffffff811115611e4157611e406115e4565b5b611e4b825461127a565b611e56828285611b2c565b6000601f831160018114611e855760008415611e73578287015490505b611e7d8582611b9d565b865550611ef0565b601f198416611e9387611dfc565b9650611e9e86611458565b60005b82811015611ec657848901548255600182019150600185019450602081019050611ea1565b86831015611ee35784890154611edf601f891682611b7f565b8355505b6001600288020188555050505b5050505050505b565b6000611f0482611895565b91507fffffffffffffffffffffffffffffffffffffffffffffffffffffffffffffffff8203611f3657611f35611d83565b5b600182019050919050565b7f4e487b7100000000000000000000000000000000000000000000000000000000600052603160045260246000fd5b60006020820190508181036000830152611f8b818486611c89565b9050939250505056fea2646970667358221220ff61bf5231146aefcc475513e2d3dd6228297256863bf25f288c9c0795854ec364736f6c63430008120033",
					"opcodes": "PUSH1 0x80 PUSH1 0x40 MSTORE CALLVALUE DUP1 ISZERO PUSH2 0x10 JUMPI PUSH1 0x0 DUP1 REVERT JUMPDEST POP PUSH2 0x1FCA DUP1 PUSH2 0x20 PUSH1 0x0 CODECOPY PUSH1 0x0 RETURN INVALID PUSH1 0x80 PUSH1 0x40 MSTORE PUSH1 0x4 CALLDATASIZE LT PUSH2 0x59 JUMPI PUSH1 0x0 CALLDATALOAD PUSH1 0xE0 SHR DUP1 PUSH4 0x1D64F872 EQ PUSH2 0x74 JUMPI DUP1 PUSH4 0x6080E7FF EQ PUSH2 0xB1 JUMPI DUP1 PUSH4 0x67AC4450 EQ PUSH2 0xE1 JUMPI DUP1 PUSH4 0x8052474D EQ PUSH2 0x10C JUMPI DUP1 PUSH4 0x8B05F6DE EQ PUSH2 0x137 JUMPI DUP1 PUSH4 0x8E9497D2 EQ PUSH2 0x174 JUMPI PUSH2 0x63 JUMP JUMPDEST CALLDATASIZE PUSH2 0x63 JUMPI PUSH1 0x0 DUP1 REVERT JUMPDEST CALLVALUE DUP1 ISZERO PUSH2 0x6F JUMPI PUSH1 0x0 DUP1 REVERT JUMPDEST PUSH1 0x0 DUP1 REVERT JUMPDEST CALLVALUE DUP1 ISZERO PUSH2 0x80 JUMPI PUSH1 0x0 DUP1 REVERT JUMPDEST POP PUSH2 0x9B PUSH1 0x4 DUP1 CALLDATASIZE SUB DUP2 ADD SWAP1 PUSH2 0x96 SWAP2 SWAP1 PUSH2 0xECC JUMP JUMPDEST PUSH2 0x1B1 JUMP JUMPDEST PUSH1 0x40 MLOAD PUSH2 0xA8 SWAP2 SWAP1 PUSH2 0xF89 JUMP JUMPDEST PUSH1 0x40 MLOAD DUP1 SWAP2 SUB SWAP1 RETURN JUMPDEST PUSH2 0xCB PUSH1 0x4 DUP1 CALLDATASIZE SUB DUP2 ADD SWAP1 PUSH2 0xC6 SWAP2 SWAP1 PUSH2 0x1010 JUMP JUMPDEST PUSH2 0x282 JUMP JUMPDEST PUSH1 0x40 MLOAD PUSH2 0xD8 SWAP2 SWAP1 PUSH2 0x108B JUMP JUMPDEST PUSH1 0x40 MLOAD DUP1 SWAP2 SUB SWAP1 RETURN JUMPDEST CALLVALUE DUP1 ISZERO PUSH2 0xED JUMPI PUSH1 0x0 DUP1 REVERT JUMPDEST POP PUSH2 0xF6 PUSH2 0x8CA JUMP JUMPDEST PUSH1 0x40 MLOAD PUSH2 0x103 SWAP2 SWAP1 PUSH2 0x11B2 JUMP JUMPDEST PUSH1 0x40 MLOAD DUP1 SWAP2 SUB SWAP1 RETURN JUMPDEST CALLVALUE DUP1 ISZERO PUSH2 0x118 JUMPI PUSH1 0x0 DUP1 REVERT JUMPDEST POP PUSH2 0x121 PUSH2 0x9A3 JUMP JUMPDEST PUSH1 0x40 MLOAD PUSH2 0x12E SWAP2 SWAP1 PUSH2 0xF89 JUMP JUMPDEST PUSH1 0x40 MLOAD DUP1 SWAP2 SUB SWAP1 RETURN JUMPDEST CALLVALUE DUP1 ISZERO PUSH2 0x143 JUMPI PUSH1 0x0 DUP1 REVERT JUMPDEST POP PUSH2 0x15E PUSH1 0x4 DUP1 CALLDATASIZE SUB DUP2 ADD SWAP1 PUSH2 0x159 SWAP2 SWAP1 PUSH2 0x11D4 JUMP JUMPDEST PUSH2 0x9DC JUMP JUMPDEST PUSH1 0x40 MLOAD PUSH2 0x16B SWAP2 SWAP1 PUSH2 0x1230 JUMP JUMPDEST PUSH1 0x40 MLOAD DUP1 SWAP2 SUB SWAP1 RETURN JUMPDEST CALLVALUE DUP1 ISZERO PUSH2 0x180 JUMPI PUSH1 0x0 DUP1 REVERT JUMPDEST POP PUSH2 0x19B PUSH1 0x4 DUP1 CALLDATASIZE SUB DUP2 ADD SWAP1 PUSH2 0x196 SWAP2 SWAP1 PUSH2 0x11D4 JUMP JUMPDEST PUSH2 0xA26 JUMP JUMPDEST PUSH1 0x40 MLOAD PUSH2 0x1A8 SWAP2 SWAP1 PUSH2 0x108B JUMP JUMPDEST PUSH1 0x40 MLOAD DUP1 SWAP2 SUB SWAP1 RETURN JUMPDEST PUSH1 0x60 PUSH1 0x1 PUSH1 0x0 DUP4 PUSH20 0xFFFFFFFFFFFFFFFFFFFFFFFFFFFFFFFFFFFFFFFF AND PUSH20 0xFFFFFFFFFFFFFFFFFFFFFFFFFFFFFFFFFFFFFFFF AND DUP2 MSTORE PUSH1 0x20 ADD SWAP1 DUP2 MSTORE PUSH1 0x20 ADD PUSH1 0x0 KECCAK256 DUP1 SLOAD PUSH2 0x1FD SWAP1 PUSH2 0x127A JUMP JUMPDEST DUP1 PUSH1 0x1F ADD PUSH1 0x20 DUP1 SWAP2 DIV MUL PUSH1 0x20 ADD PUSH1 0x40 MLOAD SWAP1 DUP2 ADD PUSH1 0x40 MSTORE DUP1 SWAP3 SWAP2 SWAP1 DUP2 DUP2 MSTORE PUSH1 0x20 ADD DUP3 DUP1 SLOAD PUSH2 0x229 SWAP1 PUSH2 0x127A JUMP JUMPDEST DUP1 ISZERO PUSH2 0x276 JUMPI DUP1 PUSH1 0x1F LT PUSH2 0x24B JUMPI PUSH2 0x100 DUP1 DUP4 SLOAD DIV MUL DUP4 MSTORE SWAP2 PUSH1 0x20 ADD SWAP2 PUSH2 0x276 JUMP JUMPDEST DUP3 ADD SWAP2 SWAP1 PUSH1 0x0 MSTORE PUSH1 0x20 PUSH1 0x0 KECCAK256 SWAP1 JUMPDEST DUP2 SLOAD DUP2 MSTORE SWAP1 PUSH1 0x1 ADD SWAP1 PUSH1 0x20 ADD DUP1 DUP4 GT PUSH2 0x259 JUMPI DUP3 SWAP1 SUB PUSH1 0x1F AND DUP3 ADD SWAP2 JUMPDEST POP POP POP POP POP SWAP1 POP SWAP2 SWAP1 POP JUMP JUMPDEST PUSH1 0x0 CALLER PUSH20 0xFFFFFFFFFFFFFFFFFFFFFFFFFFFFFFFFFFFFFFFF AND PUSH20 0x7F6B1F900113A9B46E4F38395BFC28075324A9F4 PUSH20 0xFFFFFFFFFFFFFFFFFFFFFFFFFFFFFFFFFFFFFFFF AND PUSH4 0xAE50A39 PUSH1 0x40 MLOAD DUP2 PUSH4 0xFFFFFFFF AND PUSH1 0xE0 SHL DUP2 MSTORE PUSH1 0x4 ADD PUSH1 0x20 PUSH1 0x40 MLOAD DUP1 DUP4 SUB DUP2 DUP7 GAS STATICCALL ISZERO DUP1 ISZERO PUSH2 0x2FA JUMPI RETURNDATASIZE PUSH1 0x0 DUP1 RETURNDATACOPY RETURNDATASIZE PUSH1 0x0 REVERT JUMPDEST POP POP POP POP PUSH1 0x40 MLOAD RETURNDATASIZE PUSH1 0x1F NOT PUSH1 0x1F DUP3 ADD AND DUP3 ADD DUP1 PUSH1 0x40 MSTORE POP DUP2 ADD SWAP1 PUSH2 0x31E SWAP2 SWAP1 PUSH2 0x12C0 JUMP JUMPDEST PUSH20 0xFFFFFFFFFFFFFFFFFFFFFFFFFFFFFFFFFFFFFFFF AND EQ PUSH2 0x374 JUMPI PUSH1 0x40 MLOAD PUSH32 0x8C379A000000000000000000000000000000000000000000000000000000000 DUP2 MSTORE PUSH1 0x4 ADD PUSH2 0x36B SWAP1 PUSH2 0x1339 JUMP JUMPDEST PUSH1 0x40 MLOAD DUP1 SWAP2 SUB SWAP1 REVERT JUMPDEST PUSH1 0x0 PUSH20 0xFFFFFFFFFFFFFFFFFFFFFFFFFFFFFFFFFFFFFFFF AND PUSH1 0x0 DUP6 DUP6 PUSH1 0x40 MLOAD PUSH2 0x39E SWAP3 SWAP2 SWAP1 PUSH2 0x1398 JUMP JUMPDEST SWAP1 DUP2 MSTORE PUSH1 0x20 ADD PUSH1 0x40 MLOAD DUP1 SWAP2 SUB SWAP1 KECCAK256 PUSH1 0x0 SWAP1 SLOAD SWAP1 PUSH2 0x100 EXP SWAP1 DIV PUSH20 0xFFFFFFFFFFFFFFFFFFFFFFFFFFFFFFFFFFFFFFFF AND PUSH20 0xFFFFFFFFFFFFFFFFFFFFFFFFFFFFFFFFFFFFFFFF AND EQ PUSH2 0x423 JUMPI PUSH1 0x40 MLOAD PUSH32 0x8C379A000000000000000000000000000000000000000000000000000000000 DUP2 MSTORE PUSH1 0x4 ADD PUSH2 0x41A SWAP1 PUSH2 0x13FD JUMP JUMPDEST PUSH1 0x40 MLOAD DUP1 SWAP2 SUB SWAP1 REVERT JUMPDEST PUSH1 0x40 MLOAD PUSH1 0x20 ADD PUSH2 0x432 SWAP1 PUSH2 0x1443 JUMP JUMPDEST PUSH1 0x40 MLOAD PUSH1 0x20 DUP2 DUP4 SUB SUB DUP2 MSTORE SWAP1 PUSH1 0x40 MSTORE DUP1 MLOAD SWAP1 PUSH1 0x20 ADD KECCAK256 PUSH1 0x1 PUSH1 0x0 DUP5 PUSH20 0xFFFFFFFFFFFFFFFFFFFFFFFFFFFFFFFFFFFFFFFF AND PUSH20 0xFFFFFFFFFFFFFFFFFFFFFFFFFFFFFFFFFFFFFFFF AND DUP2 MSTORE PUSH1 0x20 ADD SWAP1 DUP2 MSTORE PUSH1 0x20 ADD PUSH1 0x0 KECCAK256 PUSH1 0x40 MLOAD PUSH1 0x20 ADD PUSH2 0x497 SWAP2 SWAP1 PUSH2 0x14F0 JUMP JUMPDEST PUSH1 0x40 MLOAD PUSH1 0x20 DUP2 DUP4 SUB SUB DUP2 MSTORE SWAP1 PUSH1 0x40 MSTORE DUP1 MLOAD SWAP1 PUSH1 0x20 ADD KECCAK256 EQ PUSH2 0x4ED JUMPI PUSH1 0x40 MLOAD PUSH32 0x8C379A000000000000000000000000000000000000000000000000000000000 DUP2 MSTORE PUSH1 0x4 ADD PUSH2 0x4E4 SWAP1 PUSH2 0x1553 JUMP JUMPDEST PUSH1 0x40 MLOAD DUP1 SWAP2 SUB SWAP1 REVERT JUMPDEST PUSH1 0x0 DUP3 EXTCODESIZE SWAP1 POP PUSH1 0x0 DUP2 PUSH4 0xFFFFFFFF AND SUB PUSH2 0x53C JUMPI PUSH1 0x40 MLOAD PUSH32 0x8C379A000000000000000000000000000000000000000000000000000000000 DUP2 MSTORE PUSH1 0x4 ADD PUSH2 0x533 SWAP1 PUSH2 0x15BF JUMP JUMPDEST PUSH1 0x40 MLOAD DUP1 SWAP2 SUB SWAP1 REVERT JUMPDEST PUSH1 0x0 DUP4 SWAP1 POP DUP1 PUSH20 0xFFFFFFFFFFFFFFFFFFFFFFFFFFFFFFFFFFFFFFFF AND PUSH4 0x95D89B41 PUSH1 0x40 MLOAD DUP2 PUSH4 0xFFFFFFFF AND PUSH1 0xE0 SHL DUP2 MSTORE PUSH1 0x4 ADD PUSH1 0x0 PUSH1 0x40 MLOAD DUP1 DUP4 SUB DUP2 DUP7 GAS STATICCALL ISZERO DUP1 ISZERO PUSH2 0x58C JUMPI RETURNDATASIZE PUSH1 0x0 DUP1 RETURNDATACOPY RETURNDATASIZE PUSH1 0x0 REVERT JUMPDEST POP POP POP POP PUSH1 0x40 MLOAD RETURNDATASIZE PUSH1 0x0 DUP3 RETURNDATACOPY RETURNDATASIZE PUSH1 0x1F NOT PUSH1 0x1F DUP3 ADD AND DUP3 ADD DUP1 PUSH1 0x40 MSTORE POP DUP2 ADD SWAP1 PUSH2 0x5B5 SWAP2 SWAP1 PUSH2 0x1700 JUMP JUMPDEST PUSH1 0x40 MLOAD PUSH1 0x20 ADD PUSH2 0x5C5 SWAP2 SWAP1 PUSH2 0x177A JUMP JUMPDEST PUSH1 0x40 MLOAD PUSH1 0x20 DUP2 DUP4 SUB SUB DUP2 MSTORE SWAP1 PUSH1 0x40 MSTORE DUP1 MLOAD SWAP1 PUSH1 0x20 ADD KECCAK256 DUP7 DUP7 PUSH1 0x40 MLOAD PUSH1 0x20 ADD PUSH2 0x5EE SWAP3 SWAP2 SWAP1 PUSH2 0x1398 JUMP JUMPDEST PUSH1 0x40 MLOAD PUSH1 0x20 DUP2 DUP4 SUB SUB DUP2 MSTORE SWAP1 PUSH1 0x40 MSTORE DUP1 MLOAD SWAP1 PUSH1 0x20 ADD KECCAK256 EQ PUSH2 0x644 JUMPI PUSH1 0x40 MLOAD PUSH32 0x8C379A000000000000000000000000000000000000000000000000000000000 DUP2 MSTORE PUSH1 0x4 ADD PUSH2 0x63B SWAP1 PUSH2 0x17DD JUMP JUMPDEST PUSH1 0x40 MLOAD DUP1 SWAP2 SUB SWAP1 REVERT JUMPDEST PUSH1 0x0 PUSH20 0x7F6B1F900113A9B46E4F38395BFC28075324A9F4 PUSH20 0xFFFFFFFFFFFFFFFFFFFFFFFFFFFFFFFFFFFFFFFF AND PUSH4 0x8B05F6DE PUSH1 0x40 MLOAD DUP2 PUSH4 0xFFFFFFFF AND PUSH1 0xE0 SHL DUP2 MSTORE PUSH1 0x4 ADD PUSH2 0x691 SWAP1 PUSH2 0x1849 JUMP JUMPDEST PUSH1 0x20 PUSH1 0x40 MLOAD DUP1 DUP4 SUB DUP2 DUP7 GAS STATICCALL ISZERO DUP1 ISZERO PUSH2 0x6AE JUMPI RETURNDATASIZE PUSH1 0x0 DUP1 RETURNDATACOPY RETURNDATASIZE PUSH1 0x0 REVERT JUMPDEST POP POP POP POP PUSH1 0x40 MLOAD RETURNDATASIZE PUSH1 0x1F NOT PUSH1 0x1F DUP3 ADD AND DUP3 ADD DUP1 PUSH1 0x40 MSTORE POP DUP2 ADD SWAP1 PUSH2 0x6D2 SWAP2 SWAP1 PUSH2 0x12C0 JUMP JUMPDEST SWAP1 POP PUSH1 0x0 DUP2 SWAP1 POP DUP1 PUSH20 0xFFFFFFFFFFFFFFFFFFFFFFFFFFFFFFFFFFFFFFFF AND PUSH4 0x846114D5 CALLVALUE DUP9 PUSH1 0x40 MLOAD DUP4 PUSH4 0xFFFFFFFF AND PUSH1 0xE0 SHL DUP2 MSTORE PUSH1 0x4 ADD PUSH2 0x713 SWAP2 SWAP1 PUSH2 0x1230 JUMP JUMPDEST PUSH1 0x0 PUSH1 0x40 MLOAD DUP1 DUP4 SUB DUP2 DUP6 DUP9 GAS CALL SWAP4 POP POP POP POP DUP1 ISZERO PUSH2 0x754 JUMPI POP PUSH1 0x40 MLOAD RETURNDATASIZE PUSH1 0x0 DUP3 RETURNDATACOPY RETURNDATASIZE PUSH1 0x1F NOT PUSH1 0x1F DUP3 ADD AND DUP3 ADD DUP1 PUSH1 0x40 MSTORE POP DUP2 ADD SWAP1 PUSH2 0x751 SWAP2 SWAP1 PUSH2 0x1962 JUMP JUMPDEST PUSH1 0x1 JUMPDEST PUSH2 0x793 JUMPI PUSH1 0x40 MLOAD PUSH32 0x8C379A000000000000000000000000000000000000000000000000000000000 DUP2 MSTORE PUSH1 0x4 ADD PUSH2 0x78A SWAP1 PUSH2 0x19F7 JUMP JUMPDEST PUSH1 0x40 MLOAD DUP1 SWAP2 SUB SWAP1 REVERT JUMPDEST POP DUP6 PUSH1 0x0 DUP10 DUP10 PUSH1 0x40 MLOAD PUSH2 0x7A7 SWAP3 SWAP2 SWAP1 PUSH2 0x1398 JUMP JUMPDEST SWAP1 DUP2 MSTORE PUSH1 0x20 ADD PUSH1 0x40 MLOAD DUP1 SWAP2 SUB SWAP1 KECCAK256 PUSH1 0x0 PUSH2 0x100 EXP DUP2 SLOAD DUP2 PUSH20 0xFFFFFFFFFFFFFFFFFFFFFFFFFFFFFFFFFFFFFFFF MUL NOT AND SWAP1 DUP4 PUSH20 0xFFFFFFFFFFFFFFFFFFFFFFFFFFFFFFFFFFFFFFFF AND MUL OR SWAP1 SSTORE POP DUP8 DUP8 PUSH1 0x1 PUSH1 0x0 DUP10 PUSH20 0xFFFFFFFFFFFFFFFFFFFFFFFFFFFFFFFFFFFFFFFF AND PUSH20 0xFFFFFFFFFFFFFFFFFFFFFFFFFFFFFFFFFFFFFFFF AND DUP2 MSTORE PUSH1 0x20 ADD SWAP1 DUP2 MSTORE PUSH1 0x20 ADD PUSH1 0x0 KECCAK256 SWAP2 DUP3 PUSH2 0x841 SWAP3 SWAP2 SWAP1 PUSH2 0x1BB9 JUMP JUMPDEST POP PUSH1 0x2 DUP9 DUP9 SWAP1 SWAP2 DUP1 PUSH1 0x1 DUP2 SLOAD ADD DUP1 DUP3 SSTORE DUP1 SWAP2 POP POP PUSH1 0x1 SWAP1 SUB SWAP1 PUSH1 0x0 MSTORE PUSH1 0x20 PUSH1 0x0 KECCAK256 ADD PUSH1 0x0 SWAP1 SWAP2 SWAP3 SWAP1 SWAP2 SWAP3 SWAP1 SWAP2 SWAP3 SWAP1 SWAP2 SWAP3 POP SWAP2 DUP3 PUSH2 0x87F SWAP3 SWAP2 SWAP1 PUSH2 0x1BB9 JUMP JUMPDEST POP PUSH32 0xC0717FF4FF71AEB2317847926C6B6AC81E722C75D43A89B0C0B5B1B1A2F0819A DUP9 DUP9 DUP9 PUSH1 0x40 MLOAD PUSH2 0x8B3 SWAP4 SWAP3 SWAP2 SWAP1 PUSH2 0x1CB6 JUMP JUMPDEST PUSH1 0x40 MLOAD DUP1 SWAP2 SUB SWAP1 LOG1 PUSH1 0x1 SWAP5 POP POP POP POP POP SWAP4 SWAP3 POP POP POP JUMP JUMPDEST PUSH1 0x60 PUSH1 0x2 DUP1 SLOAD DUP1 PUSH1 0x20 MUL PUSH1 0x20 ADD PUSH1 0x40 MLOAD SWAP1 DUP2 ADD PUSH1 0x40 MSTORE DUP1 SWAP3 SWAP2 SWAP1 DUP2 DUP2 MSTORE PUSH1 0x20 ADD PUSH1 0x0 SWAP1 JUMPDEST DUP3 DUP3 LT ISZERO PUSH2 0x99A JUMPI DUP4 DUP3 SWAP1 PUSH1 0x0 MSTORE PUSH1 0x20 PUSH1 0x0 KECCAK256 ADD DUP1 SLOAD PUSH2 0x90D SWAP1 PUSH2 0x127A JUMP JUMPDEST DUP1 PUSH1 0x1F ADD PUSH1 0x20 DUP1 SWAP2 DIV MUL PUSH1 0x20 ADD PUSH1 0x40 MLOAD SWAP1 DUP2 ADD PUSH1 0x40 MSTORE DUP1 SWAP3 SWAP2 SWAP1 DUP2 DUP2 MSTORE PUSH1 0x20 ADD DUP3 DUP1 SLOAD PUSH2 0x939 SWAP1 PUSH2 0x127A JUMP JUMPDEST DUP1 ISZERO PUSH2 0x986 JUMPI DUP1 PUSH1 0x1F LT PUSH2 0x95B JUMPI PUSH2 0x100 DUP1 DUP4 SLOAD DIV MUL DUP4 MSTORE SWAP2 PUSH1 0x20 ADD SWAP2 PUSH2 0x986 JUMP JUMPDEST DUP3 ADD SWAP2 SWAP1 PUSH1 0x0 MSTORE PUSH1 0x20 PUSH1 0x0 KECCAK256 SWAP1 JUMPDEST DUP2 SLOAD DUP2 MSTORE SWAP1 PUSH1 0x1 ADD SWAP1 PUSH1 0x20 ADD DUP1 DUP4 GT PUSH2 0x969 JUMPI DUP3 SWAP1 SUB PUSH1 0x1F AND DUP3 ADD SWAP2 JUMPDEST POP POP POP POP POP DUP2 MSTORE PUSH1 0x20 ADD SWAP1 PUSH1 0x1 ADD SWAP1 PUSH2 0x8EE JUMP JUMPDEST POP POP POP POP SWAP1 POP SWAP1 JUMP JUMPDEST PUSH1 0x40 MLOAD DUP1 PUSH1 0x40 ADD PUSH1 0x40 MSTORE DUP1 PUSH1 0x12 DUP2 MSTORE PUSH1 0x20 ADD PUSH32 0x5061796D656E742E43757272656E636965730000000000000000000000000000 DUP2 MSTORE POP DUP2 JUMP JUMPDEST PUSH1 0x0 DUP1 DUP4 DUP4 PUSH1 0x40 MLOAD PUSH2 0x9EF SWAP3 SWAP2 SWAP1 PUSH2 0x1398 JUMP JUMPDEST SWAP1 DUP2 MSTORE PUSH1 0x20 ADD PUSH1 0x40 MLOAD DUP1 SWAP2 SUB SWAP1 KECCAK256 PUSH1 0x0 SWAP1 SLOAD SWAP1 PUSH2 0x100 EXP SWAP1 DIV PUSH20 0xFFFFFFFFFFFFFFFFFFFFFFFFFFFFFFFFFFFFFFFF AND SWAP1 POP SWAP3 SWAP2 POP POP JUMP JUMPDEST PUSH1 0x0 CALLER PUSH20 0xFFFFFFFFFFFFFFFFFFFFFFFFFFFFFFFFFFFFFFFF AND PUSH20 0x7F6B1F900113A9B46E4F38395BFC28075324A9F4 PUSH20 0xFFFFFFFFFFFFFFFFFFFFFFFFFFFFFFFFFFFFFFFF AND PUSH4 0xAE50A39 PUSH1 0x40 MLOAD DUP2 PUSH4 0xFFFFFFFF AND PUSH1 0xE0 SHL DUP2 MSTORE PUSH1 0x4 ADD PUSH1 0x20 PUSH1 0x40 MLOAD DUP1 DUP4 SUB DUP2 DUP7 GAS STATICCALL ISZERO DUP1 ISZERO PUSH2 0xA9E JUMPI RETURNDATASIZE PUSH1 0x0 DUP1 RETURNDATACOPY RETURNDATASIZE PUSH1 0x0 REVERT JUMPDEST POP POP POP POP PUSH1 0x40 MLOAD RETURNDATASIZE PUSH1 0x1F NOT PUSH1 0x1F DUP3 ADD AND DUP3 ADD DUP1 PUSH1 0x40 MSTORE POP DUP2 ADD SWAP1 PUSH2 0xAC2 SWAP2 SWAP1 PUSH2 0x12C0 JUMP JUMPDEST PUSH20 0xFFFFFFFFFFFFFFFFFFFFFFFFFFFFFFFFFFFFFFFF AND EQ PUSH2 0xB18 JUMPI PUSH1 0x40 MLOAD PUSH32 0x8C379A000000000000000000000000000000000000000000000000000000000 DUP2 MSTORE PUSH1 0x4 ADD PUSH2 0xB0F SWAP1 PUSH2 0x1339 JUMP JUMPDEST PUSH1 0x40 MLOAD DUP1 SWAP2 SUB SWAP1 REVERT JUMPDEST PUSH1 0x0 PUSH20 0xFFFFFFFFFFFFFFFFFFFFFFFFFFFFFFFFFFFFFFFF AND PUSH1 0x0 DUP5 DUP5 PUSH1 0x40 MLOAD PUSH2 0xB42 SWAP3 SWAP2 SWAP1 PUSH2 0x1398 JUMP JUMPDEST SWAP1 DUP2 MSTORE PUSH1 0x20 ADD PUSH1 0x40 MLOAD DUP1 SWAP2 SUB SWAP1 KECCAK256 PUSH1 0x0 SWAP1 SLOAD SWAP1 PUSH2 0x100 EXP SWAP1 DIV PUSH20 0xFFFFFFFFFFFFFFFFFFFFFFFFFFFFFFFFFFFFFFFF AND PUSH20 0xFFFFFFFFFFFFFFFFFFFFFFFFFFFFFFFFFFFFFFFF AND SUB PUSH2 0xBC7 JUMPI PUSH1 0x40 MLOAD PUSH32 0x8C379A000000000000000000000000000000000000000000000000000000000 DUP2 MSTORE PUSH1 0x4 ADD PUSH2 0xBBE SWAP1 PUSH2 0x1D34 JUMP JUMPDEST PUSH1 0x40 MLOAD DUP1 SWAP2 SUB SWAP1 REVERT JUMPDEST PUSH1 0x1 PUSH1 0x0 DUP1 DUP6 DUP6 PUSH1 0x40 MLOAD PUSH2 0xBDC SWAP3 SWAP2 SWAP1 PUSH2 0x1398 JUMP JUMPDEST SWAP1 DUP2 MSTORE PUSH1 0x20 ADD PUSH1 0x40 MLOAD DUP1 SWAP2 SUB SWAP1 KECCAK256 PUSH1 0x0 SWAP1 SLOAD SWAP1 PUSH2 0x100 EXP SWAP1 DIV PUSH20 0xFFFFFFFFFFFFFFFFFFFFFFFFFFFFFFFFFFFFFFFF AND PUSH20 0xFFFFFFFFFFFFFFFFFFFFFFFFFFFFFFFFFFFFFFFF AND PUSH20 0xFFFFFFFFFFFFFFFFFFFFFFFFFFFFFFFFFFFFFFFF AND DUP2 MSTORE PUSH1 0x20 ADD SWAP1 DUP2 MSTORE PUSH1 0x20 ADD PUSH1 0x0 KECCAK256 PUSH1 0x0 PUSH2 0xC51 SWAP2 SWAP1 PUSH2 0xDFD JUMP JUMPDEST PUSH1 0x0 DUP4 DUP4 PUSH1 0x40 MLOAD PUSH2 0xC63 SWAP3 SWAP2 SWAP1 PUSH2 0x1398 JUMP JUMPDEST SWAP1 DUP2 MSTORE PUSH1 0x20 ADD PUSH1 0x40 MLOAD DUP1 SWAP2 SUB SWAP1 KECCAK256 PUSH1 0x0 PUSH2 0x100 EXP DUP2 SLOAD SWAP1 PUSH20 0xFFFFFFFFFFFFFFFFFFFFFFFFFFFFFFFFFFFFFFFF MUL NOT AND SWAP1 SSTORE PUSH1 0x0 PUSH1 0x2 DUP1 SLOAD SWAP1 POP SWAP1 POP PUSH1 0x0 JUMPDEST DUP2 DUP2 LT ISZERO PUSH2 0xD88 JUMPI PUSH1 0x2 DUP2 DUP2 SLOAD DUP2 LT PUSH2 0xCBD JUMPI PUSH2 0xCBC PUSH2 0x1D54 JUMP JUMPDEST JUMPDEST SWAP1 PUSH1 0x0 MSTORE PUSH1 0x20 PUSH1 0x0 KECCAK256 ADD PUSH1 0x40 MLOAD PUSH1 0x20 ADD PUSH2 0xCD7 SWAP2 SWAP1 PUSH2 0x14F0 JUMP JUMPDEST PUSH1 0x40 MLOAD PUSH1 0x20 DUP2 DUP4 SUB SUB DUP2 MSTORE SWAP1 PUSH1 0x40 MSTORE DUP1 MLOAD SWAP1 PUSH1 0x20 ADD KECCAK256 DUP6 DUP6 PUSH1 0x40 MLOAD PUSH1 0x20 ADD PUSH2 0xD00 SWAP3 SWAP2 SWAP1 PUSH2 0x1398 JUMP JUMPDEST PUSH1 0x40 MLOAD PUSH1 0x20 DUP2 DUP4 SUB SUB DUP2 MSTORE SWAP1 PUSH1 0x40 MSTORE DUP1 MLOAD SWAP1 PUSH1 0x20 ADD KECCAK256 SUB PUSH2 0xD75 JUMPI PUSH1 0x2 PUSH1 0x1 DUP4 PUSH2 0xD2A SWAP2 SWAP1 PUSH2 0x1DB2 JUMP JUMPDEST DUP2 SLOAD DUP2 LT PUSH2 0xD3B JUMPI PUSH2 0xD3A PUSH2 0x1D54 JUMP JUMPDEST JUMPDEST SWAP1 PUSH1 0x0 MSTORE PUSH1 0x20 PUSH1 0x0 KECCAK256 ADD PUSH1 0x2 DUP3 DUP2 SLOAD DUP2 LT PUSH2 0xD59 JUMPI PUSH2 0xD58 PUSH2 0x1D54 JUMP JUMPDEST JUMPDEST SWAP1 PUSH1 0x0 MSTORE PUSH1 0x20 PUSH1 0x0 KECCAK256 ADD SWAP1 DUP2 PUSH2 0xD6F SWAP2 SWAP1 PUSH2 0x1E11 JUMP JUMPDEST POP PUSH2 0xD88 JUMP JUMPDEST DUP1 DUP1 PUSH2 0xD80 SWAP1 PUSH2 0x1EF9 JUMP JUMPDEST SWAP2 POP POP PUSH2 0xCA1 JUMP JUMPDEST POP PUSH1 0x2 DUP1 SLOAD DUP1 PUSH2 0xD9B JUMPI PUSH2 0xD9A PUSH2 0x1F41 JUMP JUMPDEST JUMPDEST PUSH1 0x1 SWAP1 SUB DUP2 DUP2 SWAP1 PUSH1 0x0 MSTORE PUSH1 0x20 PUSH1 0x0 KECCAK256 ADD PUSH1 0x0 PUSH2 0xDB7 SWAP2 SWAP1 PUSH2 0xDFD JUMP JUMPDEST SWAP1 SSTORE PUSH32 0x13E5A601BA75C0D6275EDBE545DF6C19619713764E298F2AE79EB881367405C5 DUP5 DUP5 PUSH1 0x40 MLOAD PUSH2 0xDEA SWAP3 SWAP2 SWAP1 PUSH2 0x1F70 JUMP JUMPDEST PUSH1 0x40 MLOAD DUP1 SWAP2 SUB SWAP1 LOG1 PUSH1 0x1 SWAP2 POP POP SWAP3 SWAP2 POP POP JUMP JUMPDEST POP DUP1 SLOAD PUSH2 0xE09 SWAP1 PUSH2 0x127A JUMP JUMPDEST PUSH1 0x0 DUP3 SSTORE DUP1 PUSH1 0x1F LT PUSH2 0xE1B JUMPI POP PUSH2 0xE3A JUMP JUMPDEST PUSH1 0x1F ADD PUSH1 0x20 SWAP1 DIV SWAP1 PUSH1 0x0 MSTORE PUSH1 0x20 PUSH1 0x0 KECCAK256 SWAP1 DUP2 ADD SWAP1 PUSH2 0xE39 SWAP2 SWAP1 PUSH2 0xE3D JUMP JUMPDEST JUMPDEST POP JUMP JUMPDEST JUMPDEST DUP1 DUP3 GT ISZERO PUSH2 0xE56 JUMPI PUSH1 0x0 DUP2 PUSH1 0x0 SWAP1 SSTORE POP PUSH1 0x1 ADD PUSH2 0xE3E JUMP JUMPDEST POP SWAP1 JUMP JUMPDEST PUSH1 0x0 PUSH1 0x40 MLOAD SWAP1 POP SWAP1 JUMP JUMPDEST PUSH1 0x0 DUP1 REVERT JUMPDEST PUSH1 0x0 DUP1 REVERT JUMPDEST PUSH1 0x0 PUSH20 0xFFFFFFFFFFFFFFFFFFFFFFFFFFFFFFFFFFFFFFFF DUP3 AND SWAP1 POP SWAP2 SWAP1 POP JUMP JUMPDEST PUSH1 0x0 PUSH2 0xE99 DUP3 PUSH2 0xE6E JUMP JUMPDEST SWAP1 POP SWAP2 SWAP1 POP JUMP JUMPDEST PUSH2 0xEA9 DUP2 PUSH2 0xE8E JUMP JUMPDEST DUP2 EQ PUSH2 0xEB4 JUMPI PUSH1 0x0 DUP1 REVERT JUMPDEST POP JUMP JUMPDEST PUSH1 0x0 DUP2 CALLDATALOAD SWAP1 POP PUSH2 0xEC6 DUP2 PUSH2 0xEA0 JUMP JUMPDEST SWAP3 SWAP2 POP POP JUMP JUMPDEST PUSH1 0x0 PUSH1 0x20 DUP3 DUP5 SUB SLT ISZERO PUSH2 0xEE2 JUMPI PUSH2 0xEE1 PUSH2 0xE64 JUMP JUMPDEST JUMPDEST PUSH1 0x0 PUSH2 0xEF0 DUP5 DUP3 DUP6 ADD PUSH2 0xEB7 JUMP JUMPDEST SWAP2 POP POP SWAP3 SWAP2 POP POP JUMP JUMPDEST PUSH1 0x0 DUP2 MLOAD SWAP1 POP SWAP2 SWAP1 POP JUMP JUMPDEST PUSH1 0x0 DUP3 DUP3 MSTORE PUSH1 0x20 DUP3 ADD SWAP1 POP SWAP3 SWAP2 POP POP JUMP JUMPDEST PUSH1 0x0 JUMPDEST DUP4 DUP2 LT ISZERO PUSH2 0xF33 JUMPI DUP1 DUP3 ADD MLOAD DUP2 DUP5 ADD MSTORE PUSH1 0x20 DUP2 ADD SWAP1 POP PUSH2 0xF18 JUMP JUMPDEST PUSH1 0x0 DUP5 DUP5 ADD MSTORE POP POP POP POP JUMP JUMPDEST PUSH1 0x0 PUSH1 0x1F NOT PUSH1 0x1F DUP4 ADD AND SWAP1 POP SWAP2 SWAP1 POP JUMP JUMPDEST PUSH1 0x0 PUSH2 0xF5B DUP3 PUSH2 0xEF9 JUMP JUMPDEST PUSH2 0xF65 DUP2 DUP6 PUSH2 0xF04 JUMP JUMPDEST SWAP4 POP PUSH2 0xF75 DUP2 DUP6 PUSH1 0x20 DUP7 ADD PUSH2 0xF15 JUMP JUMPDEST PUSH2 0xF7E DUP2 PUSH2 0xF3F JUMP JUMPDEST DUP5 ADD SWAP2 POP POP SWAP3 SWAP2 POP POP JUMP JUMPDEST PUSH1 0x0 PUSH1 0x20 DUP3 ADD SWAP1 POP DUP2 DUP2 SUB PUSH1 0x0 DUP4 ADD MSTORE PUSH2 0xFA3 DUP2 DUP5 PUSH2 0xF50 JUMP JUMPDEST SWAP1 POP SWAP3 SWAP2 POP POP JUMP JUMPDEST PUSH1 0x0 DUP1 REVERT JUMPDEST PUSH1 0x0 DUP1 REVERT JUMPDEST PUSH1 0x0 DUP1 REVERT JUMPDEST PUSH1 0x0 DUP1 DUP4 PUSH1 0x1F DUP5 ADD SLT PUSH2 0xFD0 JUMPI PUSH2 0xFCF PUSH2 0xFAB JUMP JUMPDEST JUMPDEST DUP3 CALLDATALOAD SWAP1 POP PUSH8 0xFFFFFFFFFFFFFFFF DUP2 GT ISZERO PUSH2 0xFED JUMPI PUSH2 0xFEC PUSH2 0xFB0 JUMP JUMPDEST JUMPDEST PUSH1 0x20 DUP4 ADD SWAP2 POP DUP4 PUSH1 0x1 DUP3 MUL DUP4 ADD GT ISZERO PUSH2 0x1009 JUMPI PUSH2 0x1008 PUSH2 0xFB5 JUMP JUMPDEST JUMPDEST SWAP3 POP SWAP3 SWAP1 POP JUMP JUMPDEST PUSH1 0x0 DUP1 PUSH1 0x0 PUSH1 0x40 DUP5 DUP7 SUB SLT ISZERO PUSH2 0x1029 JUMPI PUSH2 0x1028 PUSH2 0xE64 JUMP JUMPDEST JUMPDEST PUSH1 0x0 DUP5 ADD CALLDATALOAD PUSH8 0xFFFFFFFFFFFFFFFF DUP2 GT ISZERO PUSH2 0x1047 JUMPI PUSH2 0x1046 PUSH2 0xE69 JUMP JUMPDEST JUMPDEST PUSH2 0x1053 DUP7 DUP3 DUP8 ADD PUSH2 0xFBA JUMP JUMPDEST SWAP4 POP SWAP4 POP POP PUSH1 0x20 PUSH2 0x1066 DUP7 DUP3 DUP8 ADD PUSH2 0xEB7 JUMP JUMPDEST SWAP2 POP POP SWAP3 POP SWAP3 POP SWAP3 JUMP JUMPDEST PUSH1 0x0 DUP2 ISZERO ISZERO SWAP1 POP SWAP2 SWAP1 POP JUMP JUMPDEST PUSH2 0x1085 DUP2 PUSH2 0x1070 JUMP JUMPDEST DUP3 MSTORE POP POP JUMP JUMPDEST PUSH1 0x0 PUSH1 0x20 DUP3 ADD SWAP1 POP PUSH2 0x10A0 PUSH1 0x0 DUP4 ADD DUP5 PUSH2 0x107C JUMP JUMPDEST SWAP3 SWAP2 POP POP JUMP JUMPDEST PUSH1 0x0 DUP2 MLOAD SWAP1 POP SWAP2 SWAP1 POP JUMP JUMPDEST PUSH1 0x0 DUP3 DUP3 MSTORE PUSH1 0x20 DUP3 ADD SWAP1 POP SWAP3 SWAP2 POP POP JUMP JUMPDEST PUSH1 0x0 DUP2 SWAP1 POP PUSH1 0x20 DUP3 ADD SWAP1 POP SWAP2 SWAP1 POP JUMP JUMPDEST PUSH1 0x0 DUP3 DUP3 MSTORE PUSH1 0x20 DUP3 ADD SWAP1 POP SWAP3 SWAP2 POP POP JUMP JUMPDEST PUSH1 0x0 PUSH2 0x10EE DUP3 PUSH2 0xEF9 JUMP JUMPDEST PUSH2 0x10F8 DUP2 DUP6 PUSH2 0x10D2 JUMP JUMPDEST SWAP4 POP PUSH2 0x1108 DUP2 DUP6 PUSH1 0x20 DUP7 ADD PUSH2 0xF15 JUMP JUMPDEST PUSH2 0x1111 DUP2 PUSH2 0xF3F JUMP JUMPDEST DUP5 ADD SWAP2 POP POP SWAP3 SWAP2 POP POP JUMP JUMPDEST PUSH1 0x0 PUSH2 0x1128 DUP4 DUP4 PUSH2 0x10E3 JUMP JUMPDEST SWAP1 POP SWAP3 SWAP2 POP POP JUMP JUMPDEST PUSH1 0x0 PUSH1 0x20 DUP3 ADD SWAP1 POP SWAP2 SWAP1 POP JUMP JUMPDEST PUSH1 0x0 PUSH2 0x1148 DUP3 PUSH2 0x10A6 JUMP JUMPDEST PUSH2 0x1152 DUP2 DUP6 PUSH2 0x10B1 JUMP JUMPDEST SWAP4 POP DUP4 PUSH1 0x20 DUP3 MUL DUP6 ADD PUSH2 0x1164 DUP6 PUSH2 0x10C2 JUMP JUMPDEST DUP1 PUSH1 0x0 JUMPDEST DUP6 DUP2 LT ISZERO PUSH2 0x11A0 JUMPI DUP5 DUP5 SUB DUP10 MSTORE DUP2 MLOAD PUSH2 0x1181 DUP6 DUP3 PUSH2 0x111C JUMP JUMPDEST SWAP5 POP PUSH2 0x118C DUP4 PUSH2 0x1130 JUMP JUMPDEST SWAP3 POP PUSH1 0x20 DUP11 ADD SWAP10 POP POP PUSH1 0x1 DUP2 ADD SWAP1 POP PUSH2 0x1168 JUMP JUMPDEST POP DUP3 SWAP8 POP DUP8 SWAP6 POP POP POP POP POP POP SWAP3 SWAP2 POP POP JUMP JUMPDEST PUSH1 0x0 PUSH1 0x20 DUP3 ADD SWAP1 POP DUP2 DUP2 SUB PUSH1 0x0 DUP4 ADD MSTORE PUSH2 0x11CC DUP2 DUP5 PUSH2 0x113D JUMP JUMPDEST SWAP1 POP SWAP3 SWAP2 POP POP JUMP JUMPDEST PUSH1 0x0 DUP1 PUSH1 0x20 DUP4 DUP6 SUB SLT ISZERO PUSH2 0x11EB JUMPI PUSH2 0x11EA PUSH2 0xE64 JUMP JUMPDEST JUMPDEST PUSH1 0x0 DUP4 ADD CALLDATALOAD PUSH8 0xFFFFFFFFFFFFFFFF DUP2 GT ISZERO PUSH2 0x1209 JUMPI PUSH2 0x1208 PUSH2 0xE69 JUMP JUMPDEST JUMPDEST PUSH2 0x1215 DUP6 DUP3 DUP7 ADD PUSH2 0xFBA JUMP JUMPDEST SWAP3 POP SWAP3 POP POP SWAP3 POP SWAP3 SWAP1 POP JUMP JUMPDEST PUSH2 0x122A DUP2 PUSH2 0xE8E JUMP JUMPDEST DUP3 MSTORE POP POP JUMP JUMPDEST PUSH1 0x0 PUSH1 0x20 DUP3 ADD SWAP1 POP PUSH2 0x1245 PUSH1 0x0 DUP4 ADD DUP5 PUSH2 0x1221 JUMP JUMPDEST SWAP3 SWAP2 POP POP JUMP JUMPDEST PUSH32 0x4E487B7100000000000000000000000000000000000000000000000000000000 PUSH1 0x0 MSTORE PUSH1 0x22 PUSH1 0x4 MSTORE PUSH1 0x24 PUSH1 0x0 REVERT JUMPDEST PUSH1 0x0 PUSH1 0x2 DUP3 DIV SWAP1 POP PUSH1 0x1 DUP3 AND DUP1 PUSH2 0x1292 JUMPI PUSH1 0x7F DUP3 AND SWAP2 POP JUMPDEST PUSH1 0x20 DUP3 LT DUP2 SUB PUSH2 0x12A5 JUMPI PUSH2 0x12A4 PUSH2 0x124B JUMP JUMPDEST JUMPDEST POP SWAP2 SWAP1 POP JUMP JUMPDEST PUSH1 0x0 DUP2 MLOAD SWAP1 POP PUSH2 0x12BA DUP2 PUSH2 0xEA0 JUMP JUMPDEST SWAP3 SWAP2 POP POP JUMP JUMPDEST PUSH1 0x0 PUSH1 0x20 DUP3 DUP5 SUB SLT ISZERO PUSH2 0x12D6 JUMPI PUSH2 0x12D5 PUSH2 0xE64 JUMP JUMPDEST JUMPDEST PUSH1 0x0 PUSH2 0x12E4 DUP5 DUP3 DUP6 ADD PUSH2 0x12AB JUMP JUMPDEST SWAP2 POP POP SWAP3 SWAP2 POP POP JUMP JUMPDEST PUSH32 0x4F776E6572206F6E6C7900000000000000000000000000000000000000000000 PUSH1 0x0 DUP3 ADD MSTORE POP JUMP JUMPDEST PUSH1 0x0 PUSH2 0x1323 PUSH1 0xA DUP4 PUSH2 0xF04 JUMP JUMPDEST SWAP2 POP PUSH2 0x132E DUP3 PUSH2 0x12ED JUMP JUMPDEST PUSH1 0x20 DUP3 ADD SWAP1 POP SWAP2 SWAP1 POP JUMP JUMPDEST PUSH1 0x0 PUSH1 0x20 DUP3 ADD SWAP1 POP DUP2 DUP2 SUB PUSH1 0x0 DUP4 ADD MSTORE PUSH2 0x1352 DUP2 PUSH2 0x1316 JUMP JUMPDEST SWAP1 POP SWAP2 SWAP1 POP JUMP JUMPDEST PUSH1 0x0 DUP2 SWAP1 POP SWAP3 SWAP2 POP POP JUMP JUMPDEST DUP3 DUP2 DUP4 CALLDATACOPY PUSH1 0x0 DUP4 DUP4 ADD MSTORE POP POP POP JUMP JUMPDEST PUSH1 0x0 PUSH2 0x137F DUP4 DUP6 PUSH2 0x1359 JUMP JUMPDEST SWAP4 POP PUSH2 0x138C DUP4 DUP6 DUP5 PUSH2 0x1364 JUMP JUMPDEST DUP3 DUP5 ADD SWAP1 POP SWAP4 SWAP3 POP POP POP JUMP JUMPDEST PUSH1 0x0 PUSH2 0x13A5 DUP3 DUP5 DUP7 PUSH2 0x1373 JUMP JUMPDEST SWAP2 POP DUP2 SWAP1 POP SWAP4 SWAP3 POP POP POP JUMP JUMPDEST PUSH32 0x53796D626F6C20616C7265616479207573656400000000000000000000000000 PUSH1 0x0 DUP3 ADD MSTORE POP JUMP JUMPDEST PUSH1 0x0 PUSH2 0x13E7 PUSH1 0x13 DUP4 PUSH2 0xF04 JUMP JUMPDEST SWAP2 POP PUSH2 0x13F2 DUP3 PUSH2 0x13B1 JUMP JUMPDEST PUSH1 0x20 DUP3 ADD SWAP1 POP SWAP2 SWAP1 POP JUMP JUMPDEST PUSH1 0x0 PUSH1 0x20 DUP3 ADD SWAP1 POP DUP2 DUP2 SUB PUSH1 0x0 DUP4 ADD MSTORE PUSH2 0x1416 DUP2 PUSH2 0x13DA JUMP JUMPDEST SWAP1 POP SWAP2 SWAP1 POP JUMP JUMPDEST POP JUMP JUMPDEST PUSH1 0x0 PUSH2 0x142D PUSH1 0x0 DUP4 PUSH2 0x1359 JUMP JUMPDEST SWAP2 POP PUSH2 0x1438 DUP3 PUSH2 0x141D JUMP JUMPDEST PUSH1 0x0 DUP3 ADD SWAP1 POP SWAP2 SWAP1 POP JUMP JUMPDEST PUSH1 0x0 PUSH2 0x144E DUP3 PUSH2 0x1420 JUMP JUMPDEST SWAP2 POP DUP2 SWAP1 POP SWAP2 SWAP1 POP JUMP JUMPDEST PUSH1 0x0 DUP2 SWAP1 POP DUP2 PUSH1 0x0 MSTORE PUSH1 0x20 PUSH1 0x0 KECCAK256 SWAP1 POP SWAP2 SWAP1 POP JUMP JUMPDEST PUSH1 0x0 DUP2 SLOAD PUSH2 0x147A DUP2 PUSH2 0x127A JUMP JUMPDEST PUSH2 0x1484 DUP2 DUP7 PUSH2 0x1359 JUMP JUMPDEST SWAP5 POP PUSH1 0x1 DUP3 AND PUSH1 0x0 DUP2 EQ PUSH2 0x149F JUMPI PUSH1 0x1 DUP2 EQ PUSH2 0x14B4 JUMPI PUSH2 0x14E7 JUMP JUMPDEST PUSH1 0xFF NOT DUP4 AND DUP7 MSTORE DUP2 ISZERO ISZERO DUP3 MUL DUP7 ADD SWAP4 POP PUSH2 0x14E7 JUMP JUMPDEST PUSH2 0x14BD DUP6 PUSH2 0x1458 JUMP JUMPDEST PUSH1 0x0 JUMPDEST DUP4 DUP2 LT ISZERO PUSH2 0x14DF JUMPI DUP2 SLOAD DUP2 DUP10 ADD MSTORE PUSH1 0x1 DUP3 ADD SWAP2 POP PUSH1 0x20 DUP2 ADD SWAP1 POP PUSH2 0x14C0 JUMP JUMPDEST DUP4 DUP9 ADD SWAP6 POP POP POP JUMPDEST POP POP POP SWAP3 SWAP2 POP POP JUMP JUMPDEST PUSH1 0x0 PUSH2 0x14FC DUP3 DUP5 PUSH2 0x146D JUMP JUMPDEST SWAP2 POP DUP2 SWAP1 POP SWAP3 SWAP2 POP POP JUMP JUMPDEST PUSH32 0x4164647265737320616C72656164792075736564000000000000000000000000 PUSH1 0x0 DUP3 ADD MSTORE POP JUMP JUMPDEST PUSH1 0x0 PUSH2 0x153D PUSH1 0x14 DUP4 PUSH2 0xF04 JUMP JUMPDEST SWAP2 POP PUSH2 0x1548 DUP3 PUSH2 0x1507 JUMP JUMPDEST PUSH1 0x20 DUP3 ADD SWAP1 POP SWAP2 SWAP1 POP JUMP JUMPDEST PUSH1 0x0 PUSH1 0x20 DUP3 ADD SWAP1 POP DUP2 DUP2 SUB PUSH1 0x0 DUP4 ADD MSTORE PUSH2 0x156C DUP2 PUSH2 0x1530 JUMP JUMPDEST SWAP1 POP SWAP2 SWAP1 POP JUMP JUMPDEST PUSH32 0x4E6F74206120636F6E7472616374000000000000000000000000000000000000 PUSH1 0x0 DUP3 ADD MSTORE POP JUMP JUMPDEST PUSH1 0x0 PUSH2 0x15A9 PUSH1 0xE DUP4 PUSH2 0xF04 JUMP JUMPDEST SWAP2 POP PUSH2 0x15B4 DUP3 PUSH2 0x1573 JUMP JUMPDEST PUSH1 0x20 DUP3 ADD SWAP1 POP SWAP2 SWAP1 POP JUMP JUMPDEST PUSH1 0x0 PUSH1 0x20 DUP3 ADD SWAP1 POP DUP2 DUP2 SUB PUSH1 0x0 DUP4 ADD MSTORE PUSH2 0x15D8 DUP2 PUSH2 0x159C JUMP JUMPDEST SWAP1 POP SWAP2 SWAP1 POP JUMP JUMPDEST PUSH1 0x0 DUP1 REVERT JUMPDEST PUSH32 0x4E487B7100000000000000000000000000000000000000000000000000000000 PUSH1 0x0 MSTORE PUSH1 0x41 PUSH1 0x4 MSTORE PUSH1 0x24 PUSH1 0x0 REVERT JUMPDEST PUSH2 0x161C DUP3 PUSH2 0xF3F JUMP JUMPDEST DUP2 ADD DUP2 DUP2 LT PUSH8 0xFFFFFFFFFFFFFFFF DUP3 GT OR ISZERO PUSH2 0x163B JUMPI PUSH2 0x163A PUSH2 0x15E4 JUMP JUMPDEST JUMPDEST DUP1 PUSH1 0x40 MSTORE POP POP POP JUMP JUMPDEST PUSH1 0x0 PUSH2 0x164E PUSH2 0xE5A JUMP JUMPDEST SWAP1 POP PUSH2 0x165A DUP3 DUP3 PUSH2 0x1613 JUMP JUMPDEST SWAP2 SWAP1 POP JUMP JUMPDEST PUSH1 0x0 PUSH8 0xFFFFFFFFFFFFFFFF DUP3 GT ISZERO PUSH2 0x167A JUMPI PUSH2 0x1679 PUSH2 0x15E4 JUMP JUMPDEST JUMPDEST PUSH2 0x1683 DUP3 PUSH2 0xF3F JUMP JUMPDEST SWAP1 POP PUSH1 0x20 DUP2 ADD SWAP1 POP SWAP2 SWAP1 POP JUMP JUMPDEST PUSH1 0x0 PUSH2 0x16A3 PUSH2 0x169E DUP5 PUSH2 0x165F JUMP JUMPDEST PUSH2 0x1644 JUMP JUMPDEST SWAP1 POP DUP3 DUP2 MSTORE PUSH1 0x20 DUP2 ADD DUP5 DUP5 DUP5 ADD GT ISZERO PUSH2 0x16BF JUMPI PUSH2 0x16BE PUSH2 0x15DF JUMP JUMPDEST JUMPDEST PUSH2 0x16CA DUP5 DUP3 DUP6 PUSH2 0xF15 JUMP JUMPDEST POP SWAP4 SWAP3 POP POP POP JUMP JUMPDEST PUSH1 0x0 DUP3 PUSH1 0x1F DUP4 ADD SLT PUSH2 0x16E7 JUMPI PUSH2 0x16E6 PUSH2 0xFAB JUMP JUMPDEST JUMPDEST DUP2 MLOAD PUSH2 0x16F7 DUP5 DUP3 PUSH1 0x20 DUP7 ADD PUSH2 0x1690 JUMP JUMPDEST SWAP2 POP POP SWAP3 SWAP2 POP POP JUMP JUMPDEST PUSH1 0x0 PUSH1 0x20 DUP3 DUP5 SUB SLT ISZERO PUSH2 0x1716 JUMPI PUSH2 0x1715 PUSH2 0xE64 JUMP JUMPDEST JUMPDEST PUSH1 0x0 DUP3 ADD MLOAD PUSH8 0xFFFFFFFFFFFFFFFF DUP2 GT ISZERO PUSH2 0x1734 JUMPI PUSH2 0x1733 PUSH2 0xE69 JUMP JUMPDEST JUMPDEST PUSH2 0x1740 DUP5 DUP3 DUP6 ADD PUSH2 0x16D2 JUMP JUMPDEST SWAP2 POP POP SWAP3 SWAP2 POP POP JUMP JUMPDEST PUSH1 0x0 PUSH2 0x1754 DUP3 PUSH2 0xEF9 JUMP JUMPDEST PUSH2 0x175E DUP2 DUP6 PUSH2 0x1359 JUMP JUMPDEST SWAP4 POP PUSH2 0x176E DUP2 DUP6 PUSH1 0x20 DUP7 ADD PUSH2 0xF15 JUMP JUMPDEST DUP1 DUP5 ADD SWAP2 POP POP SWAP3 SWAP2 POP POP JUMP JUMPDEST PUSH1 0x0 PUSH2 0x1786 DUP3 DUP5 PUSH2 0x1749 JUMP JUMPDEST SWAP2 POP DUP2 SWAP1 POP SWAP3 SWAP2 POP POP JUMP JUMPDEST PUSH32 0x53796D626F6C73206D69736D6174636800000000000000000000000000000000 PUSH1 0x0 DUP3 ADD MSTORE POP JUMP JUMPDEST PUSH1 0x0 PUSH2 0x17C7 PUSH1 0x10 DUP4 PUSH2 0xF04 JUMP JUMPDEST SWAP2 POP PUSH2 0x17D2 DUP3 PUSH2 0x1791 JUMP JUMPDEST PUSH1 0x20 DUP3 ADD SWAP1 POP SWAP2 SWAP1 POP JUMP JUMPDEST PUSH1 0x0 PUSH1 0x20 DUP3 ADD SWAP1 POP DUP2 DUP2 SUB PUSH1 0x0 DUP4 ADD MSTORE PUSH2 0x17F6 DUP2 PUSH2 0x17BA JUMP JUMPDEST SWAP1 POP SWAP2 SWAP1 POP JUMP JUMPDEST PUSH32 0x5061796D656E742E537761700000000000000000000000000000000000000000 PUSH1 0x0 DUP3 ADD MSTORE POP JUMP JUMPDEST PUSH1 0x0 PUSH2 0x1833 PUSH1 0xC DUP4 PUSH2 0xF04 JUMP JUMPDEST SWAP2 POP PUSH2 0x183E DUP3 PUSH2 0x17FD JUMP JUMPDEST PUSH1 0x20 DUP3 ADD SWAP1 POP SWAP2 SWAP1 POP JUMP JUMPDEST PUSH1 0x0 PUSH1 0x20 DUP3 ADD SWAP1 POP DUP2 DUP2 SUB PUSH1 0x0 DUP4 ADD MSTORE PUSH2 0x1862 DUP2 PUSH2 0x1826 JUMP JUMPDEST SWAP1 POP SWAP2 SWAP1 POP JUMP JUMPDEST PUSH1 0x0 PUSH8 0xFFFFFFFFFFFFFFFF DUP3 GT ISZERO PUSH2 0x1884 JUMPI PUSH2 0x1883 PUSH2 0x15E4 JUMP JUMPDEST JUMPDEST PUSH1 0x20 DUP3 MUL SWAP1 POP PUSH1 0x20 DUP2 ADD SWAP1 POP SWAP2 SWAP1 POP JUMP JUMPDEST PUSH1 0x0 DUP2 SWAP1 POP SWAP2 SWAP1 POP JUMP JUMPDEST PUSH2 0x18A8 DUP2 PUSH2 0x1895 JUMP JUMPDEST DUP2 EQ PUSH2 0x18B3 JUMPI PUSH1 0x0 DUP1 REVERT JUMPDEST POP JUMP JUMPDEST PUSH1 0x0 DUP2 MLOAD SWAP1 POP PUSH2 0x18C5 DUP2 PUSH2 0x189F JUMP JUMPDEST SWAP3 SWAP2 POP POP JUMP JUMPDEST PUSH1 0x0 PUSH2 0x18DE PUSH2 0x18D9 DUP5 PUSH2 0x1869 JUMP JUMPDEST PUSH2 0x1644 JUMP JUMPDEST SWAP1 POP DUP1 DUP4 DUP3 MSTORE PUSH1 0x20 DUP3 ADD SWAP1 POP PUSH1 0x20 DUP5 MUL DUP4 ADD DUP6 DUP2 GT ISZERO PUSH2 0x1901 JUMPI PUSH2 0x1900 PUSH2 0xFB5 JUMP JUMPDEST JUMPDEST DUP4 JUMPDEST DUP2 DUP2 LT ISZERO PUSH2 0x192A JUMPI DUP1 PUSH2 0x1916 DUP9 DUP3 PUSH2 0x18B6 JUMP JUMPDEST DUP5 MSTORE PUSH1 0x20 DUP5 ADD SWAP4 POP POP PUSH1 0x20 DUP2 ADD SWAP1 POP PUSH2 0x1903 JUMP JUMPDEST POP POP POP SWAP4 SWAP3 POP POP POP JUMP JUMPDEST PUSH1 0x0 DUP3 PUSH1 0x1F DUP4 ADD SLT PUSH2 0x1949 JUMPI PUSH2 0x1948 PUSH2 0xFAB JUMP JUMPDEST JUMPDEST DUP2 MLOAD PUSH2 0x1959 DUP5 DUP3 PUSH1 0x20 DUP7 ADD PUSH2 0x18CB JUMP JUMPDEST SWAP2 POP POP SWAP3 SWAP2 POP POP JUMP JUMPDEST PUSH1 0x0 PUSH1 0x20 DUP3 DUP5 SUB SLT ISZERO PUSH2 0x1978 JUMPI PUSH2 0x1977 PUSH2 0xE64 JUMP JUMPDEST JUMPDEST PUSH1 0x0 DUP3 ADD MLOAD PUSH8 0xFFFFFFFFFFFFFFFF DUP2 GT ISZERO PUSH2 0x1996 JUMPI PUSH2 0x1995 PUSH2 0xE69 JUMP JUMPDEST JUMPDEST PUSH2 0x19A2 DUP5 DUP3 DUP6 ADD PUSH2 0x1934 JUMP JUMPDEST SWAP2 POP POP SWAP3 SWAP2 POP POP JUMP JUMPDEST PUSH32 0x546F6B656E206E6F7420537570706F7274656400000000000000000000000000 PUSH1 0x0 DUP3 ADD MSTORE POP JUMP JUMPDEST PUSH1 0x0 PUSH2 0x19E1 PUSH1 0x13 DUP4 PUSH2 0xF04 JUMP JUMPDEST SWAP2 POP PUSH2 0x19EC DUP3 PUSH2 0x19AB JUMP JUMPDEST PUSH1 0x20 DUP3 ADD SWAP1 POP SWAP2 SWAP1 POP JUMP JUMPDEST PUSH1 0x0 PUSH1 0x20 DUP3 ADD SWAP1 POP DUP2 DUP2 SUB PUSH1 0x0 DUP4 ADD MSTORE PUSH2 0x1A10 DUP2 PUSH2 0x19D4 JUMP JUMPDEST SWAP1 POP SWAP2 SWAP1 POP JUMP JUMPDEST PUSH1 0x0 DUP3 SWAP1 POP SWAP3 SWAP2 POP POP JUMP JUMPDEST PUSH1 0x0 PUSH1 0x20 PUSH1 0x1F DUP4 ADD DIV SWAP1 POP SWAP2 SWAP1 POP JUMP JUMPDEST PUSH1 0x0 DUP3 DUP3 SHL SWAP1 POP SWAP3 SWAP2 POP POP JUMP JUMPDEST PUSH1 0x0 PUSH1 0x8 DUP4 MUL PUSH2 0x1A6F PUSH32 0xFFFFFFFFFFFFFFFFFFFFFFFFFFFFFFFFFFFFFFFFFFFFFFFFFFFFFFFFFFFFFFFF DUP3 PUSH2 0x1A32 JUMP JUMPDEST PUSH2 0x1A79 DUP7 DUP4 PUSH2 0x1A32 JUMP JUMPDEST SWAP6 POP DUP1 NOT DUP5 AND SWAP4 POP DUP1 DUP7 AND DUP5 OR SWAP3 POP POP POP SWAP4 SWAP3 POP POP POP JUMP JUMPDEST PUSH1 0x0 DUP2 SWAP1 POP SWAP2 SWAP1 POP JUMP JUMPDEST PUSH1 0x0 PUSH2 0x1AB6 PUSH2 0x1AB1 PUSH2 0x1AAC DUP5 PUSH2 0x1895 JUMP JUMPDEST PUSH2 0x1A91 JUMP JUMPDEST PUSH2 0x1895 JUMP JUMPDEST SWAP1 POP SWAP2 SWAP1 POP JUMP JUMPDEST PUSH1 0x0 DUP2 SWAP1 POP SWAP2 SWAP1 POP JUMP JUMPDEST PUSH2 0x1AD0 DUP4 PUSH2 0x1A9B JUMP JUMPDEST PUSH2 0x1AE4 PUSH2 0x1ADC DUP3 PUSH2 0x1ABD JUMP JUMPDEST DUP5 DUP5 SLOAD PUSH2 0x1A3F JUMP JUMPDEST DUP3 SSTORE POP POP POP POP JUMP JUMPDEST PUSH1 0x0 SWAP1 JUMP JUMPDEST PUSH2 0x1AF9 PUSH2 0x1AEC JUMP JUMPDEST PUSH2 0x1B04 DUP2 DUP5 DUP5 PUSH2 0x1AC7 JUMP JUMPDEST POP POP POP JUMP JUMPDEST JUMPDEST DUP2 DUP2 LT ISZERO PUSH2 0x1B28 JUMPI PUSH2 0x1B1D PUSH1 0x0 DUP3 PUSH2 0x1AF1 JUMP JUMPDEST PUSH1 0x1 DUP2 ADD SWAP1 POP PUSH2 0x1B0A JUMP JUMPDEST POP POP JUMP JUMPDEST PUSH1 0x1F DUP3 GT ISZERO PUSH2 0x1B6D JUMPI PUSH2 0x1B3E DUP2 PUSH2 0x1458 JUMP JUMPDEST PUSH2 0x1B47 DUP5 PUSH2 0x1A22 JUMP JUMPDEST DUP2 ADD PUSH1 0x20 DUP6 LT ISZERO PUSH2 0x1B56 JUMPI DUP2 SWAP1 POP JUMPDEST PUSH2 0x1B6A PUSH2 0x1B62 DUP6 PUSH2 0x1A22 JUMP JUMPDEST DUP4 ADD DUP3 PUSH2 0x1B09 JUMP JUMPDEST POP POP JUMPDEST POP POP POP JUMP JUMPDEST PUSH1 0x0 DUP3 DUP3 SHR SWAP1 POP SWAP3 SWAP2 POP POP JUMP JUMPDEST PUSH1 0x0 PUSH2 0x1B90 PUSH1 0x0 NOT DUP5 PUSH1 0x8 MUL PUSH2 0x1B72 JUMP JUMPDEST NOT DUP1 DUP4 AND SWAP2 POP POP SWAP3 SWAP2 POP POP JUMP JUMPDEST PUSH1 0x0 PUSH2 0x1BA9 DUP4 DUP4 PUSH2 0x1B7F JUMP JUMPDEST SWAP2 POP DUP3 PUSH1 0x2 MUL DUP3 OR SWAP1 POP SWAP3 SWAP2 POP POP JUMP JUMPDEST PUSH2 0x1BC3 DUP4 DUP4 PUSH2 0x1A17 JUMP JUMPDEST PUSH8 0xFFFFFFFFFFFFFFFF DUP2 GT ISZERO PUSH2 0x1BDC JUMPI PUSH2 0x1BDB PUSH2 0x15E4 JUMP JUMPDEST JUMPDEST PUSH2 0x1BE6 DUP3 SLOAD PUSH2 0x127A JUMP JUMPDEST PUSH2 0x1BF1 DUP3 DUP3 DUP6 PUSH2 0x1B2C JUMP JUMPDEST PUSH1 0x0 PUSH1 0x1F DUP4 GT PUSH1 0x1 DUP2 EQ PUSH2 0x1C20 JUMPI PUSH1 0x0 DUP5 ISZERO PUSH2 0x1C0E JUMPI DUP3 DUP8 ADD CALLDATALOAD SWAP1 POP JUMPDEST PUSH2 0x1C18 DUP6 DUP3 PUSH2 0x1B9D JUMP JUMPDEST DUP7 SSTORE POP PUSH2 0x1C80 JUMP JUMPDEST PUSH1 0x1F NOT DUP5 AND PUSH2 0x1C2E DUP7 PUSH2 0x1458 JUMP JUMPDEST PUSH1 0x0 JUMPDEST DUP3 DUP2 LT ISZERO PUSH2 0x1C56 JUMPI DUP5 DUP10 ADD CALLDATALOAD DUP3 SSTORE PUSH1 0x1 DUP3 ADD SWAP2 POP PUSH1 0x20 DUP6 ADD SWAP5 POP PUSH1 0x20 DUP2 ADD SWAP1 POP PUSH2 0x1C31 JUMP JUMPDEST DUP7 DUP4 LT ISZERO PUSH2 0x1C73 JUMPI DUP5 DUP10 ADD CALLDATALOAD PUSH2 0x1C6F PUSH1 0x1F DUP10 AND DUP3 PUSH2 0x1B7F JUMP JUMPDEST DUP4 SSTORE POP JUMPDEST PUSH1 0x1 PUSH1 0x2 DUP9 MUL ADD DUP9 SSTORE POP POP POP JUMPDEST POP POP POP POP POP POP POP JUMP JUMPDEST PUSH1 0x0 PUSH2 0x1C95 DUP4 DUP6 PUSH2 0xF04 JUMP JUMPDEST SWAP4 POP PUSH2 0x1CA2 DUP4 DUP6 DUP5 PUSH2 0x1364 JUMP JUMPDEST PUSH2 0x1CAB DUP4 PUSH2 0xF3F JUMP JUMPDEST DUP5 ADD SWAP1 POP SWAP4 SWAP3 POP POP POP JUMP JUMPDEST PUSH1 0x0 PUSH1 0x40 DUP3 ADD SWAP1 POP DUP2 DUP2 SUB PUSH1 0x0 DUP4 ADD MSTORE PUSH2 0x1CD1 DUP2 DUP6 DUP8 PUSH2 0x1C89 JUMP JUMPDEST SWAP1 POP PUSH2 0x1CE0 PUSH1 0x20 DUP4 ADD DUP5 PUSH2 0x1221 JUMP JUMPDEST SWAP5 SWAP4 POP POP POP POP JUMP JUMPDEST PUSH32 0x53796D626F6C206E6F7420757365640000000000000000000000000000000000 PUSH1 0x0 DUP3 ADD MSTORE POP JUMP JUMPDEST PUSH1 0x0 PUSH2 0x1D1E PUSH1 0xF DUP4 PUSH2 0xF04 JUMP JUMPDEST SWAP2 POP PUSH2 0x1D29 DUP3 PUSH2 0x1CE8 JUMP JUMPDEST PUSH1 0x20 DUP3 ADD SWAP1 POP SWAP2 SWAP1 POP JUMP JUMPDEST PUSH1 0x0 PUSH1 0x20 DUP3 ADD SWAP1 POP DUP2 DUP2 SUB PUSH1 0x0 DUP4 ADD MSTORE PUSH2 0x1D4D DUP2 PUSH2 0x1D11 JUMP JUMPDEST SWAP1 POP SWAP2 SWAP1 POP JUMP JUMPDEST PUSH32 0x4E487B7100000000000000000000000000000000000000000000000000000000 PUSH1 0x0 MSTORE PUSH1 0x32 PUSH1 0x4 MSTORE PUSH1 0x24 PUSH1 0x0 REVERT JUMPDEST PUSH32 0x4E487B7100000000000000000000000000000000000000000000000000000000 PUSH1 0x0 MSTORE PUSH1 0x11 PUSH1 0x4 MSTORE PUSH1 0x24 PUSH1 0x0 REVERT JUMPDEST PUSH1 0x0 PUSH2 0x1DBD DUP3 PUSH2 0x1895 JUMP JUMPDEST SWAP2 POP PUSH2 0x1DC8 DUP4 PUSH2 0x1895 JUMP JUMPDEST SWAP3 POP DUP3 DUP3 SUB SWAP1 POP DUP2 DUP2 GT ISZERO PUSH2 0x1DE0 JUMPI PUSH2 0x1DDF PUSH2 0x1D83 JUMP JUMPDEST JUMPDEST SWAP3 SWAP2 POP POP JUMP JUMPDEST PUSH1 0x0 DUP2 SLOAD SWAP1 POP PUSH2 0x1DF5 DUP2 PUSH2 0x127A JUMP JUMPDEST SWAP1 POP SWAP2 SWAP1 POP JUMP JUMPDEST PUSH1 0x0 DUP2 SWAP1 POP DUP2 PUSH1 0x0 MSTORE PUSH1 0x20 PUSH1 0x0 KECCAK256 SWAP1 POP SWAP2 SWAP1 POP JUMP JUMPDEST DUP2 DUP2 SUB PUSH2 0x1E1F JUMPI POP POP PUSH2 0x1EF7 JUMP JUMPDEST PUSH2 0x1E28 DUP3 PUSH2 0x1DE6 JUMP JUMPDEST PUSH8 0xFFFFFFFFFFFFFFFF DUP2 GT ISZERO PUSH2 0x1E41 JUMPI PUSH2 0x1E40 PUSH2 0x15E4 JUMP JUMPDEST JUMPDEST PUSH2 0x1E4B DUP3 SLOAD PUSH2 0x127A JUMP JUMPDEST PUSH2 0x1E56 DUP3 DUP3 DUP6 PUSH2 0x1B2C JUMP JUMPDEST PUSH1 0x0 PUSH1 0x1F DUP4 GT PUSH1 0x1 DUP2 EQ PUSH2 0x1E85 JUMPI PUSH1 0x0 DUP5 ISZERO PUSH2 0x1E73 JUMPI DUP3 DUP8 ADD SLOAD SWAP1 POP JUMPDEST PUSH2 0x1E7D DUP6 DUP3 PUSH2 0x1B9D JUMP JUMPDEST DUP7 SSTORE POP PUSH2 0x1EF0 JUMP JUMPDEST PUSH1 0x1F NOT DUP5 AND PUSH2 0x1E93 DUP8 PUSH2 0x1DFC JUMP JUMPDEST SWAP7 POP PUSH2 0x1E9E DUP7 PUSH2 0x1458 JUMP JUMPDEST PUSH1 0x0 JUMPDEST DUP3 DUP2 LT ISZERO PUSH2 0x1EC6 JUMPI DUP5 DUP10 ADD SLOAD DUP3 SSTORE PUSH1 0x1 DUP3 ADD SWAP2 POP PUSH1 0x1 DUP6 ADD SWAP5 POP PUSH1 0x20 DUP2 ADD SWAP1 POP PUSH2 0x1EA1 JUMP JUMPDEST DUP7 DUP4 LT ISZERO PUSH2 0x1EE3 JUMPI DUP5 DUP10 ADD SLOAD PUSH2 0x1EDF PUSH1 0x1F DUP10 AND DUP3 PUSH2 0x1B7F JUMP JUMPDEST DUP4 SSTORE POP JUMPDEST PUSH1 0x1 PUSH1 0x2 DUP9 MUL ADD DUP9 SSTORE POP POP POP JUMPDEST POP POP POP POP POP POP JUMPDEST JUMP JUMPDEST PUSH1 0x0 PUSH2 0x1F04 DUP3 PUSH2 0x1895 JUMP JUMPDEST SWAP2 POP PUSH32 0xFFFFFFFFFFFFFFFFFFFFFFFFFFFFFFFFFFFFFFFFFFFFFFFFFFFFFFFFFFFFFFFF DUP3 SUB PUSH2 0x1F36 JUMPI PUSH2 0x1F35 PUSH2 0x1D83 JUMP JUMPDEST JUMPDEST PUSH1 0x1 DUP3 ADD SWAP1 POP SWAP2 SWAP1 POP JUMP JUMPDEST PUSH32 0x4E487B7100000000000000000000000000000000000000000000000000000000 PUSH1 0x0 MSTORE PUSH1 0x31 PUSH1 0x4 MSTORE PUSH1 0x24 PUSH1 0x0 REVERT JUMPDEST PUSH1 0x0 PUSH1 0x20 DUP3 ADD SWAP1 POP DUP2 DUP2 SUB PUSH1 0x0 DUP4 ADD MSTORE PUSH2 0x1F8B DUP2 DUP5 DUP7 PUSH2 0x1C89 JUMP JUMPDEST SWAP1 POP SWAP4 SWAP3 POP POP POP JUMP INVALID LOG2 PUSH5 0x6970667358 0x22 SLT KECCAK256 SELFDESTRUCT PUSH2 0xBF52 BALANCE EQ PUSH11 0xEFCC475513E2D3DD622829 PUSH19 0x56863BF25F288C9C0795854EC364736F6C6343 STOP ADDMOD SLT STOP CALLER "
				},
				"gasEstimates": {
					"creation": {
						"codeDepositCost": "1627600",
						"executionCost": "1708",
						"totalCost": "1629308"
					},
					"external": {
						"": "223",
						"AddCurrency(string,address)": "infinite",
						"CurrencyList()": "infinite",
						"GetAddress(string)": "infinite",
						"GetSymbol(address)": "infinite",
						"Name()": "infinite",
						"RemoveCurrency(string)": "infinite"
					}
				},
				"methodIdentifiers": {
					"AddCurrency(string,address)": "6080e7ff",
					"CurrencyList()": "67ac4450",
					"GetAddress(string)": "8b05f6de",
					"GetSymbol(address)": "1d64f872",
					"Name()": "8052474d",
					"RemoveCurrency(string)": "8e9497d2"
				}
			},
			"storageLayout": {
				"storage": [
					{
						"astId": 78,
						"contract": "Payment/Currencies.sol:Currencies",
						"label": "symbolToAddress",
						"offset": 0,
						"slot": "0",
						"type": "t_mapping(t_string_memory_ptr,t_address)"
					},
					{
						"astId": 82,
						"contract": "Payment/Currencies.sol:Currencies",
						"label": "addressToSymbol",
						"offset": 0,
						"slot": "1",
						"type": "t_mapping(t_address,t_string_storage)"
					},
					{
						"astId": 85,
						"contract": "Payment/Currencies.sol:Currencies",
						"label": "currencies",
						"offset": 0,
						"slot": "2",
						"type": "t_array(t_string_storage)dyn_storage"
					}
				],
				"types": {
					"t_address": {
						"encoding": "inplace",
						"label": "address",
						"numberOfBytes": "20"
					},
					"t_array(t_string_storage)dyn_storage": {
						"base": "t_string_storage",
						"encoding": "dynamic_array",
						"label": "string[]",
						"numberOfBytes": "32"
					},
					"t_mapping(t_address,t_string_storage)": {
						"encoding": "mapping",
						"key": "t_address",
						"label": "mapping(address => string)",
						"numberOfBytes": "32",
						"value": "t_string_storage"
					},
					"t_mapping(t_string_memory_ptr,t_address)": {
						"encoding": "mapping",
						"key": "t_string_memory_ptr",
						"label": "mapping(string => address)",
						"numberOfBytes": "32",
						"value": "t_address"
					},
					"t_string_memory_ptr": {
						"encoding": "bytes",
						"label": "string",
						"numberOfBytes": "32"
					},
					"t_string_storage": {
						"encoding": "bytes",
						"label": "string",
						"numberOfBytes": "32"
					}
				}
			},
			"userdoc": {
				"kind": "user",
				"methods": {},
				"version": 1
			}
		}
	}
}