{
	"Payment/Swap.sol": {
		"Swap": {
			"abi": [
				{
					"stateMutability": "nonpayable",
					"type": "fallback"
				},
				{
					"inputs": [],
					"name": "Name",
					"outputs": [
						{
							"internalType": "string",
							"name": "",
							"type": "string"
						}
					],
					"stateMutability": "view",
					"type": "function"
				},
				{
					"inputs": [
						{
							"internalType": "address",
							"name": "_token",
							"type": "address"
						}
					],
					"name": "SwapExactMATICForToken",
					"outputs": [
						{
							"internalType": "uint256[]",
							"name": "amounts",
							"type": "uint256[]"
						}
					],
					"stateMutability": "payable",
					"type": "function"
				},
				{
					"inputs": [
						{
							"internalType": "address",
							"name": "_token",
							"type": "address"
						},
						{
							"internalType": "uint256",
							"name": "_amount",
							"type": "uint256"
						}
					],
					"name": "SwapExactTokenForMATIC",
					"outputs": [
						{
							"internalType": "uint256[]",
							"name": "amounts",
							"type": "uint256[]"
						}
					],
					"stateMutability": "nonpayable",
					"type": "function"
				},
				{
					"stateMutability": "payable",
					"type": "receive"
				}
			],
			"devdoc": {
				"kind": "dev",
				"methods": {},
				"version": 1
			},
			"evm": {
				"assembly": "    /* \"Payment/Swap.sol\":745:2486  contract Swap{... */\n  mstore(0x40, 0x80)\n  callvalue\n  dup1\n  iszero\n  tag_1\n  jumpi\n  0x00\n  dup1\n  revert\ntag_1:\n  pop\n  dataSize(sub_0)\n  dup1\n  dataOffset(sub_0)\n  0x00\n  codecopy\n  0x00\n  return\nstop\n\nsub_0: assembly {\n        /* \"Payment/Swap.sol\":745:2486  contract Swap{... */\n      mstore(0x40, 0x80)\n      jumpi(tag_1, lt(calldatasize, 0x04))\n      shr(0xe0, calldataload(0x00))\n      dup1\n      0x469d6d36\n      eq\n      tag_3\n      jumpi\n      dup1\n      0x8052474d\n      eq\n      tag_4\n      jumpi\n      dup1\n      0x846114d5\n      eq\n      tag_5\n      jumpi\n      jump(tag_2)\n    tag_1:\n      jumpi(tag_2, calldatasize)\n        /* \"Payment/Swap.sol\":2397:2405  revert() */\n      0x00\n      dup1\n      revert\n        /* \"Payment/Swap.sol\":745:2486  contract Swap{... */\n    tag_2:\n      callvalue\n      dup1\n      iszero\n      tag_8\n      jumpi\n      0x00\n      dup1\n      revert\n    tag_8:\n        /* \"Payment/Swap.sol\":2462:2470  revert() */\n      0x00\n      dup1\n      revert\n        /* \"Payment/Swap.sol\":1632:2271  function SwapExactTokenForMATIC(address _token, uint256 _amount) external returns (uint[] memory amounts){... */\n    tag_3:\n      callvalue\n      dup1\n      iszero\n      tag_11\n      jumpi\n      0x00\n      dup1\n      revert\n    tag_11:\n      pop\n      tag_12\n      tag_13\n      calldatasize\n      0x04\n      tag_14\n      jump\t// in\n    tag_13:\n      tag_15\n      jump\t// in\n    tag_12:\n      mload(0x40)\n      tag_16\n      swap2\n      swap1\n      tag_17\n      jump\t// in\n    tag_16:\n      mload(0x40)\n      dup1\n      swap2\n      sub\n      swap1\n      return\n        /* \"Payment/Swap.sol\":767:811  string constant public Name = \"Payment.Swap\" */\n    tag_4:\n      callvalue\n      dup1\n      iszero\n      tag_18\n      jumpi\n      0x00\n      dup1\n      revert\n    tag_18:\n      pop\n      tag_19\n      mload(0x40)\n      dup1\n      0x40\n      add\n      0x40\n      mstore\n      dup1\n      0x0c\n      dup2\n      mstore\n      0x20\n      add\n      0x5061796d656e742e537761700000000000000000000000000000000000000000\n      dup2\n      mstore\n      pop\n      dup2\n      jump\n    tag_19:\n      mload(0x40)\n      tag_16\n      swap2\n      swap1\n      tag_22\n      jump\t// in\n        /* \"Payment/Swap.sol\":1306:1628  function SwapExactMATICForToken(address _token) external payable returns (uint[] memory amounts){... */\n    tag_5:\n      tag_12\n      tag_24\n      calldatasize\n      0x04\n      tag_25\n      jump\t// in\n    tag_24:\n      tag_26\n      jump\t// in\n        /* \"Payment/Swap.sol\":1632:2271  function SwapExactTokenForMATIC(address _token, uint256 _amount) external returns (uint[] memory amounts){... */\n    tag_15:\n        /* \"Payment/Swap.sol\":1798:1840  tk.allowance(address(this), routerAddress) */\n      mload(0x40)\n      0xdd62ed3e00000000000000000000000000000000000000000000000000000000\n      dup2\n      mstore\n        /* \"Payment/Swap.sol\":1819:1823  this */\n      address\n        /* \"Payment/Swap.sol\":1798:1840  tk.allowance(address(this), routerAddress) */\n      0x04\n      dup3\n      add\n        /* \"#utility.yul\":2149:2183   */\n      mstore\n        /* \"Payment/Swap.sol\":1109:1151  0xb3eB6c96083F8a3407A3C6a011E807e152448ba0 */\n      0xb3eb6c96083f8a3407a3c6a011e807e152448ba0\n        /* \"#utility.yul\":2199:2217   */\n      0x24\n      dup3\n      add\n        /* \"#utility.yul\":2192:2235   */\n      mstore\n        /* \"Payment/Swap.sol\":1715:1736  uint[] memory amounts */\n      0x60\n      swap1\n        /* \"Payment/Swap.sol\":1779:1785  _token */\n      dup4\n      swap1\n        /* \"Payment/Swap.sol\":1843:1850  _amount */\n      dup4\n      swap1\n        /* \"Payment/Swap.sol\":1798:1810  tk.allowance */\n      0xffffffffffffffffffffffffffffffffffffffff\n      dup4\n      and\n      swap1\n      0xdd62ed3e\n      swap1\n        /* \"#utility.yul\":2061:2079   */\n      0x44\n      add\n        /* \"Payment/Swap.sol\":1798:1840  tk.allowance(address(this), routerAddress) */\n      0x20\n      mload(0x40)\n      dup1\n      dup4\n      sub\n      dup2\n      dup7\n      gas\n      staticcall\n      iszero\n      dup1\n      iszero\n      tag_32\n      jumpi\n      returndatasize\n      0x00\n      dup1\n      returndatacopy\n      revert(0x00, returndatasize)\n    tag_32:\n      pop\n      pop\n      pop\n      pop\n      mload(0x40)\n      returndatasize\n      not(0x1f)\n      0x1f\n      dup3\n      add\n      and\n      dup3\n      add\n      dup1\n      0x40\n      mstore\n      pop\n      dup2\n      add\n      swap1\n      tag_33\n      swap2\n      swap1\n      tag_34\n      jump\t// in\n    tag_33:\n        /* \"Payment/Swap.sol\":1798:1850  tk.allowance(address(this), routerAddress) < _amount */\n      lt\n        /* \"Payment/Swap.sol\":1795:1896  if(tk.allowance(address(this), routerAddress) < _amount)... */\n      iszero\n      tag_35\n      jumpi\n        /* \"Payment/Swap.sol\":1861:1896  tk.approve(routerAddress, 2**256-1) */\n      mload(0x40)\n      0x095ea7b300000000000000000000000000000000000000000000000000000000\n      dup2\n      mstore\n        /* \"Payment/Swap.sol\":1109:1151  0xb3eB6c96083F8a3407A3C6a011E807e152448ba0 */\n      0xb3eb6c96083f8a3407a3c6a011e807e152448ba0\n        /* \"Payment/Swap.sol\":1861:1896  tk.approve(routerAddress, 2**256-1) */\n      0x04\n      dup3\n      add\n        /* \"#utility.yul\":2694:2768   */\n      mstore\n        /* \"Payment/Swap.sol\":1887:1895  2**256-1 */\n      0xffffffffffffffffffffffffffffffffffffffffffffffffffffffffffffffff\n        /* \"#utility.yul\":2784:2802   */\n      0x24\n      dup3\n      add\n        /* \"#utility.yul\":2777:2811   */\n      mstore\n        /* \"Payment/Swap.sol\":1861:1871  tk.approve */\n      0xffffffffffffffffffffffffffffffffffffffff\n      dup3\n      and\n      swap1\n      0x095ea7b3\n      swap1\n        /* \"#utility.yul\":2667:2685   */\n      0x44\n      add\n        /* \"Payment/Swap.sol\":1861:1896  tk.approve(routerAddress, 2**256-1) */\n      0x20\n      mload(0x40)\n      dup1\n      dup4\n      sub\n      dup2\n      0x00\n      dup8\n      gas\n      call\n      iszero\n      dup1\n      iszero\n      tag_39\n      jumpi\n      returndatasize\n      0x00\n      dup1\n      returndatacopy\n      revert(0x00, returndatasize)\n    tag_39:\n      pop\n      pop\n      pop\n      pop\n      mload(0x40)\n      returndatasize\n      not(0x1f)\n      0x1f\n      dup3\n      add\n      and\n      dup3\n      add\n      dup1\n      0x40\n      mstore\n      pop\n      dup2\n      add\n      swap1\n      tag_40\n      swap2\n      swap1\n      tag_41\n      jump\t// in\n    tag_40:\n      pop\n        /* \"Payment/Swap.sol\":1795:1896  if(tk.allowance(address(this), routerAddress) < _amount)... */\n    tag_35:\n        /* \"Payment/Swap.sol\":1908:1947  tk.allowance(msg.sender, address(this)) */\n      mload(0x40)\n      0xdd62ed3e00000000000000000000000000000000000000000000000000000000\n      dup2\n      mstore\n        /* \"Payment/Swap.sol\":1921:1931  msg.sender */\n      caller\n        /* \"Payment/Swap.sol\":1908:1947  tk.allowance(msg.sender, address(this)) */\n      0x04\n      dup3\n      add\n        /* \"#utility.yul\":2149:2183   */\n      mstore\n        /* \"Payment/Swap.sol\":1941:1945  this */\n      address\n        /* \"#utility.yul\":2199:2217   */\n      0x24\n      dup3\n      add\n        /* \"#utility.yul\":2192:2235   */\n      mstore\n        /* \"Payment/Swap.sol\":1950:1957  _amount */\n      dup4\n      swap1\n        /* \"Payment/Swap.sol\":1908:1920  tk.allowance */\n      0xffffffffffffffffffffffffffffffffffffffff\n      dup4\n      and\n      swap1\n      0xdd62ed3e\n      swap1\n        /* \"#utility.yul\":2061:2079   */\n      0x44\n      add\n        /* \"Payment/Swap.sol\":1908:1947  tk.allowance(msg.sender, address(this)) */\n      0x20\n      mload(0x40)\n      dup1\n      dup4\n      sub\n      dup2\n      dup7\n      gas\n      staticcall\n      iszero\n      dup1\n      iszero\n      tag_44\n      jumpi\n      returndatasize\n      0x00\n      dup1\n      returndatacopy\n      revert(0x00, returndatasize)\n    tag_44:\n      pop\n      pop\n      pop\n      pop\n      mload(0x40)\n      returndatasize\n      not(0x1f)\n      0x1f\n      dup3\n      add\n      and\n      dup3\n      add\n      dup1\n      0x40\n      mstore\n      pop\n      dup2\n      add\n      swap1\n      tag_45\n      swap2\n      swap1\n      tag_34\n      jump\t// in\n    tag_45:\n        /* \"Payment/Swap.sol\":1908:1957  tk.allowance(msg.sender, address(this)) < _amount */\n      lt\n        /* \"Payment/Swap.sol\":1905:1995  if(tk.allowance(msg.sender, address(this)) < _amount)... */\n      iszero\n      tag_46\n      jumpi\n        /* \"Payment/Swap.sol\":1968:1995  revert(\"Approval required\") */\n      mload(0x40)\n      0x08c379a000000000000000000000000000000000000000000000000000000000\n      dup2\n      mstore\n        /* \"#utility.yul\":3306:3308   */\n      0x20\n        /* \"Payment/Swap.sol\":1968:1995  revert(\"Approval required\") */\n      0x04\n      dup3\n      add\n        /* \"#utility.yul\":3288:3309   */\n      mstore\n        /* \"#utility.yul\":3345:3347   */\n      0x11\n        /* \"#utility.yul\":3325:3343   */\n      0x24\n      dup3\n      add\n        /* \"#utility.yul\":3318:3348   */\n      mstore\n        /* \"#utility.yul\":3384:3403   */\n      0x417070726f76616c207265717569726564000000000000000000000000000000\n        /* \"#utility.yul\":3364:3382   */\n      0x44\n      dup3\n      add\n        /* \"#utility.yul\":3357:3404   */\n      mstore\n        /* \"#utility.yul\":3421:3439   */\n      0x64\n      add\n        /* \"Payment/Swap.sol\":1968:1995  revert(\"Approval required\") */\n      mload(0x40)\n      dup1\n      swap2\n      sub\n      swap1\n      revert\n        /* \"Payment/Swap.sol\":1905:1995  if(tk.allowance(msg.sender, address(this)) < _amount)... */\n    tag_46:\n        /* \"Payment/Swap.sol\":2004:2055  tk.transferFrom(msg.sender, address(this), _amount) */\n      mload(0x40)\n      0x23b872dd00000000000000000000000000000000000000000000000000000000\n      dup2\n      mstore\n        /* \"Payment/Swap.sol\":2020:2030  msg.sender */\n      caller\n        /* \"Payment/Swap.sol\":2004:2055  tk.transferFrom(msg.sender, address(this), _amount) */\n      0x04\n      dup3\n      add\n        /* \"#utility.yul\":3713:3747   */\n      mstore\n        /* \"Payment/Swap.sol\":2040:2044  this */\n      address\n        /* \"#utility.yul\":3763:3781   */\n      0x24\n      dup3\n      add\n        /* \"#utility.yul\":3756:3799   */\n      mstore\n        /* \"#utility.yul\":3815:3833   */\n      0x44\n      dup2\n      add\n        /* \"#utility.yul\":3808:3842   */\n      dup5\n      swap1\n      mstore\n        /* \"Payment/Swap.sol\":2004:2019  tk.transferFrom */\n      0xffffffffffffffffffffffffffffffffffffffff\n      dup3\n      and\n      swap1\n      0x23b872dd\n      swap1\n        /* \"#utility.yul\":3625:3643   */\n      0x64\n      add\n        /* \"Payment/Swap.sol\":2004:2055  tk.transferFrom(msg.sender, address(this), _amount) */\n      0x20\n      mload(0x40)\n      dup1\n      dup4\n      sub\n      dup2\n      0x00\n      dup8\n      gas\n      call\n      iszero\n      dup1\n      iszero\n      tag_52\n      jumpi\n      returndatasize\n      0x00\n      dup1\n      returndatacopy\n      revert(0x00, returndatasize)\n    tag_52:\n      pop\n      pop\n      pop\n      pop\n      mload(0x40)\n      returndatasize\n      not(0x1f)\n      0x1f\n      dup3\n      add\n      and\n      dup3\n      add\n      dup1\n      0x40\n      mstore\n      pop\n      dup2\n      add\n      swap1\n      tag_53\n      swap2\n      swap1\n      tag_41\n      jump\t// in\n    tag_53:\n      pop\n        /* \"Payment/Swap.sol\":2088:2104  new address[](2) */\n      0x40\n      dup1\n      mload\n        /* \"Payment/Swap.sol\":2102:2103  2 */\n      0x02\n        /* \"Payment/Swap.sol\":2088:2104  new address[](2) */\n      dup1\n      dup3\n      mstore\n      0x60\n      dup3\n      add\n      dup4\n      mstore\n        /* \"Payment/Swap.sol\":2064:2085  address[] memory path */\n      0x00\n      swap3\n        /* \"Payment/Swap.sol\":2088:2104  new address[](2) */\n      0x20\n      dup4\n      add\n      swap1\n      dup1\n      calldatasize\n      dup4\n      calldatacopy\n      add\n      swap1\n      pop\n      pop\n        /* \"Payment/Swap.sol\":2064:2104  address[] memory path = new address[](2) */\n      swap1\n      pop\n        /* \"Payment/Swap.sol\":2121:2127  _token */\n      dup5\n        /* \"Payment/Swap.sol\":2111:2115  path */\n      dup2\n        /* \"Payment/Swap.sol\":2116:2117  0 */\n      0x00\n        /* \"Payment/Swap.sol\":2111:2118  path[0] */\n      dup2\n      mload\n      dup2\n      lt\n      tag_59\n      jumpi\n      tag_59\n      tag_60\n      jump\t// in\n    tag_59:\n      0x20\n      mul\n      0x20\n      add\n      add\n        /* \"Payment/Swap.sol\":2111:2127  path[0] = _token */\n      swap1\n      0xffffffffffffffffffffffffffffffffffffffff\n      and\n      swap1\n      dup2\n      0xffffffffffffffffffffffffffffffffffffffff\n      and\n      dup2\n      mstore\n      pop\n      pop\n        /* \"Payment/Swap.sol\":2144:2186  0x0d500B1d8E8eF31E21C99d1Db9A6444d3ADf1270 */\n      0x0d500b1d8e8ef31e21c99d1db9a6444d3adf1270\n        /* \"Payment/Swap.sol\":2134:2138  path */\n      dup2\n        /* \"Payment/Swap.sol\":2139:2140  1 */\n      0x01\n        /* \"Payment/Swap.sol\":2134:2141  path[1] */\n      dup2\n      mload\n      dup2\n      lt\n      tag_62\n      jumpi\n      tag_62\n      tag_60\n      jump\t// in\n    tag_62:\n        /* \"Payment/Swap.sol\":2134:2186  path[1] = 0x0d500B1d8E8eF31E21C99d1Db9A6444d3ADf1270 */\n      0xffffffffffffffffffffffffffffffffffffffff\n      swap1\n      swap3\n      and\n        /* \"Payment/Swap.sol\":2134:2141  path[1] */\n      0x20\n      swap3\n      dup4\n      mul\n      swap2\n      swap1\n      swap2\n      add\n      swap1\n      swap2\n      add\n        /* \"Payment/Swap.sol\":2134:2186  path[1] = 0x0d500B1d8E8eF31E21C99d1Db9A6444d3ADf1270 */\n      mstore\n        /* \"Payment/Swap.sol\":2202:2266  rt.swapExactTokensForETH(_amount, 0, path, msg.sender, 2**256-1) */\n      mload(0x40)\n      0x18cbafe500000000000000000000000000000000000000000000000000000000\n      dup2\n      mstore\n        /* \"Payment/Swap.sol\":1109:1151  0xb3eB6c96083F8a3407A3C6a011E807e152448ba0 */\n      0xb3eb6c96083f8a3407a3c6a011e807e152448ba0\n      swap1\n        /* \"Payment/Swap.sol\":2202:2226  rt.swapExactTokensForETH */\n      0x18cbafe5\n      swap1\n        /* \"Payment/Swap.sol\":2202:2266  rt.swapExactTokensForETH(_amount, 0, path, msg.sender, 2**256-1) */\n      tag_63\n      swap1\n        /* \"Payment/Swap.sol\":2227:2234  _amount */\n      dup8\n      swap1\n        /* \"Payment/Swap.sol\":2236:2237  0 */\n      0x00\n      swap1\n        /* \"Payment/Swap.sol\":2239:2243  path */\n      dup7\n      swap1\n        /* \"Payment/Swap.sol\":2245:2255  msg.sender */\n      caller\n      swap1\n        /* \"Payment/Swap.sol\":2257:2265  2**256-1 */\n      0xffffffffffffffffffffffffffffffffffffffffffffffffffffffffffffffff\n      swap1\n        /* \"Payment/Swap.sol\":2202:2266  rt.swapExactTokensForETH(_amount, 0, path, msg.sender, 2**256-1) */\n      0x04\n      add\n      tag_64\n      jump\t// in\n    tag_63:\n      0x00\n      mload(0x40)\n      dup1\n      dup4\n      sub\n      dup2\n      0x00\n      dup8\n      gas\n      call\n      iszero\n      dup1\n      iszero\n      tag_66\n      jumpi\n      returndatasize\n      0x00\n      dup1\n      returndatacopy\n      revert(0x00, returndatasize)\n    tag_66:\n      pop\n      pop\n      pop\n      pop\n      mload(0x40)\n      returndatasize\n      0x00\n      dup3\n      returndatacopy\n      0x1f\n      returndatasize\n      swap1\n      dup2\n      add\n      0xffffffffffffffffffffffffffffffffffffffffffffffffffffffffffffffe0\n      and\n      dup3\n      add\n      0x40\n      mstore\n      tag_67\n      swap2\n      swap1\n      dup2\n      add\n      swap1\n      tag_68\n      jump\t// in\n    tag_67:\n        /* \"Payment/Swap.sol\":2195:2267  return(rt.swapExactTokensForETH(_amount, 0, path, msg.sender, 2**256-1)) */\n      swap6\n        /* \"Payment/Swap.sol\":1632:2271  function SwapExactTokenForMATIC(address _token, uint256 _amount) external returns (uint[] memory amounts){... */\n      swap5\n      pop\n      pop\n      pop\n      pop\n      pop\n      jump\t// out\n        /* \"Payment/Swap.sol\":1306:1628  function SwapExactMATICForToken(address _token) external payable returns (uint[] memory amounts){... */\n    tag_26:\n        /* \"Payment/Swap.sol\":1435:1451  new address[](2) */\n      0x40\n      dup1\n      mload\n        /* \"Payment/Swap.sol\":1449:1450  2 */\n      0x02\n        /* \"Payment/Swap.sol\":1435:1451  new address[](2) */\n      dup1\n      dup3\n      mstore\n        /* \"Payment/Swap.sol\":1380:1401  uint[] memory amounts */\n      0x60\n        /* \"Payment/Swap.sol\":1435:1451  new address[](2) */\n      dup1\n      dup4\n      add\n      dup5\n      mstore\n        /* \"Payment/Swap.sol\":1380:1401  uint[] memory amounts */\n      swap3\n        /* \"Payment/Swap.sol\":1411:1432  address[] memory path */\n      0x00\n      swap3\n        /* \"Payment/Swap.sol\":1435:1451  new address[](2) */\n      swap2\n        /* \"Payment/Swap.sol\":1449:1450  2 */\n      swap1\n        /* \"Payment/Swap.sol\":1435:1451  new address[](2) */\n      0x20\n      dup4\n      add\n      swap1\n      dup1\n      calldatasize\n      dup4\n      calldatacopy\n      add\n      swap1\n      pop\n      pop\n        /* \"Payment/Swap.sol\":1411:1451  address[] memory path = new address[](2) */\n      swap1\n      pop\n        /* \"Payment/Swap.sol\":1468:1510  0x0d500B1d8E8eF31E21C99d1Db9A6444d3ADf1270 */\n      0x0d500b1d8e8ef31e21c99d1db9a6444d3adf1270\n        /* \"Payment/Swap.sol\":1458:1462  path */\n      dup2\n        /* \"Payment/Swap.sol\":1463:1464  0 */\n      0x00\n        /* \"Payment/Swap.sol\":1458:1465  path[0] */\n      dup2\n      mload\n      dup2\n      lt\n      tag_74\n      jumpi\n      tag_74\n      tag_60\n      jump\t// in\n    tag_74:\n      0x20\n      mul\n      0x20\n      add\n      add\n        /* \"Payment/Swap.sol\":1458:1510  path[0] = 0x0d500B1d8E8eF31E21C99d1Db9A6444d3ADf1270 */\n      swap1\n      0xffffffffffffffffffffffffffffffffffffffff\n      and\n      swap1\n      dup2\n      0xffffffffffffffffffffffffffffffffffffffff\n      and\n      dup2\n      mstore\n      pop\n      pop\n        /* \"Payment/Swap.sol\":1527:1533  _token */\n      dup3\n        /* \"Payment/Swap.sol\":1517:1521  path */\n      dup2\n        /* \"Payment/Swap.sol\":1522:1523  1 */\n      0x01\n        /* \"Payment/Swap.sol\":1517:1524  path[1] */\n      dup2\n      mload\n      dup2\n      lt\n      tag_76\n      jumpi\n      tag_76\n      tag_60\n      jump\t// in\n    tag_76:\n        /* \"Payment/Swap.sol\":1517:1533  path[1] = _token */\n      0xffffffffffffffffffffffffffffffffffffffff\n      swap1\n      swap3\n      and\n        /* \"Payment/Swap.sol\":1517:1524  path[1] */\n      0x20\n      swap3\n      dup4\n      mul\n      swap2\n      swap1\n      swap2\n      add\n      swap1\n      swap2\n      add\n        /* \"Payment/Swap.sol\":1517:1533  path[1] = _token */\n      mstore\n        /* \"Payment/Swap.sol\":1549:1623  rt.swapExactETHForTokens{value : msg.value}(0, path, msg.sender, 2**256-1) */\n      mload(0x40)\n      0x7ff36ab500000000000000000000000000000000000000000000000000000000\n      dup2\n      mstore\n        /* \"Payment/Swap.sol\":1109:1151  0xb3eB6c96083F8a3407A3C6a011E807e152448ba0 */\n      0xb3eb6c96083f8a3407a3c6a011e807e152448ba0\n      swap1\n        /* \"Payment/Swap.sol\":1549:1573  rt.swapExactETHForTokens */\n      0x7ff36ab5\n      swap1\n        /* \"Payment/Swap.sol\":1582:1591  msg.value */\n      callvalue\n      swap1\n        /* \"Payment/Swap.sol\":1549:1623  rt.swapExactETHForTokens{value : msg.value}(0, path, msg.sender, 2**256-1) */\n      tag_77\n      swap1\n        /* \"Payment/Swap.sol\":1593:1594  0 */\n      0x00\n      swap1\n        /* \"Payment/Swap.sol\":1596:1600  path */\n      dup7\n      swap1\n        /* \"Payment/Swap.sol\":1602:1612  msg.sender */\n      caller\n      swap1\n        /* \"Payment/Swap.sol\":1614:1622  2**256-1 */\n      0xffffffffffffffffffffffffffffffffffffffffffffffffffffffffffffffff\n      swap1\n        /* \"Payment/Swap.sol\":1549:1623  rt.swapExactETHForTokens{value : msg.value}(0, path, msg.sender, 2**256-1) */\n      0x04\n      add\n      tag_78\n      jump\t// in\n    tag_77:\n      0x00\n      mload(0x40)\n      dup1\n      dup4\n      sub\n      dup2\n      dup6\n      dup9\n      gas\n      call\n      iszero\n      dup1\n      iszero\n      tag_80\n      jumpi\n      returndatasize\n      0x00\n      dup1\n      returndatacopy\n      revert(0x00, returndatasize)\n    tag_80:\n      pop\n      pop\n      pop\n      pop\n      pop\n      mload(0x40)\n      returndatasize\n      0x00\n      dup3\n      returndatacopy\n      0x1f\n      returndatasize\n      swap1\n      dup2\n      add\n      0xffffffffffffffffffffffffffffffffffffffffffffffffffffffffffffffe0\n      and\n      dup3\n      add\n      0x40\n      mstore\n      tag_81\n      swap2\n      swap1\n      dup2\n      add\n      swap1\n      tag_68\n      jump\t// in\n    tag_81:\n        /* \"Payment/Swap.sol\":1542:1624  return(rt.swapExactETHForTokens{value : msg.value}(0, path, msg.sender, 2**256-1)) */\n      swap4\n        /* \"Payment/Swap.sol\":1306:1628  function SwapExactMATICForToken(address _token) external payable returns (uint[] memory amounts){... */\n      swap3\n      pop\n      pop\n      pop\n      jump\t// out\n        /* \"#utility.yul\":14:210   */\n    tag_82:\n        /* \"#utility.yul\":82:102   */\n      dup1\n      calldataload\n        /* \"#utility.yul\":142:184   */\n      0xffffffffffffffffffffffffffffffffffffffff\n        /* \"#utility.yul\":131:185   */\n      dup2\n      and\n        /* \"#utility.yul\":121:186   */\n      dup2\n      eq\n        /* \"#utility.yul\":111:204   */\n      tag_86\n      jumpi\n        /* \"#utility.yul\":200:201   */\n      0x00\n        /* \"#utility.yul\":197:198   */\n      dup1\n        /* \"#utility.yul\":190:202   */\n      revert\n        /* \"#utility.yul\":111:204   */\n    tag_86:\n        /* \"#utility.yul\":14:210   */\n      swap2\n      swap1\n      pop\n      jump\t// out\n        /* \"#utility.yul\":215:469   */\n    tag_14:\n        /* \"#utility.yul\":283:289   */\n      0x00\n        /* \"#utility.yul\":291:297   */\n      dup1\n        /* \"#utility.yul\":344:346   */\n      0x40\n        /* \"#utility.yul\":332:341   */\n      dup4\n        /* \"#utility.yul\":323:330   */\n      dup6\n        /* \"#utility.yul\":319:342   */\n      sub\n        /* \"#utility.yul\":315:347   */\n      slt\n        /* \"#utility.yul\":312:364   */\n      iszero\n      tag_88\n      jumpi\n        /* \"#utility.yul\":360:361   */\n      0x00\n        /* \"#utility.yul\":357:358   */\n      dup1\n        /* \"#utility.yul\":350:362   */\n      revert\n        /* \"#utility.yul\":312:364   */\n    tag_88:\n        /* \"#utility.yul\":383:412   */\n      tag_89\n        /* \"#utility.yul\":402:411   */\n      dup4\n        /* \"#utility.yul\":383:412   */\n      tag_82\n      jump\t// in\n    tag_89:\n        /* \"#utility.yul\":373:412   */\n      swap5\n        /* \"#utility.yul\":459:461   */\n      0x20\n        /* \"#utility.yul\":444:462   */\n      swap4\n      swap1\n      swap4\n      add\n        /* \"#utility.yul\":431:463   */\n      calldataload\n      swap4\n      pop\n      pop\n      pop\n        /* \"#utility.yul\":215:469   */\n      jump\t// out\n        /* \"#utility.yul\":474:1106   */\n    tag_17:\n        /* \"#utility.yul\":645:647   */\n      0x20\n        /* \"#utility.yul\":697:718   */\n      dup1\n      dup3\n      mstore\n        /* \"#utility.yul\":767:780   */\n      dup3\n      mload\n        /* \"#utility.yul\":670:688   */\n      dup3\n      dup3\n      add\n        /* \"#utility.yul\":789:811   */\n      dup2\n      swap1\n      mstore\n        /* \"#utility.yul\":616:620   */\n      0x00\n      swap2\n        /* \"#utility.yul\":645:647   */\n      swap1\n        /* \"#utility.yul\":868:883   */\n      dup5\n      dup3\n      add\n      swap1\n        /* \"#utility.yul\":842:844   */\n      0x40\n        /* \"#utility.yul\":827:845   */\n      dup6\n      add\n      swap1\n        /* \"#utility.yul\":616:620   */\n      dup5\n        /* \"#utility.yul\":911:1080   */\n    tag_91:\n        /* \"#utility.yul\":925:931   */\n      dup2\n        /* \"#utility.yul\":922:923   */\n      dup2\n        /* \"#utility.yul\":919:932   */\n      lt\n        /* \"#utility.yul\":911:1080   */\n      iszero\n      tag_93\n      jumpi\n        /* \"#utility.yul\":986:999   */\n      dup4\n      mload\n        /* \"#utility.yul\":974:1000   */\n      dup4\n      mstore\n        /* \"#utility.yul\":1055:1070   */\n      swap3\n      dup5\n      add\n      swap3\n        /* \"#utility.yul\":1020:1032   */\n      swap2\n      dup5\n      add\n      swap2\n        /* \"#utility.yul\":947:948   */\n      0x01\n        /* \"#utility.yul\":940:949   */\n      add\n        /* \"#utility.yul\":911:1080   */\n      jump(tag_91)\n    tag_93:\n      pop\n        /* \"#utility.yul\":1097:1100   */\n      swap1\n      swap7\n        /* \"#utility.yul\":474:1106   */\n      swap6\n      pop\n      pop\n      pop\n      pop\n      pop\n      pop\n      jump\t// out\n        /* \"#utility.yul\":1111:1718   */\n    tag_22:\n        /* \"#utility.yul\":1223:1227   */\n      0x00\n        /* \"#utility.yul\":1252:1254   */\n      0x20\n        /* \"#utility.yul\":1281:1283   */\n      dup1\n        /* \"#utility.yul\":1270:1279   */\n      dup4\n        /* \"#utility.yul\":1263:1284   */\n      mstore\n        /* \"#utility.yul\":1313:1319   */\n      dup4\n        /* \"#utility.yul\":1307:1320   */\n      mload\n        /* \"#utility.yul\":1356:1362   */\n      dup1\n        /* \"#utility.yul\":1351:1353   */\n      dup3\n        /* \"#utility.yul\":1340:1349   */\n      dup6\n        /* \"#utility.yul\":1336:1354   */\n      add\n        /* \"#utility.yul\":1329:1363   */\n      mstore\n        /* \"#utility.yul\":1381:1382   */\n      0x00\n        /* \"#utility.yul\":1391:1531   */\n    tag_95:\n        /* \"#utility.yul\":1405:1411   */\n      dup2\n        /* \"#utility.yul\":1402:1403   */\n      dup2\n        /* \"#utility.yul\":1399:1412   */\n      lt\n        /* \"#utility.yul\":1391:1531   */\n      iszero\n      tag_97\n      jumpi\n        /* \"#utility.yul\":1500:1514   */\n      dup6\n      dup2\n      add\n        /* \"#utility.yul\":1496:1519   */\n      dup4\n      add\n        /* \"#utility.yul\":1490:1520   */\n      mload\n        /* \"#utility.yul\":1466:1483   */\n      dup6\n      dup3\n      add\n        /* \"#utility.yul\":1485:1487   */\n      0x40\n        /* \"#utility.yul\":1462:1488   */\n      add\n        /* \"#utility.yul\":1455:1521   */\n      mstore\n        /* \"#utility.yul\":1420:1430   */\n      dup3\n      add\n        /* \"#utility.yul\":1391:1531   */\n      jump(tag_95)\n    tag_97:\n        /* \"#utility.yul\":1395:1398   */\n      pop\n        /* \"#utility.yul\":1580:1581   */\n      0x00\n        /* \"#utility.yul\":1575:1577   */\n      0x40\n        /* \"#utility.yul\":1566:1572   */\n      dup3\n        /* \"#utility.yul\":1555:1564   */\n      dup7\n        /* \"#utility.yul\":1551:1573   */\n      add\n        /* \"#utility.yul\":1547:1578   */\n      add\n        /* \"#utility.yul\":1540:1582   */\n      mstore\n        /* \"#utility.yul\":1709:1711   */\n      0x40\n        /* \"#utility.yul\":1639:1705   */\n      0xffffffffffffffffffffffffffffffffffffffffffffffffffffffffffffffe0\n        /* \"#utility.yul\":1634:1636   */\n      0x1f\n        /* \"#utility.yul\":1626:1632   */\n      dup4\n        /* \"#utility.yul\":1622:1637   */\n      add\n        /* \"#utility.yul\":1618:1706   */\n      and\n        /* \"#utility.yul\":1607:1616   */\n      dup6\n        /* \"#utility.yul\":1603:1707   */\n      add\n        /* \"#utility.yul\":1599:1712   */\n      add\n        /* \"#utility.yul\":1591:1712   */\n      swap3\n      pop\n      pop\n      pop\n        /* \"#utility.yul\":1111:1718   */\n      swap3\n      swap2\n      pop\n      pop\n      jump\t// out\n        /* \"#utility.yul\":1723:1909   */\n    tag_25:\n        /* \"#utility.yul\":1782:1788   */\n      0x00\n        /* \"#utility.yul\":1835:1837   */\n      0x20\n        /* \"#utility.yul\":1823:1832   */\n      dup3\n        /* \"#utility.yul\":1814:1821   */\n      dup5\n        /* \"#utility.yul\":1810:1833   */\n      sub\n        /* \"#utility.yul\":1806:1838   */\n      slt\n        /* \"#utility.yul\":1803:1855   */\n      iszero\n      tag_99\n      jumpi\n        /* \"#utility.yul\":1851:1852   */\n      0x00\n        /* \"#utility.yul\":1848:1849   */\n      dup1\n        /* \"#utility.yul\":1841:1853   */\n      revert\n        /* \"#utility.yul\":1803:1855   */\n    tag_99:\n        /* \"#utility.yul\":1874:1903   */\n      tag_81\n        /* \"#utility.yul\":1893:1902   */\n      dup3\n        /* \"#utility.yul\":1874:1903   */\n      tag_82\n      jump\t// in\n        /* \"#utility.yul\":2246:2430   */\n    tag_34:\n        /* \"#utility.yul\":2316:2322   */\n      0x00\n        /* \"#utility.yul\":2369:2371   */\n      0x20\n        /* \"#utility.yul\":2357:2366   */\n      dup3\n        /* \"#utility.yul\":2348:2355   */\n      dup5\n        /* \"#utility.yul\":2344:2367   */\n      sub\n        /* \"#utility.yul\":2340:2372   */\n      slt\n        /* \"#utility.yul\":2337:2389   */\n      iszero\n      tag_103\n      jumpi\n        /* \"#utility.yul\":2385:2386   */\n      0x00\n        /* \"#utility.yul\":2382:2383   */\n      dup1\n        /* \"#utility.yul\":2375:2387   */\n      revert\n        /* \"#utility.yul\":2337:2389   */\n    tag_103:\n      pop\n        /* \"#utility.yul\":2408:2424   */\n      mload\n      swap2\n        /* \"#utility.yul\":2246:2430   */\n      swap1\n      pop\n      jump\t// out\n        /* \"#utility.yul\":2822:3099   */\n    tag_41:\n        /* \"#utility.yul\":2889:2895   */\n      0x00\n        /* \"#utility.yul\":2942:2944   */\n      0x20\n        /* \"#utility.yul\":2930:2939   */\n      dup3\n        /* \"#utility.yul\":2921:2928   */\n      dup5\n        /* \"#utility.yul\":2917:2940   */\n      sub\n        /* \"#utility.yul\":2913:2945   */\n      slt\n        /* \"#utility.yul\":2910:2962   */\n      iszero\n      tag_106\n      jumpi\n        /* \"#utility.yul\":2958:2959   */\n      0x00\n        /* \"#utility.yul\":2955:2956   */\n      dup1\n        /* \"#utility.yul\":2948:2960   */\n      revert\n        /* \"#utility.yul\":2910:2962   */\n    tag_106:\n        /* \"#utility.yul\":2990:2999   */\n      dup2\n        /* \"#utility.yul\":2984:3000   */\n      mload\n        /* \"#utility.yul\":3043:3048   */\n      dup1\n        /* \"#utility.yul\":3036:3049   */\n      iszero\n        /* \"#utility.yul\":3029:3050   */\n      iszero\n        /* \"#utility.yul\":3022:3027   */\n      dup2\n        /* \"#utility.yul\":3019:3051   */\n      eq\n        /* \"#utility.yul\":3009:3069   */\n      tag_81\n      jumpi\n        /* \"#utility.yul\":3065:3066   */\n      0x00\n        /* \"#utility.yul\":3062:3063   */\n      dup1\n        /* \"#utility.yul\":3055:3067   */\n      revert\n        /* \"#utility.yul\":3853:4037   */\n    tag_56:\n        /* \"#utility.yul\":3905:3982   */\n      0x4e487b7100000000000000000000000000000000000000000000000000000000\n        /* \"#utility.yul\":3902:3903   */\n      0x00\n        /* \"#utility.yul\":3895:3983   */\n      mstore\n        /* \"#utility.yul\":4002:4006   */\n      0x41\n        /* \"#utility.yul\":3999:4000   */\n      0x04\n        /* \"#utility.yul\":3992:4007   */\n      mstore\n        /* \"#utility.yul\":4026:4030   */\n      0x24\n        /* \"#utility.yul\":4023:4024   */\n      0x00\n        /* \"#utility.yul\":4016:4031   */\n      revert\n        /* \"#utility.yul\":4042:4226   */\n    tag_60:\n        /* \"#utility.yul\":4094:4171   */\n      0x4e487b7100000000000000000000000000000000000000000000000000000000\n        /* \"#utility.yul\":4091:4092   */\n      0x00\n        /* \"#utility.yul\":4084:4172   */\n      mstore\n        /* \"#utility.yul\":4191:4195   */\n      0x32\n        /* \"#utility.yul\":4188:4189   */\n      0x04\n        /* \"#utility.yul\":4181:4196   */\n      mstore\n        /* \"#utility.yul\":4215:4219   */\n      0x24\n        /* \"#utility.yul\":4212:4213   */\n      0x00\n        /* \"#utility.yul\":4205:4220   */\n      revert\n        /* \"#utility.yul\":4231:4715   */\n    tag_83:\n        /* \"#utility.yul\":4284:4287   */\n      0x00\n        /* \"#utility.yul\":4322:4327   */\n      dup2\n        /* \"#utility.yul\":4316:4328   */\n      mload\n        /* \"#utility.yul\":4349:4355   */\n      dup1\n        /* \"#utility.yul\":4344:4347   */\n      dup5\n        /* \"#utility.yul\":4337:4356   */\n      mstore\n        /* \"#utility.yul\":4375:4379   */\n      0x20\n        /* \"#utility.yul\":4404:4406   */\n      dup1\n        /* \"#utility.yul\":4399:4402   */\n      dup6\n        /* \"#utility.yul\":4395:4407   */\n      add\n        /* \"#utility.yul\":4388:4407   */\n      swap5\n      pop\n        /* \"#utility.yul\":4441:4443   */\n      dup1\n        /* \"#utility.yul\":4434:4439   */\n      dup5\n        /* \"#utility.yul\":4430:4444   */\n      add\n        /* \"#utility.yul\":4462:4463   */\n      0x00\n        /* \"#utility.yul\":4472:4690   */\n    tag_113:\n        /* \"#utility.yul\":4486:4492   */\n      dup4\n        /* \"#utility.yul\":4483:4484   */\n      dup2\n        /* \"#utility.yul\":4480:4493   */\n      lt\n        /* \"#utility.yul\":4472:4690   */\n      iszero\n      tag_115\n      jumpi\n        /* \"#utility.yul\":4551:4564   */\n      dup2\n      mload\n        /* \"#utility.yul\":4566:4608   */\n      0xffffffffffffffffffffffffffffffffffffffff\n        /* \"#utility.yul\":4547:4609   */\n      and\n        /* \"#utility.yul\":4535:4610   */\n      dup8\n      mstore\n        /* \"#utility.yul\":4630:4642   */\n      swap6\n      dup3\n      add\n      swap6\n        /* \"#utility.yul\":4665:4680   */\n      swap1\n      dup3\n      add\n      swap1\n        /* \"#utility.yul\":4508:4509   */\n      0x01\n        /* \"#utility.yul\":4501:4510   */\n      add\n        /* \"#utility.yul\":4472:4690   */\n      jump(tag_113)\n    tag_115:\n      pop\n        /* \"#utility.yul\":4706:4709   */\n      swap5\n      swap6\n        /* \"#utility.yul\":4231:4715   */\n      swap5\n      pop\n      pop\n      pop\n      pop\n      pop\n      jump\t// out\n        /* \"#utility.yul\":4720:5410   */\n    tag_64:\n        /* \"#utility.yul\":5104:5110   */\n      dup6\n        /* \"#utility.yul\":5093:5102   */\n      dup2\n        /* \"#utility.yul\":5086:5111   */\n      mstore\n        /* \"#utility.yul\":5147:5153   */\n      dup5\n        /* \"#utility.yul\":5142:5144   */\n      0x20\n        /* \"#utility.yul\":5131:5140   */\n      dup3\n        /* \"#utility.yul\":5127:5145   */\n      add\n        /* \"#utility.yul\":5120:5154   */\n      mstore\n        /* \"#utility.yul\":5190:5193   */\n      0xa0\n        /* \"#utility.yul\":5185:5187   */\n      0x40\n        /* \"#utility.yul\":5174:5183   */\n      dup3\n        /* \"#utility.yul\":5170:5188   */\n      add\n        /* \"#utility.yul\":5163:5194   */\n      mstore\n        /* \"#utility.yul\":5067:5071   */\n      0x00\n        /* \"#utility.yul\":5211:5268   */\n      tag_117\n        /* \"#utility.yul\":5263:5266   */\n      0xa0\n        /* \"#utility.yul\":5252:5261   */\n      dup4\n        /* \"#utility.yul\":5248:5267   */\n      add\n        /* \"#utility.yul\":5240:5246   */\n      dup7\n        /* \"#utility.yul\":5211:5268   */\n      tag_83\n      jump\t// in\n    tag_117:\n        /* \"#utility.yul\":5316:5358   */\n      0xffffffffffffffffffffffffffffffffffffffff\n        /* \"#utility.yul\":5304:5359   */\n      swap5\n      swap1\n      swap5\n      and\n        /* \"#utility.yul\":5299:5301   */\n      0x60\n        /* \"#utility.yul\":5284:5302   */\n      dup4\n      add\n        /* \"#utility.yul\":5277:5360   */\n      mstore\n      pop\n        /* \"#utility.yul\":5391:5394   */\n      0x80\n        /* \"#utility.yul\":5376:5395   */\n      add\n        /* \"#utility.yul\":5369:5404   */\n      mstore\n        /* \"#utility.yul\":5203:5268   */\n      swap4\n        /* \"#utility.yul\":4720:5410   */\n      swap3\n      pop\n      pop\n      pop\n      jump\t// out\n        /* \"#utility.yul\":5415:6579   */\n    tag_68:\n        /* \"#utility.yul\":5510:5516   */\n      0x00\n        /* \"#utility.yul\":5541:5543   */\n      0x20\n        /* \"#utility.yul\":5584:5586   */\n      dup1\n        /* \"#utility.yul\":5572:5581   */\n      dup4\n        /* \"#utility.yul\":5563:5570   */\n      dup6\n        /* \"#utility.yul\":5559:5582   */\n      sub\n        /* \"#utility.yul\":5555:5587   */\n      slt\n        /* \"#utility.yul\":5552:5604   */\n      iszero\n      tag_119\n      jumpi\n        /* \"#utility.yul\":5600:5601   */\n      0x00\n        /* \"#utility.yul\":5597:5598   */\n      dup1\n        /* \"#utility.yul\":5590:5602   */\n      revert\n        /* \"#utility.yul\":5552:5604   */\n    tag_119:\n        /* \"#utility.yul\":5633:5642   */\n      dup3\n        /* \"#utility.yul\":5627:5643   */\n      mload\n        /* \"#utility.yul\":5662:5680   */\n      0xffffffffffffffff\n        /* \"#utility.yul\":5703:5705   */\n      dup1\n        /* \"#utility.yul\":5695:5701   */\n      dup3\n        /* \"#utility.yul\":5692:5706   */\n      gt\n        /* \"#utility.yul\":5689:5723   */\n      iszero\n      tag_120\n      jumpi\n        /* \"#utility.yul\":5719:5720   */\n      0x00\n        /* \"#utility.yul\":5716:5717   */\n      dup1\n        /* \"#utility.yul\":5709:5721   */\n      revert\n        /* \"#utility.yul\":5689:5723   */\n    tag_120:\n        /* \"#utility.yul\":5757:5763   */\n      dup2\n        /* \"#utility.yul\":5746:5755   */\n      dup6\n        /* \"#utility.yul\":5742:5764   */\n      add\n        /* \"#utility.yul\":5732:5764   */\n      swap2\n      pop\n        /* \"#utility.yul\":5802:5809   */\n      dup6\n        /* \"#utility.yul\":5795:5799   */\n      0x1f\n        /* \"#utility.yul\":5791:5793   */\n      dup4\n        /* \"#utility.yul\":5787:5800   */\n      add\n        /* \"#utility.yul\":5783:5810   */\n      slt\n        /* \"#utility.yul\":5773:5828   */\n      tag_121\n      jumpi\n        /* \"#utility.yul\":5824:5825   */\n      0x00\n        /* \"#utility.yul\":5821:5822   */\n      dup1\n        /* \"#utility.yul\":5814:5826   */\n      revert\n        /* \"#utility.yul\":5773:5828   */\n    tag_121:\n        /* \"#utility.yul\":5853:5855   */\n      dup2\n        /* \"#utility.yul\":5847:5856   */\n      mload\n        /* \"#utility.yul\":5875:5877   */\n      dup2\n        /* \"#utility.yul\":5871:5873   */\n      dup2\n        /* \"#utility.yul\":5868:5878   */\n      gt\n        /* \"#utility.yul\":5865:5901   */\n      iszero\n      tag_123\n      jumpi\n        /* \"#utility.yul\":5881:5899   */\n      tag_123\n      tag_56\n      jump\t// in\n    tag_123:\n        /* \"#utility.yul\":5927:5929   */\n      dup1\n        /* \"#utility.yul\":5924:5925   */\n      0x05\n        /* \"#utility.yul\":5920:5930   */\n      shl\n        /* \"#utility.yul\":5959:5961   */\n      0x40\n        /* \"#utility.yul\":5953:5962   */\n      mload\n        /* \"#utility.yul\":6018:6084   */\n      0xffffffffffffffffffffffffffffffffffffffffffffffffffffffffffffffe0\n        /* \"#utility.yul\":6013:6015   */\n      0x3f\n        /* \"#utility.yul\":6009:6011   */\n      dup4\n        /* \"#utility.yul\":6005:6016   */\n      add\n        /* \"#utility.yul\":6001:6085   */\n      and\n        /* \"#utility.yul\":5993:5999   */\n      dup2\n        /* \"#utility.yul\":5989:6086   */\n      add\n        /* \"#utility.yul\":6136:6142   */\n      dup2\n        /* \"#utility.yul\":6124:6134   */\n      dup2\n        /* \"#utility.yul\":6121:6143   */\n      lt\n        /* \"#utility.yul\":6116:6118   */\n      dup6\n        /* \"#utility.yul\":6104:6114   */\n      dup3\n        /* \"#utility.yul\":6101:6119   */\n      gt\n        /* \"#utility.yul\":6098:6144   */\n      or\n        /* \"#utility.yul\":6095:6167   */\n      iszero\n      tag_125\n      jumpi\n        /* \"#utility.yul\":6147:6165   */\n      tag_125\n      tag_56\n      jump\t// in\n    tag_125:\n        /* \"#utility.yul\":6183:6185   */\n      0x40\n        /* \"#utility.yul\":6176:6198   */\n      mstore\n        /* \"#utility.yul\":6233:6251   */\n      swap2\n      dup3\n      mstore\n        /* \"#utility.yul\":6267:6282   */\n      dup5\n      dup3\n      add\n      swap3\n      pop\n        /* \"#utility.yul\":6309:6320   */\n      dup4\n      dup2\n      add\n        /* \"#utility.yul\":6305:6325   */\n      dup6\n      add\n      swap2\n        /* \"#utility.yul\":6337:6356   */\n      dup9\n      dup4\n      gt\n        /* \"#utility.yul\":6334:6373   */\n      iszero\n      tag_126\n      jumpi\n        /* \"#utility.yul\":6369:6370   */\n      0x00\n        /* \"#utility.yul\":6366:6367   */\n      dup1\n        /* \"#utility.yul\":6359:6371   */\n      revert\n        /* \"#utility.yul\":6334:6373   */\n    tag_126:\n        /* \"#utility.yul\":6393:6404   */\n      swap4\n      dup6\n      add\n      swap4\n        /* \"#utility.yul\":6413:6548   */\n    tag_127:\n        /* \"#utility.yul\":6429:6435   */\n      dup3\n        /* \"#utility.yul\":6424:6427   */\n      dup6\n        /* \"#utility.yul\":6421:6436   */\n      lt\n        /* \"#utility.yul\":6413:6548   */\n      iszero\n      tag_129\n      jumpi\n        /* \"#utility.yul\":6495:6505   */\n      dup5\n      mload\n        /* \"#utility.yul\":6483:6506   */\n      dup5\n      mstore\n        /* \"#utility.yul\":6446:6458   */\n      swap4\n      dup6\n      add\n      swap4\n        /* \"#utility.yul\":6526:6538   */\n      swap3\n      dup6\n      add\n      swap3\n        /* \"#utility.yul\":6413:6548   */\n      jump(tag_127)\n    tag_129:\n        /* \"#utility.yul\":6567:6573   */\n      swap9\n        /* \"#utility.yul\":5415:6579   */\n      swap8\n      pop\n      pop\n      pop\n      pop\n      pop\n      pop\n      pop\n      pop\n      jump\t// out\n        /* \"#utility.yul\":6584:7202   */\n    tag_78:\n        /* \"#utility.yul\":6940:6946   */\n      dup5\n        /* \"#utility.yul\":6929:6938   */\n      dup2\n        /* \"#utility.yul\":6922:6947   */\n      mstore\n        /* \"#utility.yul\":6983:6986   */\n      0x80\n        /* \"#utility.yul\":6978:6980   */\n      0x20\n        /* \"#utility.yul\":6967:6976   */\n      dup3\n        /* \"#utility.yul\":6963:6981   */\n      add\n        /* \"#utility.yul\":6956:6987   */\n      mstore\n        /* \"#utility.yul\":6903:6907   */\n      0x00\n        /* \"#utility.yul\":7004:7061   */\n      tag_131\n        /* \"#utility.yul\":7056:7059   */\n      0x80\n        /* \"#utility.yul\":7045:7054   */\n      dup4\n        /* \"#utility.yul\":7041:7060   */\n      add\n        /* \"#utility.yul\":7033:7039   */\n      dup7\n        /* \"#utility.yul\":7004:7061   */\n      tag_83\n      jump\t// in\n    tag_131:\n        /* \"#utility.yul\":7109:7151   */\n      0xffffffffffffffffffffffffffffffffffffffff\n        /* \"#utility.yul\":7097:7152   */\n      swap5\n      swap1\n      swap5\n      and\n        /* \"#utility.yul\":7092:7094   */\n      0x40\n        /* \"#utility.yul\":7077:7095   */\n      dup4\n      add\n        /* \"#utility.yul\":7070:7153   */\n      mstore\n      pop\n        /* \"#utility.yul\":7184:7186   */\n      0x60\n        /* \"#utility.yul\":7169:7187   */\n      add\n        /* \"#utility.yul\":7162:7196   */\n      mstore\n        /* \"#utility.yul\":6996:7061   */\n      swap3\n        /* \"#utility.yul\":6584:7202   */\n      swap2\n      pop\n      pop\n      jump\t// out\n\n    auxdata: 0xa2646970667358221220d120f088b7a4451e3e74ff4ed227b3eccdad1819072d0eb2116849ad26c1d1c464736f6c63430008120033\n}\n",
				"bytecode": {
					"linkReferences": {},
					"object": "608060405234801561001057600080fd5b50610b00806100206000396000f3fe6080604052600436106100385760003560e01c8063469d6d36146100535780638052474d14610089578063846114d5146100df57610042565b3661004257600080fd5b34801561004e57600080fd5b600080fd5b34801561005f57600080fd5b5061007361006e366004610784565b6100f2565b60405161008091906107ae565b60405180910390f35b34801561009557600080fd5b506100d26040518060400160405280600c81526020017f5061796d656e742e53776170000000000000000000000000000000000000000081525081565b60405161008091906107f2565b6100736100ed36600461085e565b6105b6565b6040517fdd62ed3e00000000000000000000000000000000000000000000000000000000815230600482015273b3eb6c96083f8a3407a3c6a011e807e152448ba060248201526060908390839073ffffffffffffffffffffffffffffffffffffffff83169063dd62ed3e90604401602060405180830381865afa15801561017d573d6000803e3d6000fd5b505050506040513d601f19601f820116820180604052508101906101a19190610879565b1015610273576040517f095ea7b300000000000000000000000000000000000000000000000000000000815273b3eb6c96083f8a3407a3c6a011e807e152448ba060048201527fffffffffffffffffffffffffffffffffffffffffffffffffffffffffffffffff602482015273ffffffffffffffffffffffffffffffffffffffff82169063095ea7b3906044016020604051808303816000875af115801561024d573d6000803e3d6000fd5b505050506040513d601f19601f820116820180604052508101906102719190610892565b505b6040517fdd62ed3e000000000000000000000000000000000000000000000000000000008152336004820152306024820152839073ffffffffffffffffffffffffffffffffffffffff83169063dd62ed3e90604401602060405180830381865afa1580156102e5573d6000803e3d6000fd5b505050506040513d601f19601f820116820180604052508101906103099190610879565b1015610375576040517f08c379a000000000000000000000000000000000000000000000000000000000815260206004820152601160248201527f417070726f76616c207265717569726564000000000000000000000000000000604482015260640160405180910390fd5b6040517f23b872dd0000000000000000000000000000000000000000000000000000000081523360048201523060248201526044810184905273ffffffffffffffffffffffffffffffffffffffff8216906323b872dd906064016020604051808303816000875af11580156103ee573d6000803e3d6000fd5b505050506040513d601f19601f820116820180604052508101906104129190610892565b506040805160028082526060820183526000926020830190803683370190505090508481600081518110610448576104486108e3565b602002602001019073ffffffffffffffffffffffffffffffffffffffff16908173ffffffffffffffffffffffffffffffffffffffff1681525050730d500b1d8e8ef31e21c99d1db9a6444d3adf1270816001815181106104aa576104aa6108e3565b73ffffffffffffffffffffffffffffffffffffffff909216602092830291909101909101526040517f18cbafe500000000000000000000000000000000000000000000000000000000815273b3eb6c96083f8a3407a3c6a011e807e152448ba0906318cbafe590610548908790600090869033907fffffffffffffffffffffffffffffffffffffffffffffffffffffffffffffffff90600401610963565b6000604051808303816000875af1158015610567573d6000803e3d6000fd5b505050506040513d6000823e601f3d9081017fffffffffffffffffffffffffffffffffffffffffffffffffffffffffffffffe01682016040526105ad91908101906109ac565b95945050505050565b60408051600280825260608083018452926000929190602083019080368337019050509050730d500b1d8e8ef31e21c99d1db9a6444d3adf127081600081518110610603576106036108e3565b602002602001019073ffffffffffffffffffffffffffffffffffffffff16908173ffffffffffffffffffffffffffffffffffffffff16815250508281600181518110610651576106516108e3565b73ffffffffffffffffffffffffffffffffffffffff909216602092830291909101909101526040517f7ff36ab500000000000000000000000000000000000000000000000000000000815273b3eb6c96083f8a3407a3c6a011e807e152448ba090637ff36ab59034906106ef90600090869033907fffffffffffffffffffffffffffffffffffffffffffffffffffffffffffffffff90600401610a88565b60006040518083038185885af115801561070d573d6000803e3d6000fd5b50505050506040513d6000823e601f3d9081017fffffffffffffffffffffffffffffffffffffffffffffffffffffffffffffffe016820160405261075491908101906109ac565b9392505050565b803573ffffffffffffffffffffffffffffffffffffffff8116811461077f57600080fd5b919050565b6000806040838503121561079757600080fd5b6107a08361075b565b946020939093013593505050565b6020808252825182820181905260009190848201906040850190845b818110156107e6578351835292840192918401916001016107ca565b50909695505050505050565b600060208083528351808285015260005b8181101561081f57858101830151858201604001528201610803565b5060006040828601015260407fffffffffffffffffffffffffffffffffffffffffffffffffffffffffffffffe0601f8301168501019250505092915050565b60006020828403121561087057600080fd5b6107548261075b565b60006020828403121561088b57600080fd5b5051919050565b6000602082840312156108a457600080fd5b8151801515811461075457600080fd5b7f4e487b7100000000000000000000000000000000000000000000000000000000600052604160045260246000fd5b7f4e487b7100000000000000000000000000000000000000000000000000000000600052603260045260246000fd5b600081518084526020808501945080840160005b8381101561095857815173ffffffffffffffffffffffffffffffffffffffff1687529582019590820190600101610926565b509495945050505050565b85815284602082015260a06040820152600061098260a0830186610912565b73ffffffffffffffffffffffffffffffffffffffff94909416606083015250608001529392505050565b600060208083850312156109bf57600080fd5b825167ffffffffffffffff808211156109d757600080fd5b818501915085601f8301126109eb57600080fd5b8151818111156109fd576109fd6108b4565b8060051b6040517fffffffffffffffffffffffffffffffffffffffffffffffffffffffffffffffe0603f83011681018181108582111715610a4057610a406108b4565b604052918252848201925083810185019188831115610a5e57600080fd5b938501935b82851015610a7c57845184529385019392850192610a63565b98975050505050505050565b848152608060208201526000610aa16080830186610912565b73ffffffffffffffffffffffffffffffffffffffff94909416604083015250606001529291505056fea2646970667358221220d120f088b7a4451e3e74ff4ed227b3eccdad1819072d0eb2116849ad26c1d1c464736f6c63430008120033",
					"opcodes": "PUSH1 0x80 PUSH1 0x40 MSTORE CALLVALUE DUP1 ISZERO PUSH2 0x10 JUMPI PUSH1 0x0 DUP1 REVERT JUMPDEST POP PUSH2 0xB00 DUP1 PUSH2 0x20 PUSH1 0x0 CODECOPY PUSH1 0x0 RETURN INVALID PUSH1 0x80 PUSH1 0x40 MSTORE PUSH1 0x4 CALLDATASIZE LT PUSH2 0x38 JUMPI PUSH1 0x0 CALLDATALOAD PUSH1 0xE0 SHR DUP1 PUSH4 0x469D6D36 EQ PUSH2 0x53 JUMPI DUP1 PUSH4 0x8052474D EQ PUSH2 0x89 JUMPI DUP1 PUSH4 0x846114D5 EQ PUSH2 0xDF JUMPI PUSH2 0x42 JUMP JUMPDEST CALLDATASIZE PUSH2 0x42 JUMPI PUSH1 0x0 DUP1 REVERT JUMPDEST CALLVALUE DUP1 ISZERO PUSH2 0x4E JUMPI PUSH1 0x0 DUP1 REVERT JUMPDEST PUSH1 0x0 DUP1 REVERT JUMPDEST CALLVALUE DUP1 ISZERO PUSH2 0x5F JUMPI PUSH1 0x0 DUP1 REVERT JUMPDEST POP PUSH2 0x73 PUSH2 0x6E CALLDATASIZE PUSH1 0x4 PUSH2 0x784 JUMP JUMPDEST PUSH2 0xF2 JUMP JUMPDEST PUSH1 0x40 MLOAD PUSH2 0x80 SWAP2 SWAP1 PUSH2 0x7AE JUMP JUMPDEST PUSH1 0x40 MLOAD DUP1 SWAP2 SUB SWAP1 RETURN JUMPDEST CALLVALUE DUP1 ISZERO PUSH2 0x95 JUMPI PUSH1 0x0 DUP1 REVERT JUMPDEST POP PUSH2 0xD2 PUSH1 0x40 MLOAD DUP1 PUSH1 0x40 ADD PUSH1 0x40 MSTORE DUP1 PUSH1 0xC DUP2 MSTORE PUSH1 0x20 ADD PUSH32 0x5061796D656E742E537761700000000000000000000000000000000000000000 DUP2 MSTORE POP DUP2 JUMP JUMPDEST PUSH1 0x40 MLOAD PUSH2 0x80 SWAP2 SWAP1 PUSH2 0x7F2 JUMP JUMPDEST PUSH2 0x73 PUSH2 0xED CALLDATASIZE PUSH1 0x4 PUSH2 0x85E JUMP JUMPDEST PUSH2 0x5B6 JUMP JUMPDEST PUSH1 0x40 MLOAD PUSH32 0xDD62ED3E00000000000000000000000000000000000000000000000000000000 DUP2 MSTORE ADDRESS PUSH1 0x4 DUP3 ADD MSTORE PUSH20 0xB3EB6C96083F8A3407A3C6A011E807E152448BA0 PUSH1 0x24 DUP3 ADD MSTORE PUSH1 0x60 SWAP1 DUP4 SWAP1 DUP4 SWAP1 PUSH20 0xFFFFFFFFFFFFFFFFFFFFFFFFFFFFFFFFFFFFFFFF DUP4 AND SWAP1 PUSH4 0xDD62ED3E SWAP1 PUSH1 0x44 ADD PUSH1 0x20 PUSH1 0x40 MLOAD DUP1 DUP4 SUB DUP2 DUP7 GAS STATICCALL ISZERO DUP1 ISZERO PUSH2 0x17D JUMPI RETURNDATASIZE PUSH1 0x0 DUP1 RETURNDATACOPY RETURNDATASIZE PUSH1 0x0 REVERT JUMPDEST POP POP POP POP PUSH1 0x40 MLOAD RETURNDATASIZE PUSH1 0x1F NOT PUSH1 0x1F DUP3 ADD AND DUP3 ADD DUP1 PUSH1 0x40 MSTORE POP DUP2 ADD SWAP1 PUSH2 0x1A1 SWAP2 SWAP1 PUSH2 0x879 JUMP JUMPDEST LT ISZERO PUSH2 0x273 JUMPI PUSH1 0x40 MLOAD PUSH32 0x95EA7B300000000000000000000000000000000000000000000000000000000 DUP2 MSTORE PUSH20 0xB3EB6C96083F8A3407A3C6A011E807E152448BA0 PUSH1 0x4 DUP3 ADD MSTORE PUSH32 0xFFFFFFFFFFFFFFFFFFFFFFFFFFFFFFFFFFFFFFFFFFFFFFFFFFFFFFFFFFFFFFFF PUSH1 0x24 DUP3 ADD MSTORE PUSH20 0xFFFFFFFFFFFFFFFFFFFFFFFFFFFFFFFFFFFFFFFF DUP3 AND SWAP1 PUSH4 0x95EA7B3 SWAP1 PUSH1 0x44 ADD PUSH1 0x20 PUSH1 0x40 MLOAD DUP1 DUP4 SUB DUP2 PUSH1 0x0 DUP8 GAS CALL ISZERO DUP1 ISZERO PUSH2 0x24D JUMPI RETURNDATASIZE PUSH1 0x0 DUP1 RETURNDATACOPY RETURNDATASIZE PUSH1 0x0 REVERT JUMPDEST POP POP POP POP PUSH1 0x40 MLOAD RETURNDATASIZE PUSH1 0x1F NOT PUSH1 0x1F DUP3 ADD AND DUP3 ADD DUP1 PUSH1 0x40 MSTORE POP DUP2 ADD SWAP1 PUSH2 0x271 SWAP2 SWAP1 PUSH2 0x892 JUMP JUMPDEST POP JUMPDEST PUSH1 0x40 MLOAD PUSH32 0xDD62ED3E00000000000000000000000000000000000000000000000000000000 DUP2 MSTORE CALLER PUSH1 0x4 DUP3 ADD MSTORE ADDRESS PUSH1 0x24 DUP3 ADD MSTORE DUP4 SWAP1 PUSH20 0xFFFFFFFFFFFFFFFFFFFFFFFFFFFFFFFFFFFFFFFF DUP4 AND SWAP1 PUSH4 0xDD62ED3E SWAP1 PUSH1 0x44 ADD PUSH1 0x20 PUSH1 0x40 MLOAD DUP1 DUP4 SUB DUP2 DUP7 GAS STATICCALL ISZERO DUP1 ISZERO PUSH2 0x2E5 JUMPI RETURNDATASIZE PUSH1 0x0 DUP1 RETURNDATACOPY RETURNDATASIZE PUSH1 0x0 REVERT JUMPDEST POP POP POP POP PUSH1 0x40 MLOAD RETURNDATASIZE PUSH1 0x1F NOT PUSH1 0x1F DUP3 ADD AND DUP3 ADD DUP1 PUSH1 0x40 MSTORE POP DUP2 ADD SWAP1 PUSH2 0x309 SWAP2 SWAP1 PUSH2 0x879 JUMP JUMPDEST LT ISZERO PUSH2 0x375 JUMPI PUSH1 0x40 MLOAD PUSH32 0x8C379A000000000000000000000000000000000000000000000000000000000 DUP2 MSTORE PUSH1 0x20 PUSH1 0x4 DUP3 ADD MSTORE PUSH1 0x11 PUSH1 0x24 DUP3 ADD MSTORE PUSH32 0x417070726F76616C207265717569726564000000000000000000000000000000 PUSH1 0x44 DUP3 ADD MSTORE PUSH1 0x64 ADD PUSH1 0x40 MLOAD DUP1 SWAP2 SUB SWAP1 REVERT JUMPDEST PUSH1 0x40 MLOAD PUSH32 0x23B872DD00000000000000000000000000000000000000000000000000000000 DUP2 MSTORE CALLER PUSH1 0x4 DUP3 ADD MSTORE ADDRESS PUSH1 0x24 DUP3 ADD MSTORE PUSH1 0x44 DUP2 ADD DUP5 SWAP1 MSTORE PUSH20 0xFFFFFFFFFFFFFFFFFFFFFFFFFFFFFFFFFFFFFFFF DUP3 AND SWAP1 PUSH4 0x23B872DD SWAP1 PUSH1 0x64 ADD PUSH1 0x20 PUSH1 0x40 MLOAD DUP1 DUP4 SUB DUP2 PUSH1 0x0 DUP8 GAS CALL ISZERO DUP1 ISZERO PUSH2 0x3EE JUMPI RETURNDATASIZE PUSH1 0x0 DUP1 RETURNDATACOPY RETURNDATASIZE PUSH1 0x0 REVERT JUMPDEST POP POP POP POP PUSH1 0x40 MLOAD RETURNDATASIZE PUSH1 0x1F NOT PUSH1 0x1F DUP3 ADD AND DUP3 ADD DUP1 PUSH1 0x40 MSTORE POP DUP2 ADD SWAP1 PUSH2 0x412 SWAP2 SWAP1 PUSH2 0x892 JUMP JUMPDEST POP PUSH1 0x40 DUP1 MLOAD PUSH1 0x2 DUP1 DUP3 MSTORE PUSH1 0x60 DUP3 ADD DUP4 MSTORE PUSH1 0x0 SWAP3 PUSH1 0x20 DUP4 ADD SWAP1 DUP1 CALLDATASIZE DUP4 CALLDATACOPY ADD SWAP1 POP POP SWAP1 POP DUP5 DUP2 PUSH1 0x0 DUP2 MLOAD DUP2 LT PUSH2 0x448 JUMPI PUSH2 0x448 PUSH2 0x8E3 JUMP JUMPDEST PUSH1 0x20 MUL PUSH1 0x20 ADD ADD SWAP1 PUSH20 0xFFFFFFFFFFFFFFFFFFFFFFFFFFFFFFFFFFFFFFFF AND SWAP1 DUP2 PUSH20 0xFFFFFFFFFFFFFFFFFFFFFFFFFFFFFFFFFFFFFFFF AND DUP2 MSTORE POP POP PUSH20 0xD500B1D8E8EF31E21C99D1DB9A6444D3ADF1270 DUP2 PUSH1 0x1 DUP2 MLOAD DUP2 LT PUSH2 0x4AA JUMPI PUSH2 0x4AA PUSH2 0x8E3 JUMP JUMPDEST PUSH20 0xFFFFFFFFFFFFFFFFFFFFFFFFFFFFFFFFFFFFFFFF SWAP1 SWAP3 AND PUSH1 0x20 SWAP3 DUP4 MUL SWAP2 SWAP1 SWAP2 ADD SWAP1 SWAP2 ADD MSTORE PUSH1 0x40 MLOAD PUSH32 0x18CBAFE500000000000000000000000000000000000000000000000000000000 DUP2 MSTORE PUSH20 0xB3EB6C96083F8A3407A3C6A011E807E152448BA0 SWAP1 PUSH4 0x18CBAFE5 SWAP1 PUSH2 0x548 SWAP1 DUP8 SWAP1 PUSH1 0x0 SWAP1 DUP7 SWAP1 CALLER SWAP1 PUSH32 0xFFFFFFFFFFFFFFFFFFFFFFFFFFFFFFFFFFFFFFFFFFFFFFFFFFFFFFFFFFFFFFFF SWAP1 PUSH1 0x4 ADD PUSH2 0x963 JUMP JUMPDEST PUSH1 0x0 PUSH1 0x40 MLOAD DUP1 DUP4 SUB DUP2 PUSH1 0x0 DUP8 GAS CALL ISZERO DUP1 ISZERO PUSH2 0x567 JUMPI RETURNDATASIZE PUSH1 0x0 DUP1 RETURNDATACOPY RETURNDATASIZE PUSH1 0x0 REVERT JUMPDEST POP POP POP POP PUSH1 0x40 MLOAD RETURNDATASIZE PUSH1 0x0 DUP3 RETURNDATACOPY PUSH1 0x1F RETURNDATASIZE SWAP1 DUP2 ADD PUSH32 0xFFFFFFFFFFFFFFFFFFFFFFFFFFFFFFFFFFFFFFFFFFFFFFFFFFFFFFFFFFFFFFE0 AND DUP3 ADD PUSH1 0x40 MSTORE PUSH2 0x5AD SWAP2 SWAP1 DUP2 ADD SWAP1 PUSH2 0x9AC JUMP JUMPDEST SWAP6 SWAP5 POP POP POP POP POP JUMP JUMPDEST PUSH1 0x40 DUP1 MLOAD PUSH1 0x2 DUP1 DUP3 MSTORE PUSH1 0x60 DUP1 DUP4 ADD DUP5 MSTORE SWAP3 PUSH1 0x0 SWAP3 SWAP2 SWAP1 PUSH1 0x20 DUP4 ADD SWAP1 DUP1 CALLDATASIZE DUP4 CALLDATACOPY ADD SWAP1 POP POP SWAP1 POP PUSH20 0xD500B1D8E8EF31E21C99D1DB9A6444D3ADF1270 DUP2 PUSH1 0x0 DUP2 MLOAD DUP2 LT PUSH2 0x603 JUMPI PUSH2 0x603 PUSH2 0x8E3 JUMP JUMPDEST PUSH1 0x20 MUL PUSH1 0x20 ADD ADD SWAP1 PUSH20 0xFFFFFFFFFFFFFFFFFFFFFFFFFFFFFFFFFFFFFFFF AND SWAP1 DUP2 PUSH20 0xFFFFFFFFFFFFFFFFFFFFFFFFFFFFFFFFFFFFFFFF AND DUP2 MSTORE POP POP DUP3 DUP2 PUSH1 0x1 DUP2 MLOAD DUP2 LT PUSH2 0x651 JUMPI PUSH2 0x651 PUSH2 0x8E3 JUMP JUMPDEST PUSH20 0xFFFFFFFFFFFFFFFFFFFFFFFFFFFFFFFFFFFFFFFF SWAP1 SWAP3 AND PUSH1 0x20 SWAP3 DUP4 MUL SWAP2 SWAP1 SWAP2 ADD SWAP1 SWAP2 ADD MSTORE PUSH1 0x40 MLOAD PUSH32 0x7FF36AB500000000000000000000000000000000000000000000000000000000 DUP2 MSTORE PUSH20 0xB3EB6C96083F8A3407A3C6A011E807E152448BA0 SWAP1 PUSH4 0x7FF36AB5 SWAP1 CALLVALUE SWAP1 PUSH2 0x6EF SWAP1 PUSH1 0x0 SWAP1 DUP7 SWAP1 CALLER SWAP1 PUSH32 0xFFFFFFFFFFFFFFFFFFFFFFFFFFFFFFFFFFFFFFFFFFFFFFFFFFFFFFFFFFFFFFFF SWAP1 PUSH1 0x4 ADD PUSH2 0xA88 JUMP JUMPDEST PUSH1 0x0 PUSH1 0x40 MLOAD DUP1 DUP4 SUB DUP2 DUP6 DUP9 GAS CALL ISZERO DUP1 ISZERO PUSH2 0x70D JUMPI RETURNDATASIZE PUSH1 0x0 DUP1 RETURNDATACOPY RETURNDATASIZE PUSH1 0x0 REVERT JUMPDEST POP POP POP POP POP PUSH1 0x40 MLOAD RETURNDATASIZE PUSH1 0x0 DUP3 RETURNDATACOPY PUSH1 0x1F RETURNDATASIZE SWAP1 DUP2 ADD PUSH32 0xFFFFFFFFFFFFFFFFFFFFFFFFFFFFFFFFFFFFFFFFFFFFFFFFFFFFFFFFFFFFFFE0 AND DUP3 ADD PUSH1 0x40 MSTORE PUSH2 0x754 SWAP2 SWAP1 DUP2 ADD SWAP1 PUSH2 0x9AC JUMP JUMPDEST SWAP4 SWAP3 POP POP POP JUMP JUMPDEST DUP1 CALLDATALOAD PUSH20 0xFFFFFFFFFFFFFFFFFFFFFFFFFFFFFFFFFFFFFFFF DUP2 AND DUP2 EQ PUSH2 0x77F JUMPI PUSH1 0x0 DUP1 REVERT JUMPDEST SWAP2 SWAP1 POP JUMP JUMPDEST PUSH1 0x0 DUP1 PUSH1 0x40 DUP4 DUP6 SUB SLT ISZERO PUSH2 0x797 JUMPI PUSH1 0x0 DUP1 REVERT JUMPDEST PUSH2 0x7A0 DUP4 PUSH2 0x75B JUMP JUMPDEST SWAP5 PUSH1 0x20 SWAP4 SWAP1 SWAP4 ADD CALLDATALOAD SWAP4 POP POP POP JUMP JUMPDEST PUSH1 0x20 DUP1 DUP3 MSTORE DUP3 MLOAD DUP3 DUP3 ADD DUP2 SWAP1 MSTORE PUSH1 0x0 SWAP2 SWAP1 DUP5 DUP3 ADD SWAP1 PUSH1 0x40 DUP6 ADD SWAP1 DUP5 JUMPDEST DUP2 DUP2 LT ISZERO PUSH2 0x7E6 JUMPI DUP4 MLOAD DUP4 MSTORE SWAP3 DUP5 ADD SWAP3 SWAP2 DUP5 ADD SWAP2 PUSH1 0x1 ADD PUSH2 0x7CA JUMP JUMPDEST POP SWAP1 SWAP7 SWAP6 POP POP POP POP POP POP JUMP JUMPDEST PUSH1 0x0 PUSH1 0x20 DUP1 DUP4 MSTORE DUP4 MLOAD DUP1 DUP3 DUP6 ADD MSTORE PUSH1 0x0 JUMPDEST DUP2 DUP2 LT ISZERO PUSH2 0x81F JUMPI DUP6 DUP2 ADD DUP4 ADD MLOAD DUP6 DUP3 ADD PUSH1 0x40 ADD MSTORE DUP3 ADD PUSH2 0x803 JUMP JUMPDEST POP PUSH1 0x0 PUSH1 0x40 DUP3 DUP7 ADD ADD MSTORE PUSH1 0x40 PUSH32 0xFFFFFFFFFFFFFFFFFFFFFFFFFFFFFFFFFFFFFFFFFFFFFFFFFFFFFFFFFFFFFFE0 PUSH1 0x1F DUP4 ADD AND DUP6 ADD ADD SWAP3 POP POP POP SWAP3 SWAP2 POP POP JUMP JUMPDEST PUSH1 0x0 PUSH1 0x20 DUP3 DUP5 SUB SLT ISZERO PUSH2 0x870 JUMPI PUSH1 0x0 DUP1 REVERT JUMPDEST PUSH2 0x754 DUP3 PUSH2 0x75B JUMP JUMPDEST PUSH1 0x0 PUSH1 0x20 DUP3 DUP5 SUB SLT ISZERO PUSH2 0x88B JUMPI PUSH1 0x0 DUP1 REVERT JUMPDEST POP MLOAD SWAP2 SWAP1 POP JUMP JUMPDEST PUSH1 0x0 PUSH1 0x20 DUP3 DUP5 SUB SLT ISZERO PUSH2 0x8A4 JUMPI PUSH1 0x0 DUP1 REVERT JUMPDEST DUP2 MLOAD DUP1 ISZERO ISZERO DUP2 EQ PUSH2 0x754 JUMPI PUSH1 0x0 DUP1 REVERT JUMPDEST PUSH32 0x4E487B7100000000000000000000000000000000000000000000000000000000 PUSH1 0x0 MSTORE PUSH1 0x41 PUSH1 0x4 MSTORE PUSH1 0x24 PUSH1 0x0 REVERT JUMPDEST PUSH32 0x4E487B7100000000000000000000000000000000000000000000000000000000 PUSH1 0x0 MSTORE PUSH1 0x32 PUSH1 0x4 MSTORE PUSH1 0x24 PUSH1 0x0 REVERT JUMPDEST PUSH1 0x0 DUP2 MLOAD DUP1 DUP5 MSTORE PUSH1 0x20 DUP1 DUP6 ADD SWAP5 POP DUP1 DUP5 ADD PUSH1 0x0 JUMPDEST DUP4 DUP2 LT ISZERO PUSH2 0x958 JUMPI DUP2 MLOAD PUSH20 0xFFFFFFFFFFFFFFFFFFFFFFFFFFFFFFFFFFFFFFFF AND DUP8 MSTORE SWAP6 DUP3 ADD SWAP6 SWAP1 DUP3 ADD SWAP1 PUSH1 0x1 ADD PUSH2 0x926 JUMP JUMPDEST POP SWAP5 SWAP6 SWAP5 POP POP POP POP POP JUMP JUMPDEST DUP6 DUP2 MSTORE DUP5 PUSH1 0x20 DUP3 ADD MSTORE PUSH1 0xA0 PUSH1 0x40 DUP3 ADD MSTORE PUSH1 0x0 PUSH2 0x982 PUSH1 0xA0 DUP4 ADD DUP7 PUSH2 0x912 JUMP JUMPDEST PUSH20 0xFFFFFFFFFFFFFFFFFFFFFFFFFFFFFFFFFFFFFFFF SWAP5 SWAP1 SWAP5 AND PUSH1 0x60 DUP4 ADD MSTORE POP PUSH1 0x80 ADD MSTORE SWAP4 SWAP3 POP POP POP JUMP JUMPDEST PUSH1 0x0 PUSH1 0x20 DUP1 DUP4 DUP6 SUB SLT ISZERO PUSH2 0x9BF JUMPI PUSH1 0x0 DUP1 REVERT JUMPDEST DUP3 MLOAD PUSH8 0xFFFFFFFFFFFFFFFF DUP1 DUP3 GT ISZERO PUSH2 0x9D7 JUMPI PUSH1 0x0 DUP1 REVERT JUMPDEST DUP2 DUP6 ADD SWAP2 POP DUP6 PUSH1 0x1F DUP4 ADD SLT PUSH2 0x9EB JUMPI PUSH1 0x0 DUP1 REVERT JUMPDEST DUP2 MLOAD DUP2 DUP2 GT ISZERO PUSH2 0x9FD JUMPI PUSH2 0x9FD PUSH2 0x8B4 JUMP JUMPDEST DUP1 PUSH1 0x5 SHL PUSH1 0x40 MLOAD PUSH32 0xFFFFFFFFFFFFFFFFFFFFFFFFFFFFFFFFFFFFFFFFFFFFFFFFFFFFFFFFFFFFFFE0 PUSH1 0x3F DUP4 ADD AND DUP2 ADD DUP2 DUP2 LT DUP6 DUP3 GT OR ISZERO PUSH2 0xA40 JUMPI PUSH2 0xA40 PUSH2 0x8B4 JUMP JUMPDEST PUSH1 0x40 MSTORE SWAP2 DUP3 MSTORE DUP5 DUP3 ADD SWAP3 POP DUP4 DUP2 ADD DUP6 ADD SWAP2 DUP9 DUP4 GT ISZERO PUSH2 0xA5E JUMPI PUSH1 0x0 DUP1 REVERT JUMPDEST SWAP4 DUP6 ADD SWAP4 JUMPDEST DUP3 DUP6 LT ISZERO PUSH2 0xA7C JUMPI DUP5 MLOAD DUP5 MSTORE SWAP4 DUP6 ADD SWAP4 SWAP3 DUP6 ADD SWAP3 PUSH2 0xA63 JUMP JUMPDEST SWAP9 SWAP8 POP POP POP POP POP POP POP POP JUMP JUMPDEST DUP5 DUP2 MSTORE PUSH1 0x80 PUSH1 0x20 DUP3 ADD MSTORE PUSH1 0x0 PUSH2 0xAA1 PUSH1 0x80 DUP4 ADD DUP7 PUSH2 0x912 JUMP JUMPDEST PUSH20 0xFFFFFFFFFFFFFFFFFFFFFFFFFFFFFFFFFFFFFFFF SWAP5 SWAP1 SWAP5 AND PUSH1 0x40 DUP4 ADD MSTORE POP PUSH1 0x60 ADD MSTORE SWAP3 SWAP2 POP POP JUMP INVALID LOG2 PUSH5 0x6970667358 0x22 SLT KECCAK256 0xD1 KECCAK256 CREATE DUP9 0xB7 LOG4 GASLIMIT 0x1E RETURNDATACOPY PUSH21 0xFF4ED227B3ECCDAD1819072D0EB2116849AD26C1D1 0xC4 PUSH5 0x736F6C6343 STOP ADDMOD SLT STOP CALLER "
				},
				"gasEstimates": {
					"creation": {
						"codeDepositCost": "563200",
						"executionCost": "594",
						"totalCost": "563794"
					},
					"external": {
						"": "157",
						"Name()": "infinite",
						"SwapExactMATICForToken(address)": "infinite",
						"SwapExactTokenForMATIC(address,uint256)": "infinite"
					}
				},
				"methodIdentifiers": {
					"Name()": "8052474d",
					"SwapExactMATICForToken(address)": "846114d5",
					"SwapExactTokenForMATIC(address,uint256)": "469d6d36"
				}
			},
			"storageLayout": {
				"storage": [],
				"types": null
			},
			"userdoc": {
				"kind": "user",
				"methods": {},
				"version": 1
			}
		}
	}
}