{
	"contracts/Parent.sol": {
		"Parent": {
			"abi": [
				{
					"anonymous": false,
					"inputs": [
						{
							"indexed": true,
							"internalType": "string",
							"name": "_iname",
							"type": "string"
						},
						{
							"indexed": false,
							"internalType": "string",
							"name": "_name",
							"type": "string"
						},
						{
							"indexed": false,
							"internalType": "address",
							"name": "_address",
							"type": "address"
						}
					],
					"name": "ContractAddition",
					"type": "event"
				},
				{
					"anonymous": false,
					"inputs": [
						{
							"indexed": true,
							"internalType": "string",
							"name": "_iname",
							"type": "string"
						},
						{
							"indexed": false,
							"internalType": "string",
							"name": "_name",
							"type": "string"
						}
					],
					"name": "ContractRemoval",
					"type": "event"
				},
				{
					"anonymous": false,
					"inputs": [
						{
							"indexed": true,
							"internalType": "string",
							"name": "_iname",
							"type": "string"
						},
						{
							"indexed": false,
							"internalType": "string",
							"name": "_name",
							"type": "string"
						},
						{
							"indexed": false,
							"internalType": "address",
							"name": "_address",
							"type": "address"
						}
					],
					"name": "ContractUpdate",
					"type": "event"
				},
				{
					"anonymous": false,
					"inputs": [
						{
							"indexed": true,
							"internalType": "address",
							"name": "_from",
							"type": "address"
						},
						{
							"indexed": true,
							"internalType": "address",
							"name": "_to",
							"type": "address"
						}
					],
					"name": "OwnershipChange",
					"type": "event"
				},
				{
					"stateMutability": "payable",
					"type": "fallback"
				},
				{
					"inputs": [],
					"name": "AcceptOwnership",
					"outputs": [
						{
							"internalType": "bool",
							"name": "",
							"type": "bool"
						}
					],
					"stateMutability": "nonpayable",
					"type": "function"
				},
				{
					"inputs": [
						{
							"internalType": "string",
							"name": "_name",
							"type": "string"
						},
						{
							"internalType": "address",
							"name": "_address",
							"type": "address"
						}
					],
					"name": "AddContract",
					"outputs": [
						{
							"internalType": "bool",
							"name": "",
							"type": "bool"
						}
					],
					"stateMutability": "nonpayable",
					"type": "function"
				},
				{
					"inputs": [
						{
							"internalType": "address",
							"name": "_newOwner",
							"type": "address"
						}
					],
					"name": "ChangeOwnership",
					"outputs": [
						{
							"internalType": "bool",
							"name": "",
							"type": "bool"
						}
					],
					"stateMutability": "nonpayable",
					"type": "function"
				},
				{
					"inputs": [
						{
							"internalType": "string",
							"name": "_name",
							"type": "string"
						}
					],
					"name": "GetContractAddress",
					"outputs": [
						{
							"internalType": "address",
							"name": "",
							"type": "address"
						}
					],
					"stateMutability": "view",
					"type": "function"
				},
				{
					"inputs": [
						{
							"internalType": "address",
							"name": "_address",
							"type": "address"
						}
					],
					"name": "GetContractName",
					"outputs": [
						{
							"internalType": "string",
							"name": "",
							"type": "string"
						}
					],
					"stateMutability": "view",
					"type": "function"
				},
				{
					"inputs": [],
					"name": "GetMATIC",
					"outputs": [
						{
							"internalType": "address",
							"name": "",
							"type": "address"
						}
					],
					"stateMutability": "pure",
					"type": "function"
				},
				{
					"inputs": [],
					"name": "GetOwner",
					"outputs": [
						{
							"internalType": "address",
							"name": "",
							"type": "address"
						}
					],
					"stateMutability": "view",
					"type": "function"
				},
				{
					"inputs": [],
					"name": "GetWMATIC",
					"outputs": [
						{
							"internalType": "address",
							"name": "",
							"type": "address"
						}
					],
					"stateMutability": "pure",
					"type": "function"
				},
				{
					"inputs": [
						{
							"internalType": "string",
							"name": "_name",
							"type": "string"
						}
					],
					"name": "RemoveContract",
					"outputs": [
						{
							"internalType": "bool",
							"name": "",
							"type": "bool"
						}
					],
					"stateMutability": "nonpayable",
					"type": "function"
				},
				{
					"inputs": [
						{
							"internalType": "string",
							"name": "_name",
							"type": "string"
						},
						{
							"internalType": "address",
							"name": "_address",
							"type": "address"
						}
					],
					"name": "UpdateContract",
					"outputs": [
						{
							"internalType": "bool",
							"name": "",
							"type": "bool"
						}
					],
					"stateMutability": "nonpayable",
					"type": "function"
				},
				{
					"stateMutability": "payable",
					"type": "receive"
				}
			],
			"devdoc": {
				"kind": "dev",
				"methods": {},
				"version": 1
			},
			"evm": {
				"assembly": "    /* \"contracts/Parent.sol\":147:5606  contract Parent{... */\n  mstore(0x40, 0x80)\n    /* \"contracts/Parent.sol\":843:877  address private owner = msg.sender */\n  0x00\n  dup1\n  sload\n    /* \"contracts/Parent.sol\":867:877  msg.sender */\n  caller\n  not(sub(shl(0xa0, 0x01), 0x01))\n    /* \"contracts/Parent.sol\":843:877  address private owner = msg.sender */\n  swap2\n  dup3\n  and\n  dup2\n  or\n  swap1\n  swap3\n  sstore\n  0x01\n    /* \"contracts/Parent.sol\":884:921  address private newOwner = msg.sender */\n  dup1\n  sload\n  swap1\n  swap2\n  and\n  swap1\n  swap2\n  or\n  swap1\n  sstore\n    /* \"contracts/Parent.sol\":147:5606  contract Parent{... */\n  callvalue\n  dup1\n  iszero\n  tag_1\n  jumpi\n  0x00\n  dup1\n  revert\ntag_1:\n  pop\n  dataSize(sub_0)\n  dup1\n  dataOffset(sub_0)\n  0x00\n  codecopy\n  0x00\n  return\nstop\n\nsub_0: assembly {\n        /* \"contracts/Parent.sol\":147:5606  contract Parent{... */\n      mstore(0x40, 0x80)\n      jumpi(tag_1, lt(calldatasize, 0x04))\n      shr(0xe0, calldataload(0x00))\n      dup1\n      0x95fcd692\n      gt\n      tag_13\n      jumpi\n      dup1\n      0xc75ffd86\n      gt\n      tag_14\n      jumpi\n      dup1\n      0xc75ffd86\n      eq\n      tag_10\n      jumpi\n      dup1\n      0xe666cdef\n      eq\n      tag_11\n      jumpi\n      dup1\n      0xee5503d0\n      eq\n      tag_12\n      jumpi\n      stop\n    tag_14:\n      dup1\n      0x95fcd692\n      eq\n      tag_8\n      jumpi\n      dup1\n      0xbc303370\n      eq\n      tag_9\n      jumpi\n      stop\n    tag_13:\n      dup1\n      0x244ded7a\n      gt\n      tag_15\n      jumpi\n      dup1\n      0x244ded7a\n      eq\n      tag_5\n      jumpi\n      dup1\n      0x3fab62ba\n      eq\n      tag_6\n      jumpi\n      dup1\n      0x8a547437\n      eq\n      tag_7\n      jumpi\n      stop\n    tag_15:\n      dup1\n      0x098e3bb0\n      eq\n      tag_3\n      jumpi\n      dup1\n      0x0ae50a39\n      eq\n      tag_4\n      jumpi\n      stop\n    tag_1:\n      jumpi(tag_2, calldatasize)\n      stop\n    tag_2:\n      stop\n        /* \"contracts/Parent.sol\":3363:4193  function AddContract(string calldata _name, address _address) public ownerOnly returns(bool){... */\n    tag_3:\n      callvalue\n      dup1\n      iszero\n      tag_20\n      jumpi\n      0x00\n      dup1\n      revert\n    tag_20:\n      pop\n      tag_21\n      tag_22\n      calldatasize\n      0x04\n      tag_23\n      jump\t// in\n    tag_22:\n      tag_24\n      jump\t// in\n    tag_21:\n      mload(0x40)\n        /* \"#utility.yul\":1223:1237   */\n      swap1\n      iszero\n        /* \"#utility.yul\":1216:1238   */\n      iszero\n        /* \"#utility.yul\":1198:1239   */\n      dup2\n      mstore\n        /* \"#utility.yul\":1186:1188   */\n      0x20\n        /* \"#utility.yul\":1171:1189   */\n      add\n        /* \"contracts/Parent.sol\":3363:4193  function AddContract(string calldata _name, address _address) public ownerOnly returns(bool){... */\n    tag_25:\n      mload(0x40)\n      dup1\n      swap2\n      sub\n      swap1\n      return\n        /* \"contracts/Parent.sol\":2268:2349  function GetOwner() public view returns(address){... */\n    tag_4:\n      callvalue\n      dup1\n      iszero\n      tag_27\n      jumpi\n      0x00\n      dup1\n      revert\n    tag_27:\n      pop\n        /* \"contracts/Parent.sol\":2308:2315  address */\n      0x00\n        /* \"contracts/Parent.sol\":2336:2341  owner */\n      sload\n      0xffffffffffffffffffffffffffffffffffffffff\n      and\n        /* \"contracts/Parent.sol\":2268:2349  function GetOwner() public view returns(address){... */\n    tag_28:\n      mload(0x40)\n        /* \"#utility.yul\":1426:1468   */\n      0xffffffffffffffffffffffffffffffffffffffff\n        /* \"#utility.yul\":1414:1469   */\n      swap1\n      swap2\n      and\n        /* \"#utility.yul\":1396:1470   */\n      dup2\n      mstore\n        /* \"#utility.yul\":1384:1386   */\n      0x20\n        /* \"#utility.yul\":1369:1387   */\n      add\n        /* \"contracts/Parent.sol\":2268:2349  function GetOwner() public view returns(address){... */\n      tag_25\n        /* \"#utility.yul\":1250:1476   */\n      jump\n        /* \"contracts/Parent.sol\":2914:3053  function ChangeOwnership(address _newOwner) public ownerOnly returns(bool){... */\n    tag_5:\n      callvalue\n      dup1\n      iszero\n      tag_32\n      jumpi\n      0x00\n      dup1\n      revert\n    tag_32:\n      pop\n      tag_21\n      tag_34\n      calldatasize\n      0x04\n      tag_35\n      jump\t// in\n    tag_34:\n      tag_36\n      jump\t// in\n        /* \"contracts/Parent.sol\":3061:3349  function AcceptOwnership() public returns(bool){... */\n    tag_6:\n      callvalue\n      dup1\n      iszero\n      tag_38\n      jumpi\n      0x00\n      dup1\n      revert\n    tag_38:\n      pop\n      tag_21\n      tag_40\n      jump\t// in\n        /* \"contracts/Parent.sol\":5099:5442  function RemoveContract(string calldata _name) public ownerOnly returns(bool){... */\n    tag_7:\n      callvalue\n      dup1\n      iszero\n      tag_42\n      jumpi\n      0x00\n      dup1\n      revert\n    tag_42:\n      pop\n      tag_21\n      tag_44\n      calldatasize\n      0x04\n      tag_45\n      jump\t// in\n    tag_44:\n      tag_46\n      jump\t// in\n        /* \"contracts/Parent.sol\":2498:2626  function GetContractName(address _address) public view returns(string memory){... */\n    tag_8:\n      callvalue\n      dup1\n      iszero\n      tag_48\n      jumpi\n      0x00\n      dup1\n      revert\n    tag_48:\n      pop\n      tag_49\n      tag_50\n      calldatasize\n      0x04\n      tag_35\n      jump\t// in\n    tag_50:\n      tag_51\n      jump\t// in\n    tag_49:\n      mload(0x40)\n      tag_25\n      swap2\n      swap1\n      tag_53\n      jump\t// in\n        /* \"contracts/Parent.sol\":4201:5091  function UpdateContract(string calldata _name, address _address) public ownerOnly returns(bool){... */\n    tag_9:\n      callvalue\n      dup1\n      iszero\n      tag_54\n      jumpi\n      0x00\n      dup1\n      revert\n    tag_54:\n      pop\n      tag_21\n      tag_56\n      calldatasize\n      0x04\n      tag_23\n      jump\t// in\n    tag_56:\n      tag_57\n      jump\t// in\n        /* \"contracts/Parent.sol\":2363:2490  function GetContractAddress(string calldata _name) public view returns(address){... */\n    tag_10:\n      callvalue\n      dup1\n      iszero\n      tag_59\n      jumpi\n      0x00\n      dup1\n      revert\n    tag_59:\n      pop\n      tag_28\n      tag_61\n      calldatasize\n      0x04\n      tag_45\n      jump\t// in\n    tag_61:\n      tag_62\n      jump\t// in\n        /* \"contracts/Parent.sol\":2729:2812  function GetWMATIC() public pure returns(address){... */\n    tag_11:\n      callvalue\n      dup1\n      iszero\n      tag_64\n      jumpi\n      0x00\n      dup1\n      revert\n    tag_64:\n      pop\n        /* \"contracts/Parent.sol\":1052:1094  0x9c3C9283D3e44854697Cd22D3Faa240Cfb032889 */\n      0x9c3c9283d3e44854697cd22d3faa240cfb032889\n        /* \"contracts/Parent.sol\":2729:2812  function GetWMATIC() public pure returns(address){... */\n      jump(tag_28)\n        /* \"contracts/Parent.sol\":2640:2721  function GetMATIC() public pure returns(address){... */\n    tag_12:\n      callvalue\n      dup1\n      iszero\n      tag_68\n      jumpi\n      0x00\n      dup1\n      revert\n    tag_68:\n      pop\n        /* \"contracts/Parent.sol\":969:1011  0x0000000000000000000000000000000000001010 */\n      0x1010\n        /* \"contracts/Parent.sol\":2640:2721  function GetMATIC() public pure returns(address){... */\n      jump(tag_28)\n        /* \"contracts/Parent.sol\":3363:4193  function AddContract(string calldata _name, address _address) public ownerOnly returns(bool){... */\n    tag_24:\n        /* \"contracts/Parent.sol\":3450:3454  bool */\n      0x00\n        /* \"contracts/Parent.sol\":1871:1876  owner */\n      dup1\n      sload\n        /* \"contracts/Parent.sol\":1871:1890  owner != msg.sender */\n      0xffffffffffffffffffffffffffffffffffffffff\n        /* \"contracts/Parent.sol\":1871:1876  owner */\n      and\n        /* \"contracts/Parent.sol\":1880:1890  msg.sender */\n      caller\n        /* \"contracts/Parent.sol\":1871:1890  owner != msg.sender */\n      eq\n        /* \"contracts/Parent.sol\":1868:1925  if(owner != msg.sender)... */\n      tag_73\n      jumpi\n        /* \"contracts/Parent.sol\":1905:1925  revert(\"Owner only\") */\n      mload(0x40)\n      0x08c379a000000000000000000000000000000000000000000000000000000000\n      dup2\n      mstore\n        /* \"#utility.yul\":3005:3007   */\n      0x20\n        /* \"contracts/Parent.sol\":1905:1925  revert(\"Owner only\") */\n      0x04\n      dup3\n      add\n        /* \"#utility.yul\":2987:3008   */\n      mstore\n        /* \"#utility.yul\":3044:3046   */\n      0x0a\n        /* \"#utility.yul\":3024:3042   */\n      0x24\n      dup3\n      add\n        /* \"#utility.yul\":3017:3047   */\n      mstore\n        /* \"#utility.yul\":3083:3095   */\n      0x4f776e6572206f6e6c7900000000000000000000000000000000000000000000\n        /* \"#utility.yul\":3063:3081   */\n      0x44\n      dup3\n      add\n        /* \"#utility.yul\":3056:3096   */\n      mstore\n        /* \"#utility.yul\":3113:3131   */\n      0x64\n      add\n        /* \"contracts/Parent.sol\":1905:1925  revert(\"Owner only\") */\n    tag_74:\n      mload(0x40)\n      dup1\n      swap2\n      sub\n      swap1\n      revert\n        /* \"contracts/Parent.sol\":1868:1925  if(owner != msg.sender)... */\n    tag_73:\n        /* \"contracts/Parent.sol\":1945:1953  newOwner */\n      0x01\n        /* \"contracts/Parent.sol\":1938:1953  delete newOwner */\n      dup1\n      sload\n      0xffffffffffffffffffffffff0000000000000000000000000000000000000000\n      and\n      swap1\n      sstore\n        /* \"contracts/Parent.sol\":3471:3491  nameToAddress[_name] */\n      mload(0x40)\n        /* \"contracts/Parent.sol\":1945:1953  newOwner */\n      0x00\n      swap1\n        /* \"contracts/Parent.sol\":3471:3484  nameToAddress */\n      0x02\n      swap1\n        /* \"contracts/Parent.sol\":3471:3491  nameToAddress[_name] */\n      tag_77\n      swap1\n        /* \"contracts/Parent.sol\":3485:3490  _name */\n      dup8\n      swap1\n      dup8\n      swap1\n        /* \"contracts/Parent.sol\":3471:3491  nameToAddress[_name] */\n      tag_78\n      jump\t// in\n    tag_77:\n      swap1\n      dup2\n      mstore\n      mload(0x40)\n      swap1\n      dup2\n      swap1\n      sub\n      0x20\n      add\n      swap1\n      keccak256\n      sload\n      0xffffffffffffffffffffffffffffffffffffffff\n      and\n        /* \"contracts/Parent.sol\":3471:3505  nameToAddress[_name] != address(0) */\n      eq\n        /* \"contracts/Parent.sol\":3468:3698  if(nameToAddress[_name] != address(0))... */\n      tag_79\n      jumpi\n        /* \"contracts/Parent.sol\":3520:3547  revert(\"Name already used\") */\n      mload(0x40)\n      0x08c379a000000000000000000000000000000000000000000000000000000000\n      dup2\n      mstore\n        /* \"#utility.yul\":3622:3624   */\n      0x20\n        /* \"contracts/Parent.sol\":3520:3547  revert(\"Name already used\") */\n      0x04\n      dup3\n      add\n        /* \"#utility.yul\":3604:3625   */\n      mstore\n        /* \"#utility.yul\":3661:3663   */\n      0x11\n        /* \"#utility.yul\":3641:3659   */\n      0x24\n      dup3\n      add\n        /* \"#utility.yul\":3634:3664   */\n      mstore\n        /* \"#utility.yul\":3700:3719   */\n      0x4e616d6520616c72656164792075736564000000000000000000000000000000\n        /* \"#utility.yul\":3680:3698   */\n      0x44\n      dup3\n      add\n        /* \"#utility.yul\":3673:3720   */\n      mstore\n        /* \"#utility.yul\":3737:3755   */\n      0x64\n      add\n        /* \"contracts/Parent.sol\":3520:3547  revert(\"Name already used\") */\n      tag_74\n        /* \"#utility.yul\":3420:3761   */\n      jump\n        /* \"contracts/Parent.sol\":3468:3698  if(nameToAddress[_name] != address(0))... */\n    tag_79:\n        /* \"contracts/Parent.sol\":3632:3652  abi.encodePacked(\"\") */\n      0x40\n      dup1\n      mload\n      0x00\n      dup1\n      dup3\n      mstore\n      0x20\n      dup1\n      dup4\n      add\n      dup1\n      dup6\n      mstore\n        /* \"contracts/Parent.sol\":3622:3653  keccak256(abi.encodePacked(\"\")) */\n      dup4\n      mload\n      swap1\n      keccak256\n        /* \"contracts/Parent.sol\":3593:3616  addressToName[_address] */\n      0xffffffffffffffffffffffffffffffffffffffff\n      dup8\n      and\n      dup4\n      mstore\n        /* \"contracts/Parent.sol\":3593:3606  addressToName */\n      0x03\n        /* \"contracts/Parent.sol\":3593:3616  addressToName[_address] */\n      swap1\n      swap2\n      mstore\n      swap1\n      dup4\n      swap1\n      keccak256\n        /* \"contracts/Parent.sol\":3622:3653  keccak256(abi.encodePacked(\"\")) */\n      swap1\n      swap3\n        /* \"contracts/Parent.sol\":3576:3617  abi.encodePacked(addressToName[_address]) */\n      tag_85\n      swap3\n      add\n      tag_86\n      jump\t// in\n    tag_85:\n      mload(0x40)\n      0x20\n      dup2\n      dup4\n      sub\n      sub\n      dup2\n      mstore\n      swap1\n      0x40\n      mstore\n        /* \"contracts/Parent.sol\":3566:3618  keccak256(abi.encodePacked(addressToName[_address])) */\n      dup1\n      mload\n      swap1\n      0x20\n      add\n      keccak256\n        /* \"contracts/Parent.sol\":3566:3653  keccak256(abi.encodePacked(addressToName[_address])) != keccak256(abi.encodePacked(\"\")) */\n      eq\n        /* \"contracts/Parent.sol\":3563:3698  if(keccak256(abi.encodePacked(addressToName[_address])) != keccak256(abi.encodePacked(\"\")))... */\n      tag_87\n      jumpi\n        /* \"contracts/Parent.sol\":3668:3698  revert(\"Address already used\") */\n      mload(0x40)\n      0x08c379a000000000000000000000000000000000000000000000000000000000\n      dup2\n      mstore\n        /* \"#utility.yul\":5652:5654   */\n      0x20\n        /* \"contracts/Parent.sol\":3668:3698  revert(\"Address already used\") */\n      0x04\n      dup3\n      add\n        /* \"#utility.yul\":5634:5655   */\n      mstore\n        /* \"#utility.yul\":5691:5693   */\n      0x14\n        /* \"#utility.yul\":5671:5689   */\n      0x24\n      dup3\n      add\n        /* \"#utility.yul\":5664:5694   */\n      mstore\n        /* \"#utility.yul\":5730:5752   */\n      0x4164647265737320616c72656164792075736564000000000000000000000000\n        /* \"#utility.yul\":5710:5728   */\n      0x44\n      dup3\n      add\n        /* \"#utility.yul\":5703:5753   */\n      mstore\n        /* \"#utility.yul\":5770:5788   */\n      0x64\n      add\n        /* \"contracts/Parent.sol\":3668:3698  revert(\"Address already used\") */\n      tag_74\n        /* \"#utility.yul\":5450:5794   */\n      jump\n        /* \"contracts/Parent.sol\":3563:3698  if(keccak256(abi.encodePacked(addressToName[_address])) != keccak256(abi.encodePacked(\"\")))... */\n    tag_87:\n        /* \"contracts/Parent.sol\":3750:3771  extcodesize(_address) */\n      dup2\n      extcodesize\n        /* \"contracts/Parent.sol\":3787:3796  size == 0 */\n      0xffffffff\n      dup2\n      and\n        /* \"contracts/Parent.sol\":3711:3722  uint32 size */\n      0x00\n        /* \"contracts/Parent.sol\":3787:3796  size == 0 */\n      sub\n        /* \"contracts/Parent.sol\":3784:3835  if(size == 0)... */\n      tag_90\n      jumpi\n        /* \"contracts/Parent.sol\":3811:3835  revert(\"Not a contract\") */\n      mload(0x40)\n      0x08c379a000000000000000000000000000000000000000000000000000000000\n      dup2\n      mstore\n        /* \"#utility.yul\":6001:6003   */\n      0x20\n        /* \"contracts/Parent.sol\":3811:3835  revert(\"Not a contract\") */\n      0x04\n      dup3\n      add\n        /* \"#utility.yul\":5983:6004   */\n      mstore\n        /* \"#utility.yul\":6040:6042   */\n      0x0e\n        /* \"#utility.yul\":6020:6038   */\n      0x24\n      dup3\n      add\n        /* \"#utility.yul\":6013:6043   */\n      mstore\n        /* \"#utility.yul\":6079:6095   */\n      0x4e6f74206120636f6e7472616374000000000000000000000000000000000000\n        /* \"#utility.yul\":6059:6077   */\n      0x44\n      dup3\n      add\n        /* \"#utility.yul\":6052:6096   */\n      mstore\n        /* \"#utility.yul\":6113:6131   */\n      0x64\n      add\n        /* \"contracts/Parent.sol\":3811:3835  revert(\"Not a contract\") */\n      tag_74\n        /* \"#utility.yul\":5799:6137   */\n      jump\n        /* \"contracts/Parent.sol\":3784:3835  if(size == 0)... */\n    tag_90:\n        /* \"contracts/Parent.sol\":3848:3866  string memory name */\n      0x00\n        /* \"contracts/Parent.sol\":3877:3885  _address */\n      dup4\n        /* \"contracts/Parent.sol\":3869:3891  IGlobal(_address).Name */\n      0xffffffffffffffffffffffffffffffffffffffff\n      and\n      0x8052474d\n        /* \"contracts/Parent.sol\":3869:3893  IGlobal(_address).Name() */\n      mload(0x40)\n      dup2\n      0xffffffff\n      and\n      0xe0\n      shl\n      dup2\n      mstore\n      0x04\n      add\n      0x00\n      mload(0x40)\n      dup1\n      dup4\n      sub\n      dup2\n      dup7\n      gas\n      staticcall\n      iszero\n      dup1\n      iszero\n      tag_94\n      jumpi\n      returndatasize\n      0x00\n      dup1\n      returndatacopy\n      revert(0x00, returndatasize)\n    tag_94:\n      pop\n      pop\n      pop\n      pop\n      mload(0x40)\n      returndatasize\n      0x00\n      dup3\n      returndatacopy\n      0x1f\n      returndatasize\n      swap1\n      dup2\n      add\n      0xffffffffffffffffffffffffffffffffffffffffffffffffffffffffffffffe0\n      and\n      dup3\n      add\n      0x40\n      mstore\n      tag_95\n      swap2\n      swap1\n      dup2\n      add\n      swap1\n      tag_96\n      jump\t// in\n    tag_95:\n        /* \"contracts/Parent.sol\":3848:3893  string memory name = IGlobal(_address).Name() */\n      swap1\n      pop\n        /* \"contracts/Parent.sol\":3974:3978  name */\n      dup1\n        /* \"contracts/Parent.sol\":3957:3979  abi.encodePacked(name) */\n      add(0x20, mload(0x40))\n      tag_97\n      swap2\n      swap1\n      tag_98\n      jump\t// in\n    tag_97:\n      mload(0x40)\n      0x20\n      dup2\n      dup4\n      sub\n      sub\n      dup2\n      mstore\n      swap1\n      0x40\n      mstore\n        /* \"contracts/Parent.sol\":3947:3980  keccak256(abi.encodePacked(name)) */\n      dup1\n      mload\n      swap1\n      0x20\n      add\n      keccak256\n        /* \"contracts/Parent.sol\":3936:3941  _name */\n      dup7\n      dup7\n        /* \"contracts/Parent.sol\":3919:3942  abi.encodePacked(_name) */\n      add(0x20, mload(0x40))\n      tag_99\n      swap3\n      swap2\n      swap1\n      tag_78\n      jump\t// in\n    tag_99:\n      mload(0x40)\n      0x20\n      dup2\n      dup4\n      sub\n      sub\n      dup2\n      mstore\n      swap1\n      0x40\n      mstore\n        /* \"contracts/Parent.sol\":3909:3943  keccak256(abi.encodePacked(_name)) */\n      dup1\n      mload\n      swap1\n      0x20\n      add\n      keccak256\n        /* \"contracts/Parent.sol\":3909:3980  keccak256(abi.encodePacked(_name)) != keccak256(abi.encodePacked(name)) */\n      eq\n        /* \"contracts/Parent.sol\":3906:4019  if(keccak256(abi.encodePacked(_name)) != keccak256(abi.encodePacked(name)))... */\n      tag_100\n      jumpi\n        /* \"contracts/Parent.sol\":3995:4019  revert(\"Names mismatch\") */\n      mload(0x40)\n      0x08c379a000000000000000000000000000000000000000000000000000000000\n      dup2\n      mstore\n        /* \"#utility.yul\":7788:7790   */\n      0x20\n        /* \"contracts/Parent.sol\":3995:4019  revert(\"Names mismatch\") */\n      0x04\n      dup3\n      add\n        /* \"#utility.yul\":7770:7791   */\n      mstore\n        /* \"#utility.yul\":7827:7829   */\n      0x0e\n        /* \"#utility.yul\":7807:7825   */\n      0x24\n      dup3\n      add\n        /* \"#utility.yul\":7800:7830   */\n      mstore\n        /* \"#utility.yul\":7866:7882   */\n      0x4e616d6573206d69736d61746368000000000000000000000000000000000000\n        /* \"#utility.yul\":7846:7864   */\n      0x44\n      dup3\n      add\n        /* \"#utility.yul\":7839:7883   */\n      mstore\n        /* \"#utility.yul\":7900:7918   */\n      0x64\n      add\n        /* \"contracts/Parent.sol\":3995:4019  revert(\"Names mismatch\") */\n      tag_74\n        /* \"#utility.yul\":7586:7924   */\n      jump\n        /* \"contracts/Parent.sol\":3906:4019  if(keccak256(abi.encodePacked(_name)) != keccak256(abi.encodePacked(name)))... */\n    tag_100:\n        /* \"contracts/Parent.sol\":4055:4063  _address */\n      dup4\n        /* \"contracts/Parent.sol\":4032:4045  nameToAddress */\n      0x02\n        /* \"contracts/Parent.sol\":4046:4051  _name */\n      dup8\n      dup8\n        /* \"contracts/Parent.sol\":4032:4052  nameToAddress[_name] */\n      mload(0x40)\n      tag_103\n      swap3\n      swap2\n      swap1\n      tag_78\n      jump\t// in\n    tag_103:\n      swap1\n      dup2\n      mstore\n      0x40\n      dup1\n      mload\n      0x20\n      swap3\n      dup2\n      swap1\n      sub\n      dup4\n      add\n      swap1\n      keccak256\n        /* \"contracts/Parent.sol\":4032:4063  nameToAddress[_name] = _address */\n      dup1\n      sload\n      0xffffffffffffffffffffffff0000000000000000000000000000000000000000\n      and\n      0xffffffffffffffffffffffffffffffffffffffff\n      swap5\n      dup6\n      and\n      or\n      swap1\n      sstore\n        /* \"contracts/Parent.sol\":4074:4097  addressToName[_address] */\n      swap2\n      dup7\n      and\n      0x00\n      swap1\n      dup2\n      mstore\n        /* \"contracts/Parent.sol\":4074:4087  addressToName */\n      0x03\n        /* \"contracts/Parent.sol\":4074:4097  addressToName[_address] */\n      swap1\n      swap2\n      mstore\n      keccak256\n        /* \"contracts/Parent.sol\":4074:4105  addressToName[_address] = _name */\n      tag_104\n        /* \"contracts/Parent.sol\":4100:4105  _name */\n      dup7\n      dup9\n        /* \"contracts/Parent.sol\":4074:4097  addressToName[_address] */\n      dup4\n        /* \"contracts/Parent.sol\":4074:4105  addressToName[_address] = _name */\n      tag_105\n      jump\t// in\n    tag_104:\n      pop\n        /* \"contracts/Parent.sol\":4140:4145  _name */\n      dup6\n      dup6\n        /* \"contracts/Parent.sol\":4123:4163  ContractAddition(_name, _name, _address) */\n      mload(0x40)\n      tag_106\n      swap3\n      swap2\n      swap1\n      tag_78\n      jump\t// in\n    tag_106:\n      mload(0x40)\n      dup1\n      swap2\n      sub\n      swap1\n      keccak256\n      0xc61fb2b430498a205911ab416f331fda617468162613b83ccf1d4ac08a7ea4e8\n        /* \"contracts/Parent.sol\":4147:4152  _name */\n      dup8\n      dup8\n        /* \"contracts/Parent.sol\":4154:4162  _address */\n      dup8\n        /* \"contracts/Parent.sol\":4123:4163  ContractAddition(_name, _name, _address) */\n      mload(0x40)\n      tag_107\n      swap4\n      swap3\n      swap2\n      swap1\n      tag_108\n      jump\t// in\n    tag_107:\n      mload(0x40)\n      dup1\n      swap2\n      sub\n      swap1\n      log2\n      pop\n        /* \"contracts/Parent.sol\":4181:4185  true */\n      0x01\n      swap6\n        /* \"contracts/Parent.sol\":3363:4193  function AddContract(string calldata _name, address _address) public ownerOnly returns(bool){... */\n      swap5\n      pop\n      pop\n      pop\n      pop\n      pop\n      jump\t// out\n        /* \"contracts/Parent.sol\":2914:3053  function ChangeOwnership(address _newOwner) public ownerOnly returns(bool){... */\n    tag_36:\n        /* \"contracts/Parent.sol\":2983:2987  bool */\n      0x00\n        /* \"contracts/Parent.sol\":1871:1876  owner */\n      dup1\n      sload\n        /* \"contracts/Parent.sol\":1871:1890  owner != msg.sender */\n      0xffffffffffffffffffffffffffffffffffffffff\n        /* \"contracts/Parent.sol\":1871:1876  owner */\n      and\n        /* \"contracts/Parent.sol\":1880:1890  msg.sender */\n      caller\n        /* \"contracts/Parent.sol\":1871:1890  owner != msg.sender */\n      eq\n        /* \"contracts/Parent.sol\":1868:1925  if(owner != msg.sender)... */\n      tag_111\n      jumpi\n        /* \"contracts/Parent.sol\":1905:1925  revert(\"Owner only\") */\n      mload(0x40)\n      0x08c379a000000000000000000000000000000000000000000000000000000000\n      dup2\n      mstore\n        /* \"#utility.yul\":3005:3007   */\n      0x20\n        /* \"contracts/Parent.sol\":1905:1925  revert(\"Owner only\") */\n      0x04\n      dup3\n      add\n        /* \"#utility.yul\":2987:3008   */\n      mstore\n        /* \"#utility.yul\":3044:3046   */\n      0x0a\n        /* \"#utility.yul\":3024:3042   */\n      0x24\n      dup3\n      add\n        /* \"#utility.yul\":3017:3047   */\n      mstore\n        /* \"#utility.yul\":3083:3095   */\n      0x4f776e6572206f6e6c7900000000000000000000000000000000000000000000\n        /* \"#utility.yul\":3063:3081   */\n      0x44\n      dup3\n      add\n        /* \"#utility.yul\":3056:3096   */\n      mstore\n        /* \"#utility.yul\":3113:3131   */\n      0x64\n      add\n        /* \"contracts/Parent.sol\":1905:1925  revert(\"Owner only\") */\n      tag_74\n        /* \"#utility.yul\":2803:3137   */\n      jump\n        /* \"contracts/Parent.sol\":1868:1925  if(owner != msg.sender)... */\n    tag_111:\n      pop\n        /* \"contracts/Parent.sol\":1945:1953  newOwner */\n      0x01\n        /* \"contracts/Parent.sol\":1938:1953  delete newOwner */\n      dup1\n      sload\n      0xffffffffffffffffffffffff0000000000000000000000000000000000000000\n      and\n      0xffffffffffffffffffffffffffffffffffffffff\n        /* \"contracts/Parent.sol\":3001:3021  newOwner = _newOwner */\n      dup4\n      and\n      or\n      dup2\n      sstore\n        /* \"contracts/Parent.sol\":1964:1965  _ */\n    tag_113:\n        /* \"contracts/Parent.sol\":2914:3053  function ChangeOwnership(address _newOwner) public ownerOnly returns(bool){... */\n      swap2\n      swap1\n      pop\n      jump\t// out\n        /* \"contracts/Parent.sol\":3061:3349  function AcceptOwnership() public returns(bool){... */\n    tag_40:\n        /* \"contracts/Parent.sol\":3124:3132  newOwner */\n      sload(0x01)\n        /* \"contracts/Parent.sol\":3103:3107  bool */\n      0x00\n      swap1\n        /* \"contracts/Parent.sol\":3124:3146  newOwner != msg.sender */\n      0xffffffffffffffffffffffffffffffffffffffff\n        /* \"contracts/Parent.sol\":3124:3132  newOwner */\n      and\n        /* \"contracts/Parent.sol\":3136:3146  msg.sender */\n      caller\n        /* \"contracts/Parent.sol\":3124:3146  newOwner != msg.sender */\n      eq\n        /* \"contracts/Parent.sol\":3121:3185  if(newOwner != msg.sender)... */\n      tag_115\n      jumpi\n        /* \"contracts/Parent.sol\":3161:3185  revert(\"Can not accept\") */\n      mload(0x40)\n      0x08c379a000000000000000000000000000000000000000000000000000000000\n      dup2\n      mstore\n        /* \"#utility.yul\":10945:10947   */\n      0x20\n        /* \"contracts/Parent.sol\":3161:3185  revert(\"Can not accept\") */\n      0x04\n      dup3\n      add\n        /* \"#utility.yul\":10927:10948   */\n      mstore\n        /* \"#utility.yul\":10984:10986   */\n      0x0e\n        /* \"#utility.yul\":10964:10982   */\n      0x24\n      dup3\n      add\n        /* \"#utility.yul\":10957:10987   */\n      mstore\n        /* \"#utility.yul\":11023:11039   */\n      0x43616e206e6f7420616363657074000000000000000000000000000000000000\n        /* \"#utility.yul\":11003:11021   */\n      0x44\n      dup3\n      add\n        /* \"#utility.yul\":10996:11040   */\n      mstore\n        /* \"#utility.yul\":11057:11075   */\n      0x64\n      add\n        /* \"contracts/Parent.sol\":3161:3185  revert(\"Can not accept\") */\n      tag_74\n        /* \"#utility.yul\":10743:11081   */\n      jump\n        /* \"contracts/Parent.sol\":3121:3185  if(newOwner != msg.sender)... */\n    tag_115:\n        /* \"contracts/Parent.sol\":3198:3210  address prev */\n      0x00\n        /* \"contracts/Parent.sol\":3213:3218  owner */\n      dup1\n      sload\n      0x01\n        /* \"contracts/Parent.sol\":3239:3247  newOwner */\n      dup1\n      sload\n        /* \"contracts/Parent.sol\":3213:3218  owner */\n      0xffffffffffffffffffffffffffffffffffffffff\n        /* \"contracts/Parent.sol\":3239:3247  newOwner */\n      dup1\n      dup3\n      and\n        /* \"contracts/Parent.sol\":3231:3247  owner = newOwner */\n      0xffffffffffffffffffffffff0000000000000000000000000000000000000000\n      dup1\n      dup7\n      and\n      dup3\n      or\n      dup8\n      sstore\n        /* \"contracts/Parent.sol\":3258:3273  delete newOwner */\n      swap1\n      swap3\n      and\n      swap1\n      swap3\n      sstore\n        /* \"contracts/Parent.sol\":3291:3319  OwnershipChange(prev, owner) */\n      mload(0x40)\n        /* \"contracts/Parent.sol\":3213:3218  owner */\n      swap2\n      swap1\n      swap3\n      and\n      swap3\n      dup4\n      swap2\n        /* \"contracts/Parent.sol\":3291:3319  OwnershipChange(prev, owner) */\n      0x3144a367e9e4a01c9aa66bb51a6f2c06a93959657ba200331aecf472eea506b1\n      swap2\n        /* \"contracts/Parent.sol\":3198:3210  address prev */\n      swap1\n        /* \"contracts/Parent.sol\":3291:3319  OwnershipChange(prev, owner) */\n      log3\n        /* \"contracts/Parent.sol\":3337:3341  true */\n      0x01\n        /* \"contracts/Parent.sol\":3330:3341  return true */\n      swap2\n      pop\n      pop\n        /* \"contracts/Parent.sol\":3061:3349  function AcceptOwnership() public returns(bool){... */\n      swap1\n      jump\t// out\n        /* \"contracts/Parent.sol\":5099:5442  function RemoveContract(string calldata _name) public ownerOnly returns(bool){... */\n    tag_46:\n        /* \"contracts/Parent.sol\":5171:5175  bool */\n      0x00\n        /* \"contracts/Parent.sol\":1871:1876  owner */\n      dup1\n      sload\n        /* \"contracts/Parent.sol\":1871:1890  owner != msg.sender */\n      0xffffffffffffffffffffffffffffffffffffffff\n        /* \"contracts/Parent.sol\":1871:1876  owner */\n      and\n        /* \"contracts/Parent.sol\":1880:1890  msg.sender */\n      caller\n        /* \"contracts/Parent.sol\":1871:1890  owner != msg.sender */\n      eq\n        /* \"contracts/Parent.sol\":1868:1925  if(owner != msg.sender)... */\n      tag_119\n      jumpi\n        /* \"contracts/Parent.sol\":1905:1925  revert(\"Owner only\") */\n      mload(0x40)\n      0x08c379a000000000000000000000000000000000000000000000000000000000\n      dup2\n      mstore\n        /* \"#utility.yul\":3005:3007   */\n      0x20\n        /* \"contracts/Parent.sol\":1905:1925  revert(\"Owner only\") */\n      0x04\n      dup3\n      add\n        /* \"#utility.yul\":2987:3008   */\n      mstore\n        /* \"#utility.yul\":3044:3046   */\n      0x0a\n        /* \"#utility.yul\":3024:3042   */\n      0x24\n      dup3\n      add\n        /* \"#utility.yul\":3017:3047   */\n      mstore\n        /* \"#utility.yul\":3083:3095   */\n      0x4f776e6572206f6e6c7900000000000000000000000000000000000000000000\n        /* \"#utility.yul\":3063:3081   */\n      0x44\n      dup3\n      add\n        /* \"#utility.yul\":3056:3096   */\n      mstore\n        /* \"#utility.yul\":3113:3131   */\n      0x64\n      add\n        /* \"contracts/Parent.sol\":1905:1925  revert(\"Owner only\") */\n      tag_74\n        /* \"#utility.yul\":2803:3137   */\n      jump\n        /* \"contracts/Parent.sol\":1868:1925  if(owner != msg.sender)... */\n    tag_119:\n        /* \"contracts/Parent.sol\":1945:1953  newOwner */\n      0x01\n        /* \"contracts/Parent.sol\":1938:1953  delete newOwner */\n      dup1\n      sload\n      0xffffffffffffffffffffffff0000000000000000000000000000000000000000\n      and\n      swap1\n      sstore\n        /* \"contracts/Parent.sol\":5192:5212  nameToAddress[_name] */\n      mload(0x40)\n        /* \"contracts/Parent.sol\":1945:1953  newOwner */\n      0x00\n      swap1\n        /* \"contracts/Parent.sol\":5192:5205  nameToAddress */\n      0x02\n      swap1\n        /* \"contracts/Parent.sol\":5192:5212  nameToAddress[_name] */\n      tag_122\n      swap1\n        /* \"contracts/Parent.sol\":5206:5211  _name */\n      dup7\n      swap1\n      dup7\n      swap1\n        /* \"contracts/Parent.sol\":5192:5212  nameToAddress[_name] */\n      tag_78\n      jump\t// in\n    tag_122:\n      swap1\n      dup2\n      mstore\n      mload(0x40)\n      swap1\n      dup2\n      swap1\n      sub\n      0x20\n      add\n      swap1\n      keccak256\n      sload\n      0xffffffffffffffffffffffffffffffffffffffff\n      and\n        /* \"contracts/Parent.sol\":5192:5226  nameToAddress[_name] == address(0) */\n      sub\n        /* \"contracts/Parent.sol\":5189:5264  if(nameToAddress[_name] == address(0))... */\n      tag_123\n      jumpi\n        /* \"contracts/Parent.sol\":5241:5264  revert(\"Name not used\") */\n      mload(0x40)\n      0x08c379a000000000000000000000000000000000000000000000000000000000\n      dup2\n      mstore\n        /* \"#utility.yul\":11288:11290   */\n      0x20\n        /* \"contracts/Parent.sol\":5241:5264  revert(\"Name not used\") */\n      0x04\n      dup3\n      add\n        /* \"#utility.yul\":11270:11291   */\n      mstore\n        /* \"#utility.yul\":11327:11329   */\n      0x0d\n        /* \"#utility.yul\":11307:11325   */\n      0x24\n      dup3\n      add\n        /* \"#utility.yul\":11300:11330   */\n      mstore\n        /* \"#utility.yul\":11366:11381   */\n      0x4e616d65206e6f74207573656400000000000000000000000000000000000000\n        /* \"#utility.yul\":11346:11364   */\n      0x44\n      dup3\n      add\n        /* \"#utility.yul\":11339:11382   */\n      mstore\n        /* \"#utility.yul\":11399:11417   */\n      0x64\n      add\n        /* \"contracts/Parent.sol\":5241:5264  revert(\"Name not used\") */\n      tag_74\n        /* \"#utility.yul\":11086:11423   */\n      jump\n        /* \"contracts/Parent.sol\":5189:5264  if(nameToAddress[_name] == address(0))... */\n    tag_123:\n        /* \"contracts/Parent.sol\":5292:5305  addressToName */\n      0x03\n        /* \"contracts/Parent.sol\":5292:5327  addressToName[nameToAddress[_name]] */\n      0x00\n        /* \"contracts/Parent.sol\":5306:5319  nameToAddress */\n      0x02\n        /* \"contracts/Parent.sol\":5320:5325  _name */\n      dup6\n      dup6\n        /* \"contracts/Parent.sol\":5306:5326  nameToAddress[_name] */\n      mload(0x40)\n      tag_126\n      swap3\n      swap2\n      swap1\n      tag_78\n      jump\t// in\n    tag_126:\n      swap1\n      dup2\n      mstore\n      0x40\n      dup1\n      mload\n      0x20\n      swap3\n      dup2\n      swap1\n      sub\n      dup4\n      add\n      swap1\n      keccak256\n      sload\n      0xffffffffffffffffffffffffffffffffffffffff\n      and\n        /* \"contracts/Parent.sol\":5292:5327  addressToName[nameToAddress[_name]] */\n      dup4\n      mstore\n      swap1\n      dup3\n      add\n      swap3\n      swap1\n      swap3\n      mstore\n      add\n      0x00\n      swap1\n      dup2\n      keccak256\n        /* \"contracts/Parent.sol\":5285:5327  delete addressToName[nameToAddress[_name]] */\n      tag_127\n      swap2\n      tag_128\n      jump\t// in\n    tag_127:\n        /* \"contracts/Parent.sol\":5345:5358  nameToAddress */\n      0x02\n        /* \"contracts/Parent.sol\":5359:5364  _name */\n      dup4\n      dup4\n        /* \"contracts/Parent.sol\":5345:5365  nameToAddress[_name] */\n      mload(0x40)\n      tag_129\n      swap3\n      swap2\n      swap1\n      tag_78\n      jump\t// in\n    tag_129:\n      swap1\n      dup2\n      mstore\n      mload(0x40)\n      swap1\n      dup2\n      swap1\n      sub\n      0x20\n      add\n      dup2\n      keccak256\n        /* \"contracts/Parent.sol\":5338:5365  delete nameToAddress[_name] */\n      dup1\n      sload\n      0xffffffffffffffffffffffff0000000000000000000000000000000000000000\n      and\n      swap1\n      sstore\n        /* \"contracts/Parent.sol\":5383:5412  ContractRemoval(_name, _name) */\n      tag_130\n      swap1\n        /* \"contracts/Parent.sol\":5399:5404  _name */\n      dup5\n      swap1\n      dup5\n      swap1\n        /* \"contracts/Parent.sol\":5383:5412  ContractRemoval(_name, _name) */\n      tag_78\n      jump\t// in\n    tag_130:\n      mload(0x40)\n      dup1\n      swap2\n      sub\n      swap1\n      keccak256\n      0x14d09f277f8cdd99980f9affd7630e9d1cf9f6cd905afddb9386d71e5e43b213\n        /* \"contracts/Parent.sol\":5406:5411  _name */\n      dup5\n      dup5\n        /* \"contracts/Parent.sol\":5383:5412  ContractRemoval(_name, _name) */\n      mload(0x40)\n      tag_131\n      swap3\n      swap2\n      swap1\n      tag_132\n      jump\t// in\n    tag_131:\n      mload(0x40)\n      dup1\n      swap2\n      sub\n      swap1\n      log2\n      pop\n        /* \"contracts/Parent.sol\":5430:5434  true */\n      0x01\n        /* \"contracts/Parent.sol\":5099:5442  function RemoveContract(string calldata _name) public ownerOnly returns(bool){... */\n      swap3\n      swap2\n      pop\n      pop\n      jump\t// out\n        /* \"contracts/Parent.sol\":2498:2626  function GetContractName(address _address) public view returns(string memory){... */\n    tag_51:\n        /* \"contracts/Parent.sol\":2595:2618  addressToName[_address] */\n      0xffffffffffffffffffffffffffffffffffffffff\n      dup2\n      and\n      0x00\n      swap1\n      dup2\n      mstore\n        /* \"contracts/Parent.sol\":2595:2608  addressToName */\n      0x03\n        /* \"contracts/Parent.sol\":2595:2618  addressToName[_address] */\n      0x20\n      mstore\n      0x40\n      swap1\n      keccak256\n        /* \"contracts/Parent.sol\":2588:2618  return addressToName[_address] */\n      dup1\n      sload\n        /* \"contracts/Parent.sol\":2561:2574  string memory */\n      0x60\n      swap2\n        /* \"contracts/Parent.sol\":2595:2618  addressToName[_address] */\n      swap1\n        /* \"contracts/Parent.sol\":2588:2618  return addressToName[_address] */\n      tag_134\n      swap1\n      tag_135\n      jump\t// in\n    tag_134:\n      dup1\n      0x1f\n      add\n      0x20\n      dup1\n      swap2\n      div\n      mul\n      0x20\n      add\n      mload(0x40)\n      swap1\n      dup2\n      add\n      0x40\n      mstore\n      dup1\n      swap3\n      swap2\n      swap1\n      dup2\n      dup2\n      mstore\n      0x20\n      add\n      dup3\n      dup1\n      sload\n      tag_136\n      swap1\n      tag_135\n      jump\t// in\n    tag_136:\n      dup1\n      iszero\n      tag_137\n      jumpi\n      dup1\n      0x1f\n      lt\n      tag_138\n      jumpi\n      0x0100\n      dup1\n      dup4\n      sload\n      div\n      mul\n      dup4\n      mstore\n      swap2\n      0x20\n      add\n      swap2\n      jump(tag_137)\n    tag_138:\n      dup3\n      add\n      swap2\n      swap1\n      0x00\n      mstore\n      keccak256(0x00, 0x20)\n      swap1\n    tag_139:\n      dup2\n      sload\n      dup2\n      mstore\n      swap1\n      0x01\n      add\n      swap1\n      0x20\n      add\n      dup1\n      dup4\n      gt\n      tag_139\n      jumpi\n      dup3\n      swap1\n      sub\n      0x1f\n      and\n      dup3\n      add\n      swap2\n    tag_137:\n      pop\n      pop\n      pop\n      pop\n      pop\n      swap1\n      pop\n        /* \"contracts/Parent.sol\":2498:2626  function GetContractName(address _address) public view returns(string memory){... */\n      swap2\n      swap1\n      pop\n      jump\t// out\n        /* \"contracts/Parent.sol\":4201:5091  function UpdateContract(string calldata _name, address _address) public ownerOnly returns(bool){... */\n    tag_57:\n        /* \"contracts/Parent.sol\":4291:4295  bool */\n      0x00\n        /* \"contracts/Parent.sol\":1871:1876  owner */\n      dup1\n      sload\n        /* \"contracts/Parent.sol\":1871:1890  owner != msg.sender */\n      0xffffffffffffffffffffffffffffffffffffffff\n        /* \"contracts/Parent.sol\":1871:1876  owner */\n      and\n        /* \"contracts/Parent.sol\":1880:1890  msg.sender */\n      caller\n        /* \"contracts/Parent.sol\":1871:1890  owner != msg.sender */\n      eq\n        /* \"contracts/Parent.sol\":1868:1925  if(owner != msg.sender)... */\n      tag_141\n      jumpi\n        /* \"contracts/Parent.sol\":1905:1925  revert(\"Owner only\") */\n      mload(0x40)\n      0x08c379a000000000000000000000000000000000000000000000000000000000\n      dup2\n      mstore\n        /* \"#utility.yul\":3005:3007   */\n      0x20\n        /* \"contracts/Parent.sol\":1905:1925  revert(\"Owner only\") */\n      0x04\n      dup3\n      add\n        /* \"#utility.yul\":2987:3008   */\n      mstore\n        /* \"#utility.yul\":3044:3046   */\n      0x0a\n        /* \"#utility.yul\":3024:3042   */\n      0x24\n      dup3\n      add\n        /* \"#utility.yul\":3017:3047   */\n      mstore\n        /* \"#utility.yul\":3083:3095   */\n      0x4f776e6572206f6e6c7900000000000000000000000000000000000000000000\n        /* \"#utility.yul\":3063:3081   */\n      0x44\n      dup3\n      add\n        /* \"#utility.yul\":3056:3096   */\n      mstore\n        /* \"#utility.yul\":3113:3131   */\n      0x64\n      add\n        /* \"contracts/Parent.sol\":1905:1925  revert(\"Owner only\") */\n      tag_74\n        /* \"#utility.yul\":2803:3137   */\n      jump\n        /* \"contracts/Parent.sol\":1868:1925  if(owner != msg.sender)... */\n    tag_141:\n        /* \"contracts/Parent.sol\":1945:1953  newOwner */\n      0x01\n        /* \"contracts/Parent.sol\":1938:1953  delete newOwner */\n      dup1\n      sload\n      0xffffffffffffffffffffffff0000000000000000000000000000000000000000\n      and\n      swap1\n      sstore\n        /* \"contracts/Parent.sol\":4312:4332  nameToAddress[_name] */\n      mload(0x40)\n        /* \"contracts/Parent.sol\":1945:1953  newOwner */\n      0x00\n      swap1\n        /* \"contracts/Parent.sol\":4312:4325  nameToAddress */\n      0x02\n      swap1\n        /* \"contracts/Parent.sol\":4312:4332  nameToAddress[_name] */\n      tag_144\n      swap1\n        /* \"contracts/Parent.sol\":4326:4331  _name */\n      dup8\n      swap1\n      dup8\n      swap1\n        /* \"contracts/Parent.sol\":4312:4332  nameToAddress[_name] */\n      tag_78\n      jump\t// in\n    tag_144:\n      swap1\n      dup2\n      mstore\n      mload(0x40)\n      swap1\n      dup2\n      swap1\n      sub\n      0x20\n      add\n      swap1\n      keccak256\n      sload\n      0xffffffffffffffffffffffffffffffffffffffff\n      and\n        /* \"contracts/Parent.sol\":4312:4346  nameToAddress[_name] == address(0) */\n      sub\n        /* \"contracts/Parent.sol\":4309:4535  if(nameToAddress[_name] == address(0))... */\n      tag_145\n      jumpi\n        /* \"contracts/Parent.sol\":4361:4384  revert(\"Name not used\") */\n      mload(0x40)\n      0x08c379a000000000000000000000000000000000000000000000000000000000\n      dup2\n      mstore\n        /* \"#utility.yul\":11288:11290   */\n      0x20\n        /* \"contracts/Parent.sol\":4361:4384  revert(\"Name not used\") */\n      0x04\n      dup3\n      add\n        /* \"#utility.yul\":11270:11291   */\n      mstore\n        /* \"#utility.yul\":11327:11329   */\n      0x0d\n        /* \"#utility.yul\":11307:11325   */\n      0x24\n      dup3\n      add\n        /* \"#utility.yul\":11300:11330   */\n      mstore\n        /* \"#utility.yul\":11366:11381   */\n      0x4e616d65206e6f74207573656400000000000000000000000000000000000000\n        /* \"#utility.yul\":11346:11364   */\n      0x44\n      dup3\n      add\n        /* \"#utility.yul\":11339:11382   */\n      mstore\n        /* \"#utility.yul\":11399:11417   */\n      0x64\n      add\n        /* \"contracts/Parent.sol\":4361:4384  revert(\"Name not used\") */\n      tag_74\n        /* \"#utility.yul\":11086:11423   */\n      jump\n        /* \"contracts/Parent.sol\":4309:4535  if(nameToAddress[_name] == address(0))... */\n    tag_145:\n        /* \"contracts/Parent.sol\":4469:4489  abi.encodePacked(\"\") */\n      0x40\n      dup1\n      mload\n      0x00\n      dup1\n      dup3\n      mstore\n      0x20\n      dup1\n      dup4\n      add\n      dup1\n      dup6\n      mstore\n        /* \"contracts/Parent.sol\":4459:4490  keccak256(abi.encodePacked(\"\")) */\n      dup4\n      mload\n      swap1\n      keccak256\n        /* \"contracts/Parent.sol\":4430:4453  addressToName[_address] */\n      0xffffffffffffffffffffffffffffffffffffffff\n      dup8\n      and\n      dup4\n      mstore\n        /* \"contracts/Parent.sol\":4430:4443  addressToName */\n      0x03\n        /* \"contracts/Parent.sol\":4430:4453  addressToName[_address] */\n      swap1\n      swap2\n      mstore\n      swap1\n      dup4\n      swap1\n      keccak256\n        /* \"contracts/Parent.sol\":4459:4490  keccak256(abi.encodePacked(\"\")) */\n      swap1\n      swap3\n        /* \"contracts/Parent.sol\":4413:4454  abi.encodePacked(addressToName[_address]) */\n      tag_149\n      swap3\n      add\n      tag_86\n      jump\t// in\n    tag_149:\n      mload(0x40)\n      0x20\n      dup2\n      dup4\n      sub\n      sub\n      dup2\n      mstore\n      swap1\n      0x40\n      mstore\n        /* \"contracts/Parent.sol\":4403:4455  keccak256(abi.encodePacked(addressToName[_address])) */\n      dup1\n      mload\n      swap1\n      0x20\n      add\n      keccak256\n        /* \"contracts/Parent.sol\":4403:4490  keccak256(abi.encodePacked(addressToName[_address])) != keccak256(abi.encodePacked(\"\")) */\n      eq\n        /* \"contracts/Parent.sol\":4400:4535  if(keccak256(abi.encodePacked(addressToName[_address])) != keccak256(abi.encodePacked(\"\")))... */\n      tag_150\n      jumpi\n        /* \"contracts/Parent.sol\":4505:4535  revert(\"Address already used\") */\n      mload(0x40)\n      0x08c379a000000000000000000000000000000000000000000000000000000000\n      dup2\n      mstore\n        /* \"#utility.yul\":5652:5654   */\n      0x20\n        /* \"contracts/Parent.sol\":4505:4535  revert(\"Address already used\") */\n      0x04\n      dup3\n      add\n        /* \"#utility.yul\":5634:5655   */\n      mstore\n        /* \"#utility.yul\":5691:5693   */\n      0x14\n        /* \"#utility.yul\":5671:5689   */\n      0x24\n      dup3\n      add\n        /* \"#utility.yul\":5664:5694   */\n      mstore\n        /* \"#utility.yul\":5730:5752   */\n      0x4164647265737320616c72656164792075736564000000000000000000000000\n        /* \"#utility.yul\":5710:5728   */\n      0x44\n      dup3\n      add\n        /* \"#utility.yul\":5703:5753   */\n      mstore\n        /* \"#utility.yul\":5770:5788   */\n      0x64\n      add\n        /* \"contracts/Parent.sol\":4505:4535  revert(\"Address already used\") */\n      tag_74\n        /* \"#utility.yul\":5450:5794   */\n      jump\n        /* \"contracts/Parent.sol\":4400:4535  if(keccak256(abi.encodePacked(addressToName[_address])) != keccak256(abi.encodePacked(\"\")))... */\n    tag_150:\n        /* \"contracts/Parent.sol\":4595:4616  extcodesize(_address) */\n      dup2\n      extcodesize\n        /* \"contracts/Parent.sol\":4632:4641  size == 0 */\n      0xffffffff\n      dup2\n      and\n        /* \"contracts/Parent.sol\":4556:4567  uint32 size */\n      0x00\n        /* \"contracts/Parent.sol\":4632:4641  size == 0 */\n      sub\n        /* \"contracts/Parent.sol\":4629:4680  if(size == 0)... */\n      tag_152\n      jumpi\n        /* \"contracts/Parent.sol\":4656:4680  revert(\"Not a contract\") */\n      mload(0x40)\n      0x08c379a000000000000000000000000000000000000000000000000000000000\n      dup2\n      mstore\n        /* \"#utility.yul\":6001:6003   */\n      0x20\n        /* \"contracts/Parent.sol\":4656:4680  revert(\"Not a contract\") */\n      0x04\n      dup3\n      add\n        /* \"#utility.yul\":5983:6004   */\n      mstore\n        /* \"#utility.yul\":6040:6042   */\n      0x0e\n        /* \"#utility.yul\":6020:6038   */\n      0x24\n      dup3\n      add\n        /* \"#utility.yul\":6013:6043   */\n      mstore\n        /* \"#utility.yul\":6079:6095   */\n      0x4e6f74206120636f6e7472616374000000000000000000000000000000000000\n        /* \"#utility.yul\":6059:6077   */\n      0x44\n      dup3\n      add\n        /* \"#utility.yul\":6052:6096   */\n      mstore\n        /* \"#utility.yul\":6113:6131   */\n      0x64\n      add\n        /* \"contracts/Parent.sol\":4656:4680  revert(\"Not a contract\") */\n      tag_74\n        /* \"#utility.yul\":5799:6137   */\n      jump\n        /* \"contracts/Parent.sol\":4629:4680  if(size == 0)... */\n    tag_152:\n        /* \"contracts/Parent.sol\":4693:4711  string memory name */\n      0x00\n        /* \"contracts/Parent.sol\":4722:4730  _address */\n      dup4\n        /* \"contracts/Parent.sol\":4714:4736  IGlobal(_address).Name */\n      0xffffffffffffffffffffffffffffffffffffffff\n      and\n      0x8052474d\n        /* \"contracts/Parent.sol\":4714:4738  IGlobal(_address).Name() */\n      mload(0x40)\n      dup2\n      0xffffffff\n      and\n      0xe0\n      shl\n      dup2\n      mstore\n      0x04\n      add\n      0x00\n      mload(0x40)\n      dup1\n      dup4\n      sub\n      dup2\n      dup7\n      gas\n      staticcall\n      iszero\n      dup1\n      iszero\n      tag_155\n      jumpi\n      returndatasize\n      0x00\n      dup1\n      returndatacopy\n      revert(0x00, returndatasize)\n    tag_155:\n      pop\n      pop\n      pop\n      pop\n      mload(0x40)\n      returndatasize\n      0x00\n      dup3\n      returndatacopy\n      0x1f\n      returndatasize\n      swap1\n      dup2\n      add\n      0xffffffffffffffffffffffffffffffffffffffffffffffffffffffffffffffe0\n      and\n      dup3\n      add\n      0x40\n      mstore\n      tag_156\n      swap2\n      swap1\n      dup2\n      add\n      swap1\n      tag_96\n      jump\t// in\n    tag_156:\n        /* \"contracts/Parent.sol\":4693:4738  string memory name = IGlobal(_address).Name() */\n      swap1\n      pop\n        /* \"contracts/Parent.sol\":4819:4823  name */\n      dup1\n        /* \"contracts/Parent.sol\":4802:4824  abi.encodePacked(name) */\n      add(0x20, mload(0x40))\n      tag_157\n      swap2\n      swap1\n      tag_98\n      jump\t// in\n    tag_157:\n      mload(0x40)\n      0x20\n      dup2\n      dup4\n      sub\n      sub\n      dup2\n      mstore\n      swap1\n      0x40\n      mstore\n        /* \"contracts/Parent.sol\":4792:4825  keccak256(abi.encodePacked(name)) */\n      dup1\n      mload\n      swap1\n      0x20\n      add\n      keccak256\n        /* \"contracts/Parent.sol\":4781:4786  _name */\n      dup7\n      dup7\n        /* \"contracts/Parent.sol\":4764:4787  abi.encodePacked(_name) */\n      add(0x20, mload(0x40))\n      tag_158\n      swap3\n      swap2\n      swap1\n      tag_78\n      jump\t// in\n    tag_158:\n      mload(0x40)\n      0x20\n      dup2\n      dup4\n      sub\n      sub\n      dup2\n      mstore\n      swap1\n      0x40\n      mstore\n        /* \"contracts/Parent.sol\":4754:4788  keccak256(abi.encodePacked(_name)) */\n      dup1\n      mload\n      swap1\n      0x20\n      add\n      keccak256\n        /* \"contracts/Parent.sol\":4754:4825  keccak256(abi.encodePacked(_name)) != keccak256(abi.encodePacked(name)) */\n      eq\n        /* \"contracts/Parent.sol\":4751:4864  if(keccak256(abi.encodePacked(_name)) != keccak256(abi.encodePacked(name)))... */\n      tag_159\n      jumpi\n        /* \"contracts/Parent.sol\":4840:4864  revert(\"Names mismatch\") */\n      mload(0x40)\n      0x08c379a000000000000000000000000000000000000000000000000000000000\n      dup2\n      mstore\n        /* \"#utility.yul\":7788:7790   */\n      0x20\n        /* \"contracts/Parent.sol\":4840:4864  revert(\"Names mismatch\") */\n      0x04\n      dup3\n      add\n        /* \"#utility.yul\":7770:7791   */\n      mstore\n        /* \"#utility.yul\":7827:7829   */\n      0x0e\n        /* \"#utility.yul\":7807:7825   */\n      0x24\n      dup3\n      add\n        /* \"#utility.yul\":7800:7830   */\n      mstore\n        /* \"#utility.yul\":7866:7882   */\n      0x4e616d6573206d69736d61746368000000000000000000000000000000000000\n        /* \"#utility.yul\":7846:7864   */\n      0x44\n      dup3\n      add\n        /* \"#utility.yul\":7839:7883   */\n      mstore\n        /* \"#utility.yul\":7900:7918   */\n      0x64\n      add\n        /* \"contracts/Parent.sol\":4840:4864  revert(\"Names mismatch\") */\n      tag_74\n        /* \"#utility.yul\":7586:7924   */\n      jump\n        /* \"contracts/Parent.sol\":4751:4864  if(keccak256(abi.encodePacked(_name)) != keccak256(abi.encodePacked(name)))... */\n    tag_159:\n        /* \"contracts/Parent.sol\":4884:4897  addressToName */\n      0x03\n        /* \"contracts/Parent.sol\":4884:4919  addressToName[nameToAddress[_name]] */\n      0x00\n        /* \"contracts/Parent.sol\":4898:4911  nameToAddress */\n      0x02\n        /* \"contracts/Parent.sol\":4912:4917  _name */\n      dup9\n      dup9\n        /* \"contracts/Parent.sol\":4898:4918  nameToAddress[_name] */\n      mload(0x40)\n      tag_161\n      swap3\n      swap2\n      swap1\n      tag_78\n      jump\t// in\n    tag_161:\n      swap1\n      dup2\n      mstore\n      0x40\n      dup1\n      mload\n      0x20\n      swap3\n      dup2\n      swap1\n      sub\n      dup4\n      add\n      swap1\n      keccak256\n      sload\n      0xffffffffffffffffffffffffffffffffffffffff\n      and\n        /* \"contracts/Parent.sol\":4884:4919  addressToName[nameToAddress[_name]] */\n      dup4\n      mstore\n      swap1\n      dup3\n      add\n      swap3\n      swap1\n      swap3\n      mstore\n      add\n      0x00\n      swap1\n      dup2\n      keccak256\n        /* \"contracts/Parent.sol\":4877:4919  delete addressToName[nameToAddress[_name]] */\n      tag_162\n      swap2\n      tag_128\n      jump\t// in\n    tag_162:\n        /* \"contracts/Parent.sol\":4955:4963  _address */\n      dup4\n        /* \"contracts/Parent.sol\":4932:4945  nameToAddress */\n      0x02\n        /* \"contracts/Parent.sol\":4946:4951  _name */\n      dup8\n      dup8\n        /* \"contracts/Parent.sol\":4932:4952  nameToAddress[_name] */\n      mload(0x40)\n      tag_163\n      swap3\n      swap2\n      swap1\n      tag_78\n      jump\t// in\n    tag_163:\n      swap1\n      dup2\n      mstore\n      0x40\n      dup1\n      mload\n      0x20\n      swap3\n      dup2\n      swap1\n      sub\n      dup4\n      add\n      swap1\n      keccak256\n        /* \"contracts/Parent.sol\":4932:4963  nameToAddress[_name] = _address */\n      dup1\n      sload\n      0xffffffffffffffffffffffff0000000000000000000000000000000000000000\n      and\n      0xffffffffffffffffffffffffffffffffffffffff\n      swap5\n      dup6\n      and\n      or\n      swap1\n      sstore\n        /* \"contracts/Parent.sol\":4974:4997  addressToName[_address] */\n      swap2\n      dup7\n      and\n      0x00\n      swap1\n      dup2\n      mstore\n        /* \"contracts/Parent.sol\":4974:4987  addressToName */\n      0x03\n        /* \"contracts/Parent.sol\":4974:4997  addressToName[_address] */\n      swap1\n      swap2\n      mstore\n      keccak256\n        /* \"contracts/Parent.sol\":4974:5005  addressToName[_address] = _name */\n      tag_164\n        /* \"contracts/Parent.sol\":5000:5005  _name */\n      dup7\n      dup9\n        /* \"contracts/Parent.sol\":4974:4997  addressToName[_address] */\n      dup4\n        /* \"contracts/Parent.sol\":4974:5005  addressToName[_address] = _name */\n      tag_105\n      jump\t// in\n    tag_164:\n      pop\n        /* \"contracts/Parent.sol\":5038:5043  _name */\n      dup6\n      dup6\n        /* \"contracts/Parent.sol\":5023:5061  ContractUpdate(_name, _name, _address) */\n      mload(0x40)\n      tag_165\n      swap3\n      swap2\n      swap1\n      tag_78\n      jump\t// in\n    tag_165:\n      mload(0x40)\n      dup1\n      swap2\n      sub\n      swap1\n      keccak256\n      0x3e689fadf9c14263d1461e16c92022e56204bbc0101ca024528208cbdf042656\n        /* \"contracts/Parent.sol\":5045:5050  _name */\n      dup8\n      dup8\n        /* \"contracts/Parent.sol\":5052:5060  _address */\n      dup8\n        /* \"contracts/Parent.sol\":5023:5061  ContractUpdate(_name, _name, _address) */\n      mload(0x40)\n      tag_107\n      swap4\n      swap3\n      swap2\n      swap1\n      tag_108\n      jump\t// in\n        /* \"contracts/Parent.sol\":2363:2490  function GetContractAddress(string calldata _name) public view returns(address){... */\n    tag_62:\n        /* \"contracts/Parent.sol\":2434:2441  address */\n      0x00\n        /* \"contracts/Parent.sol\":2462:2475  nameToAddress */\n      0x02\n        /* \"contracts/Parent.sol\":2476:2481  _name */\n      dup4\n      dup4\n        /* \"contracts/Parent.sol\":2462:2482  nameToAddress[_name] */\n      mload(0x40)\n      tag_168\n      swap3\n      swap2\n      swap1\n      tag_78\n      jump\t// in\n    tag_168:\n      swap1\n      dup2\n      mstore\n      mload(0x40)\n      swap1\n      dup2\n      swap1\n      sub\n      0x20\n      add\n      swap1\n      keccak256\n      sload\n      0xffffffffffffffffffffffffffffffffffffffff\n      and\n      swap1\n      pop\n        /* \"contracts/Parent.sol\":2363:2490  function GetContractAddress(string calldata _name) public view returns(address){... */\n      swap3\n      swap2\n      pop\n      pop\n      jump\t// out\n    tag_128:\n      pop\n      dup1\n      sload\n      tag_171\n      swap1\n      tag_135\n      jump\t// in\n    tag_171:\n      0x00\n      dup3\n      sstore\n      dup1\n      0x1f\n      lt\n      tag_173\n      jumpi\n      pop\n      pop\n      jump\t// out\n    tag_173:\n      0x1f\n      add\n      0x20\n      swap1\n      div\n      swap1\n      0x00\n      mstore\n      keccak256(0x00, 0x20)\n      swap1\n      dup2\n      add\n      swap1\n      tag_174\n      swap2\n      swap1\n      tag_175\n      jump\t// in\n    tag_174:\n      pop\n      jump\t// out\n    tag_175:\n    tag_176:\n      dup1\n      dup3\n      gt\n      iszero\n      tag_177\n      jumpi\n      0x00\n      dup2\n      sstore\n      0x01\n      add\n      jump(tag_176)\n    tag_177:\n      pop\n      swap1\n      jump\t// out\n        /* \"#utility.yul\":14:362   */\n    tag_178:\n        /* \"#utility.yul\":66:74   */\n      0x00\n        /* \"#utility.yul\":76:82   */\n      dup1\n        /* \"#utility.yul\":130:133   */\n      dup4\n        /* \"#utility.yul\":123:127   */\n      0x1f\n        /* \"#utility.yul\":115:121   */\n      dup5\n        /* \"#utility.yul\":111:128   */\n      add\n        /* \"#utility.yul\":107:134   */\n      slt\n        /* \"#utility.yul\":97:152   */\n      tag_188\n      jumpi\n        /* \"#utility.yul\":148:149   */\n      0x00\n        /* \"#utility.yul\":145:146   */\n      dup1\n        /* \"#utility.yul\":138:150   */\n      revert\n        /* \"#utility.yul\":97:152   */\n    tag_188:\n      pop\n        /* \"#utility.yul\":171:191   */\n      dup2\n      calldataload\n        /* \"#utility.yul\":214:232   */\n      0xffffffffffffffff\n        /* \"#utility.yul\":203:233   */\n      dup2\n      gt\n        /* \"#utility.yul\":200:250   */\n      iszero\n      tag_189\n      jumpi\n        /* \"#utility.yul\":246:247   */\n      0x00\n        /* \"#utility.yul\":243:244   */\n      dup1\n        /* \"#utility.yul\":236:248   */\n      revert\n        /* \"#utility.yul\":200:250   */\n    tag_189:\n        /* \"#utility.yul\":283:287   */\n      0x20\n        /* \"#utility.yul\":275:281   */\n      dup4\n        /* \"#utility.yul\":271:288   */\n      add\n        /* \"#utility.yul\":259:288   */\n      swap2\n      pop\n        /* \"#utility.yul\":335:338   */\n      dup4\n        /* \"#utility.yul\":328:332   */\n      0x20\n        /* \"#utility.yul\":319:325   */\n      dup3\n        /* \"#utility.yul\":311:317   */\n      dup6\n        /* \"#utility.yul\":307:326   */\n      add\n        /* \"#utility.yul\":303:333   */\n      add\n        /* \"#utility.yul\":300:339   */\n      gt\n        /* \"#utility.yul\":297:356   */\n      iszero\n      tag_190\n      jumpi\n        /* \"#utility.yul\":352:353   */\n      0x00\n        /* \"#utility.yul\":349:350   */\n      dup1\n        /* \"#utility.yul\":342:354   */\n      revert\n        /* \"#utility.yul\":297:356   */\n    tag_190:\n        /* \"#utility.yul\":14:362   */\n      swap3\n      pop\n      swap3\n      swap1\n      pop\n      jump\t// out\n        /* \"#utility.yul\":367:563   */\n    tag_179:\n        /* \"#utility.yul\":435:455   */\n      dup1\n      calldataload\n        /* \"#utility.yul\":495:537   */\n      0xffffffffffffffffffffffffffffffffffffffff\n        /* \"#utility.yul\":484:538   */\n      dup2\n      and\n        /* \"#utility.yul\":474:539   */\n      dup2\n      eq\n        /* \"#utility.yul\":464:557   */\n      tag_113\n      jumpi\n        /* \"#utility.yul\":553:554   */\n      0x00\n        /* \"#utility.yul\":550:551   */\n      dup1\n        /* \"#utility.yul\":543:555   */\n      revert\n        /* \"#utility.yul\":568:1053   */\n    tag_23:\n        /* \"#utility.yul\":648:654   */\n      0x00\n        /* \"#utility.yul\":656:662   */\n      dup1\n        /* \"#utility.yul\":664:670   */\n      0x00\n        /* \"#utility.yul\":717:719   */\n      0x40\n        /* \"#utility.yul\":705:714   */\n      dup5\n        /* \"#utility.yul\":696:703   */\n      dup7\n        /* \"#utility.yul\":692:715   */\n      sub\n        /* \"#utility.yul\":688:720   */\n      slt\n        /* \"#utility.yul\":685:737   */\n      iszero\n      tag_194\n      jumpi\n        /* \"#utility.yul\":733:734   */\n      0x00\n        /* \"#utility.yul\":730:731   */\n      dup1\n        /* \"#utility.yul\":723:735   */\n      revert\n        /* \"#utility.yul\":685:737   */\n    tag_194:\n        /* \"#utility.yul\":773:782   */\n      dup4\n        /* \"#utility.yul\":760:783   */\n      calldataload\n        /* \"#utility.yul\":806:824   */\n      0xffffffffffffffff\n        /* \"#utility.yul\":798:804   */\n      dup2\n        /* \"#utility.yul\":795:825   */\n      gt\n        /* \"#utility.yul\":792:842   */\n      iszero\n      tag_195\n      jumpi\n        /* \"#utility.yul\":838:839   */\n      0x00\n        /* \"#utility.yul\":835:836   */\n      dup1\n        /* \"#utility.yul\":828:840   */\n      revert\n        /* \"#utility.yul\":792:842   */\n    tag_195:\n        /* \"#utility.yul\":877:936   */\n      tag_196\n        /* \"#utility.yul\":928:935   */\n      dup7\n        /* \"#utility.yul\":919:925   */\n      dup3\n        /* \"#utility.yul\":908:917   */\n      dup8\n        /* \"#utility.yul\":904:926   */\n      add\n        /* \"#utility.yul\":877:936   */\n      tag_178\n      jump\t// in\n    tag_196:\n        /* \"#utility.yul\":955:963   */\n      swap1\n      swap5\n      pop\n        /* \"#utility.yul\":851:936   */\n      swap3\n      pop\n        /* \"#utility.yul\":1009:1047   */\n      tag_197\n      swap1\n      pop\n        /* \"#utility.yul\":1043:1045   */\n      0x20\n        /* \"#utility.yul\":1028:1046   */\n      dup6\n      add\n        /* \"#utility.yul\":1009:1047   */\n      tag_179\n      jump\t// in\n    tag_197:\n        /* \"#utility.yul\":999:1047   */\n      swap1\n      pop\n        /* \"#utility.yul\":568:1053   */\n      swap3\n      pop\n      swap3\n      pop\n      swap3\n      jump\t// out\n        /* \"#utility.yul\":1481:1667   */\n    tag_35:\n        /* \"#utility.yul\":1540:1546   */\n      0x00\n        /* \"#utility.yul\":1593:1595   */\n      0x20\n        /* \"#utility.yul\":1581:1590   */\n      dup3\n        /* \"#utility.yul\":1572:1579   */\n      dup5\n        /* \"#utility.yul\":1568:1591   */\n      sub\n        /* \"#utility.yul\":1564:1596   */\n      slt\n        /* \"#utility.yul\":1561:1613   */\n      iszero\n      tag_201\n      jumpi\n        /* \"#utility.yul\":1609:1610   */\n      0x00\n        /* \"#utility.yul\":1606:1607   */\n      dup1\n        /* \"#utility.yul\":1599:1611   */\n      revert\n        /* \"#utility.yul\":1561:1613   */\n    tag_201:\n        /* \"#utility.yul\":1632:1661   */\n      tag_202\n        /* \"#utility.yul\":1651:1660   */\n      dup3\n        /* \"#utility.yul\":1632:1661   */\n      tag_179\n      jump\t// in\n    tag_202:\n        /* \"#utility.yul\":1622:1661   */\n      swap4\n        /* \"#utility.yul\":1481:1667   */\n      swap3\n      pop\n      pop\n      pop\n      jump\t// out\n        /* \"#utility.yul\":1672:2083   */\n    tag_45:\n        /* \"#utility.yul\":1743:1749   */\n      0x00\n        /* \"#utility.yul\":1751:1757   */\n      dup1\n        /* \"#utility.yul\":1804:1806   */\n      0x20\n        /* \"#utility.yul\":1792:1801   */\n      dup4\n        /* \"#utility.yul\":1783:1790   */\n      dup6\n        /* \"#utility.yul\":1779:1802   */\n      sub\n        /* \"#utility.yul\":1775:1807   */\n      slt\n        /* \"#utility.yul\":1772:1824   */\n      iszero\n      tag_204\n      jumpi\n        /* \"#utility.yul\":1820:1821   */\n      0x00\n        /* \"#utility.yul\":1817:1818   */\n      dup1\n        /* \"#utility.yul\":1810:1822   */\n      revert\n        /* \"#utility.yul\":1772:1824   */\n    tag_204:\n        /* \"#utility.yul\":1860:1869   */\n      dup3\n        /* \"#utility.yul\":1847:1870   */\n      calldataload\n        /* \"#utility.yul\":1893:1911   */\n      0xffffffffffffffff\n        /* \"#utility.yul\":1885:1891   */\n      dup2\n        /* \"#utility.yul\":1882:1912   */\n      gt\n        /* \"#utility.yul\":1879:1929   */\n      iszero\n      tag_205\n      jumpi\n        /* \"#utility.yul\":1925:1926   */\n      0x00\n        /* \"#utility.yul\":1922:1923   */\n      dup1\n        /* \"#utility.yul\":1915:1927   */\n      revert\n        /* \"#utility.yul\":1879:1929   */\n    tag_205:\n        /* \"#utility.yul\":1964:2023   */\n      tag_206\n        /* \"#utility.yul\":2015:2022   */\n      dup6\n        /* \"#utility.yul\":2006:2012   */\n      dup3\n        /* \"#utility.yul\":1995:2004   */\n      dup7\n        /* \"#utility.yul\":1991:2013   */\n      add\n        /* \"#utility.yul\":1964:2023   */\n      tag_178\n      jump\t// in\n    tag_206:\n        /* \"#utility.yul\":2042:2050   */\n      swap1\n      swap7\n        /* \"#utility.yul\":1938:2023   */\n      swap1\n      swap6\n      pop\n        /* \"#utility.yul\":1672:2083   */\n      swap4\n      pop\n      pop\n      pop\n      pop\n      jump\t// out\n        /* \"#utility.yul\":2088:2338   */\n    tag_180:\n        /* \"#utility.yul\":2173:2174   */\n      0x00\n        /* \"#utility.yul\":2183:2296   */\n    tag_208:\n        /* \"#utility.yul\":2197:2203   */\n      dup4\n        /* \"#utility.yul\":2194:2195   */\n      dup2\n        /* \"#utility.yul\":2191:2204   */\n      lt\n        /* \"#utility.yul\":2183:2296   */\n      iszero\n      tag_210\n      jumpi\n        /* \"#utility.yul\":2273:2284   */\n      dup2\n      dup2\n      add\n        /* \"#utility.yul\":2267:2285   */\n      mload\n        /* \"#utility.yul\":2254:2265   */\n      dup4\n      dup3\n      add\n        /* \"#utility.yul\":2247:2286   */\n      mstore\n        /* \"#utility.yul\":2219:2221   */\n      0x20\n        /* \"#utility.yul\":2212:2222   */\n      add\n        /* \"#utility.yul\":2183:2296   */\n      jump(tag_208)\n    tag_210:\n      pop\n      pop\n        /* \"#utility.yul\":2330:2331   */\n      0x00\n        /* \"#utility.yul\":2312:2328   */\n      swap2\n      add\n        /* \"#utility.yul\":2305:2332   */\n      mstore\n        /* \"#utility.yul\":2088:2338   */\n      jump\t// out\n        /* \"#utility.yul\":2343:2798   */\n    tag_53:\n        /* \"#utility.yul\":2492:2494   */\n      0x20\n        /* \"#utility.yul\":2481:2490   */\n      dup2\n        /* \"#utility.yul\":2474:2495   */\n      mstore\n        /* \"#utility.yul\":2455:2459   */\n      0x00\n        /* \"#utility.yul\":2524:2530   */\n      dup3\n        /* \"#utility.yul\":2518:2531   */\n      mload\n        /* \"#utility.yul\":2567:2573   */\n      dup1\n        /* \"#utility.yul\":2562:2564   */\n      0x20\n        /* \"#utility.yul\":2551:2560   */\n      dup5\n        /* \"#utility.yul\":2547:2565   */\n      add\n        /* \"#utility.yul\":2540:2574   */\n      mstore\n        /* \"#utility.yul\":2583:2662   */\n      tag_212\n        /* \"#utility.yul\":2655:2661   */\n      dup2\n        /* \"#utility.yul\":2650:2652   */\n      0x40\n        /* \"#utility.yul\":2639:2648   */\n      dup6\n        /* \"#utility.yul\":2635:2653   */\n      add\n        /* \"#utility.yul\":2630:2632   */\n      0x20\n        /* \"#utility.yul\":2622:2628   */\n      dup8\n        /* \"#utility.yul\":2618:2633   */\n      add\n        /* \"#utility.yul\":2583:2662   */\n      tag_180\n      jump\t// in\n    tag_212:\n        /* \"#utility.yul\":2714:2716   */\n      0x1f\n        /* \"#utility.yul\":2702:2717   */\n      add\n        /* \"#utility.yul\":2719:2785   */\n      0xffffffffffffffffffffffffffffffffffffffffffffffffffffffffffffffe0\n        /* \"#utility.yul\":2698:2786   */\n      and\n        /* \"#utility.yul\":2683:2787   */\n      swap2\n      swap1\n      swap2\n      add\n        /* \"#utility.yul\":2789:2791   */\n      0x40\n        /* \"#utility.yul\":2679:2792   */\n      add\n      swap3\n        /* \"#utility.yul\":2343:2798   */\n      swap2\n      pop\n      pop\n      jump\t// out\n        /* \"#utility.yul\":3142:3415   */\n    tag_78:\n        /* \"#utility.yul\":3327:3333   */\n      dup2\n        /* \"#utility.yul\":3319:3325   */\n      dup4\n        /* \"#utility.yul\":3314:3317   */\n      dup3\n        /* \"#utility.yul\":3301:3334   */\n      calldatacopy\n        /* \"#utility.yul\":3283:3286   */\n      0x00\n        /* \"#utility.yul\":3353:3369   */\n      swap2\n      add\n        /* \"#utility.yul\":3378:3391   */\n      swap1\n      dup2\n      mstore\n        /* \"#utility.yul\":3353:3369   */\n      swap2\n        /* \"#utility.yul\":3142:3415   */\n      swap1\n      pop\n      jump\t// out\n        /* \"#utility.yul\":3977:4414   */\n    tag_135:\n        /* \"#utility.yul\":4056:4057   */\n      0x01\n        /* \"#utility.yul\":4052:4064   */\n      dup2\n      dup2\n      shr\n      swap1\n        /* \"#utility.yul\":4099:4111   */\n      dup3\n      and\n      dup1\n        /* \"#utility.yul\":4120:4181   */\n      tag_218\n      jumpi\n        /* \"#utility.yul\":4174:4178   */\n      0x7f\n        /* \"#utility.yul\":4166:4172   */\n      dup3\n        /* \"#utility.yul\":4162:4179   */\n      and\n        /* \"#utility.yul\":4152:4179   */\n      swap2\n      pop\n        /* \"#utility.yul\":4120:4181   */\n    tag_218:\n        /* \"#utility.yul\":4227:4229   */\n      0x20\n        /* \"#utility.yul\":4219:4225   */\n      dup3\n        /* \"#utility.yul\":4216:4230   */\n      lt\n        /* \"#utility.yul\":4196:4214   */\n      dup2\n        /* \"#utility.yul\":4193:4231   */\n      sub\n        /* \"#utility.yul\":4190:4408   */\n      tag_219\n      jumpi\n        /* \"#utility.yul\":4264:4341   */\n      0x4e487b7100000000000000000000000000000000000000000000000000000000\n        /* \"#utility.yul\":4261:4262   */\n      0x00\n        /* \"#utility.yul\":4254:4342   */\n      mstore\n        /* \"#utility.yul\":4365:4369   */\n      0x22\n        /* \"#utility.yul\":4362:4363   */\n      0x04\n        /* \"#utility.yul\":4355:4370   */\n      mstore\n        /* \"#utility.yul\":4393:4397   */\n      0x24\n        /* \"#utility.yul\":4390:4391   */\n      0x00\n        /* \"#utility.yul\":4383:4398   */\n      revert\n        /* \"#utility.yul\":4190:4408   */\n    tag_219:\n      pop\n        /* \"#utility.yul\":3977:4414   */\n      swap2\n      swap1\n      pop\n      jump\t// out\n        /* \"#utility.yul\":4545:5445   */\n    tag_86:\n        /* \"#utility.yul\":4673:4676   */\n      0x00\n        /* \"#utility.yul\":4702:4703   */\n      dup1\n        /* \"#utility.yul\":4735:4741   */\n      dup4\n        /* \"#utility.yul\":4729:4742   */\n      sload\n        /* \"#utility.yul\":4765:4801   */\n      tag_222\n        /* \"#utility.yul\":4791:4800   */\n      dup2\n        /* \"#utility.yul\":4765:4801   */\n      tag_135\n      jump\t// in\n    tag_222:\n        /* \"#utility.yul\":4820:4821   */\n      0x01\n        /* \"#utility.yul\":4837:4855   */\n      dup3\n      dup2\n      and\n        /* \"#utility.yul\":4864:5055   */\n      dup1\n      iszero\n      tag_224\n      jumpi\n        /* \"#utility.yul\":5069:5070   */\n      0x01\n        /* \"#utility.yul\":5064:5420   */\n      dup2\n      eq\n      tag_225\n      jumpi\n        /* \"#utility.yul\":4830:5420   */\n      jump(tag_223)\n        /* \"#utility.yul\":4864:5055   */\n    tag_224:\n        /* \"#utility.yul\":4912:4978   */\n      0xffffffffffffffffffffffffffffffffffffffffffffffffffffffffffffff00\n        /* \"#utility.yul\":4901:4910   */\n      dup5\n        /* \"#utility.yul\":4897:4979   */\n      and\n        /* \"#utility.yul\":4892:4895   */\n      dup8\n        /* \"#utility.yul\":4885:4980   */\n      mstore\n        /* \"#utility.yul\":5035:5041   */\n      dup3\n        /* \"#utility.yul\":5028:5042   */\n      iszero\n        /* \"#utility.yul\":5021:5043   */\n      iszero\n        /* \"#utility.yul\":5013:5019   */\n      dup4\n        /* \"#utility.yul\":5009:5044   */\n      mul\n        /* \"#utility.yul\":5004:5007   */\n      dup8\n        /* \"#utility.yul\":5000:5045   */\n      add\n        /* \"#utility.yul\":4993:5045   */\n      swap5\n      pop\n        /* \"#utility.yul\":4864:5055   */\n      jump(tag_223)\n        /* \"#utility.yul\":5064:5420   */\n    tag_225:\n        /* \"#utility.yul\":5095:5101   */\n      dup8\n        /* \"#utility.yul\":5092:5093   */\n      0x00\n        /* \"#utility.yul\":5085:5102   */\n      mstore\n        /* \"#utility.yul\":5125:5129   */\n      0x20\n        /* \"#utility.yul\":5170:5172   */\n      dup1\n        /* \"#utility.yul\":5167:5168   */\n      0x00\n        /* \"#utility.yul\":5157:5173   */\n      keccak256\n        /* \"#utility.yul\":5195:5196   */\n      0x00\n        /* \"#utility.yul\":5209:5374   */\n    tag_226:\n        /* \"#utility.yul\":5223:5229   */\n      dup6\n        /* \"#utility.yul\":5220:5221   */\n      dup2\n        /* \"#utility.yul\":5217:5230   */\n      lt\n        /* \"#utility.yul\":5209:5374   */\n      iszero\n      tag_228\n      jumpi\n        /* \"#utility.yul\":5301:5315   */\n      dup2\n      sload\n        /* \"#utility.yul\":5288:5299   */\n      dup11\n      dup3\n      add\n        /* \"#utility.yul\":5281:5316   */\n      mstore\n        /* \"#utility.yul\":5344:5360   */\n      swap1\n      dup5\n      add\n      swap1\n        /* \"#utility.yul\":5238:5248   */\n      dup3\n      add\n        /* \"#utility.yul\":5209:5374   */\n      jump(tag_226)\n    tag_228:\n        /* \"#utility.yul\":5213:5216   */\n      pop\n      pop\n      pop\n        /* \"#utility.yul\":5403:5409   */\n      dup3\n        /* \"#utility.yul\":5398:5401   */\n      dup8\n        /* \"#utility.yul\":5394:5410   */\n      add\n        /* \"#utility.yul\":5387:5410   */\n      swap5\n      pop\n        /* \"#utility.yul\":4830:5420   */\n    tag_223:\n      pop\n        /* \"#utility.yul\":5436:5439   */\n      swap3\n      swap7\n        /* \"#utility.yul\":4545:5445   */\n      swap6\n      pop\n      pop\n      pop\n      pop\n      pop\n      pop\n      jump\t// out\n        /* \"#utility.yul\":6142:6326   */\n    tag_182:\n        /* \"#utility.yul\":6194:6271   */\n      0x4e487b7100000000000000000000000000000000000000000000000000000000\n        /* \"#utility.yul\":6191:6192   */\n      0x00\n        /* \"#utility.yul\":6184:6272   */\n      mstore\n        /* \"#utility.yul\":6291:6295   */\n      0x41\n        /* \"#utility.yul\":6288:6289   */\n      0x04\n        /* \"#utility.yul\":6281:6296   */\n      mstore\n        /* \"#utility.yul\":6315:6319   */\n      0x24\n        /* \"#utility.yul\":6312:6313   */\n      0x00\n        /* \"#utility.yul\":6305:6320   */\n      revert\n        /* \"#utility.yul\":6331:7287   */\n    tag_96:\n        /* \"#utility.yul\":6411:6417   */\n      0x00\n        /* \"#utility.yul\":6464:6466   */\n      0x20\n        /* \"#utility.yul\":6452:6461   */\n      dup3\n        /* \"#utility.yul\":6443:6450   */\n      dup5\n        /* \"#utility.yul\":6439:6462   */\n      sub\n        /* \"#utility.yul\":6435:6467   */\n      slt\n        /* \"#utility.yul\":6432:6484   */\n      iszero\n      tag_233\n      jumpi\n        /* \"#utility.yul\":6480:6481   */\n      0x00\n        /* \"#utility.yul\":6477:6478   */\n      dup1\n        /* \"#utility.yul\":6470:6482   */\n      revert\n        /* \"#utility.yul\":6432:6484   */\n    tag_233:\n        /* \"#utility.yul\":6513:6522   */\n      dup2\n        /* \"#utility.yul\":6507:6523   */\n      mload\n        /* \"#utility.yul\":6542:6560   */\n      0xffffffffffffffff\n        /* \"#utility.yul\":6583:6585   */\n      dup1\n        /* \"#utility.yul\":6575:6581   */\n      dup3\n        /* \"#utility.yul\":6572:6586   */\n      gt\n        /* \"#utility.yul\":6569:6603   */\n      iszero\n      tag_234\n      jumpi\n        /* \"#utility.yul\":6599:6600   */\n      0x00\n        /* \"#utility.yul\":6596:6597   */\n      dup1\n        /* \"#utility.yul\":6589:6601   */\n      revert\n        /* \"#utility.yul\":6569:6603   */\n    tag_234:\n        /* \"#utility.yul\":6637:6643   */\n      dup2\n        /* \"#utility.yul\":6626:6635   */\n      dup5\n        /* \"#utility.yul\":6622:6644   */\n      add\n        /* \"#utility.yul\":6612:6644   */\n      swap2\n      pop\n        /* \"#utility.yul\":6682:6689   */\n      dup5\n        /* \"#utility.yul\":6675:6679   */\n      0x1f\n        /* \"#utility.yul\":6671:6673   */\n      dup4\n        /* \"#utility.yul\":6667:6680   */\n      add\n        /* \"#utility.yul\":6663:6690   */\n      slt\n        /* \"#utility.yul\":6653:6708   */\n      tag_235\n      jumpi\n        /* \"#utility.yul\":6704:6705   */\n      0x00\n        /* \"#utility.yul\":6701:6702   */\n      dup1\n        /* \"#utility.yul\":6694:6706   */\n      revert\n        /* \"#utility.yul\":6653:6708   */\n    tag_235:\n        /* \"#utility.yul\":6733:6735   */\n      dup2\n        /* \"#utility.yul\":6727:6736   */\n      mload\n        /* \"#utility.yul\":6755:6757   */\n      dup2\n        /* \"#utility.yul\":6751:6753   */\n      dup2\n        /* \"#utility.yul\":6748:6758   */\n      gt\n        /* \"#utility.yul\":6745:6781   */\n      iszero\n      tag_237\n      jumpi\n        /* \"#utility.yul\":6761:6779   */\n      tag_237\n      tag_182\n      jump\t// in\n    tag_237:\n        /* \"#utility.yul\":6895:6897   */\n      0x40\n        /* \"#utility.yul\":6889:6898   */\n      mload\n        /* \"#utility.yul\":6957:6961   */\n      0x1f\n        /* \"#utility.yul\":6949:6962   */\n      dup3\n      add\n        /* \"#utility.yul\":6800:6866   */\n      0xffffffffffffffffffffffffffffffffffffffffffffffffffffffffffffffe0\n        /* \"#utility.yul\":6945:6967   */\n      swap1\n      dup2\n      and\n        /* \"#utility.yul\":6969:6971   */\n      0x3f\n        /* \"#utility.yul\":6941:6972   */\n      add\n        /* \"#utility.yul\":6937:6977   */\n      and\n        /* \"#utility.yul\":6925:6978   */\n      dup2\n      add\n      swap1\n        /* \"#utility.yul\":6993:7011   */\n      dup4\n      dup3\n      gt\n        /* \"#utility.yul\":7013:7035   */\n      dup2\n      dup4\n      lt\n        /* \"#utility.yul\":6990:7036   */\n      or\n        /* \"#utility.yul\":6987:7059   */\n      iszero\n      tag_239\n      jumpi\n        /* \"#utility.yul\":7039:7057   */\n      tag_239\n      tag_182\n      jump\t// in\n    tag_239:\n        /* \"#utility.yul\":7079:7089   */\n      dup2\n        /* \"#utility.yul\":7075:7077   */\n      0x40\n        /* \"#utility.yul\":7068:7090   */\n      mstore\n        /* \"#utility.yul\":7114:7116   */\n      dup3\n        /* \"#utility.yul\":7106:7112   */\n      dup2\n        /* \"#utility.yul\":7099:7117   */\n      mstore\n        /* \"#utility.yul\":7154:7161   */\n      dup8\n        /* \"#utility.yul\":7149:7151   */\n      0x20\n        /* \"#utility.yul\":7144:7146   */\n      dup5\n        /* \"#utility.yul\":7140:7142   */\n      dup8\n        /* \"#utility.yul\":7136:7147   */\n      add\n        /* \"#utility.yul\":7132:7152   */\n      add\n        /* \"#utility.yul\":7129:7162   */\n      gt\n        /* \"#utility.yul\":7126:7179   */\n      iszero\n      tag_240\n      jumpi\n        /* \"#utility.yul\":7175:7176   */\n      0x00\n        /* \"#utility.yul\":7172:7173   */\n      dup1\n        /* \"#utility.yul\":7165:7177   */\n      revert\n        /* \"#utility.yul\":7126:7179   */\n    tag_240:\n        /* \"#utility.yul\":7188:7256   */\n      tag_241\n        /* \"#utility.yul\":7253:7255   */\n      dup4\n        /* \"#utility.yul\":7248:7250   */\n      0x20\n        /* \"#utility.yul\":7240:7246   */\n      dup4\n        /* \"#utility.yul\":7236:7251   */\n      add\n        /* \"#utility.yul\":7231:7233   */\n      0x20\n        /* \"#utility.yul\":7227:7229   */\n      dup9\n        /* \"#utility.yul\":7223:7234   */\n      add\n        /* \"#utility.yul\":7188:7256   */\n      tag_180\n      jump\t// in\n    tag_241:\n        /* \"#utility.yul\":7275:7281   */\n      swap8\n        /* \"#utility.yul\":6331:7287   */\n      swap7\n      pop\n      pop\n      pop\n      pop\n      pop\n      pop\n      pop\n      jump\t// out\n        /* \"#utility.yul\":7292:7581   */\n    tag_98:\n        /* \"#utility.yul\":7423:7426   */\n      0x00\n        /* \"#utility.yul\":7461:7467   */\n      dup3\n        /* \"#utility.yul\":7455:7468   */\n      mload\n        /* \"#utility.yul\":7477:7543   */\n      tag_243\n        /* \"#utility.yul\":7536:7542   */\n      dup2\n        /* \"#utility.yul\":7531:7534   */\n      dup5\n        /* \"#utility.yul\":7524:7528   */\n      0x20\n        /* \"#utility.yul\":7516:7522   */\n      dup8\n        /* \"#utility.yul\":7512:7529   */\n      add\n        /* \"#utility.yul\":7477:7543   */\n      tag_180\n      jump\t// in\n    tag_243:\n        /* \"#utility.yul\":7559:7575   */\n      swap2\n      swap1\n      swap2\n      add\n      swap3\n        /* \"#utility.yul\":7292:7581   */\n      swap2\n      pop\n      pop\n      jump\t// out\n        /* \"#utility.yul\":7929:8474   */\n    tag_183:\n        /* \"#utility.yul\":8031:8033   */\n      0x1f\n        /* \"#utility.yul\":8026:8029   */\n      dup3\n        /* \"#utility.yul\":8023:8034   */\n      gt\n        /* \"#utility.yul\":8020:8468   */\n      iszero\n      tag_246\n      jumpi\n        /* \"#utility.yul\":8067:8068   */\n      0x00\n        /* \"#utility.yul\":8092:8097   */\n      dup2\n        /* \"#utility.yul\":8088:8090   */\n      dup2\n        /* \"#utility.yul\":8081:8098   */\n      mstore\n        /* \"#utility.yul\":8137:8141   */\n      0x20\n        /* \"#utility.yul\":8133:8135   */\n      dup2\n        /* \"#utility.yul\":8123:8142   */\n      keccak256\n        /* \"#utility.yul\":8207:8209   */\n      0x1f\n        /* \"#utility.yul\":8195:8205   */\n      dup6\n        /* \"#utility.yul\":8191:8210   */\n      add\n        /* \"#utility.yul\":8188:8189   */\n      0x05\n        /* \"#utility.yul\":8184:8211   */\n      shr\n        /* \"#utility.yul\":8178:8182   */\n      dup2\n        /* \"#utility.yul\":8174:8212   */\n      add\n        /* \"#utility.yul\":8243:8247   */\n      0x20\n        /* \"#utility.yul\":8231:8241   */\n      dup7\n        /* \"#utility.yul\":8228:8248   */\n      lt\n        /* \"#utility.yul\":8225:8272   */\n      iszero\n      tag_247\n      jumpi\n      pop\n        /* \"#utility.yul\":8266:8270   */\n      dup1\n        /* \"#utility.yul\":8225:8272   */\n    tag_247:\n        /* \"#utility.yul\":8321:8323   */\n      0x1f\n        /* \"#utility.yul\":8316:8319   */\n      dup6\n        /* \"#utility.yul\":8312:8324   */\n      add\n        /* \"#utility.yul\":8309:8310   */\n      0x05\n        /* \"#utility.yul\":8305:8325   */\n      shr\n        /* \"#utility.yul\":8299:8303   */\n      dup3\n        /* \"#utility.yul\":8295:8326   */\n      add\n        /* \"#utility.yul\":8285:8326   */\n      swap2\n      pop\n        /* \"#utility.yul\":8376:8458   */\n    tag_248:\n        /* \"#utility.yul\":8394:8396   */\n      dup2\n        /* \"#utility.yul\":8387:8392   */\n      dup2\n        /* \"#utility.yul\":8384:8397   */\n      lt\n        /* \"#utility.yul\":8376:8458   */\n      iszero\n      tag_250\n      jumpi\n        /* \"#utility.yul\":8439:8456   */\n      dup3\n      dup2\n      sstore\n        /* \"#utility.yul\":8420:8421   */\n      0x01\n        /* \"#utility.yul\":8409:8422   */\n      add\n        /* \"#utility.yul\":8376:8458   */\n      jump(tag_248)\n    tag_250:\n        /* \"#utility.yul\":8380:8383   */\n      pop\n      pop\n      pop\n        /* \"#utility.yul\":8020:8468   */\n    tag_246:\n        /* \"#utility.yul\":7929:8474   */\n      pop\n      pop\n      pop\n      jump\t// out\n        /* \"#utility.yul\":8710:10035   */\n    tag_105:\n        /* \"#utility.yul\":8834:8852   */\n      0xffffffffffffffff\n        /* \"#utility.yul\":8829:8832   */\n      dup4\n        /* \"#utility.yul\":8826:8853   */\n      gt\n        /* \"#utility.yul\":8823:8876   */\n      iszero\n      tag_254\n      jumpi\n        /* \"#utility.yul\":8856:8874   */\n      tag_254\n      tag_182\n      jump\t// in\n    tag_254:\n        /* \"#utility.yul\":8885:8979   */\n      tag_255\n        /* \"#utility.yul\":8975:8978   */\n      dup4\n        /* \"#utility.yul\":8935:8973   */\n      tag_256\n        /* \"#utility.yul\":8967:8971   */\n      dup4\n        /* \"#utility.yul\":8961:8972   */\n      sload\n        /* \"#utility.yul\":8935:8973   */\n      tag_135\n      jump\t// in\n    tag_256:\n        /* \"#utility.yul\":8929:8933   */\n      dup4\n        /* \"#utility.yul\":8885:8979   */\n      tag_183\n      jump\t// in\n    tag_255:\n        /* \"#utility.yul\":9005:9006   */\n      0x00\n        /* \"#utility.yul\":9030:9032   */\n      0x1f\n        /* \"#utility.yul\":9025:9028   */\n      dup5\n        /* \"#utility.yul\":9022:9033   */\n      gt\n        /* \"#utility.yul\":9047:9048   */\n      0x01\n        /* \"#utility.yul\":9042:9777   */\n      dup2\n      eq\n      tag_258\n      jumpi\n        /* \"#utility.yul\":9821:9822   */\n      0x00\n        /* \"#utility.yul\":9838:9841   */\n      dup6\n        /* \"#utility.yul\":9835:9928   */\n      iszero\n      tag_259\n      jumpi\n      pop\n        /* \"#utility.yul\":9894:9913   */\n      dup4\n      dup3\n      add\n        /* \"#utility.yul\":9881:9914   */\n      calldataload\n        /* \"#utility.yul\":9835:9928   */\n    tag_259:\n        /* \"#utility.yul\":8616:8682   */\n      0xffffffffffffffffffffffffffffffffffffffffffffffffffffffffffffffff\n        /* \"#utility.yul\":8607:8608   */\n      0x03\n        /* \"#utility.yul\":8603:8614   */\n      dup8\n      swap1\n      shl\n        /* \"#utility.yul\":8599:8683   */\n      shr\n        /* \"#utility.yul\":8595:8684   */\n      not\n        /* \"#utility.yul\":8585:8685   */\n      and\n        /* \"#utility.yul\":8691:8692   */\n      0x01\n        /* \"#utility.yul\":8687:8698   */\n      dup7\n      swap1\n      shl\n        /* \"#utility.yul\":8582:8699   */\n      or\n        /* \"#utility.yul\":9941:10019   */\n      dup4\n      sstore\n        /* \"#utility.yul\":9015:10029   */\n      jump(tag_257)\n        /* \"#utility.yul\":9042:9777   */\n    tag_258:\n        /* \"#utility.yul\":4492:4493   */\n      0x00\n        /* \"#utility.yul\":4485:4499   */\n      dup4\n      dup2\n      mstore\n        /* \"#utility.yul\":4529:4533   */\n      0x20\n        /* \"#utility.yul\":4516:4534   */\n      swap1\n      keccak256\n        /* \"#utility.yul\":9087:9153   */\n      0xffffffffffffffffffffffffffffffffffffffffffffffffffffffffffffffe0\n        /* \"#utility.yul\":9078:9154   */\n      dup7\n      and\n      swap1\n        /* \"#utility.yul\":9238:9247   */\n      dup4\n        /* \"#utility.yul\":9260:9489   */\n    tag_262:\n        /* \"#utility.yul\":9274:9281   */\n      dup3\n        /* \"#utility.yul\":9271:9272   */\n      dup2\n        /* \"#utility.yul\":9268:9282   */\n      lt\n        /* \"#utility.yul\":9260:9489   */\n      iszero\n      tag_264\n      jumpi\n        /* \"#utility.yul\":9363:9382   */\n      dup7\n      dup6\n      add\n        /* \"#utility.yul\":9350:9383   */\n      calldataload\n        /* \"#utility.yul\":9335:9384   */\n      dup3\n      sstore\n        /* \"#utility.yul\":9470:9474   */\n      0x20\n        /* \"#utility.yul\":9455:9475   */\n      swap5\n      dup6\n      add\n      swap5\n        /* \"#utility.yul\":9423:9424   */\n      0x01\n        /* \"#utility.yul\":9411:9425   */\n      swap1\n      swap3\n      add\n      swap2\n        /* \"#utility.yul\":9290:9302   */\n      add\n        /* \"#utility.yul\":9260:9489   */\n      jump(tag_262)\n    tag_264:\n        /* \"#utility.yul\":9264:9267   */\n      pop\n        /* \"#utility.yul\":9517:9520   */\n      dup7\n        /* \"#utility.yul\":9508:9515   */\n      dup3\n        /* \"#utility.yul\":9505:9521   */\n      lt\n        /* \"#utility.yul\":9502:9721   */\n      iszero\n      tag_265\n      jumpi\n        /* \"#utility.yul\":9637:9703   */\n      0xffffffffffffffffffffffffffffffffffffffffffffffffffffffffffffffff\n        /* \"#utility.yul\":9631:9634   */\n      0xf8\n        /* \"#utility.yul\":9625:9628   */\n      dup9\n        /* \"#utility.yul\":9622:9623   */\n      0x03\n        /* \"#utility.yul\":9618:9629   */\n      shl\n        /* \"#utility.yul\":9614:9635   */\n      and\n        /* \"#utility.yul\":9610:9704   */\n      shr\n        /* \"#utility.yul\":9606:9705   */\n      not\n        /* \"#utility.yul\":9593:9602   */\n      dup5\n        /* \"#utility.yul\":9588:9591   */\n      dup8\n        /* \"#utility.yul\":9584:9603   */\n      add\n        /* \"#utility.yul\":9571:9604   */\n      calldataload\n        /* \"#utility.yul\":9567:9706   */\n      and\n        /* \"#utility.yul\":9559:9565   */\n      dup2\n        /* \"#utility.yul\":9552:9707   */\n      sstore\n        /* \"#utility.yul\":9502:9721   */\n    tag_265:\n      pop\n      pop\n        /* \"#utility.yul\":9764:9765   */\n      0x01\n        /* \"#utility.yul\":9758:9761   */\n      dup6\n        /* \"#utility.yul\":9755:9756   */\n      0x01\n        /* \"#utility.yul\":9751:9762   */\n      shl\n        /* \"#utility.yul\":9747:9766   */\n      add\n        /* \"#utility.yul\":9741:9745   */\n      dup4\n        /* \"#utility.yul\":9734:9767   */\n      sstore\n        /* \"#utility.yul\":9015:10029   */\n    tag_257:\n      pop\n      pop\n        /* \"#utility.yul\":8710:10035   */\n      pop\n      pop\n      pop\n      jump\t// out\n        /* \"#utility.yul\":10040:10366   */\n    tag_185:\n        /* \"#utility.yul\":10129:10135   */\n      dup2\n        /* \"#utility.yul\":10124:10127   */\n      dup4\n        /* \"#utility.yul\":10117:10136   */\n      mstore\n        /* \"#utility.yul\":10181:10187   */\n      dup2\n        /* \"#utility.yul\":10174:10179   */\n      dup2\n        /* \"#utility.yul\":10167:10171   */\n      0x20\n        /* \"#utility.yul\":10162:10165   */\n      dup6\n        /* \"#utility.yul\":10158:10172   */\n      add\n        /* \"#utility.yul\":10145:10188   */\n      calldatacopy\n      pop\n        /* \"#utility.yul\":10233:10234   */\n      0x00\n        /* \"#utility.yul\":10226:10230   */\n      0x20\n        /* \"#utility.yul\":10217:10223   */\n      dup3\n        /* \"#utility.yul\":10212:10215   */\n      dup5\n        /* \"#utility.yul\":10208:10224   */\n      add\n        /* \"#utility.yul\":10204:10231   */\n      add\n        /* \"#utility.yul\":10197:10235   */\n      mstore\n        /* \"#utility.yul\":10099:10102   */\n      0x00\n        /* \"#utility.yul\":10355:10359   */\n      0x20\n        /* \"#utility.yul\":10285:10351   */\n      0xffffffffffffffffffffffffffffffffffffffffffffffffffffffffffffffe0\n        /* \"#utility.yul\":10280:10282   */\n      0x1f\n        /* \"#utility.yul\":10272:10278   */\n      dup5\n        /* \"#utility.yul\":10268:10283   */\n      add\n        /* \"#utility.yul\":10264:10352   */\n      and\n        /* \"#utility.yul\":10259:10262   */\n      dup5\n        /* \"#utility.yul\":10255:10353   */\n      add\n        /* \"#utility.yul\":10251:10360   */\n      add\n        /* \"#utility.yul\":10244:10360   */\n      swap1\n      pop\n        /* \"#utility.yul\":10040:10366   */\n      swap3\n      swap2\n      pop\n      pop\n      jump\t// out\n        /* \"#utility.yul\":10371:10738   */\n    tag_108:\n        /* \"#utility.yul\":10558:10560   */\n      0x40\n        /* \"#utility.yul\":10547:10556   */\n      dup2\n        /* \"#utility.yul\":10540:10561   */\n      mstore\n        /* \"#utility.yul\":10521:10525   */\n      0x00\n        /* \"#utility.yul\":10578:10640   */\n      tag_268\n        /* \"#utility.yul\":10636:10638   */\n      0x40\n        /* \"#utility.yul\":10625:10634   */\n      dup4\n        /* \"#utility.yul\":10621:10639   */\n      add\n        /* \"#utility.yul\":10613:10619   */\n      dup6\n        /* \"#utility.yul\":10605:10611   */\n      dup8\n        /* \"#utility.yul\":10578:10640   */\n      tag_185\n      jump\t// in\n    tag_268:\n        /* \"#utility.yul\":10570:10640   */\n      swap1\n      pop\n        /* \"#utility.yul\":10688:10730   */\n      0xffffffffffffffffffffffffffffffffffffffff\n        /* \"#utility.yul\":10680:10686   */\n      dup4\n        /* \"#utility.yul\":10676:10731   */\n      and\n        /* \"#utility.yul\":10671:10673   */\n      0x20\n        /* \"#utility.yul\":10660:10669   */\n      dup4\n        /* \"#utility.yul\":10656:10674   */\n      add\n        /* \"#utility.yul\":10649:10732   */\n      mstore\n        /* \"#utility.yul\":10371:10738   */\n      swap5\n      swap4\n      pop\n      pop\n      pop\n      pop\n      jump\t// out\n        /* \"#utility.yul\":11428:11675   */\n    tag_132:\n        /* \"#utility.yul\":11587:11589   */\n      0x20\n        /* \"#utility.yul\":11576:11585   */\n      dup2\n        /* \"#utility.yul\":11569:11590   */\n      mstore\n        /* \"#utility.yul\":11550:11554   */\n      0x00\n        /* \"#utility.yul\":11607:11669   */\n      tag_272\n        /* \"#utility.yul\":11665:11667   */\n      0x20\n        /* \"#utility.yul\":11654:11663   */\n      dup4\n        /* \"#utility.yul\":11650:11668   */\n      add\n        /* \"#utility.yul\":11642:11648   */\n      dup5\n        /* \"#utility.yul\":11634:11640   */\n      dup7\n        /* \"#utility.yul\":11607:11669   */\n      tag_185\n      jump\t// in\n    tag_272:\n        /* \"#utility.yul\":11599:11669   */\n      swap5\n        /* \"#utility.yul\":11428:11675   */\n      swap4\n      pop\n      pop\n      pop\n      pop\n      jump\t// out\n\n    auxdata: 0xa264697066735822122088360b7de8a00cc66dc89e0713d2880d83a158ab8e11512a37f0c1e94135a14264736f6c63430008120033\n}\n",
				"bytecode": {
					"linkReferences": {},
					"object": "608060405260008054336001600160a01b0319918216811790925560018054909116909117905534801561003257600080fd5b5061170f806100426000396000f3fe6080604052600436106100a95760003560e01c806395fcd69211610063578063c75ffd861161004b578063c75ffd86146101d5578063e666cdef146101f5578063ee5503d01461021c57005b806395fcd69214610188578063bc303370146101b557005b8063244ded7a11610091578063244ded7a146101335780633fab62ba146101535780638a5474371461016857005b8063098e3bb0146100b25780630ae50a39146100e757005b366100b057005b005b3480156100be57600080fd5b506100d26100cd366004611196565b610231565b60405190151581526020015b60405180910390f35b3480156100f357600080fd5b5060005473ffffffffffffffffffffffffffffffffffffffff165b60405173ffffffffffffffffffffffffffffffffffffffff90911681526020016100de565b34801561013f57600080fd5b506100d261014e3660046111ea565b6106dd565b34801561015f57600080fd5b506100d26107a6565b34801561017457600080fd5b506100d261018336600461120c565b6108ae565b34801561019457600080fd5b506101a86101a33660046111ea565b610aef565b6040516100de9190611272565b3480156101c157600080fd5b506100d26101d0366004611196565b610ba8565b3480156101e157600080fd5b5061010e6101f036600461120c565b611091565b34801561020157600080fd5b50739c3c9283d3e44854697cd22d3faa240cfb03288961010e565b34801561022857600080fd5b5061101061010e565b6000805473ffffffffffffffffffffffffffffffffffffffff1633146102b8576040517f08c379a000000000000000000000000000000000000000000000000000000000815260206004820152600a60248201527f4f776e6572206f6e6c790000000000000000000000000000000000000000000060448201526064015b60405180910390fd5b600180547fffffffffffffffffffffffff00000000000000000000000000000000000000001690556040516000906002906102f690879087906112c3565b9081526040519081900360200190205473ffffffffffffffffffffffffffffffffffffffff1614610383576040517f08c379a000000000000000000000000000000000000000000000000000000000815260206004820152601160248201527f4e616d6520616c7265616479207573656400000000000000000000000000000060448201526064016102af565b60408051600080825260208083018085528351902073ffffffffffffffffffffffffffffffffffffffff8716835260039091529083902090926103c69201611326565b6040516020818303038152906040528051906020012014610443576040517f08c379a000000000000000000000000000000000000000000000000000000000815260206004820152601460248201527f4164647265737320616c7265616479207573656400000000000000000000000060448201526064016102af565b813b63ffffffff81166000036104b5576040517f08c379a000000000000000000000000000000000000000000000000000000000815260206004820152600e60248201527f4e6f74206120636f6e747261637400000000000000000000000000000000000060448201526064016102af565b60008373ffffffffffffffffffffffffffffffffffffffff16638052474d6040518163ffffffff1660e01b8152600401600060405180830381865afa158015610502573d6000803e3d6000fd5b505050506040513d6000823e601f3d9081017fffffffffffffffffffffffffffffffffffffffffffffffffffffffffffffffe016820160405261054891908101906113e9565b90508060405160200161055b91906114b4565b6040516020818303038152906040528051906020012086866040516020016105849291906112c3565b6040516020818303038152906040528051906020012014610601576040517f08c379a000000000000000000000000000000000000000000000000000000000815260206004820152600e60248201527f4e616d6573206d69736d6174636800000000000000000000000000000000000060448201526064016102af565b83600287876040516106149291906112c3565b908152604080516020928190038301902080547fffffffffffffffffffffffff00000000000000000000000000000000000000001673ffffffffffffffffffffffffffffffffffffffff948516179055918616600090815260039091522061067d86888361151f565b50858560405161068e9291906112c3565b60405180910390207fc61fb2b430498a205911ab416f331fda617468162613b83ccf1d4ac08a7ea4e88787876040516106c993929190611683565b60405180910390a250600195945050505050565b6000805473ffffffffffffffffffffffffffffffffffffffff16331461075f576040517f08c379a000000000000000000000000000000000000000000000000000000000815260206004820152600a60248201527f4f776e6572206f6e6c790000000000000000000000000000000000000000000060448201526064016102af565b50600180547fffffffffffffffffffffffff00000000000000000000000000000000000000001673ffffffffffffffffffffffffffffffffffffffff83161781555b919050565b60015460009073ffffffffffffffffffffffffffffffffffffffff16331461082a576040517f08c379a000000000000000000000000000000000000000000000000000000000815260206004820152600e60248201527f43616e206e6f742061636365707400000000000000000000000000000000000060448201526064016102af565b600080546001805473ffffffffffffffffffffffffffffffffffffffff8082167fffffffffffffffffffffffff000000000000000000000000000000000000000080861682178755909216909255604051919092169283917f3144a367e9e4a01c9aa66bb51a6f2c06a93959657ba200331aecf472eea506b19190a3600191505090565b6000805473ffffffffffffffffffffffffffffffffffffffff163314610930576040517f08c379a000000000000000000000000000000000000000000000000000000000815260206004820152600a60248201527f4f776e6572206f6e6c790000000000000000000000000000000000000000000060448201526064016102af565b600180547fffffffffffffffffffffffff000000000000000000000000000000000000000016905560405160009060029061096e90869086906112c3565b9081526040519081900360200190205473ffffffffffffffffffffffffffffffffffffffff16036109fb576040517f08c379a000000000000000000000000000000000000000000000000000000000815260206004820152600d60248201527f4e616d65206e6f7420757365640000000000000000000000000000000000000060448201526064016102af565b6003600060028585604051610a119291906112c3565b90815260408051602092819003830190205473ffffffffffffffffffffffffffffffffffffffff16835290820192909252016000908120610a51916110d3565b60028383604051610a639291906112c3565b90815260405190819003602001812080547fffffffffffffffffffffffff0000000000000000000000000000000000000000169055610aa590849084906112c3565b60405180910390207f14d09f277f8cdd99980f9affd7630e9d1cf9f6cd905afddb9386d71e5e43b2138484604051610ade9291906116bd565b60405180910390a250600192915050565b73ffffffffffffffffffffffffffffffffffffffff81166000908152600360205260409020805460609190610b23906112d3565b80601f0160208091040260200160405190810160405280929190818152602001828054610b4f906112d3565b8015610b9c5780601f10610b7157610100808354040283529160200191610b9c565b820191906000526020600020905b815481529060010190602001808311610b7f57829003601f168201915b50505050509050919050565b6000805473ffffffffffffffffffffffffffffffffffffffff163314610c2a576040517f08c379a000000000000000000000000000000000000000000000000000000000815260206004820152600a60248201527f4f776e6572206f6e6c790000000000000000000000000000000000000000000060448201526064016102af565b600180547fffffffffffffffffffffffff0000000000000000000000000000000000000000169055604051600090600290610c6890879087906112c3565b9081526040519081900360200190205473ffffffffffffffffffffffffffffffffffffffff1603610cf5576040517f08c379a000000000000000000000000000000000000000000000000000000000815260206004820152600d60248201527f4e616d65206e6f7420757365640000000000000000000000000000000000000060448201526064016102af565b60408051600080825260208083018085528351902073ffffffffffffffffffffffffffffffffffffffff871683526003909152908390209092610d389201611326565b6040516020818303038152906040528051906020012014610db5576040517f08c379a000000000000000000000000000000000000000000000000000000000815260206004820152601460248201527f4164647265737320616c7265616479207573656400000000000000000000000060448201526064016102af565b813b63ffffffff8116600003610e27576040517f08c379a000000000000000000000000000000000000000000000000000000000815260206004820152600e60248201527f4e6f74206120636f6e747261637400000000000000000000000000000000000060448201526064016102af565b60008373ffffffffffffffffffffffffffffffffffffffff16638052474d6040518163ffffffff1660e01b8152600401600060405180830381865afa158015610e74573d6000803e3d6000fd5b505050506040513d6000823e601f3d9081017fffffffffffffffffffffffffffffffffffffffffffffffffffffffffffffffe0168201604052610eba91908101906113e9565b905080604051602001610ecd91906114b4565b604051602081830303815290604052805190602001208686604051602001610ef69291906112c3565b6040516020818303038152906040528051906020012014610f73576040517f08c379a000000000000000000000000000000000000000000000000000000000815260206004820152600e60248201527f4e616d6573206d69736d6174636800000000000000000000000000000000000060448201526064016102af565b6003600060028888604051610f899291906112c3565b90815260408051602092819003830190205473ffffffffffffffffffffffffffffffffffffffff16835290820192909252016000908120610fc9916110d3565b8360028787604051610fdc9291906112c3565b908152604080516020928190038301902080547fffffffffffffffffffffffff00000000000000000000000000000000000000001673ffffffffffffffffffffffffffffffffffffffff948516179055918616600090815260039091522061104586888361151f565b5085856040516110569291906112c3565b60405180910390207f3e689fadf9c14263d1461e16c92022e56204bbc0101ca024528208cbdf0426568787876040516106c993929190611683565b6000600283836040516110a59291906112c3565b9081526040519081900360200190205473ffffffffffffffffffffffffffffffffffffffff16905092915050565b5080546110df906112d3565b6000825580601f106110ef575050565b601f01602090049060005260206000209081019061110d9190611110565b50565b5b808211156111255760008155600101611111565b5090565b60008083601f84011261113b57600080fd5b50813567ffffffffffffffff81111561115357600080fd5b60208301915083602082850101111561116b57600080fd5b9250929050565b803573ffffffffffffffffffffffffffffffffffffffff811681146107a157600080fd5b6000806000604084860312156111ab57600080fd5b833567ffffffffffffffff8111156111c257600080fd5b6111ce86828701611129565b90945092506111e1905060208501611172565b90509250925092565b6000602082840312156111fc57600080fd5b61120582611172565b9392505050565b6000806020838503121561121f57600080fd5b823567ffffffffffffffff81111561123657600080fd5b61124285828601611129565b90969095509350505050565b60005b83811015611269578181015183820152602001611251565b50506000910152565b602081526000825180602084015261129181604085016020870161124e565b601f017fffffffffffffffffffffffffffffffffffffffffffffffffffffffffffffffe0169190910160400192915050565b8183823760009101908152919050565b600181811c908216806112e757607f821691505b602082108103611320577f4e487b7100000000000000000000000000000000000000000000000000000000600052602260045260246000fd5b50919050565b6000808354611334816112d3565b6001828116801561134c576001811461137f576113ae565b7fffffffffffffffffffffffffffffffffffffffffffffffffffffffffffffff00841687528215158302870194506113ae565b8760005260208060002060005b858110156113a55781548a82015290840190820161138c565b50505082870194505b50929695505050505050565b7f4e487b7100000000000000000000000000000000000000000000000000000000600052604160045260246000fd5b6000602082840312156113fb57600080fd5b815167ffffffffffffffff8082111561141357600080fd5b818401915084601f83011261142757600080fd5b815181811115611439576114396113ba565b604051601f82017fffffffffffffffffffffffffffffffffffffffffffffffffffffffffffffffe0908116603f0116810190838211818310171561147f5761147f6113ba565b8160405282815287602084870101111561149857600080fd5b6114a983602083016020880161124e565b979650505050505050565b600082516114c681846020870161124e565b9190910192915050565b601f82111561151a57600081815260208120601f850160051c810160208610156114f75750805b601f850160051c820191505b8181101561151657828155600101611503565b5050505b505050565b67ffffffffffffffff831115611537576115376113ba565b61154b8361154583546112d3565b836114d0565b6000601f84116001811461159d57600085156115675750838201355b7fffffffffffffffffffffffffffffffffffffffffffffffffffffffffffffffff600387901b1c1916600186901b178355611633565b6000838152602090207fffffffffffffffffffffffffffffffffffffffffffffffffffffffffffffffe0861690835b828110156115ec57868501358255602094850194600190920191016115cc565b5086821015611627577fffffffffffffffffffffffffffffffffffffffffffffffffffffffffffffffff60f88860031b161c19848701351681555b505060018560011b0183555b5050505050565b8183528181602085013750600060208284010152600060207fffffffffffffffffffffffffffffffffffffffffffffffffffffffffffffffe0601f840116840101905092915050565b60408152600061169760408301858761163a565b905073ffffffffffffffffffffffffffffffffffffffff83166020830152949350505050565b6020815260006116d160208301848661163a565b94935050505056fea264697066735822122088360b7de8a00cc66dc89e0713d2880d83a158ab8e11512a37f0c1e94135a14264736f6c63430008120033",
					"opcodes": "PUSH1 0x80 PUSH1 0x40 MSTORE PUSH1 0x0 DUP1 SLOAD CALLER PUSH1 0x1 PUSH1 0x1 PUSH1 0xA0 SHL SUB NOT SWAP2 DUP3 AND DUP2 OR SWAP1 SWAP3 SSTORE PUSH1 0x1 DUP1 SLOAD SWAP1 SWAP2 AND SWAP1 SWAP2 OR SWAP1 SSTORE CALLVALUE DUP1 ISZERO PUSH2 0x32 JUMPI PUSH1 0x0 DUP1 REVERT JUMPDEST POP PUSH2 0x170F DUP1 PUSH2 0x42 PUSH1 0x0 CODECOPY PUSH1 0x0 RETURN INVALID PUSH1 0x80 PUSH1 0x40 MSTORE PUSH1 0x4 CALLDATASIZE LT PUSH2 0xA9 JUMPI PUSH1 0x0 CALLDATALOAD PUSH1 0xE0 SHR DUP1 PUSH4 0x95FCD692 GT PUSH2 0x63 JUMPI DUP1 PUSH4 0xC75FFD86 GT PUSH2 0x4B JUMPI DUP1 PUSH4 0xC75FFD86 EQ PUSH2 0x1D5 JUMPI DUP1 PUSH4 0xE666CDEF EQ PUSH2 0x1F5 JUMPI DUP1 PUSH4 0xEE5503D0 EQ PUSH2 0x21C JUMPI STOP JUMPDEST DUP1 PUSH4 0x95FCD692 EQ PUSH2 0x188 JUMPI DUP1 PUSH4 0xBC303370 EQ PUSH2 0x1B5 JUMPI STOP JUMPDEST DUP1 PUSH4 0x244DED7A GT PUSH2 0x91 JUMPI DUP1 PUSH4 0x244DED7A EQ PUSH2 0x133 JUMPI DUP1 PUSH4 0x3FAB62BA EQ PUSH2 0x153 JUMPI DUP1 PUSH4 0x8A547437 EQ PUSH2 0x168 JUMPI STOP JUMPDEST DUP1 PUSH4 0x98E3BB0 EQ PUSH2 0xB2 JUMPI DUP1 PUSH4 0xAE50A39 EQ PUSH2 0xE7 JUMPI STOP JUMPDEST CALLDATASIZE PUSH2 0xB0 JUMPI STOP JUMPDEST STOP JUMPDEST CALLVALUE DUP1 ISZERO PUSH2 0xBE JUMPI PUSH1 0x0 DUP1 REVERT JUMPDEST POP PUSH2 0xD2 PUSH2 0xCD CALLDATASIZE PUSH1 0x4 PUSH2 0x1196 JUMP JUMPDEST PUSH2 0x231 JUMP JUMPDEST PUSH1 0x40 MLOAD SWAP1 ISZERO ISZERO DUP2 MSTORE PUSH1 0x20 ADD JUMPDEST PUSH1 0x40 MLOAD DUP1 SWAP2 SUB SWAP1 RETURN JUMPDEST CALLVALUE DUP1 ISZERO PUSH2 0xF3 JUMPI PUSH1 0x0 DUP1 REVERT JUMPDEST POP PUSH1 0x0 SLOAD PUSH20 0xFFFFFFFFFFFFFFFFFFFFFFFFFFFFFFFFFFFFFFFF AND JUMPDEST PUSH1 0x40 MLOAD PUSH20 0xFFFFFFFFFFFFFFFFFFFFFFFFFFFFFFFFFFFFFFFF SWAP1 SWAP2 AND DUP2 MSTORE PUSH1 0x20 ADD PUSH2 0xDE JUMP JUMPDEST CALLVALUE DUP1 ISZERO PUSH2 0x13F JUMPI PUSH1 0x0 DUP1 REVERT JUMPDEST POP PUSH2 0xD2 PUSH2 0x14E CALLDATASIZE PUSH1 0x4 PUSH2 0x11EA JUMP JUMPDEST PUSH2 0x6DD JUMP JUMPDEST CALLVALUE DUP1 ISZERO PUSH2 0x15F JUMPI PUSH1 0x0 DUP1 REVERT JUMPDEST POP PUSH2 0xD2 PUSH2 0x7A6 JUMP JUMPDEST CALLVALUE DUP1 ISZERO PUSH2 0x174 JUMPI PUSH1 0x0 DUP1 REVERT JUMPDEST POP PUSH2 0xD2 PUSH2 0x183 CALLDATASIZE PUSH1 0x4 PUSH2 0x120C JUMP JUMPDEST PUSH2 0x8AE JUMP JUMPDEST CALLVALUE DUP1 ISZERO PUSH2 0x194 JUMPI PUSH1 0x0 DUP1 REVERT JUMPDEST POP PUSH2 0x1A8 PUSH2 0x1A3 CALLDATASIZE PUSH1 0x4 PUSH2 0x11EA JUMP JUMPDEST PUSH2 0xAEF JUMP JUMPDEST PUSH1 0x40 MLOAD PUSH2 0xDE SWAP2 SWAP1 PUSH2 0x1272 JUMP JUMPDEST CALLVALUE DUP1 ISZERO PUSH2 0x1C1 JUMPI PUSH1 0x0 DUP1 REVERT JUMPDEST POP PUSH2 0xD2 PUSH2 0x1D0 CALLDATASIZE PUSH1 0x4 PUSH2 0x1196 JUMP JUMPDEST PUSH2 0xBA8 JUMP JUMPDEST CALLVALUE DUP1 ISZERO PUSH2 0x1E1 JUMPI PUSH1 0x0 DUP1 REVERT JUMPDEST POP PUSH2 0x10E PUSH2 0x1F0 CALLDATASIZE PUSH1 0x4 PUSH2 0x120C JUMP JUMPDEST PUSH2 0x1091 JUMP JUMPDEST CALLVALUE DUP1 ISZERO PUSH2 0x201 JUMPI PUSH1 0x0 DUP1 REVERT JUMPDEST POP PUSH20 0x9C3C9283D3E44854697CD22D3FAA240CFB032889 PUSH2 0x10E JUMP JUMPDEST CALLVALUE DUP1 ISZERO PUSH2 0x228 JUMPI PUSH1 0x0 DUP1 REVERT JUMPDEST POP PUSH2 0x1010 PUSH2 0x10E JUMP JUMPDEST PUSH1 0x0 DUP1 SLOAD PUSH20 0xFFFFFFFFFFFFFFFFFFFFFFFFFFFFFFFFFFFFFFFF AND CALLER EQ PUSH2 0x2B8 JUMPI PUSH1 0x40 MLOAD PUSH32 0x8C379A000000000000000000000000000000000000000000000000000000000 DUP2 MSTORE PUSH1 0x20 PUSH1 0x4 DUP3 ADD MSTORE PUSH1 0xA PUSH1 0x24 DUP3 ADD MSTORE PUSH32 0x4F776E6572206F6E6C7900000000000000000000000000000000000000000000 PUSH1 0x44 DUP3 ADD MSTORE PUSH1 0x64 ADD JUMPDEST PUSH1 0x40 MLOAD DUP1 SWAP2 SUB SWAP1 REVERT JUMPDEST PUSH1 0x1 DUP1 SLOAD PUSH32 0xFFFFFFFFFFFFFFFFFFFFFFFF0000000000000000000000000000000000000000 AND SWAP1 SSTORE PUSH1 0x40 MLOAD PUSH1 0x0 SWAP1 PUSH1 0x2 SWAP1 PUSH2 0x2F6 SWAP1 DUP8 SWAP1 DUP8 SWAP1 PUSH2 0x12C3 JUMP JUMPDEST SWAP1 DUP2 MSTORE PUSH1 0x40 MLOAD SWAP1 DUP2 SWAP1 SUB PUSH1 0x20 ADD SWAP1 KECCAK256 SLOAD PUSH20 0xFFFFFFFFFFFFFFFFFFFFFFFFFFFFFFFFFFFFFFFF AND EQ PUSH2 0x383 JUMPI PUSH1 0x40 MLOAD PUSH32 0x8C379A000000000000000000000000000000000000000000000000000000000 DUP2 MSTORE PUSH1 0x20 PUSH1 0x4 DUP3 ADD MSTORE PUSH1 0x11 PUSH1 0x24 DUP3 ADD MSTORE PUSH32 0x4E616D6520616C72656164792075736564000000000000000000000000000000 PUSH1 0x44 DUP3 ADD MSTORE PUSH1 0x64 ADD PUSH2 0x2AF JUMP JUMPDEST PUSH1 0x40 DUP1 MLOAD PUSH1 0x0 DUP1 DUP3 MSTORE PUSH1 0x20 DUP1 DUP4 ADD DUP1 DUP6 MSTORE DUP4 MLOAD SWAP1 KECCAK256 PUSH20 0xFFFFFFFFFFFFFFFFFFFFFFFFFFFFFFFFFFFFFFFF DUP8 AND DUP4 MSTORE PUSH1 0x3 SWAP1 SWAP2 MSTORE SWAP1 DUP4 SWAP1 KECCAK256 SWAP1 SWAP3 PUSH2 0x3C6 SWAP3 ADD PUSH2 0x1326 JUMP JUMPDEST PUSH1 0x40 MLOAD PUSH1 0x20 DUP2 DUP4 SUB SUB DUP2 MSTORE SWAP1 PUSH1 0x40 MSTORE DUP1 MLOAD SWAP1 PUSH1 0x20 ADD KECCAK256 EQ PUSH2 0x443 JUMPI PUSH1 0x40 MLOAD PUSH32 0x8C379A000000000000000000000000000000000000000000000000000000000 DUP2 MSTORE PUSH1 0x20 PUSH1 0x4 DUP3 ADD MSTORE PUSH1 0x14 PUSH1 0x24 DUP3 ADD MSTORE PUSH32 0x4164647265737320616C72656164792075736564000000000000000000000000 PUSH1 0x44 DUP3 ADD MSTORE PUSH1 0x64 ADD PUSH2 0x2AF JUMP JUMPDEST DUP2 EXTCODESIZE PUSH4 0xFFFFFFFF DUP2 AND PUSH1 0x0 SUB PUSH2 0x4B5 JUMPI PUSH1 0x40 MLOAD PUSH32 0x8C379A000000000000000000000000000000000000000000000000000000000 DUP2 MSTORE PUSH1 0x20 PUSH1 0x4 DUP3 ADD MSTORE PUSH1 0xE PUSH1 0x24 DUP3 ADD MSTORE PUSH32 0x4E6F74206120636F6E7472616374000000000000000000000000000000000000 PUSH1 0x44 DUP3 ADD MSTORE PUSH1 0x64 ADD PUSH2 0x2AF JUMP JUMPDEST PUSH1 0x0 DUP4 PUSH20 0xFFFFFFFFFFFFFFFFFFFFFFFFFFFFFFFFFFFFFFFF AND PUSH4 0x8052474D PUSH1 0x40 MLOAD DUP2 PUSH4 0xFFFFFFFF AND PUSH1 0xE0 SHL DUP2 MSTORE PUSH1 0x4 ADD PUSH1 0x0 PUSH1 0x40 MLOAD DUP1 DUP4 SUB DUP2 DUP7 GAS STATICCALL ISZERO DUP1 ISZERO PUSH2 0x502 JUMPI RETURNDATASIZE PUSH1 0x0 DUP1 RETURNDATACOPY RETURNDATASIZE PUSH1 0x0 REVERT JUMPDEST POP POP POP POP PUSH1 0x40 MLOAD RETURNDATASIZE PUSH1 0x0 DUP3 RETURNDATACOPY PUSH1 0x1F RETURNDATASIZE SWAP1 DUP2 ADD PUSH32 0xFFFFFFFFFFFFFFFFFFFFFFFFFFFFFFFFFFFFFFFFFFFFFFFFFFFFFFFFFFFFFFE0 AND DUP3 ADD PUSH1 0x40 MSTORE PUSH2 0x548 SWAP2 SWAP1 DUP2 ADD SWAP1 PUSH2 0x13E9 JUMP JUMPDEST SWAP1 POP DUP1 PUSH1 0x40 MLOAD PUSH1 0x20 ADD PUSH2 0x55B SWAP2 SWAP1 PUSH2 0x14B4 JUMP JUMPDEST PUSH1 0x40 MLOAD PUSH1 0x20 DUP2 DUP4 SUB SUB DUP2 MSTORE SWAP1 PUSH1 0x40 MSTORE DUP1 MLOAD SWAP1 PUSH1 0x20 ADD KECCAK256 DUP7 DUP7 PUSH1 0x40 MLOAD PUSH1 0x20 ADD PUSH2 0x584 SWAP3 SWAP2 SWAP1 PUSH2 0x12C3 JUMP JUMPDEST PUSH1 0x40 MLOAD PUSH1 0x20 DUP2 DUP4 SUB SUB DUP2 MSTORE SWAP1 PUSH1 0x40 MSTORE DUP1 MLOAD SWAP1 PUSH1 0x20 ADD KECCAK256 EQ PUSH2 0x601 JUMPI PUSH1 0x40 MLOAD PUSH32 0x8C379A000000000000000000000000000000000000000000000000000000000 DUP2 MSTORE PUSH1 0x20 PUSH1 0x4 DUP3 ADD MSTORE PUSH1 0xE PUSH1 0x24 DUP3 ADD MSTORE PUSH32 0x4E616D6573206D69736D61746368000000000000000000000000000000000000 PUSH1 0x44 DUP3 ADD MSTORE PUSH1 0x64 ADD PUSH2 0x2AF JUMP JUMPDEST DUP4 PUSH1 0x2 DUP8 DUP8 PUSH1 0x40 MLOAD PUSH2 0x614 SWAP3 SWAP2 SWAP1 PUSH2 0x12C3 JUMP JUMPDEST SWAP1 DUP2 MSTORE PUSH1 0x40 DUP1 MLOAD PUSH1 0x20 SWAP3 DUP2 SWAP1 SUB DUP4 ADD SWAP1 KECCAK256 DUP1 SLOAD PUSH32 0xFFFFFFFFFFFFFFFFFFFFFFFF0000000000000000000000000000000000000000 AND PUSH20 0xFFFFFFFFFFFFFFFFFFFFFFFFFFFFFFFFFFFFFFFF SWAP5 DUP6 AND OR SWAP1 SSTORE SWAP2 DUP7 AND PUSH1 0x0 SWAP1 DUP2 MSTORE PUSH1 0x3 SWAP1 SWAP2 MSTORE KECCAK256 PUSH2 0x67D DUP7 DUP9 DUP4 PUSH2 0x151F JUMP JUMPDEST POP DUP6 DUP6 PUSH1 0x40 MLOAD PUSH2 0x68E SWAP3 SWAP2 SWAP1 PUSH2 0x12C3 JUMP JUMPDEST PUSH1 0x40 MLOAD DUP1 SWAP2 SUB SWAP1 KECCAK256 PUSH32 0xC61FB2B430498A205911AB416F331FDA617468162613B83CCF1D4AC08A7EA4E8 DUP8 DUP8 DUP8 PUSH1 0x40 MLOAD PUSH2 0x6C9 SWAP4 SWAP3 SWAP2 SWAP1 PUSH2 0x1683 JUMP JUMPDEST PUSH1 0x40 MLOAD DUP1 SWAP2 SUB SWAP1 LOG2 POP PUSH1 0x1 SWAP6 SWAP5 POP POP POP POP POP JUMP JUMPDEST PUSH1 0x0 DUP1 SLOAD PUSH20 0xFFFFFFFFFFFFFFFFFFFFFFFFFFFFFFFFFFFFFFFF AND CALLER EQ PUSH2 0x75F JUMPI PUSH1 0x40 MLOAD PUSH32 0x8C379A000000000000000000000000000000000000000000000000000000000 DUP2 MSTORE PUSH1 0x20 PUSH1 0x4 DUP3 ADD MSTORE PUSH1 0xA PUSH1 0x24 DUP3 ADD MSTORE PUSH32 0x4F776E6572206F6E6C7900000000000000000000000000000000000000000000 PUSH1 0x44 DUP3 ADD MSTORE PUSH1 0x64 ADD PUSH2 0x2AF JUMP JUMPDEST POP PUSH1 0x1 DUP1 SLOAD PUSH32 0xFFFFFFFFFFFFFFFFFFFFFFFF0000000000000000000000000000000000000000 AND PUSH20 0xFFFFFFFFFFFFFFFFFFFFFFFFFFFFFFFFFFFFFFFF DUP4 AND OR DUP2 SSTORE JUMPDEST SWAP2 SWAP1 POP JUMP JUMPDEST PUSH1 0x1 SLOAD PUSH1 0x0 SWAP1 PUSH20 0xFFFFFFFFFFFFFFFFFFFFFFFFFFFFFFFFFFFFFFFF AND CALLER EQ PUSH2 0x82A JUMPI PUSH1 0x40 MLOAD PUSH32 0x8C379A000000000000000000000000000000000000000000000000000000000 DUP2 MSTORE PUSH1 0x20 PUSH1 0x4 DUP3 ADD MSTORE PUSH1 0xE PUSH1 0x24 DUP3 ADD MSTORE PUSH32 0x43616E206E6F7420616363657074000000000000000000000000000000000000 PUSH1 0x44 DUP3 ADD MSTORE PUSH1 0x64 ADD PUSH2 0x2AF JUMP JUMPDEST PUSH1 0x0 DUP1 SLOAD PUSH1 0x1 DUP1 SLOAD PUSH20 0xFFFFFFFFFFFFFFFFFFFFFFFFFFFFFFFFFFFFFFFF DUP1 DUP3 AND PUSH32 0xFFFFFFFFFFFFFFFFFFFFFFFF0000000000000000000000000000000000000000 DUP1 DUP7 AND DUP3 OR DUP8 SSTORE SWAP1 SWAP3 AND SWAP1 SWAP3 SSTORE PUSH1 0x40 MLOAD SWAP2 SWAP1 SWAP3 AND SWAP3 DUP4 SWAP2 PUSH32 0x3144A367E9E4A01C9AA66BB51A6F2C06A93959657BA200331AECF472EEA506B1 SWAP2 SWAP1 LOG3 PUSH1 0x1 SWAP2 POP POP SWAP1 JUMP JUMPDEST PUSH1 0x0 DUP1 SLOAD PUSH20 0xFFFFFFFFFFFFFFFFFFFFFFFFFFFFFFFFFFFFFFFF AND CALLER EQ PUSH2 0x930 JUMPI PUSH1 0x40 MLOAD PUSH32 0x8C379A000000000000000000000000000000000000000000000000000000000 DUP2 MSTORE PUSH1 0x20 PUSH1 0x4 DUP3 ADD MSTORE PUSH1 0xA PUSH1 0x24 DUP3 ADD MSTORE PUSH32 0x4F776E6572206F6E6C7900000000000000000000000000000000000000000000 PUSH1 0x44 DUP3 ADD MSTORE PUSH1 0x64 ADD PUSH2 0x2AF JUMP JUMPDEST PUSH1 0x1 DUP1 SLOAD PUSH32 0xFFFFFFFFFFFFFFFFFFFFFFFF0000000000000000000000000000000000000000 AND SWAP1 SSTORE PUSH1 0x40 MLOAD PUSH1 0x0 SWAP1 PUSH1 0x2 SWAP1 PUSH2 0x96E SWAP1 DUP7 SWAP1 DUP7 SWAP1 PUSH2 0x12C3 JUMP JUMPDEST SWAP1 DUP2 MSTORE PUSH1 0x40 MLOAD SWAP1 DUP2 SWAP1 SUB PUSH1 0x20 ADD SWAP1 KECCAK256 SLOAD PUSH20 0xFFFFFFFFFFFFFFFFFFFFFFFFFFFFFFFFFFFFFFFF AND SUB PUSH2 0x9FB JUMPI PUSH1 0x40 MLOAD PUSH32 0x8C379A000000000000000000000000000000000000000000000000000000000 DUP2 MSTORE PUSH1 0x20 PUSH1 0x4 DUP3 ADD MSTORE PUSH1 0xD PUSH1 0x24 DUP3 ADD MSTORE PUSH32 0x4E616D65206E6F74207573656400000000000000000000000000000000000000 PUSH1 0x44 DUP3 ADD MSTORE PUSH1 0x64 ADD PUSH2 0x2AF JUMP JUMPDEST PUSH1 0x3 PUSH1 0x0 PUSH1 0x2 DUP6 DUP6 PUSH1 0x40 MLOAD PUSH2 0xA11 SWAP3 SWAP2 SWAP1 PUSH2 0x12C3 JUMP JUMPDEST SWAP1 DUP2 MSTORE PUSH1 0x40 DUP1 MLOAD PUSH1 0x20 SWAP3 DUP2 SWAP1 SUB DUP4 ADD SWAP1 KECCAK256 SLOAD PUSH20 0xFFFFFFFFFFFFFFFFFFFFFFFFFFFFFFFFFFFFFFFF AND DUP4 MSTORE SWAP1 DUP3 ADD SWAP3 SWAP1 SWAP3 MSTORE ADD PUSH1 0x0 SWAP1 DUP2 KECCAK256 PUSH2 0xA51 SWAP2 PUSH2 0x10D3 JUMP JUMPDEST PUSH1 0x2 DUP4 DUP4 PUSH1 0x40 MLOAD PUSH2 0xA63 SWAP3 SWAP2 SWAP1 PUSH2 0x12C3 JUMP JUMPDEST SWAP1 DUP2 MSTORE PUSH1 0x40 MLOAD SWAP1 DUP2 SWAP1 SUB PUSH1 0x20 ADD DUP2 KECCAK256 DUP1 SLOAD PUSH32 0xFFFFFFFFFFFFFFFFFFFFFFFF0000000000000000000000000000000000000000 AND SWAP1 SSTORE PUSH2 0xAA5 SWAP1 DUP5 SWAP1 DUP5 SWAP1 PUSH2 0x12C3 JUMP JUMPDEST PUSH1 0x40 MLOAD DUP1 SWAP2 SUB SWAP1 KECCAK256 PUSH32 0x14D09F277F8CDD99980F9AFFD7630E9D1CF9F6CD905AFDDB9386D71E5E43B213 DUP5 DUP5 PUSH1 0x40 MLOAD PUSH2 0xADE SWAP3 SWAP2 SWAP1 PUSH2 0x16BD JUMP JUMPDEST PUSH1 0x40 MLOAD DUP1 SWAP2 SUB SWAP1 LOG2 POP PUSH1 0x1 SWAP3 SWAP2 POP POP JUMP JUMPDEST PUSH20 0xFFFFFFFFFFFFFFFFFFFFFFFFFFFFFFFFFFFFFFFF DUP2 AND PUSH1 0x0 SWAP1 DUP2 MSTORE PUSH1 0x3 PUSH1 0x20 MSTORE PUSH1 0x40 SWAP1 KECCAK256 DUP1 SLOAD PUSH1 0x60 SWAP2 SWAP1 PUSH2 0xB23 SWAP1 PUSH2 0x12D3 JUMP JUMPDEST DUP1 PUSH1 0x1F ADD PUSH1 0x20 DUP1 SWAP2 DIV MUL PUSH1 0x20 ADD PUSH1 0x40 MLOAD SWAP1 DUP2 ADD PUSH1 0x40 MSTORE DUP1 SWAP3 SWAP2 SWAP1 DUP2 DUP2 MSTORE PUSH1 0x20 ADD DUP3 DUP1 SLOAD PUSH2 0xB4F SWAP1 PUSH2 0x12D3 JUMP JUMPDEST DUP1 ISZERO PUSH2 0xB9C JUMPI DUP1 PUSH1 0x1F LT PUSH2 0xB71 JUMPI PUSH2 0x100 DUP1 DUP4 SLOAD DIV MUL DUP4 MSTORE SWAP2 PUSH1 0x20 ADD SWAP2 PUSH2 0xB9C JUMP JUMPDEST DUP3 ADD SWAP2 SWAP1 PUSH1 0x0 MSTORE PUSH1 0x20 PUSH1 0x0 KECCAK256 SWAP1 JUMPDEST DUP2 SLOAD DUP2 MSTORE SWAP1 PUSH1 0x1 ADD SWAP1 PUSH1 0x20 ADD DUP1 DUP4 GT PUSH2 0xB7F JUMPI DUP3 SWAP1 SUB PUSH1 0x1F AND DUP3 ADD SWAP2 JUMPDEST POP POP POP POP POP SWAP1 POP SWAP2 SWAP1 POP JUMP JUMPDEST PUSH1 0x0 DUP1 SLOAD PUSH20 0xFFFFFFFFFFFFFFFFFFFFFFFFFFFFFFFFFFFFFFFF AND CALLER EQ PUSH2 0xC2A JUMPI PUSH1 0x40 MLOAD PUSH32 0x8C379A000000000000000000000000000000000000000000000000000000000 DUP2 MSTORE PUSH1 0x20 PUSH1 0x4 DUP3 ADD MSTORE PUSH1 0xA PUSH1 0x24 DUP3 ADD MSTORE PUSH32 0x4F776E6572206F6E6C7900000000000000000000000000000000000000000000 PUSH1 0x44 DUP3 ADD MSTORE PUSH1 0x64 ADD PUSH2 0x2AF JUMP JUMPDEST PUSH1 0x1 DUP1 SLOAD PUSH32 0xFFFFFFFFFFFFFFFFFFFFFFFF0000000000000000000000000000000000000000 AND SWAP1 SSTORE PUSH1 0x40 MLOAD PUSH1 0x0 SWAP1 PUSH1 0x2 SWAP1 PUSH2 0xC68 SWAP1 DUP8 SWAP1 DUP8 SWAP1 PUSH2 0x12C3 JUMP JUMPDEST SWAP1 DUP2 MSTORE PUSH1 0x40 MLOAD SWAP1 DUP2 SWAP1 SUB PUSH1 0x20 ADD SWAP1 KECCAK256 SLOAD PUSH20 0xFFFFFFFFFFFFFFFFFFFFFFFFFFFFFFFFFFFFFFFF AND SUB PUSH2 0xCF5 JUMPI PUSH1 0x40 MLOAD PUSH32 0x8C379A000000000000000000000000000000000000000000000000000000000 DUP2 MSTORE PUSH1 0x20 PUSH1 0x4 DUP3 ADD MSTORE PUSH1 0xD PUSH1 0x24 DUP3 ADD MSTORE PUSH32 0x4E616D65206E6F74207573656400000000000000000000000000000000000000 PUSH1 0x44 DUP3 ADD MSTORE PUSH1 0x64 ADD PUSH2 0x2AF JUMP JUMPDEST PUSH1 0x40 DUP1 MLOAD PUSH1 0x0 DUP1 DUP3 MSTORE PUSH1 0x20 DUP1 DUP4 ADD DUP1 DUP6 MSTORE DUP4 MLOAD SWAP1 KECCAK256 PUSH20 0xFFFFFFFFFFFFFFFFFFFFFFFFFFFFFFFFFFFFFFFF DUP8 AND DUP4 MSTORE PUSH1 0x3 SWAP1 SWAP2 MSTORE SWAP1 DUP4 SWAP1 KECCAK256 SWAP1 SWAP3 PUSH2 0xD38 SWAP3 ADD PUSH2 0x1326 JUMP JUMPDEST PUSH1 0x40 MLOAD PUSH1 0x20 DUP2 DUP4 SUB SUB DUP2 MSTORE SWAP1 PUSH1 0x40 MSTORE DUP1 MLOAD SWAP1 PUSH1 0x20 ADD KECCAK256 EQ PUSH2 0xDB5 JUMPI PUSH1 0x40 MLOAD PUSH32 0x8C379A000000000000000000000000000000000000000000000000000000000 DUP2 MSTORE PUSH1 0x20 PUSH1 0x4 DUP3 ADD MSTORE PUSH1 0x14 PUSH1 0x24 DUP3 ADD MSTORE PUSH32 0x4164647265737320616C72656164792075736564000000000000000000000000 PUSH1 0x44 DUP3 ADD MSTORE PUSH1 0x64 ADD PUSH2 0x2AF JUMP JUMPDEST DUP2 EXTCODESIZE PUSH4 0xFFFFFFFF DUP2 AND PUSH1 0x0 SUB PUSH2 0xE27 JUMPI PUSH1 0x40 MLOAD PUSH32 0x8C379A000000000000000000000000000000000000000000000000000000000 DUP2 MSTORE PUSH1 0x20 PUSH1 0x4 DUP3 ADD MSTORE PUSH1 0xE PUSH1 0x24 DUP3 ADD MSTORE PUSH32 0x4E6F74206120636F6E7472616374000000000000000000000000000000000000 PUSH1 0x44 DUP3 ADD MSTORE PUSH1 0x64 ADD PUSH2 0x2AF JUMP JUMPDEST PUSH1 0x0 DUP4 PUSH20 0xFFFFFFFFFFFFFFFFFFFFFFFFFFFFFFFFFFFFFFFF AND PUSH4 0x8052474D PUSH1 0x40 MLOAD DUP2 PUSH4 0xFFFFFFFF AND PUSH1 0xE0 SHL DUP2 MSTORE PUSH1 0x4 ADD PUSH1 0x0 PUSH1 0x40 MLOAD DUP1 DUP4 SUB DUP2 DUP7 GAS STATICCALL ISZERO DUP1 ISZERO PUSH2 0xE74 JUMPI RETURNDATASIZE PUSH1 0x0 DUP1 RETURNDATACOPY RETURNDATASIZE PUSH1 0x0 REVERT JUMPDEST POP POP POP POP PUSH1 0x40 MLOAD RETURNDATASIZE PUSH1 0x0 DUP3 RETURNDATACOPY PUSH1 0x1F RETURNDATASIZE SWAP1 DUP2 ADD PUSH32 0xFFFFFFFFFFFFFFFFFFFFFFFFFFFFFFFFFFFFFFFFFFFFFFFFFFFFFFFFFFFFFFE0 AND DUP3 ADD PUSH1 0x40 MSTORE PUSH2 0xEBA SWAP2 SWAP1 DUP2 ADD SWAP1 PUSH2 0x13E9 JUMP JUMPDEST SWAP1 POP DUP1 PUSH1 0x40 MLOAD PUSH1 0x20 ADD PUSH2 0xECD SWAP2 SWAP1 PUSH2 0x14B4 JUMP JUMPDEST PUSH1 0x40 MLOAD PUSH1 0x20 DUP2 DUP4 SUB SUB DUP2 MSTORE SWAP1 PUSH1 0x40 MSTORE DUP1 MLOAD SWAP1 PUSH1 0x20 ADD KECCAK256 DUP7 DUP7 PUSH1 0x40 MLOAD PUSH1 0x20 ADD PUSH2 0xEF6 SWAP3 SWAP2 SWAP1 PUSH2 0x12C3 JUMP JUMPDEST PUSH1 0x40 MLOAD PUSH1 0x20 DUP2 DUP4 SUB SUB DUP2 MSTORE SWAP1 PUSH1 0x40 MSTORE DUP1 MLOAD SWAP1 PUSH1 0x20 ADD KECCAK256 EQ PUSH2 0xF73 JUMPI PUSH1 0x40 MLOAD PUSH32 0x8C379A000000000000000000000000000000000000000000000000000000000 DUP2 MSTORE PUSH1 0x20 PUSH1 0x4 DUP3 ADD MSTORE PUSH1 0xE PUSH1 0x24 DUP3 ADD MSTORE PUSH32 0x4E616D6573206D69736D61746368000000000000000000000000000000000000 PUSH1 0x44 DUP3 ADD MSTORE PUSH1 0x64 ADD PUSH2 0x2AF JUMP JUMPDEST PUSH1 0x3 PUSH1 0x0 PUSH1 0x2 DUP9 DUP9 PUSH1 0x40 MLOAD PUSH2 0xF89 SWAP3 SWAP2 SWAP1 PUSH2 0x12C3 JUMP JUMPDEST SWAP1 DUP2 MSTORE PUSH1 0x40 DUP1 MLOAD PUSH1 0x20 SWAP3 DUP2 SWAP1 SUB DUP4 ADD SWAP1 KECCAK256 SLOAD PUSH20 0xFFFFFFFFFFFFFFFFFFFFFFFFFFFFFFFFFFFFFFFF AND DUP4 MSTORE SWAP1 DUP3 ADD SWAP3 SWAP1 SWAP3 MSTORE ADD PUSH1 0x0 SWAP1 DUP2 KECCAK256 PUSH2 0xFC9 SWAP2 PUSH2 0x10D3 JUMP JUMPDEST DUP4 PUSH1 0x2 DUP8 DUP8 PUSH1 0x40 MLOAD PUSH2 0xFDC SWAP3 SWAP2 SWAP1 PUSH2 0x12C3 JUMP JUMPDEST SWAP1 DUP2 MSTORE PUSH1 0x40 DUP1 MLOAD PUSH1 0x20 SWAP3 DUP2 SWAP1 SUB DUP4 ADD SWAP1 KECCAK256 DUP1 SLOAD PUSH32 0xFFFFFFFFFFFFFFFFFFFFFFFF0000000000000000000000000000000000000000 AND PUSH20 0xFFFFFFFFFFFFFFFFFFFFFFFFFFFFFFFFFFFFFFFF SWAP5 DUP6 AND OR SWAP1 SSTORE SWAP2 DUP7 AND PUSH1 0x0 SWAP1 DUP2 MSTORE PUSH1 0x3 SWAP1 SWAP2 MSTORE KECCAK256 PUSH2 0x1045 DUP7 DUP9 DUP4 PUSH2 0x151F JUMP JUMPDEST POP DUP6 DUP6 PUSH1 0x40 MLOAD PUSH2 0x1056 SWAP3 SWAP2 SWAP1 PUSH2 0x12C3 JUMP JUMPDEST PUSH1 0x40 MLOAD DUP1 SWAP2 SUB SWAP1 KECCAK256 PUSH32 0x3E689FADF9C14263D1461E16C92022E56204BBC0101CA024528208CBDF042656 DUP8 DUP8 DUP8 PUSH1 0x40 MLOAD PUSH2 0x6C9 SWAP4 SWAP3 SWAP2 SWAP1 PUSH2 0x1683 JUMP JUMPDEST PUSH1 0x0 PUSH1 0x2 DUP4 DUP4 PUSH1 0x40 MLOAD PUSH2 0x10A5 SWAP3 SWAP2 SWAP1 PUSH2 0x12C3 JUMP JUMPDEST SWAP1 DUP2 MSTORE PUSH1 0x40 MLOAD SWAP1 DUP2 SWAP1 SUB PUSH1 0x20 ADD SWAP1 KECCAK256 SLOAD PUSH20 0xFFFFFFFFFFFFFFFFFFFFFFFFFFFFFFFFFFFFFFFF AND SWAP1 POP SWAP3 SWAP2 POP POP JUMP JUMPDEST POP DUP1 SLOAD PUSH2 0x10DF SWAP1 PUSH2 0x12D3 JUMP JUMPDEST PUSH1 0x0 DUP3 SSTORE DUP1 PUSH1 0x1F LT PUSH2 0x10EF JUMPI POP POP JUMP JUMPDEST PUSH1 0x1F ADD PUSH1 0x20 SWAP1 DIV SWAP1 PUSH1 0x0 MSTORE PUSH1 0x20 PUSH1 0x0 KECCAK256 SWAP1 DUP2 ADD SWAP1 PUSH2 0x110D SWAP2 SWAP1 PUSH2 0x1110 JUMP JUMPDEST POP JUMP JUMPDEST JUMPDEST DUP1 DUP3 GT ISZERO PUSH2 0x1125 JUMPI PUSH1 0x0 DUP2 SSTORE PUSH1 0x1 ADD PUSH2 0x1111 JUMP JUMPDEST POP SWAP1 JUMP JUMPDEST PUSH1 0x0 DUP1 DUP4 PUSH1 0x1F DUP5 ADD SLT PUSH2 0x113B JUMPI PUSH1 0x0 DUP1 REVERT JUMPDEST POP DUP2 CALLDATALOAD PUSH8 0xFFFFFFFFFFFFFFFF DUP2 GT ISZERO PUSH2 0x1153 JUMPI PUSH1 0x0 DUP1 REVERT JUMPDEST PUSH1 0x20 DUP4 ADD SWAP2 POP DUP4 PUSH1 0x20 DUP3 DUP6 ADD ADD GT ISZERO PUSH2 0x116B JUMPI PUSH1 0x0 DUP1 REVERT JUMPDEST SWAP3 POP SWAP3 SWAP1 POP JUMP JUMPDEST DUP1 CALLDATALOAD PUSH20 0xFFFFFFFFFFFFFFFFFFFFFFFFFFFFFFFFFFFFFFFF DUP2 AND DUP2 EQ PUSH2 0x7A1 JUMPI PUSH1 0x0 DUP1 REVERT JUMPDEST PUSH1 0x0 DUP1 PUSH1 0x0 PUSH1 0x40 DUP5 DUP7 SUB SLT ISZERO PUSH2 0x11AB JUMPI PUSH1 0x0 DUP1 REVERT JUMPDEST DUP4 CALLDATALOAD PUSH8 0xFFFFFFFFFFFFFFFF DUP2 GT ISZERO PUSH2 0x11C2 JUMPI PUSH1 0x0 DUP1 REVERT JUMPDEST PUSH2 0x11CE DUP7 DUP3 DUP8 ADD PUSH2 0x1129 JUMP JUMPDEST SWAP1 SWAP5 POP SWAP3 POP PUSH2 0x11E1 SWAP1 POP PUSH1 0x20 DUP6 ADD PUSH2 0x1172 JUMP JUMPDEST SWAP1 POP SWAP3 POP SWAP3 POP SWAP3 JUMP JUMPDEST PUSH1 0x0 PUSH1 0x20 DUP3 DUP5 SUB SLT ISZERO PUSH2 0x11FC JUMPI PUSH1 0x0 DUP1 REVERT JUMPDEST PUSH2 0x1205 DUP3 PUSH2 0x1172 JUMP JUMPDEST SWAP4 SWAP3 POP POP POP JUMP JUMPDEST PUSH1 0x0 DUP1 PUSH1 0x20 DUP4 DUP6 SUB SLT ISZERO PUSH2 0x121F JUMPI PUSH1 0x0 DUP1 REVERT JUMPDEST DUP3 CALLDATALOAD PUSH8 0xFFFFFFFFFFFFFFFF DUP2 GT ISZERO PUSH2 0x1236 JUMPI PUSH1 0x0 DUP1 REVERT JUMPDEST PUSH2 0x1242 DUP6 DUP3 DUP7 ADD PUSH2 0x1129 JUMP JUMPDEST SWAP1 SWAP7 SWAP1 SWAP6 POP SWAP4 POP POP POP POP JUMP JUMPDEST PUSH1 0x0 JUMPDEST DUP4 DUP2 LT ISZERO PUSH2 0x1269 JUMPI DUP2 DUP2 ADD MLOAD DUP4 DUP3 ADD MSTORE PUSH1 0x20 ADD PUSH2 0x1251 JUMP JUMPDEST POP POP PUSH1 0x0 SWAP2 ADD MSTORE JUMP JUMPDEST PUSH1 0x20 DUP2 MSTORE PUSH1 0x0 DUP3 MLOAD DUP1 PUSH1 0x20 DUP5 ADD MSTORE PUSH2 0x1291 DUP2 PUSH1 0x40 DUP6 ADD PUSH1 0x20 DUP8 ADD PUSH2 0x124E JUMP JUMPDEST PUSH1 0x1F ADD PUSH32 0xFFFFFFFFFFFFFFFFFFFFFFFFFFFFFFFFFFFFFFFFFFFFFFFFFFFFFFFFFFFFFFE0 AND SWAP2 SWAP1 SWAP2 ADD PUSH1 0x40 ADD SWAP3 SWAP2 POP POP JUMP JUMPDEST DUP2 DUP4 DUP3 CALLDATACOPY PUSH1 0x0 SWAP2 ADD SWAP1 DUP2 MSTORE SWAP2 SWAP1 POP JUMP JUMPDEST PUSH1 0x1 DUP2 DUP2 SHR SWAP1 DUP3 AND DUP1 PUSH2 0x12E7 JUMPI PUSH1 0x7F DUP3 AND SWAP2 POP JUMPDEST PUSH1 0x20 DUP3 LT DUP2 SUB PUSH2 0x1320 JUMPI PUSH32 0x4E487B7100000000000000000000000000000000000000000000000000000000 PUSH1 0x0 MSTORE PUSH1 0x22 PUSH1 0x4 MSTORE PUSH1 0x24 PUSH1 0x0 REVERT JUMPDEST POP SWAP2 SWAP1 POP JUMP JUMPDEST PUSH1 0x0 DUP1 DUP4 SLOAD PUSH2 0x1334 DUP2 PUSH2 0x12D3 JUMP JUMPDEST PUSH1 0x1 DUP3 DUP2 AND DUP1 ISZERO PUSH2 0x134C JUMPI PUSH1 0x1 DUP2 EQ PUSH2 0x137F JUMPI PUSH2 0x13AE JUMP JUMPDEST PUSH32 0xFFFFFFFFFFFFFFFFFFFFFFFFFFFFFFFFFFFFFFFFFFFFFFFFFFFFFFFFFFFFFF00 DUP5 AND DUP8 MSTORE DUP3 ISZERO ISZERO DUP4 MUL DUP8 ADD SWAP5 POP PUSH2 0x13AE JUMP JUMPDEST DUP8 PUSH1 0x0 MSTORE PUSH1 0x20 DUP1 PUSH1 0x0 KECCAK256 PUSH1 0x0 JUMPDEST DUP6 DUP2 LT ISZERO PUSH2 0x13A5 JUMPI DUP2 SLOAD DUP11 DUP3 ADD MSTORE SWAP1 DUP5 ADD SWAP1 DUP3 ADD PUSH2 0x138C JUMP JUMPDEST POP POP POP DUP3 DUP8 ADD SWAP5 POP JUMPDEST POP SWAP3 SWAP7 SWAP6 POP POP POP POP POP POP JUMP JUMPDEST PUSH32 0x4E487B7100000000000000000000000000000000000000000000000000000000 PUSH1 0x0 MSTORE PUSH1 0x41 PUSH1 0x4 MSTORE PUSH1 0x24 PUSH1 0x0 REVERT JUMPDEST PUSH1 0x0 PUSH1 0x20 DUP3 DUP5 SUB SLT ISZERO PUSH2 0x13FB JUMPI PUSH1 0x0 DUP1 REVERT JUMPDEST DUP2 MLOAD PUSH8 0xFFFFFFFFFFFFFFFF DUP1 DUP3 GT ISZERO PUSH2 0x1413 JUMPI PUSH1 0x0 DUP1 REVERT JUMPDEST DUP2 DUP5 ADD SWAP2 POP DUP5 PUSH1 0x1F DUP4 ADD SLT PUSH2 0x1427 JUMPI PUSH1 0x0 DUP1 REVERT JUMPDEST DUP2 MLOAD DUP2 DUP2 GT ISZERO PUSH2 0x1439 JUMPI PUSH2 0x1439 PUSH2 0x13BA JUMP JUMPDEST PUSH1 0x40 MLOAD PUSH1 0x1F DUP3 ADD PUSH32 0xFFFFFFFFFFFFFFFFFFFFFFFFFFFFFFFFFFFFFFFFFFFFFFFFFFFFFFFFFFFFFFE0 SWAP1 DUP2 AND PUSH1 0x3F ADD AND DUP2 ADD SWAP1 DUP4 DUP3 GT DUP2 DUP4 LT OR ISZERO PUSH2 0x147F JUMPI PUSH2 0x147F PUSH2 0x13BA JUMP JUMPDEST DUP2 PUSH1 0x40 MSTORE DUP3 DUP2 MSTORE DUP8 PUSH1 0x20 DUP5 DUP8 ADD ADD GT ISZERO PUSH2 0x1498 JUMPI PUSH1 0x0 DUP1 REVERT JUMPDEST PUSH2 0x14A9 DUP4 PUSH1 0x20 DUP4 ADD PUSH1 0x20 DUP9 ADD PUSH2 0x124E JUMP JUMPDEST SWAP8 SWAP7 POP POP POP POP POP POP POP JUMP JUMPDEST PUSH1 0x0 DUP3 MLOAD PUSH2 0x14C6 DUP2 DUP5 PUSH1 0x20 DUP8 ADD PUSH2 0x124E JUMP JUMPDEST SWAP2 SWAP1 SWAP2 ADD SWAP3 SWAP2 POP POP JUMP JUMPDEST PUSH1 0x1F DUP3 GT ISZERO PUSH2 0x151A JUMPI PUSH1 0x0 DUP2 DUP2 MSTORE PUSH1 0x20 DUP2 KECCAK256 PUSH1 0x1F DUP6 ADD PUSH1 0x5 SHR DUP2 ADD PUSH1 0x20 DUP7 LT ISZERO PUSH2 0x14F7 JUMPI POP DUP1 JUMPDEST PUSH1 0x1F DUP6 ADD PUSH1 0x5 SHR DUP3 ADD SWAP2 POP JUMPDEST DUP2 DUP2 LT ISZERO PUSH2 0x1516 JUMPI DUP3 DUP2 SSTORE PUSH1 0x1 ADD PUSH2 0x1503 JUMP JUMPDEST POP POP POP JUMPDEST POP POP POP JUMP JUMPDEST PUSH8 0xFFFFFFFFFFFFFFFF DUP4 GT ISZERO PUSH2 0x1537 JUMPI PUSH2 0x1537 PUSH2 0x13BA JUMP JUMPDEST PUSH2 0x154B DUP4 PUSH2 0x1545 DUP4 SLOAD PUSH2 0x12D3 JUMP JUMPDEST DUP4 PUSH2 0x14D0 JUMP JUMPDEST PUSH1 0x0 PUSH1 0x1F DUP5 GT PUSH1 0x1 DUP2 EQ PUSH2 0x159D JUMPI PUSH1 0x0 DUP6 ISZERO PUSH2 0x1567 JUMPI POP DUP4 DUP3 ADD CALLDATALOAD JUMPDEST PUSH32 0xFFFFFFFFFFFFFFFFFFFFFFFFFFFFFFFFFFFFFFFFFFFFFFFFFFFFFFFFFFFFFFFF PUSH1 0x3 DUP8 SWAP1 SHL SHR NOT AND PUSH1 0x1 DUP7 SWAP1 SHL OR DUP4 SSTORE PUSH2 0x1633 JUMP JUMPDEST PUSH1 0x0 DUP4 DUP2 MSTORE PUSH1 0x20 SWAP1 KECCAK256 PUSH32 0xFFFFFFFFFFFFFFFFFFFFFFFFFFFFFFFFFFFFFFFFFFFFFFFFFFFFFFFFFFFFFFE0 DUP7 AND SWAP1 DUP4 JUMPDEST DUP3 DUP2 LT ISZERO PUSH2 0x15EC JUMPI DUP7 DUP6 ADD CALLDATALOAD DUP3 SSTORE PUSH1 0x20 SWAP5 DUP6 ADD SWAP5 PUSH1 0x1 SWAP1 SWAP3 ADD SWAP2 ADD PUSH2 0x15CC JUMP JUMPDEST POP DUP7 DUP3 LT ISZERO PUSH2 0x1627 JUMPI PUSH32 0xFFFFFFFFFFFFFFFFFFFFFFFFFFFFFFFFFFFFFFFFFFFFFFFFFFFFFFFFFFFFFFFF PUSH1 0xF8 DUP9 PUSH1 0x3 SHL AND SHR NOT DUP5 DUP8 ADD CALLDATALOAD AND DUP2 SSTORE JUMPDEST POP POP PUSH1 0x1 DUP6 PUSH1 0x1 SHL ADD DUP4 SSTORE JUMPDEST POP POP POP POP POP JUMP JUMPDEST DUP2 DUP4 MSTORE DUP2 DUP2 PUSH1 0x20 DUP6 ADD CALLDATACOPY POP PUSH1 0x0 PUSH1 0x20 DUP3 DUP5 ADD ADD MSTORE PUSH1 0x0 PUSH1 0x20 PUSH32 0xFFFFFFFFFFFFFFFFFFFFFFFFFFFFFFFFFFFFFFFFFFFFFFFFFFFFFFFFFFFFFFE0 PUSH1 0x1F DUP5 ADD AND DUP5 ADD ADD SWAP1 POP SWAP3 SWAP2 POP POP JUMP JUMPDEST PUSH1 0x40 DUP2 MSTORE PUSH1 0x0 PUSH2 0x1697 PUSH1 0x40 DUP4 ADD DUP6 DUP8 PUSH2 0x163A JUMP JUMPDEST SWAP1 POP PUSH20 0xFFFFFFFFFFFFFFFFFFFFFFFFFFFFFFFFFFFFFFFF DUP4 AND PUSH1 0x20 DUP4 ADD MSTORE SWAP5 SWAP4 POP POP POP POP JUMP JUMPDEST PUSH1 0x20 DUP2 MSTORE PUSH1 0x0 PUSH2 0x16D1 PUSH1 0x20 DUP4 ADD DUP5 DUP7 PUSH2 0x163A JUMP JUMPDEST SWAP5 SWAP4 POP POP POP POP JUMP INVALID LOG2 PUSH5 0x6970667358 0x22 SLT KECCAK256 DUP9 CALLDATASIZE SIGNEXTEND PUSH30 0xE8A00CC66DC89E0713D2880D83A158AB8E11512A37F0C1E94135A1426473 PUSH16 0x6C634300081200330000000000000000 "
				},
				"gasEstimates": {
					"creation": {
						"codeDepositCost": "1180600",
						"executionCost": "49701",
						"totalCost": "1230301"
					},
					"external": {
						"": "141",
						"AcceptOwnership()": "52384",
						"AddContract(string,address)": "infinite",
						"ChangeOwnership(address)": "infinite",
						"GetContractAddress(string)": "infinite",
						"GetContractName(address)": "infinite",
						"GetMATIC()": "267",
						"GetOwner()": "2342",
						"GetWMATIC()": "245",
						"RemoveContract(string)": "infinite",
						"UpdateContract(string,address)": "infinite"
					}
				},
				"methodIdentifiers": {
					"AcceptOwnership()": "3fab62ba",
					"AddContract(string,address)": "098e3bb0",
					"ChangeOwnership(address)": "244ded7a",
					"GetContractAddress(string)": "c75ffd86",
					"GetContractName(address)": "95fcd692",
					"GetMATIC()": "ee5503d0",
					"GetOwner()": "0ae50a39",
					"GetWMATIC()": "e666cdef",
					"RemoveContract(string)": "8a547437",
					"UpdateContract(string,address)": "bc303370"
				}
			},
			"storageLayout": {
				"storage": [
					{
						"astId": 39,
						"contract": "contracts/Parent.sol:Parent",
						"label": "owner",
						"offset": 0,
						"slot": "0",
						"type": "t_address"
					},
					{
						"astId": 43,
						"contract": "contracts/Parent.sol:Parent",
						"label": "newOwner",
						"offset": 0,
						"slot": "1",
						"type": "t_address"
					},
					{
						"astId": 53,
						"contract": "contracts/Parent.sol:Parent",
						"label": "nameToAddress",
						"offset": 0,
						"slot": "2",
						"type": "t_mapping(t_string_memory_ptr,t_address)"
					},
					{
						"astId": 57,
						"contract": "contracts/Parent.sol:Parent",
						"label": "addressToName",
						"offset": 0,
						"slot": "3",
						"type": "t_mapping(t_address,t_string_storage)"
					}
				],
				"types": {
					"t_address": {
						"encoding": "inplace",
						"label": "address",
						"numberOfBytes": "20"
					},
					"t_mapping(t_address,t_string_storage)": {
						"encoding": "mapping",
						"key": "t_address",
						"label": "mapping(address => string)",
						"numberOfBytes": "32",
						"value": "t_string_storage"
					},
					"t_mapping(t_string_memory_ptr,t_address)": {
						"encoding": "mapping",
						"key": "t_string_memory_ptr",
						"label": "mapping(string => address)",
						"numberOfBytes": "32",
						"value": "t_address"
					},
					"t_string_memory_ptr": {
						"encoding": "bytes",
						"label": "string",
						"numberOfBytes": "32"
					},
					"t_string_storage": {
						"encoding": "bytes",
						"label": "string",
						"numberOfBytes": "32"
					}
				}
			},
			"userdoc": {
				"kind": "user",
				"methods": {},
				"version": 1
			}
		}
	}
}