{
    "contractName": "Currencies",
    "abi": [
        {
            "anonymous": false,
            "inputs": [
                {
                    "indexed": false,
                    "internalType": "string",
                    "name": "_symbol",
                    "type": "string"
                },
                {
                    "indexed": false,
                    "internalType": "address",
                    "name": "_address",
                    "type": "address"
                }
            ],
            "name": "CurrencyAddition",
            "type": "event"
        },
        {
            "anonymous": false,
            "inputs": [
                {
                    "indexed": false,
                    "internalType": "string",
                    "name": "_symbol",
                    "type": "string"
                }
            ],
            "name": "CurrencyRemoval",
            "type": "event"
        },
        {
            "stateMutability": "nonpayable",
            "type": "fallback"
        },
        {
            "inputs": [
                {
                    "internalType": "string",
                    "name": "_symbol",
                    "type": "string"
                },
                {
                    "internalType": "address",
                    "name": "_address",
                    "type": "address"
                }
            ],
            "name": "AddCurrency",
            "outputs": [
                {
                    "internalType": "bool",
                    "name": "",
                    "type": "bool"
                }
            ],
            "stateMutability": "payable",
            "type": "function"
        },
        {
            "inputs": [],
            "name": "CurrencyList",
            "outputs": [
                {
                    "internalType": "string[]",
                    "name": "",
                    "type": "string[]"
                }
            ],
            "stateMutability": "view",
            "type": "function"
        },
        {
            "inputs": [],
            "name": "Name",
            "outputs": [
                {
                    "internalType": "string",
                    "name": "",
                    "type": "string"
                }
            ],
            "stateMutability": "view",
            "type": "function"
        },
        {
            "inputs": [
                {
                    "internalType": "string",
                    "name": "_symbol",
                    "type": "string"
                }
            ],
            "name": "RemoveCurrency",
            "outputs": [
                {
                    "internalType": "bool",
                    "name": "",
                    "type": "bool"
                }
            ],
            "stateMutability": "nonpayable",
            "type": "function"
        },
        {
            "stateMutability": "payable",
            "type": "receive"
        }
    ],
    "bytecode": "608060405234801561001057600080fd5b506119b9806100206000396000f3fe6080604052600436106100435760003560e01c80636080e7ff1461005e57806367ac4450146100865780638052474d146100a85780638e9497d2146100fe5761004d565b3661004d57600080fd5b34801561005957600080fd5b600080fd5b61007161006c366004611089565b61011e565b60405190151581526020015b60405180910390f35b34801561009257600080fd5b5061009b610b27565b60405161007d919061114e565b3480156100b457600080fd5b506100f16040518060400160405280601281526020017f5061796d656e742e43757272656e63696573000000000000000000000000000081525081565b60405161007d91906111ce565b34801561010a57600080fd5b506100716101193660046111e8565b610c00565b60003373ffffffffffffffffffffffffffffffffffffffff16737f6b1f900113a9b46e4f38395bfc28075324a9f473ffffffffffffffffffffffffffffffffffffffff16630ae50a396040518163ffffffff1660e01b8152600401602060405180830381865afa158015610196573d6000803e3d6000fd5b505050506040513d601f19601f820116820180604052508101906101ba919061122a565b73ffffffffffffffffffffffffffffffffffffffff161461023c576040517f08c379a000000000000000000000000000000000000000000000000000000000815260206004820152600a60248201527f4f776e6572206f6e6c790000000000000000000000000000000000000000000060448201526064015b60405180910390fd5b600073ffffffffffffffffffffffffffffffffffffffff1660008585604051610266929190611247565b9081526040519081900360200190205473ffffffffffffffffffffffffffffffffffffffff16146102f3576040517f08c379a000000000000000000000000000000000000000000000000000000000815260206004820152601360248201527f53796d626f6c20616c72656164792075736564000000000000000000000000006044820152606401610233565b60408051600080825260208083018085528351902073ffffffffffffffffffffffffffffffffffffffff87168352600190915290839020909261033692016112aa565b60405160208183030381529060405280519060200120146103b3576040517f08c379a000000000000000000000000000000000000000000000000000000000815260206004820152601460248201527f4164647265737320616c726561647920757365640000000000000000000000006044820152606401610233565b813b63ffffffff8116600003610425576040517f08c379a000000000000000000000000000000000000000000000000000000000815260206004820152600e60248201527f4e6f74206120636f6e74726163740000000000000000000000000000000000006044820152606401610233565b60008373ffffffffffffffffffffffffffffffffffffffff166395d89b416040518163ffffffff1660e01b8152600401600060405180830381865afa158015610472573d6000803e3d6000fd5b505050506040513d6000823e601f3d9081017fffffffffffffffffffffffffffffffffffffffffffffffffffffffffffffffe01682016040526104b891908101906113bc565b9050806040516020016104cb919061146e565b6040516020818303038152906040528051906020012086866040516020016104f4929190611247565b6040516020818303038152906040528051906020012014610571576040517f08c379a000000000000000000000000000000000000000000000000000000000815260206004820152601160248201527f53796d626f6c73206d6973736d617463680000000000000000000000000000006044820152606401610233565b6040517f8b05f6de00000000000000000000000000000000000000000000000000000000815260206004820152600c60248201527f5061796d656e742e5377617000000000000000000000000000000000000000006044820152600090737f6b1f900113a9b46e4f38395bfc28075324a9f490638b05f6de90606401602060405180830381865afa15801561060a573d6000803e3d6000fd5b505050506040513d601f19601f8201168201806040525081019061062e919061122a565b6040517f846114d500000000000000000000000000000000000000000000000000000000815273ffffffffffffffffffffffffffffffffffffffff8781166004830152919250829182169063846114d590349060240160006040518083038185885af1935050505080156106e257506040513d6000823e601f3d9081017fffffffffffffffffffffffffffffffffffffffffffffffffffffffffffffffe01682016040526106df919081019061148a565b60015b610748576040517f08c379a000000000000000000000000000000000000000000000000000000000815260206004820152601560248201527f4d4154494320746f20746f6b656e206661696c656400000000000000000000006044820152606401610233565b60008160008151811061075d5761075d611530565b60200260200101511115610a225760008790508160008151811061078357610783611530565b60209081029190910101516040517fdd62ed3e00000000000000000000000000000000000000000000000000000000815230600482015273ffffffffffffffffffffffffffffffffffffffff868116602483015283169063dd62ed3e90604401602060405180830381865afa158015610800573d6000803e3d6000fd5b505050506040513d601f19601f82011682018060405250810190610824919061155f565b10156108e5578073ffffffffffffffffffffffffffffffffffffffff1663095ea7b3858460008151811061085a5761085a611530565b60200260200101516040518363ffffffff1660e01b81526004016108a092919073ffffffffffffffffffffffffffffffffffffffff929092168252602082015260400190565b6020604051808303816000875af11580156108bf573d6000803e3d6000fd5b505050506040513d601f19601f820116820180604052508101906108e39190611578565b505b8273ffffffffffffffffffffffffffffffffffffffff1663469d6d36898460008151811061091557610915611530565b60200260200101516040518363ffffffff1660e01b815260040161095b92919073ffffffffffffffffffffffffffffffffffffffff929092168252602082015260400190565b6000604051808303816000875af19250505080156109b957506040513d6000823e601f3d9081017fffffffffffffffffffffffffffffffffffffffffffffffffffffffffffffffe01682016040526109b6919081019061148a565b60015b610a1f576040517f08c379a000000000000000000000000000000000000000000000000000000000815260206004820152601560248201527f546f6b656e20746f204d41544943206661696c656400000000000000000000006044820152606401610233565b50505b508560008989604051610a36929190611247565b908152604080516020928190038301902080547fffffffffffffffffffffffff00000000000000000000000000000000000000001673ffffffffffffffffffffffffffffffffffffffff9485161790559188166000908152600190915220610a9f888a836115e9565b50600280546001810182556000919091527f405787fa12a823e0f2b7631cc41b3ba8828b3321ca811111fa75cd3aa3bb5ace01610add888a836115e9565b507fc0717ff4ff71aeb2317847926c6b6ac81e722c75d43a89b0c0b5b1b1a2f0819a888888604051610b119392919061174d565b60405180910390a1506001979650505050505050565b60606002805480602002602001604051908101604052809291908181526020016000905b82821015610bf7578382906000526020600020018054610b6a90611257565b80601f0160208091040260200160405190810160405280929190818152602001828054610b9690611257565b8015610be35780601f10610bb857610100808354040283529160200191610be3565b820191906000526020600020905b815481529060010190602001808311610bc657829003601f168201915b505050505081526020019060010190610b4b565b50505050905090565b60003373ffffffffffffffffffffffffffffffffffffffff16737f6b1f900113a9b46e4f38395bfc28075324a9f473ffffffffffffffffffffffffffffffffffffffff16630ae50a396040518163ffffffff1660e01b8152600401602060405180830381865afa158015610c78573d6000803e3d6000fd5b505050506040513d601f19601f82011682018060405250810190610c9c919061122a565b73ffffffffffffffffffffffffffffffffffffffff1614610d19576040517f08c379a000000000000000000000000000000000000000000000000000000000815260206004820152600a60248201527f4f776e6572206f6e6c79000000000000000000000000000000000000000000006044820152606401610233565b600073ffffffffffffffffffffffffffffffffffffffff1660008484604051610d43929190611247565b9081526040519081900360200190205473ffffffffffffffffffffffffffffffffffffffff1603610dd0576040517f08c379a000000000000000000000000000000000000000000000000000000000815260206004820152600f60248201527f53796d626f6c206e6f74207573656400000000000000000000000000000000006044820152606401610233565b60016000808585604051610de5929190611247565b90815260408051602092819003830190205473ffffffffffffffffffffffffffffffffffffffff16835290820192909252016000908120610e2591610fc8565b60008383604051610e37929190611247565b90815260405190819003602001902080547fffffffffffffffffffffffff000000000000000000000000000000000000000016905560025460005b81811015610f535760028181548110610e8d57610e8d611530565b90600052602060002001604051602001610ea791906112aa565b604051602081830303815290604052805190602001208585604051602001610ed0929190611247565b6040516020818303038152906040528051906020012003610f41576002610ef86001846117b6565b81548110610f0857610f08611530565b9060005260206000200160028281548110610f2557610f25611530565b906000526020600020019081610f3b91906117c9565b50610f53565b80610f4b81611900565b915050610e72565b506002805480610f6557610f65611938565b600190038181906000526020600020016000610f819190610fc8565b90557f13e5a601ba75c0d6275edbe545df6c19619713764e298f2ae79eb881367405c58484604051610fb4929190611967565b60405180910390a160019150505b92915050565b508054610fd490611257565b6000825580601f10610fe4575050565b601f0160209004906000526020600020908101906110029190611005565b50565b5b8082111561101a5760008155600101611006565b5090565b60008083601f84011261103057600080fd5b50813567ffffffffffffffff81111561104857600080fd5b60208301915083602082850101111561106057600080fd5b9250929050565b73ffffffffffffffffffffffffffffffffffffffff8116811461100257600080fd5b60008060006040848603121561109e57600080fd5b833567ffffffffffffffff8111156110b557600080fd5b6110c18682870161101e565b90945092505060208401356110d581611067565b809150509250925092565b60005b838110156110fb5781810151838201526020016110e3565b50506000910152565b6000815180845261111c8160208601602086016110e0565b601f017fffffffffffffffffffffffffffffffffffffffffffffffffffffffffffffffe0169290920160200192915050565b6000602080830181845280855180835260408601915060408160051b870101925083870160005b828110156111c1577fffffffffffffffffffffffffffffffffffffffffffffffffffffffffffffffc08886030184526111af858351611104565b94509285019290850190600101611175565b5092979650505050505050565b6020815260006111e16020830184611104565b9392505050565b600080602083850312156111fb57600080fd5b823567ffffffffffffffff81111561121257600080fd5b61121e8582860161101e565b90969095509350505050565b60006020828403121561123c57600080fd5b81516111e181611067565b8183823760009101908152919050565b600181811c9082168061126b57607f821691505b6020821081036112a4577f4e487b7100000000000000000000000000000000000000000000000000000000600052602260045260246000fd5b50919050565b60008083546112b881611257565b600182811680156112d0576001811461130357611332565b7fffffffffffffffffffffffffffffffffffffffffffffffffffffffffffffff0084168752821515830287019450611332565b8760005260208060002060005b858110156113295781548a820152908401908201611310565b50505082870194505b50929695505050505050565b7f4e487b7100000000000000000000000000000000000000000000000000000000600052604160045260246000fd5b604051601f82017fffffffffffffffffffffffffffffffffffffffffffffffffffffffffffffffe016810167ffffffffffffffff811182821017156113b4576113b461133e565b604052919050565b6000602082840312156113ce57600080fd5b815167ffffffffffffffff808211156113e657600080fd5b818401915084601f8301126113fa57600080fd5b81518181111561140c5761140c61133e565b61143d60207fffffffffffffffffffffffffffffffffffffffffffffffffffffffffffffffe0601f8401160161136d565b915080825285602082850101111561145457600080fd5b6114658160208401602086016110e0565b50949350505050565b600082516114808184602087016110e0565b9190910192915050565b6000602080838503121561149d57600080fd5b825167ffffffffffffffff808211156114b557600080fd5b818501915085601f8301126114c957600080fd5b8151818111156114db576114db61133e565b8060051b91506114ec84830161136d565b818152918301840191848101908884111561150657600080fd5b938501935b838510156115245784518252938501939085019061150b565b98975050505050505050565b7f4e487b7100000000000000000000000000000000000000000000000000000000600052603260045260246000fd5b60006020828403121561157157600080fd5b5051919050565b60006020828403121561158a57600080fd5b815180151581146111e157600080fd5b601f8211156115e457600081815260208120601f850160051c810160208610156115c15750805b601f850160051c820191505b818110156115e0578281556001016115cd565b5050505b505050565b67ffffffffffffffff8311156116015761160161133e565b6116158361160f8354611257565b8361159a565b6000601f84116001811461166757600085156116315750838201355b7fffffffffffffffffffffffffffffffffffffffffffffffffffffffffffffffff600387901b1c1916600186901b1783556116fd565b6000838152602090207fffffffffffffffffffffffffffffffffffffffffffffffffffffffffffffffe0861690835b828110156116b65786850135825560209485019460019092019101611696565b50868210156116f1577fffffffffffffffffffffffffffffffffffffffffffffffffffffffffffffffff60f88860031b161c19848701351681555b505060018560011b0183555b5050505050565b8183528181602085013750600060208284010152600060207fffffffffffffffffffffffffffffffffffffffffffffffffffffffffffffffe0601f840116840101905092915050565b604081526000611761604083018587611704565b905073ffffffffffffffffffffffffffffffffffffffff83166020830152949350505050565b7f4e487b7100000000000000000000000000000000000000000000000000000000600052601160045260246000fd5b81810381811115610fc257610fc2611787565b8181036117d4575050565b6117de8254611257565b67ffffffffffffffff8111156117f6576117f661133e565b61180a816118048454611257565b8461159a565b6000601f82116001811461185c57600083156118265750848201545b7fffffffffffffffffffffffffffffffffffffffffffffffffffffffffffffffff600385901b1c1916600184901b1784556116fd565b6000858152602090207fffffffffffffffffffffffffffffffffffffffffffffffffffffffffffffffe0841690600086815260209020845b838110156118b45782860154825560019586019590910190602001611894565b50858310156118f057818501547fffffffffffffffffffffffffffffffffffffffffffffffffffffffffffffffff600388901b60f8161c191681555b5050505050600190811b01905550565b60007fffffffffffffffffffffffffffffffffffffffffffffffffffffffffffffffff820361193157611931611787565b5060010190565b7f4e487b7100000000000000000000000000000000000000000000000000000000600052603160045260246000fd5b60208152600061197b602083018486611704565b94935050505056fea2646970667358221220d7d45d71f43fd83c10e53296ec19f99379d8c130e7523119377fb461f9f6507664736f6c63430008120033",
    "sourcePath": "m:/Workspaces/FiskPay/New Concept/Solidity/Payment/Currencies.sol",
    "compiler": {
        "name": "solc",
        "version": "0.8.18+commit.87f61d96"
    },
    "functionHashes": {
        "AddCurrency(string,address)": "6080e7ff",
        "CurrencyList()": "67ac4450",
        "Name()": "8052474d",
        "RemoveCurrency(string)": "8e9497d2"
    },
    "gasEstimates": {
        "creation": {
            "codeDepositCost": "1317000",
            "executionCost": "1369",
            "totalCost": "1318369"
        },
        "external": {
            "": "179",
            "AddCurrency(string,address)": "infinite",
            "CurrencyList()": "infinite",
            "Name()": "infinite",
            "RemoveCurrency(string)": "infinite"
        }
    }
}