{
    "contractName": "Implementors",
    "abi": [
        {
            "stateMutability": "nonpayable",
            "type": "fallback"
        },
        {
            "inputs": [
                {
                    "internalType": "address",
                    "name": "_implementor",
                    "type": "address"
                }
            ],
            "name": "ImplementorProfile",
            "outputs": [
                {
                    "internalType": "uint32",
                    "name": "epochSales",
                    "type": "uint32"
                },
                {
                    "internalType": "uint32",
                    "name": "epochEnd",
                    "type": "uint32"
                },
                {
                    "internalType": "uint8",
                    "name": "epochReward",
                    "type": "uint8"
                }
            ],
            "stateMutability": "view",
            "type": "function"
        },
        {
            "inputs": [
                {
                    "internalType": "address",
                    "name": "_implementor",
                    "type": "address"
                }
            ],
            "name": "ImplementorReward",
            "outputs": [
                {
                    "internalType": "uint8",
                    "name": "",
                    "type": "uint8"
                }
            ],
            "stateMutability": "nonpayable",
            "type": "function"
        },
        {
            "inputs": [],
            "name": "Name",
            "outputs": [
                {
                    "internalType": "string",
                    "name": "",
                    "type": "string"
                }
            ],
            "stateMutability": "view",
            "type": "function"
        },
        {
            "stateMutability": "payable",
            "type": "receive"
        }
    ],
    "bytecode": "608060405234801561001057600080fd5b50610789806100206000396000f3fe6080604052600436106100385760003560e01c806309256eae146100535780638052474d146101035780639b84b9861461015957610042565b3661004257600080fd5b34801561004e57600080fd5b600080fd5b34801561005f57600080fd5b506100d861006e36600461063a565b73ffffffffffffffffffffffffffffffffffffffff16600090815260208181526040918290208251606081018452905463ffffffff80821680845264010000000083049091169383018490526801000000000000000090910460ff16919093018190529192909190565b6040805163ffffffff948516815293909216602084015260ff16908201526060015b60405180910390f35b34801561010f57600080fd5b5061014c6040518060400160405280601481526020017f5061796d656e742e496d706c656d656e746f727300000000000000000000000081525081565b6040516100fa919061065e565b34801561016557600080fd5b5061017961017436600461063a565b61018b565b60405160ff90911681526020016100fa565b6040517f8b05f6de00000000000000000000000000000000000000000000000000000000815260206004820152601260248201527f5061796d656e742e50726f63636573736f7200000000000000000000000000006044820152600090339073bf015afb58f81460ec1c77a41d4cefc5bd02dcae90638b05f6de90606401602060405180830381865afa158015610226573d6000803e3d6000fd5b505050506040513d601f19601f8201168201806040525081019061024a91906106ca565b73ffffffffffffffffffffffffffffffffffffffff161461026d57506000919050565b73ffffffffffffffffffffffffffffffffffffffff82166000908152602081905260409020805463ffffffff4281166401000000009092041610156105c357805463ffffffff166161a78111156102f45781547fffffffffffffffffffffffffffffffffffffffffffffff00ffffffffffffffff1668c80000000000000000178255610555565b6130d38163ffffffff16111561033a5781547fffffffffffffffffffffffffffffffffffffffffffffff00ffffffffffffffff1668960000000000000000178255610555565b611d4b8163ffffffff1611156103805781547fffffffffffffffffffffffffffffffffffffffffffffff00ffffffffffffffff16687d0000000000000000178255610555565b6113878163ffffffff1611156103c65781547fffffffffffffffffffffffffffffffffffffffffffffff00ffffffffffffffff1668640000000000000000178255610555565b6109c38163ffffffff16111561040c5781547fffffffffffffffffffffffffffffffffffffffffffffff00ffffffffffffffff1668500000000000000000178255610555565b6105db8163ffffffff1611156104525781547fffffffffffffffffffffffffffffffffffffffffffffff00ffffffffffffffff16683c0000000000000000178255610555565b6103e78163ffffffff1611156104985781547fffffffffffffffffffffffffffffffffffffffffffffff00ffffffffffffffff1668320000000000000000178255610555565b6101f38163ffffffff1611156104de5781547fffffffffffffffffffffffffffffffffffffffffffffff00ffffffffffffffff1668280000000000000000178255610555565b60f98163ffffffff1611156105235781547fffffffffffffffffffffffffffffffffffffffffffffff00ffffffffffffffff1668230000000000000000178255610555565b81547fffffffffffffffffffffffffffffffffffffffffffffff00ffffffffffffffff16681e00000000000000001782555b81547fffffffffffffffffffffffffffffffffffffffffffffffffffffffff00000000168255610588426213c680610716565b825463ffffffff91909116640100000000027fffffffffffffffffffffffffffffffffffffffffffffffff00000000ffffffff909116178255505b805460019082906000906105de90849063ffffffff1661072f565b825463ffffffff9182166101009390930a9283029190920219909116179055505460ff680100000000000000009091041692915050565b73ffffffffffffffffffffffffffffffffffffffff8116811461063757600080fd5b50565b60006020828403121561064c57600080fd5b813561065781610615565b9392505050565b600060208083528351808285015260005b8181101561068b5785810183015185820160400152820161066f565b5060006040828601015260407fffffffffffffffffffffffffffffffffffffffffffffffffffffffffffffffe0601f8301168501019250505092915050565b6000602082840312156106dc57600080fd5b815161065781610615565b7f4e487b7100000000000000000000000000000000000000000000000000000000600052601160045260246000fd5b80820180821115610729576107296106e7565b92915050565b63ffffffff81811683821601908082111561074c5761074c6106e7565b509291505056fea264697066735822122014635e06bb21cd59dfc7469b28f434e551ba626a0c3b3446f60ccd27de0b49f664736f6c63430008120033",
    "sourcePath": "m:/Workspaces/FiskPay/New Concept/Solidity/Payment/Implementors.sol",
    "compiler": {
        "name": "solc",
        "version": "0.8.18+commit.87f61d96"
    },
    "functionHashes": {
        "ImplementorProfile(address)": "09256eae",
        "ImplementorReward(address)": "9b84b986",
        "Name()": "8052474d"
    },
    "gasEstimates": {
        "creation": {
            "codeDepositCost": "385800",
            "executionCost": "424",
            "totalCost": "386224"
        },
        "external": {
            "": "157",
            "ImplementorProfile(address)": "2688",
            "ImplementorReward(address)": "infinite",
            "Name()": "infinite"
        }
    }
}