{
	"contracts/Payment/Currencies.sol": {
		"Currencies": {
			"abi": [
				{
					"inputs": [],
					"stateMutability": "nonpayable",
					"type": "constructor"
				},
				{
					"anonymous": false,
					"inputs": [
						{
							"indexed": true,
							"internalType": "address",
							"name": "_currency",
							"type": "address"
						}
					],
					"name": "CurrencyAddition",
					"type": "event"
				},
				{
					"anonymous": false,
					"inputs": [
						{
							"indexed": true,
							"internalType": "address",
							"name": "_currency",
							"type": "address"
						}
					],
					"name": "CurrencyRemoval",
					"type": "event"
				},
				{
					"anonymous": false,
					"inputs": [
						{
							"indexed": true,
							"internalType": "address",
							"name": "_currency",
							"type": "address"
						},
						{
							"indexed": false,
							"internalType": "uint24",
							"name": "_fee",
							"type": "uint24"
						}
					],
					"name": "UpdateFee",
					"type": "event"
				},
				{
					"stateMutability": "payable",
					"type": "fallback"
				},
				{
					"inputs": [
						{
							"internalType": "string",
							"name": "_symbol",
							"type": "string"
						},
						{
							"internalType": "address",
							"name": "_address",
							"type": "address"
						}
					],
					"name": "AddCurrency",
					"outputs": [
						{
							"internalType": "bool",
							"name": "",
							"type": "bool"
						}
					],
					"stateMutability": "nonpayable",
					"type": "function"
				},
				{
					"inputs": [
						{
							"internalType": "string",
							"name": "_symbol",
							"type": "string"
						}
					],
					"name": "GetCurrencyAddress",
					"outputs": [
						{
							"internalType": "address",
							"name": "",
							"type": "address"
						}
					],
					"stateMutability": "view",
					"type": "function"
				},
				{
					"inputs": [],
					"name": "GetCurrencyList",
					"outputs": [
						{
							"internalType": "string[]",
							"name": "",
							"type": "string[]"
						}
					],
					"stateMutability": "view",
					"type": "function"
				},
				{
					"inputs": [
						{
							"internalType": "address",
							"name": "_address",
							"type": "address"
						}
					],
					"name": "GetCurrencySymbol",
					"outputs": [
						{
							"internalType": "string",
							"name": "",
							"type": "string"
						}
					],
					"stateMutability": "view",
					"type": "function"
				},
				{
					"inputs": [],
					"name": "GetMATICFee",
					"outputs": [
						{
							"internalType": "uint24",
							"name": "",
							"type": "uint24"
						}
					],
					"stateMutability": "view",
					"type": "function"
				},
				{
					"inputs": [
						{
							"internalType": "string",
							"name": "_symbol",
							"type": "string"
						}
					],
					"name": "GetTokenFee",
					"outputs": [
						{
							"internalType": "uint24",
							"name": "",
							"type": "uint24"
						}
					],
					"stateMutability": "view",
					"type": "function"
				},
				{
					"inputs": [],
					"name": "Name",
					"outputs": [
						{
							"internalType": "string",
							"name": "",
							"type": "string"
						}
					],
					"stateMutability": "view",
					"type": "function"
				},
				{
					"inputs": [
						{
							"internalType": "string",
							"name": "_symbol",
							"type": "string"
						}
					],
					"name": "RemoveCurrency",
					"outputs": [
						{
							"internalType": "bool",
							"name": "",
							"type": "bool"
						}
					],
					"stateMutability": "nonpayable",
					"type": "function"
				},
				{
					"inputs": [
						{
							"internalType": "uint24",
							"name": "_fee",
							"type": "uint24"
						}
					],
					"name": "UpdateMATICFee",
					"outputs": [
						{
							"internalType": "bool",
							"name": "",
							"type": "bool"
						}
					],
					"stateMutability": "nonpayable",
					"type": "function"
				},
				{
					"inputs": [
						{
							"internalType": "string",
							"name": "_symbol",
							"type": "string"
						},
						{
							"internalType": "uint24",
							"name": "_fee",
							"type": "uint24"
						}
					],
					"name": "UpdateTokenFee",
					"outputs": [
						{
							"internalType": "bool",
							"name": "",
							"type": "bool"
						}
					],
					"stateMutability": "nonpayable",
					"type": "function"
				},
				{
					"stateMutability": "payable",
					"type": "receive"
				}
			],
			"devdoc": {
				"kind": "dev",
				"methods": {},
				"version": 1
			},
			"evm": {
				"assembly": "    /* \"contracts/Payment/Currencies.sol\":290:5835  contract Currencies{... */\n  mstore(0x40, 0xa0)\n    /* \"contracts/Payment/Currencies.sol\":2183:2277  constructor(){... */\n  callvalue\n  dup1\n  iszero\n  tag_1\n  jumpi\n  0x00\n  dup1\n  revert\ntag_1:\n  pop\n    /* \"contracts/Payment/Currencies.sol\":964:1006  0x72ec1287FF5BB960fd54Ac2AdAE99145153C561F */\n  0x72ec1287ff5bb960fd54ac2adae99145153c561f\n  sub(shl(0xa0, 0x01), 0x01)\n    /* \"contracts/Payment/Currencies.sol\":2221:2232  pt.GetMATIC */\n  and\n  0xee5503d0\n    /* \"contracts/Payment/Currencies.sol\":2221:2234  pt.GetMATIC() */\n  mload(0x40)\n  dup2\n  0xffffffff\n  and\n  0xe0\n  shl\n  dup2\n  mstore\n  0x04\n  add\n  0x20\n  mload(0x40)\n  dup1\n  dup4\n  sub\n  dup2\n  dup7\n  gas\n  staticcall\n  iszero\n  dup1\n  iszero\n  tag_5\n  jumpi\n  returndatasize\n  0x00\n  dup1\n  returndatacopy\n  revert(0x00, returndatasize)\ntag_5:\n  pop\n  pop\n  pop\n  pop\n  mload(0x40)\n  returndatasize\n  not(0x1f)\n  0x1f\n  dup3\n  add\n  and\n  dup3\n  add\n  dup1\n  0x40\n  mstore\n  pop\n  dup2\n  add\n  swap1\n  tag_6\n  swap2\n  swap1\n  tag_7\n  jump\t// in\ntag_6:\n  sub(shl(0xa0, 0x01), 0x01)\n    /* \"contracts/Payment/Currencies.sol\":2213:2234  MATIC = pt.GetMATIC() */\n  and\n  0x80\n  dup2\n  swap1\n  mstore\n    /* \"contracts/Payment/Currencies.sol\":2245:2263  currencyFee[MATIC] */\n  0x00\n  swap1\n  dup2\n  mstore\n    /* \"contracts/Payment/Currencies.sol\":2245:2256  currencyFee */\n  0x03\n    /* \"contracts/Payment/Currencies.sol\":2245:2263  currencyFee[MATIC] */\n  0x20\n  mstore\n  0x40\n  swap1\n  keccak256\n    /* \"contracts/Payment/Currencies.sol\":2245:2269  currencyFee[MATIC] = 200 */\n  dup1\n  sload\n  not(0xffffff)\n  and\n    /* \"contracts/Payment/Currencies.sol\":2266:2269  200 */\n  0xc8\n    /* \"contracts/Payment/Currencies.sol\":2245:2269  currencyFee[MATIC] = 200 */\n  or\n  swap1\n  sstore\n    /* \"contracts/Payment/Currencies.sol\":290:5835  contract Currencies{... */\n  jump(tag_9)\n    /* \"#utility.yul\":14:304   */\ntag_7:\n    /* \"#utility.yul\":84:90   */\n  0x00\n    /* \"#utility.yul\":137:139   */\n  0x20\n    /* \"#utility.yul\":125:134   */\n  dup3\n    /* \"#utility.yul\":116:123   */\n  dup5\n    /* \"#utility.yul\":112:135   */\n  sub\n    /* \"#utility.yul\":108:140   */\n  slt\n    /* \"#utility.yul\":105:157   */\n  iszero\n  tag_11\n  jumpi\n    /* \"#utility.yul\":153:154   */\n  0x00\n    /* \"#utility.yul\":150:151   */\n  dup1\n    /* \"#utility.yul\":143:155   */\n  revert\n    /* \"#utility.yul\":105:157   */\ntag_11:\n    /* \"#utility.yul\":179:195   */\n  dup2\n  mload\n  sub(shl(0xa0, 0x01), 0x01)\n    /* \"#utility.yul\":224:255   */\n  dup2\n  and\n    /* \"#utility.yul\":214:256   */\n  dup2\n  eq\n    /* \"#utility.yul\":204:274   */\n  tag_12\n  jumpi\n    /* \"#utility.yul\":270:271   */\n  0x00\n    /* \"#utility.yul\":267:268   */\n  dup1\n    /* \"#utility.yul\":260:272   */\n  revert\n    /* \"#utility.yul\":204:274   */\ntag_12:\n    /* \"#utility.yul\":293:298   */\n  swap4\n    /* \"#utility.yul\":14:304   */\n  swap3\n  pop\n  pop\n  pop\n  jump\t// out\ntag_9:\n    /* \"contracts/Payment/Currencies.sol\":290:5835  contract Currencies{... */\n  mload(0x80)\n  codecopy(0x00, dataOffset(sub_0), dataSize(sub_0))\n  0x00\n  assignImmutable(\"0x4dfb3440902001bce9b7ebf7be7d95fe9e2056bd5ce309ceb83b32f4e00e21ed\")\n  return(0x00, dataSize(sub_0))\nstop\n\nsub_0: assembly {\n        /* \"contracts/Payment/Currencies.sol\":290:5835  contract Currencies{... */\n      mstore(0x40, 0x80)\n      jumpi(tag_1, lt(calldatasize, 0x04))\n      shr(0xe0, calldataload(0x00))\n      dup1\n      0x8e9497d2\n      gt\n      tag_13\n      jumpi\n      dup1\n      0xd99699df\n      gt\n      tag_14\n      jumpi\n      dup1\n      0xd99699df\n      eq\n      tag_10\n      jumpi\n      dup1\n      0xda240f1e\n      eq\n      tag_11\n      jumpi\n      dup1\n      0xe43dd488\n      eq\n      tag_12\n      jumpi\n      stop\n    tag_14:\n      dup1\n      0x8e9497d2\n      eq\n      tag_8\n      jumpi\n      dup1\n      0xa56c56c3\n      eq\n      tag_9\n      jumpi\n      stop\n    tag_13:\n      dup1\n      0x6010ab49\n      gt\n      tag_15\n      jumpi\n      dup1\n      0x6010ab49\n      eq\n      tag_5\n      jumpi\n      dup1\n      0x6080e7ff\n      eq\n      tag_6\n      jumpi\n      dup1\n      0x8052474d\n      eq\n      tag_7\n      jumpi\n      stop\n    tag_15:\n      dup1\n      0x1727de4e\n      eq\n      tag_3\n      jumpi\n      dup1\n      0x55a90e8d\n      eq\n      tag_4\n      jumpi\n      stop\n    tag_1:\n      jumpi(tag_2, calldatasize)\n      stop\n    tag_2:\n      stop\n        /* \"contracts/Payment/Currencies.sol\":2766:2904  function GetTokenFee(string calldata _symbol) public view returns(uint24){... */\n    tag_3:\n      callvalue\n      dup1\n      iszero\n      tag_20\n      jumpi\n      0x00\n      dup1\n      revert\n    tag_20:\n      pop\n      tag_21\n      tag_22\n      calldatasize\n      0x04\n      tag_23\n      jump\t// in\n    tag_22:\n      tag_24\n      jump\t// in\n    tag_21:\n      mload(0x40)\n        /* \"#utility.yul\":957:965   */\n      0xffffff\n        /* \"#utility.yul\":945:966   */\n      swap1\n      swap2\n      and\n        /* \"#utility.yul\":927:967   */\n      dup2\n      mstore\n        /* \"#utility.yul\":915:917   */\n      0x20\n        /* \"#utility.yul\":900:918   */\n      add\n        /* \"contracts/Payment/Currencies.sol\":2766:2904  function GetTokenFee(string calldata _symbol) public view returns(uint24){... */\n    tag_25:\n      mload(0x40)\n      dup1\n      swap2\n      sub\n      swap1\n      return\n        /* \"contracts/Payment/Currencies.sol\":4974:5415  function UpdateTokenFee(string calldata _symbol, uint24 _fee) public ownerOnly returns(bool){... */\n    tag_4:\n      callvalue\n      dup1\n      iszero\n      tag_27\n      jumpi\n      0x00\n      dup1\n      revert\n    tag_27:\n      pop\n      tag_28\n      tag_29\n      calldatasize\n      0x04\n      tag_30\n      jump\t// in\n    tag_29:\n      tag_31\n      jump\t// in\n    tag_28:\n      mload(0x40)\n        /* \"#utility.yul\":1797:1811   */\n      swap1\n      iszero\n        /* \"#utility.yul\":1790:1812   */\n      iszero\n        /* \"#utility.yul\":1772:1813   */\n      dup2\n      mstore\n        /* \"#utility.yul\":1760:1762   */\n      0x20\n        /* \"#utility.yul\":1745:1763   */\n      add\n        /* \"contracts/Payment/Currencies.sol\":4974:5415  function UpdateTokenFee(string calldata _symbol, uint24 _fee) public ownerOnly returns(bool){... */\n      tag_25\n        /* \"#utility.yul\":1632:1819   */\n      jump\n        /* \"contracts/Payment/Currencies.sol\":5423:5671  function UpdateMATICFee(uint24 _fee) public ownerOnly returns(bool){... */\n    tag_5:\n      callvalue\n      dup1\n      iszero\n      tag_34\n      jumpi\n      0x00\n      dup1\n      revert\n    tag_34:\n      pop\n      tag_28\n      tag_36\n      calldatasize\n      0x04\n      tag_37\n      jump\t// in\n    tag_36:\n      tag_38\n      jump\t// in\n        /* \"contracts/Payment/Currencies.sol\":3226:4187  function AddCurrency(string calldata _symbol, address _address) public ownerOnly returns(bool){... */\n    tag_6:\n      callvalue\n      dup1\n      iszero\n      tag_40\n      jumpi\n      0x00\n      dup1\n      revert\n    tag_40:\n      pop\n      tag_28\n      tag_42\n      calldatasize\n      0x04\n      tag_43\n      jump\t// in\n    tag_42:\n      tag_44\n      jump\t// in\n        /* \"contracts/Payment/Currencies.sol\":1326:1377  string constant public Name = \".Payment.Currencies\" */\n    tag_7:\n      callvalue\n      dup1\n      iszero\n      tag_46\n      jumpi\n      0x00\n      dup1\n      revert\n    tag_46:\n      pop\n      tag_47\n      mload(0x40)\n      dup1\n      0x40\n      add\n      0x40\n      mstore\n      dup1\n      0x13\n      dup2\n      mstore\n      0x20\n      add\n      0x2e5061796d656e742e43757272656e6369657300000000000000000000000000\n      dup2\n      mstore\n      pop\n      dup2\n      jump\n    tag_47:\n      mload(0x40)\n      tag_25\n      swap2\n      swap1\n      tag_50\n      jump\t// in\n        /* \"contracts/Payment/Currencies.sol\":4195:4960  function RemoveCurrency(string calldata _symbol) public ownerOnly returns(bool){... */\n    tag_8:\n      callvalue\n      dup1\n      iszero\n      tag_51\n      jumpi\n      0x00\n      dup1\n      revert\n    tag_51:\n      pop\n      tag_28\n      tag_53\n      calldatasize\n      0x04\n      tag_23\n      jump\t// in\n    tag_53:\n      tag_54\n      jump\t// in\n        /* \"contracts/Payment/Currencies.sol\":2620:2752  function GetCurrencySymbol(address _address) public view returns(string memory){... */\n    tag_9:\n      callvalue\n      dup1\n      iszero\n      tag_56\n      jumpi\n      0x00\n      dup1\n      revert\n    tag_56:\n      pop\n      tag_47\n      tag_58\n      calldatasize\n      0x04\n      tag_59\n      jump\t// in\n    tag_58:\n      tag_60\n      jump\t// in\n        /* \"contracts/Payment/Currencies.sol\":3022:3124  function GetCurrencyList() public view returns(string[] memory){... */\n    tag_10:\n      callvalue\n      dup1\n      iszero\n      tag_62\n      jumpi\n      0x00\n      dup1\n      revert\n    tag_62:\n      pop\n      tag_63\n      tag_64\n      jump\t// in\n    tag_63:\n      mload(0x40)\n      tag_25\n      swap2\n      swap1\n      tag_66\n      jump\t// in\n        /* \"contracts/Payment/Currencies.sol\":2479:2612  function GetCurrencyAddress(string calldata _symbol) public view returns(address){... */\n    tag_11:\n      callvalue\n      dup1\n      iszero\n      tag_67\n      jumpi\n      0x00\n      dup1\n      revert\n    tag_67:\n      pop\n      tag_68\n      tag_69\n      calldatasize\n      0x04\n      tag_23\n      jump\t// in\n    tag_69:\n      tag_70\n      jump\t// in\n    tag_68:\n      mload(0x40)\n        /* \"#utility.yul\":4833:4875   */\n      0xffffffffffffffffffffffffffffffffffffffff\n        /* \"#utility.yul\":4821:4876   */\n      swap1\n      swap2\n      and\n        /* \"#utility.yul\":4803:4877   */\n      dup2\n      mstore\n        /* \"#utility.yul\":4791:4793   */\n      0x20\n        /* \"#utility.yul\":4776:4794   */\n      add\n        /* \"contracts/Payment/Currencies.sol\":2479:2612  function GetCurrencyAddress(string calldata _symbol) public view returns(address){... */\n      tag_25\n        /* \"#utility.yul\":4657:4883   */\n      jump\n        /* \"contracts/Payment/Currencies.sol\":2912:3008  function GetMATICFee() public view returns(uint24){... */\n    tag_12:\n      callvalue\n      dup1\n      iszero\n      tag_73\n      jumpi\n      0x00\n      dup1\n      revert\n    tag_73:\n      pop\n        /* \"contracts/Payment/Currencies.sol\":2994:2999  MATIC */\n      immutable(\"0x4dfb3440902001bce9b7ebf7be7d95fe9e2056bd5ce309ceb83b32f4e00e21ed\")\n        /* \"contracts/Payment/Currencies.sol\":2982:3000  currencyFee[MATIC] */\n      0xffffffffffffffffffffffffffffffffffffffff\n      and\n        /* \"contracts/Payment/Currencies.sol\":2955:2961  uint24 */\n      0x00\n        /* \"contracts/Payment/Currencies.sol\":2982:3000  currencyFee[MATIC] */\n      swap1\n      dup2\n      mstore\n        /* \"contracts/Payment/Currencies.sol\":2982:2993  currencyFee */\n      0x03\n        /* \"contracts/Payment/Currencies.sol\":2982:3000  currencyFee[MATIC] */\n      0x20\n      mstore\n      0x40\n      swap1\n      keccak256\n      sload\n      0xffffff\n      and\n        /* \"contracts/Payment/Currencies.sol\":2912:3008  function GetMATICFee() public view returns(uint24){... */\n      jump(tag_21)\n        /* \"contracts/Payment/Currencies.sol\":2766:2904  function GetTokenFee(string calldata _symbol) public view returns(uint24){... */\n    tag_24:\n        /* \"contracts/Payment/Currencies.sol\":2832:2838  uint24 */\n      0x00\n        /* \"contracts/Payment/Currencies.sol\":2859:2870  currencyFee */\n      0x03\n        /* \"contracts/Payment/Currencies.sol\":2859:2896  currencyFee[symbolToAddress[_symbol]] */\n      0x00\n        /* \"contracts/Payment/Currencies.sol\":2871:2886  symbolToAddress */\n      0x01\n        /* \"contracts/Payment/Currencies.sol\":2887:2894  _symbol */\n      dup6\n      dup6\n        /* \"contracts/Payment/Currencies.sol\":2871:2895  symbolToAddress[_symbol] */\n      mload(0x40)\n      tag_78\n      swap3\n      swap2\n      swap1\n      tag_79\n      jump\t// in\n    tag_78:\n      swap1\n      dup2\n      mstore\n      0x40\n      dup1\n      mload\n      0x20\n      swap3\n      dup2\n      swap1\n      sub\n      dup4\n      add\n      swap1\n      keccak256\n      sload\n      0xffffffffffffffffffffffffffffffffffffffff\n      and\n        /* \"contracts/Payment/Currencies.sol\":2859:2896  currencyFee[symbolToAddress[_symbol]] */\n      dup4\n      mstore\n      swap1\n      dup3\n      add\n      swap3\n      swap1\n      swap3\n      mstore\n      add\n      0x00\n      keccak256\n      sload\n      0xffffff\n      and\n      swap1\n      pop\n        /* \"contracts/Payment/Currencies.sol\":2766:2904  function GetTokenFee(string calldata _symbol) public view returns(uint24){... */\n    tag_77:\n      swap3\n      swap2\n      pop\n      pop\n      jump\t// out\n        /* \"contracts/Payment/Currencies.sol\":4974:5415  function UpdateTokenFee(string calldata _symbol, uint24 _fee) public ownerOnly returns(bool){... */\n    tag_31:\n        /* \"contracts/Payment/Currencies.sol\":5061:5065  bool */\n      0x00\n        /* \"contracts/Payment/Currencies.sol\":2015:2025  msg.sender */\n      caller\n        /* \"contracts/Payment/Currencies.sol\":1998:2025  pt.GetOwner() != msg.sender */\n      0xffffffffffffffffffffffffffffffffffffffff\n      and\n        /* \"contracts/Payment/Currencies.sol\":964:1006  0x72ec1287FF5BB960fd54Ac2AdAE99145153C561F */\n      0x72ec1287ff5bb960fd54ac2adae99145153c561f\n        /* \"contracts/Payment/Currencies.sol\":1998:2009  pt.GetOwner */\n      0xffffffffffffffffffffffffffffffffffffffff\n      and\n      0x0ae50a39\n        /* \"contracts/Payment/Currencies.sol\":1998:2011  pt.GetOwner() */\n      mload(0x40)\n      dup2\n      0xffffffff\n      and\n      0xe0\n      shl\n      dup2\n      mstore\n      0x04\n      add\n      0x20\n      mload(0x40)\n      dup1\n      dup4\n      sub\n      dup2\n      dup7\n      gas\n      staticcall\n      iszero\n      dup1\n      iszero\n      tag_82\n      jumpi\n      returndatasize\n      0x00\n      dup1\n      returndatacopy\n      revert(0x00, returndatasize)\n    tag_82:\n      pop\n      pop\n      pop\n      pop\n      mload(0x40)\n      returndatasize\n      not(0x1f)\n      0x1f\n      dup3\n      add\n      and\n      dup3\n      add\n      dup1\n      0x40\n      mstore\n      pop\n      dup2\n      add\n      swap1\n      tag_83\n      swap2\n      swap1\n      tag_84\n      jump\t// in\n    tag_83:\n        /* \"contracts/Payment/Currencies.sol\":1998:2025  pt.GetOwner() != msg.sender */\n      0xffffffffffffffffffffffffffffffffffffffff\n      and\n      eq\n        /* \"contracts/Payment/Currencies.sol\":1995:2060  if(pt.GetOwner() != msg.sender)... */\n      tag_85\n      jumpi\n        /* \"contracts/Payment/Currencies.sol\":2040:2060  revert(\"Owner only\") */\n      mload(0x40)\n      0x08c379a000000000000000000000000000000000000000000000000000000000\n      dup2\n      mstore\n        /* \"#utility.yul\":5624:5626   */\n      0x20\n        /* \"contracts/Payment/Currencies.sol\":2040:2060  revert(\"Owner only\") */\n      0x04\n      dup3\n      add\n        /* \"#utility.yul\":5606:5627   */\n      mstore\n        /* \"#utility.yul\":5663:5665   */\n      0x0a\n        /* \"#utility.yul\":5643:5661   */\n      0x24\n      dup3\n      add\n        /* \"#utility.yul\":5636:5666   */\n      mstore\n        /* \"#utility.yul\":5702:5714   */\n      0x4f776e6572206f6e6c7900000000000000000000000000000000000000000000\n        /* \"#utility.yul\":5682:5700   */\n      0x44\n      dup3\n      add\n        /* \"#utility.yul\":5675:5715   */\n      mstore\n        /* \"#utility.yul\":5732:5750   */\n      0x64\n      add\n        /* \"contracts/Payment/Currencies.sol\":2040:2060  revert(\"Owner only\") */\n    tag_86:\n      mload(0x40)\n      dup1\n      swap2\n      sub\n      swap1\n      revert\n        /* \"contracts/Payment/Currencies.sol\":1995:2060  if(pt.GetOwner() != msg.sender)... */\n    tag_85:\n        /* \"contracts/Payment/Currencies.sol\":5079:5099  address tokenAddress */\n      0x00\n        /* \"contracts/Payment/Currencies.sol\":5102:5117  symbolToAddress */\n      0x01\n        /* \"contracts/Payment/Currencies.sol\":5118:5125  _symbol */\n      dup6\n      dup6\n        /* \"contracts/Payment/Currencies.sol\":5102:5126  symbolToAddress[_symbol] */\n      mload(0x40)\n      tag_89\n      swap3\n      swap2\n      swap1\n      tag_79\n      jump\t// in\n    tag_89:\n      swap1\n      dup2\n      mstore\n      mload(0x40)\n      swap1\n      dup2\n      swap1\n      sub\n      0x20\n      add\n      swap1\n      keccak256\n      sload\n      0xffffffffffffffffffffffffffffffffffffffff\n      and\n      swap1\n      pop\n      dup1\n        /* \"contracts/Payment/Currencies.sol\":5139:5208  if(tokenAddress == address(0))... */\n      tag_90\n      jumpi\n        /* \"contracts/Payment/Currencies.sol\":5183:5208  revert(\"Symbol not used\") */\n      mload(0x40)\n      0x08c379a000000000000000000000000000000000000000000000000000000000\n      dup2\n      mstore\n        /* \"#utility.yul\":5963:5965   */\n      0x20\n        /* \"contracts/Payment/Currencies.sol\":5183:5208  revert(\"Symbol not used\") */\n      0x04\n      dup3\n      add\n        /* \"#utility.yul\":5945:5966   */\n      mstore\n        /* \"#utility.yul\":6002:6004   */\n      0x0f\n        /* \"#utility.yul\":5982:6000   */\n      0x24\n      dup3\n      add\n        /* \"#utility.yul\":5975:6005   */\n      mstore\n        /* \"#utility.yul\":6041:6058   */\n      0x53796d626f6c206e6f7420757365640000000000000000000000000000000000\n        /* \"#utility.yul\":6021:6039   */\n      0x44\n      dup3\n      add\n        /* \"#utility.yul\":6014:6059   */\n      mstore\n        /* \"#utility.yul\":6076:6094   */\n      0x64\n      add\n        /* \"contracts/Payment/Currencies.sol\":5183:5208  revert(\"Symbol not used\") */\n      tag_86\n        /* \"#utility.yul\":5761:6100   */\n      jump\n        /* \"contracts/Payment/Currencies.sol\":5139:5208  if(tokenAddress == address(0))... */\n    tag_90:\n        /* \"contracts/Payment/Currencies.sol\":5243:5248  10000 */\n      0x2710\n        /* \"contracts/Payment/Currencies.sol\":5236:5240  _fee */\n      dup4\n        /* \"contracts/Payment/Currencies.sol\":5236:5248  _fee > 10000 */\n      0xffffff\n      and\n      gt\n        /* \"contracts/Payment/Currencies.sol\":5233:5293  if(_fee > 10000)... */\n      iszero\n      tag_93\n      jumpi\n        /* \"contracts/Payment/Currencies.sol\":5263:5293  revert(\"Exceeded maximum fee\") */\n      mload(0x40)\n      0x08c379a000000000000000000000000000000000000000000000000000000000\n      dup2\n      mstore\n        /* \"#utility.yul\":6307:6309   */\n      0x20\n        /* \"contracts/Payment/Currencies.sol\":5263:5293  revert(\"Exceeded maximum fee\") */\n      0x04\n      dup3\n      add\n        /* \"#utility.yul\":6289:6310   */\n      mstore\n        /* \"#utility.yul\":6346:6348   */\n      0x14\n        /* \"#utility.yul\":6326:6344   */\n      0x24\n      dup3\n      add\n        /* \"#utility.yul\":6319:6349   */\n      mstore\n        /* \"#utility.yul\":6385:6407   */\n      0x4578636565646564206d6178696d756d20666565000000000000000000000000\n        /* \"#utility.yul\":6365:6383   */\n      0x44\n      dup3\n      add\n        /* \"#utility.yul\":6358:6408   */\n      mstore\n        /* \"#utility.yul\":6425:6443   */\n      0x64\n      add\n        /* \"contracts/Payment/Currencies.sol\":5263:5293  revert(\"Exceeded maximum fee\") */\n      tag_86\n        /* \"#utility.yul\":6105:6449   */\n      jump\n        /* \"contracts/Payment/Currencies.sol\":5233:5293  if(_fee > 10000)... */\n    tag_93:\n        /* \"contracts/Payment/Currencies.sol\":5306:5331  currencyFee[tokenAddress] */\n      0xffffffffffffffffffffffffffffffffffffffff\n      dup2\n      and\n      0x00\n      dup2\n      dup2\n      mstore\n        /* \"contracts/Payment/Currencies.sol\":5306:5317  currencyFee */\n      0x03\n        /* \"contracts/Payment/Currencies.sol\":5306:5331  currencyFee[tokenAddress] */\n      0x20\n      swap1\n      dup2\n      mstore\n      0x40\n      swap2\n      dup3\n      swap1\n      keccak256\n        /* \"contracts/Payment/Currencies.sol\":5306:5338  currencyFee[tokenAddress] = _fee */\n      dup1\n      sload\n      0xffffffffffffffffffffffffffffffffffffffffffffffffffffffffff000000\n      and\n      0xffffff\n      dup9\n      and\n      swap1\n      dup2\n      or\n      swap1\n      swap2\n      sstore\n        /* \"contracts/Payment/Currencies.sol\":5356:5385  UpdateFee(tokenAddress, _fee) */\n      swap2\n      mload\n        /* \"#utility.yul\":927:967   */\n      swap2\n      dup3\n      mstore\n        /* \"contracts/Payment/Currencies.sol\":5356:5385  UpdateFee(tokenAddress, _fee) */\n      0x03186a7764ede3bf12e0885d5369c46a7acc81b2f03797beb8e84a659d29fb16\n      swap2\n        /* \"#utility.yul\":900:918   */\n      add\n        /* \"contracts/Payment/Currencies.sol\":5356:5385  UpdateFee(tokenAddress, _fee) */\n      mload(0x40)\n      dup1\n      swap2\n      sub\n      swap1\n      log2\n      pop\n        /* \"contracts/Payment/Currencies.sol\":5403:5407  true */\n      0x01\n      swap5\n        /* \"contracts/Payment/Currencies.sol\":4974:5415  function UpdateTokenFee(string calldata _symbol, uint24 _fee) public ownerOnly returns(bool){... */\n      swap4\n      pop\n      pop\n      pop\n      pop\n      jump\t// out\n        /* \"contracts/Payment/Currencies.sol\":5423:5671  function UpdateMATICFee(uint24 _fee) public ownerOnly returns(bool){... */\n    tag_38:\n        /* \"contracts/Payment/Currencies.sol\":5485:5489  bool */\n      0x00\n        /* \"contracts/Payment/Currencies.sol\":2015:2025  msg.sender */\n      caller\n        /* \"contracts/Payment/Currencies.sol\":1998:2025  pt.GetOwner() != msg.sender */\n      0xffffffffffffffffffffffffffffffffffffffff\n      and\n        /* \"contracts/Payment/Currencies.sol\":964:1006  0x72ec1287FF5BB960fd54Ac2AdAE99145153C561F */\n      0x72ec1287ff5bb960fd54ac2adae99145153c561f\n        /* \"contracts/Payment/Currencies.sol\":1998:2009  pt.GetOwner */\n      0xffffffffffffffffffffffffffffffffffffffff\n      and\n      0x0ae50a39\n        /* \"contracts/Payment/Currencies.sol\":1998:2011  pt.GetOwner() */\n      mload(0x40)\n      dup2\n      0xffffffff\n      and\n      0xe0\n      shl\n      dup2\n      mstore\n      0x04\n      add\n      0x20\n      mload(0x40)\n      dup1\n      dup4\n      sub\n      dup2\n      dup7\n      gas\n      staticcall\n      iszero\n      dup1\n      iszero\n      tag_99\n      jumpi\n      returndatasize\n      0x00\n      dup1\n      returndatacopy\n      revert(0x00, returndatasize)\n    tag_99:\n      pop\n      pop\n      pop\n      pop\n      mload(0x40)\n      returndatasize\n      not(0x1f)\n      0x1f\n      dup3\n      add\n      and\n      dup3\n      add\n      dup1\n      0x40\n      mstore\n      pop\n      dup2\n      add\n      swap1\n      tag_100\n      swap2\n      swap1\n      tag_84\n      jump\t// in\n    tag_100:\n        /* \"contracts/Payment/Currencies.sol\":1998:2025  pt.GetOwner() != msg.sender */\n      0xffffffffffffffffffffffffffffffffffffffff\n      and\n      eq\n        /* \"contracts/Payment/Currencies.sol\":1995:2060  if(pt.GetOwner() != msg.sender)... */\n      tag_101\n      jumpi\n        /* \"contracts/Payment/Currencies.sol\":2040:2060  revert(\"Owner only\") */\n      mload(0x40)\n      0x08c379a000000000000000000000000000000000000000000000000000000000\n      dup2\n      mstore\n        /* \"#utility.yul\":5624:5626   */\n      0x20\n        /* \"contracts/Payment/Currencies.sol\":2040:2060  revert(\"Owner only\") */\n      0x04\n      dup3\n      add\n        /* \"#utility.yul\":5606:5627   */\n      mstore\n        /* \"#utility.yul\":5663:5665   */\n      0x0a\n        /* \"#utility.yul\":5643:5661   */\n      0x24\n      dup3\n      add\n        /* \"#utility.yul\":5636:5666   */\n      mstore\n        /* \"#utility.yul\":5702:5714   */\n      0x4f776e6572206f6e6c7900000000000000000000000000000000000000000000\n        /* \"#utility.yul\":5682:5700   */\n      0x44\n      dup3\n      add\n        /* \"#utility.yul\":5675:5715   */\n      mstore\n        /* \"#utility.yul\":5732:5750   */\n      0x64\n      add\n        /* \"contracts/Payment/Currencies.sol\":2040:2060  revert(\"Owner only\") */\n      tag_86\n        /* \"#utility.yul\":5422:5756   */\n      jump\n        /* \"contracts/Payment/Currencies.sol\":1995:2060  if(pt.GetOwner() != msg.sender)... */\n    tag_101:\n        /* \"contracts/Payment/Currencies.sol\":5513:5518  10000 */\n      0x2710\n        /* \"contracts/Payment/Currencies.sol\":5506:5510  _fee */\n      dup3\n        /* \"contracts/Payment/Currencies.sol\":5506:5518  _fee > 10000 */\n      0xffffff\n      and\n      gt\n        /* \"contracts/Payment/Currencies.sol\":5503:5563  if(_fee > 10000)... */\n      iszero\n      tag_104\n      jumpi\n        /* \"contracts/Payment/Currencies.sol\":5533:5563  revert(\"Exceeded maximum fee\") */\n      mload(0x40)\n      0x08c379a000000000000000000000000000000000000000000000000000000000\n      dup2\n      mstore\n        /* \"#utility.yul\":6307:6309   */\n      0x20\n        /* \"contracts/Payment/Currencies.sol\":5533:5563  revert(\"Exceeded maximum fee\") */\n      0x04\n      dup3\n      add\n        /* \"#utility.yul\":6289:6310   */\n      mstore\n        /* \"#utility.yul\":6346:6348   */\n      0x14\n        /* \"#utility.yul\":6326:6344   */\n      0x24\n      dup3\n      add\n        /* \"#utility.yul\":6319:6349   */\n      mstore\n        /* \"#utility.yul\":6385:6407   */\n      0x4578636565646564206d6178696d756d20666565000000000000000000000000\n        /* \"#utility.yul\":6365:6383   */\n      0x44\n      dup3\n      add\n        /* \"#utility.yul\":6358:6408   */\n      mstore\n        /* \"#utility.yul\":6425:6443   */\n      0x64\n      add\n        /* \"contracts/Payment/Currencies.sol\":5533:5563  revert(\"Exceeded maximum fee\") */\n      tag_86\n        /* \"#utility.yul\":6105:6449   */\n      jump\n        /* \"contracts/Payment/Currencies.sol\":5503:5563  if(_fee > 10000)... */\n    tag_104:\n        /* \"contracts/Payment/Currencies.sol\":5588:5593  MATIC */\n      immutable(\"0x4dfb3440902001bce9b7ebf7be7d95fe9e2056bd5ce309ceb83b32f4e00e21ed\")\n        /* \"contracts/Payment/Currencies.sol\":5576:5594  currencyFee[MATIC] */\n      0xffffffffffffffffffffffffffffffffffffffff\n      and\n      0x00\n      dup2\n      dup2\n      mstore\n        /* \"contracts/Payment/Currencies.sol\":5576:5587  currencyFee */\n      0x03\n        /* \"contracts/Payment/Currencies.sol\":5576:5594  currencyFee[MATIC] */\n      0x20\n      swap1\n      dup2\n      mstore\n      0x40\n      swap2\n      dup3\n      swap1\n      keccak256\n        /* \"contracts/Payment/Currencies.sol\":5576:5601  currencyFee[MATIC] = _fee */\n      dup1\n      sload\n      0xffffffffffffffffffffffffffffffffffffffffffffffffffffffffff000000\n      and\n      0xffffff\n      dup8\n      and\n      swap1\n      dup2\n      or\n      swap1\n      swap2\n      sstore\n        /* \"contracts/Payment/Currencies.sol\":5619:5641  UpdateFee(MATIC, _fee) */\n      swap2\n      mload\n        /* \"#utility.yul\":927:967   */\n      swap2\n      dup3\n      mstore\n        /* \"contracts/Payment/Currencies.sol\":5619:5641  UpdateFee(MATIC, _fee) */\n      0x03186a7764ede3bf12e0885d5369c46a7acc81b2f03797beb8e84a659d29fb16\n      swap2\n        /* \"#utility.yul\":900:918   */\n      add\n        /* \"contracts/Payment/Currencies.sol\":5619:5641  UpdateFee(MATIC, _fee) */\n      mload(0x40)\n      dup1\n      swap2\n      sub\n      swap1\n      log2\n      pop\n        /* \"contracts/Payment/Currencies.sol\":5659:5663  true */\n      0x01\n        /* \"contracts/Payment/Currencies.sol\":2073:2074  _ */\n    tag_103:\n        /* \"contracts/Payment/Currencies.sol\":5423:5671  function UpdateMATICFee(uint24 _fee) public ownerOnly returns(bool){... */\n      swap2\n      swap1\n      pop\n      jump\t// out\n        /* \"contracts/Payment/Currencies.sol\":3226:4187  function AddCurrency(string calldata _symbol, address _address) public ownerOnly returns(bool){... */\n    tag_44:\n        /* \"contracts/Payment/Currencies.sol\":3315:3319  bool */\n      0x00\n        /* \"contracts/Payment/Currencies.sol\":2015:2025  msg.sender */\n      caller\n        /* \"contracts/Payment/Currencies.sol\":1998:2025  pt.GetOwner() != msg.sender */\n      0xffffffffffffffffffffffffffffffffffffffff\n      and\n        /* \"contracts/Payment/Currencies.sol\":964:1006  0x72ec1287FF5BB960fd54Ac2AdAE99145153C561F */\n      0x72ec1287ff5bb960fd54ac2adae99145153c561f\n        /* \"contracts/Payment/Currencies.sol\":1998:2009  pt.GetOwner */\n      0xffffffffffffffffffffffffffffffffffffffff\n      and\n      0x0ae50a39\n        /* \"contracts/Payment/Currencies.sol\":1998:2011  pt.GetOwner() */\n      mload(0x40)\n      dup2\n      0xffffffff\n      and\n      0xe0\n      shl\n      dup2\n      mstore\n      0x04\n      add\n      0x20\n      mload(0x40)\n      dup1\n      dup4\n      sub\n      dup2\n      dup7\n      gas\n      staticcall\n      iszero\n      dup1\n      iszero\n      tag_109\n      jumpi\n      returndatasize\n      0x00\n      dup1\n      returndatacopy\n      revert(0x00, returndatasize)\n    tag_109:\n      pop\n      pop\n      pop\n      pop\n      mload(0x40)\n      returndatasize\n      not(0x1f)\n      0x1f\n      dup3\n      add\n      and\n      dup3\n      add\n      dup1\n      0x40\n      mstore\n      pop\n      dup2\n      add\n      swap1\n      tag_110\n      swap2\n      swap1\n      tag_84\n      jump\t// in\n    tag_110:\n        /* \"contracts/Payment/Currencies.sol\":1998:2025  pt.GetOwner() != msg.sender */\n      0xffffffffffffffffffffffffffffffffffffffff\n      and\n      eq\n        /* \"contracts/Payment/Currencies.sol\":1995:2060  if(pt.GetOwner() != msg.sender)... */\n      tag_111\n      jumpi\n        /* \"contracts/Payment/Currencies.sol\":2040:2060  revert(\"Owner only\") */\n      mload(0x40)\n      0x08c379a000000000000000000000000000000000000000000000000000000000\n      dup2\n      mstore\n        /* \"#utility.yul\":5624:5626   */\n      0x20\n        /* \"contracts/Payment/Currencies.sol\":2040:2060  revert(\"Owner only\") */\n      0x04\n      dup3\n      add\n        /* \"#utility.yul\":5606:5627   */\n      mstore\n        /* \"#utility.yul\":5663:5665   */\n      0x0a\n        /* \"#utility.yul\":5643:5661   */\n      0x24\n      dup3\n      add\n        /* \"#utility.yul\":5636:5666   */\n      mstore\n        /* \"#utility.yul\":5702:5714   */\n      0x4f776e6572206f6e6c7900000000000000000000000000000000000000000000\n        /* \"#utility.yul\":5682:5700   */\n      0x44\n      dup3\n      add\n        /* \"#utility.yul\":5675:5715   */\n      mstore\n        /* \"#utility.yul\":5732:5750   */\n      0x64\n      add\n        /* \"contracts/Payment/Currencies.sol\":2040:2060  revert(\"Owner only\") */\n      tag_86\n        /* \"#utility.yul\":5422:5756   */\n      jump\n        /* \"contracts/Payment/Currencies.sol\":1995:2060  if(pt.GetOwner() != msg.sender)... */\n    tag_111:\n        /* \"contracts/Payment/Currencies.sol\":3333:3353  address tokenAddress */\n      0x00\n        /* \"contracts/Payment/Currencies.sol\":3356:3371  symbolToAddress */\n      0x01\n        /* \"contracts/Payment/Currencies.sol\":3372:3379  _symbol */\n      dup6\n      dup6\n        /* \"contracts/Payment/Currencies.sol\":3356:3380  symbolToAddress[_symbol] */\n      mload(0x40)\n      tag_114\n      swap3\n      swap2\n      swap1\n      tag_79\n      jump\t// in\n    tag_114:\n      swap1\n      dup2\n      mstore\n      mload(0x40)\n      swap1\n      dup2\n      swap1\n      sub\n      0x20\n      add\n      swap1\n      keccak256\n      sload\n      0xffffffffffffffffffffffffffffffffffffffff\n      and\n      swap1\n      pop\n        /* \"contracts/Payment/Currencies.sol\":3396:3422  tokenAddress != address(0) */\n      dup1\n      iszero\n        /* \"contracts/Payment/Currencies.sol\":3393:3619  if(tokenAddress != address(0))... */\n      tag_115\n      jumpi\n        /* \"contracts/Payment/Currencies.sol\":3437:3466  revert(\"Symbol already used\") */\n      mload(0x40)\n      0x08c379a000000000000000000000000000000000000000000000000000000000\n      dup2\n      mstore\n        /* \"#utility.yul\":6656:6658   */\n      0x20\n        /* \"contracts/Payment/Currencies.sol\":3437:3466  revert(\"Symbol already used\") */\n      0x04\n      dup3\n      add\n        /* \"#utility.yul\":6638:6659   */\n      mstore\n        /* \"#utility.yul\":6695:6697   */\n      0x13\n        /* \"#utility.yul\":6675:6693   */\n      0x24\n      dup3\n      add\n        /* \"#utility.yul\":6668:6698   */\n      mstore\n        /* \"#utility.yul\":6734:6755   */\n      0x53796d626f6c20616c7265616479207573656400000000000000000000000000\n        /* \"#utility.yul\":6714:6732   */\n      0x44\n      dup3\n      add\n        /* \"#utility.yul\":6707:6756   */\n      mstore\n        /* \"#utility.yul\":6773:6791   */\n      0x64\n      add\n        /* \"contracts/Payment/Currencies.sol\":3437:3466  revert(\"Symbol already used\") */\n      tag_86\n        /* \"#utility.yul\":6454:6797   */\n      jump\n        /* \"contracts/Payment/Currencies.sol\":3393:3619  if(tokenAddress != address(0))... */\n    tag_115:\n        /* \"contracts/Payment/Currencies.sol\":3553:3573  abi.encodePacked(\"\") */\n      0x40\n      dup1\n      mload\n      0x00\n      dup1\n      dup3\n      mstore\n      0x20\n      dup1\n      dup4\n      add\n      dup1\n      dup6\n      mstore\n        /* \"contracts/Payment/Currencies.sol\":3543:3574  keccak256(abi.encodePacked(\"\")) */\n      dup4\n      mload\n      swap1\n      keccak256\n        /* \"contracts/Payment/Currencies.sol\":3512:3537  addressToSymbol[_address] */\n      0xffffffffffffffffffffffffffffffffffffffff\n      dup9\n      and\n      dup4\n      mstore\n        /* \"contracts/Payment/Currencies.sol\":3512:3527  addressToSymbol */\n      0x02\n        /* \"contracts/Payment/Currencies.sol\":3512:3537  addressToSymbol[_address] */\n      swap1\n      swap2\n      mstore\n      swap1\n      dup4\n      swap1\n      keccak256\n        /* \"contracts/Payment/Currencies.sol\":3543:3574  keccak256(abi.encodePacked(\"\")) */\n      swap1\n      swap3\n        /* \"contracts/Payment/Currencies.sol\":3495:3538  abi.encodePacked(addressToSymbol[_address]) */\n      tag_121\n      swap3\n      add\n      tag_122\n      jump\t// in\n    tag_121:\n      mload(0x40)\n      0x20\n      dup2\n      dup4\n      sub\n      sub\n      dup2\n      mstore\n      swap1\n      0x40\n      mstore\n        /* \"contracts/Payment/Currencies.sol\":3485:3539  keccak256(abi.encodePacked(addressToSymbol[_address])) */\n      dup1\n      mload\n      swap1\n      0x20\n      add\n      keccak256\n        /* \"contracts/Payment/Currencies.sol\":3485:3574  keccak256(abi.encodePacked(addressToSymbol[_address])) != keccak256(abi.encodePacked(\"\")) */\n      eq\n        /* \"contracts/Payment/Currencies.sol\":3482:3619  if(keccak256(abi.encodePacked(addressToSymbol[_address])) != keccak256(abi.encodePacked(\"\")))... */\n      tag_123\n      jumpi\n        /* \"contracts/Payment/Currencies.sol\":3589:3619  revert(\"Address already used\") */\n      mload(0x40)\n      0x08c379a000000000000000000000000000000000000000000000000000000000\n      dup2\n      mstore\n        /* \"#utility.yul\":8688:8690   */\n      0x20\n        /* \"contracts/Payment/Currencies.sol\":3589:3619  revert(\"Address already used\") */\n      0x04\n      dup3\n      add\n        /* \"#utility.yul\":8670:8691   */\n      mstore\n        /* \"#utility.yul\":8727:8729   */\n      0x14\n        /* \"#utility.yul\":8707:8725   */\n      0x24\n      dup3\n      add\n        /* \"#utility.yul\":8700:8730   */\n      mstore\n        /* \"#utility.yul\":8766:8788   */\n      0x4164647265737320616c72656164792075736564000000000000000000000000\n        /* \"#utility.yul\":8746:8764   */\n      0x44\n      dup3\n      add\n        /* \"#utility.yul\":8739:8789   */\n      mstore\n        /* \"#utility.yul\":8806:8824   */\n      0x64\n      add\n        /* \"contracts/Payment/Currencies.sol\":3589:3619  revert(\"Address already used\") */\n      tag_86\n        /* \"#utility.yul\":8486:8830   */\n      jump\n        /* \"contracts/Payment/Currencies.sol\":3482:3619  if(keccak256(abi.encodePacked(addressToSymbol[_address])) != keccak256(abi.encodePacked(\"\")))... */\n    tag_123:\n        /* \"contracts/Payment/Currencies.sol\":3671:3692  extcodesize(_address) */\n      dup3\n      extcodesize\n        /* \"contracts/Payment/Currencies.sol\":3708:3717  size == 0 */\n      0xffffffff\n      dup2\n      and\n        /* \"contracts/Payment/Currencies.sol\":3632:3643  uint32 size */\n      0x00\n        /* \"contracts/Payment/Currencies.sol\":3708:3717  size == 0 */\n      sub\n        /* \"contracts/Payment/Currencies.sol\":3705:3756  if(size == 0)... */\n      tag_126\n      jumpi\n        /* \"contracts/Payment/Currencies.sol\":3732:3756  revert(\"Not a contract\") */\n      mload(0x40)\n      0x08c379a000000000000000000000000000000000000000000000000000000000\n      dup2\n      mstore\n        /* \"#utility.yul\":9037:9039   */\n      0x20\n        /* \"contracts/Payment/Currencies.sol\":3732:3756  revert(\"Not a contract\") */\n      0x04\n      dup3\n      add\n        /* \"#utility.yul\":9019:9040   */\n      mstore\n        /* \"#utility.yul\":9076:9078   */\n      0x0e\n        /* \"#utility.yul\":9056:9074   */\n      0x24\n      dup3\n      add\n        /* \"#utility.yul\":9049:9079   */\n      mstore\n        /* \"#utility.yul\":9115:9131   */\n      0x4e6f74206120636f6e7472616374000000000000000000000000000000000000\n        /* \"#utility.yul\":9095:9113   */\n      0x44\n      dup3\n      add\n        /* \"#utility.yul\":9088:9132   */\n      mstore\n        /* \"#utility.yul\":9149:9167   */\n      0x64\n      add\n        /* \"contracts/Payment/Currencies.sol\":3732:3756  revert(\"Not a contract\") */\n      tag_86\n        /* \"#utility.yul\":8835:9173   */\n      jump\n        /* \"contracts/Payment/Currencies.sol\":3705:3756  if(size == 0)... */\n    tag_126:\n        /* \"contracts/Payment/Currencies.sol\":3769:3785  string memory sb */\n      0x00\n        /* \"contracts/Payment/Currencies.sol\":3795:3803  _address */\n      dup5\n        /* \"contracts/Payment/Currencies.sol\":3788:3811  IERC20(_address).symbol */\n      0xffffffffffffffffffffffffffffffffffffffff\n      and\n      0x95d89b41\n        /* \"contracts/Payment/Currencies.sol\":3788:3813  IERC20(_address).symbol() */\n      mload(0x40)\n      dup2\n      0xffffffff\n      and\n      0xe0\n      shl\n      dup2\n      mstore\n      0x04\n      add\n      0x00\n      mload(0x40)\n      dup1\n      dup4\n      sub\n      dup2\n      dup7\n      gas\n      staticcall\n      iszero\n      dup1\n      iszero\n      tag_130\n      jumpi\n      returndatasize\n      0x00\n      dup1\n      returndatacopy\n      revert(0x00, returndatasize)\n    tag_130:\n      pop\n      pop\n      pop\n      pop\n      mload(0x40)\n      returndatasize\n      0x00\n      dup3\n      returndatacopy\n      0x1f\n      returndatasize\n      swap1\n      dup2\n      add\n      0xffffffffffffffffffffffffffffffffffffffffffffffffffffffffffffffe0\n      and\n      dup3\n      add\n      0x40\n      mstore\n      tag_131\n      swap2\n      swap1\n      dup2\n      add\n      swap1\n      tag_132\n      jump\t// in\n    tag_131:\n        /* \"contracts/Payment/Currencies.sol\":3769:3813  string memory sb = IERC20(_address).symbol() */\n      swap1\n      pop\n        /* \"contracts/Payment/Currencies.sol\":3896:3898  sb */\n      dup1\n        /* \"contracts/Payment/Currencies.sol\":3879:3899  abi.encodePacked(sb) */\n      add(0x20, mload(0x40))\n      tag_133\n      swap2\n      swap1\n      tag_134\n      jump\t// in\n    tag_133:\n      mload(0x40)\n      0x20\n      dup2\n      dup4\n      sub\n      sub\n      dup2\n      mstore\n      swap1\n      0x40\n      mstore\n        /* \"contracts/Payment/Currencies.sol\":3869:3900  keccak256(abi.encodePacked(sb)) */\n      dup1\n      mload\n      swap1\n      0x20\n      add\n      keccak256\n        /* \"contracts/Payment/Currencies.sol\":3856:3863  _symbol */\n      dup8\n      dup8\n        /* \"contracts/Payment/Currencies.sol\":3839:3864  abi.encodePacked(_symbol) */\n      add(0x20, mload(0x40))\n      tag_135\n      swap3\n      swap2\n      swap1\n      tag_79\n      jump\t// in\n    tag_135:\n      mload(0x40)\n      0x20\n      dup2\n      dup4\n      sub\n      sub\n      dup2\n      mstore\n      swap1\n      0x40\n      mstore\n        /* \"contracts/Payment/Currencies.sol\":3829:3865  keccak256(abi.encodePacked(_symbol)) */\n      dup1\n      mload\n      swap1\n      0x20\n      add\n      keccak256\n        /* \"contracts/Payment/Currencies.sol\":3829:3900  keccak256(abi.encodePacked(_symbol)) != keccak256(abi.encodePacked(sb)) */\n      eq\n        /* \"contracts/Payment/Currencies.sol\":3826:3940  if(keccak256(abi.encodePacked(_symbol)) != keccak256(abi.encodePacked(sb)))... */\n      tag_136\n      jumpi\n        /* \"contracts/Payment/Currencies.sol\":3915:3940  revert(\"Symbol mismatch\") */\n      mload(0x40)\n      0x08c379a000000000000000000000000000000000000000000000000000000000\n      dup2\n      mstore\n        /* \"#utility.yul\":10824:10826   */\n      0x20\n        /* \"contracts/Payment/Currencies.sol\":3915:3940  revert(\"Symbol mismatch\") */\n      0x04\n      dup3\n      add\n        /* \"#utility.yul\":10806:10827   */\n      mstore\n        /* \"#utility.yul\":10863:10865   */\n      0x0f\n        /* \"#utility.yul\":10843:10861   */\n      0x24\n      dup3\n      add\n        /* \"#utility.yul\":10836:10866   */\n      mstore\n        /* \"#utility.yul\":10902:10919   */\n      0x53796d626f6c206d69736d617463680000000000000000000000000000000000\n        /* \"#utility.yul\":10882:10900   */\n      0x44\n      dup3\n      add\n        /* \"#utility.yul\":10875:10920   */\n      mstore\n        /* \"#utility.yul\":10937:10955   */\n      0x64\n      add\n        /* \"contracts/Payment/Currencies.sol\":3915:3940  revert(\"Symbol mismatch\") */\n      tag_86\n        /* \"#utility.yul\":10622:10961   */\n      jump\n        /* \"contracts/Payment/Currencies.sol\":3826:3940  if(keccak256(abi.encodePacked(_symbol)) != keccak256(abi.encodePacked(sb)))... */\n    tag_136:\n        /* \"contracts/Payment/Currencies.sol\":3980:3988  _address */\n      dup5\n        /* \"contracts/Payment/Currencies.sol\":3953:3968  symbolToAddress */\n      0x01\n        /* \"contracts/Payment/Currencies.sol\":3969:3976  _symbol */\n      dup9\n      dup9\n        /* \"contracts/Payment/Currencies.sol\":3953:3977  symbolToAddress[_symbol] */\n      mload(0x40)\n      tag_139\n      swap3\n      swap2\n      swap1\n      tag_79\n      jump\t// in\n    tag_139:\n      swap1\n      dup2\n      mstore\n      0x40\n      dup1\n      mload\n      0x20\n      swap3\n      dup2\n      swap1\n      sub\n      dup4\n      add\n      swap1\n      keccak256\n        /* \"contracts/Payment/Currencies.sol\":3953:3988  symbolToAddress[_symbol] = _address */\n      dup1\n      sload\n      0xffffffffffffffffffffffff0000000000000000000000000000000000000000\n      and\n      0xffffffffffffffffffffffffffffffffffffffff\n      swap5\n      dup6\n      and\n      or\n      swap1\n      sstore\n        /* \"contracts/Payment/Currencies.sol\":3999:4024  addressToSymbol[_address] */\n      swap2\n      dup8\n      and\n      0x00\n      swap1\n      dup2\n      mstore\n        /* \"contracts/Payment/Currencies.sol\":3999:4014  addressToSymbol */\n      0x02\n        /* \"contracts/Payment/Currencies.sol\":3999:4024  addressToSymbol[_address] */\n      swap1\n      swap2\n      mstore\n      keccak256\n        /* \"contracts/Payment/Currencies.sol\":3999:4034  addressToSymbol[_address] = _symbol */\n      tag_140\n        /* \"contracts/Payment/Currencies.sol\":4027:4034  _symbol */\n      dup8\n      dup10\n        /* \"contracts/Payment/Currencies.sol\":3999:4024  addressToSymbol[_address] */\n      dup4\n        /* \"contracts/Payment/Currencies.sol\":3999:4034  addressToSymbol[_address] = _symbol */\n      tag_141\n      jump\t// in\n    tag_140:\n      pop\n        /* \"contracts/Payment/Currencies.sol\":4045:4066  currencyFee[_address] */\n      0xffffffffffffffffffffffffffffffffffffffff\n      dup6\n      and\n      0x00\n      swap1\n      dup2\n      mstore\n        /* \"contracts/Payment/Currencies.sol\":4045:4056  currencyFee */\n      0x03\n        /* \"contracts/Payment/Currencies.sol\":4045:4066  currencyFee[_address] */\n      0x20\n      mstore\n      0x40\n      dup2\n      keccak256\n        /* \"contracts/Payment/Currencies.sol\":4045:4072  currencyFee[_address] = 220 */\n      dup1\n      sload\n      0xffffffffffffffffffffffffffffffffffffffffffffffffffffffffff000000\n      and\n        /* \"contracts/Payment/Currencies.sol\":4069:4072  220 */\n      0xdc\n        /* \"contracts/Payment/Currencies.sol\":4045:4072  currencyFee[_address] = 220 */\n      or\n      swap1\n      sstore\n        /* \"contracts/Payment/Currencies.sol\":4085:4109  currencies.push(_symbol) */\n      dup1\n      sload\n        /* \"contracts/Payment/Currencies.sol\":4045:4072  currencyFee[_address] = 220 */\n      0x01\n        /* \"contracts/Payment/Currencies.sol\":4085:4109  currencies.push(_symbol) */\n      dup2\n      add\n      dup3\n      sstore\n      swap1\n      dup1\n      mstore\n      0x290decd9548b62a8d60345a988386fc84ba6bc95484008f6362f93160ef3e563\n      add\n      tag_143\n        /* \"contracts/Payment/Currencies.sol\":4101:4108  _symbol */\n      dup8\n      dup10\n        /* \"contracts/Payment/Currencies.sol\":4085:4109  currencies.push(_symbol) */\n      dup4\n      tag_141\n      jump\t// in\n    tag_143:\n      pop\n        /* \"contracts/Payment/Currencies.sol\":4127:4157  CurrencyAddition(tokenAddress) */\n      mload(0x40)\n      0xffffffffffffffffffffffffffffffffffffffff\n      dup5\n      and\n      swap1\n      0x2014b559c1ee999c8f4c928818d91e9e88aa4e2cceeaec16156472ab9e1c9adc\n      swap1\n      0x00\n      swap1\n      log2\n      pop\n        /* \"contracts/Payment/Currencies.sol\":4175:4179  true */\n      0x01\n      swap7\n        /* \"contracts/Payment/Currencies.sol\":3226:4187  function AddCurrency(string calldata _symbol, address _address) public ownerOnly returns(bool){... */\n      swap6\n      pop\n      pop\n      pop\n      pop\n      pop\n      pop\n      jump\t// out\n        /* \"contracts/Payment/Currencies.sol\":4195:4960  function RemoveCurrency(string calldata _symbol) public ownerOnly returns(bool){... */\n    tag_54:\n        /* \"contracts/Payment/Currencies.sol\":4269:4273  bool */\n      0x00\n        /* \"contracts/Payment/Currencies.sol\":2015:2025  msg.sender */\n      caller\n        /* \"contracts/Payment/Currencies.sol\":1998:2025  pt.GetOwner() != msg.sender */\n      0xffffffffffffffffffffffffffffffffffffffff\n      and\n        /* \"contracts/Payment/Currencies.sol\":964:1006  0x72ec1287FF5BB960fd54Ac2AdAE99145153C561F */\n      0x72ec1287ff5bb960fd54ac2adae99145153c561f\n        /* \"contracts/Payment/Currencies.sol\":1998:2009  pt.GetOwner */\n      0xffffffffffffffffffffffffffffffffffffffff\n      and\n      0x0ae50a39\n        /* \"contracts/Payment/Currencies.sol\":1998:2011  pt.GetOwner() */\n      mload(0x40)\n      dup2\n      0xffffffff\n      and\n      0xe0\n      shl\n      dup2\n      mstore\n      0x04\n      add\n      0x20\n      mload(0x40)\n      dup1\n      dup4\n      sub\n      dup2\n      dup7\n      gas\n      staticcall\n      iszero\n      dup1\n      iszero\n      tag_146\n      jumpi\n      returndatasize\n      0x00\n      dup1\n      returndatacopy\n      revert(0x00, returndatasize)\n    tag_146:\n      pop\n      pop\n      pop\n      pop\n      mload(0x40)\n      returndatasize\n      not(0x1f)\n      0x1f\n      dup3\n      add\n      and\n      dup3\n      add\n      dup1\n      0x40\n      mstore\n      pop\n      dup2\n      add\n      swap1\n      tag_147\n      swap2\n      swap1\n      tag_84\n      jump\t// in\n    tag_147:\n        /* \"contracts/Payment/Currencies.sol\":1998:2025  pt.GetOwner() != msg.sender */\n      0xffffffffffffffffffffffffffffffffffffffff\n      and\n      eq\n        /* \"contracts/Payment/Currencies.sol\":1995:2060  if(pt.GetOwner() != msg.sender)... */\n      tag_148\n      jumpi\n        /* \"contracts/Payment/Currencies.sol\":2040:2060  revert(\"Owner only\") */\n      mload(0x40)\n      0x08c379a000000000000000000000000000000000000000000000000000000000\n      dup2\n      mstore\n        /* \"#utility.yul\":5624:5626   */\n      0x20\n        /* \"contracts/Payment/Currencies.sol\":2040:2060  revert(\"Owner only\") */\n      0x04\n      dup3\n      add\n        /* \"#utility.yul\":5606:5627   */\n      mstore\n        /* \"#utility.yul\":5663:5665   */\n      0x0a\n        /* \"#utility.yul\":5643:5661   */\n      0x24\n      dup3\n      add\n        /* \"#utility.yul\":5636:5666   */\n      mstore\n        /* \"#utility.yul\":5702:5714   */\n      0x4f776e6572206f6e6c7900000000000000000000000000000000000000000000\n        /* \"#utility.yul\":5682:5700   */\n      0x44\n      dup3\n      add\n        /* \"#utility.yul\":5675:5715   */\n      mstore\n        /* \"#utility.yul\":5732:5750   */\n      0x64\n      add\n        /* \"contracts/Payment/Currencies.sol\":2040:2060  revert(\"Owner only\") */\n      tag_86\n        /* \"#utility.yul\":5422:5756   */\n      jump\n        /* \"contracts/Payment/Currencies.sol\":1995:2060  if(pt.GetOwner() != msg.sender)... */\n    tag_148:\n        /* \"contracts/Payment/Currencies.sol\":4287:4307  address tokenAddress */\n      0x00\n        /* \"contracts/Payment/Currencies.sol\":4310:4325  symbolToAddress */\n      0x01\n        /* \"contracts/Payment/Currencies.sol\":4326:4333  _symbol */\n      dup5\n      dup5\n        /* \"contracts/Payment/Currencies.sol\":4310:4334  symbolToAddress[_symbol] */\n      mload(0x40)\n      tag_151\n      swap3\n      swap2\n      swap1\n      tag_79\n      jump\t// in\n    tag_151:\n      swap1\n      dup2\n      mstore\n      mload(0x40)\n      swap1\n      dup2\n      swap1\n      sub\n      0x20\n      add\n      swap1\n      keccak256\n      sload\n      0xffffffffffffffffffffffffffffffffffffffff\n      and\n      swap1\n      pop\n      dup1\n        /* \"contracts/Payment/Currencies.sol\":4347:4416  if(tokenAddress == address(0))... */\n      tag_152\n      jumpi\n        /* \"contracts/Payment/Currencies.sol\":4391:4416  revert(\"Symbol not used\") */\n      mload(0x40)\n      0x08c379a000000000000000000000000000000000000000000000000000000000\n      dup2\n      mstore\n        /* \"#utility.yul\":5963:5965   */\n      0x20\n        /* \"contracts/Payment/Currencies.sol\":4391:4416  revert(\"Symbol not used\") */\n      0x04\n      dup3\n      add\n        /* \"#utility.yul\":5945:5966   */\n      mstore\n        /* \"#utility.yul\":6002:6004   */\n      0x0f\n        /* \"#utility.yul\":5982:6000   */\n      0x24\n      dup3\n      add\n        /* \"#utility.yul\":5975:6005   */\n      mstore\n        /* \"#utility.yul\":6041:6058   */\n      0x53796d626f6c206e6f7420757365640000000000000000000000000000000000\n        /* \"#utility.yul\":6021:6039   */\n      0x44\n      dup3\n      add\n        /* \"#utility.yul\":6014:6059   */\n      mstore\n        /* \"#utility.yul\":6076:6094   */\n      0x64\n      add\n        /* \"contracts/Payment/Currencies.sol\":4391:4416  revert(\"Symbol not used\") */\n      tag_86\n        /* \"#utility.yul\":5761:6100   */\n      jump\n        /* \"contracts/Payment/Currencies.sol\":4347:4416  if(tokenAddress == address(0))... */\n    tag_152:\n        /* \"contracts/Payment/Currencies.sol\":4444:4473  addressToSymbol[tokenAddress] */\n      0xffffffffffffffffffffffffffffffffffffffff\n      dup2\n      and\n      0x00\n      swap1\n      dup2\n      mstore\n        /* \"contracts/Payment/Currencies.sol\":4444:4459  addressToSymbol */\n      0x02\n        /* \"contracts/Payment/Currencies.sol\":4444:4473  addressToSymbol[tokenAddress] */\n      0x20\n      mstore\n      0x40\n      dup2\n      keccak256\n        /* \"contracts/Payment/Currencies.sol\":4437:4473  delete addressToSymbol[tokenAddress] */\n      tag_154\n      swap2\n      tag_155\n      jump\t// in\n    tag_154:\n        /* \"contracts/Payment/Currencies.sol\":4491:4506  symbolToAddress */\n      0x01\n        /* \"contracts/Payment/Currencies.sol\":4507:4514  _symbol */\n      dup5\n      dup5\n        /* \"contracts/Payment/Currencies.sol\":4491:4515  symbolToAddress[_symbol] */\n      mload(0x40)\n      tag_156\n      swap3\n      swap2\n      swap1\n      tag_79\n      jump\t// in\n    tag_156:\n      swap1\n      dup2\n      mstore\n      0x40\n      dup1\n      mload\n      0x20\n      swap3\n      dup2\n      swap1\n      sub\n      dup4\n      add\n      swap1\n      keccak256\n        /* \"contracts/Payment/Currencies.sol\":4484:4515  delete symbolToAddress[_symbol] */\n      dup1\n      sload\n      0xffffffffffffffffffffffff0000000000000000000000000000000000000000\n      and\n      swap1\n      sstore\n      0xffffffffffffffffffffffffffffffffffffffff\n        /* \"contracts/Payment/Currencies.sol\":4533:4558  currencyFee[tokenAddress] */\n      dup4\n      and\n      0x00\n      swap1\n      dup2\n      mstore\n        /* \"contracts/Payment/Currencies.sol\":4533:4544  currencyFee */\n      0x03\n        /* \"contracts/Payment/Currencies.sol\":4533:4558  currencyFee[tokenAddress] */\n      swap1\n      swap3\n      mstore\n      dup2\n      keccak256\n        /* \"contracts/Payment/Currencies.sol\":4526:4558  delete currencyFee[tokenAddress] */\n      dup1\n      sload\n      0xffffffffffffffffffffffffffffffffffffffffffffffffffffffffff000000\n      and\n      swap1\n      sstore\n        /* \"contracts/Payment/Currencies.sol\":4585:4602  currencies.length */\n      dup1\n      sload\n      swap1\n        /* \"contracts/Payment/Currencies.sol\":4615:4855  for(uint256 i = 0; i < lng; i++){... */\n    tag_157:\n        /* \"contracts/Payment/Currencies.sol\":4638:4641  lng */\n      dup2\n        /* \"contracts/Payment/Currencies.sol\":4634:4635  i */\n      dup2\n        /* \"contracts/Payment/Currencies.sol\":4634:4641  i < lng */\n      lt\n        /* \"contracts/Payment/Currencies.sol\":4615:4855  for(uint256 i = 0; i < lng; i++){... */\n      iszero\n      tag_158\n      jumpi\n        /* \"contracts/Payment/Currencies.sol\":4734:4744  currencies */\n      0x00\n        /* \"contracts/Payment/Currencies.sol\":4745:4746  i */\n      dup2\n        /* \"contracts/Payment/Currencies.sol\":4734:4747  currencies[i] */\n      dup2\n      sload\n      dup2\n      lt\n      tag_161\n      jumpi\n      tag_161\n      tag_162\n      jump\t// in\n    tag_161:\n      swap1\n      0x00\n      mstore\n      keccak256(0x00, 0x20)\n      add\n        /* \"contracts/Payment/Currencies.sol\":4717:4748  abi.encodePacked(currencies[i]) */\n      add(0x20, mload(0x40))\n      tag_164\n      swap2\n      swap1\n      tag_122\n      jump\t// in\n    tag_164:\n      mload(0x40)\n      0x20\n      dup2\n      dup4\n      sub\n      sub\n      dup2\n      mstore\n      swap1\n      0x40\n      mstore\n        /* \"contracts/Payment/Currencies.sol\":4707:4749  keccak256(abi.encodePacked(currencies[i])) */\n      dup1\n      mload\n      swap1\n      0x20\n      add\n      keccak256\n        /* \"contracts/Payment/Currencies.sol\":4694:4701  _symbol */\n      dup7\n      dup7\n        /* \"contracts/Payment/Currencies.sol\":4677:4702  abi.encodePacked(_symbol) */\n      add(0x20, mload(0x40))\n      tag_165\n      swap3\n      swap2\n      swap1\n      tag_79\n      jump\t// in\n    tag_165:\n      mload(0x40)\n      0x20\n      dup2\n      dup4\n      sub\n      sub\n      dup2\n      mstore\n      swap1\n      0x40\n      mstore\n        /* \"contracts/Payment/Currencies.sol\":4667:4703  keccak256(abi.encodePacked(_symbol)) */\n      dup1\n      mload\n      swap1\n      0x20\n      add\n      keccak256\n        /* \"contracts/Payment/Currencies.sol\":4667:4749  keccak256(abi.encodePacked(_symbol)) == keccak256(abi.encodePacked(currencies[i])) */\n      sub\n        /* \"contracts/Payment/Currencies.sol\":4664:4844  if(keccak256(abi.encodePacked(_symbol)) == keccak256(abi.encodePacked(currencies[i]))){... */\n      tag_166\n      jumpi\n        /* \"contracts/Payment/Currencies.sol\":4787:4797  currencies */\n      0x00\n        /* \"contracts/Payment/Currencies.sol\":4798:4803  lng-1 */\n      tag_167\n        /* \"contracts/Payment/Currencies.sol\":4802:4803  1 */\n      0x01\n        /* \"contracts/Payment/Currencies.sol\":4798:4801  lng */\n      dup5\n        /* \"contracts/Payment/Currencies.sol\":4798:4803  lng-1 */\n      tag_168\n      jump\t// in\n    tag_167:\n        /* \"contracts/Payment/Currencies.sol\":4787:4804  currencies[lng-1] */\n      dup2\n      sload\n      dup2\n      lt\n      tag_170\n      jumpi\n      tag_170\n      tag_162\n      jump\t// in\n    tag_170:\n      swap1\n      0x00\n      mstore\n      keccak256(0x00, 0x20)\n      add\n        /* \"contracts/Payment/Currencies.sol\":4771:4781  currencies */\n      0x00\n        /* \"contracts/Payment/Currencies.sol\":4782:4783  i */\n      dup3\n        /* \"contracts/Payment/Currencies.sol\":4771:4784  currencies[i] */\n      dup2\n      sload\n      dup2\n      lt\n      tag_173\n      jumpi\n      tag_173\n      tag_162\n      jump\t// in\n    tag_173:\n      swap1\n      0x00\n      mstore\n      keccak256(0x00, 0x20)\n      add\n        /* \"contracts/Payment/Currencies.sol\":4771:4804  currencies[i] = currencies[lng-1] */\n      swap1\n      dup2\n      tag_175\n      swap2\n      swap1\n      tag_176\n      jump\t// in\n    tag_175:\n      pop\n        /* \"contracts/Payment/Currencies.sol\":4823:4828  break */\n      jump(tag_158)\n        /* \"contracts/Payment/Currencies.sol\":4664:4844  if(keccak256(abi.encodePacked(_symbol)) == keccak256(abi.encodePacked(currencies[i]))){... */\n    tag_166:\n        /* \"contracts/Payment/Currencies.sol\":4643:4646  i++ */\n      dup1\n      tag_177\n      dup2\n      tag_178\n      jump\t// in\n    tag_177:\n      swap2\n      pop\n      pop\n        /* \"contracts/Payment/Currencies.sol\":4615:4855  for(uint256 i = 0; i < lng; i++){... */\n      jump(tag_157)\n    tag_158:\n      pop\n        /* \"contracts/Payment/Currencies.sol\":4867:4877  currencies */\n      0x00\n        /* \"contracts/Payment/Currencies.sol\":4867:4883  currencies.pop() */\n      dup1\n      sload\n      dup1\n      tag_180\n      jumpi\n      tag_180\n      tag_181\n      jump\t// in\n    tag_180:\n      0x01\n      swap1\n      sub\n      dup2\n      dup2\n      swap1\n      0x00\n      mstore\n      keccak256(0x00, 0x20)\n      add\n      0x00\n      tag_183\n      swap2\n      swap1\n      tag_155\n      jump\t// in\n    tag_183:\n      swap1\n      sstore\n        /* \"contracts/Payment/Currencies.sol\":4901:4930  CurrencyRemoval(tokenAddress) */\n      mload(0x40)\n      0xffffffffffffffffffffffffffffffffffffffff\n      dup4\n      and\n      swap1\n      0x22bc03fb7deb05fc0b86d22d74c307475ea4e7c8d142961ebc727459121fed0f\n      swap1\n      0x00\n      swap1\n      log2\n      pop\n        /* \"contracts/Payment/Currencies.sol\":4948:4952  true */\n      0x01\n      swap5\n        /* \"contracts/Payment/Currencies.sol\":4195:4960  function RemoveCurrency(string calldata _symbol) public ownerOnly returns(bool){... */\n      swap4\n      pop\n      pop\n      pop\n      pop\n      jump\t// out\n        /* \"contracts/Payment/Currencies.sol\":2620:2752  function GetCurrencySymbol(address _address) public view returns(string memory){... */\n    tag_60:\n        /* \"contracts/Payment/Currencies.sol\":2719:2744  addressToSymbol[_address] */\n      0xffffffffffffffffffffffffffffffffffffffff\n      dup2\n      and\n      0x00\n      swap1\n      dup2\n      mstore\n        /* \"contracts/Payment/Currencies.sol\":2719:2734  addressToSymbol */\n      0x02\n        /* \"contracts/Payment/Currencies.sol\":2719:2744  addressToSymbol[_address] */\n      0x20\n      mstore\n      0x40\n      swap1\n      keccak256\n        /* \"contracts/Payment/Currencies.sol\":2712:2744  return addressToSymbol[_address] */\n      dup1\n      sload\n        /* \"contracts/Payment/Currencies.sol\":2685:2698  string memory */\n      0x60\n      swap2\n        /* \"contracts/Payment/Currencies.sol\":2719:2744  addressToSymbol[_address] */\n      swap1\n        /* \"contracts/Payment/Currencies.sol\":2712:2744  return addressToSymbol[_address] */\n      tag_185\n      swap1\n      tag_186\n      jump\t// in\n    tag_185:\n      dup1\n      0x1f\n      add\n      0x20\n      dup1\n      swap2\n      div\n      mul\n      0x20\n      add\n      mload(0x40)\n      swap1\n      dup2\n      add\n      0x40\n      mstore\n      dup1\n      swap3\n      swap2\n      swap1\n      dup2\n      dup2\n      mstore\n      0x20\n      add\n      dup3\n      dup1\n      sload\n      tag_187\n      swap1\n      tag_186\n      jump\t// in\n    tag_187:\n      dup1\n      iszero\n      tag_188\n      jumpi\n      dup1\n      0x1f\n      lt\n      tag_189\n      jumpi\n      0x0100\n      dup1\n      dup4\n      sload\n      div\n      mul\n      dup4\n      mstore\n      swap2\n      0x20\n      add\n      swap2\n      jump(tag_188)\n    tag_189:\n      dup3\n      add\n      swap2\n      swap1\n      0x00\n      mstore\n      keccak256(0x00, 0x20)\n      swap1\n    tag_190:\n      dup2\n      sload\n      dup2\n      mstore\n      swap1\n      0x01\n      add\n      swap1\n      0x20\n      add\n      dup1\n      dup4\n      gt\n      tag_190\n      jumpi\n      dup3\n      swap1\n      sub\n      0x1f\n      and\n      dup3\n      add\n      swap2\n    tag_188:\n      pop\n      pop\n      pop\n      pop\n      pop\n      swap1\n      pop\n        /* \"contracts/Payment/Currencies.sol\":2620:2752  function GetCurrencySymbol(address _address) public view returns(string memory){... */\n      swap2\n      swap1\n      pop\n      jump\t// out\n        /* \"contracts/Payment/Currencies.sol\":3022:3124  function GetCurrencyList() public view returns(string[] memory){... */\n    tag_64:\n        /* \"contracts/Payment/Currencies.sol\":3069:3084  string[] memory */\n      0x60\n        /* \"contracts/Payment/Currencies.sol\":3105:3115  currencies */\n      0x00\n        /* \"contracts/Payment/Currencies.sol\":3098:3116  return(currencies) */\n      dup1\n      sload\n      dup1\n      0x20\n      mul\n      0x20\n      add\n      mload(0x40)\n      swap1\n      dup2\n      add\n      0x40\n      mstore\n      dup1\n      swap3\n      swap2\n      swap1\n      dup2\n      dup2\n      mstore\n      0x20\n      add\n      0x00\n      swap1\n    tag_192:\n      dup3\n      dup3\n      lt\n      iszero\n      tag_193\n      jumpi\n      dup4\n      dup3\n      swap1\n      0x00\n      mstore\n      keccak256(0x00, 0x20)\n      add\n      dup1\n      sload\n      tag_195\n      swap1\n      tag_186\n      jump\t// in\n    tag_195:\n      dup1\n      0x1f\n      add\n      0x20\n      dup1\n      swap2\n      div\n      mul\n      0x20\n      add\n      mload(0x40)\n      swap1\n      dup2\n      add\n      0x40\n      mstore\n      dup1\n      swap3\n      swap2\n      swap1\n      dup2\n      dup2\n      mstore\n      0x20\n      add\n      dup3\n      dup1\n      sload\n      tag_196\n      swap1\n      tag_186\n      jump\t// in\n    tag_196:\n      dup1\n      iszero\n      tag_197\n      jumpi\n      dup1\n      0x1f\n      lt\n      tag_198\n      jumpi\n      0x0100\n      dup1\n      dup4\n      sload\n      div\n      mul\n      dup4\n      mstore\n      swap2\n      0x20\n      add\n      swap2\n      jump(tag_197)\n    tag_198:\n      dup3\n      add\n      swap2\n      swap1\n      0x00\n      mstore\n      keccak256(0x00, 0x20)\n      swap1\n    tag_199:\n      dup2\n      sload\n      dup2\n      mstore\n      swap1\n      0x01\n      add\n      swap1\n      0x20\n      add\n      dup1\n      dup4\n      gt\n      tag_199\n      jumpi\n      dup3\n      swap1\n      sub\n      0x1f\n      and\n      dup3\n      add\n      swap2\n    tag_197:\n      pop\n      pop\n      pop\n      pop\n      pop\n      dup2\n      mstore\n      0x20\n      add\n      swap1\n      0x01\n      add\n      swap1\n      jump(tag_192)\n    tag_193:\n      pop\n      pop\n      pop\n      pop\n      swap1\n      pop\n        /* \"contracts/Payment/Currencies.sol\":3022:3124  function GetCurrencyList() public view returns(string[] memory){... */\n      swap1\n      jump\t// out\n        /* \"contracts/Payment/Currencies.sol\":2479:2612  function GetCurrencyAddress(string calldata _symbol) public view returns(address){... */\n    tag_70:\n        /* \"contracts/Payment/Currencies.sol\":2552:2559  address */\n      0x00\n        /* \"contracts/Payment/Currencies.sol\":2580:2595  symbolToAddress */\n      0x01\n        /* \"contracts/Payment/Currencies.sol\":2596:2603  _symbol */\n      dup4\n      dup4\n        /* \"contracts/Payment/Currencies.sol\":2580:2604  symbolToAddress[_symbol] */\n      mload(0x40)\n      tag_201\n      swap3\n      swap2\n      swap1\n      tag_79\n      jump\t// in\n    tag_201:\n      swap1\n      dup2\n      mstore\n      mload(0x40)\n      swap1\n      dup2\n      swap1\n      sub\n      0x20\n      add\n      swap1\n      keccak256\n      sload\n      0xffffffffffffffffffffffffffffffffffffffff\n      and\n      swap1\n      pop\n        /* \"contracts/Payment/Currencies.sol\":2479:2612  function GetCurrencyAddress(string calldata _symbol) public view returns(address){... */\n      swap3\n      swap2\n      pop\n      pop\n      jump\t// out\n    tag_155:\n      pop\n      dup1\n      sload\n      tag_203\n      swap1\n      tag_186\n      jump\t// in\n    tag_203:\n      0x00\n      dup3\n      sstore\n      dup1\n      0x1f\n      lt\n      tag_205\n      jumpi\n      pop\n      pop\n      jump\t// out\n    tag_205:\n      0x1f\n      add\n      0x20\n      swap1\n      div\n      swap1\n      0x00\n      mstore\n      keccak256(0x00, 0x20)\n      swap1\n      dup2\n      add\n      swap1\n      tag_206\n      swap2\n      swap1\n      tag_207\n      jump\t// in\n    tag_206:\n      pop\n      jump\t// out\n    tag_207:\n    tag_208:\n      dup1\n      dup3\n      gt\n      iszero\n      tag_209\n      jumpi\n      0x00\n      dup2\n      sstore\n      0x01\n      add\n      jump(tag_208)\n    tag_209:\n      pop\n      swap1\n      jump\t// out\n        /* \"#utility.yul\":14:362   */\n    tag_210:\n        /* \"#utility.yul\":66:74   */\n      0x00\n        /* \"#utility.yul\":76:82   */\n      dup1\n        /* \"#utility.yul\":130:133   */\n      dup4\n        /* \"#utility.yul\":123:127   */\n      0x1f\n        /* \"#utility.yul\":115:121   */\n      dup5\n        /* \"#utility.yul\":111:128   */\n      add\n        /* \"#utility.yul\":107:134   */\n      slt\n        /* \"#utility.yul\":97:152   */\n      tag_222\n      jumpi\n        /* \"#utility.yul\":148:149   */\n      0x00\n        /* \"#utility.yul\":145:146   */\n      dup1\n        /* \"#utility.yul\":138:150   */\n      revert\n        /* \"#utility.yul\":97:152   */\n    tag_222:\n      pop\n        /* \"#utility.yul\":171:191   */\n      dup2\n      calldataload\n        /* \"#utility.yul\":214:232   */\n      0xffffffffffffffff\n        /* \"#utility.yul\":203:233   */\n      dup2\n      gt\n        /* \"#utility.yul\":200:250   */\n      iszero\n      tag_223\n      jumpi\n        /* \"#utility.yul\":246:247   */\n      0x00\n        /* \"#utility.yul\":243:244   */\n      dup1\n        /* \"#utility.yul\":236:248   */\n      revert\n        /* \"#utility.yul\":200:250   */\n    tag_223:\n        /* \"#utility.yul\":283:287   */\n      0x20\n        /* \"#utility.yul\":275:281   */\n      dup4\n        /* \"#utility.yul\":271:288   */\n      add\n        /* \"#utility.yul\":259:288   */\n      swap2\n      pop\n        /* \"#utility.yul\":335:338   */\n      dup4\n        /* \"#utility.yul\":328:332   */\n      0x20\n        /* \"#utility.yul\":319:325   */\n      dup3\n        /* \"#utility.yul\":311:317   */\n      dup6\n        /* \"#utility.yul\":307:326   */\n      add\n        /* \"#utility.yul\":303:333   */\n      add\n        /* \"#utility.yul\":300:339   */\n      gt\n        /* \"#utility.yul\":297:356   */\n      iszero\n      tag_224\n      jumpi\n        /* \"#utility.yul\":352:353   */\n      0x00\n        /* \"#utility.yul\":349:350   */\n      dup1\n        /* \"#utility.yul\":342:354   */\n      revert\n        /* \"#utility.yul\":297:356   */\n    tag_224:\n        /* \"#utility.yul\":14:362   */\n      swap3\n      pop\n      swap3\n      swap1\n      pop\n      jump\t// out\n        /* \"#utility.yul\":367:778   */\n    tag_23:\n        /* \"#utility.yul\":438:444   */\n      0x00\n        /* \"#utility.yul\":446:452   */\n      dup1\n        /* \"#utility.yul\":499:501   */\n      0x20\n        /* \"#utility.yul\":487:496   */\n      dup4\n        /* \"#utility.yul\":478:485   */\n      dup6\n        /* \"#utility.yul\":474:497   */\n      sub\n        /* \"#utility.yul\":470:502   */\n      slt\n        /* \"#utility.yul\":467:519   */\n      iszero\n      tag_226\n      jumpi\n        /* \"#utility.yul\":515:516   */\n      0x00\n        /* \"#utility.yul\":512:513   */\n      dup1\n        /* \"#utility.yul\":505:517   */\n      revert\n        /* \"#utility.yul\":467:519   */\n    tag_226:\n        /* \"#utility.yul\":555:564   */\n      dup3\n        /* \"#utility.yul\":542:565   */\n      calldataload\n        /* \"#utility.yul\":588:606   */\n      0xffffffffffffffff\n        /* \"#utility.yul\":580:586   */\n      dup2\n        /* \"#utility.yul\":577:607   */\n      gt\n        /* \"#utility.yul\":574:624   */\n      iszero\n      tag_227\n      jumpi\n        /* \"#utility.yul\":620:621   */\n      0x00\n        /* \"#utility.yul\":617:618   */\n      dup1\n        /* \"#utility.yul\":610:622   */\n      revert\n        /* \"#utility.yul\":574:624   */\n    tag_227:\n        /* \"#utility.yul\":659:718   */\n      tag_228\n        /* \"#utility.yul\":710:717   */\n      dup6\n        /* \"#utility.yul\":701:707   */\n      dup3\n        /* \"#utility.yul\":690:699   */\n      dup7\n        /* \"#utility.yul\":686:708   */\n      add\n        /* \"#utility.yul\":659:718   */\n      tag_210\n      jump\t// in\n    tag_228:\n        /* \"#utility.yul\":737:745   */\n      swap1\n      swap7\n        /* \"#utility.yul\":633:718   */\n      swap1\n      swap6\n      pop\n        /* \"#utility.yul\":367:778   */\n      swap4\n      pop\n      pop\n      pop\n      pop\n      jump\t// out\n        /* \"#utility.yul\":978:1139   */\n    tag_211:\n        /* \"#utility.yul\":1045:1065   */\n      dup1\n      calldataload\n        /* \"#utility.yul\":1105:1113   */\n      0xffffff\n        /* \"#utility.yul\":1094:1114   */\n      dup2\n      and\n        /* \"#utility.yul\":1084:1115   */\n      dup2\n      eq\n        /* \"#utility.yul\":1074:1133   */\n      tag_103\n      jumpi\n        /* \"#utility.yul\":1129:1130   */\n      0x00\n        /* \"#utility.yul\":1126:1127   */\n      dup1\n        /* \"#utility.yul\":1119:1131   */\n      revert\n        /* \"#utility.yul\":1144:1627   */\n    tag_30:\n        /* \"#utility.yul\":1223:1229   */\n      0x00\n        /* \"#utility.yul\":1231:1237   */\n      dup1\n        /* \"#utility.yul\":1239:1245   */\n      0x00\n        /* \"#utility.yul\":1292:1294   */\n      0x40\n        /* \"#utility.yul\":1280:1289   */\n      dup5\n        /* \"#utility.yul\":1271:1278   */\n      dup7\n        /* \"#utility.yul\":1267:1290   */\n      sub\n        /* \"#utility.yul\":1263:1295   */\n      slt\n        /* \"#utility.yul\":1260:1312   */\n      iszero\n      tag_233\n      jumpi\n        /* \"#utility.yul\":1308:1309   */\n      0x00\n        /* \"#utility.yul\":1305:1306   */\n      dup1\n        /* \"#utility.yul\":1298:1310   */\n      revert\n        /* \"#utility.yul\":1260:1312   */\n    tag_233:\n        /* \"#utility.yul\":1348:1357   */\n      dup4\n        /* \"#utility.yul\":1335:1358   */\n      calldataload\n        /* \"#utility.yul\":1381:1399   */\n      0xffffffffffffffff\n        /* \"#utility.yul\":1373:1379   */\n      dup2\n        /* \"#utility.yul\":1370:1400   */\n      gt\n        /* \"#utility.yul\":1367:1417   */\n      iszero\n      tag_234\n      jumpi\n        /* \"#utility.yul\":1413:1414   */\n      0x00\n        /* \"#utility.yul\":1410:1411   */\n      dup1\n        /* \"#utility.yul\":1403:1415   */\n      revert\n        /* \"#utility.yul\":1367:1417   */\n    tag_234:\n        /* \"#utility.yul\":1452:1511   */\n      tag_235\n        /* \"#utility.yul\":1503:1510   */\n      dup7\n        /* \"#utility.yul\":1494:1500   */\n      dup3\n        /* \"#utility.yul\":1483:1492   */\n      dup8\n        /* \"#utility.yul\":1479:1501   */\n      add\n        /* \"#utility.yul\":1452:1511   */\n      tag_210\n      jump\t// in\n    tag_235:\n        /* \"#utility.yul\":1530:1538   */\n      swap1\n      swap5\n      pop\n        /* \"#utility.yul\":1426:1511   */\n      swap3\n      pop\n        /* \"#utility.yul\":1584:1621   */\n      tag_236\n      swap1\n      pop\n        /* \"#utility.yul\":1617:1619   */\n      0x20\n        /* \"#utility.yul\":1602:1620   */\n      dup6\n      add\n        /* \"#utility.yul\":1584:1621   */\n      tag_211\n      jump\t// in\n    tag_236:\n        /* \"#utility.yul\":1574:1621   */\n      swap1\n      pop\n        /* \"#utility.yul\":1144:1627   */\n      swap3\n      pop\n      swap3\n      pop\n      swap3\n      jump\t// out\n        /* \"#utility.yul\":1824:2008   */\n    tag_37:\n        /* \"#utility.yul\":1882:1888   */\n      0x00\n        /* \"#utility.yul\":1935:1937   */\n      0x20\n        /* \"#utility.yul\":1923:1932   */\n      dup3\n        /* \"#utility.yul\":1914:1921   */\n      dup5\n        /* \"#utility.yul\":1910:1933   */\n      sub\n        /* \"#utility.yul\":1906:1938   */\n      slt\n        /* \"#utility.yul\":1903:1955   */\n      iszero\n      tag_239\n      jumpi\n        /* \"#utility.yul\":1951:1952   */\n      0x00\n        /* \"#utility.yul\":1948:1949   */\n      dup1\n        /* \"#utility.yul\":1941:1953   */\n      revert\n        /* \"#utility.yul\":1903:1955   */\n    tag_239:\n        /* \"#utility.yul\":1974:2002   */\n      tag_240\n        /* \"#utility.yul\":1992:2001   */\n      dup3\n        /* \"#utility.yul\":1974:2002   */\n      tag_211\n      jump\t// in\n    tag_240:\n        /* \"#utility.yul\":1964:2002   */\n      swap4\n        /* \"#utility.yul\":1824:2008   */\n      swap3\n      pop\n      pop\n      pop\n      jump\t// out\n        /* \"#utility.yul\":2013:2167   */\n    tag_212:\n        /* \"#utility.yul\":2099:2141   */\n      0xffffffffffffffffffffffffffffffffffffffff\n        /* \"#utility.yul\":2092:2097   */\n      dup2\n        /* \"#utility.yul\":2088:2142   */\n      and\n        /* \"#utility.yul\":2081:2086   */\n      dup2\n        /* \"#utility.yul\":2078:2143   */\n      eq\n        /* \"#utility.yul\":2068:2161   */\n      tag_206\n      jumpi\n        /* \"#utility.yul\":2157:2158   */\n      0x00\n        /* \"#utility.yul\":2154:2155   */\n      dup1\n        /* \"#utility.yul\":2147:2159   */\n      revert\n        /* \"#utility.yul\":2172:2718   */\n    tag_43:\n        /* \"#utility.yul\":2252:2258   */\n      0x00\n        /* \"#utility.yul\":2260:2266   */\n      dup1\n        /* \"#utility.yul\":2268:2274   */\n      0x00\n        /* \"#utility.yul\":2321:2323   */\n      0x40\n        /* \"#utility.yul\":2309:2318   */\n      dup5\n        /* \"#utility.yul\":2300:2307   */\n      dup7\n        /* \"#utility.yul\":2296:2319   */\n      sub\n        /* \"#utility.yul\":2292:2324   */\n      slt\n        /* \"#utility.yul\":2289:2341   */\n      iszero\n      tag_244\n      jumpi\n        /* \"#utility.yul\":2337:2338   */\n      0x00\n        /* \"#utility.yul\":2334:2335   */\n      dup1\n        /* \"#utility.yul\":2327:2339   */\n      revert\n        /* \"#utility.yul\":2289:2341   */\n    tag_244:\n        /* \"#utility.yul\":2377:2386   */\n      dup4\n        /* \"#utility.yul\":2364:2387   */\n      calldataload\n        /* \"#utility.yul\":2410:2428   */\n      0xffffffffffffffff\n        /* \"#utility.yul\":2402:2408   */\n      dup2\n        /* \"#utility.yul\":2399:2429   */\n      gt\n        /* \"#utility.yul\":2396:2446   */\n      iszero\n      tag_245\n      jumpi\n        /* \"#utility.yul\":2442:2443   */\n      0x00\n        /* \"#utility.yul\":2439:2440   */\n      dup1\n        /* \"#utility.yul\":2432:2444   */\n      revert\n        /* \"#utility.yul\":2396:2446   */\n    tag_245:\n        /* \"#utility.yul\":2481:2540   */\n      tag_246\n        /* \"#utility.yul\":2532:2539   */\n      dup7\n        /* \"#utility.yul\":2523:2529   */\n      dup3\n        /* \"#utility.yul\":2512:2521   */\n      dup8\n        /* \"#utility.yul\":2508:2530   */\n      add\n        /* \"#utility.yul\":2481:2540   */\n      tag_210\n      jump\t// in\n    tag_246:\n        /* \"#utility.yul\":2559:2567   */\n      swap1\n      swap5\n      pop\n        /* \"#utility.yul\":2455:2540   */\n      swap3\n      pop\n      pop\n        /* \"#utility.yul\":2644:2646   */\n      0x20\n        /* \"#utility.yul\":2629:2647   */\n      dup5\n      add\n        /* \"#utility.yul\":2616:2648   */\n      calldataload\n        /* \"#utility.yul\":2657:2688   */\n      tag_247\n        /* \"#utility.yul\":2616:2648   */\n      dup2\n        /* \"#utility.yul\":2657:2688   */\n      tag_212\n      jump\t// in\n    tag_247:\n        /* \"#utility.yul\":2707:2712   */\n      dup1\n        /* \"#utility.yul\":2697:2712   */\n      swap2\n      pop\n      pop\n        /* \"#utility.yul\":2172:2718   */\n      swap3\n      pop\n      swap3\n      pop\n      swap3\n      jump\t// out\n        /* \"#utility.yul\":2723:2973   */\n    tag_213:\n        /* \"#utility.yul\":2808:2809   */\n      0x00\n        /* \"#utility.yul\":2818:2931   */\n    tag_249:\n        /* \"#utility.yul\":2832:2838   */\n      dup4\n        /* \"#utility.yul\":2829:2830   */\n      dup2\n        /* \"#utility.yul\":2826:2839   */\n      lt\n        /* \"#utility.yul\":2818:2931   */\n      iszero\n      tag_251\n      jumpi\n        /* \"#utility.yul\":2908:2919   */\n      dup2\n      dup2\n      add\n        /* \"#utility.yul\":2902:2920   */\n      mload\n        /* \"#utility.yul\":2889:2900   */\n      dup4\n      dup3\n      add\n        /* \"#utility.yul\":2882:2921   */\n      mstore\n        /* \"#utility.yul\":2854:2856   */\n      0x20\n        /* \"#utility.yul\":2847:2857   */\n      add\n        /* \"#utility.yul\":2818:2931   */\n      jump(tag_249)\n    tag_251:\n      pop\n      pop\n        /* \"#utility.yul\":2965:2966   */\n      0x00\n        /* \"#utility.yul\":2947:2963   */\n      swap2\n      add\n        /* \"#utility.yul\":2940:2967   */\n      mstore\n        /* \"#utility.yul\":2723:2973   */\n      jump\t// out\n        /* \"#utility.yul\":2978:3308   */\n    tag_214:\n        /* \"#utility.yul\":3020:3023   */\n      0x00\n        /* \"#utility.yul\":3058:3063   */\n      dup2\n        /* \"#utility.yul\":3052:3064   */\n      mload\n        /* \"#utility.yul\":3085:3091   */\n      dup1\n        /* \"#utility.yul\":3080:3083   */\n      dup5\n        /* \"#utility.yul\":3073:3092   */\n      mstore\n        /* \"#utility.yul\":3101:3177   */\n      tag_253\n        /* \"#utility.yul\":3170:3176   */\n      dup2\n        /* \"#utility.yul\":3163:3167   */\n      0x20\n        /* \"#utility.yul\":3158:3161   */\n      dup7\n        /* \"#utility.yul\":3154:3168   */\n      add\n        /* \"#utility.yul\":3147:3151   */\n      0x20\n        /* \"#utility.yul\":3140:3145   */\n      dup7\n        /* \"#utility.yul\":3136:3152   */\n      add\n        /* \"#utility.yul\":3101:3177   */\n      tag_213\n      jump\t// in\n    tag_253:\n        /* \"#utility.yul\":3222:3224   */\n      0x1f\n        /* \"#utility.yul\":3210:3225   */\n      add\n        /* \"#utility.yul\":3227:3293   */\n      0xffffffffffffffffffffffffffffffffffffffffffffffffffffffffffffffe0\n        /* \"#utility.yul\":3206:3294   */\n      and\n        /* \"#utility.yul\":3197:3295   */\n      swap3\n      swap1\n      swap3\n      add\n        /* \"#utility.yul\":3297:3301   */\n      0x20\n        /* \"#utility.yul\":3193:3302   */\n      add\n      swap3\n        /* \"#utility.yul\":2978:3308   */\n      swap2\n      pop\n      pop\n      jump\t// out\n        /* \"#utility.yul\":3313:3533   */\n    tag_50:\n        /* \"#utility.yul\":3462:3464   */\n      0x20\n        /* \"#utility.yul\":3451:3460   */\n      dup2\n        /* \"#utility.yul\":3444:3465   */\n      mstore\n        /* \"#utility.yul\":3425:3429   */\n      0x00\n        /* \"#utility.yul\":3482:3527   */\n      tag_240\n        /* \"#utility.yul\":3523:3525   */\n      0x20\n        /* \"#utility.yul\":3512:3521   */\n      dup4\n        /* \"#utility.yul\":3508:3526   */\n      add\n        /* \"#utility.yul\":3500:3506   */\n      dup5\n        /* \"#utility.yul\":3482:3527   */\n      tag_214\n      jump\t// in\n        /* \"#utility.yul\":3538:3785   */\n    tag_59:\n        /* \"#utility.yul\":3597:3603   */\n      0x00\n        /* \"#utility.yul\":3650:3652   */\n      0x20\n        /* \"#utility.yul\":3638:3647   */\n      dup3\n        /* \"#utility.yul\":3629:3636   */\n      dup5\n        /* \"#utility.yul\":3625:3648   */\n      sub\n        /* \"#utility.yul\":3621:3653   */\n      slt\n        /* \"#utility.yul\":3618:3670   */\n      iszero\n      tag_257\n      jumpi\n        /* \"#utility.yul\":3666:3667   */\n      0x00\n        /* \"#utility.yul\":3663:3664   */\n      dup1\n        /* \"#utility.yul\":3656:3668   */\n      revert\n        /* \"#utility.yul\":3618:3670   */\n    tag_257:\n        /* \"#utility.yul\":3705:3714   */\n      dup2\n        /* \"#utility.yul\":3692:3715   */\n      calldataload\n        /* \"#utility.yul\":3724:3755   */\n      tag_240\n        /* \"#utility.yul\":3749:3754   */\n      dup2\n        /* \"#utility.yul\":3724:3755   */\n      tag_212\n      jump\t// in\n        /* \"#utility.yul\":3790:4652   */\n    tag_66:\n        /* \"#utility.yul\":3952:3956   */\n      0x00\n        /* \"#utility.yul\":3981:3983   */\n      0x20\n        /* \"#utility.yul\":4021:4023   */\n      dup1\n        /* \"#utility.yul\":4010:4019   */\n      dup4\n        /* \"#utility.yul\":4006:4024   */\n      add\n        /* \"#utility.yul\":4051:4053   */\n      dup2\n        /* \"#utility.yul\":4040:4049   */\n      dup5\n        /* \"#utility.yul\":4033:4054   */\n      mstore\n        /* \"#utility.yul\":4074:4080   */\n      dup1\n        /* \"#utility.yul\":4109:4115   */\n      dup6\n        /* \"#utility.yul\":4103:4116   */\n      mload\n        /* \"#utility.yul\":4140:4146   */\n      dup1\n        /* \"#utility.yul\":4132:4138   */\n      dup4\n        /* \"#utility.yul\":4125:4147   */\n      mstore\n        /* \"#utility.yul\":4178:4180   */\n      0x40\n        /* \"#utility.yul\":4167:4176   */\n      dup7\n        /* \"#utility.yul\":4163:4181   */\n      add\n        /* \"#utility.yul\":4156:4181   */\n      swap2\n      pop\n        /* \"#utility.yul\":4240:4242   */\n      0x40\n        /* \"#utility.yul\":4230:4236   */\n      dup2\n        /* \"#utility.yul\":4227:4228   */\n      0x05\n        /* \"#utility.yul\":4223:4237   */\n      shl\n        /* \"#utility.yul\":4212:4221   */\n      dup8\n        /* \"#utility.yul\":4208:4238   */\n      add\n        /* \"#utility.yul\":4204:4243   */\n      add\n        /* \"#utility.yul\":4190:4243   */\n      swap3\n      pop\n        /* \"#utility.yul\":4278:4280   */\n      dup4\n        /* \"#utility.yul\":4270:4276   */\n      dup8\n        /* \"#utility.yul\":4266:4281   */\n      add\n        /* \"#utility.yul\":4299:4300   */\n      0x00\n        /* \"#utility.yul\":4309:4623   */\n    tag_260:\n        /* \"#utility.yul\":4323:4329   */\n      dup3\n        /* \"#utility.yul\":4320:4321   */\n      dup2\n        /* \"#utility.yul\":4317:4330   */\n      lt\n        /* \"#utility.yul\":4309:4623   */\n      iszero\n      tag_262\n      jumpi\n        /* \"#utility.yul\":4412:4478   */\n      0xffffffffffffffffffffffffffffffffffffffffffffffffffffffffffffffc0\n        /* \"#utility.yul\":4400:4409   */\n      dup9\n        /* \"#utility.yul\":4392:4398   */\n      dup7\n        /* \"#utility.yul\":4388:4410   */\n      sub\n        /* \"#utility.yul\":4384:4479   */\n      add\n        /* \"#utility.yul\":4379:4382   */\n      dup5\n        /* \"#utility.yul\":4372:4480   */\n      mstore\n        /* \"#utility.yul\":4503:4543   */\n      tag_263\n        /* \"#utility.yul\":4536:4542   */\n      dup6\n        /* \"#utility.yul\":4527:4533   */\n      dup4\n        /* \"#utility.yul\":4521:4534   */\n      mload\n        /* \"#utility.yul\":4503:4543   */\n      tag_214\n      jump\t// in\n    tag_263:\n        /* \"#utility.yul\":4493:4543   */\n      swap5\n      pop\n        /* \"#utility.yul\":4601:4613   */\n      swap3\n      dup6\n      add\n      swap3\n        /* \"#utility.yul\":4566:4581   */\n      swap1\n      dup6\n      add\n      swap1\n        /* \"#utility.yul\":4345:4346   */\n      0x01\n        /* \"#utility.yul\":4338:4347   */\n      add\n        /* \"#utility.yul\":4309:4623   */\n      jump(tag_260)\n    tag_262:\n      pop\n        /* \"#utility.yul\":4640:4646   */\n      swap3\n      swap8\n        /* \"#utility.yul\":3790:4652   */\n      swap7\n      pop\n      pop\n      pop\n      pop\n      pop\n      pop\n      pop\n      jump\t// out\n        /* \"#utility.yul\":4888:5161   */\n    tag_79:\n        /* \"#utility.yul\":5073:5079   */\n      dup2\n        /* \"#utility.yul\":5065:5071   */\n      dup4\n        /* \"#utility.yul\":5060:5063   */\n      dup3\n        /* \"#utility.yul\":5047:5080   */\n      calldatacopy\n        /* \"#utility.yul\":5029:5032   */\n      0x00\n        /* \"#utility.yul\":5099:5115   */\n      swap2\n      add\n        /* \"#utility.yul\":5124:5137   */\n      swap1\n      dup2\n      mstore\n        /* \"#utility.yul\":5099:5115   */\n      swap2\n        /* \"#utility.yul\":4888:5161   */\n      swap1\n      pop\n      jump\t// out\n        /* \"#utility.yul\":5166:5417   */\n    tag_84:\n        /* \"#utility.yul\":5236:5242   */\n      0x00\n        /* \"#utility.yul\":5289:5291   */\n      0x20\n        /* \"#utility.yul\":5277:5286   */\n      dup3\n        /* \"#utility.yul\":5268:5275   */\n      dup5\n        /* \"#utility.yul\":5264:5287   */\n      sub\n        /* \"#utility.yul\":5260:5292   */\n      slt\n        /* \"#utility.yul\":5257:5309   */\n      iszero\n      tag_267\n      jumpi\n        /* \"#utility.yul\":5305:5306   */\n      0x00\n        /* \"#utility.yul\":5302:5303   */\n      dup1\n        /* \"#utility.yul\":5295:5307   */\n      revert\n        /* \"#utility.yul\":5257:5309   */\n    tag_267:\n        /* \"#utility.yul\":5337:5346   */\n      dup2\n        /* \"#utility.yul\":5331:5347   */\n      mload\n        /* \"#utility.yul\":5356:5387   */\n      tag_240\n        /* \"#utility.yul\":5381:5386   */\n      dup2\n        /* \"#utility.yul\":5356:5387   */\n      tag_212\n      jump\t// in\n        /* \"#utility.yul\":7013:7450   */\n    tag_186:\n        /* \"#utility.yul\":7092:7093   */\n      0x01\n        /* \"#utility.yul\":7088:7100   */\n      dup2\n      dup2\n      shr\n      swap1\n        /* \"#utility.yul\":7135:7147   */\n      dup3\n      and\n      dup1\n        /* \"#utility.yul\":7156:7217   */\n      tag_275\n      jumpi\n        /* \"#utility.yul\":7210:7214   */\n      0x7f\n        /* \"#utility.yul\":7202:7208   */\n      dup3\n        /* \"#utility.yul\":7198:7215   */\n      and\n        /* \"#utility.yul\":7188:7215   */\n      swap2\n      pop\n        /* \"#utility.yul\":7156:7217   */\n    tag_275:\n        /* \"#utility.yul\":7263:7265   */\n      0x20\n        /* \"#utility.yul\":7255:7261   */\n      dup3\n        /* \"#utility.yul\":7252:7266   */\n      lt\n        /* \"#utility.yul\":7232:7250   */\n      dup2\n        /* \"#utility.yul\":7229:7267   */\n      sub\n        /* \"#utility.yul\":7226:7444   */\n      tag_276\n      jumpi\n        /* \"#utility.yul\":7300:7377   */\n      0x4e487b7100000000000000000000000000000000000000000000000000000000\n        /* \"#utility.yul\":7297:7298   */\n      0x00\n        /* \"#utility.yul\":7290:7378   */\n      mstore\n        /* \"#utility.yul\":7401:7405   */\n      0x22\n        /* \"#utility.yul\":7398:7399   */\n      0x04\n        /* \"#utility.yul\":7391:7406   */\n      mstore\n        /* \"#utility.yul\":7429:7433   */\n      0x24\n        /* \"#utility.yul\":7426:7427   */\n      0x00\n        /* \"#utility.yul\":7419:7434   */\n      revert\n        /* \"#utility.yul\":7226:7444   */\n    tag_276:\n      pop\n        /* \"#utility.yul\":7013:7450   */\n      swap2\n      swap1\n      pop\n      jump\t// out\n        /* \"#utility.yul\":7581:8481   */\n    tag_122:\n        /* \"#utility.yul\":7709:7712   */\n      0x00\n        /* \"#utility.yul\":7738:7739   */\n      dup1\n        /* \"#utility.yul\":7771:7777   */\n      dup4\n        /* \"#utility.yul\":7765:7778   */\n      sload\n        /* \"#utility.yul\":7801:7837   */\n      tag_279\n        /* \"#utility.yul\":7827:7836   */\n      dup2\n        /* \"#utility.yul\":7801:7837   */\n      tag_186\n      jump\t// in\n    tag_279:\n        /* \"#utility.yul\":7856:7857   */\n      0x01\n        /* \"#utility.yul\":7873:7891   */\n      dup3\n      dup2\n      and\n        /* \"#utility.yul\":7900:8091   */\n      dup1\n      iszero\n      tag_281\n      jumpi\n        /* \"#utility.yul\":8105:8106   */\n      0x01\n        /* \"#utility.yul\":8100:8456   */\n      dup2\n      eq\n      tag_282\n      jumpi\n        /* \"#utility.yul\":7866:8456   */\n      jump(tag_280)\n        /* \"#utility.yul\":7900:8091   */\n    tag_281:\n        /* \"#utility.yul\":7948:8014   */\n      0xffffffffffffffffffffffffffffffffffffffffffffffffffffffffffffff00\n        /* \"#utility.yul\":7937:7946   */\n      dup5\n        /* \"#utility.yul\":7933:8015   */\n      and\n        /* \"#utility.yul\":7928:7931   */\n      dup8\n        /* \"#utility.yul\":7921:8016   */\n      mstore\n        /* \"#utility.yul\":8071:8077   */\n      dup3\n        /* \"#utility.yul\":8064:8078   */\n      iszero\n        /* \"#utility.yul\":8057:8079   */\n      iszero\n        /* \"#utility.yul\":8049:8055   */\n      dup4\n        /* \"#utility.yul\":8045:8080   */\n      mul\n        /* \"#utility.yul\":8040:8043   */\n      dup8\n        /* \"#utility.yul\":8036:8081   */\n      add\n        /* \"#utility.yul\":8029:8081   */\n      swap5\n      pop\n        /* \"#utility.yul\":7900:8091   */\n      jump(tag_280)\n        /* \"#utility.yul\":8100:8456   */\n    tag_282:\n        /* \"#utility.yul\":8131:8137   */\n      dup8\n        /* \"#utility.yul\":8128:8129   */\n      0x00\n        /* \"#utility.yul\":8121:8138   */\n      mstore\n        /* \"#utility.yul\":8161:8165   */\n      0x20\n        /* \"#utility.yul\":8206:8208   */\n      dup1\n        /* \"#utility.yul\":8203:8204   */\n      0x00\n        /* \"#utility.yul\":8193:8209   */\n      keccak256\n        /* \"#utility.yul\":8231:8232   */\n      0x00\n        /* \"#utility.yul\":8245:8410   */\n    tag_283:\n        /* \"#utility.yul\":8259:8265   */\n      dup6\n        /* \"#utility.yul\":8256:8257   */\n      dup2\n        /* \"#utility.yul\":8253:8266   */\n      lt\n        /* \"#utility.yul\":8245:8410   */\n      iszero\n      tag_285\n      jumpi\n        /* \"#utility.yul\":8337:8351   */\n      dup2\n      sload\n        /* \"#utility.yul\":8324:8335   */\n      dup11\n      dup3\n      add\n        /* \"#utility.yul\":8317:8352   */\n      mstore\n        /* \"#utility.yul\":8380:8396   */\n      swap1\n      dup5\n      add\n      swap1\n        /* \"#utility.yul\":8274:8284   */\n      dup3\n      add\n        /* \"#utility.yul\":8245:8410   */\n      jump(tag_283)\n    tag_285:\n        /* \"#utility.yul\":8249:8252   */\n      pop\n      pop\n      pop\n        /* \"#utility.yul\":8439:8445   */\n      dup3\n        /* \"#utility.yul\":8434:8437   */\n      dup8\n        /* \"#utility.yul\":8430:8446   */\n      add\n        /* \"#utility.yul\":8423:8446   */\n      swap5\n      pop\n        /* \"#utility.yul\":7866:8456   */\n    tag_280:\n      pop\n        /* \"#utility.yul\":8472:8475   */\n      swap3\n      swap7\n        /* \"#utility.yul\":7581:8481   */\n      swap6\n      pop\n      pop\n      pop\n      pop\n      pop\n      pop\n      jump\t// out\n        /* \"#utility.yul\":9178:9362   */\n    tag_216:\n        /* \"#utility.yul\":9230:9307   */\n      0x4e487b7100000000000000000000000000000000000000000000000000000000\n        /* \"#utility.yul\":9227:9228   */\n      0x00\n        /* \"#utility.yul\":9220:9308   */\n      mstore\n        /* \"#utility.yul\":9327:9331   */\n      0x41\n        /* \"#utility.yul\":9324:9325   */\n      0x04\n        /* \"#utility.yul\":9317:9332   */\n      mstore\n        /* \"#utility.yul\":9351:9355   */\n      0x24\n        /* \"#utility.yul\":9348:9349   */\n      0x00\n        /* \"#utility.yul\":9341:9356   */\n      revert\n        /* \"#utility.yul\":9367:10323   */\n    tag_132:\n        /* \"#utility.yul\":9447:9453   */\n      0x00\n        /* \"#utility.yul\":9500:9502   */\n      0x20\n        /* \"#utility.yul\":9488:9497   */\n      dup3\n        /* \"#utility.yul\":9479:9486   */\n      dup5\n        /* \"#utility.yul\":9475:9498   */\n      sub\n        /* \"#utility.yul\":9471:9503   */\n      slt\n        /* \"#utility.yul\":9468:9520   */\n      iszero\n      tag_290\n      jumpi\n        /* \"#utility.yul\":9516:9517   */\n      0x00\n        /* \"#utility.yul\":9513:9514   */\n      dup1\n        /* \"#utility.yul\":9506:9518   */\n      revert\n        /* \"#utility.yul\":9468:9520   */\n    tag_290:\n        /* \"#utility.yul\":9549:9558   */\n      dup2\n        /* \"#utility.yul\":9543:9559   */\n      mload\n        /* \"#utility.yul\":9578:9596   */\n      0xffffffffffffffff\n        /* \"#utility.yul\":9619:9621   */\n      dup1\n        /* \"#utility.yul\":9611:9617   */\n      dup3\n        /* \"#utility.yul\":9608:9622   */\n      gt\n        /* \"#utility.yul\":9605:9639   */\n      iszero\n      tag_291\n      jumpi\n        /* \"#utility.yul\":9635:9636   */\n      0x00\n        /* \"#utility.yul\":9632:9633   */\n      dup1\n        /* \"#utility.yul\":9625:9637   */\n      revert\n        /* \"#utility.yul\":9605:9639   */\n    tag_291:\n        /* \"#utility.yul\":9673:9679   */\n      dup2\n        /* \"#utility.yul\":9662:9671   */\n      dup5\n        /* \"#utility.yul\":9658:9680   */\n      add\n        /* \"#utility.yul\":9648:9680   */\n      swap2\n      pop\n        /* \"#utility.yul\":9718:9725   */\n      dup5\n        /* \"#utility.yul\":9711:9715   */\n      0x1f\n        /* \"#utility.yul\":9707:9709   */\n      dup4\n        /* \"#utility.yul\":9703:9716   */\n      add\n        /* \"#utility.yul\":9699:9726   */\n      slt\n        /* \"#utility.yul\":9689:9744   */\n      tag_292\n      jumpi\n        /* \"#utility.yul\":9740:9741   */\n      0x00\n        /* \"#utility.yul\":9737:9738   */\n      dup1\n        /* \"#utility.yul\":9730:9742   */\n      revert\n        /* \"#utility.yul\":9689:9744   */\n    tag_292:\n        /* \"#utility.yul\":9769:9771   */\n      dup2\n        /* \"#utility.yul\":9763:9772   */\n      mload\n        /* \"#utility.yul\":9791:9793   */\n      dup2\n        /* \"#utility.yul\":9787:9789   */\n      dup2\n        /* \"#utility.yul\":9784:9794   */\n      gt\n        /* \"#utility.yul\":9781:9817   */\n      iszero\n      tag_294\n      jumpi\n        /* \"#utility.yul\":9797:9815   */\n      tag_294\n      tag_216\n      jump\t// in\n    tag_294:\n        /* \"#utility.yul\":9931:9933   */\n      0x40\n        /* \"#utility.yul\":9925:9934   */\n      mload\n        /* \"#utility.yul\":9993:9997   */\n      0x1f\n        /* \"#utility.yul\":9985:9998   */\n      dup3\n      add\n        /* \"#utility.yul\":9836:9902   */\n      0xffffffffffffffffffffffffffffffffffffffffffffffffffffffffffffffe0\n        /* \"#utility.yul\":9981:10003   */\n      swap1\n      dup2\n      and\n        /* \"#utility.yul\":10005:10007   */\n      0x3f\n        /* \"#utility.yul\":9977:10008   */\n      add\n        /* \"#utility.yul\":9973:10013   */\n      and\n        /* \"#utility.yul\":9961:10014   */\n      dup2\n      add\n      swap1\n        /* \"#utility.yul\":10029:10047   */\n      dup4\n      dup3\n      gt\n        /* \"#utility.yul\":10049:10071   */\n      dup2\n      dup4\n      lt\n        /* \"#utility.yul\":10026:10072   */\n      or\n        /* \"#utility.yul\":10023:10095   */\n      iszero\n      tag_296\n      jumpi\n        /* \"#utility.yul\":10075:10093   */\n      tag_296\n      tag_216\n      jump\t// in\n    tag_296:\n        /* \"#utility.yul\":10115:10125   */\n      dup2\n        /* \"#utility.yul\":10111:10113   */\n      0x40\n        /* \"#utility.yul\":10104:10126   */\n      mstore\n        /* \"#utility.yul\":10150:10152   */\n      dup3\n        /* \"#utility.yul\":10142:10148   */\n      dup2\n        /* \"#utility.yul\":10135:10153   */\n      mstore\n        /* \"#utility.yul\":10190:10197   */\n      dup8\n        /* \"#utility.yul\":10185:10187   */\n      0x20\n        /* \"#utility.yul\":10180:10182   */\n      dup5\n        /* \"#utility.yul\":10176:10178   */\n      dup8\n        /* \"#utility.yul\":10172:10183   */\n      add\n        /* \"#utility.yul\":10168:10188   */\n      add\n        /* \"#utility.yul\":10165:10198   */\n      gt\n        /* \"#utility.yul\":10162:10215   */\n      iszero\n      tag_297\n      jumpi\n        /* \"#utility.yul\":10211:10212   */\n      0x00\n        /* \"#utility.yul\":10208:10209   */\n      dup1\n        /* \"#utility.yul\":10201:10213   */\n      revert\n        /* \"#utility.yul\":10162:10215   */\n    tag_297:\n        /* \"#utility.yul\":10224:10292   */\n      tag_298\n        /* \"#utility.yul\":10289:10291   */\n      dup4\n        /* \"#utility.yul\":10284:10286   */\n      0x20\n        /* \"#utility.yul\":10276:10282   */\n      dup4\n        /* \"#utility.yul\":10272:10287   */\n      add\n        /* \"#utility.yul\":10267:10269   */\n      0x20\n        /* \"#utility.yul\":10263:10265   */\n      dup9\n        /* \"#utility.yul\":10259:10270   */\n      add\n        /* \"#utility.yul\":10224:10292   */\n      tag_213\n      jump\t// in\n    tag_298:\n        /* \"#utility.yul\":10311:10317   */\n      swap8\n        /* \"#utility.yul\":9367:10323   */\n      swap7\n      pop\n      pop\n      pop\n      pop\n      pop\n      pop\n      pop\n      jump\t// out\n        /* \"#utility.yul\":10328:10617   */\n    tag_134:\n        /* \"#utility.yul\":10459:10462   */\n      0x00\n        /* \"#utility.yul\":10497:10503   */\n      dup3\n        /* \"#utility.yul\":10491:10504   */\n      mload\n        /* \"#utility.yul\":10513:10579   */\n      tag_300\n        /* \"#utility.yul\":10572:10578   */\n      dup2\n        /* \"#utility.yul\":10567:10570   */\n      dup5\n        /* \"#utility.yul\":10560:10564   */\n      0x20\n        /* \"#utility.yul\":10552:10558   */\n      dup8\n        /* \"#utility.yul\":10548:10565   */\n      add\n        /* \"#utility.yul\":10513:10579   */\n      tag_213\n      jump\t// in\n    tag_300:\n        /* \"#utility.yul\":10595:10611   */\n      swap2\n      swap1\n      swap2\n      add\n      swap3\n        /* \"#utility.yul\":10328:10617   */\n      swap2\n      pop\n      pop\n      jump\t// out\n        /* \"#utility.yul\":10966:11511   */\n    tag_217:\n        /* \"#utility.yul\":11068:11070   */\n      0x1f\n        /* \"#utility.yul\":11063:11066   */\n      dup3\n        /* \"#utility.yul\":11060:11071   */\n      gt\n        /* \"#utility.yul\":11057:11505   */\n      iszero\n      tag_303\n      jumpi\n        /* \"#utility.yul\":11104:11105   */\n      0x00\n        /* \"#utility.yul\":11129:11134   */\n      dup2\n        /* \"#utility.yul\":11125:11127   */\n      dup2\n        /* \"#utility.yul\":11118:11135   */\n      mstore\n        /* \"#utility.yul\":11174:11178   */\n      0x20\n        /* \"#utility.yul\":11170:11172   */\n      dup2\n        /* \"#utility.yul\":11160:11179   */\n      keccak256\n        /* \"#utility.yul\":11244:11246   */\n      0x1f\n        /* \"#utility.yul\":11232:11242   */\n      dup6\n        /* \"#utility.yul\":11228:11247   */\n      add\n        /* \"#utility.yul\":11225:11226   */\n      0x05\n        /* \"#utility.yul\":11221:11248   */\n      shr\n        /* \"#utility.yul\":11215:11219   */\n      dup2\n        /* \"#utility.yul\":11211:11249   */\n      add\n        /* \"#utility.yul\":11280:11284   */\n      0x20\n        /* \"#utility.yul\":11268:11278   */\n      dup7\n        /* \"#utility.yul\":11265:11285   */\n      lt\n        /* \"#utility.yul\":11262:11309   */\n      iszero\n      tag_304\n      jumpi\n      pop\n        /* \"#utility.yul\":11303:11307   */\n      dup1\n        /* \"#utility.yul\":11262:11309   */\n    tag_304:\n        /* \"#utility.yul\":11358:11360   */\n      0x1f\n        /* \"#utility.yul\":11353:11356   */\n      dup6\n        /* \"#utility.yul\":11349:11361   */\n      add\n        /* \"#utility.yul\":11346:11347   */\n      0x05\n        /* \"#utility.yul\":11342:11362   */\n      shr\n        /* \"#utility.yul\":11336:11340   */\n      dup3\n        /* \"#utility.yul\":11332:11363   */\n      add\n        /* \"#utility.yul\":11322:11363   */\n      swap2\n      pop\n        /* \"#utility.yul\":11413:11495   */\n    tag_305:\n        /* \"#utility.yul\":11431:11433   */\n      dup2\n        /* \"#utility.yul\":11424:11429   */\n      dup2\n        /* \"#utility.yul\":11421:11434   */\n      lt\n        /* \"#utility.yul\":11413:11495   */\n      iszero\n      tag_307\n      jumpi\n        /* \"#utility.yul\":11476:11493   */\n      dup3\n      dup2\n      sstore\n        /* \"#utility.yul\":11457:11458   */\n      0x01\n        /* \"#utility.yul\":11446:11459   */\n      add\n        /* \"#utility.yul\":11413:11495   */\n      jump(tag_305)\n    tag_307:\n        /* \"#utility.yul\":11417:11420   */\n      pop\n      pop\n      pop\n        /* \"#utility.yul\":11057:11505   */\n    tag_303:\n        /* \"#utility.yul\":10966:11511   */\n      pop\n      pop\n      pop\n      jump\t// out\n        /* \"#utility.yul\":11747:13072   */\n    tag_141:\n        /* \"#utility.yul\":11871:11889   */\n      0xffffffffffffffff\n        /* \"#utility.yul\":11866:11869   */\n      dup4\n        /* \"#utility.yul\":11863:11890   */\n      gt\n        /* \"#utility.yul\":11860:11913   */\n      iszero\n      tag_311\n      jumpi\n        /* \"#utility.yul\":11893:11911   */\n      tag_311\n      tag_216\n      jump\t// in\n    tag_311:\n        /* \"#utility.yul\":11922:12016   */\n      tag_312\n        /* \"#utility.yul\":12012:12015   */\n      dup4\n        /* \"#utility.yul\":11972:12010   */\n      tag_313\n        /* \"#utility.yul\":12004:12008   */\n      dup4\n        /* \"#utility.yul\":11998:12009   */\n      sload\n        /* \"#utility.yul\":11972:12010   */\n      tag_186\n      jump\t// in\n    tag_313:\n        /* \"#utility.yul\":11966:11970   */\n      dup4\n        /* \"#utility.yul\":11922:12016   */\n      tag_217\n      jump\t// in\n    tag_312:\n        /* \"#utility.yul\":12042:12043   */\n      0x00\n        /* \"#utility.yul\":12067:12069   */\n      0x1f\n        /* \"#utility.yul\":12062:12065   */\n      dup5\n        /* \"#utility.yul\":12059:12070   */\n      gt\n        /* \"#utility.yul\":12084:12085   */\n      0x01\n        /* \"#utility.yul\":12079:12814   */\n      dup2\n      eq\n      tag_315\n      jumpi\n        /* \"#utility.yul\":12858:12859   */\n      0x00\n        /* \"#utility.yul\":12875:12878   */\n      dup6\n        /* \"#utility.yul\":12872:12965   */\n      iszero\n      tag_316\n      jumpi\n      pop\n        /* \"#utility.yul\":12931:12950   */\n      dup4\n      dup3\n      add\n        /* \"#utility.yul\":12918:12951   */\n      calldataload\n        /* \"#utility.yul\":12872:12965   */\n    tag_316:\n        /* \"#utility.yul\":11653:11719   */\n      0xffffffffffffffffffffffffffffffffffffffffffffffffffffffffffffffff\n        /* \"#utility.yul\":11644:11645   */\n      0x03\n        /* \"#utility.yul\":11640:11651   */\n      dup8\n      swap1\n      shl\n        /* \"#utility.yul\":11636:11720   */\n      shr\n        /* \"#utility.yul\":11632:11721   */\n      not\n        /* \"#utility.yul\":11622:11722   */\n      and\n        /* \"#utility.yul\":11728:11729   */\n      0x01\n        /* \"#utility.yul\":11724:11735   */\n      dup7\n      swap1\n      shl\n        /* \"#utility.yul\":11619:11736   */\n      or\n        /* \"#utility.yul\":12978:13056   */\n      dup4\n      sstore\n        /* \"#utility.yul\":12052:13066   */\n      jump(tag_314)\n        /* \"#utility.yul\":12079:12814   */\n    tag_315:\n        /* \"#utility.yul\":7528:7529   */\n      0x00\n        /* \"#utility.yul\":7521:7535   */\n      dup4\n      dup2\n      mstore\n        /* \"#utility.yul\":7565:7569   */\n      0x20\n        /* \"#utility.yul\":7552:7570   */\n      swap1\n      keccak256\n        /* \"#utility.yul\":12124:12190   */\n      0xffffffffffffffffffffffffffffffffffffffffffffffffffffffffffffffe0\n        /* \"#utility.yul\":12115:12191   */\n      dup7\n      and\n      swap1\n        /* \"#utility.yul\":12275:12284   */\n      dup4\n        /* \"#utility.yul\":12297:12526   */\n    tag_319:\n        /* \"#utility.yul\":12311:12318   */\n      dup3\n        /* \"#utility.yul\":12308:12309   */\n      dup2\n        /* \"#utility.yul\":12305:12319   */\n      lt\n        /* \"#utility.yul\":12297:12526   */\n      iszero\n      tag_321\n      jumpi\n        /* \"#utility.yul\":12400:12419   */\n      dup7\n      dup6\n      add\n        /* \"#utility.yul\":12387:12420   */\n      calldataload\n        /* \"#utility.yul\":12372:12421   */\n      dup3\n      sstore\n        /* \"#utility.yul\":12507:12511   */\n      0x20\n        /* \"#utility.yul\":12492:12512   */\n      swap5\n      dup6\n      add\n      swap5\n        /* \"#utility.yul\":12460:12461   */\n      0x01\n        /* \"#utility.yul\":12448:12462   */\n      swap1\n      swap3\n      add\n      swap2\n        /* \"#utility.yul\":12327:12339   */\n      add\n        /* \"#utility.yul\":12297:12526   */\n      jump(tag_319)\n    tag_321:\n        /* \"#utility.yul\":12301:12304   */\n      pop\n        /* \"#utility.yul\":12554:12557   */\n      dup7\n        /* \"#utility.yul\":12545:12552   */\n      dup3\n        /* \"#utility.yul\":12542:12558   */\n      lt\n        /* \"#utility.yul\":12539:12758   */\n      iszero\n      tag_322\n      jumpi\n        /* \"#utility.yul\":12674:12740   */\n      0xffffffffffffffffffffffffffffffffffffffffffffffffffffffffffffffff\n        /* \"#utility.yul\":12668:12671   */\n      0xf8\n        /* \"#utility.yul\":12662:12665   */\n      dup9\n        /* \"#utility.yul\":12659:12660   */\n      0x03\n        /* \"#utility.yul\":12655:12666   */\n      shl\n        /* \"#utility.yul\":12651:12672   */\n      and\n        /* \"#utility.yul\":12647:12741   */\n      shr\n        /* \"#utility.yul\":12643:12742   */\n      not\n        /* \"#utility.yul\":12630:12639   */\n      dup5\n        /* \"#utility.yul\":12625:12628   */\n      dup8\n        /* \"#utility.yul\":12621:12640   */\n      add\n        /* \"#utility.yul\":12608:12641   */\n      calldataload\n        /* \"#utility.yul\":12604:12743   */\n      and\n        /* \"#utility.yul\":12596:12602   */\n      dup2\n        /* \"#utility.yul\":12589:12744   */\n      sstore\n        /* \"#utility.yul\":12539:12758   */\n    tag_322:\n      pop\n      pop\n        /* \"#utility.yul\":12801:12802   */\n      0x01\n        /* \"#utility.yul\":12795:12798   */\n      dup6\n        /* \"#utility.yul\":12792:12793   */\n      0x01\n        /* \"#utility.yul\":12788:12799   */\n      shl\n        /* \"#utility.yul\":12784:12803   */\n      add\n        /* \"#utility.yul\":12778:12782   */\n      dup4\n        /* \"#utility.yul\":12771:12804   */\n      sstore\n        /* \"#utility.yul\":12052:13066   */\n    tag_314:\n      pop\n      pop\n        /* \"#utility.yul\":11747:13072   */\n      pop\n      pop\n      pop\n      jump\t// out\n        /* \"#utility.yul\":13077:13261   */\n    tag_162:\n        /* \"#utility.yul\":13129:13206   */\n      0x4e487b7100000000000000000000000000000000000000000000000000000000\n        /* \"#utility.yul\":13126:13127   */\n      0x00\n        /* \"#utility.yul\":13119:13207   */\n      mstore\n        /* \"#utility.yul\":13226:13230   */\n      0x32\n        /* \"#utility.yul\":13223:13224   */\n      0x04\n        /* \"#utility.yul\":13216:13231   */\n      mstore\n        /* \"#utility.yul\":13250:13254   */\n      0x24\n        /* \"#utility.yul\":13247:13248   */\n      0x00\n        /* \"#utility.yul\":13240:13255   */\n      revert\n        /* \"#utility.yul\":13266:13450   */\n    tag_219:\n        /* \"#utility.yul\":13318:13395   */\n      0x4e487b7100000000000000000000000000000000000000000000000000000000\n        /* \"#utility.yul\":13315:13316   */\n      0x00\n        /* \"#utility.yul\":13308:13396   */\n      mstore\n        /* \"#utility.yul\":13415:13419   */\n      0x11\n        /* \"#utility.yul\":13412:13413   */\n      0x04\n        /* \"#utility.yul\":13405:13420   */\n      mstore\n        /* \"#utility.yul\":13439:13443   */\n      0x24\n        /* \"#utility.yul\":13436:13437   */\n      0x00\n        /* \"#utility.yul\":13429:13444   */\n      revert\n        /* \"#utility.yul\":13455:13583   */\n    tag_168:\n        /* \"#utility.yul\":13522:13531   */\n      dup2\n      dup2\n      sub\n        /* \"#utility.yul\":13543:13554   */\n      dup2\n      dup2\n      gt\n        /* \"#utility.yul\":13540:13577   */\n      iszero\n      tag_77\n      jumpi\n        /* \"#utility.yul\":13557:13575   */\n      tag_77\n      tag_219\n      jump\t// in\n        /* \"#utility.yul\":13588:15142   */\n    tag_176:\n        /* \"#utility.yul\":13707:13710   */\n      dup2\n        /* \"#utility.yul\":13701:13705   */\n      dup2\n        /* \"#utility.yul\":13698:13711   */\n      sub\n        /* \"#utility.yul\":13695:13721   */\n      tag_329\n      jumpi\n        /* \"#utility.yul\":13714:13719   */\n      pop\n      pop\n        /* \"#utility.yul\":13588:15142   */\n      jump\t// out\n        /* \"#utility.yul\":13695:13721   */\n    tag_329:\n        /* \"#utility.yul\":13744:13781   */\n      tag_330\n        /* \"#utility.yul\":13776:13779   */\n      dup3\n        /* \"#utility.yul\":13770:13780   */\n      sload\n        /* \"#utility.yul\":13744:13781   */\n      tag_186\n      jump\t// in\n    tag_330:\n        /* \"#utility.yul\":13804:13822   */\n      0xffffffffffffffff\n        /* \"#utility.yul\":13796:13802   */\n      dup2\n        /* \"#utility.yul\":13793:13823   */\n      gt\n        /* \"#utility.yul\":13790:13846   */\n      iszero\n      tag_332\n      jumpi\n        /* \"#utility.yul\":13826:13844   */\n      tag_332\n      tag_216\n      jump\t// in\n    tag_332:\n        /* \"#utility.yul\":13855:13952   */\n      tag_333\n        /* \"#utility.yul\":13945:13951   */\n      dup2\n        /* \"#utility.yul\":13905:13943   */\n      tag_334\n        /* \"#utility.yul\":13937:13941   */\n      dup5\n        /* \"#utility.yul\":13931:13942   */\n      sload\n        /* \"#utility.yul\":13905:13943   */\n      tag_186\n      jump\t// in\n    tag_334:\n        /* \"#utility.yul\":13899:13903   */\n      dup5\n        /* \"#utility.yul\":13855:13952   */\n      tag_217\n      jump\t// in\n    tag_333:\n        /* \"#utility.yul\":13978:13979   */\n      0x00\n        /* \"#utility.yul\":14006:14008   */\n      0x1f\n        /* \"#utility.yul\":13998:14004   */\n      dup3\n        /* \"#utility.yul\":13995:14009   */\n      gt\n        /* \"#utility.yul\":14023:14024   */\n      0x01\n        /* \"#utility.yul\":14018:14885   */\n      dup2\n      eq\n      tag_336\n      jumpi\n        /* \"#utility.yul\":14929:14930   */\n      0x00\n        /* \"#utility.yul\":14946:14952   */\n      dup4\n        /* \"#utility.yul\":14943:15032   */\n      iszero\n      tag_337\n      jumpi\n      pop\n        /* \"#utility.yul\":14998:15017   */\n      dup5\n      dup3\n      add\n        /* \"#utility.yul\":14992:15018   */\n      sload\n        /* \"#utility.yul\":14943:15032   */\n    tag_337:\n        /* \"#utility.yul\":11653:11719   */\n      0xffffffffffffffffffffffffffffffffffffffffffffffffffffffffffffffff\n        /* \"#utility.yul\":11644:11645   */\n      0x03\n        /* \"#utility.yul\":11640:11651   */\n      dup6\n      swap1\n      shl\n        /* \"#utility.yul\":11636:11720   */\n      shr\n        /* \"#utility.yul\":11632:11721   */\n      not\n        /* \"#utility.yul\":11622:11722   */\n      and\n        /* \"#utility.yul\":11728:11729   */\n      0x01\n        /* \"#utility.yul\":11724:11735   */\n      dup5\n      swap1\n      shl\n        /* \"#utility.yul\":11619:11736   */\n      or\n        /* \"#utility.yul\":15045:15126   */\n      dup5\n      sstore\n        /* \"#utility.yul\":13988:15136   */\n      jump(tag_314)\n        /* \"#utility.yul\":14018:14885   */\n    tag_336:\n        /* \"#utility.yul\":7528:7529   */\n      0x00\n        /* \"#utility.yul\":7521:7535   */\n      dup6\n      dup2\n      mstore\n        /* \"#utility.yul\":7565:7569   */\n      0x20\n        /* \"#utility.yul\":7552:7570   */\n      swap1\n      keccak256\n        /* \"#utility.yul\":14066:14132   */\n      0xffffffffffffffffffffffffffffffffffffffffffffffffffffffffffffffe0\n        /* \"#utility.yul\":14054:14133   */\n      dup5\n      and\n      swap1\n        /* \"#utility.yul\":7528:7529   */\n      0x00\n        /* \"#utility.yul\":7521:7535   */\n      dup7\n      dup2\n      mstore\n        /* \"#utility.yul\":7565:7569   */\n      0x20\n        /* \"#utility.yul\":7552:7570   */\n      swap1\n      keccak256\n        /* \"#utility.yul\":14277:14286   */\n      dup5\n        /* \"#utility.yul\":14299:14550   */\n    tag_341:\n        /* \"#utility.yul\":14313:14320   */\n      dup4\n        /* \"#utility.yul\":14310:14311   */\n      dup2\n        /* \"#utility.yul\":14307:14321   */\n      lt\n        /* \"#utility.yul\":14299:14550   */\n      iszero\n      tag_343\n      jumpi\n        /* \"#utility.yul\":14395:14416   */\n      dup3\n      dup7\n      add\n        /* \"#utility.yul\":14389:14417   */\n      sload\n        /* \"#utility.yul\":14374:14418   */\n      dup3\n      sstore\n        /* \"#utility.yul\":14445:14446   */\n      0x01\n        /* \"#utility.yul\":14518:14536   */\n      swap6\n      dup7\n      add\n      swap6\n        /* \"#utility.yul\":14473:14488   */\n      swap1\n      swap2\n      add\n      swap1\n        /* \"#utility.yul\":14336:14340   */\n      0x20\n        /* \"#utility.yul\":14329:14341   */\n      add\n        /* \"#utility.yul\":14299:14550   */\n      jump(tag_341)\n    tag_343:\n        /* \"#utility.yul\":14303:14306   */\n      pop\n        /* \"#utility.yul\":14578:14584   */\n      dup6\n        /* \"#utility.yul\":14569:14576   */\n      dup4\n        /* \"#utility.yul\":14566:14585   */\n      lt\n        /* \"#utility.yul\":14563:14826   */\n      iszero\n      tag_344\n      jumpi\n        /* \"#utility.yul\":14639:14660   */\n      dup2\n      dup6\n      add\n        /* \"#utility.yul\":14633:14661   */\n      sload\n        /* \"#utility.yul\":14742:14808   */\n      0xffffffffffffffffffffffffffffffffffffffffffffffffffffffffffffffff\n        /* \"#utility.yul\":14724:14725   */\n      0x03\n        /* \"#utility.yul\":14720:14734   */\n      dup9\n      swap1\n      shl\n        /* \"#utility.yul\":14736:14739   */\n      0xf8\n        /* \"#utility.yul\":14716:14740   */\n      and\n        /* \"#utility.yul\":14712:14809   */\n      shr\n        /* \"#utility.yul\":14708:14810   */\n      not\n        /* \"#utility.yul\":14693:14811   */\n      and\n        /* \"#utility.yul\":14678:14812   */\n      dup2\n      sstore\n        /* \"#utility.yul\":14563:14826   */\n    tag_344:\n      pop\n      pop\n      pop\n      pop\n      pop\n        /* \"#utility.yul\":14872:14873   */\n      0x01\n        /* \"#utility.yul\":14856:14870   */\n      swap1\n      dup2\n      shl\n        /* \"#utility.yul\":14852:14874   */\n      add\n        /* \"#utility.yul\":14839:14875   */\n      swap1\n      sstore\n      pop\n        /* \"#utility.yul\":13588:15142   */\n      jump\t// out\n        /* \"#utility.yul\":15147:15342   */\n    tag_178:\n        /* \"#utility.yul\":15186:15189   */\n      0x00\n        /* \"#utility.yul\":15217:15283   */\n      0xffffffffffffffffffffffffffffffffffffffffffffffffffffffffffffffff\n        /* \"#utility.yul\":15210:15215   */\n      dup3\n        /* \"#utility.yul\":15207:15284   */\n      sub\n        /* \"#utility.yul\":15204:15307   */\n      tag_347\n      jumpi\n        /* \"#utility.yul\":15287:15305   */\n      tag_347\n      tag_219\n      jump\t// in\n    tag_347:\n      pop\n        /* \"#utility.yul\":15334:15335   */\n      0x01\n        /* \"#utility.yul\":15323:15336   */\n      add\n      swap1\n        /* \"#utility.yul\":15147:15342   */\n      jump\t// out\n        /* \"#utility.yul\":15347:15531   */\n    tag_181:\n        /* \"#utility.yul\":15399:15476   */\n      0x4e487b7100000000000000000000000000000000000000000000000000000000\n        /* \"#utility.yul\":15396:15397   */\n      0x00\n        /* \"#utility.yul\":15389:15477   */\n      mstore\n        /* \"#utility.yul\":15496:15500   */\n      0x31\n        /* \"#utility.yul\":15493:15494   */\n      0x04\n        /* \"#utility.yul\":15486:15501   */\n      mstore\n        /* \"#utility.yul\":15520:15524   */\n      0x24\n        /* \"#utility.yul\":15517:15518   */\n      0x00\n        /* \"#utility.yul\":15510:15525   */\n      revert\n\n    auxdata: 0xa2646970667358221220b9e27eae382a0529901c0239ee7a7fae89ff73544844b00aaca975641802899164736f6c63430008120033\n}\n",
				"bytecode": {
					"linkReferences": {},
					"object": "60a060405234801561001057600080fd5b507372ec1287ff5bb960fd54ac2adae99145153c561f6001600160a01b031663ee5503d06040518163ffffffff1660e01b8152600401602060405180830381865afa158015610063573d6000803e3d6000fd5b505050506040513d601f19601f8201168201806040525081019061008791906100b5565b6001600160a01b031660808190526000908152600360205260409020805462ffffff191660c81790556100e5565b6000602082840312156100c757600080fd5b81516001600160a01b03811681146100de57600080fd5b9392505050565b608051611c2b6101076000396000818161026701526107630152611c2b6000f3fe6080604052600436106100a95760003560e01c80638e9497d211610063578063d99699df1161004b578063d99699df146101f1578063da240f1e14610213578063e43dd4881461025857005b80638e9497d2146101b1578063a56c56c3146101d157005b80636010ab49116100915780636010ab491461011b5780636080e7ff1461013b5780638052474d1461015b57005b80631727de4e146100b257806355a90e8d146100eb57005b366100b057005b005b3480156100be57600080fd5b506100d26100cd3660046113f0565b6102b5565b60405162ffffff90911681526020015b60405180910390f35b3480156100f757600080fd5b5061010b610106366004611445565b610311565b60405190151581526020016100e2565b34801561012757600080fd5b5061010b610136366004611499565b6105d7565b34801561014757600080fd5b5061010b6101563660046114dd565b610813565b34801561016757600080fd5b506101a46040518060400160405280601381526020017f2e5061796d656e742e43757272656e636965730000000000000000000000000081525081565b6040516100e291906115a2565b3480156101bd57600080fd5b5061010b6101cc3660046113f0565b610da0565b3480156101dd57600080fd5b506101a46101ec3660046115b5565b61117d565b3480156101fd57600080fd5b50610206611236565b6040516100e291906115d2565b34801561021f57600080fd5b5061023361022e3660046113f0565b61130f565b60405173ffffffffffffffffffffffffffffffffffffffff90911681526020016100e2565b34801561026457600080fd5b507f000000000000000000000000000000000000000000000000000000000000000073ffffffffffffffffffffffffffffffffffffffff1660009081526003602052604090205462ffffff166100d2565b600060036000600185856040516102cd929190611652565b90815260408051602092819003830190205473ffffffffffffffffffffffffffffffffffffffff16835290820192909252016000205462ffffff1690505b92915050565b60003373ffffffffffffffffffffffffffffffffffffffff167372ec1287ff5bb960fd54ac2adae99145153c561f73ffffffffffffffffffffffffffffffffffffffff16630ae50a396040518163ffffffff1660e01b8152600401602060405180830381865afa158015610389573d6000803e3d6000fd5b505050506040513d601f19601f820116820180604052508101906103ad9190611662565b73ffffffffffffffffffffffffffffffffffffffff161461042f576040517f08c379a000000000000000000000000000000000000000000000000000000000815260206004820152600a60248201527f4f776e6572206f6e6c790000000000000000000000000000000000000000000060448201526064015b60405180910390fd5b600060018585604051610443929190611652565b9081526040519081900360200190205473ffffffffffffffffffffffffffffffffffffffff169050806104d2576040517f08c379a000000000000000000000000000000000000000000000000000000000815260206004820152600f60248201527f53796d626f6c206e6f74207573656400000000000000000000000000000000006044820152606401610426565b6127108362ffffff161115610543576040517f08c379a000000000000000000000000000000000000000000000000000000000815260206004820152601460248201527f4578636565646564206d6178696d756d206665650000000000000000000000006044820152606401610426565b73ffffffffffffffffffffffffffffffffffffffff811660008181526003602090815260409182902080547fffffffffffffffffffffffffffffffffffffffffffffffffffffffffff0000001662ffffff881690811790915591519182527f03186a7764ede3bf12e0885d5369c46a7acc81b2f03797beb8e84a659d29fb16910160405180910390a2506001949350505050565b60003373ffffffffffffffffffffffffffffffffffffffff167372ec1287ff5bb960fd54ac2adae99145153c561f73ffffffffffffffffffffffffffffffffffffffff16630ae50a396040518163ffffffff1660e01b8152600401602060405180830381865afa15801561064f573d6000803e3d6000fd5b505050506040513d601f19601f820116820180604052508101906106739190611662565b73ffffffffffffffffffffffffffffffffffffffff16146106f0576040517f08c379a000000000000000000000000000000000000000000000000000000000815260206004820152600a60248201527f4f776e6572206f6e6c79000000000000000000000000000000000000000000006044820152606401610426565b6127108262ffffff161115610761576040517f08c379a000000000000000000000000000000000000000000000000000000000815260206004820152601460248201527f4578636565646564206d6178696d756d206665650000000000000000000000006044820152606401610426565b7f000000000000000000000000000000000000000000000000000000000000000073ffffffffffffffffffffffffffffffffffffffff1660008181526003602090815260409182902080547fffffffffffffffffffffffffffffffffffffffffffffffffffffffffff0000001662ffffff871690811790915591519182527f03186a7764ede3bf12e0885d5369c46a7acc81b2f03797beb8e84a659d29fb16910160405180910390a25060015b919050565b60003373ffffffffffffffffffffffffffffffffffffffff167372ec1287ff5bb960fd54ac2adae99145153c561f73ffffffffffffffffffffffffffffffffffffffff16630ae50a396040518163ffffffff1660e01b8152600401602060405180830381865afa15801561088b573d6000803e3d6000fd5b505050506040513d601f19601f820116820180604052508101906108af9190611662565b73ffffffffffffffffffffffffffffffffffffffff161461092c576040517f08c379a000000000000000000000000000000000000000000000000000000000815260206004820152600a60248201527f4f776e6572206f6e6c79000000000000000000000000000000000000000000006044820152606401610426565b600060018585604051610940929190611652565b9081526040519081900360200190205473ffffffffffffffffffffffffffffffffffffffff16905080156109d0576040517f08c379a000000000000000000000000000000000000000000000000000000000815260206004820152601360248201527f53796d626f6c20616c72656164792075736564000000000000000000000000006044820152606401610426565b60408051600080825260208083018085528351902073ffffffffffffffffffffffffffffffffffffffff881683526002909152908390209092610a1392016116d2565b6040516020818303038152906040528051906020012014610a90576040517f08c379a000000000000000000000000000000000000000000000000000000000815260206004820152601460248201527f4164647265737320616c726561647920757365640000000000000000000000006044820152606401610426565b823b63ffffffff8116600003610b02576040517f08c379a000000000000000000000000000000000000000000000000000000000815260206004820152600e60248201527f4e6f74206120636f6e74726163740000000000000000000000000000000000006044820152606401610426565b60008473ffffffffffffffffffffffffffffffffffffffff166395d89b416040518163ffffffff1660e01b8152600401600060405180830381865afa158015610b4f573d6000803e3d6000fd5b505050506040513d6000823e601f3d9081017fffffffffffffffffffffffffffffffffffffffffffffffffffffffffffffffe0168201604052610b959190810190611795565b905080604051602001610ba89190611860565b604051602081830303815290604052805190602001208787604051602001610bd1929190611652565b6040516020818303038152906040528051906020012014610c4e576040517f08c379a000000000000000000000000000000000000000000000000000000000815260206004820152600f60248201527f53796d626f6c206d69736d6174636800000000000000000000000000000000006044820152606401610426565b8460018888604051610c61929190611652565b908152604080516020928190038301902080547fffffffffffffffffffffffff00000000000000000000000000000000000000001673ffffffffffffffffffffffffffffffffffffffff9485161790559187166000908152600290915220610cca8789836118cb565b5073ffffffffffffffffffffffffffffffffffffffff8516600090815260036020526040812080547fffffffffffffffffffffffffffffffffffffffffffffffffffffffffff0000001660dc17905580546001810182559080527f290decd9548b62a8d60345a988386fc84ba6bc95484008f6362f93160ef3e56301610d518789836118cb565b5060405173ffffffffffffffffffffffffffffffffffffffff8416907f2014b559c1ee999c8f4c928818d91e9e88aa4e2cceeaec16156472ab9e1c9adc90600090a25060019695505050505050565b60003373ffffffffffffffffffffffffffffffffffffffff167372ec1287ff5bb960fd54ac2adae99145153c561f73ffffffffffffffffffffffffffffffffffffffff16630ae50a396040518163ffffffff1660e01b8152600401602060405180830381865afa158015610e18573d6000803e3d6000fd5b505050506040513d601f19601f82011682018060405250810190610e3c9190611662565b73ffffffffffffffffffffffffffffffffffffffff1614610eb9576040517f08c379a000000000000000000000000000000000000000000000000000000000815260206004820152600a60248201527f4f776e6572206f6e6c79000000000000000000000000000000000000000000006044820152606401610426565b600060018484604051610ecd929190611652565b9081526040519081900360200190205473ffffffffffffffffffffffffffffffffffffffff16905080610f5c576040517f08c379a000000000000000000000000000000000000000000000000000000000815260206004820152600f60248201527f53796d626f6c206e6f74207573656400000000000000000000000000000000006044820152606401610426565b73ffffffffffffffffffffffffffffffffffffffff81166000908152600260205260408120610f8a91611351565b60018484604051610f9c929190611652565b908152604080516020928190038301902080547fffffffffffffffffffffffff000000000000000000000000000000000000000016905573ffffffffffffffffffffffffffffffffffffffff831660009081526003909252812080547fffffffffffffffffffffffffffffffffffffffffffffffffffffffffff0000001690558054905b81811015611101576000818154811061103b5761103b6119e6565b9060005260206000200160405160200161105591906116d2565b60405160208183030381529060405280519060200120868660405160200161107e929190611652565b60405160208183030381529060405280519060200120036110ef5760006110a6600184611a44565b815481106110b6576110b66119e6565b90600052602060002001600082815481106110d3576110d36119e6565b9060005260206000200190816110e99190611a57565b50611101565b806110f981611b8e565b915050611020565b50600080548061111357611113611bc6565b60019003818190600052602060002001600061112f9190611351565b905560405173ffffffffffffffffffffffffffffffffffffffff8316907f22bc03fb7deb05fc0b86d22d74c307475ea4e7c8d142961ebc727459121fed0f90600090a2506001949350505050565b73ffffffffffffffffffffffffffffffffffffffff811660009081526002602052604090208054606091906111b19061167f565b80601f01602080910402602001604051908101604052809291908181526020018280546111dd9061167f565b801561122a5780601f106111ff5761010080835404028352916020019161122a565b820191906000526020600020905b81548152906001019060200180831161120d57829003601f168201915b50505050509050919050565b60606000805480602002602001604051908101604052809291908181526020016000905b828210156113065783829060005260206000200180546112799061167f565b80601f01602080910402602001604051908101604052809291908181526020018280546112a59061167f565b80156112f25780601f106112c7576101008083540402835291602001916112f2565b820191906000526020600020905b8154815290600101906020018083116112d557829003601f168201915b50505050508152602001906001019061125a565b50505050905090565b600060018383604051611323929190611652565b9081526040519081900360200190205473ffffffffffffffffffffffffffffffffffffffff16905092915050565b50805461135d9061167f565b6000825580601f1061136d575050565b601f01602090049060005260206000209081019061138b919061138e565b50565b5b808211156113a3576000815560010161138f565b5090565b60008083601f8401126113b957600080fd5b50813567ffffffffffffffff8111156113d157600080fd5b6020830191508360208285010111156113e957600080fd5b9250929050565b6000806020838503121561140357600080fd5b823567ffffffffffffffff81111561141a57600080fd5b611426858286016113a7565b90969095509350505050565b803562ffffff8116811461080e57600080fd5b60008060006040848603121561145a57600080fd5b833567ffffffffffffffff81111561147157600080fd5b61147d868287016113a7565b9094509250611490905060208501611432565b90509250925092565b6000602082840312156114ab57600080fd5b6114b482611432565b9392505050565b73ffffffffffffffffffffffffffffffffffffffff8116811461138b57600080fd5b6000806000604084860312156114f257600080fd5b833567ffffffffffffffff81111561150957600080fd5b611515868287016113a7565b9094509250506020840135611529816114bb565b809150509250925092565b60005b8381101561154f578181015183820152602001611537565b50506000910152565b60008151808452611570816020860160208601611534565b601f017fffffffffffffffffffffffffffffffffffffffffffffffffffffffffffffffe0169290920160200192915050565b6020815260006114b46020830184611558565b6000602082840312156115c757600080fd5b81356114b4816114bb565b6000602080830181845280855180835260408601915060408160051b870101925083870160005b82811015611645577fffffffffffffffffffffffffffffffffffffffffffffffffffffffffffffffc0888603018452611633858351611558565b945092850192908501906001016115f9565b5092979650505050505050565b8183823760009101908152919050565b60006020828403121561167457600080fd5b81516114b4816114bb565b600181811c9082168061169357607f821691505b6020821081036116cc577f4e487b7100000000000000000000000000000000000000000000000000000000600052602260045260246000fd5b50919050565b60008083546116e08161167f565b600182811680156116f8576001811461172b5761175a565b7fffffffffffffffffffffffffffffffffffffffffffffffffffffffffffffff008416875282151583028701945061175a565b8760005260208060002060005b858110156117515781548a820152908401908201611738565b50505082870194505b50929695505050505050565b7f4e487b7100000000000000000000000000000000000000000000000000000000600052604160045260246000fd5b6000602082840312156117a757600080fd5b815167ffffffffffffffff808211156117bf57600080fd5b818401915084601f8301126117d357600080fd5b8151818111156117e5576117e5611766565b604051601f82017fffffffffffffffffffffffffffffffffffffffffffffffffffffffffffffffe0908116603f0116810190838211818310171561182b5761182b611766565b8160405282815287602084870101111561184457600080fd5b611855836020830160208801611534565b979650505050505050565b60008251611872818460208701611534565b9190910192915050565b601f8211156118c657600081815260208120601f850160051c810160208610156118a35750805b601f850160051c820191505b818110156118c2578281556001016118af565b5050505b505050565b67ffffffffffffffff8311156118e3576118e3611766565b6118f7836118f1835461167f565b8361187c565b6000601f84116001811461194957600085156119135750838201355b7fffffffffffffffffffffffffffffffffffffffffffffffffffffffffffffffff600387901b1c1916600186901b1783556119df565b6000838152602090207fffffffffffffffffffffffffffffffffffffffffffffffffffffffffffffffe0861690835b828110156119985786850135825560209485019460019092019101611978565b50868210156119d3577fffffffffffffffffffffffffffffffffffffffffffffffffffffffffffffffff60f88860031b161c19848701351681555b505060018560011b0183555b5050505050565b7f4e487b7100000000000000000000000000000000000000000000000000000000600052603260045260246000fd5b7f4e487b7100000000000000000000000000000000000000000000000000000000600052601160045260246000fd5b8181038181111561030b5761030b611a15565b818103611a62575050565b611a6c825461167f565b67ffffffffffffffff811115611a8457611a84611766565b611a9881611a92845461167f565b8461187c565b6000601f821160018114611aea5760008315611ab45750848201545b7fffffffffffffffffffffffffffffffffffffffffffffffffffffffffffffffff600385901b1c1916600184901b1784556119df565b6000858152602090207fffffffffffffffffffffffffffffffffffffffffffffffffffffffffffffffe0841690600086815260209020845b83811015611b425782860154825560019586019590910190602001611b22565b5085831015611b7e57818501547fffffffffffffffffffffffffffffffffffffffffffffffffffffffffffffffff600388901b60f8161c191681555b5050505050600190811b01905550565b60007fffffffffffffffffffffffffffffffffffffffffffffffffffffffffffffffff8203611bbf57611bbf611a15565b5060010190565b7f4e487b7100000000000000000000000000000000000000000000000000000000600052603160045260246000fdfea2646970667358221220b9e27eae382a0529901c0239ee7a7fae89ff73544844b00aaca975641802899164736f6c63430008120033",
					"opcodes": "PUSH1 0xA0 PUSH1 0x40 MSTORE CALLVALUE DUP1 ISZERO PUSH2 0x10 JUMPI PUSH1 0x0 DUP1 REVERT JUMPDEST POP PUSH20 0x72EC1287FF5BB960FD54AC2ADAE99145153C561F PUSH1 0x1 PUSH1 0x1 PUSH1 0xA0 SHL SUB AND PUSH4 0xEE5503D0 PUSH1 0x40 MLOAD DUP2 PUSH4 0xFFFFFFFF AND PUSH1 0xE0 SHL DUP2 MSTORE PUSH1 0x4 ADD PUSH1 0x20 PUSH1 0x40 MLOAD DUP1 DUP4 SUB DUP2 DUP7 GAS STATICCALL ISZERO DUP1 ISZERO PUSH2 0x63 JUMPI RETURNDATASIZE PUSH1 0x0 DUP1 RETURNDATACOPY RETURNDATASIZE PUSH1 0x0 REVERT JUMPDEST POP POP POP POP PUSH1 0x40 MLOAD RETURNDATASIZE PUSH1 0x1F NOT PUSH1 0x1F DUP3 ADD AND DUP3 ADD DUP1 PUSH1 0x40 MSTORE POP DUP2 ADD SWAP1 PUSH2 0x87 SWAP2 SWAP1 PUSH2 0xB5 JUMP JUMPDEST PUSH1 0x1 PUSH1 0x1 PUSH1 0xA0 SHL SUB AND PUSH1 0x80 DUP2 SWAP1 MSTORE PUSH1 0x0 SWAP1 DUP2 MSTORE PUSH1 0x3 PUSH1 0x20 MSTORE PUSH1 0x40 SWAP1 KECCAK256 DUP1 SLOAD PUSH3 0xFFFFFF NOT AND PUSH1 0xC8 OR SWAP1 SSTORE PUSH2 0xE5 JUMP JUMPDEST PUSH1 0x0 PUSH1 0x20 DUP3 DUP5 SUB SLT ISZERO PUSH2 0xC7 JUMPI PUSH1 0x0 DUP1 REVERT JUMPDEST DUP2 MLOAD PUSH1 0x1 PUSH1 0x1 PUSH1 0xA0 SHL SUB DUP2 AND DUP2 EQ PUSH2 0xDE JUMPI PUSH1 0x0 DUP1 REVERT JUMPDEST SWAP4 SWAP3 POP POP POP JUMP JUMPDEST PUSH1 0x80 MLOAD PUSH2 0x1C2B PUSH2 0x107 PUSH1 0x0 CODECOPY PUSH1 0x0 DUP2 DUP2 PUSH2 0x267 ADD MSTORE PUSH2 0x763 ADD MSTORE PUSH2 0x1C2B PUSH1 0x0 RETURN INVALID PUSH1 0x80 PUSH1 0x40 MSTORE PUSH1 0x4 CALLDATASIZE LT PUSH2 0xA9 JUMPI PUSH1 0x0 CALLDATALOAD PUSH1 0xE0 SHR DUP1 PUSH4 0x8E9497D2 GT PUSH2 0x63 JUMPI DUP1 PUSH4 0xD99699DF GT PUSH2 0x4B JUMPI DUP1 PUSH4 0xD99699DF EQ PUSH2 0x1F1 JUMPI DUP1 PUSH4 0xDA240F1E EQ PUSH2 0x213 JUMPI DUP1 PUSH4 0xE43DD488 EQ PUSH2 0x258 JUMPI STOP JUMPDEST DUP1 PUSH4 0x8E9497D2 EQ PUSH2 0x1B1 JUMPI DUP1 PUSH4 0xA56C56C3 EQ PUSH2 0x1D1 JUMPI STOP JUMPDEST DUP1 PUSH4 0x6010AB49 GT PUSH2 0x91 JUMPI DUP1 PUSH4 0x6010AB49 EQ PUSH2 0x11B JUMPI DUP1 PUSH4 0x6080E7FF EQ PUSH2 0x13B JUMPI DUP1 PUSH4 0x8052474D EQ PUSH2 0x15B JUMPI STOP JUMPDEST DUP1 PUSH4 0x1727DE4E EQ PUSH2 0xB2 JUMPI DUP1 PUSH4 0x55A90E8D EQ PUSH2 0xEB JUMPI STOP JUMPDEST CALLDATASIZE PUSH2 0xB0 JUMPI STOP JUMPDEST STOP JUMPDEST CALLVALUE DUP1 ISZERO PUSH2 0xBE JUMPI PUSH1 0x0 DUP1 REVERT JUMPDEST POP PUSH2 0xD2 PUSH2 0xCD CALLDATASIZE PUSH1 0x4 PUSH2 0x13F0 JUMP JUMPDEST PUSH2 0x2B5 JUMP JUMPDEST PUSH1 0x40 MLOAD PUSH3 0xFFFFFF SWAP1 SWAP2 AND DUP2 MSTORE PUSH1 0x20 ADD JUMPDEST PUSH1 0x40 MLOAD DUP1 SWAP2 SUB SWAP1 RETURN JUMPDEST CALLVALUE DUP1 ISZERO PUSH2 0xF7 JUMPI PUSH1 0x0 DUP1 REVERT JUMPDEST POP PUSH2 0x10B PUSH2 0x106 CALLDATASIZE PUSH1 0x4 PUSH2 0x1445 JUMP JUMPDEST PUSH2 0x311 JUMP JUMPDEST PUSH1 0x40 MLOAD SWAP1 ISZERO ISZERO DUP2 MSTORE PUSH1 0x20 ADD PUSH2 0xE2 JUMP JUMPDEST CALLVALUE DUP1 ISZERO PUSH2 0x127 JUMPI PUSH1 0x0 DUP1 REVERT JUMPDEST POP PUSH2 0x10B PUSH2 0x136 CALLDATASIZE PUSH1 0x4 PUSH2 0x1499 JUMP JUMPDEST PUSH2 0x5D7 JUMP JUMPDEST CALLVALUE DUP1 ISZERO PUSH2 0x147 JUMPI PUSH1 0x0 DUP1 REVERT JUMPDEST POP PUSH2 0x10B PUSH2 0x156 CALLDATASIZE PUSH1 0x4 PUSH2 0x14DD JUMP JUMPDEST PUSH2 0x813 JUMP JUMPDEST CALLVALUE DUP1 ISZERO PUSH2 0x167 JUMPI PUSH1 0x0 DUP1 REVERT JUMPDEST POP PUSH2 0x1A4 PUSH1 0x40 MLOAD DUP1 PUSH1 0x40 ADD PUSH1 0x40 MSTORE DUP1 PUSH1 0x13 DUP2 MSTORE PUSH1 0x20 ADD PUSH32 0x2E5061796D656E742E43757272656E6369657300000000000000000000000000 DUP2 MSTORE POP DUP2 JUMP JUMPDEST PUSH1 0x40 MLOAD PUSH2 0xE2 SWAP2 SWAP1 PUSH2 0x15A2 JUMP JUMPDEST CALLVALUE DUP1 ISZERO PUSH2 0x1BD JUMPI PUSH1 0x0 DUP1 REVERT JUMPDEST POP PUSH2 0x10B PUSH2 0x1CC CALLDATASIZE PUSH1 0x4 PUSH2 0x13F0 JUMP JUMPDEST PUSH2 0xDA0 JUMP JUMPDEST CALLVALUE DUP1 ISZERO PUSH2 0x1DD JUMPI PUSH1 0x0 DUP1 REVERT JUMPDEST POP PUSH2 0x1A4 PUSH2 0x1EC CALLDATASIZE PUSH1 0x4 PUSH2 0x15B5 JUMP JUMPDEST PUSH2 0x117D JUMP JUMPDEST CALLVALUE DUP1 ISZERO PUSH2 0x1FD JUMPI PUSH1 0x0 DUP1 REVERT JUMPDEST POP PUSH2 0x206 PUSH2 0x1236 JUMP JUMPDEST PUSH1 0x40 MLOAD PUSH2 0xE2 SWAP2 SWAP1 PUSH2 0x15D2 JUMP JUMPDEST CALLVALUE DUP1 ISZERO PUSH2 0x21F JUMPI PUSH1 0x0 DUP1 REVERT JUMPDEST POP PUSH2 0x233 PUSH2 0x22E CALLDATASIZE PUSH1 0x4 PUSH2 0x13F0 JUMP JUMPDEST PUSH2 0x130F JUMP JUMPDEST PUSH1 0x40 MLOAD PUSH20 0xFFFFFFFFFFFFFFFFFFFFFFFFFFFFFFFFFFFFFFFF SWAP1 SWAP2 AND DUP2 MSTORE PUSH1 0x20 ADD PUSH2 0xE2 JUMP JUMPDEST CALLVALUE DUP1 ISZERO PUSH2 0x264 JUMPI PUSH1 0x0 DUP1 REVERT JUMPDEST POP PUSH32 0x0 PUSH20 0xFFFFFFFFFFFFFFFFFFFFFFFFFFFFFFFFFFFFFFFF AND PUSH1 0x0 SWAP1 DUP2 MSTORE PUSH1 0x3 PUSH1 0x20 MSTORE PUSH1 0x40 SWAP1 KECCAK256 SLOAD PUSH3 0xFFFFFF AND PUSH2 0xD2 JUMP JUMPDEST PUSH1 0x0 PUSH1 0x3 PUSH1 0x0 PUSH1 0x1 DUP6 DUP6 PUSH1 0x40 MLOAD PUSH2 0x2CD SWAP3 SWAP2 SWAP1 PUSH2 0x1652 JUMP JUMPDEST SWAP1 DUP2 MSTORE PUSH1 0x40 DUP1 MLOAD PUSH1 0x20 SWAP3 DUP2 SWAP1 SUB DUP4 ADD SWAP1 KECCAK256 SLOAD PUSH20 0xFFFFFFFFFFFFFFFFFFFFFFFFFFFFFFFFFFFFFFFF AND DUP4 MSTORE SWAP1 DUP3 ADD SWAP3 SWAP1 SWAP3 MSTORE ADD PUSH1 0x0 KECCAK256 SLOAD PUSH3 0xFFFFFF AND SWAP1 POP JUMPDEST SWAP3 SWAP2 POP POP JUMP JUMPDEST PUSH1 0x0 CALLER PUSH20 0xFFFFFFFFFFFFFFFFFFFFFFFFFFFFFFFFFFFFFFFF AND PUSH20 0x72EC1287FF5BB960FD54AC2ADAE99145153C561F PUSH20 0xFFFFFFFFFFFFFFFFFFFFFFFFFFFFFFFFFFFFFFFF AND PUSH4 0xAE50A39 PUSH1 0x40 MLOAD DUP2 PUSH4 0xFFFFFFFF AND PUSH1 0xE0 SHL DUP2 MSTORE PUSH1 0x4 ADD PUSH1 0x20 PUSH1 0x40 MLOAD DUP1 DUP4 SUB DUP2 DUP7 GAS STATICCALL ISZERO DUP1 ISZERO PUSH2 0x389 JUMPI RETURNDATASIZE PUSH1 0x0 DUP1 RETURNDATACOPY RETURNDATASIZE PUSH1 0x0 REVERT JUMPDEST POP POP POP POP PUSH1 0x40 MLOAD RETURNDATASIZE PUSH1 0x1F NOT PUSH1 0x1F DUP3 ADD AND DUP3 ADD DUP1 PUSH1 0x40 MSTORE POP DUP2 ADD SWAP1 PUSH2 0x3AD SWAP2 SWAP1 PUSH2 0x1662 JUMP JUMPDEST PUSH20 0xFFFFFFFFFFFFFFFFFFFFFFFFFFFFFFFFFFFFFFFF AND EQ PUSH2 0x42F JUMPI PUSH1 0x40 MLOAD PUSH32 0x8C379A000000000000000000000000000000000000000000000000000000000 DUP2 MSTORE PUSH1 0x20 PUSH1 0x4 DUP3 ADD MSTORE PUSH1 0xA PUSH1 0x24 DUP3 ADD MSTORE PUSH32 0x4F776E6572206F6E6C7900000000000000000000000000000000000000000000 PUSH1 0x44 DUP3 ADD MSTORE PUSH1 0x64 ADD JUMPDEST PUSH1 0x40 MLOAD DUP1 SWAP2 SUB SWAP1 REVERT JUMPDEST PUSH1 0x0 PUSH1 0x1 DUP6 DUP6 PUSH1 0x40 MLOAD PUSH2 0x443 SWAP3 SWAP2 SWAP1 PUSH2 0x1652 JUMP JUMPDEST SWAP1 DUP2 MSTORE PUSH1 0x40 MLOAD SWAP1 DUP2 SWAP1 SUB PUSH1 0x20 ADD SWAP1 KECCAK256 SLOAD PUSH20 0xFFFFFFFFFFFFFFFFFFFFFFFFFFFFFFFFFFFFFFFF AND SWAP1 POP DUP1 PUSH2 0x4D2 JUMPI PUSH1 0x40 MLOAD PUSH32 0x8C379A000000000000000000000000000000000000000000000000000000000 DUP2 MSTORE PUSH1 0x20 PUSH1 0x4 DUP3 ADD MSTORE PUSH1 0xF PUSH1 0x24 DUP3 ADD MSTORE PUSH32 0x53796D626F6C206E6F7420757365640000000000000000000000000000000000 PUSH1 0x44 DUP3 ADD MSTORE PUSH1 0x64 ADD PUSH2 0x426 JUMP JUMPDEST PUSH2 0x2710 DUP4 PUSH3 0xFFFFFF AND GT ISZERO PUSH2 0x543 JUMPI PUSH1 0x40 MLOAD PUSH32 0x8C379A000000000000000000000000000000000000000000000000000000000 DUP2 MSTORE PUSH1 0x20 PUSH1 0x4 DUP3 ADD MSTORE PUSH1 0x14 PUSH1 0x24 DUP3 ADD MSTORE PUSH32 0x4578636565646564206D6178696D756D20666565000000000000000000000000 PUSH1 0x44 DUP3 ADD MSTORE PUSH1 0x64 ADD PUSH2 0x426 JUMP JUMPDEST PUSH20 0xFFFFFFFFFFFFFFFFFFFFFFFFFFFFFFFFFFFFFFFF DUP2 AND PUSH1 0x0 DUP2 DUP2 MSTORE PUSH1 0x3 PUSH1 0x20 SWAP1 DUP2 MSTORE PUSH1 0x40 SWAP2 DUP3 SWAP1 KECCAK256 DUP1 SLOAD PUSH32 0xFFFFFFFFFFFFFFFFFFFFFFFFFFFFFFFFFFFFFFFFFFFFFFFFFFFFFFFFFF000000 AND PUSH3 0xFFFFFF DUP9 AND SWAP1 DUP2 OR SWAP1 SWAP2 SSTORE SWAP2 MLOAD SWAP2 DUP3 MSTORE PUSH32 0x3186A7764EDE3BF12E0885D5369C46A7ACC81B2F03797BEB8E84A659D29FB16 SWAP2 ADD PUSH1 0x40 MLOAD DUP1 SWAP2 SUB SWAP1 LOG2 POP PUSH1 0x1 SWAP5 SWAP4 POP POP POP POP JUMP JUMPDEST PUSH1 0x0 CALLER PUSH20 0xFFFFFFFFFFFFFFFFFFFFFFFFFFFFFFFFFFFFFFFF AND PUSH20 0x72EC1287FF5BB960FD54AC2ADAE99145153C561F PUSH20 0xFFFFFFFFFFFFFFFFFFFFFFFFFFFFFFFFFFFFFFFF AND PUSH4 0xAE50A39 PUSH1 0x40 MLOAD DUP2 PUSH4 0xFFFFFFFF AND PUSH1 0xE0 SHL DUP2 MSTORE PUSH1 0x4 ADD PUSH1 0x20 PUSH1 0x40 MLOAD DUP1 DUP4 SUB DUP2 DUP7 GAS STATICCALL ISZERO DUP1 ISZERO PUSH2 0x64F JUMPI RETURNDATASIZE PUSH1 0x0 DUP1 RETURNDATACOPY RETURNDATASIZE PUSH1 0x0 REVERT JUMPDEST POP POP POP POP PUSH1 0x40 MLOAD RETURNDATASIZE PUSH1 0x1F NOT PUSH1 0x1F DUP3 ADD AND DUP3 ADD DUP1 PUSH1 0x40 MSTORE POP DUP2 ADD SWAP1 PUSH2 0x673 SWAP2 SWAP1 PUSH2 0x1662 JUMP JUMPDEST PUSH20 0xFFFFFFFFFFFFFFFFFFFFFFFFFFFFFFFFFFFFFFFF AND EQ PUSH2 0x6F0 JUMPI PUSH1 0x40 MLOAD PUSH32 0x8C379A000000000000000000000000000000000000000000000000000000000 DUP2 MSTORE PUSH1 0x20 PUSH1 0x4 DUP3 ADD MSTORE PUSH1 0xA PUSH1 0x24 DUP3 ADD MSTORE PUSH32 0x4F776E6572206F6E6C7900000000000000000000000000000000000000000000 PUSH1 0x44 DUP3 ADD MSTORE PUSH1 0x64 ADD PUSH2 0x426 JUMP JUMPDEST PUSH2 0x2710 DUP3 PUSH3 0xFFFFFF AND GT ISZERO PUSH2 0x761 JUMPI PUSH1 0x40 MLOAD PUSH32 0x8C379A000000000000000000000000000000000000000000000000000000000 DUP2 MSTORE PUSH1 0x20 PUSH1 0x4 DUP3 ADD MSTORE PUSH1 0x14 PUSH1 0x24 DUP3 ADD MSTORE PUSH32 0x4578636565646564206D6178696D756D20666565000000000000000000000000 PUSH1 0x44 DUP3 ADD MSTORE PUSH1 0x64 ADD PUSH2 0x426 JUMP JUMPDEST PUSH32 0x0 PUSH20 0xFFFFFFFFFFFFFFFFFFFFFFFFFFFFFFFFFFFFFFFF AND PUSH1 0x0 DUP2 DUP2 MSTORE PUSH1 0x3 PUSH1 0x20 SWAP1 DUP2 MSTORE PUSH1 0x40 SWAP2 DUP3 SWAP1 KECCAK256 DUP1 SLOAD PUSH32 0xFFFFFFFFFFFFFFFFFFFFFFFFFFFFFFFFFFFFFFFFFFFFFFFFFFFFFFFFFF000000 AND PUSH3 0xFFFFFF DUP8 AND SWAP1 DUP2 OR SWAP1 SWAP2 SSTORE SWAP2 MLOAD SWAP2 DUP3 MSTORE PUSH32 0x3186A7764EDE3BF12E0885D5369C46A7ACC81B2F03797BEB8E84A659D29FB16 SWAP2 ADD PUSH1 0x40 MLOAD DUP1 SWAP2 SUB SWAP1 LOG2 POP PUSH1 0x1 JUMPDEST SWAP2 SWAP1 POP JUMP JUMPDEST PUSH1 0x0 CALLER PUSH20 0xFFFFFFFFFFFFFFFFFFFFFFFFFFFFFFFFFFFFFFFF AND PUSH20 0x72EC1287FF5BB960FD54AC2ADAE99145153C561F PUSH20 0xFFFFFFFFFFFFFFFFFFFFFFFFFFFFFFFFFFFFFFFF AND PUSH4 0xAE50A39 PUSH1 0x40 MLOAD DUP2 PUSH4 0xFFFFFFFF AND PUSH1 0xE0 SHL DUP2 MSTORE PUSH1 0x4 ADD PUSH1 0x20 PUSH1 0x40 MLOAD DUP1 DUP4 SUB DUP2 DUP7 GAS STATICCALL ISZERO DUP1 ISZERO PUSH2 0x88B JUMPI RETURNDATASIZE PUSH1 0x0 DUP1 RETURNDATACOPY RETURNDATASIZE PUSH1 0x0 REVERT JUMPDEST POP POP POP POP PUSH1 0x40 MLOAD RETURNDATASIZE PUSH1 0x1F NOT PUSH1 0x1F DUP3 ADD AND DUP3 ADD DUP1 PUSH1 0x40 MSTORE POP DUP2 ADD SWAP1 PUSH2 0x8AF SWAP2 SWAP1 PUSH2 0x1662 JUMP JUMPDEST PUSH20 0xFFFFFFFFFFFFFFFFFFFFFFFFFFFFFFFFFFFFFFFF AND EQ PUSH2 0x92C JUMPI PUSH1 0x40 MLOAD PUSH32 0x8C379A000000000000000000000000000000000000000000000000000000000 DUP2 MSTORE PUSH1 0x20 PUSH1 0x4 DUP3 ADD MSTORE PUSH1 0xA PUSH1 0x24 DUP3 ADD MSTORE PUSH32 0x4F776E6572206F6E6C7900000000000000000000000000000000000000000000 PUSH1 0x44 DUP3 ADD MSTORE PUSH1 0x64 ADD PUSH2 0x426 JUMP JUMPDEST PUSH1 0x0 PUSH1 0x1 DUP6 DUP6 PUSH1 0x40 MLOAD PUSH2 0x940 SWAP3 SWAP2 SWAP1 PUSH2 0x1652 JUMP JUMPDEST SWAP1 DUP2 MSTORE PUSH1 0x40 MLOAD SWAP1 DUP2 SWAP1 SUB PUSH1 0x20 ADD SWAP1 KECCAK256 SLOAD PUSH20 0xFFFFFFFFFFFFFFFFFFFFFFFFFFFFFFFFFFFFFFFF AND SWAP1 POP DUP1 ISZERO PUSH2 0x9D0 JUMPI PUSH1 0x40 MLOAD PUSH32 0x8C379A000000000000000000000000000000000000000000000000000000000 DUP2 MSTORE PUSH1 0x20 PUSH1 0x4 DUP3 ADD MSTORE PUSH1 0x13 PUSH1 0x24 DUP3 ADD MSTORE PUSH32 0x53796D626F6C20616C7265616479207573656400000000000000000000000000 PUSH1 0x44 DUP3 ADD MSTORE PUSH1 0x64 ADD PUSH2 0x426 JUMP JUMPDEST PUSH1 0x40 DUP1 MLOAD PUSH1 0x0 DUP1 DUP3 MSTORE PUSH1 0x20 DUP1 DUP4 ADD DUP1 DUP6 MSTORE DUP4 MLOAD SWAP1 KECCAK256 PUSH20 0xFFFFFFFFFFFFFFFFFFFFFFFFFFFFFFFFFFFFFFFF DUP9 AND DUP4 MSTORE PUSH1 0x2 SWAP1 SWAP2 MSTORE SWAP1 DUP4 SWAP1 KECCAK256 SWAP1 SWAP3 PUSH2 0xA13 SWAP3 ADD PUSH2 0x16D2 JUMP JUMPDEST PUSH1 0x40 MLOAD PUSH1 0x20 DUP2 DUP4 SUB SUB DUP2 MSTORE SWAP1 PUSH1 0x40 MSTORE DUP1 MLOAD SWAP1 PUSH1 0x20 ADD KECCAK256 EQ PUSH2 0xA90 JUMPI PUSH1 0x40 MLOAD PUSH32 0x8C379A000000000000000000000000000000000000000000000000000000000 DUP2 MSTORE PUSH1 0x20 PUSH1 0x4 DUP3 ADD MSTORE PUSH1 0x14 PUSH1 0x24 DUP3 ADD MSTORE PUSH32 0x4164647265737320616C72656164792075736564000000000000000000000000 PUSH1 0x44 DUP3 ADD MSTORE PUSH1 0x64 ADD PUSH2 0x426 JUMP JUMPDEST DUP3 EXTCODESIZE PUSH4 0xFFFFFFFF DUP2 AND PUSH1 0x0 SUB PUSH2 0xB02 JUMPI PUSH1 0x40 MLOAD PUSH32 0x8C379A000000000000000000000000000000000000000000000000000000000 DUP2 MSTORE PUSH1 0x20 PUSH1 0x4 DUP3 ADD MSTORE PUSH1 0xE PUSH1 0x24 DUP3 ADD MSTORE PUSH32 0x4E6F74206120636F6E7472616374000000000000000000000000000000000000 PUSH1 0x44 DUP3 ADD MSTORE PUSH1 0x64 ADD PUSH2 0x426 JUMP JUMPDEST PUSH1 0x0 DUP5 PUSH20 0xFFFFFFFFFFFFFFFFFFFFFFFFFFFFFFFFFFFFFFFF AND PUSH4 0x95D89B41 PUSH1 0x40 MLOAD DUP2 PUSH4 0xFFFFFFFF AND PUSH1 0xE0 SHL DUP2 MSTORE PUSH1 0x4 ADD PUSH1 0x0 PUSH1 0x40 MLOAD DUP1 DUP4 SUB DUP2 DUP7 GAS STATICCALL ISZERO DUP1 ISZERO PUSH2 0xB4F JUMPI RETURNDATASIZE PUSH1 0x0 DUP1 RETURNDATACOPY RETURNDATASIZE PUSH1 0x0 REVERT JUMPDEST POP POP POP POP PUSH1 0x40 MLOAD RETURNDATASIZE PUSH1 0x0 DUP3 RETURNDATACOPY PUSH1 0x1F RETURNDATASIZE SWAP1 DUP2 ADD PUSH32 0xFFFFFFFFFFFFFFFFFFFFFFFFFFFFFFFFFFFFFFFFFFFFFFFFFFFFFFFFFFFFFFE0 AND DUP3 ADD PUSH1 0x40 MSTORE PUSH2 0xB95 SWAP2 SWAP1 DUP2 ADD SWAP1 PUSH2 0x1795 JUMP JUMPDEST SWAP1 POP DUP1 PUSH1 0x40 MLOAD PUSH1 0x20 ADD PUSH2 0xBA8 SWAP2 SWAP1 PUSH2 0x1860 JUMP JUMPDEST PUSH1 0x40 MLOAD PUSH1 0x20 DUP2 DUP4 SUB SUB DUP2 MSTORE SWAP1 PUSH1 0x40 MSTORE DUP1 MLOAD SWAP1 PUSH1 0x20 ADD KECCAK256 DUP8 DUP8 PUSH1 0x40 MLOAD PUSH1 0x20 ADD PUSH2 0xBD1 SWAP3 SWAP2 SWAP1 PUSH2 0x1652 JUMP JUMPDEST PUSH1 0x40 MLOAD PUSH1 0x20 DUP2 DUP4 SUB SUB DUP2 MSTORE SWAP1 PUSH1 0x40 MSTORE DUP1 MLOAD SWAP1 PUSH1 0x20 ADD KECCAK256 EQ PUSH2 0xC4E JUMPI PUSH1 0x40 MLOAD PUSH32 0x8C379A000000000000000000000000000000000000000000000000000000000 DUP2 MSTORE PUSH1 0x20 PUSH1 0x4 DUP3 ADD MSTORE PUSH1 0xF PUSH1 0x24 DUP3 ADD MSTORE PUSH32 0x53796D626F6C206D69736D617463680000000000000000000000000000000000 PUSH1 0x44 DUP3 ADD MSTORE PUSH1 0x64 ADD PUSH2 0x426 JUMP JUMPDEST DUP5 PUSH1 0x1 DUP9 DUP9 PUSH1 0x40 MLOAD PUSH2 0xC61 SWAP3 SWAP2 SWAP1 PUSH2 0x1652 JUMP JUMPDEST SWAP1 DUP2 MSTORE PUSH1 0x40 DUP1 MLOAD PUSH1 0x20 SWAP3 DUP2 SWAP1 SUB DUP4 ADD SWAP1 KECCAK256 DUP1 SLOAD PUSH32 0xFFFFFFFFFFFFFFFFFFFFFFFF0000000000000000000000000000000000000000 AND PUSH20 0xFFFFFFFFFFFFFFFFFFFFFFFFFFFFFFFFFFFFFFFF SWAP5 DUP6 AND OR SWAP1 SSTORE SWAP2 DUP8 AND PUSH1 0x0 SWAP1 DUP2 MSTORE PUSH1 0x2 SWAP1 SWAP2 MSTORE KECCAK256 PUSH2 0xCCA DUP8 DUP10 DUP4 PUSH2 0x18CB JUMP JUMPDEST POP PUSH20 0xFFFFFFFFFFFFFFFFFFFFFFFFFFFFFFFFFFFFFFFF DUP6 AND PUSH1 0x0 SWAP1 DUP2 MSTORE PUSH1 0x3 PUSH1 0x20 MSTORE PUSH1 0x40 DUP2 KECCAK256 DUP1 SLOAD PUSH32 0xFFFFFFFFFFFFFFFFFFFFFFFFFFFFFFFFFFFFFFFFFFFFFFFFFFFFFFFFFF000000 AND PUSH1 0xDC OR SWAP1 SSTORE DUP1 SLOAD PUSH1 0x1 DUP2 ADD DUP3 SSTORE SWAP1 DUP1 MSTORE PUSH32 0x290DECD9548B62A8D60345A988386FC84BA6BC95484008F6362F93160EF3E563 ADD PUSH2 0xD51 DUP8 DUP10 DUP4 PUSH2 0x18CB JUMP JUMPDEST POP PUSH1 0x40 MLOAD PUSH20 0xFFFFFFFFFFFFFFFFFFFFFFFFFFFFFFFFFFFFFFFF DUP5 AND SWAP1 PUSH32 0x2014B559C1EE999C8F4C928818D91E9E88AA4E2CCEEAEC16156472AB9E1C9ADC SWAP1 PUSH1 0x0 SWAP1 LOG2 POP PUSH1 0x1 SWAP7 SWAP6 POP POP POP POP POP POP JUMP JUMPDEST PUSH1 0x0 CALLER PUSH20 0xFFFFFFFFFFFFFFFFFFFFFFFFFFFFFFFFFFFFFFFF AND PUSH20 0x72EC1287FF5BB960FD54AC2ADAE99145153C561F PUSH20 0xFFFFFFFFFFFFFFFFFFFFFFFFFFFFFFFFFFFFFFFF AND PUSH4 0xAE50A39 PUSH1 0x40 MLOAD DUP2 PUSH4 0xFFFFFFFF AND PUSH1 0xE0 SHL DUP2 MSTORE PUSH1 0x4 ADD PUSH1 0x20 PUSH1 0x40 MLOAD DUP1 DUP4 SUB DUP2 DUP7 GAS STATICCALL ISZERO DUP1 ISZERO PUSH2 0xE18 JUMPI RETURNDATASIZE PUSH1 0x0 DUP1 RETURNDATACOPY RETURNDATASIZE PUSH1 0x0 REVERT JUMPDEST POP POP POP POP PUSH1 0x40 MLOAD RETURNDATASIZE PUSH1 0x1F NOT PUSH1 0x1F DUP3 ADD AND DUP3 ADD DUP1 PUSH1 0x40 MSTORE POP DUP2 ADD SWAP1 PUSH2 0xE3C SWAP2 SWAP1 PUSH2 0x1662 JUMP JUMPDEST PUSH20 0xFFFFFFFFFFFFFFFFFFFFFFFFFFFFFFFFFFFFFFFF AND EQ PUSH2 0xEB9 JUMPI PUSH1 0x40 MLOAD PUSH32 0x8C379A000000000000000000000000000000000000000000000000000000000 DUP2 MSTORE PUSH1 0x20 PUSH1 0x4 DUP3 ADD MSTORE PUSH1 0xA PUSH1 0x24 DUP3 ADD MSTORE PUSH32 0x4F776E6572206F6E6C7900000000000000000000000000000000000000000000 PUSH1 0x44 DUP3 ADD MSTORE PUSH1 0x64 ADD PUSH2 0x426 JUMP JUMPDEST PUSH1 0x0 PUSH1 0x1 DUP5 DUP5 PUSH1 0x40 MLOAD PUSH2 0xECD SWAP3 SWAP2 SWAP1 PUSH2 0x1652 JUMP JUMPDEST SWAP1 DUP2 MSTORE PUSH1 0x40 MLOAD SWAP1 DUP2 SWAP1 SUB PUSH1 0x20 ADD SWAP1 KECCAK256 SLOAD PUSH20 0xFFFFFFFFFFFFFFFFFFFFFFFFFFFFFFFFFFFFFFFF AND SWAP1 POP DUP1 PUSH2 0xF5C JUMPI PUSH1 0x40 MLOAD PUSH32 0x8C379A000000000000000000000000000000000000000000000000000000000 DUP2 MSTORE PUSH1 0x20 PUSH1 0x4 DUP3 ADD MSTORE PUSH1 0xF PUSH1 0x24 DUP3 ADD MSTORE PUSH32 0x53796D626F6C206E6F7420757365640000000000000000000000000000000000 PUSH1 0x44 DUP3 ADD MSTORE PUSH1 0x64 ADD PUSH2 0x426 JUMP JUMPDEST PUSH20 0xFFFFFFFFFFFFFFFFFFFFFFFFFFFFFFFFFFFFFFFF DUP2 AND PUSH1 0x0 SWAP1 DUP2 MSTORE PUSH1 0x2 PUSH1 0x20 MSTORE PUSH1 0x40 DUP2 KECCAK256 PUSH2 0xF8A SWAP2 PUSH2 0x1351 JUMP JUMPDEST PUSH1 0x1 DUP5 DUP5 PUSH1 0x40 MLOAD PUSH2 0xF9C SWAP3 SWAP2 SWAP1 PUSH2 0x1652 JUMP JUMPDEST SWAP1 DUP2 MSTORE PUSH1 0x40 DUP1 MLOAD PUSH1 0x20 SWAP3 DUP2 SWAP1 SUB DUP4 ADD SWAP1 KECCAK256 DUP1 SLOAD PUSH32 0xFFFFFFFFFFFFFFFFFFFFFFFF0000000000000000000000000000000000000000 AND SWAP1 SSTORE PUSH20 0xFFFFFFFFFFFFFFFFFFFFFFFFFFFFFFFFFFFFFFFF DUP4 AND PUSH1 0x0 SWAP1 DUP2 MSTORE PUSH1 0x3 SWAP1 SWAP3 MSTORE DUP2 KECCAK256 DUP1 SLOAD PUSH32 0xFFFFFFFFFFFFFFFFFFFFFFFFFFFFFFFFFFFFFFFFFFFFFFFFFFFFFFFFFF000000 AND SWAP1 SSTORE DUP1 SLOAD SWAP1 JUMPDEST DUP2 DUP2 LT ISZERO PUSH2 0x1101 JUMPI PUSH1 0x0 DUP2 DUP2 SLOAD DUP2 LT PUSH2 0x103B JUMPI PUSH2 0x103B PUSH2 0x19E6 JUMP JUMPDEST SWAP1 PUSH1 0x0 MSTORE PUSH1 0x20 PUSH1 0x0 KECCAK256 ADD PUSH1 0x40 MLOAD PUSH1 0x20 ADD PUSH2 0x1055 SWAP2 SWAP1 PUSH2 0x16D2 JUMP JUMPDEST PUSH1 0x40 MLOAD PUSH1 0x20 DUP2 DUP4 SUB SUB DUP2 MSTORE SWAP1 PUSH1 0x40 MSTORE DUP1 MLOAD SWAP1 PUSH1 0x20 ADD KECCAK256 DUP7 DUP7 PUSH1 0x40 MLOAD PUSH1 0x20 ADD PUSH2 0x107E SWAP3 SWAP2 SWAP1 PUSH2 0x1652 JUMP JUMPDEST PUSH1 0x40 MLOAD PUSH1 0x20 DUP2 DUP4 SUB SUB DUP2 MSTORE SWAP1 PUSH1 0x40 MSTORE DUP1 MLOAD SWAP1 PUSH1 0x20 ADD KECCAK256 SUB PUSH2 0x10EF JUMPI PUSH1 0x0 PUSH2 0x10A6 PUSH1 0x1 DUP5 PUSH2 0x1A44 JUMP JUMPDEST DUP2 SLOAD DUP2 LT PUSH2 0x10B6 JUMPI PUSH2 0x10B6 PUSH2 0x19E6 JUMP JUMPDEST SWAP1 PUSH1 0x0 MSTORE PUSH1 0x20 PUSH1 0x0 KECCAK256 ADD PUSH1 0x0 DUP3 DUP2 SLOAD DUP2 LT PUSH2 0x10D3 JUMPI PUSH2 0x10D3 PUSH2 0x19E6 JUMP JUMPDEST SWAP1 PUSH1 0x0 MSTORE PUSH1 0x20 PUSH1 0x0 KECCAK256 ADD SWAP1 DUP2 PUSH2 0x10E9 SWAP2 SWAP1 PUSH2 0x1A57 JUMP JUMPDEST POP PUSH2 0x1101 JUMP JUMPDEST DUP1 PUSH2 0x10F9 DUP2 PUSH2 0x1B8E JUMP JUMPDEST SWAP2 POP POP PUSH2 0x1020 JUMP JUMPDEST POP PUSH1 0x0 DUP1 SLOAD DUP1 PUSH2 0x1113 JUMPI PUSH2 0x1113 PUSH2 0x1BC6 JUMP JUMPDEST PUSH1 0x1 SWAP1 SUB DUP2 DUP2 SWAP1 PUSH1 0x0 MSTORE PUSH1 0x20 PUSH1 0x0 KECCAK256 ADD PUSH1 0x0 PUSH2 0x112F SWAP2 SWAP1 PUSH2 0x1351 JUMP JUMPDEST SWAP1 SSTORE PUSH1 0x40 MLOAD PUSH20 0xFFFFFFFFFFFFFFFFFFFFFFFFFFFFFFFFFFFFFFFF DUP4 AND SWAP1 PUSH32 0x22BC03FB7DEB05FC0B86D22D74C307475EA4E7C8D142961EBC727459121FED0F SWAP1 PUSH1 0x0 SWAP1 LOG2 POP PUSH1 0x1 SWAP5 SWAP4 POP POP POP POP JUMP JUMPDEST PUSH20 0xFFFFFFFFFFFFFFFFFFFFFFFFFFFFFFFFFFFFFFFF DUP2 AND PUSH1 0x0 SWAP1 DUP2 MSTORE PUSH1 0x2 PUSH1 0x20 MSTORE PUSH1 0x40 SWAP1 KECCAK256 DUP1 SLOAD PUSH1 0x60 SWAP2 SWAP1 PUSH2 0x11B1 SWAP1 PUSH2 0x167F JUMP JUMPDEST DUP1 PUSH1 0x1F ADD PUSH1 0x20 DUP1 SWAP2 DIV MUL PUSH1 0x20 ADD PUSH1 0x40 MLOAD SWAP1 DUP2 ADD PUSH1 0x40 MSTORE DUP1 SWAP3 SWAP2 SWAP1 DUP2 DUP2 MSTORE PUSH1 0x20 ADD DUP3 DUP1 SLOAD PUSH2 0x11DD SWAP1 PUSH2 0x167F JUMP JUMPDEST DUP1 ISZERO PUSH2 0x122A JUMPI DUP1 PUSH1 0x1F LT PUSH2 0x11FF JUMPI PUSH2 0x100 DUP1 DUP4 SLOAD DIV MUL DUP4 MSTORE SWAP2 PUSH1 0x20 ADD SWAP2 PUSH2 0x122A JUMP JUMPDEST DUP3 ADD SWAP2 SWAP1 PUSH1 0x0 MSTORE PUSH1 0x20 PUSH1 0x0 KECCAK256 SWAP1 JUMPDEST DUP2 SLOAD DUP2 MSTORE SWAP1 PUSH1 0x1 ADD SWAP1 PUSH1 0x20 ADD DUP1 DUP4 GT PUSH2 0x120D JUMPI DUP3 SWAP1 SUB PUSH1 0x1F AND DUP3 ADD SWAP2 JUMPDEST POP POP POP POP POP SWAP1 POP SWAP2 SWAP1 POP JUMP JUMPDEST PUSH1 0x60 PUSH1 0x0 DUP1 SLOAD DUP1 PUSH1 0x20 MUL PUSH1 0x20 ADD PUSH1 0x40 MLOAD SWAP1 DUP2 ADD PUSH1 0x40 MSTORE DUP1 SWAP3 SWAP2 SWAP1 DUP2 DUP2 MSTORE PUSH1 0x20 ADD PUSH1 0x0 SWAP1 JUMPDEST DUP3 DUP3 LT ISZERO PUSH2 0x1306 JUMPI DUP4 DUP3 SWAP1 PUSH1 0x0 MSTORE PUSH1 0x20 PUSH1 0x0 KECCAK256 ADD DUP1 SLOAD PUSH2 0x1279 SWAP1 PUSH2 0x167F JUMP JUMPDEST DUP1 PUSH1 0x1F ADD PUSH1 0x20 DUP1 SWAP2 DIV MUL PUSH1 0x20 ADD PUSH1 0x40 MLOAD SWAP1 DUP2 ADD PUSH1 0x40 MSTORE DUP1 SWAP3 SWAP2 SWAP1 DUP2 DUP2 MSTORE PUSH1 0x20 ADD DUP3 DUP1 SLOAD PUSH2 0x12A5 SWAP1 PUSH2 0x167F JUMP JUMPDEST DUP1 ISZERO PUSH2 0x12F2 JUMPI DUP1 PUSH1 0x1F LT PUSH2 0x12C7 JUMPI PUSH2 0x100 DUP1 DUP4 SLOAD DIV MUL DUP4 MSTORE SWAP2 PUSH1 0x20 ADD SWAP2 PUSH2 0x12F2 JUMP JUMPDEST DUP3 ADD SWAP2 SWAP1 PUSH1 0x0 MSTORE PUSH1 0x20 PUSH1 0x0 KECCAK256 SWAP1 JUMPDEST DUP2 SLOAD DUP2 MSTORE SWAP1 PUSH1 0x1 ADD SWAP1 PUSH1 0x20 ADD DUP1 DUP4 GT PUSH2 0x12D5 JUMPI DUP3 SWAP1 SUB PUSH1 0x1F AND DUP3 ADD SWAP2 JUMPDEST POP POP POP POP POP DUP2 MSTORE PUSH1 0x20 ADD SWAP1 PUSH1 0x1 ADD SWAP1 PUSH2 0x125A JUMP JUMPDEST POP POP POP POP SWAP1 POP SWAP1 JUMP JUMPDEST PUSH1 0x0 PUSH1 0x1 DUP4 DUP4 PUSH1 0x40 MLOAD PUSH2 0x1323 SWAP3 SWAP2 SWAP1 PUSH2 0x1652 JUMP JUMPDEST SWAP1 DUP2 MSTORE PUSH1 0x40 MLOAD SWAP1 DUP2 SWAP1 SUB PUSH1 0x20 ADD SWAP1 KECCAK256 SLOAD PUSH20 0xFFFFFFFFFFFFFFFFFFFFFFFFFFFFFFFFFFFFFFFF AND SWAP1 POP SWAP3 SWAP2 POP POP JUMP JUMPDEST POP DUP1 SLOAD PUSH2 0x135D SWAP1 PUSH2 0x167F JUMP JUMPDEST PUSH1 0x0 DUP3 SSTORE DUP1 PUSH1 0x1F LT PUSH2 0x136D JUMPI POP POP JUMP JUMPDEST PUSH1 0x1F ADD PUSH1 0x20 SWAP1 DIV SWAP1 PUSH1 0x0 MSTORE PUSH1 0x20 PUSH1 0x0 KECCAK256 SWAP1 DUP2 ADD SWAP1 PUSH2 0x138B SWAP2 SWAP1 PUSH2 0x138E JUMP JUMPDEST POP JUMP JUMPDEST JUMPDEST DUP1 DUP3 GT ISZERO PUSH2 0x13A3 JUMPI PUSH1 0x0 DUP2 SSTORE PUSH1 0x1 ADD PUSH2 0x138F JUMP JUMPDEST POP SWAP1 JUMP JUMPDEST PUSH1 0x0 DUP1 DUP4 PUSH1 0x1F DUP5 ADD SLT PUSH2 0x13B9 JUMPI PUSH1 0x0 DUP1 REVERT JUMPDEST POP DUP2 CALLDATALOAD PUSH8 0xFFFFFFFFFFFFFFFF DUP2 GT ISZERO PUSH2 0x13D1 JUMPI PUSH1 0x0 DUP1 REVERT JUMPDEST PUSH1 0x20 DUP4 ADD SWAP2 POP DUP4 PUSH1 0x20 DUP3 DUP6 ADD ADD GT ISZERO PUSH2 0x13E9 JUMPI PUSH1 0x0 DUP1 REVERT JUMPDEST SWAP3 POP SWAP3 SWAP1 POP JUMP JUMPDEST PUSH1 0x0 DUP1 PUSH1 0x20 DUP4 DUP6 SUB SLT ISZERO PUSH2 0x1403 JUMPI PUSH1 0x0 DUP1 REVERT JUMPDEST DUP3 CALLDATALOAD PUSH8 0xFFFFFFFFFFFFFFFF DUP2 GT ISZERO PUSH2 0x141A JUMPI PUSH1 0x0 DUP1 REVERT JUMPDEST PUSH2 0x1426 DUP6 DUP3 DUP7 ADD PUSH2 0x13A7 JUMP JUMPDEST SWAP1 SWAP7 SWAP1 SWAP6 POP SWAP4 POP POP POP POP JUMP JUMPDEST DUP1 CALLDATALOAD PUSH3 0xFFFFFF DUP2 AND DUP2 EQ PUSH2 0x80E JUMPI PUSH1 0x0 DUP1 REVERT JUMPDEST PUSH1 0x0 DUP1 PUSH1 0x0 PUSH1 0x40 DUP5 DUP7 SUB SLT ISZERO PUSH2 0x145A JUMPI PUSH1 0x0 DUP1 REVERT JUMPDEST DUP4 CALLDATALOAD PUSH8 0xFFFFFFFFFFFFFFFF DUP2 GT ISZERO PUSH2 0x1471 JUMPI PUSH1 0x0 DUP1 REVERT JUMPDEST PUSH2 0x147D DUP7 DUP3 DUP8 ADD PUSH2 0x13A7 JUMP JUMPDEST SWAP1 SWAP5 POP SWAP3 POP PUSH2 0x1490 SWAP1 POP PUSH1 0x20 DUP6 ADD PUSH2 0x1432 JUMP JUMPDEST SWAP1 POP SWAP3 POP SWAP3 POP SWAP3 JUMP JUMPDEST PUSH1 0x0 PUSH1 0x20 DUP3 DUP5 SUB SLT ISZERO PUSH2 0x14AB JUMPI PUSH1 0x0 DUP1 REVERT JUMPDEST PUSH2 0x14B4 DUP3 PUSH2 0x1432 JUMP JUMPDEST SWAP4 SWAP3 POP POP POP JUMP JUMPDEST PUSH20 0xFFFFFFFFFFFFFFFFFFFFFFFFFFFFFFFFFFFFFFFF DUP2 AND DUP2 EQ PUSH2 0x138B JUMPI PUSH1 0x0 DUP1 REVERT JUMPDEST PUSH1 0x0 DUP1 PUSH1 0x0 PUSH1 0x40 DUP5 DUP7 SUB SLT ISZERO PUSH2 0x14F2 JUMPI PUSH1 0x0 DUP1 REVERT JUMPDEST DUP4 CALLDATALOAD PUSH8 0xFFFFFFFFFFFFFFFF DUP2 GT ISZERO PUSH2 0x1509 JUMPI PUSH1 0x0 DUP1 REVERT JUMPDEST PUSH2 0x1515 DUP7 DUP3 DUP8 ADD PUSH2 0x13A7 JUMP JUMPDEST SWAP1 SWAP5 POP SWAP3 POP POP PUSH1 0x20 DUP5 ADD CALLDATALOAD PUSH2 0x1529 DUP2 PUSH2 0x14BB JUMP JUMPDEST DUP1 SWAP2 POP POP SWAP3 POP SWAP3 POP SWAP3 JUMP JUMPDEST PUSH1 0x0 JUMPDEST DUP4 DUP2 LT ISZERO PUSH2 0x154F JUMPI DUP2 DUP2 ADD MLOAD DUP4 DUP3 ADD MSTORE PUSH1 0x20 ADD PUSH2 0x1537 JUMP JUMPDEST POP POP PUSH1 0x0 SWAP2 ADD MSTORE JUMP JUMPDEST PUSH1 0x0 DUP2 MLOAD DUP1 DUP5 MSTORE PUSH2 0x1570 DUP2 PUSH1 0x20 DUP7 ADD PUSH1 0x20 DUP7 ADD PUSH2 0x1534 JUMP JUMPDEST PUSH1 0x1F ADD PUSH32 0xFFFFFFFFFFFFFFFFFFFFFFFFFFFFFFFFFFFFFFFFFFFFFFFFFFFFFFFFFFFFFFE0 AND SWAP3 SWAP1 SWAP3 ADD PUSH1 0x20 ADD SWAP3 SWAP2 POP POP JUMP JUMPDEST PUSH1 0x20 DUP2 MSTORE PUSH1 0x0 PUSH2 0x14B4 PUSH1 0x20 DUP4 ADD DUP5 PUSH2 0x1558 JUMP JUMPDEST PUSH1 0x0 PUSH1 0x20 DUP3 DUP5 SUB SLT ISZERO PUSH2 0x15C7 JUMPI PUSH1 0x0 DUP1 REVERT JUMPDEST DUP2 CALLDATALOAD PUSH2 0x14B4 DUP2 PUSH2 0x14BB JUMP JUMPDEST PUSH1 0x0 PUSH1 0x20 DUP1 DUP4 ADD DUP2 DUP5 MSTORE DUP1 DUP6 MLOAD DUP1 DUP4 MSTORE PUSH1 0x40 DUP7 ADD SWAP2 POP PUSH1 0x40 DUP2 PUSH1 0x5 SHL DUP8 ADD ADD SWAP3 POP DUP4 DUP8 ADD PUSH1 0x0 JUMPDEST DUP3 DUP2 LT ISZERO PUSH2 0x1645 JUMPI PUSH32 0xFFFFFFFFFFFFFFFFFFFFFFFFFFFFFFFFFFFFFFFFFFFFFFFFFFFFFFFFFFFFFFC0 DUP9 DUP7 SUB ADD DUP5 MSTORE PUSH2 0x1633 DUP6 DUP4 MLOAD PUSH2 0x1558 JUMP JUMPDEST SWAP5 POP SWAP3 DUP6 ADD SWAP3 SWAP1 DUP6 ADD SWAP1 PUSH1 0x1 ADD PUSH2 0x15F9 JUMP JUMPDEST POP SWAP3 SWAP8 SWAP7 POP POP POP POP POP POP POP JUMP JUMPDEST DUP2 DUP4 DUP3 CALLDATACOPY PUSH1 0x0 SWAP2 ADD SWAP1 DUP2 MSTORE SWAP2 SWAP1 POP JUMP JUMPDEST PUSH1 0x0 PUSH1 0x20 DUP3 DUP5 SUB SLT ISZERO PUSH2 0x1674 JUMPI PUSH1 0x0 DUP1 REVERT JUMPDEST DUP2 MLOAD PUSH2 0x14B4 DUP2 PUSH2 0x14BB JUMP JUMPDEST PUSH1 0x1 DUP2 DUP2 SHR SWAP1 DUP3 AND DUP1 PUSH2 0x1693 JUMPI PUSH1 0x7F DUP3 AND SWAP2 POP JUMPDEST PUSH1 0x20 DUP3 LT DUP2 SUB PUSH2 0x16CC JUMPI PUSH32 0x4E487B7100000000000000000000000000000000000000000000000000000000 PUSH1 0x0 MSTORE PUSH1 0x22 PUSH1 0x4 MSTORE PUSH1 0x24 PUSH1 0x0 REVERT JUMPDEST POP SWAP2 SWAP1 POP JUMP JUMPDEST PUSH1 0x0 DUP1 DUP4 SLOAD PUSH2 0x16E0 DUP2 PUSH2 0x167F JUMP JUMPDEST PUSH1 0x1 DUP3 DUP2 AND DUP1 ISZERO PUSH2 0x16F8 JUMPI PUSH1 0x1 DUP2 EQ PUSH2 0x172B JUMPI PUSH2 0x175A JUMP JUMPDEST PUSH32 0xFFFFFFFFFFFFFFFFFFFFFFFFFFFFFFFFFFFFFFFFFFFFFFFFFFFFFFFFFFFFFF00 DUP5 AND DUP8 MSTORE DUP3 ISZERO ISZERO DUP4 MUL DUP8 ADD SWAP5 POP PUSH2 0x175A JUMP JUMPDEST DUP8 PUSH1 0x0 MSTORE PUSH1 0x20 DUP1 PUSH1 0x0 KECCAK256 PUSH1 0x0 JUMPDEST DUP6 DUP2 LT ISZERO PUSH2 0x1751 JUMPI DUP2 SLOAD DUP11 DUP3 ADD MSTORE SWAP1 DUP5 ADD SWAP1 DUP3 ADD PUSH2 0x1738 JUMP JUMPDEST POP POP POP DUP3 DUP8 ADD SWAP5 POP JUMPDEST POP SWAP3 SWAP7 SWAP6 POP POP POP POP POP POP JUMP JUMPDEST PUSH32 0x4E487B7100000000000000000000000000000000000000000000000000000000 PUSH1 0x0 MSTORE PUSH1 0x41 PUSH1 0x4 MSTORE PUSH1 0x24 PUSH1 0x0 REVERT JUMPDEST PUSH1 0x0 PUSH1 0x20 DUP3 DUP5 SUB SLT ISZERO PUSH2 0x17A7 JUMPI PUSH1 0x0 DUP1 REVERT JUMPDEST DUP2 MLOAD PUSH8 0xFFFFFFFFFFFFFFFF DUP1 DUP3 GT ISZERO PUSH2 0x17BF JUMPI PUSH1 0x0 DUP1 REVERT JUMPDEST DUP2 DUP5 ADD SWAP2 POP DUP5 PUSH1 0x1F DUP4 ADD SLT PUSH2 0x17D3 JUMPI PUSH1 0x0 DUP1 REVERT JUMPDEST DUP2 MLOAD DUP2 DUP2 GT ISZERO PUSH2 0x17E5 JUMPI PUSH2 0x17E5 PUSH2 0x1766 JUMP JUMPDEST PUSH1 0x40 MLOAD PUSH1 0x1F DUP3 ADD PUSH32 0xFFFFFFFFFFFFFFFFFFFFFFFFFFFFFFFFFFFFFFFFFFFFFFFFFFFFFFFFFFFFFFE0 SWAP1 DUP2 AND PUSH1 0x3F ADD AND DUP2 ADD SWAP1 DUP4 DUP3 GT DUP2 DUP4 LT OR ISZERO PUSH2 0x182B JUMPI PUSH2 0x182B PUSH2 0x1766 JUMP JUMPDEST DUP2 PUSH1 0x40 MSTORE DUP3 DUP2 MSTORE DUP8 PUSH1 0x20 DUP5 DUP8 ADD ADD GT ISZERO PUSH2 0x1844 JUMPI PUSH1 0x0 DUP1 REVERT JUMPDEST PUSH2 0x1855 DUP4 PUSH1 0x20 DUP4 ADD PUSH1 0x20 DUP9 ADD PUSH2 0x1534 JUMP JUMPDEST SWAP8 SWAP7 POP POP POP POP POP POP POP JUMP JUMPDEST PUSH1 0x0 DUP3 MLOAD PUSH2 0x1872 DUP2 DUP5 PUSH1 0x20 DUP8 ADD PUSH2 0x1534 JUMP JUMPDEST SWAP2 SWAP1 SWAP2 ADD SWAP3 SWAP2 POP POP JUMP JUMPDEST PUSH1 0x1F DUP3 GT ISZERO PUSH2 0x18C6 JUMPI PUSH1 0x0 DUP2 DUP2 MSTORE PUSH1 0x20 DUP2 KECCAK256 PUSH1 0x1F DUP6 ADD PUSH1 0x5 SHR DUP2 ADD PUSH1 0x20 DUP7 LT ISZERO PUSH2 0x18A3 JUMPI POP DUP1 JUMPDEST PUSH1 0x1F DUP6 ADD PUSH1 0x5 SHR DUP3 ADD SWAP2 POP JUMPDEST DUP2 DUP2 LT ISZERO PUSH2 0x18C2 JUMPI DUP3 DUP2 SSTORE PUSH1 0x1 ADD PUSH2 0x18AF JUMP JUMPDEST POP POP POP JUMPDEST POP POP POP JUMP JUMPDEST PUSH8 0xFFFFFFFFFFFFFFFF DUP4 GT ISZERO PUSH2 0x18E3 JUMPI PUSH2 0x18E3 PUSH2 0x1766 JUMP JUMPDEST PUSH2 0x18F7 DUP4 PUSH2 0x18F1 DUP4 SLOAD PUSH2 0x167F JUMP JUMPDEST DUP4 PUSH2 0x187C JUMP JUMPDEST PUSH1 0x0 PUSH1 0x1F DUP5 GT PUSH1 0x1 DUP2 EQ PUSH2 0x1949 JUMPI PUSH1 0x0 DUP6 ISZERO PUSH2 0x1913 JUMPI POP DUP4 DUP3 ADD CALLDATALOAD JUMPDEST PUSH32 0xFFFFFFFFFFFFFFFFFFFFFFFFFFFFFFFFFFFFFFFFFFFFFFFFFFFFFFFFFFFFFFFF PUSH1 0x3 DUP8 SWAP1 SHL SHR NOT AND PUSH1 0x1 DUP7 SWAP1 SHL OR DUP4 SSTORE PUSH2 0x19DF JUMP JUMPDEST PUSH1 0x0 DUP4 DUP2 MSTORE PUSH1 0x20 SWAP1 KECCAK256 PUSH32 0xFFFFFFFFFFFFFFFFFFFFFFFFFFFFFFFFFFFFFFFFFFFFFFFFFFFFFFFFFFFFFFE0 DUP7 AND SWAP1 DUP4 JUMPDEST DUP3 DUP2 LT ISZERO PUSH2 0x1998 JUMPI DUP7 DUP6 ADD CALLDATALOAD DUP3 SSTORE PUSH1 0x20 SWAP5 DUP6 ADD SWAP5 PUSH1 0x1 SWAP1 SWAP3 ADD SWAP2 ADD PUSH2 0x1978 JUMP JUMPDEST POP DUP7 DUP3 LT ISZERO PUSH2 0x19D3 JUMPI PUSH32 0xFFFFFFFFFFFFFFFFFFFFFFFFFFFFFFFFFFFFFFFFFFFFFFFFFFFFFFFFFFFFFFFF PUSH1 0xF8 DUP9 PUSH1 0x3 SHL AND SHR NOT DUP5 DUP8 ADD CALLDATALOAD AND DUP2 SSTORE JUMPDEST POP POP PUSH1 0x1 DUP6 PUSH1 0x1 SHL ADD DUP4 SSTORE JUMPDEST POP POP POP POP POP JUMP JUMPDEST PUSH32 0x4E487B7100000000000000000000000000000000000000000000000000000000 PUSH1 0x0 MSTORE PUSH1 0x32 PUSH1 0x4 MSTORE PUSH1 0x24 PUSH1 0x0 REVERT JUMPDEST PUSH32 0x4E487B7100000000000000000000000000000000000000000000000000000000 PUSH1 0x0 MSTORE PUSH1 0x11 PUSH1 0x4 MSTORE PUSH1 0x24 PUSH1 0x0 REVERT JUMPDEST DUP2 DUP2 SUB DUP2 DUP2 GT ISZERO PUSH2 0x30B JUMPI PUSH2 0x30B PUSH2 0x1A15 JUMP JUMPDEST DUP2 DUP2 SUB PUSH2 0x1A62 JUMPI POP POP JUMP JUMPDEST PUSH2 0x1A6C DUP3 SLOAD PUSH2 0x167F JUMP JUMPDEST PUSH8 0xFFFFFFFFFFFFFFFF DUP2 GT ISZERO PUSH2 0x1A84 JUMPI PUSH2 0x1A84 PUSH2 0x1766 JUMP JUMPDEST PUSH2 0x1A98 DUP2 PUSH2 0x1A92 DUP5 SLOAD PUSH2 0x167F JUMP JUMPDEST DUP5 PUSH2 0x187C JUMP JUMPDEST PUSH1 0x0 PUSH1 0x1F DUP3 GT PUSH1 0x1 DUP2 EQ PUSH2 0x1AEA JUMPI PUSH1 0x0 DUP4 ISZERO PUSH2 0x1AB4 JUMPI POP DUP5 DUP3 ADD SLOAD JUMPDEST PUSH32 0xFFFFFFFFFFFFFFFFFFFFFFFFFFFFFFFFFFFFFFFFFFFFFFFFFFFFFFFFFFFFFFFF PUSH1 0x3 DUP6 SWAP1 SHL SHR NOT AND PUSH1 0x1 DUP5 SWAP1 SHL OR DUP5 SSTORE PUSH2 0x19DF JUMP JUMPDEST PUSH1 0x0 DUP6 DUP2 MSTORE PUSH1 0x20 SWAP1 KECCAK256 PUSH32 0xFFFFFFFFFFFFFFFFFFFFFFFFFFFFFFFFFFFFFFFFFFFFFFFFFFFFFFFFFFFFFFE0 DUP5 AND SWAP1 PUSH1 0x0 DUP7 DUP2 MSTORE PUSH1 0x20 SWAP1 KECCAK256 DUP5 JUMPDEST DUP4 DUP2 LT ISZERO PUSH2 0x1B42 JUMPI DUP3 DUP7 ADD SLOAD DUP3 SSTORE PUSH1 0x1 SWAP6 DUP7 ADD SWAP6 SWAP1 SWAP2 ADD SWAP1 PUSH1 0x20 ADD PUSH2 0x1B22 JUMP JUMPDEST POP DUP6 DUP4 LT ISZERO PUSH2 0x1B7E JUMPI DUP2 DUP6 ADD SLOAD PUSH32 0xFFFFFFFFFFFFFFFFFFFFFFFFFFFFFFFFFFFFFFFFFFFFFFFFFFFFFFFFFFFFFFFF PUSH1 0x3 DUP9 SWAP1 SHL PUSH1 0xF8 AND SHR NOT AND DUP2 SSTORE JUMPDEST POP POP POP POP POP PUSH1 0x1 SWAP1 DUP2 SHL ADD SWAP1 SSTORE POP JUMP JUMPDEST PUSH1 0x0 PUSH32 0xFFFFFFFFFFFFFFFFFFFFFFFFFFFFFFFFFFFFFFFFFFFFFFFFFFFFFFFFFFFFFFFF DUP3 SUB PUSH2 0x1BBF JUMPI PUSH2 0x1BBF PUSH2 0x1A15 JUMP JUMPDEST POP PUSH1 0x1 ADD SWAP1 JUMP JUMPDEST PUSH32 0x4E487B7100000000000000000000000000000000000000000000000000000000 PUSH1 0x0 MSTORE PUSH1 0x31 PUSH1 0x4 MSTORE PUSH1 0x24 PUSH1 0x0 REVERT INVALID LOG2 PUSH5 0x6970667358 0x22 SLT KECCAK256 0xB9 0xE2 PUSH31 0xAE382A0529901C0239EE7A7FAE89FF73544844B00AACA97564180289916473 PUSH16 0x6C634300081200330000000000000000 "
				},
				"gasEstimates": {
					"creation": {
						"codeDepositCost": "1442200",
						"executionCost": "infinite",
						"totalCost": "infinite"
					},
					"external": {
						"": "141",
						"AddCurrency(string,address)": "infinite",
						"GetCurrencyAddress(string)": "infinite",
						"GetCurrencyList()": "infinite",
						"GetCurrencySymbol(address)": "infinite",
						"GetMATICFee()": "infinite",
						"GetTokenFee(string)": "infinite",
						"Name()": "infinite",
						"RemoveCurrency(string)": "infinite",
						"UpdateMATICFee(uint24)": "infinite",
						"UpdateTokenFee(string,uint24)": "infinite"
					}
				},
				"methodIdentifiers": {
					"AddCurrency(string,address)": "6080e7ff",
					"GetCurrencyAddress(string)": "da240f1e",
					"GetCurrencyList()": "d99699df",
					"GetCurrencySymbol(address)": "a56c56c3",
					"GetMATICFee()": "e43dd488",
					"GetTokenFee(string)": "1727de4e",
					"Name()": "8052474d",
					"RemoveCurrency(string)": "8e9497d2",
					"UpdateMATICFee(uint24)": "6010ab49",
					"UpdateTokenFee(string,uint24)": "55a90e8d"
				}
			},
			"storageLayout": {
				"storage": [
					{
						"astId": 49,
						"contract": "contracts/Payment/Currencies.sol:Currencies",
						"label": "currencies",
						"offset": 0,
						"slot": "0",
						"type": "t_array(t_string_storage)dyn_storage"
					},
					{
						"astId": 53,
						"contract": "contracts/Payment/Currencies.sol:Currencies",
						"label": "symbolToAddress",
						"offset": 0,
						"slot": "1",
						"type": "t_mapping(t_string_memory_ptr,t_address)"
					},
					{
						"astId": 57,
						"contract": "contracts/Payment/Currencies.sol:Currencies",
						"label": "addressToSymbol",
						"offset": 0,
						"slot": "2",
						"type": "t_mapping(t_address,t_string_storage)"
					},
					{
						"astId": 61,
						"contract": "contracts/Payment/Currencies.sol:Currencies",
						"label": "currencyFee",
						"offset": 0,
						"slot": "3",
						"type": "t_mapping(t_address,t_uint24)"
					}
				],
				"types": {
					"t_address": {
						"encoding": "inplace",
						"label": "address",
						"numberOfBytes": "20"
					},
					"t_array(t_string_storage)dyn_storage": {
						"base": "t_string_storage",
						"encoding": "dynamic_array",
						"label": "string[]",
						"numberOfBytes": "32"
					},
					"t_mapping(t_address,t_string_storage)": {
						"encoding": "mapping",
						"key": "t_address",
						"label": "mapping(address => string)",
						"numberOfBytes": "32",
						"value": "t_string_storage"
					},
					"t_mapping(t_address,t_uint24)": {
						"encoding": "mapping",
						"key": "t_address",
						"label": "mapping(address => uint24)",
						"numberOfBytes": "32",
						"value": "t_uint24"
					},
					"t_mapping(t_string_memory_ptr,t_address)": {
						"encoding": "mapping",
						"key": "t_string_memory_ptr",
						"label": "mapping(string => address)",
						"numberOfBytes": "32",
						"value": "t_address"
					},
					"t_string_memory_ptr": {
						"encoding": "bytes",
						"label": "string",
						"numberOfBytes": "32"
					},
					"t_string_storage": {
						"encoding": "bytes",
						"label": "string",
						"numberOfBytes": "32"
					},
					"t_uint24": {
						"encoding": "inplace",
						"label": "uint24",
						"numberOfBytes": "3"
					}
				}
			},
			"userdoc": {
				"kind": "user",
				"methods": {},
				"version": 1
			}
		}
	}
}