{
	"Payment/Implementors.sol": {
		"Implementors": {
			"abi": [
				{
					"stateMutability": "nonpayable",
					"type": "fallback"
				},
				{
					"inputs": [
						{
							"internalType": "address",
							"name": "_implementor",
							"type": "address"
						}
					],
					"name": "ImplementorProfile",
					"outputs": [
						{
							"internalType": "uint32",
							"name": "epochSales",
							"type": "uint32"
						},
						{
							"internalType": "uint32",
							"name": "epochEnd",
							"type": "uint32"
						},
						{
							"internalType": "uint8",
							"name": "epochReward",
							"type": "uint8"
						}
					],
					"stateMutability": "view",
					"type": "function"
				},
				{
					"inputs": [
						{
							"internalType": "address",
							"name": "_implementor",
							"type": "address"
						}
					],
					"name": "ImplementorReward",
					"outputs": [
						{
							"internalType": "uint8",
							"name": "",
							"type": "uint8"
						}
					],
					"stateMutability": "nonpayable",
					"type": "function"
				},
				{
					"inputs": [],
					"name": "Name",
					"outputs": [
						{
							"internalType": "string",
							"name": "",
							"type": "string"
						}
					],
					"stateMutability": "view",
					"type": "function"
				},
				{
					"stateMutability": "payable",
					"type": "receive"
				}
			],
			"devdoc": {
				"kind": "dev",
				"methods": {},
				"version": 1
			},
			"evm": {
				"assembly": "    /* \"Payment/Implementors.sol\":181:2690  contract Implementors{... */\n  mstore(0x40, 0x80)\n  callvalue\n  dup1\n  iszero\n  tag_1\n  jumpi\n  0x00\n  dup1\n  revert\ntag_1:\n  pop\n  dataSize(sub_0)\n  dup1\n  dataOffset(sub_0)\n  0x00\n  codecopy\n  0x00\n  return\nstop\n\nsub_0: assembly {\n        /* \"Payment/Implementors.sol\":181:2690  contract Implementors{... */\n      mstore(0x40, 0x80)\n      jumpi(tag_1, lt(calldatasize, 0x04))\n      shr(0xe0, calldataload(0x00))\n      dup1\n      0x09256eae\n      eq\n      tag_3\n      jumpi\n      dup1\n      0x8052474d\n      eq\n      tag_4\n      jumpi\n      dup1\n      0x9b84b986\n      eq\n      tag_5\n      jumpi\n      jump(tag_2)\n    tag_1:\n      jumpi(tag_2, calldatasize)\n        /* \"Payment/Implementors.sol\":2603:2611  revert() */\n      0x00\n      dup1\n      revert\n        /* \"Payment/Implementors.sol\":181:2690  contract Implementors{... */\n    tag_2:\n      callvalue\n      dup1\n      iszero\n      tag_8\n      jumpi\n      0x00\n      dup1\n      revert\n    tag_8:\n        /* \"Payment/Implementors.sol\":2668:2676  revert() */\n      0x00\n      dup1\n      revert\n        /* \"Payment/Implementors.sol\":2166:2477  function ImplementorProfile(address _implementor) external view returns(uint32 epochSales, uint32 epochEnd, uint8 epochReward){... */\n    tag_3:\n      callvalue\n      dup1\n      iszero\n      tag_11\n      jumpi\n      0x00\n      dup1\n      revert\n    tag_11:\n      pop\n      tag_12\n      tag_13\n      calldatasize\n      0x04\n      tag_14\n      jump\t// in\n    tag_13:\n        /* \"Payment/Implementors.sol\":2330:2355  implementor[_implementor] */\n      0xffffffffffffffffffffffffffffffffffffffff\n      and\n        /* \"Payment/Implementors.sol\":2238:2255  uint32 epochSales */\n      0x00\n        /* \"Payment/Implementors.sol\":2330:2355  implementor[_implementor] */\n      swap1\n      dup2\n      mstore\n      0x20\n      dup2\n      dup2\n      mstore\n      0x40\n      swap2\n      dup3\n      swap1\n      keccak256\n        /* \"Payment/Implementors.sol\":2305:2355  Implementor memory imp = implementor[_implementor] */\n      dup3\n      mload\n      0x60\n      dup2\n      add\n      dup5\n      mstore\n      swap1\n      sload\n      0xffffffff\n      dup1\n      dup3\n      and\n      dup1\n      dup5\n      mstore\n      0x0100000000\n      dup4\n      div\n      swap1\n      swap2\n      and\n      swap4\n      dup4\n      add\n      dup5\n      swap1\n      mstore\n      0x010000000000000000\n      swap1\n      swap2\n      div\n      0xff\n      and\n      swap2\n      swap1\n      swap4\n      add\n      dup2\n      swap1\n      mstore\n      swap2\n      swap3\n      swap1\n      swap2\n      swap1\n        /* \"Payment/Implementors.sol\":2166:2477  function ImplementorProfile(address _implementor) external view returns(uint32 epochSales, uint32 epochEnd, uint8 epochReward){... */\n      jump\n    tag_12:\n      0x40\n      dup1\n      mload\n        /* \"#utility.yul\":629:639   */\n      0xffffffff\n        /* \"#utility.yul\":666:681   */\n      swap5\n      dup6\n      and\n        /* \"#utility.yul\":648:682   */\n      dup2\n      mstore\n        /* \"#utility.yul\":718:733   */\n      swap4\n      swap1\n      swap3\n      and\n        /* \"#utility.yul\":713:715   */\n      0x20\n        /* \"#utility.yul\":698:716   */\n      dup5\n      add\n        /* \"#utility.yul\":691:734   */\n      mstore\n        /* \"#utility.yul\":782:786   */\n      0xff\n        /* \"#utility.yul\":770:787   */\n      and\n        /* \"#utility.yul\":750:768   */\n      swap1\n      dup3\n      add\n        /* \"#utility.yul\":743:788   */\n      mstore\n        /* \"#utility.yul\":607:609   */\n      0x60\n        /* \"#utility.yul\":592:610   */\n      add\n        /* \"Payment/Implementors.sol\":2166:2477  function ImplementorProfile(address _implementor) external view returns(uint32 epochSales, uint32 epochEnd, uint8 epochReward){... */\n    tag_16:\n      mload(0x40)\n      dup1\n      swap2\n      sub\n      swap1\n      return\n        /* \"Payment/Implementors.sol\":211:263  string constant public Name = \"Payment.Implementors\" */\n    tag_4:\n      callvalue\n      dup1\n      iszero\n      tag_18\n      jumpi\n      0x00\n      dup1\n      revert\n    tag_18:\n      pop\n      tag_19\n      mload(0x40)\n      dup1\n      0x40\n      add\n      0x40\n      mstore\n      dup1\n      0x14\n      dup2\n      mstore\n      0x20\n      add\n      0x5061796d656e742e496d706c656d656e746f7273000000000000000000000000\n      dup2\n      mstore\n      pop\n      dup2\n      jump\n    tag_19:\n      mload(0x40)\n      tag_16\n      swap2\n      swap1\n      tag_22\n      jump\t// in\n        /* \"Payment/Implementors.sol\":792:2079  function ImplementorReward(address _implementor) external returns(uint8){... */\n    tag_5:\n      callvalue\n      dup1\n      iszero\n      tag_23\n      jumpi\n      0x00\n      dup1\n      revert\n    tag_23:\n      pop\n      tag_24\n      tag_25\n      calldatasize\n      0x04\n      tag_14\n      jump\t// in\n    tag_25:\n      tag_26\n      jump\t// in\n    tag_24:\n      mload(0x40)\n        /* \"#utility.yul\":1583:1587   */\n      0xff\n        /* \"#utility.yul\":1571:1588   */\n      swap1\n      swap2\n      and\n        /* \"#utility.yul\":1553:1589   */\n      dup2\n      mstore\n        /* \"#utility.yul\":1541:1543   */\n      0x20\n        /* \"#utility.yul\":1526:1544   */\n      add\n        /* \"Payment/Implementors.sol\":792:2079  function ImplementorReward(address _implementor) external returns(uint8){... */\n      tag_16\n        /* \"#utility.yul\":1411:1595   */\n      jump\n        /* \"Payment/Implementors.sol\":792:2079  function ImplementorReward(address _implementor) external returns(uint8){... */\n    tag_26:\n        /* \"Payment/Implementors.sol\":880:915  ws.GetAddress(\"Payment.Proccessor\") */\n      mload(0x40)\n      0x8b05f6de00000000000000000000000000000000000000000000000000000000\n      dup2\n      mstore\n        /* \"#utility.yul\":1802:1804   */\n      0x20\n        /* \"Payment/Implementors.sol\":880:915  ws.GetAddress(\"Payment.Proccessor\") */\n      0x04\n      dup3\n      add\n        /* \"#utility.yul\":1784:1805   */\n      mstore\n        /* \"#utility.yul\":1841:1843   */\n      0x12\n        /* \"#utility.yul\":1821:1839   */\n      0x24\n      dup3\n      add\n        /* \"#utility.yul\":1814:1844   */\n      mstore\n        /* \"#utility.yul\":1880:1900   */\n      0x5061796d656e742e50726f63636573736f720000000000000000000000000000\n        /* \"#utility.yul\":1860:1878   */\n      0x44\n      dup3\n      add\n        /* \"#utility.yul\":1853:1901   */\n      mstore\n        /* \"Payment/Implementors.sol\":858:863  uint8 */\n      0x00\n      swap1\n        /* \"Payment/Implementors.sol\":919:929  msg.sender */\n      caller\n      swap1\n        /* \"Payment/Implementors.sol\":316:358  0x7F6b1F900113A9b46E4F38395bFC28075324a9F4 */\n      0x7f6b1f900113a9b46e4f38395bfc28075324a9f4\n      swap1\n        /* \"Payment/Implementors.sol\":880:893  ws.GetAddress */\n      0x8b05f6de\n      swap1\n        /* \"#utility.yul\":1918:1936   */\n      0x64\n      add\n        /* \"Payment/Implementors.sol\":880:915  ws.GetAddress(\"Payment.Proccessor\") */\n      0x20\n      mload(0x40)\n      dup1\n      dup4\n      sub\n      dup2\n      dup7\n      gas\n      staticcall\n      iszero\n      dup1\n      iszero\n      tag_34\n      jumpi\n      returndatasize\n      0x00\n      dup1\n      returndatacopy\n      revert(0x00, returndatasize)\n    tag_34:\n      pop\n      pop\n      pop\n      pop\n      mload(0x40)\n      returndatasize\n      not(0x1f)\n      0x1f\n      dup3\n      add\n      and\n      dup3\n      add\n      dup1\n      0x40\n      mstore\n      pop\n      dup2\n      add\n      swap1\n      tag_35\n      swap2\n      swap1\n      tag_36\n      jump\t// in\n    tag_35:\n        /* \"Payment/Implementors.sol\":880:929  ws.GetAddress(\"Payment.Proccessor\") != msg.sender */\n      0xffffffffffffffffffffffffffffffffffffffff\n      and\n      eq\n        /* \"Payment/Implementors.sol\":877:952  if(ws.GetAddress(\"Payment.Proccessor\") != msg.sender)... */\n      tag_37\n      jumpi\n      pop\n        /* \"Payment/Implementors.sol\":951:952  0 */\n      0x00\n      swap2\n        /* \"Payment/Implementors.sol\":792:2079  function ImplementorReward(address _implementor) external returns(uint8){... */\n      swap1\n      pop\n      jump\t// out\n        /* \"Payment/Implementors.sol\":877:952  if(ws.GetAddress(\"Payment.Proccessor\") != msg.sender)... */\n    tag_37:\n        /* \"Payment/Implementors.sol\":991:1016  implementor[_implementor] */\n      0xffffffffffffffffffffffffffffffffffffffff\n      dup3\n      and\n        /* \"Payment/Implementors.sol\":965:988  Implementor storage imp */\n      0x00\n        /* \"Payment/Implementors.sol\":991:1016  implementor[_implementor] */\n      swap1\n      dup2\n      mstore\n      0x20\n      dup2\n      swap1\n      mstore\n      0x40\n      swap1\n      keccak256\n        /* \"Payment/Implementors.sol\":1032:1044  imp.epochEnd */\n      dup1\n      sload\n        /* \"Payment/Implementors.sol\":1032:1070  imp.epochEnd < uint32(block.timestamp) */\n      0xffffffff\n        /* \"Payment/Implementors.sol\":1054:1069  block.timestamp */\n      timestamp\n        /* \"Payment/Implementors.sol\":1032:1070  imp.epochEnd < uint32(block.timestamp) */\n      dup2\n      and\n        /* \"Payment/Implementors.sol\":1032:1044  imp.epochEnd */\n      0x0100000000\n      swap1\n      swap3\n      div\n      and\n        /* \"Payment/Implementors.sol\":1032:1070  imp.epochEnd < uint32(block.timestamp) */\n      lt\n        /* \"Payment/Implementors.sol\":1029:2003  if(imp.epochEnd < uint32(block.timestamp)){... */\n      iszero\n      tag_38\n      jumpi\n        /* \"Payment/Implementors.sol\":1108:1122  imp.epochSales */\n      dup1\n      sload\n      0xffffffff\n      and\n        /* \"Payment/Implementors.sol\":1155:1160  24999 */\n      0x61a7\n        /* \"Payment/Implementors.sol\":1142:1160  epochSales > 24999 */\n      dup2\n      gt\n        /* \"Payment/Implementors.sol\":1139:1890  if(epochSales > 24999)... */\n      iszero\n      tag_39\n      jumpi\n        /* \"Payment/Implementors.sol\":1179:1200  imp.epochReward = 200 */\n      dup2\n      sload\n      0xffffffffffffffffffffffffffffffffffffffffffffff00ffffffffffffffff\n      and\n      0xc80000000000000000\n      or\n      dup3\n      sstore\n        /* \"Payment/Implementors.sol\":1139:1890  if(epochSales > 24999)... */\n      jump(tag_56)\n    tag_39:\n        /* \"Payment/Implementors.sol\":1236:1241  12499 */\n      0x30d3\n        /* \"Payment/Implementors.sol\":1223:1233  epochSales */\n      dup2\n        /* \"Payment/Implementors.sol\":1223:1241  epochSales > 12499 */\n      0xffffffff\n      and\n      gt\n        /* \"Payment/Implementors.sol\":1220:1890  if(epochSales > 12499)... */\n      iszero\n      tag_41\n      jumpi\n        /* \"Payment/Implementors.sol\":1260:1281  imp.epochReward = 150 */\n      dup2\n      sload\n      0xffffffffffffffffffffffffffffffffffffffffffffff00ffffffffffffffff\n      and\n      0x960000000000000000\n      or\n      dup3\n      sstore\n        /* \"Payment/Implementors.sol\":1220:1890  if(epochSales > 12499)... */\n      jump(tag_56)\n    tag_41:\n        /* \"Payment/Implementors.sol\":1317:1321  7499 */\n      0x1d4b\n        /* \"Payment/Implementors.sol\":1304:1314  epochSales */\n      dup2\n        /* \"Payment/Implementors.sol\":1304:1321  epochSales > 7499 */\n      0xffffffff\n      and\n      gt\n        /* \"Payment/Implementors.sol\":1301:1890  if(epochSales > 7499)... */\n      iszero\n      tag_43\n      jumpi\n        /* \"Payment/Implementors.sol\":1340:1361  imp.epochReward = 125 */\n      dup2\n      sload\n      0xffffffffffffffffffffffffffffffffffffffffffffff00ffffffffffffffff\n      and\n      0x7d0000000000000000\n      or\n      dup3\n      sstore\n        /* \"Payment/Implementors.sol\":1301:1890  if(epochSales > 7499)... */\n      jump(tag_56)\n    tag_43:\n        /* \"Payment/Implementors.sol\":1397:1401  4999 */\n      0x1387\n        /* \"Payment/Implementors.sol\":1384:1394  epochSales */\n      dup2\n        /* \"Payment/Implementors.sol\":1384:1401  epochSales > 4999 */\n      0xffffffff\n      and\n      gt\n        /* \"Payment/Implementors.sol\":1381:1890  if(epochSales > 4999)... */\n      iszero\n      tag_45\n      jumpi\n        /* \"Payment/Implementors.sol\":1420:1441  imp.epochReward = 100 */\n      dup2\n      sload\n      0xffffffffffffffffffffffffffffffffffffffffffffff00ffffffffffffffff\n      and\n      0x640000000000000000\n      or\n      dup3\n      sstore\n        /* \"Payment/Implementors.sol\":1381:1890  if(epochSales > 4999)... */\n      jump(tag_56)\n    tag_45:\n        /* \"Payment/Implementors.sol\":1477:1481  2499 */\n      0x09c3\n        /* \"Payment/Implementors.sol\":1464:1474  epochSales */\n      dup2\n        /* \"Payment/Implementors.sol\":1464:1481  epochSales > 2499 */\n      0xffffffff\n      and\n      gt\n        /* \"Payment/Implementors.sol\":1461:1890  if(epochSales > 2499)... */\n      iszero\n      tag_47\n      jumpi\n        /* \"Payment/Implementors.sol\":1500:1520  imp.epochReward = 80 */\n      dup2\n      sload\n      0xffffffffffffffffffffffffffffffffffffffffffffff00ffffffffffffffff\n      and\n      0x500000000000000000\n      or\n      dup3\n      sstore\n        /* \"Payment/Implementors.sol\":1461:1890  if(epochSales > 2499)... */\n      jump(tag_56)\n    tag_47:\n        /* \"Payment/Implementors.sol\":1556:1560  1499 */\n      0x05db\n        /* \"Payment/Implementors.sol\":1543:1553  epochSales */\n      dup2\n        /* \"Payment/Implementors.sol\":1543:1560  epochSales > 1499 */\n      0xffffffff\n      and\n      gt\n        /* \"Payment/Implementors.sol\":1540:1890  if(epochSales > 1499)... */\n      iszero\n      tag_49\n      jumpi\n        /* \"Payment/Implementors.sol\":1579:1599  imp.epochReward = 60 */\n      dup2\n      sload\n      0xffffffffffffffffffffffffffffffffffffffffffffff00ffffffffffffffff\n      and\n      0x3c0000000000000000\n      or\n      dup3\n      sstore\n        /* \"Payment/Implementors.sol\":1540:1890  if(epochSales > 1499)... */\n      jump(tag_56)\n    tag_49:\n        /* \"Payment/Implementors.sol\":1635:1638  999 */\n      0x03e7\n        /* \"Payment/Implementors.sol\":1622:1632  epochSales */\n      dup2\n        /* \"Payment/Implementors.sol\":1622:1638  epochSales > 999 */\n      0xffffffff\n      and\n      gt\n        /* \"Payment/Implementors.sol\":1619:1890  if(epochSales > 999)... */\n      iszero\n      tag_51\n      jumpi\n        /* \"Payment/Implementors.sol\":1657:1677  imp.epochReward = 50 */\n      dup2\n      sload\n      0xffffffffffffffffffffffffffffffffffffffffffffff00ffffffffffffffff\n      and\n      0x320000000000000000\n      or\n      dup3\n      sstore\n        /* \"Payment/Implementors.sol\":1619:1890  if(epochSales > 999)... */\n      jump(tag_56)\n    tag_51:\n        /* \"Payment/Implementors.sol\":1713:1716  499 */\n      0x01f3\n        /* \"Payment/Implementors.sol\":1700:1710  epochSales */\n      dup2\n        /* \"Payment/Implementors.sol\":1700:1716  epochSales > 499 */\n      0xffffffff\n      and\n      gt\n        /* \"Payment/Implementors.sol\":1697:1890  if(epochSales > 499)... */\n      iszero\n      tag_53\n      jumpi\n        /* \"Payment/Implementors.sol\":1735:1755  imp.epochReward = 40 */\n      dup2\n      sload\n      0xffffffffffffffffffffffffffffffffffffffffffffff00ffffffffffffffff\n      and\n      0x280000000000000000\n      or\n      dup3\n      sstore\n        /* \"Payment/Implementors.sol\":1697:1890  if(epochSales > 499)... */\n      jump(tag_56)\n    tag_53:\n        /* \"Payment/Implementors.sol\":1791:1794  249 */\n      0xf9\n        /* \"Payment/Implementors.sol\":1778:1788  epochSales */\n      dup2\n        /* \"Payment/Implementors.sol\":1778:1794  epochSales > 249 */\n      0xffffffff\n      and\n      gt\n        /* \"Payment/Implementors.sol\":1775:1890  if(epochSales > 249)... */\n      iszero\n      tag_55\n      jumpi\n        /* \"Payment/Implementors.sol\":1813:1833  imp.epochReward = 35 */\n      dup2\n      sload\n      0xffffffffffffffffffffffffffffffffffffffffffffff00ffffffffffffffff\n      and\n      0x230000000000000000\n      or\n      dup3\n      sstore\n        /* \"Payment/Implementors.sol\":1775:1890  if(epochSales > 249)... */\n      jump(tag_56)\n    tag_55:\n        /* \"Payment/Implementors.sol\":1870:1890  imp.epochReward = 30 */\n      dup2\n      sload\n      0xffffffffffffffffffffffffffffffffffffffffffffff00ffffffffffffffff\n      and\n      0x1e0000000000000000\n      or\n      dup3\n      sstore\n        /* \"Payment/Implementors.sol\":1775:1890  if(epochSales > 249)... */\n    tag_56:\n        /* \"Payment/Implementors.sol\":1907:1928  delete imp.epochSales */\n      dup2\n      sload\n      0xffffffffffffffffffffffffffffffffffffffffffffffffffffffff00000000\n      and\n      dup3\n      sstore\n        /* \"Payment/Implementors.sol\":1965:1990  block.timestamp + 15 days */\n      tag_57\n        /* \"Payment/Implementors.sol\":1965:1980  block.timestamp */\n      timestamp\n        /* \"Payment/Implementors.sol\":1983:1990  15 days */\n      0x13c680\n        /* \"Payment/Implementors.sol\":1965:1990  block.timestamp + 15 days */\n      tag_58\n      jump\t// in\n    tag_57:\n        /* \"Payment/Implementors.sol\":1943:1991  imp.epochEnd = uint32(block.timestamp + 15 days) */\n      dup3\n      sload\n      0xffffffff\n      swap2\n      swap1\n      swap2\n      and\n      0x0100000000\n      mul\n      0xffffffffffffffffffffffffffffffffffffffffffffffff00000000ffffffff\n      swap1\n      swap2\n      and\n      or\n      dup3\n      sstore\n      pop\n        /* \"Payment/Implementors.sol\":1029:2003  if(imp.epochEnd < uint32(block.timestamp)){... */\n    tag_38:\n        /* \"Payment/Implementors.sol\":2015:2034  imp.epochSales += 1 */\n      dup1\n      sload\n        /* \"Payment/Implementors.sol\":2033:2034  1 */\n      0x01\n      swap1\n        /* \"Payment/Implementors.sol\":2015:2018  imp */\n      dup3\n      swap1\n        /* \"Payment/Implementors.sol\":2015:2029  imp.epochSales */\n      0x00\n      swap1\n        /* \"Payment/Implementors.sol\":2015:2034  imp.epochSales += 1 */\n      tag_59\n      swap1\n        /* \"Payment/Implementors.sol\":2033:2034  1 */\n      dup5\n      swap1\n        /* \"Payment/Implementors.sol\":2015:2034  imp.epochSales += 1 */\n      0xffffffff\n      and\n      tag_60\n      jump\t// in\n    tag_59:\n      dup3\n      sload\n      0xffffffff\n      swap2\n      dup3\n      and\n      0x0100\n      swap4\n      swap1\n      swap4\n      exp\n      swap3\n      dup4\n      mul\n      swap2\n      swap1\n      swap3\n      mul\n      not\n      swap1\n      swap2\n      and\n      or\n      swap1\n      sstore\n      pop\n        /* \"Payment/Implementors.sol\":2055:2070  imp.epochReward */\n      sload\n      0xff\n      0x010000000000000000\n      swap1\n      swap2\n      div\n      and\n      swap3\n        /* \"Payment/Implementors.sol\":792:2079  function ImplementorReward(address _implementor) external returns(uint8){... */\n      swap2\n      pop\n      pop\n      jump\t// out\n        /* \"#utility.yul\":14:168   */\n    tag_61:\n        /* \"#utility.yul\":100:142   */\n      0xffffffffffffffffffffffffffffffffffffffff\n        /* \"#utility.yul\":93:98   */\n      dup2\n        /* \"#utility.yul\":89:143   */\n      and\n        /* \"#utility.yul\":82:87   */\n      dup2\n        /* \"#utility.yul\":79:144   */\n      eq\n        /* \"#utility.yul\":69:162   */\n      tag_65\n      jumpi\n        /* \"#utility.yul\":158:159   */\n      0x00\n        /* \"#utility.yul\":155:156   */\n      dup1\n        /* \"#utility.yul\":148:160   */\n      revert\n        /* \"#utility.yul\":69:162   */\n    tag_65:\n        /* \"#utility.yul\":14:168   */\n      pop\n      jump\t// out\n        /* \"#utility.yul\":173:420   */\n    tag_14:\n        /* \"#utility.yul\":232:238   */\n      0x00\n        /* \"#utility.yul\":285:287   */\n      0x20\n        /* \"#utility.yul\":273:282   */\n      dup3\n        /* \"#utility.yul\":264:271   */\n      dup5\n        /* \"#utility.yul\":260:283   */\n      sub\n        /* \"#utility.yul\":256:288   */\n      slt\n        /* \"#utility.yul\":253:305   */\n      iszero\n      tag_67\n      jumpi\n        /* \"#utility.yul\":301:302   */\n      0x00\n        /* \"#utility.yul\":298:299   */\n      dup1\n        /* \"#utility.yul\":291:303   */\n      revert\n        /* \"#utility.yul\":253:305   */\n    tag_67:\n        /* \"#utility.yul\":340:349   */\n      dup2\n        /* \"#utility.yul\":327:350   */\n      calldataload\n        /* \"#utility.yul\":359:390   */\n      tag_68\n        /* \"#utility.yul\":384:389   */\n      dup2\n        /* \"#utility.yul\":359:390   */\n      tag_61\n      jump\t// in\n    tag_68:\n        /* \"#utility.yul\":409:414   */\n      swap4\n        /* \"#utility.yul\":173:420   */\n      swap3\n      pop\n      pop\n      pop\n      jump\t// out\n        /* \"#utility.yul\":799:1406   */\n    tag_22:\n        /* \"#utility.yul\":911:915   */\n      0x00\n        /* \"#utility.yul\":940:942   */\n      0x20\n        /* \"#utility.yul\":969:971   */\n      dup1\n        /* \"#utility.yul\":958:967   */\n      dup4\n        /* \"#utility.yul\":951:972   */\n      mstore\n        /* \"#utility.yul\":1001:1007   */\n      dup4\n        /* \"#utility.yul\":995:1008   */\n      mload\n        /* \"#utility.yul\":1044:1050   */\n      dup1\n        /* \"#utility.yul\":1039:1041   */\n      dup3\n        /* \"#utility.yul\":1028:1037   */\n      dup6\n        /* \"#utility.yul\":1024:1042   */\n      add\n        /* \"#utility.yul\":1017:1051   */\n      mstore\n        /* \"#utility.yul\":1069:1070   */\n      0x00\n        /* \"#utility.yul\":1079:1219   */\n    tag_71:\n        /* \"#utility.yul\":1093:1099   */\n      dup2\n        /* \"#utility.yul\":1090:1091   */\n      dup2\n        /* \"#utility.yul\":1087:1100   */\n      lt\n        /* \"#utility.yul\":1079:1219   */\n      iszero\n      tag_73\n      jumpi\n        /* \"#utility.yul\":1188:1202   */\n      dup6\n      dup2\n      add\n        /* \"#utility.yul\":1184:1207   */\n      dup4\n      add\n        /* \"#utility.yul\":1178:1208   */\n      mload\n        /* \"#utility.yul\":1154:1171   */\n      dup6\n      dup3\n      add\n        /* \"#utility.yul\":1173:1175   */\n      0x40\n        /* \"#utility.yul\":1150:1176   */\n      add\n        /* \"#utility.yul\":1143:1209   */\n      mstore\n        /* \"#utility.yul\":1108:1118   */\n      dup3\n      add\n        /* \"#utility.yul\":1079:1219   */\n      jump(tag_71)\n    tag_73:\n        /* \"#utility.yul\":1083:1086   */\n      pop\n        /* \"#utility.yul\":1268:1269   */\n      0x00\n        /* \"#utility.yul\":1263:1265   */\n      0x40\n        /* \"#utility.yul\":1254:1260   */\n      dup3\n        /* \"#utility.yul\":1243:1252   */\n      dup7\n        /* \"#utility.yul\":1239:1261   */\n      add\n        /* \"#utility.yul\":1235:1266   */\n      add\n        /* \"#utility.yul\":1228:1270   */\n      mstore\n        /* \"#utility.yul\":1397:1399   */\n      0x40\n        /* \"#utility.yul\":1327:1393   */\n      0xffffffffffffffffffffffffffffffffffffffffffffffffffffffffffffffe0\n        /* \"#utility.yul\":1322:1324   */\n      0x1f\n        /* \"#utility.yul\":1314:1320   */\n      dup4\n        /* \"#utility.yul\":1310:1325   */\n      add\n        /* \"#utility.yul\":1306:1394   */\n      and\n        /* \"#utility.yul\":1295:1304   */\n      dup6\n        /* \"#utility.yul\":1291:1395   */\n      add\n        /* \"#utility.yul\":1287:1400   */\n      add\n        /* \"#utility.yul\":1279:1400   */\n      swap3\n      pop\n      pop\n      pop\n        /* \"#utility.yul\":799:1406   */\n      swap3\n      swap2\n      pop\n      pop\n      jump\t// out\n        /* \"#utility.yul\":1947:2198   */\n    tag_36:\n        /* \"#utility.yul\":2017:2023   */\n      0x00\n        /* \"#utility.yul\":2070:2072   */\n      0x20\n        /* \"#utility.yul\":2058:2067   */\n      dup3\n        /* \"#utility.yul\":2049:2056   */\n      dup5\n        /* \"#utility.yul\":2045:2068   */\n      sub\n        /* \"#utility.yul\":2041:2073   */\n      slt\n        /* \"#utility.yul\":2038:2090   */\n      iszero\n      tag_77\n      jumpi\n        /* \"#utility.yul\":2086:2087   */\n      0x00\n        /* \"#utility.yul\":2083:2084   */\n      dup1\n        /* \"#utility.yul\":2076:2088   */\n      revert\n        /* \"#utility.yul\":2038:2090   */\n    tag_77:\n        /* \"#utility.yul\":2118:2127   */\n      dup2\n        /* \"#utility.yul\":2112:2128   */\n      mload\n        /* \"#utility.yul\":2137:2168   */\n      tag_68\n        /* \"#utility.yul\":2162:2167   */\n      dup2\n        /* \"#utility.yul\":2137:2168   */\n      tag_61\n      jump\t// in\n        /* \"#utility.yul\":2203:2387   */\n    tag_62:\n        /* \"#utility.yul\":2255:2332   */\n      0x4e487b7100000000000000000000000000000000000000000000000000000000\n        /* \"#utility.yul\":2252:2253   */\n      0x00\n        /* \"#utility.yul\":2245:2333   */\n      mstore\n        /* \"#utility.yul\":2352:2356   */\n      0x11\n        /* \"#utility.yul\":2349:2350   */\n      0x04\n        /* \"#utility.yul\":2342:2357   */\n      mstore\n        /* \"#utility.yul\":2376:2380   */\n      0x24\n        /* \"#utility.yul\":2373:2374   */\n      0x00\n        /* \"#utility.yul\":2366:2381   */\n      revert\n        /* \"#utility.yul\":2392:2517   */\n    tag_58:\n        /* \"#utility.yul\":2457:2466   */\n      dup1\n      dup3\n      add\n        /* \"#utility.yul\":2478:2488   */\n      dup1\n      dup3\n      gt\n        /* \"#utility.yul\":2475:2511   */\n      iszero\n      tag_82\n      jumpi\n        /* \"#utility.yul\":2491:2509   */\n      tag_82\n      tag_62\n      jump\t// in\n    tag_82:\n        /* \"#utility.yul\":2392:2517   */\n      swap3\n      swap2\n      pop\n      pop\n      jump\t// out\n        /* \"#utility.yul\":2522:2694   */\n    tag_60:\n        /* \"#utility.yul\":2589:2599   */\n      0xffffffff\n        /* \"#utility.yul\":2619:2629   */\n      dup2\n      dup2\n      and\n        /* \"#utility.yul\":2631:2641   */\n      dup4\n      dup3\n      and\n        /* \"#utility.yul\":2615:2642   */\n      add\n      swap1\n        /* \"#utility.yul\":2654:2665   */\n      dup1\n      dup3\n      gt\n        /* \"#utility.yul\":2651:2688   */\n      iszero\n      tag_85\n      jumpi\n        /* \"#utility.yul\":2668:2686   */\n      tag_85\n      tag_62\n      jump\t// in\n    tag_85:\n        /* \"#utility.yul\":2651:2688   */\n      pop\n        /* \"#utility.yul\":2522:2694   */\n      swap3\n      swap2\n      pop\n      pop\n      jump\t// out\n\n    auxdata: 0xa2646970667358221220ba35e0a10e0b1db29113f682ba5a01f0df30489643c16163e79a3540d231dfa564736f6c63430008120033\n}\n",
				"bytecode": {
					"linkReferences": {},
					"object": "608060405234801561001057600080fd5b50610789806100206000396000f3fe6080604052600436106100385760003560e01c806309256eae146100535780638052474d146101035780639b84b9861461015957610042565b3661004257600080fd5b34801561004e57600080fd5b600080fd5b34801561005f57600080fd5b506100d861006e36600461063a565b73ffffffffffffffffffffffffffffffffffffffff16600090815260208181526040918290208251606081018452905463ffffffff80821680845264010000000083049091169383018490526801000000000000000090910460ff16919093018190529192909190565b6040805163ffffffff948516815293909216602084015260ff16908201526060015b60405180910390f35b34801561010f57600080fd5b5061014c6040518060400160405280601481526020017f5061796d656e742e496d706c656d656e746f727300000000000000000000000081525081565b6040516100fa919061065e565b34801561016557600080fd5b5061017961017436600461063a565b61018b565b60405160ff90911681526020016100fa565b6040517f8b05f6de00000000000000000000000000000000000000000000000000000000815260206004820152601260248201527f5061796d656e742e50726f63636573736f72000000000000000000000000000060448201526000903390737f6b1f900113a9b46e4f38395bfc28075324a9f490638b05f6de90606401602060405180830381865afa158015610226573d6000803e3d6000fd5b505050506040513d601f19601f8201168201806040525081019061024a91906106ca565b73ffffffffffffffffffffffffffffffffffffffff161461026d57506000919050565b73ffffffffffffffffffffffffffffffffffffffff82166000908152602081905260409020805463ffffffff4281166401000000009092041610156105c357805463ffffffff166161a78111156102f45781547fffffffffffffffffffffffffffffffffffffffffffffff00ffffffffffffffff1668c80000000000000000178255610555565b6130d38163ffffffff16111561033a5781547fffffffffffffffffffffffffffffffffffffffffffffff00ffffffffffffffff1668960000000000000000178255610555565b611d4b8163ffffffff1611156103805781547fffffffffffffffffffffffffffffffffffffffffffffff00ffffffffffffffff16687d0000000000000000178255610555565b6113878163ffffffff1611156103c65781547fffffffffffffffffffffffffffffffffffffffffffffff00ffffffffffffffff1668640000000000000000178255610555565b6109c38163ffffffff16111561040c5781547fffffffffffffffffffffffffffffffffffffffffffffff00ffffffffffffffff1668500000000000000000178255610555565b6105db8163ffffffff1611156104525781547fffffffffffffffffffffffffffffffffffffffffffffff00ffffffffffffffff16683c0000000000000000178255610555565b6103e78163ffffffff1611156104985781547fffffffffffffffffffffffffffffffffffffffffffffff00ffffffffffffffff1668320000000000000000178255610555565b6101f38163ffffffff1611156104de5781547fffffffffffffffffffffffffffffffffffffffffffffff00ffffffffffffffff1668280000000000000000178255610555565b60f98163ffffffff1611156105235781547fffffffffffffffffffffffffffffffffffffffffffffff00ffffffffffffffff1668230000000000000000178255610555565b81547fffffffffffffffffffffffffffffffffffffffffffffff00ffffffffffffffff16681e00000000000000001782555b81547fffffffffffffffffffffffffffffffffffffffffffffffffffffffff00000000168255610588426213c680610716565b825463ffffffff91909116640100000000027fffffffffffffffffffffffffffffffffffffffffffffffff00000000ffffffff909116178255505b805460019082906000906105de90849063ffffffff1661072f565b825463ffffffff9182166101009390930a9283029190920219909116179055505460ff680100000000000000009091041692915050565b73ffffffffffffffffffffffffffffffffffffffff8116811461063757600080fd5b50565b60006020828403121561064c57600080fd5b813561065781610615565b9392505050565b600060208083528351808285015260005b8181101561068b5785810183015185820160400152820161066f565b5060006040828601015260407fffffffffffffffffffffffffffffffffffffffffffffffffffffffffffffffe0601f8301168501019250505092915050565b6000602082840312156106dc57600080fd5b815161065781610615565b7f4e487b7100000000000000000000000000000000000000000000000000000000600052601160045260246000fd5b80820180821115610729576107296106e7565b92915050565b63ffffffff81811683821601908082111561074c5761074c6106e7565b509291505056fea2646970667358221220ba35e0a10e0b1db29113f682ba5a01f0df30489643c16163e79a3540d231dfa564736f6c63430008120033",
					"opcodes": "PUSH1 0x80 PUSH1 0x40 MSTORE CALLVALUE DUP1 ISZERO PUSH2 0x10 JUMPI PUSH1 0x0 DUP1 REVERT JUMPDEST POP PUSH2 0x789 DUP1 PUSH2 0x20 PUSH1 0x0 CODECOPY PUSH1 0x0 RETURN INVALID PUSH1 0x80 PUSH1 0x40 MSTORE PUSH1 0x4 CALLDATASIZE LT PUSH2 0x38 JUMPI PUSH1 0x0 CALLDATALOAD PUSH1 0xE0 SHR DUP1 PUSH4 0x9256EAE EQ PUSH2 0x53 JUMPI DUP1 PUSH4 0x8052474D EQ PUSH2 0x103 JUMPI DUP1 PUSH4 0x9B84B986 EQ PUSH2 0x159 JUMPI PUSH2 0x42 JUMP JUMPDEST CALLDATASIZE PUSH2 0x42 JUMPI PUSH1 0x0 DUP1 REVERT JUMPDEST CALLVALUE DUP1 ISZERO PUSH2 0x4E JUMPI PUSH1 0x0 DUP1 REVERT JUMPDEST PUSH1 0x0 DUP1 REVERT JUMPDEST CALLVALUE DUP1 ISZERO PUSH2 0x5F JUMPI PUSH1 0x0 DUP1 REVERT JUMPDEST POP PUSH2 0xD8 PUSH2 0x6E CALLDATASIZE PUSH1 0x4 PUSH2 0x63A JUMP JUMPDEST PUSH20 0xFFFFFFFFFFFFFFFFFFFFFFFFFFFFFFFFFFFFFFFF AND PUSH1 0x0 SWAP1 DUP2 MSTORE PUSH1 0x20 DUP2 DUP2 MSTORE PUSH1 0x40 SWAP2 DUP3 SWAP1 KECCAK256 DUP3 MLOAD PUSH1 0x60 DUP2 ADD DUP5 MSTORE SWAP1 SLOAD PUSH4 0xFFFFFFFF DUP1 DUP3 AND DUP1 DUP5 MSTORE PUSH5 0x100000000 DUP4 DIV SWAP1 SWAP2 AND SWAP4 DUP4 ADD DUP5 SWAP1 MSTORE PUSH9 0x10000000000000000 SWAP1 SWAP2 DIV PUSH1 0xFF AND SWAP2 SWAP1 SWAP4 ADD DUP2 SWAP1 MSTORE SWAP2 SWAP3 SWAP1 SWAP2 SWAP1 JUMP JUMPDEST PUSH1 0x40 DUP1 MLOAD PUSH4 0xFFFFFFFF SWAP5 DUP6 AND DUP2 MSTORE SWAP4 SWAP1 SWAP3 AND PUSH1 0x20 DUP5 ADD MSTORE PUSH1 0xFF AND SWAP1 DUP3 ADD MSTORE PUSH1 0x60 ADD JUMPDEST PUSH1 0x40 MLOAD DUP1 SWAP2 SUB SWAP1 RETURN JUMPDEST CALLVALUE DUP1 ISZERO PUSH2 0x10F JUMPI PUSH1 0x0 DUP1 REVERT JUMPDEST POP PUSH2 0x14C PUSH1 0x40 MLOAD DUP1 PUSH1 0x40 ADD PUSH1 0x40 MSTORE DUP1 PUSH1 0x14 DUP2 MSTORE PUSH1 0x20 ADD PUSH32 0x5061796D656E742E496D706C656D656E746F7273000000000000000000000000 DUP2 MSTORE POP DUP2 JUMP JUMPDEST PUSH1 0x40 MLOAD PUSH2 0xFA SWAP2 SWAP1 PUSH2 0x65E JUMP JUMPDEST CALLVALUE DUP1 ISZERO PUSH2 0x165 JUMPI PUSH1 0x0 DUP1 REVERT JUMPDEST POP PUSH2 0x179 PUSH2 0x174 CALLDATASIZE PUSH1 0x4 PUSH2 0x63A JUMP JUMPDEST PUSH2 0x18B JUMP JUMPDEST PUSH1 0x40 MLOAD PUSH1 0xFF SWAP1 SWAP2 AND DUP2 MSTORE PUSH1 0x20 ADD PUSH2 0xFA JUMP JUMPDEST PUSH1 0x40 MLOAD PUSH32 0x8B05F6DE00000000000000000000000000000000000000000000000000000000 DUP2 MSTORE PUSH1 0x20 PUSH1 0x4 DUP3 ADD MSTORE PUSH1 0x12 PUSH1 0x24 DUP3 ADD MSTORE PUSH32 0x5061796D656E742E50726F63636573736F720000000000000000000000000000 PUSH1 0x44 DUP3 ADD MSTORE PUSH1 0x0 SWAP1 CALLER SWAP1 PUSH20 0x7F6B1F900113A9B46E4F38395BFC28075324A9F4 SWAP1 PUSH4 0x8B05F6DE SWAP1 PUSH1 0x64 ADD PUSH1 0x20 PUSH1 0x40 MLOAD DUP1 DUP4 SUB DUP2 DUP7 GAS STATICCALL ISZERO DUP1 ISZERO PUSH2 0x226 JUMPI RETURNDATASIZE PUSH1 0x0 DUP1 RETURNDATACOPY RETURNDATASIZE PUSH1 0x0 REVERT JUMPDEST POP POP POP POP PUSH1 0x40 MLOAD RETURNDATASIZE PUSH1 0x1F NOT PUSH1 0x1F DUP3 ADD AND DUP3 ADD DUP1 PUSH1 0x40 MSTORE POP DUP2 ADD SWAP1 PUSH2 0x24A SWAP2 SWAP1 PUSH2 0x6CA JUMP JUMPDEST PUSH20 0xFFFFFFFFFFFFFFFFFFFFFFFFFFFFFFFFFFFFFFFF AND EQ PUSH2 0x26D JUMPI POP PUSH1 0x0 SWAP2 SWAP1 POP JUMP JUMPDEST PUSH20 0xFFFFFFFFFFFFFFFFFFFFFFFFFFFFFFFFFFFFFFFF DUP3 AND PUSH1 0x0 SWAP1 DUP2 MSTORE PUSH1 0x20 DUP2 SWAP1 MSTORE PUSH1 0x40 SWAP1 KECCAK256 DUP1 SLOAD PUSH4 0xFFFFFFFF TIMESTAMP DUP2 AND PUSH5 0x100000000 SWAP1 SWAP3 DIV AND LT ISZERO PUSH2 0x5C3 JUMPI DUP1 SLOAD PUSH4 0xFFFFFFFF AND PUSH2 0x61A7 DUP2 GT ISZERO PUSH2 0x2F4 JUMPI DUP2 SLOAD PUSH32 0xFFFFFFFFFFFFFFFFFFFFFFFFFFFFFFFFFFFFFFFFFFFFFF00FFFFFFFFFFFFFFFF AND PUSH9 0xC80000000000000000 OR DUP3 SSTORE PUSH2 0x555 JUMP JUMPDEST PUSH2 0x30D3 DUP2 PUSH4 0xFFFFFFFF AND GT ISZERO PUSH2 0x33A JUMPI DUP2 SLOAD PUSH32 0xFFFFFFFFFFFFFFFFFFFFFFFFFFFFFFFFFFFFFFFFFFFFFF00FFFFFFFFFFFFFFFF AND PUSH9 0x960000000000000000 OR DUP3 SSTORE PUSH2 0x555 JUMP JUMPDEST PUSH2 0x1D4B DUP2 PUSH4 0xFFFFFFFF AND GT ISZERO PUSH2 0x380 JUMPI DUP2 SLOAD PUSH32 0xFFFFFFFFFFFFFFFFFFFFFFFFFFFFFFFFFFFFFFFFFFFFFF00FFFFFFFFFFFFFFFF AND PUSH9 0x7D0000000000000000 OR DUP3 SSTORE PUSH2 0x555 JUMP JUMPDEST PUSH2 0x1387 DUP2 PUSH4 0xFFFFFFFF AND GT ISZERO PUSH2 0x3C6 JUMPI DUP2 SLOAD PUSH32 0xFFFFFFFFFFFFFFFFFFFFFFFFFFFFFFFFFFFFFFFFFFFFFF00FFFFFFFFFFFFFFFF AND PUSH9 0x640000000000000000 OR DUP3 SSTORE PUSH2 0x555 JUMP JUMPDEST PUSH2 0x9C3 DUP2 PUSH4 0xFFFFFFFF AND GT ISZERO PUSH2 0x40C JUMPI DUP2 SLOAD PUSH32 0xFFFFFFFFFFFFFFFFFFFFFFFFFFFFFFFFFFFFFFFFFFFFFF00FFFFFFFFFFFFFFFF AND PUSH9 0x500000000000000000 OR DUP3 SSTORE PUSH2 0x555 JUMP JUMPDEST PUSH2 0x5DB DUP2 PUSH4 0xFFFFFFFF AND GT ISZERO PUSH2 0x452 JUMPI DUP2 SLOAD PUSH32 0xFFFFFFFFFFFFFFFFFFFFFFFFFFFFFFFFFFFFFFFFFFFFFF00FFFFFFFFFFFFFFFF AND PUSH9 0x3C0000000000000000 OR DUP3 SSTORE PUSH2 0x555 JUMP JUMPDEST PUSH2 0x3E7 DUP2 PUSH4 0xFFFFFFFF AND GT ISZERO PUSH2 0x498 JUMPI DUP2 SLOAD PUSH32 0xFFFFFFFFFFFFFFFFFFFFFFFFFFFFFFFFFFFFFFFFFFFFFF00FFFFFFFFFFFFFFFF AND PUSH9 0x320000000000000000 OR DUP3 SSTORE PUSH2 0x555 JUMP JUMPDEST PUSH2 0x1F3 DUP2 PUSH4 0xFFFFFFFF AND GT ISZERO PUSH2 0x4DE JUMPI DUP2 SLOAD PUSH32 0xFFFFFFFFFFFFFFFFFFFFFFFFFFFFFFFFFFFFFFFFFFFFFF00FFFFFFFFFFFFFFFF AND PUSH9 0x280000000000000000 OR DUP3 SSTORE PUSH2 0x555 JUMP JUMPDEST PUSH1 0xF9 DUP2 PUSH4 0xFFFFFFFF AND GT ISZERO PUSH2 0x523 JUMPI DUP2 SLOAD PUSH32 0xFFFFFFFFFFFFFFFFFFFFFFFFFFFFFFFFFFFFFFFFFFFFFF00FFFFFFFFFFFFFFFF AND PUSH9 0x230000000000000000 OR DUP3 SSTORE PUSH2 0x555 JUMP JUMPDEST DUP2 SLOAD PUSH32 0xFFFFFFFFFFFFFFFFFFFFFFFFFFFFFFFFFFFFFFFFFFFFFF00FFFFFFFFFFFFFFFF AND PUSH9 0x1E0000000000000000 OR DUP3 SSTORE JUMPDEST DUP2 SLOAD PUSH32 0xFFFFFFFFFFFFFFFFFFFFFFFFFFFFFFFFFFFFFFFFFFFFFFFFFFFFFFFF00000000 AND DUP3 SSTORE PUSH2 0x588 TIMESTAMP PUSH3 0x13C680 PUSH2 0x716 JUMP JUMPDEST DUP3 SLOAD PUSH4 0xFFFFFFFF SWAP2 SWAP1 SWAP2 AND PUSH5 0x100000000 MUL PUSH32 0xFFFFFFFFFFFFFFFFFFFFFFFFFFFFFFFFFFFFFFFFFFFFFFFF00000000FFFFFFFF SWAP1 SWAP2 AND OR DUP3 SSTORE POP JUMPDEST DUP1 SLOAD PUSH1 0x1 SWAP1 DUP3 SWAP1 PUSH1 0x0 SWAP1 PUSH2 0x5DE SWAP1 DUP5 SWAP1 PUSH4 0xFFFFFFFF AND PUSH2 0x72F JUMP JUMPDEST DUP3 SLOAD PUSH4 0xFFFFFFFF SWAP2 DUP3 AND PUSH2 0x100 SWAP4 SWAP1 SWAP4 EXP SWAP3 DUP4 MUL SWAP2 SWAP1 SWAP3 MUL NOT SWAP1 SWAP2 AND OR SWAP1 SSTORE POP SLOAD PUSH1 0xFF PUSH9 0x10000000000000000 SWAP1 SWAP2 DIV AND SWAP3 SWAP2 POP POP JUMP JUMPDEST PUSH20 0xFFFFFFFFFFFFFFFFFFFFFFFFFFFFFFFFFFFFFFFF DUP2 AND DUP2 EQ PUSH2 0x637 JUMPI PUSH1 0x0 DUP1 REVERT JUMPDEST POP JUMP JUMPDEST PUSH1 0x0 PUSH1 0x20 DUP3 DUP5 SUB SLT ISZERO PUSH2 0x64C JUMPI PUSH1 0x0 DUP1 REVERT JUMPDEST DUP2 CALLDATALOAD PUSH2 0x657 DUP2 PUSH2 0x615 JUMP JUMPDEST SWAP4 SWAP3 POP POP POP JUMP JUMPDEST PUSH1 0x0 PUSH1 0x20 DUP1 DUP4 MSTORE DUP4 MLOAD DUP1 DUP3 DUP6 ADD MSTORE PUSH1 0x0 JUMPDEST DUP2 DUP2 LT ISZERO PUSH2 0x68B JUMPI DUP6 DUP2 ADD DUP4 ADD MLOAD DUP6 DUP3 ADD PUSH1 0x40 ADD MSTORE DUP3 ADD PUSH2 0x66F JUMP JUMPDEST POP PUSH1 0x0 PUSH1 0x40 DUP3 DUP7 ADD ADD MSTORE PUSH1 0x40 PUSH32 0xFFFFFFFFFFFFFFFFFFFFFFFFFFFFFFFFFFFFFFFFFFFFFFFFFFFFFFFFFFFFFFE0 PUSH1 0x1F DUP4 ADD AND DUP6 ADD ADD SWAP3 POP POP POP SWAP3 SWAP2 POP POP JUMP JUMPDEST PUSH1 0x0 PUSH1 0x20 DUP3 DUP5 SUB SLT ISZERO PUSH2 0x6DC JUMPI PUSH1 0x0 DUP1 REVERT JUMPDEST DUP2 MLOAD PUSH2 0x657 DUP2 PUSH2 0x615 JUMP JUMPDEST PUSH32 0x4E487B7100000000000000000000000000000000000000000000000000000000 PUSH1 0x0 MSTORE PUSH1 0x11 PUSH1 0x4 MSTORE PUSH1 0x24 PUSH1 0x0 REVERT JUMPDEST DUP1 DUP3 ADD DUP1 DUP3 GT ISZERO PUSH2 0x729 JUMPI PUSH2 0x729 PUSH2 0x6E7 JUMP JUMPDEST SWAP3 SWAP2 POP POP JUMP JUMPDEST PUSH4 0xFFFFFFFF DUP2 DUP2 AND DUP4 DUP3 AND ADD SWAP1 DUP1 DUP3 GT ISZERO PUSH2 0x74C JUMPI PUSH2 0x74C PUSH2 0x6E7 JUMP JUMPDEST POP SWAP3 SWAP2 POP POP JUMP INVALID LOG2 PUSH5 0x6970667358 0x22 SLT KECCAK256 0xBA CALLDATALOAD 0xE0 LOG1 0xE SIGNEXTEND SAR 0xB2 SWAP2 SGT 0xF6 DUP3 0xBA GAS ADD CREATE 0xDF ADDRESS BASEFEE SWAP7 NUMBER 0xC1 PUSH2 0x63E7 SWAP11 CALLDATALOAD BLOCKHASH 0xD2 BALANCE 0xDF 0xA5 PUSH5 0x736F6C6343 STOP ADDMOD SLT STOP CALLER "
				},
				"gasEstimates": {
					"creation": {
						"codeDepositCost": "385800",
						"executionCost": "424",
						"totalCost": "386224"
					},
					"external": {
						"": "157",
						"ImplementorProfile(address)": "2688",
						"ImplementorReward(address)": "infinite",
						"Name()": "infinite"
					}
				},
				"methodIdentifiers": {
					"ImplementorProfile(address)": "09256eae",
					"ImplementorReward(address)": "9b84b986",
					"Name()": "8052474d"
				}
			},
			"storageLayout": {
				"storage": [
					{
						"astId": 33,
						"contract": "Payment/Implementors.sol:Implementors",
						"label": "implementor",
						"offset": 0,
						"slot": "0",
						"type": "t_mapping(t_address,t_struct(Implementor)28_storage)"
					}
				],
				"types": {
					"t_address": {
						"encoding": "inplace",
						"label": "address",
						"numberOfBytes": "20"
					},
					"t_mapping(t_address,t_struct(Implementor)28_storage)": {
						"encoding": "mapping",
						"key": "t_address",
						"label": "mapping(address => struct Implementors.Implementor)",
						"numberOfBytes": "32",
						"value": "t_struct(Implementor)28_storage"
					},
					"t_struct(Implementor)28_storage": {
						"encoding": "inplace",
						"label": "struct Implementors.Implementor",
						"members": [
							{
								"astId": 23,
								"contract": "Payment/Implementors.sol:Implementors",
								"label": "epochSales",
								"offset": 0,
								"slot": "0",
								"type": "t_uint32"
							},
							{
								"astId": 25,
								"contract": "Payment/Implementors.sol:Implementors",
								"label": "epochEnd",
								"offset": 4,
								"slot": "0",
								"type": "t_uint32"
							},
							{
								"astId": 27,
								"contract": "Payment/Implementors.sol:Implementors",
								"label": "epochReward",
								"offset": 8,
								"slot": "0",
								"type": "t_uint8"
							}
						],
						"numberOfBytes": "32"
					},
					"t_uint32": {
						"encoding": "inplace",
						"label": "uint32",
						"numberOfBytes": "4"
					},
					"t_uint8": {
						"encoding": "inplace",
						"label": "uint8",
						"numberOfBytes": "1"
					}
				}
			},
			"userdoc": {
				"kind": "user",
				"methods": {},
				"version": 1
			}
		}
	}
}