{
    "contractName": "Proccessor",
    "abi": [
        {
            "inputs": [],
            "stateMutability": "nonpayable",
            "type": "constructor"
        },
        {
            "anonymous": false,
            "inputs": [
                {
                    "indexed": true,
                    "internalType": "address",
                    "name": "_from",
                    "type": "address"
                },
                {
                    "indexed": true,
                    "internalType": "address",
                    "name": "_to",
                    "type": "address"
                },
                {
                    "indexed": false,
                    "internalType": "address",
                    "name": "_currency",
                    "type": "address"
                },
                {
                    "indexed": false,
                    "internalType": "uint256",
                    "name": "_amount",
                    "type": "uint256"
                }
            ],
            "name": "Proccessed",
            "type": "event"
        },
        {
            "stateMutability": "payable",
            "type": "fallback"
        },
        {
            "inputs": [],
            "name": "Name",
            "outputs": [
                {
                    "internalType": "string",
                    "name": "",
                    "type": "string"
                }
            ],
            "stateMutability": "view",
            "type": "function"
        },
        {
            "inputs": [
                {
                    "internalType": "string",
                    "name": "_symbol",
                    "type": "string"
                },
                {
                    "internalType": "uint256",
                    "name": "_amount",
                    "type": "uint256"
                },
                {
                    "internalType": "address",
                    "name": "_to",
                    "type": "address"
                },
                {
                    "internalType": "address",
                    "name": "_implementor",
                    "type": "address"
                }
            ],
            "name": "Proccess",
            "outputs": [
                {
                    "internalType": "bool",
                    "name": "",
                    "type": "bool"
                }
            ],
            "stateMutability": "payable",
            "type": "function"
        },
        {
            "stateMutability": "payable",
            "type": "receive"
        }
    ],
    "bytecode": "60a06040526000805460ff1916905534801561001a57600080fd5b5073822cf05e174d656f5c4dc0c0ad913f18269efd1d6001600160a01b031663ee5503d06040518163ffffffff1660e01b8152600401602060405180830381865afa15801561006d573d6000803e3d6000fd5b505050506040513d601f19601f8201168201806040525081019061009191906100a2565b6001600160a01b03166080526100d2565b6000602082840312156100b457600080fd5b81516001600160a01b03811681146100cb57600080fd5b9392505050565b6080516118706100ed600039600061075501526118706000f3fe60806040526004361061002a5760003560e01c806357d8686d146100335780638052474d1461005b57005b3661003157005b005b61004661004136600461155e565b6100b1565b60405190151581526020015b60405180910390f35b34801561006757600080fd5b506100a46040518060400160405280601281526020017f5061796d656e742e50726f63636573736f72000000000000000000000000000081525081565b6040516100529190611622565b6000805460ff1615610124576040517f08c379a000000000000000000000000000000000000000000000000000000000815260206004820152601160248201527f5265656e7472616e6365206661696c656400000000000000000000000000000060448201526064015b60405180910390fd5b600080547fffffffffffffffffffffffffffffffffffffffffffffffffffffffffffffff00166001178155604051610182906020017f4d41544943000000000000000000000000000000000000000000000000000000815260050190565b6040516020818303038152906040528051906020012087876040516020016101ab929190611673565b604051602081830303815290604052805190602001201480156101ce5750600034115b80156101d8575084155b156101ee576101e7848461036f565b90506102e5565b6040517f4d415449430000000000000000000000000000000000000000000000000000006020820152602501604051602081830303815290604052805190602001208787604051602001610243929190611673565b60405160208183030381529060405280519060200120141580156102675750600085115b8015610271575034155b15610283576101e78787878787610782565b6040517f08c379a000000000000000000000000000000000000000000000000000000000815260206004820152601260248201527f50726f6363657373696e67206661696c65640000000000000000000000000000604482015260640161011b565b6040805173ffffffffffffffffffffffffffffffffffffffff83811682526020820188905286169133917f9e1501bf0bdb2da757d89a99a50272ce437437bd8e162153ed6016e61f324ba5910160405180910390a35050600080547fffffffffffffffffffffffffffffffffffffffffffffffffffffffffffffff00169055506001949350505050565b6000806000806103b56040518060400160405280600581526020017f4d4154494300000000000000000000000000000000000000000000000000000081525034876110e7565b6040517fc75ffd8600000000000000000000000000000000000000000000000000000000815260206004820152601060248201527f436f72706f726174696f6e2e42616e6b000000000000000000000000000000006044820152929550909350915060009073822cf05e174d656f5c4dc0c0ad913f18269efd1d9063c75ffd8690606401602060405180830381865afa158015610456573d6000803e3d6000fd5b505050506040513d601f19601f8201168201806040525081019061047a9190611683565b6040517fc75ffd8600000000000000000000000000000000000000000000000000000000815260206004820152600f60248201527f5061796d656e742e537761707065720000000000000000000000000000000000604482015290915060009073822cf05e174d656f5c4dc0c0ad913f18269efd1d9063c75ffd8690606401602060405180830381865afa158015610516573d6000803e3d6000fd5b505050506040513d601f19601f8201168201806040525081019061053a9190611683565b60405190915073ffffffffffffffffffffffffffffffffffffffff89169086156108fc029087906000818181858888f19350505050158015610580573d6000803e3d6000fd5b5060405173ffffffffffffffffffffffffffffffffffffffff88169085156108fc029086906000818181858888f193505050501580156105c4573d6000803e3d6000fd5b5073ffffffffffffffffffffffffffffffffffffffff82161561062a5760405173ffffffffffffffffffffffffffffffffffffffff83169084156108fc029085906000818181858888f19350505050158015610624573d6000803e3d6000fd5b50610753565b73ffffffffffffffffffffffffffffffffffffffff8116156106895760405173ffffffffffffffffffffffffffffffffffffffff82169084156108fc029085906000818181858888f19350505050158015610624573d6000803e3d6000fd5b73822cf05e174d656f5c4dc0c0ad913f18269efd1d73ffffffffffffffffffffffffffffffffffffffff16630ae50a396040518163ffffffff1660e01b8152600401602060405180830381865afa1580156106e8573d6000803e3d6000fd5b505050506040513d601f19601f8201168201806040525081019061070c9190611683565b73ffffffffffffffffffffffffffffffffffffffff166108fc849081150290604051600060405180830381858888f19350505050158015610751573d6000803e3d6000fd5b505b7f0000000000000000000000000000000000000000000000000000000000000000955050505050505b92915050565b6040517fc75ffd8600000000000000000000000000000000000000000000000000000000815260206004820152600f60248201527f5061796d656e742e5377617070657200000000000000000000000000000000006044820152600090819073822cf05e174d656f5c4dc0c0ad913f18269efd1d9063c75ffd8690606401602060405180830381865afa15801561081d573d6000803e3d6000fd5b505050506040513d601f19601f820116820180604052508101906108419190611683565b6040517fc75ffd8600000000000000000000000000000000000000000000000000000000815260206004820152601260248201527f5061796d656e742e43757272656e6369657300000000000000000000000000006044820152909150819060009073822cf05e174d656f5c4dc0c0ad913f18269efd1d9063c75ffd8690606401602060405180830381865afa1580156108df573d6000803e3d6000fd5b505050506040513d601f19601f820116820180604052508101906109039190611683565b6040517fda240f1e000000000000000000000000000000000000000000000000000000008152909150819060009073ffffffffffffffffffffffffffffffffffffffff83169063da240f1e9061095f908e908e906004016116a7565b602060405180830381865afa15801561097c573d6000803e3d6000fd5b505050506040513d601f19601f820116820180604052508101906109a09190611683565b90508073ffffffffffffffffffffffffffffffffffffffff8116610a20576040517f08c379a000000000000000000000000000000000000000000000000000000000815260206004820152601360248201527f546f6b656e206e6f7420737570706f7274656400000000000000000000000000604482015260640161011b565b6040517f70a082310000000000000000000000000000000000000000000000000000000081523360048201528a9073ffffffffffffffffffffffffffffffffffffffff8316906370a0823190602401602060405180830381865afa158015610a8c573d6000803e3d6000fd5b505050506040513d601f19601f82011682018060405250810190610ab091906116f4565b1015610b18576040517f08c379a000000000000000000000000000000000000000000000000000000000815260206004820152601460248201527f496e73756666696369656e742062616c616e6365000000000000000000000000604482015260640161011b565b6040517fdd62ed3e0000000000000000000000000000000000000000000000000000000081523360048201523060248201528a9073ffffffffffffffffffffffffffffffffffffffff83169063dd62ed3e90604401602060405180830381865afa158015610b8a573d6000803e3d6000fd5b505050506040513d601f19601f82011682018060405250810190610bae91906116f4565b1015610c16576040517f08c379a000000000000000000000000000000000000000000000000000000000815260206004820152601760248201527f50726f63636573736f72206e6f7420617070726f766564000000000000000000604482015260640161011b565b6040517f23b872dd000000000000000000000000000000000000000000000000000000008152336004820152306024820152604481018b905273ffffffffffffffffffffffffffffffffffffffff8216906323b872dd906064016020604051808303816000875af1158015610c8f573d6000803e3d6000fd5b505050506040513d601f19601f82011682018060405250810190610cb3919061170d565b506000806000610d088f8f8080601f016020809104026020016040519081016040528093929190818152602001838380828437600081840152601f19601f820116905080830192505050505050508e8d6110e7565b9250925092508373ffffffffffffffffffffffffffffffffffffffff1663a9059cbb8d856040518363ffffffff1660e01b8152600401610d6a92919073ffffffffffffffffffffffffffffffffffffffff929092168252602082015260400190565b6020604051808303816000875af1158015610d89573d6000803e3d6000fd5b505050506040513d601f19601f82011682018060405250810190610dad919061170d565b506040517fa9059cbb00000000000000000000000000000000000000000000000000000000815273ffffffffffffffffffffffffffffffffffffffff8c811660048301526024820184905285169063a9059cbb906044016020604051808303816000875af1158015610e23573d6000803e3d6000fd5b505050506040513d601f19601f82011682018060405250810190610e47919061170d565b5073ffffffffffffffffffffffffffffffffffffffff891615610f9d576040517f095ea7b300000000000000000000000000000000000000000000000000000000815273ffffffffffffffffffffffffffffffffffffffff8a811660048301526024820183905285169063095ea7b3906044016020604051808303816000875af1158015610ed9573d6000803e3d6000fd5b505050506040513d601f19601f82011682018060405250810190610efd919061170d565b506040517f562c219500000000000000000000000000000000000000000000000000000000815273ffffffffffffffffffffffffffffffffffffffff86811660048301526024820183905289169063562c2195906044016020604051808303816000875af1158015610f73573d6000803e3d6000fd5b505050506040513d601f19601f82011682018060405250810190610f97919061170d565b506110d4565b8373ffffffffffffffffffffffffffffffffffffffff1663a9059cbb73822cf05e174d656f5c4dc0c0ad913f18269efd1d73ffffffffffffffffffffffffffffffffffffffff16630ae50a396040518163ffffffff1660e01b8152600401602060405180830381865afa158015611018573d6000803e3d6000fd5b505050506040513d601f19601f8201168201806040525081019061103c9190611683565b6040517fffffffff0000000000000000000000000000000000000000000000000000000060e084901b16815273ffffffffffffffffffffffffffffffffffffffff9091166004820152602481018490526044016020604051808303816000875af11580156110ae573d6000803e3d6000fd5b505050506040513d601f19601f820116820180604052508101906110d2919061170d565b505b50929d9c50505050505050505050505050565b6040517fc75ffd8600000000000000000000000000000000000000000000000000000000815260206004820152601460248201527f5061796d656e742e496d706c656d656e746f7273000000000000000000000000604482015260009081908190819073822cf05e174d656f5c4dc0c0ad913f18269efd1d9063c75ffd8690606401602060405180830381865afa158015611186573d6000803e3d6000fd5b505050506040513d601f19601f820116820180604052508101906111aa9190611683565b6040517fc75ffd8600000000000000000000000000000000000000000000000000000000815260206004820152601260248201527f5061796d656e742e43757272656e6369657300000000000000000000000000006044820152909150819060009073822cf05e174d656f5c4dc0c0ad913f18269efd1d9063c75ffd8690606401602060405180830381865afa158015611248573d6000803e3d6000fd5b505050506040513d601f19601f8201168201806040525081019061126c9190611683565b6040517f4d41544943000000000000000000000000000000000000000000000000000000602082015290915081906000908190602501604051602081830303815290604052805190602001208c6040516020016112c9919061172f565b604051602081830303815290604052805190602001200361135a578273ffffffffffffffffffffffffffffffffffffffff1663e43dd4886040518163ffffffff1660e01b8152600401602060405180830381865afa15801561132f573d6000803e3d6000fd5b505050506040513d601f19601f82011682018060405250810190611353919061174b565b90506113f0565b6040517f1727de4e00000000000000000000000000000000000000000000000000000000815273ffffffffffffffffffffffffffffffffffffffff841690631727de4e906113ac908f90600401611622565b602060405180830381865afa1580156113c9573d6000803e3d6000fd5b505050506040513d601f19601f820116820180604052508101906113ed919061174b565b90505b73ffffffffffffffffffffffffffffffffffffffff8a161580159061142a575073ffffffffffffffffffffffffffffffffffffffff861615155b156114c4576040517f6452c22d00000000000000000000000000000000000000000000000000000000815273ffffffffffffffffffffffffffffffffffffffff8b81166004830152861690636452c22d906024016020604051808303816000875af115801561149d573d6000803e3d6000fd5b505050506040513d601f19601f820116820180604052508101906114c19190611770565b91505b620186a06114d762ffffff83168d6117c2565b6114e191906117d9565b6114eb908c611814565b98506103e860ff83166114fe8b8e611814565b61150891906117c2565b61151291906117d9565b975061151e888a611827565b611528908c611814565b965050505050505093509350939050565b73ffffffffffffffffffffffffffffffffffffffff8116811461155b57600080fd5b50565b60008060008060006080868803121561157657600080fd5b853567ffffffffffffffff8082111561158e57600080fd5b818801915088601f8301126115a257600080fd5b8135818111156115b157600080fd5b8960208285010111156115c357600080fd5b60209283019750955050860135925060408601356115e081611539565b915060608601356115f081611539565b809150509295509295909350565b60005b83811015611619578181015183820152602001611601565b50506000910152565b60208152600082518060208401526116418160408501602087016115fe565b601f017fffffffffffffffffffffffffffffffffffffffffffffffffffffffffffffffe0169190910160400192915050565b8183823760009101908152919050565b60006020828403121561169557600080fd5b81516116a081611539565b9392505050565b60208152816020820152818360408301376000818301604090810191909152601f9092017fffffffffffffffffffffffffffffffffffffffffffffffffffffffffffffffe0160101919050565b60006020828403121561170657600080fd5b5051919050565b60006020828403121561171f57600080fd5b815180151581146116a057600080fd5b600082516117418184602087016115fe565b9190910192915050565b60006020828403121561175d57600080fd5b815162ffffff811681146116a057600080fd5b60006020828403121561178257600080fd5b815160ff811681146116a057600080fd5b7f4e487b7100000000000000000000000000000000000000000000000000000000600052601160045260246000fd5b808202811582820484141761077c5761077c611793565b60008261180f577f4e487b7100000000000000000000000000000000000000000000000000000000600052601260045260246000fd5b500490565b8181038181111561077c5761077c611793565b8082018082111561077c5761077c61179356fea26469706673582212200ff151731c933be1eed7dffa986bc041fd3ac99f46e959077a9dc3009c04108964736f6c63430008120033",
    "sourcePath": "m:/Workspaces/FiskPay/New Concept/Solidity/FiskPay/Payment/Proccessor.sol",
    "compiler": {
        "name": "solc",
        "version": "0.8.18+commit.87f61d96"
    },
    "functionHashes": {
        "Name()": "8052474d",
        "Proccess(string,uint256,address,address)": "57d8686d"
    },
    "gasEstimates": {
        "creation": {
            "codeDepositCost": "1251200",
            "executionCost": "infinite",
            "totalCost": "infinite"
        },
        "external": {
            "": "95",
            "Name()": "infinite",
            "Proccess(string,uint256,address,address)": "infinite"
        },
        "internal": {
            "_split(string memory,uint256,address)": "infinite",
            "_transferMATIC(address,address)": "infinite",
            "_transferToken(string calldata,uint256,address,address)": "infinite"
        }
    }
}