{
    "contractName": "Swapper",
    "abi": [
        {
            "inputs": [],
            "stateMutability": "nonpayable",
            "type": "constructor"
        },
        {
            "stateMutability": "nonpayable",
            "type": "fallback"
        },
        {
            "inputs": [],
            "name": "Name",
            "outputs": [
                {
                    "internalType": "string",
                    "name": "",
                    "type": "string"
                }
            ],
            "stateMutability": "view",
            "type": "function"
        },
        {
            "inputs": [
                {
                    "internalType": "address",
                    "name": "_token",
                    "type": "address"
                },
                {
                    "internalType": "uint256",
                    "name": "_amount",
                    "type": "uint256"
                }
            ],
            "name": "Swap",
            "outputs": [
                {
                    "internalType": "bool",
                    "name": "",
                    "type": "bool"
                }
            ],
            "stateMutability": "nonpayable",
            "type": "function"
        },
        {
            "inputs": [],
            "name": "WithdrawMATIC",
            "outputs": [
                {
                    "internalType": "bool",
                    "name": "",
                    "type": "bool"
                }
            ],
            "stateMutability": "nonpayable",
            "type": "function"
        },
        {
            "inputs": [
                {
                    "internalType": "address",
                    "name": "_token",
                    "type": "address"
                }
            ],
            "name": "WithdrawToken",
            "outputs": [
                {
                    "internalType": "bool",
                    "name": "",
                    "type": "bool"
                }
            ],
            "stateMutability": "nonpayable",
            "type": "function"
        },
        {
            "stateMutability": "payable",
            "type": "receive"
        }
    ],
    "bytecode": "60c060405234801561001057600080fd5b5073ce4a03425a64a41387b3ae4bdfb621d9c3d9b5016001600160a01b031663e666cdef6040518163ffffffff1660e01b8152600401602060405180830381865afa158015610063573d6000803e3d6000fd5b505050506040513d601f19601f82011682018060405250810190610087919061009d565b6001600160a01b031660a08190526080526100cd565b6000602082840312156100af57600080fd5b81516001600160a01b03811681146100c657600080fd5b9392505050565b60805160a051610fe56100f2600039600061062c015260006107e30152610fe56000f3fe6080604052600436106100435760003560e01c8063562c21951461005b5780635c4c9f6f146100905780638052474d146100b0578063f58481d5146101065761004a565b3661004a57005b34801561005657600080fd5b600080fd5b34801561006757600080fd5b5061007b610076366004610dc9565b61011b565b60405190151581526020015b60405180910390f35b34801561009c57600080fd5b5061007b6100ab366004610df5565b610931565b3480156100bc57600080fd5b506100f96040518060400160405280600f81526020017f5061796d656e742e53776170706572000000000000000000000000000000000081525081565b6040516100879190610e19565b34801561011257600080fd5b5061007b610beb565b6040517fc75ffd8600000000000000000000000000000000000000000000000000000000815260206004820152601260248201527f5061796d656e742e50726f63636573736f7200000000000000000000000000006044820152600090339073ce4a03425a64a41387b3ae4bdfb621d9c3d9b5019063c75ffd8690606401602060405180830381865afa1580156101b6573d6000803e3d6000fd5b505050506040513d601f19601f820116820180604052508101906101da9190610e85565b73ffffffffffffffffffffffffffffffffffffffff161461025c576040517f08c379a000000000000000000000000000000000000000000000000000000000815260206004820152600f60248201527f50726f63636573736f72206f6e6c79000000000000000000000000000000000060448201526064015b60405180910390fd5b6040517fc75ffd8600000000000000000000000000000000000000000000000000000000815260206004820152601060248201527f436f72706f726174696f6e2e42616e6b00000000000000000000000000000000604482015260009073ce4a03425a64a41387b3ae4bdfb621d9c3d9b5019063c75ffd8690606401602060405180830381865afa1580156102f5573d6000803e3d6000fd5b505050506040513d601f19601f820116820180604052508101906103199190610e85565b6040517fdd62ed3e0000000000000000000000000000000000000000000000000000000081523360048201523060248201529091508490849073ffffffffffffffffffffffffffffffffffffffff83169063dd62ed3e90604401602060405180830381865afa158015610390573d6000803e3d6000fd5b505050506040513d601f19601f820116820180604052508101906103b49190610ea2565b101561041c576040517f08c379a000000000000000000000000000000000000000000000000000000000815260206004820152601160248201527f417070726f76616c2072657175697265640000000000000000000000000000006044820152606401610253565b6040517f23b872dd0000000000000000000000000000000000000000000000000000000081523360048201523060248201526044810185905273ffffffffffffffffffffffffffffffffffffffff8216906323b872dd906064016020604051808303816000875af1158015610495573d6000803e3d6000fd5b505050506040513d601f19601f820116820180604052508101906104b99190610ebb565b506040517f70a0823100000000000000000000000000000000000000000000000000000000815230600482015273ffffffffffffffffffffffffffffffffffffffff82169063095ea7b39073e592427a0aece92de3edee1f18e0157c058615649083906370a0823190602401602060405180830381865afa158015610542573d6000803e3d6000fd5b505050506040513d601f19601f820116820180604052508101906105669190610ea2565b6105709088610edd565b6040517fffffffff0000000000000000000000000000000000000000000000000000000060e085901b16815273ffffffffffffffffffffffffffffffffffffffff909216600483015260248201526044016020604051808303816000875af11580156105e0573d6000803e3d6000fd5b505050506040513d601f19601f820116820180604052508101906106049190610ebb565b50604080516101008101825273ffffffffffffffffffffffffffffffffffffffff87811682527f000000000000000000000000000000000000000000000000000000000000000081166020830152610bb882840152306060830181905242608084015292517f70a08231000000000000000000000000000000000000000000000000000000008152600481019390935260009260a08301918516906370a0823190602401602060405180830381865afa1580156106c5573d6000803e3d6000fd5b505050506040513d601f19601f820116820180604052508101906106e99190610ea2565b6106f39088610edd565b8152600060208201819052604091820152517f414bf38900000000000000000000000000000000000000000000000000000000815290915073e592427a0aece92de3edee1f18e0157c058615649063414bf38990610755908490600401610f17565b6020604051808303816000875af19250505080156107ae575060408051601f3d9081017fffffffffffffffffffffffffffffffffffffffffffffffffffffffffffffffe01682019092526107ab91810190610ea2565b60015b156107b557505b6040517f70a082310000000000000000000000000000000000000000000000000000000081523060048201527f000000000000000000000000000000000000000000000000000000000000000073ffffffffffffffffffffffffffffffffffffffff1690632e1a7d4d9082906370a0823190602401602060405180830381865afa158015610847573d6000803e3d6000fd5b505050506040513d601f19601f8201168201806040525081019061086b9190610ea2565b6040518263ffffffff1660e01b815260040161088991815260200190565b600060405180830381600087803b1580156108a357600080fd5b505af19250505080156108b4575060015b5073ffffffffffffffffffffffffffffffffffffffff8316158015906108da5750600047115b156109235760405173ffffffffffffffffffffffffffffffffffffffff8416904780156108fc02916000818181858888f19350505050158015610921573d6000803e3d6000fd5b505b600193505050505b92915050565b60003373ffffffffffffffffffffffffffffffffffffffff1673ce4a03425a64a41387b3ae4bdfb621d9c3d9b50173ffffffffffffffffffffffffffffffffffffffff16630ae50a396040518163ffffffff1660e01b8152600401602060405180830381865afa1580156109a9573d6000803e3d6000fd5b505050506040513d601f19601f820116820180604052508101906109cd9190610e85565b73ffffffffffffffffffffffffffffffffffffffff1614610a4a576040517f08c379a000000000000000000000000000000000000000000000000000000000815260206004820152600a60248201527f4f776e6572206f6e6c79000000000000000000000000000000000000000000006044820152606401610253565b6040517f70a0823100000000000000000000000000000000000000000000000000000000815230600482015260009073ffffffffffffffffffffffffffffffffffffffff8416906370a0823190602401602060405180830381865afa158015610ab7573d6000803e3d6000fd5b505050506040513d601f19601f82011682018060405250810190610adb9190610ea2565b90508015610b80576040517fa9059cbb0000000000000000000000000000000000000000000000000000000081523360048201526024810182905273ffffffffffffffffffffffffffffffffffffffff84169063a9059cbb906044016020604051808303816000875af1158015610b56573d6000803e3d6000fd5b505050506040513d601f19601f82011682018060405250810190610b7a9190610ebb565b50610be2565b6040517f08c379a000000000000000000000000000000000000000000000000000000000815260206004820152601560248201527f546f6b656e2062616c616e6365206973207a65726f00000000000000000000006044820152606401610253565b50600192915050565b60003373ffffffffffffffffffffffffffffffffffffffff1673ce4a03425a64a41387b3ae4bdfb621d9c3d9b50173ffffffffffffffffffffffffffffffffffffffff16630ae50a396040518163ffffffff1660e01b8152600401602060405180830381865afa158015610c63573d6000803e3d6000fd5b505050506040513d601f19601f82011682018060405250810190610c879190610e85565b73ffffffffffffffffffffffffffffffffffffffff1614610d04576040517f08c379a000000000000000000000000000000000000000000000000000000000815260206004820152600a60248201527f4f776e6572206f6e6c79000000000000000000000000000000000000000000006044820152606401610253565b4715610d3c5760405133904780156108fc02916000818181858888f19350505050158015610d36573d6000803e3d6000fd5b50610d9e565b6040517f08c379a000000000000000000000000000000000000000000000000000000000815260206004820152601560248201527f4d415449432062616c616e6365206973207a65726f00000000000000000000006044820152606401610253565b50600190565b73ffffffffffffffffffffffffffffffffffffffff81168114610dc657600080fd5b50565b60008060408385031215610ddc57600080fd5b8235610de781610da4565b946020939093013593505050565b600060208284031215610e0757600080fd5b8135610e1281610da4565b9392505050565b600060208083528351808285015260005b81811015610e4657858101830151858201604001528201610e2a565b5060006040828601015260407fffffffffffffffffffffffffffffffffffffffffffffffffffffffffffffffe0601f8301168501019250505092915050565b600060208284031215610e9757600080fd5b8151610e1281610da4565b600060208284031215610eb457600080fd5b5051919050565b600060208284031215610ecd57600080fd5b81518015158114610e1257600080fd5b8082018082111561092b577f4e487b7100000000000000000000000000000000000000000000000000000000600052601160045260246000fd5b60006101008201905073ffffffffffffffffffffffffffffffffffffffff80845116835280602085015116602084015262ffffff6040850151166040840152806060850151166060840152506080830151608083015260a083015160a083015260c083015160c083015260e0830151610fa860e084018273ffffffffffffffffffffffffffffffffffffffff169052565b509291505056fea26469706673582212203cd415f198ac5de8a62e8a9d28322cd8b2015a24defb2244045a5c7787efc74964736f6c63430008120033",
    "sourcePath": "m:/Workspaces/FiskPay/New Concept/Solidity/FiskPay/Payment/Swapper.sol",
    "compiler": {
        "name": "solc",
        "version": "0.8.18+commit.87f61d96"
    },
    "functionHashes": {
        "Name()": "8052474d",
        "Swap(address,uint256)": "562c2195",
        "WithdrawMATIC()": "f58481d5",
        "WithdrawToken(address)": "5c4c9f6f"
    },
    "gasEstimates": {
        "creation": {
            "codeDepositCost": "813800",
            "executionCost": "infinite",
            "totalCost": "infinite"
        },
        "external": {
            "": "179",
            "Name()": "infinite",
            "Swap(address,uint256)": "infinite",
            "WithdrawMATIC()": "infinite",
            "WithdrawToken(address)": "infinite"
        }
    }
}