{
    "contractName": "Swap",
    "abi": [
        {
            "inputs": [],
            "stateMutability": "nonpayable",
            "type": "constructor"
        },
        {
            "stateMutability": "nonpayable",
            "type": "fallback"
        },
        {
            "inputs": [],
            "name": "Name",
            "outputs": [
                {
                    "internalType": "string",
                    "name": "",
                    "type": "string"
                }
            ],
            "stateMutability": "view",
            "type": "function"
        },
        {
            "inputs": [
                {
                    "internalType": "address",
                    "name": "_token",
                    "type": "address"
                },
                {
                    "internalType": "uint256",
                    "name": "_amount",
                    "type": "uint256"
                }
            ],
            "name": "swapExactInputSingle",
            "outputs": [
                {
                    "internalType": "uint256",
                    "name": "amountOut",
                    "type": "uint256"
                }
            ],
            "stateMutability": "nonpayable",
            "type": "function"
        },
        {
            "stateMutability": "payable",
            "type": "receive"
        }
    ],
    "bytecode": "60c060405234801561001057600080fd5b50737f6b1f900113a9b46e4f38395bfc28075324a9f46001600160a01b031663ee5503d06040518163ffffffff1660e01b8152600401602060405180830381865afa158015610063573d6000803e3d6000fd5b505050506040513d601f19601f820116820180604052508101906100879190610118565b6001600160a01b03166080526040805163e666cdef60e01b81529051737f6b1f900113a9b46e4f38395bfc28075324a9f49163e666cdef9160048083019260209291908290030181865afa1580156100e3573d6000803e3d6000fd5b505050506040513d601f19601f820116820180604052508101906101079190610118565b6001600160a01b031660a052610148565b60006020828403121561012a57600080fd5b81516001600160a01b038116811461014157600080fd5b9392505050565b60805160a0516104f461016a600039600061024b0152600050506104f46000f3fe60806040526004361061002d5760003560e01c80638052474d14610048578063f040976c146100a757610037565b3661003757600080fd5b34801561004357600080fd5b600080fd5b34801561005457600080fd5b506100916040518060400160405280600f81526020017f5061796d656e742e53776170706572000000000000000000000000000000000081525081565b60405161009e9190610333565b60405180910390f35b3480156100b357600080fd5b506100c76100c236600461039f565b6100d5565b60405190815260200161009e565b6040517f23b872dd00000000000000000000000000000000000000000000000000000000815233600482015230602482015260448101829052600090839073ffffffffffffffffffffffffffffffffffffffff8216906323b872dd906064016020604051808303816000875af1158015610153573d6000803e3d6000fd5b505050506040513d601f19601f8201168201806040525081019061017791906103e4565b506040517f095ea7b300000000000000000000000000000000000000000000000000000000815273e592427a0aece92de3edee1f18e0157c0586156460048201526024810184905273ffffffffffffffffffffffffffffffffffffffff82169063095ea7b3906044016020604051808303816000875af11580156101ff573d6000803e3d6000fd5b505050506040513d601f19601f8201168201806040525081019061022391906103e4565b50604080516101008101825273ffffffffffffffffffffffffffffffffffffffff80871682527f0000000000000000000000000000000000000000000000000000000000000000166020820152610bb88183015230606082015242608082015260a08101859052600060c0820181905260e082015290517f414bf38900000000000000000000000000000000000000000000000000000000815273e592427a0aece92de3edee1f18e0157c058615649063414bf389906102e790849060040161040d565b6020604051808303816000875af1158015610306573d6000803e3d6000fd5b505050506040513d601f19601f8201168201806040525081019061032a91906104a5565b95945050505050565b600060208083528351808285015260005b8181101561036057858101830151858201604001528201610344565b5060006040828601015260407fffffffffffffffffffffffffffffffffffffffffffffffffffffffffffffffe0601f8301168501019250505092915050565b600080604083850312156103b257600080fd5b823573ffffffffffffffffffffffffffffffffffffffff811681146103d657600080fd5b946020939093013593505050565b6000602082840312156103f657600080fd5b8151801515811461040657600080fd5b9392505050565b60006101008201905073ffffffffffffffffffffffffffffffffffffffff80845116835280602085015116602084015262ffffff6040850151166040840152806060850151166060840152506080830151608083015260a083015160a083015260c083015160c083015260e083015161049e60e084018273ffffffffffffffffffffffffffffffffffffffff169052565b5092915050565b6000602082840312156104b757600080fd5b505191905056fea2646970667358221220073405c2bdf79e9a2e6cfe6ebdd10ecea7ed7cfe60f80ec8b8e880e4bce8572364736f6c63430008120033",
    "sourcePath": "m:/Workspaces/FiskPay/New Concept/Solidity/FiskPay/Payment/Swapper.sol",
    "compiler": {
        "name": "solc",
        "version": "0.8.18+commit.87f61d96"
    },
    "functionHashes": {
        "Name()": "8052474d",
        "swapExactInputSingle(address,uint256)": "f040976c"
    },
    "gasEstimates": {
        "creation": {
            "codeDepositCost": "253600",
            "executionCost": "infinite",
            "totalCost": "infinite"
        },
        "external": {
            "": "135",
            "Name()": "infinite",
            "swapExactInputSingle(address,uint256)": "infinite"
        }
    }
}