{
	"data": {
		"bytecode": {
			"linkReferences": {},
			"object": "608060405234801561001057600080fd5b506107d4806100206000396000f3fe6080604052600436106100355760003560e01c80636452c22d1461003e5780638052474d14610075578063925849ad146100cb57005b3661003c57005b005b34801561004a57600080fd5b5061005e610059366004610685565b610178565b60405160ff90911681526020015b60405180910390f35b34801561008157600080fd5b506100be6040518060400160405280601581526020017f2e5061796d656e742e496d706c656d656e746f7273000000000000000000000081525081565b60405161006c91906106a9565b3480156100d757600080fd5b506101526100e6366004610685565b73ffffffffffffffffffffffffffffffffffffffff166000908152600260209081526040918290208251606081018452905463ffffffff80821680845264010000000083049091169383018490526801000000000000000090910460ff16919093018190529192909190565b6040805163ffffffff948516815293909216602084015260ff169082015260600161006c565b6040517fc75ffd8600000000000000000000000000000000000000000000000000000000815260206004820152601360248201527f2e5061796d656e742e50726f63636573736f7200000000000000000000000000604482015260009033907372ec1287ff5bb960fd54ac2adae99145153c561f9063c75ffd8690606401602060405180830381865afa158015610213573d6000803e3d6000fd5b505050506040513d601f19601f820116820180604052508101906102379190610715565b73ffffffffffffffffffffffffffffffffffffffff16146102b8576040517f08c379a000000000000000000000000000000000000000000000000000000000815260206004820152600f60248201527f50726f63636573736f72206f6e6c790000000000000000000000000000000000604482015260640160405180910390fd5b73ffffffffffffffffffffffffffffffffffffffff82166000908152600260205260409020805463ffffffff42811664010000000090920416101561060e57805463ffffffff166161a781111561033f5781547fffffffffffffffffffffffffffffffffffffffffffffff00ffffffffffffffff1668c800000000000000001782556105a0565b6130d38163ffffffff1611156103855781547fffffffffffffffffffffffffffffffffffffffffffffff00ffffffffffffffff16689600000000000000001782556105a0565b611d4b8163ffffffff1611156103cb5781547fffffffffffffffffffffffffffffffffffffffffffffff00ffffffffffffffff16687d00000000000000001782556105a0565b6113878163ffffffff1611156104115781547fffffffffffffffffffffffffffffffffffffffffffffff00ffffffffffffffff16686400000000000000001782556105a0565b6109c38163ffffffff1611156104575781547fffffffffffffffffffffffffffffffffffffffffffffff00ffffffffffffffff16685000000000000000001782556105a0565b6105db8163ffffffff16111561049d5781547fffffffffffffffffffffffffffffffffffffffffffffff00ffffffffffffffff16683c00000000000000001782556105a0565b6103e78163ffffffff1611156104e35781547fffffffffffffffffffffffffffffffffffffffffffffff00ffffffffffffffff16683200000000000000001782556105a0565b6101f38163ffffffff1611156105295781547fffffffffffffffffffffffffffffffffffffffffffffff00ffffffffffffffff16682800000000000000001782556105a0565b60f98163ffffffff16111561056e5781547fffffffffffffffffffffffffffffffffffffffffffffff00ffffffffffffffff16682300000000000000001782556105a0565b81547fffffffffffffffffffffffffffffffffffffffffffffff00ffffffffffffffff16681e00000000000000001782555b81547fffffffffffffffffffffffffffffffffffffffffffffffffffffffff000000001682556105d3426213c680610761565b825463ffffffff91909116640100000000027fffffffffffffffffffffffffffffffffffffffffffffffff00000000ffffffff909116178255505b8054600190829060009061062990849063ffffffff1661077a565b825463ffffffff9182166101009390930a9283029190920219909116179055505460ff680100000000000000009091041692915050565b73ffffffffffffffffffffffffffffffffffffffff8116811461068257600080fd5b50565b60006020828403121561069757600080fd5b81356106a281610660565b9392505050565b600060208083528351808285015260005b818110156106d6578581018301518582016040015282016106ba565b5060006040828601015260407fffffffffffffffffffffffffffffffffffffffffffffffffffffffffffffffe0601f8301168501019250505092915050565b60006020828403121561072757600080fd5b81516106a281610660565b7f4e487b7100000000000000000000000000000000000000000000000000000000600052601160045260246000fd5b8082018082111561077457610774610732565b92915050565b63ffffffff81811683821601908082111561079757610797610732565b509291505056fea2646970667358221220fc9438a0c0435a5f059487bca2ca38250a6cc7bf03a43c2f5ed59b180cb9610464736f6c63430008120033",
			"opcodes": "PUSH1 0x80 PUSH1 0x40 MSTORE CALLVALUE DUP1 ISZERO PUSH2 0x10 JUMPI PUSH1 0x0 DUP1 REVERT JUMPDEST POP PUSH2 0x7D4 DUP1 PUSH2 0x20 PUSH1 0x0 CODECOPY PUSH1 0x0 RETURN INVALID PUSH1 0x80 PUSH1 0x40 MSTORE PUSH1 0x4 CALLDATASIZE LT PUSH2 0x35 JUMPI PUSH1 0x0 CALLDATALOAD PUSH1 0xE0 SHR DUP1 PUSH4 0x6452C22D EQ PUSH2 0x3E JUMPI DUP1 PUSH4 0x8052474D EQ PUSH2 0x75 JUMPI DUP1 PUSH4 0x925849AD EQ PUSH2 0xCB JUMPI STOP JUMPDEST CALLDATASIZE PUSH2 0x3C JUMPI STOP JUMPDEST STOP JUMPDEST CALLVALUE DUP1 ISZERO PUSH2 0x4A JUMPI PUSH1 0x0 DUP1 REVERT JUMPDEST POP PUSH2 0x5E PUSH2 0x59 CALLDATASIZE PUSH1 0x4 PUSH2 0x685 JUMP JUMPDEST PUSH2 0x178 JUMP JUMPDEST PUSH1 0x40 MLOAD PUSH1 0xFF SWAP1 SWAP2 AND DUP2 MSTORE PUSH1 0x20 ADD JUMPDEST PUSH1 0x40 MLOAD DUP1 SWAP2 SUB SWAP1 RETURN JUMPDEST CALLVALUE DUP1 ISZERO PUSH2 0x81 JUMPI PUSH1 0x0 DUP1 REVERT JUMPDEST POP PUSH2 0xBE PUSH1 0x40 MLOAD DUP1 PUSH1 0x40 ADD PUSH1 0x40 MSTORE DUP1 PUSH1 0x15 DUP2 MSTORE PUSH1 0x20 ADD PUSH32 0x2E5061796D656E742E496D706C656D656E746F72730000000000000000000000 DUP2 MSTORE POP DUP2 JUMP JUMPDEST PUSH1 0x40 MLOAD PUSH2 0x6C SWAP2 SWAP1 PUSH2 0x6A9 JUMP JUMPDEST CALLVALUE DUP1 ISZERO PUSH2 0xD7 JUMPI PUSH1 0x0 DUP1 REVERT JUMPDEST POP PUSH2 0x152 PUSH2 0xE6 CALLDATASIZE PUSH1 0x4 PUSH2 0x685 JUMP JUMPDEST PUSH20 0xFFFFFFFFFFFFFFFFFFFFFFFFFFFFFFFFFFFFFFFF AND PUSH1 0x0 SWAP1 DUP2 MSTORE PUSH1 0x2 PUSH1 0x20 SWAP1 DUP2 MSTORE PUSH1 0x40 SWAP2 DUP3 SWAP1 KECCAK256 DUP3 MLOAD PUSH1 0x60 DUP2 ADD DUP5 MSTORE SWAP1 SLOAD PUSH4 0xFFFFFFFF DUP1 DUP3 AND DUP1 DUP5 MSTORE PUSH5 0x100000000 DUP4 DIV SWAP1 SWAP2 AND SWAP4 DUP4 ADD DUP5 SWAP1 MSTORE PUSH9 0x10000000000000000 SWAP1 SWAP2 DIV PUSH1 0xFF AND SWAP2 SWAP1 SWAP4 ADD DUP2 SWAP1 MSTORE SWAP2 SWAP3 SWAP1 SWAP2 SWAP1 JUMP JUMPDEST PUSH1 0x40 DUP1 MLOAD PUSH4 0xFFFFFFFF SWAP5 DUP6 AND DUP2 MSTORE SWAP4 SWAP1 SWAP3 AND PUSH1 0x20 DUP5 ADD MSTORE PUSH1 0xFF AND SWAP1 DUP3 ADD MSTORE PUSH1 0x60 ADD PUSH2 0x6C JUMP JUMPDEST PUSH1 0x40 MLOAD PUSH32 0xC75FFD8600000000000000000000000000000000000000000000000000000000 DUP2 MSTORE PUSH1 0x20 PUSH1 0x4 DUP3 ADD MSTORE PUSH1 0x13 PUSH1 0x24 DUP3 ADD MSTORE PUSH32 0x2E5061796D656E742E50726F63636573736F7200000000000000000000000000 PUSH1 0x44 DUP3 ADD MSTORE PUSH1 0x0 SWAP1 CALLER SWAP1 PUSH20 0x72EC1287FF5BB960FD54AC2ADAE99145153C561F SWAP1 PUSH4 0xC75FFD86 SWAP1 PUSH1 0x64 ADD PUSH1 0x20 PUSH1 0x40 MLOAD DUP1 DUP4 SUB DUP2 DUP7 GAS STATICCALL ISZERO DUP1 ISZERO PUSH2 0x213 JUMPI RETURNDATASIZE PUSH1 0x0 DUP1 RETURNDATACOPY RETURNDATASIZE PUSH1 0x0 REVERT JUMPDEST POP POP POP POP PUSH1 0x40 MLOAD RETURNDATASIZE PUSH1 0x1F NOT PUSH1 0x1F DUP3 ADD AND DUP3 ADD DUP1 PUSH1 0x40 MSTORE POP DUP2 ADD SWAP1 PUSH2 0x237 SWAP2 SWAP1 PUSH2 0x715 JUMP JUMPDEST PUSH20 0xFFFFFFFFFFFFFFFFFFFFFFFFFFFFFFFFFFFFFFFF AND EQ PUSH2 0x2B8 JUMPI PUSH1 0x40 MLOAD PUSH32 0x8C379A000000000000000000000000000000000000000000000000000000000 DUP2 MSTORE PUSH1 0x20 PUSH1 0x4 DUP3 ADD MSTORE PUSH1 0xF PUSH1 0x24 DUP3 ADD MSTORE PUSH32 0x50726F63636573736F72206F6E6C790000000000000000000000000000000000 PUSH1 0x44 DUP3 ADD MSTORE PUSH1 0x64 ADD PUSH1 0x40 MLOAD DUP1 SWAP2 SUB SWAP1 REVERT JUMPDEST PUSH20 0xFFFFFFFFFFFFFFFFFFFFFFFFFFFFFFFFFFFFFFFF DUP3 AND PUSH1 0x0 SWAP1 DUP2 MSTORE PUSH1 0x2 PUSH1 0x20 MSTORE PUSH1 0x40 SWAP1 KECCAK256 DUP1 SLOAD PUSH4 0xFFFFFFFF TIMESTAMP DUP2 AND PUSH5 0x100000000 SWAP1 SWAP3 DIV AND LT ISZERO PUSH2 0x60E JUMPI DUP1 SLOAD PUSH4 0xFFFFFFFF AND PUSH2 0x61A7 DUP2 GT ISZERO PUSH2 0x33F JUMPI DUP2 SLOAD PUSH32 0xFFFFFFFFFFFFFFFFFFFFFFFFFFFFFFFFFFFFFFFFFFFFFF00FFFFFFFFFFFFFFFF AND PUSH9 0xC80000000000000000 OR DUP3 SSTORE PUSH2 0x5A0 JUMP JUMPDEST PUSH2 0x30D3 DUP2 PUSH4 0xFFFFFFFF AND GT ISZERO PUSH2 0x385 JUMPI DUP2 SLOAD PUSH32 0xFFFFFFFFFFFFFFFFFFFFFFFFFFFFFFFFFFFFFFFFFFFFFF00FFFFFFFFFFFFFFFF AND PUSH9 0x960000000000000000 OR DUP3 SSTORE PUSH2 0x5A0 JUMP JUMPDEST PUSH2 0x1D4B DUP2 PUSH4 0xFFFFFFFF AND GT ISZERO PUSH2 0x3CB JUMPI DUP2 SLOAD PUSH32 0xFFFFFFFFFFFFFFFFFFFFFFFFFFFFFFFFFFFFFFFFFFFFFF00FFFFFFFFFFFFFFFF AND PUSH9 0x7D0000000000000000 OR DUP3 SSTORE PUSH2 0x5A0 JUMP JUMPDEST PUSH2 0x1387 DUP2 PUSH4 0xFFFFFFFF AND GT ISZERO PUSH2 0x411 JUMPI DUP2 SLOAD PUSH32 0xFFFFFFFFFFFFFFFFFFFFFFFFFFFFFFFFFFFFFFFFFFFFFF00FFFFFFFFFFFFFFFF AND PUSH9 0x640000000000000000 OR DUP3 SSTORE PUSH2 0x5A0 JUMP JUMPDEST PUSH2 0x9C3 DUP2 PUSH4 0xFFFFFFFF AND GT ISZERO PUSH2 0x457 JUMPI DUP2 SLOAD PUSH32 0xFFFFFFFFFFFFFFFFFFFFFFFFFFFFFFFFFFFFFFFFFFFFFF00FFFFFFFFFFFFFFFF AND PUSH9 0x500000000000000000 OR DUP3 SSTORE PUSH2 0x5A0 JUMP JUMPDEST PUSH2 0x5DB DUP2 PUSH4 0xFFFFFFFF AND GT ISZERO PUSH2 0x49D JUMPI DUP2 SLOAD PUSH32 0xFFFFFFFFFFFFFFFFFFFFFFFFFFFFFFFFFFFFFFFFFFFFFF00FFFFFFFFFFFFFFFF AND PUSH9 0x3C0000000000000000 OR DUP3 SSTORE PUSH2 0x5A0 JUMP JUMPDEST PUSH2 0x3E7 DUP2 PUSH4 0xFFFFFFFF AND GT ISZERO PUSH2 0x4E3 JUMPI DUP2 SLOAD PUSH32 0xFFFFFFFFFFFFFFFFFFFFFFFFFFFFFFFFFFFFFFFFFFFFFF00FFFFFFFFFFFFFFFF AND PUSH9 0x320000000000000000 OR DUP3 SSTORE PUSH2 0x5A0 JUMP JUMPDEST PUSH2 0x1F3 DUP2 PUSH4 0xFFFFFFFF AND GT ISZERO PUSH2 0x529 JUMPI DUP2 SLOAD PUSH32 0xFFFFFFFFFFFFFFFFFFFFFFFFFFFFFFFFFFFFFFFFFFFFFF00FFFFFFFFFFFFFFFF AND PUSH9 0x280000000000000000 OR DUP3 SSTORE PUSH2 0x5A0 JUMP JUMPDEST PUSH1 0xF9 DUP2 PUSH4 0xFFFFFFFF AND GT ISZERO PUSH2 0x56E JUMPI DUP2 SLOAD PUSH32 0xFFFFFFFFFFFFFFFFFFFFFFFFFFFFFFFFFFFFFFFFFFFFFF00FFFFFFFFFFFFFFFF AND PUSH9 0x230000000000000000 OR DUP3 SSTORE PUSH2 0x5A0 JUMP JUMPDEST DUP2 SLOAD PUSH32 0xFFFFFFFFFFFFFFFFFFFFFFFFFFFFFFFFFFFFFFFFFFFFFF00FFFFFFFFFFFFFFFF AND PUSH9 0x1E0000000000000000 OR DUP3 SSTORE JUMPDEST DUP2 SLOAD PUSH32 0xFFFFFFFFFFFFFFFFFFFFFFFFFFFFFFFFFFFFFFFFFFFFFFFFFFFFFFFF00000000 AND DUP3 SSTORE PUSH2 0x5D3 TIMESTAMP PUSH3 0x13C680 PUSH2 0x761 JUMP JUMPDEST DUP3 SLOAD PUSH4 0xFFFFFFFF SWAP2 SWAP1 SWAP2 AND PUSH5 0x100000000 MUL PUSH32 0xFFFFFFFFFFFFFFFFFFFFFFFFFFFFFFFFFFFFFFFFFFFFFFFF00000000FFFFFFFF SWAP1 SWAP2 AND OR DUP3 SSTORE POP JUMPDEST DUP1 SLOAD PUSH1 0x1 SWAP1 DUP3 SWAP1 PUSH1 0x0 SWAP1 PUSH2 0x629 SWAP1 DUP5 SWAP1 PUSH4 0xFFFFFFFF AND PUSH2 0x77A JUMP JUMPDEST DUP3 SLOAD PUSH4 0xFFFFFFFF SWAP2 DUP3 AND PUSH2 0x100 SWAP4 SWAP1 SWAP4 EXP SWAP3 DUP4 MUL SWAP2 SWAP1 SWAP3 MUL NOT SWAP1 SWAP2 AND OR SWAP1 SSTORE POP SLOAD PUSH1 0xFF PUSH9 0x10000000000000000 SWAP1 SWAP2 DIV AND SWAP3 SWAP2 POP POP JUMP JUMPDEST PUSH20 0xFFFFFFFFFFFFFFFFFFFFFFFFFFFFFFFFFFFFFFFF DUP2 AND DUP2 EQ PUSH2 0x682 JUMPI PUSH1 0x0 DUP1 REVERT JUMPDEST POP JUMP JUMPDEST PUSH1 0x0 PUSH1 0x20 DUP3 DUP5 SUB SLT ISZERO PUSH2 0x697 JUMPI PUSH1 0x0 DUP1 REVERT JUMPDEST DUP2 CALLDATALOAD PUSH2 0x6A2 DUP2 PUSH2 0x660 JUMP JUMPDEST SWAP4 SWAP3 POP POP POP JUMP JUMPDEST PUSH1 0x0 PUSH1 0x20 DUP1 DUP4 MSTORE DUP4 MLOAD DUP1 DUP3 DUP6 ADD MSTORE PUSH1 0x0 JUMPDEST DUP2 DUP2 LT ISZERO PUSH2 0x6D6 JUMPI DUP6 DUP2 ADD DUP4 ADD MLOAD DUP6 DUP3 ADD PUSH1 0x40 ADD MSTORE DUP3 ADD PUSH2 0x6BA JUMP JUMPDEST POP PUSH1 0x0 PUSH1 0x40 DUP3 DUP7 ADD ADD MSTORE PUSH1 0x40 PUSH32 0xFFFFFFFFFFFFFFFFFFFFFFFFFFFFFFFFFFFFFFFFFFFFFFFFFFFFFFFFFFFFFFE0 PUSH1 0x1F DUP4 ADD AND DUP6 ADD ADD SWAP3 POP POP POP SWAP3 SWAP2 POP POP JUMP JUMPDEST PUSH1 0x0 PUSH1 0x20 DUP3 DUP5 SUB SLT ISZERO PUSH2 0x727 JUMPI PUSH1 0x0 DUP1 REVERT JUMPDEST DUP2 MLOAD PUSH2 0x6A2 DUP2 PUSH2 0x660 JUMP JUMPDEST PUSH32 0x4E487B7100000000000000000000000000000000000000000000000000000000 PUSH1 0x0 MSTORE PUSH1 0x11 PUSH1 0x4 MSTORE PUSH1 0x24 PUSH1 0x0 REVERT JUMPDEST DUP1 DUP3 ADD DUP1 DUP3 GT ISZERO PUSH2 0x774 JUMPI PUSH2 0x774 PUSH2 0x732 JUMP JUMPDEST SWAP3 SWAP2 POP POP JUMP JUMPDEST PUSH4 0xFFFFFFFF DUP2 DUP2 AND DUP4 DUP3 AND ADD SWAP1 DUP1 DUP3 GT ISZERO PUSH2 0x797 JUMPI PUSH2 0x797 PUSH2 0x732 JUMP JUMPDEST POP SWAP3 SWAP2 POP POP JUMP INVALID LOG2 PUSH5 0x6970667358 0x22 SLT KECCAK256 0xFC SWAP5 CODESIZE LOG0 0xC0 NUMBER GAS 0x5F SDIV SWAP5 DUP8 0xBC LOG2 0xCA CODESIZE 0x25 EXP PUSH13 0xC7BF03A43C2F5ED59B180CB961 DIV PUSH5 0x736F6C6343 STOP ADDMOD SLT STOP CALLER "
		},
		"gasEstimates": {
			"creation": {
				"codeDepositCost": "400800",
				"executionCost": "436",
				"totalCost": "401236"
			},
			"external": {
				"": "117",
				"GetEpochReward(address)": "infinite",
				"GetImplementorProfile(address)": "2746",
				"Name()": "infinite"
			}
		},
		"methodIdentifiers": {
			"GetEpochReward(address)": "6452c22d",
			"GetImplementorProfile(address)": "925849ad",
			"Name()": "8052474d"
		}
	},
	"abi": [
		{
			"stateMutability": "payable",
			"type": "fallback"
		},
		{
			"inputs": [
				{
					"internalType": "address",
					"name": "_implementor",
					"type": "address"
				}
			],
			"name": "GetEpochReward",
			"outputs": [
				{
					"internalType": "uint8",
					"name": "",
					"type": "uint8"
				}
			],
			"stateMutability": "nonpayable",
			"type": "function"
		},
		{
			"inputs": [
				{
					"internalType": "address",
					"name": "_implementor",
					"type": "address"
				}
			],
			"name": "GetImplementorProfile",
			"outputs": [
				{
					"internalType": "uint32",
					"name": "epochSales",
					"type": "uint32"
				},
				{
					"internalType": "uint32",
					"name": "epochEnd",
					"type": "uint32"
				},
				{
					"internalType": "uint8",
					"name": "epochReward",
					"type": "uint8"
				}
			],
			"stateMutability": "view",
			"type": "function"
		},
		{
			"inputs": [],
			"name": "Name",
			"outputs": [
				{
					"internalType": "string",
					"name": "",
					"type": "string"
				}
			],
			"stateMutability": "view",
			"type": "function"
		},
		{
			"stateMutability": "payable",
			"type": "receive"
		}
	]
}