{
    "contractName": "Bank",
    "abi": [
        {
            "anonymous": false,
            "inputs": [
                {
                    "indexed": true,
                    "internalType": "address",
                    "name": "_from",
                    "type": "address"
                },
                {
                    "indexed": false,
                    "internalType": "uint256",
                    "name": "_amount",
                    "type": "uint256"
                }
            ],
            "name": "Deposit",
            "type": "event"
        },
        {
            "anonymous": false,
            "inputs": [
                {
                    "indexed": true,
                    "internalType": "address",
                    "name": "_to",
                    "type": "address"
                },
                {
                    "indexed": false,
                    "internalType": "uint256",
                    "name": "_amount",
                    "type": "uint256"
                }
            ],
            "name": "Withdraw",
            "type": "event"
        },
        {
            "stateMutability": "payable",
            "type": "fallback"
        },
        {
            "inputs": [
                {
                    "internalType": "address",
                    "name": "_employee",
                    "type": "address"
                },
                {
                    "internalType": "uint256",
                    "name": "_amount",
                    "type": "uint256"
                }
            ],
            "name": "EmployeeWithdraw",
            "outputs": [
                {
                    "internalType": "bool",
                    "name": "",
                    "type": "bool"
                }
            ],
            "stateMutability": "nonpayable",
            "type": "function"
        },
        {
            "inputs": [],
            "name": "GetTotalMATIC",
            "outputs": [
                {
                    "internalType": "uint256",
                    "name": "",
                    "type": "uint256"
                }
            ],
            "stateMutability": "view",
            "type": "function"
        },
        {
            "inputs": [],
            "name": "Name",
            "outputs": [
                {
                    "internalType": "string",
                    "name": "",
                    "type": "string"
                }
            ],
            "stateMutability": "view",
            "type": "function"
        },
        {
            "stateMutability": "payable",
            "type": "receive"
        }
    ],
    "bytecode": "60806040526000805534801561001457600080fd5b506104de806100246000396000f3fe6080604052600436106100385760003560e01c8063541787741461009b5780638052474d146100be57806388e82408146101145761008a565b3661008a573460008082825461004e919061038d565b909155505060405134815233907fe1fffcc4923d04b559f4d29a8bfc6cda04eb5b0d3c460751c2402c5c5cc9109c9060200160405180910390a2005b3460008082825461004e919061038d565b3480156100a757600080fd5b506000546040519081526020015b60405180910390f35b3480156100ca57600080fd5b506101076040518060400160405280601181526020017f2e436f72706f726174696f6e2e42616e6b00000000000000000000000000000081525081565b6040516100b591906103c7565b34801561012057600080fd5b5061013461012f366004610458565b610144565b60405190151581526020016100b5565b6040517f8b05f6de00000000000000000000000000000000000000000000000000000000815260206004820152601360248201527f2e436f72706f726174696f6e2e5061796f6666000000000000000000000000006044820152600090339073ce4a03425a64a41387b3ae4bdfb621d9c3d9b50190638b05f6de90606401602060405180830381865afa1580156101df573d6000803e3d6000fd5b505050506040513d601f19601f820116820180604052508101906102039190610484565b73ffffffffffffffffffffffffffffffffffffffff1614610285576040517f08c379a000000000000000000000000000000000000000000000000000000000815260206004820152600b60248201527f5061796f6666206f6e6c7900000000000000000000000000000000000000000060448201526064015b60405180910390fd5b478211156102ef576040517f08c379a000000000000000000000000000000000000000000000000000000000815260206004820152601060248201527f4e6f7420656e6f756768204d4154494300000000000000000000000000000000604482015260640161027c565b60405173ffffffffffffffffffffffffffffffffffffffff84169083156108fc029084906000818181858888f19350505050158015610332573d6000803e3d6000fd5b508273ffffffffffffffffffffffffffffffffffffffff167f884edad9ce6fa2440d8a54cc123490eb96d2768479d49ff9c7366125a94243648360405161037b91815260200190565b60405180910390a25060015b92915050565b80820180821115610387577f4e487b7100000000000000000000000000000000000000000000000000000000600052601160045260246000fd5b600060208083528351808285015260005b818110156103f4578581018301518582016040015282016103d8565b5060006040828601015260407fffffffffffffffffffffffffffffffffffffffffffffffffffffffffffffffe0601f8301168501019250505092915050565b73ffffffffffffffffffffffffffffffffffffffff8116811461045557600080fd5b50565b6000806040838503121561046b57600080fd5b823561047681610433565b946020939093013593505050565b60006020828403121561049657600080fd5b81516104a181610433565b939250505056fea2646970667358221220bd677ecf31275803f56d14b6bed0ba5cc3814b888fa31cafe1e9f5fcee6ec5af64736f6c63430008120033",
    "sourcePath": "m:/Workspaces/FiskPay/New Concept/Solidity/FiskPay/Corporation/Bank.sol",
    "compiler": {
        "name": "solc",
        "version": "0.8.18+commit.87f61d96"
    },
    "functionHashes": {
        "EmployeeWithdraw(address,uint256)": "88e82408",
        "GetTotalMATIC()": "54178774",
        "Name()": "8052474d"
    },
    "gasEstimates": {
        "creation": {
            "codeDepositCost": "249200",
            "executionCost": "5293",
            "totalCost": "254493"
        },
        "external": {
            "": "25864",
            "EmployeeWithdraw(address,uint256)": "infinite",
            "GetTotalMATIC()": "2247",
            "Name()": "infinite"
        }
    }
}