{
    "contractName": "Employees",
    "abi": [
        {
            "anonymous": false,
            "inputs": [
                {
                    "indexed": true,
                    "internalType": "address",
                    "name": "_employee",
                    "type": "address"
                },
                {
                    "indexed": false,
                    "internalType": "uint256",
                    "name": "_amount",
                    "type": "uint256"
                }
            ],
            "name": "Payoff",
            "type": "event"
        },
        {
            "stateMutability": "payable",
            "type": "fallback"
        },
        {
            "inputs": [],
            "name": "Name",
            "outputs": [
                {
                    "internalType": "string",
                    "name": "",
                    "type": "string"
                }
            ],
            "stateMutability": "view",
            "type": "function"
        },
        {
            "inputs": [],
            "name": "ReceiveWage",
            "outputs": [
                {
                    "internalType": "bool",
                    "name": "",
                    "type": "bool"
                }
            ],
            "stateMutability": "nonpayable",
            "type": "function"
        },
        {
            "stateMutability": "payable",
            "type": "receive"
        }
    ],
    "bytecode": "60806040526000805463ffffffff1916905534801561001d57600080fd5b50610abb8061002d6000396000f3fe60806040526004361061002a5760003560e01c80638052474d14610033578063f69b74fe1461009257005b3661003157005b005b34801561003f57600080fd5b5061007c6040518060400160405280601681526020017f2e436f72706f726174696f6e2e456d706c6f796565730000000000000000000081525081565b6040516100899190610771565b60405180910390f35b34801561009e57600080fd5b506100a76100b7565b6040519015158152602001610089565b6040517fc75ffd8600000000000000000000000000000000000000000000000000000000815260206004820152601360248201527f2e436f72706f726174696f6e2e4f7261636c65000000000000000000000000006044820152600090819073ce4a03425a64a41387b3ae4bdfb621d9c3d9b5019063c75ffd8690606401602060405180830381865afa158015610152573d6000803e3d6000fd5b505050506040513d601f19601f8201168201806040525081019061017691906107dd565b6040517fc75ffd8600000000000000000000000000000000000000000000000000000000815260206004820152601160248201527f2e436f72706f726174696f6e2e42616e6b0000000000000000000000000000006044820152909150819060009073ce4a03425a64a41387b3ae4bdfb621d9c3d9b5019063c75ffd8690606401602060405180830381865afa158015610214573d6000803e3d6000fd5b505050506040513d601f19601f8201168201806040525081019061023891906107dd565b3360009081526001602081905260409091208054929350839290916c0100000000000000000000000090910460ff161515146102d5576040517f08c379a000000000000000000000000000000000000000000000000000000000815260206004820152600d60248201527f456d706c6f796565206f6e6c790000000000000000000000000000000000000060448201526064015b60405180910390fd5b73ffffffffffffffffffffffffffffffffffffffff8516610352576040517f08c379a000000000000000000000000000000000000000000000000000000000815260206004820152600960248201527f4e6f204f7261636c65000000000000000000000000000000000000000000000060448201526064016102cc565b73ffffffffffffffffffffffffffffffffffffffff85166103cf576040517f08c379a000000000000000000000000000000000000000000000000000000000815260206004820152600760248201527f4e6f2042616e6b0000000000000000000000000000000000000000000000000060448201526064016102cc565b60008473ffffffffffffffffffffffffffffffffffffffff1663f9a4bbbe6040518163ffffffff1660e01b8152600401602060405180830381865afa15801561041c573d6000803e3d6000fd5b505050506040513d601f19601f82011682018060405250810190610440919061081a565b905060008573ffffffffffffffffffffffffffffffffffffffff166316f0a3866040518163ffffffff1660e01b8152600401602060405180830381865afa15801561048f573d6000803e3d6000fd5b505050506040513d601f19601f820116820180604052508101906104b39190610833565b90506000821361051f576040517f08c379a000000000000000000000000000000000000000000000000000000000815260206004820152601060248201527f556e61636365707465642070726963650000000000000000000000000000000060448201526064016102cc565b825460009062015180906105459068010000000000000000900463ffffffff1642610885565b61054f91906108cd565b845490915060009062015180906105789068010000000000000000900463ffffffff1642610885565b61058291906108e1565b905061059463ffffffff821642610885565b855463ffffffff9190911668010000000000000000027fffffffffffffffffffffffffffffffffffffffff00000000ffffffffffffffff9091161785556000846105df85600a610a15565b87546105fa908690640100000000900463ffffffff16610a24565b63ffffffff1661060a9190610a4c565b61061491906108cd565b6040517f19eddcd40000000000000000000000000000000000000000000000000000000081523360048201526024810182905290915073ffffffffffffffffffffffffffffffffffffffff8816906319eddcd4906044016020604051808303816000875af19250505080156106c4575060408051601f3d9081017fffffffffffffffffffffffffffffffffffffffffffffffffffffffffffffffe01682019092526106c191810190610a63565b60015b61072a576040517f08c379a000000000000000000000000000000000000000000000000000000000815260206004820152600d60248201527f5061796f6666206661696c65640000000000000000000000000000000000000060448201526064016102cc565b5060405181815233907f19eddcd4ad26ba3af30f3a2b4f38e2d0f708cb87634fe9becb19eea2013149bb9060200160405180910390a260019a505050505050505050505090565b600060208083528351808285015260005b8181101561079e57858101830151858201604001528201610782565b5060006040828601015260407fffffffffffffffffffffffffffffffffffffffffffffffffffffffffffffffe0601f8301168501019250505092915050565b6000602082840312156107ef57600080fd5b815173ffffffffffffffffffffffffffffffffffffffff8116811461081357600080fd5b9392505050565b60006020828403121561082c57600080fd5b5051919050565b60006020828403121561084557600080fd5b815160ff8116811461081357600080fd5b7f4e487b7100000000000000000000000000000000000000000000000000000000600052601160045260246000fd5b8181038181111561089857610898610856565b92915050565b7f4e487b7100000000000000000000000000000000000000000000000000000000600052601260045260246000fd5b6000826108dc576108dc61089e565b500490565b6000826108f0576108f061089e565b500690565b600181815b8085111561094e57817fffffffffffffffffffffffffffffffffffffffffffffffffffffffffffffffff0482111561093457610934610856565b8085161561094157918102915b93841c93908002906108fa565b509250929050565b60008261096557506001610898565b8161097257506000610898565b81600181146109885760028114610992576109ae565b6001915050610898565b60ff8411156109a3576109a3610856565b50506001821b610898565b5060208310610133831016604e8410600b84101617156109d1575081810a610898565b6109db83836108f5565b807fffffffffffffffffffffffffffffffffffffffffffffffffffffffffffffffff04821115610a0d57610a0d610856565b029392505050565b600061081360ff841683610956565b63ffffffff818116838216028082169190828114610a4457610a44610856565b505092915050565b808202811582820484141761089857610898610856565b600060208284031215610a7557600080fd5b8151801515811461081357600080fdfea2646970667358221220f00c2e723222c51047f59c4f1e644d5c08c37eba8cf2638e0e650ea77db1c45064736f6c63430008120033",
    "sourcePath": "m:/Workspaces/FiskPay/New Concept/Solidity/FiskPay/Corporation/Employees.sol",
    "compiler": {
        "name": "solc",
        "version": "0.8.18+commit.87f61d96"
    },
    "functionHashes": {
        "Name()": "8052474d",
        "ReceiveWage()": "f69b74fe"
    },
    "gasEstimates": {
        "creation": {
            "codeDepositCost": "549400",
            "executionCost": "24799",
            "totalCost": "574199"
        },
        "external": {
            "": "95",
            "Name()": "infinite",
            "ReceiveWage()": "infinite"
        }
    }
}