{
	"data": {
		"bytecode": {
			"linkReferences": {},
			"object": "608060405234801561001057600080fd5b506109f1806100206000396000f3fe6080604052600436106100385760003560e01c80636452c22d146100535780638052474d14610090578063925849ad146100bb57610042565b3661004257600080fd5b34801561004e57600080fd5b600080fd5b34801561005f57600080fd5b5061007a60048036038101906100759190610673565b6100fa565b60405161008791906106bc565b60405180910390f35b34801561009c57600080fd5b506100a5610502565b6040516100b29190610767565b60405180910390f35b3480156100c757600080fd5b506100e260048036038101906100dd9190610673565b61053b565b6040516100f1939291906107c6565b60405180910390f35b60003373ffffffffffffffffffffffffffffffffffffffff1673822cf05e174d656f5c4dc0c0ad913f18269efd1d73ffffffffffffffffffffffffffffffffffffffff1663c75ffd866040518163ffffffff1660e01b815260040161015e90610849565b602060405180830381865afa15801561017b573d6000803e3d6000fd5b505050506040513d601f19601f8201168201806040525081019061019f919061087e565b73ffffffffffffffffffffffffffffffffffffffff16146101f5576040517f08c379a00000000000000000000000000000000000000000000000000000000081526004016101ec906108f7565b60405180910390fd5b6000600260008473ffffffffffffffffffffffffffffffffffffffff1673ffffffffffffffffffffffffffffffffffffffff16815260200190815260200160002090504263ffffffff168160000160039054906101000a900463ffffffff1663ffffffff1610156104a95760008160000160009054906101000a900462ffffff1690506161a78162ffffff1611156102aa5760c88260000160076101000a81548160ff021916908360ff160217905550610460565b6130d38162ffffff1611156102dc5760968260000160076101000a81548160ff021916908360ff16021790555061045f565b611d4b8162ffffff16111561030e57607d8260000160076101000a81548160ff021916908360ff16021790555061045e565b6113878162ffffff1611156103405760648260000160076101000a81548160ff021916908360ff16021790555061045d565b6109c38162ffffff1611156103725760508260000160076101000a81548160ff021916908360ff16021790555061045c565b6105db8162ffffff1611156103a457603c8260000160076101000a81548160ff021916908360ff16021790555061045b565b6103e78162ffffff1611156103d65760328260000160076101000a81548160ff021916908360ff16021790555061045a565b6101f38162ffffff1611156104085760288260000160076101000a81548160ff021916908360ff160217905550610459565b60f98162ffffff1611156104395760238260000160076101000a81548160ff021916908360ff160217905550610458565b601e8260000160076101000a81548160ff021916908360ff1602179055505b5b5b5b5b5b5b5b5b8160000160006101000a81549062ffffff02191690556213c680426104859190610950565b8260000160036101000a81548163ffffffff021916908363ffffffff160217905550505b60018160000160008282829054906101000a900462ffffff166104cc9190610984565b92506101000a81548162ffffff021916908362ffffff1602179055508060000160079054906101000a900460ff16915050919050565b6040518060400160405280601481526020017f5061796d656e742e496d706c656d656e746f727300000000000000000000000081525081565b600080600080600260008673ffffffffffffffffffffffffffffffffffffffff1673ffffffffffffffffffffffffffffffffffffffff1681526020019081526020016000206040518060600160405290816000820160009054906101000a900462ffffff1662ffffff1662ffffff1681526020016000820160039054906101000a900463ffffffff1663ffffffff1663ffffffff1681526020016000820160079054906101000a900460ff1660ff1660ff16815250509050806000015193508060200151925080604001519150509193909250565b600080fd5b600073ffffffffffffffffffffffffffffffffffffffff82169050919050565b600061064082610615565b9050919050565b61065081610635565b811461065b57600080fd5b50565b60008135905061066d81610647565b92915050565b60006020828403121561068957610688610610565b5b60006106978482850161065e565b91505092915050565b600060ff82169050919050565b6106b6816106a0565b82525050565b60006020820190506106d160008301846106ad565b92915050565b600081519050919050565b600082825260208201905092915050565b60005b838110156107115780820151818401526020810190506106f6565b60008484015250505050565b6000601f19601f8301169050919050565b6000610739826106d7565b61074381856106e2565b93506107538185602086016106f3565b61075c8161071d565b840191505092915050565b60006020820190508181036000830152610781818461072e565b905092915050565b600062ffffff82169050919050565b6107a181610789565b82525050565b600063ffffffff82169050919050565b6107c0816107a7565b82525050565b60006060820190506107db6000830186610798565b6107e860208301856107b7565b6107f560408301846106ad565b949350505050565b7f5061796d656e742e50726f63636573736f720000000000000000000000000000600082015250565b60006108336012836106e2565b915061083e826107fd565b602082019050919050565b6000602082019050818103600083015261086281610826565b9050919050565b60008151905061087881610647565b92915050565b60006020828403121561089457610893610610565b5b60006108a284828501610869565b91505092915050565b7f50726f63636573736f72206f6e6c790000000000000000000000000000000000600082015250565b60006108e1600f836106e2565b91506108ec826108ab565b602082019050919050565b60006020820190508181036000830152610910816108d4565b9050919050565b6000819050919050565b7f4e487b7100000000000000000000000000000000000000000000000000000000600052601160045260246000fd5b600061095b82610917565b915061096683610917565b925082820190508082111561097e5761097d610921565b5b92915050565b600061098f82610789565b915061099a83610789565b9250828201905062ffffff8111156109b5576109b4610921565b5b9291505056fea26469706673582212200150c91024b2cf780da06c93e8548350d49ae9ee2947a2b1af4154d67562df9164736f6c63430008120033",
			"opcodes": "PUSH1 0x80 PUSH1 0x40 MSTORE CALLVALUE DUP1 ISZERO PUSH2 0x10 JUMPI PUSH1 0x0 DUP1 REVERT JUMPDEST POP PUSH2 0x9F1 DUP1 PUSH2 0x20 PUSH1 0x0 CODECOPY PUSH1 0x0 RETURN INVALID PUSH1 0x80 PUSH1 0x40 MSTORE PUSH1 0x4 CALLDATASIZE LT PUSH2 0x38 JUMPI PUSH1 0x0 CALLDATALOAD PUSH1 0xE0 SHR DUP1 PUSH4 0x6452C22D EQ PUSH2 0x53 JUMPI DUP1 PUSH4 0x8052474D EQ PUSH2 0x90 JUMPI DUP1 PUSH4 0x925849AD EQ PUSH2 0xBB JUMPI PUSH2 0x42 JUMP JUMPDEST CALLDATASIZE PUSH2 0x42 JUMPI PUSH1 0x0 DUP1 REVERT JUMPDEST CALLVALUE DUP1 ISZERO PUSH2 0x4E JUMPI PUSH1 0x0 DUP1 REVERT JUMPDEST PUSH1 0x0 DUP1 REVERT JUMPDEST CALLVALUE DUP1 ISZERO PUSH2 0x5F JUMPI PUSH1 0x0 DUP1 REVERT JUMPDEST POP PUSH2 0x7A PUSH1 0x4 DUP1 CALLDATASIZE SUB DUP2 ADD SWAP1 PUSH2 0x75 SWAP2 SWAP1 PUSH2 0x673 JUMP JUMPDEST PUSH2 0xFA JUMP JUMPDEST PUSH1 0x40 MLOAD PUSH2 0x87 SWAP2 SWAP1 PUSH2 0x6BC JUMP JUMPDEST PUSH1 0x40 MLOAD DUP1 SWAP2 SUB SWAP1 RETURN JUMPDEST CALLVALUE DUP1 ISZERO PUSH2 0x9C JUMPI PUSH1 0x0 DUP1 REVERT JUMPDEST POP PUSH2 0xA5 PUSH2 0x502 JUMP JUMPDEST PUSH1 0x40 MLOAD PUSH2 0xB2 SWAP2 SWAP1 PUSH2 0x767 JUMP JUMPDEST PUSH1 0x40 MLOAD DUP1 SWAP2 SUB SWAP1 RETURN JUMPDEST CALLVALUE DUP1 ISZERO PUSH2 0xC7 JUMPI PUSH1 0x0 DUP1 REVERT JUMPDEST POP PUSH2 0xE2 PUSH1 0x4 DUP1 CALLDATASIZE SUB DUP2 ADD SWAP1 PUSH2 0xDD SWAP2 SWAP1 PUSH2 0x673 JUMP JUMPDEST PUSH2 0x53B JUMP JUMPDEST PUSH1 0x40 MLOAD PUSH2 0xF1 SWAP4 SWAP3 SWAP2 SWAP1 PUSH2 0x7C6 JUMP JUMPDEST PUSH1 0x40 MLOAD DUP1 SWAP2 SUB SWAP1 RETURN JUMPDEST PUSH1 0x0 CALLER PUSH20 0xFFFFFFFFFFFFFFFFFFFFFFFFFFFFFFFFFFFFFFFF AND PUSH20 0x822CF05E174D656F5C4DC0C0AD913F18269EFD1D PUSH20 0xFFFFFFFFFFFFFFFFFFFFFFFFFFFFFFFFFFFFFFFF AND PUSH4 0xC75FFD86 PUSH1 0x40 MLOAD DUP2 PUSH4 0xFFFFFFFF AND PUSH1 0xE0 SHL DUP2 MSTORE PUSH1 0x4 ADD PUSH2 0x15E SWAP1 PUSH2 0x849 JUMP JUMPDEST PUSH1 0x20 PUSH1 0x40 MLOAD DUP1 DUP4 SUB DUP2 DUP7 GAS STATICCALL ISZERO DUP1 ISZERO PUSH2 0x17B JUMPI RETURNDATASIZE PUSH1 0x0 DUP1 RETURNDATACOPY RETURNDATASIZE PUSH1 0x0 REVERT JUMPDEST POP POP POP POP PUSH1 0x40 MLOAD RETURNDATASIZE PUSH1 0x1F NOT PUSH1 0x1F DUP3 ADD AND DUP3 ADD DUP1 PUSH1 0x40 MSTORE POP DUP2 ADD SWAP1 PUSH2 0x19F SWAP2 SWAP1 PUSH2 0x87E JUMP JUMPDEST PUSH20 0xFFFFFFFFFFFFFFFFFFFFFFFFFFFFFFFFFFFFFFFF AND EQ PUSH2 0x1F5 JUMPI PUSH1 0x40 MLOAD PUSH32 0x8C379A000000000000000000000000000000000000000000000000000000000 DUP2 MSTORE PUSH1 0x4 ADD PUSH2 0x1EC SWAP1 PUSH2 0x8F7 JUMP JUMPDEST PUSH1 0x40 MLOAD DUP1 SWAP2 SUB SWAP1 REVERT JUMPDEST PUSH1 0x0 PUSH1 0x2 PUSH1 0x0 DUP5 PUSH20 0xFFFFFFFFFFFFFFFFFFFFFFFFFFFFFFFFFFFFFFFF AND PUSH20 0xFFFFFFFFFFFFFFFFFFFFFFFFFFFFFFFFFFFFFFFF AND DUP2 MSTORE PUSH1 0x20 ADD SWAP1 DUP2 MSTORE PUSH1 0x20 ADD PUSH1 0x0 KECCAK256 SWAP1 POP TIMESTAMP PUSH4 0xFFFFFFFF AND DUP2 PUSH1 0x0 ADD PUSH1 0x3 SWAP1 SLOAD SWAP1 PUSH2 0x100 EXP SWAP1 DIV PUSH4 0xFFFFFFFF AND PUSH4 0xFFFFFFFF AND LT ISZERO PUSH2 0x4A9 JUMPI PUSH1 0x0 DUP2 PUSH1 0x0 ADD PUSH1 0x0 SWAP1 SLOAD SWAP1 PUSH2 0x100 EXP SWAP1 DIV PUSH3 0xFFFFFF AND SWAP1 POP PUSH2 0x61A7 DUP2 PUSH3 0xFFFFFF AND GT ISZERO PUSH2 0x2AA JUMPI PUSH1 0xC8 DUP3 PUSH1 0x0 ADD PUSH1 0x7 PUSH2 0x100 EXP DUP2 SLOAD DUP2 PUSH1 0xFF MUL NOT AND SWAP1 DUP4 PUSH1 0xFF AND MUL OR SWAP1 SSTORE POP PUSH2 0x460 JUMP JUMPDEST PUSH2 0x30D3 DUP2 PUSH3 0xFFFFFF AND GT ISZERO PUSH2 0x2DC JUMPI PUSH1 0x96 DUP3 PUSH1 0x0 ADD PUSH1 0x7 PUSH2 0x100 EXP DUP2 SLOAD DUP2 PUSH1 0xFF MUL NOT AND SWAP1 DUP4 PUSH1 0xFF AND MUL OR SWAP1 SSTORE POP PUSH2 0x45F JUMP JUMPDEST PUSH2 0x1D4B DUP2 PUSH3 0xFFFFFF AND GT ISZERO PUSH2 0x30E JUMPI PUSH1 0x7D DUP3 PUSH1 0x0 ADD PUSH1 0x7 PUSH2 0x100 EXP DUP2 SLOAD DUP2 PUSH1 0xFF MUL NOT AND SWAP1 DUP4 PUSH1 0xFF AND MUL OR SWAP1 SSTORE POP PUSH2 0x45E JUMP JUMPDEST PUSH2 0x1387 DUP2 PUSH3 0xFFFFFF AND GT ISZERO PUSH2 0x340 JUMPI PUSH1 0x64 DUP3 PUSH1 0x0 ADD PUSH1 0x7 PUSH2 0x100 EXP DUP2 SLOAD DUP2 PUSH1 0xFF MUL NOT AND SWAP1 DUP4 PUSH1 0xFF AND MUL OR SWAP1 SSTORE POP PUSH2 0x45D JUMP JUMPDEST PUSH2 0x9C3 DUP2 PUSH3 0xFFFFFF AND GT ISZERO PUSH2 0x372 JUMPI PUSH1 0x50 DUP3 PUSH1 0x0 ADD PUSH1 0x7 PUSH2 0x100 EXP DUP2 SLOAD DUP2 PUSH1 0xFF MUL NOT AND SWAP1 DUP4 PUSH1 0xFF AND MUL OR SWAP1 SSTORE POP PUSH2 0x45C JUMP JUMPDEST PUSH2 0x5DB DUP2 PUSH3 0xFFFFFF AND GT ISZERO PUSH2 0x3A4 JUMPI PUSH1 0x3C DUP3 PUSH1 0x0 ADD PUSH1 0x7 PUSH2 0x100 EXP DUP2 SLOAD DUP2 PUSH1 0xFF MUL NOT AND SWAP1 DUP4 PUSH1 0xFF AND MUL OR SWAP1 SSTORE POP PUSH2 0x45B JUMP JUMPDEST PUSH2 0x3E7 DUP2 PUSH3 0xFFFFFF AND GT ISZERO PUSH2 0x3D6 JUMPI PUSH1 0x32 DUP3 PUSH1 0x0 ADD PUSH1 0x7 PUSH2 0x100 EXP DUP2 SLOAD DUP2 PUSH1 0xFF MUL NOT AND SWAP1 DUP4 PUSH1 0xFF AND MUL OR SWAP1 SSTORE POP PUSH2 0x45A JUMP JUMPDEST PUSH2 0x1F3 DUP2 PUSH3 0xFFFFFF AND GT ISZERO PUSH2 0x408 JUMPI PUSH1 0x28 DUP3 PUSH1 0x0 ADD PUSH1 0x7 PUSH2 0x100 EXP DUP2 SLOAD DUP2 PUSH1 0xFF MUL NOT AND SWAP1 DUP4 PUSH1 0xFF AND MUL OR SWAP1 SSTORE POP PUSH2 0x459 JUMP JUMPDEST PUSH1 0xF9 DUP2 PUSH3 0xFFFFFF AND GT ISZERO PUSH2 0x439 JUMPI PUSH1 0x23 DUP3 PUSH1 0x0 ADD PUSH1 0x7 PUSH2 0x100 EXP DUP2 SLOAD DUP2 PUSH1 0xFF MUL NOT AND SWAP1 DUP4 PUSH1 0xFF AND MUL OR SWAP1 SSTORE POP PUSH2 0x458 JUMP JUMPDEST PUSH1 0x1E DUP3 PUSH1 0x0 ADD PUSH1 0x7 PUSH2 0x100 EXP DUP2 SLOAD DUP2 PUSH1 0xFF MUL NOT AND SWAP1 DUP4 PUSH1 0xFF AND MUL OR SWAP1 SSTORE POP JUMPDEST JUMPDEST JUMPDEST JUMPDEST JUMPDEST JUMPDEST JUMPDEST JUMPDEST JUMPDEST DUP2 PUSH1 0x0 ADD PUSH1 0x0 PUSH2 0x100 EXP DUP2 SLOAD SWAP1 PUSH3 0xFFFFFF MUL NOT AND SWAP1 SSTORE PUSH3 0x13C680 TIMESTAMP PUSH2 0x485 SWAP2 SWAP1 PUSH2 0x950 JUMP JUMPDEST DUP3 PUSH1 0x0 ADD PUSH1 0x3 PUSH2 0x100 EXP DUP2 SLOAD DUP2 PUSH4 0xFFFFFFFF MUL NOT AND SWAP1 DUP4 PUSH4 0xFFFFFFFF AND MUL OR SWAP1 SSTORE POP POP JUMPDEST PUSH1 0x1 DUP2 PUSH1 0x0 ADD PUSH1 0x0 DUP3 DUP3 DUP3 SWAP1 SLOAD SWAP1 PUSH2 0x100 EXP SWAP1 DIV PUSH3 0xFFFFFF AND PUSH2 0x4CC SWAP2 SWAP1 PUSH2 0x984 JUMP JUMPDEST SWAP3 POP PUSH2 0x100 EXP DUP2 SLOAD DUP2 PUSH3 0xFFFFFF MUL NOT AND SWAP1 DUP4 PUSH3 0xFFFFFF AND MUL OR SWAP1 SSTORE POP DUP1 PUSH1 0x0 ADD PUSH1 0x7 SWAP1 SLOAD SWAP1 PUSH2 0x100 EXP SWAP1 DIV PUSH1 0xFF AND SWAP2 POP POP SWAP2 SWAP1 POP JUMP JUMPDEST PUSH1 0x40 MLOAD DUP1 PUSH1 0x40 ADD PUSH1 0x40 MSTORE DUP1 PUSH1 0x14 DUP2 MSTORE PUSH1 0x20 ADD PUSH32 0x5061796D656E742E496D706C656D656E746F7273000000000000000000000000 DUP2 MSTORE POP DUP2 JUMP JUMPDEST PUSH1 0x0 DUP1 PUSH1 0x0 DUP1 PUSH1 0x2 PUSH1 0x0 DUP7 PUSH20 0xFFFFFFFFFFFFFFFFFFFFFFFFFFFFFFFFFFFFFFFF AND PUSH20 0xFFFFFFFFFFFFFFFFFFFFFFFFFFFFFFFFFFFFFFFF AND DUP2 MSTORE PUSH1 0x20 ADD SWAP1 DUP2 MSTORE PUSH1 0x20 ADD PUSH1 0x0 KECCAK256 PUSH1 0x40 MLOAD DUP1 PUSH1 0x60 ADD PUSH1 0x40 MSTORE SWAP1 DUP2 PUSH1 0x0 DUP3 ADD PUSH1 0x0 SWAP1 SLOAD SWAP1 PUSH2 0x100 EXP SWAP1 DIV PUSH3 0xFFFFFF AND PUSH3 0xFFFFFF AND PUSH3 0xFFFFFF AND DUP2 MSTORE PUSH1 0x20 ADD PUSH1 0x0 DUP3 ADD PUSH1 0x3 SWAP1 SLOAD SWAP1 PUSH2 0x100 EXP SWAP1 DIV PUSH4 0xFFFFFFFF AND PUSH4 0xFFFFFFFF AND PUSH4 0xFFFFFFFF AND DUP2 MSTORE PUSH1 0x20 ADD PUSH1 0x0 DUP3 ADD PUSH1 0x7 SWAP1 SLOAD SWAP1 PUSH2 0x100 EXP SWAP1 DIV PUSH1 0xFF AND PUSH1 0xFF AND PUSH1 0xFF AND DUP2 MSTORE POP POP SWAP1 POP DUP1 PUSH1 0x0 ADD MLOAD SWAP4 POP DUP1 PUSH1 0x20 ADD MLOAD SWAP3 POP DUP1 PUSH1 0x40 ADD MLOAD SWAP2 POP POP SWAP2 SWAP4 SWAP1 SWAP3 POP JUMP JUMPDEST PUSH1 0x0 DUP1 REVERT JUMPDEST PUSH1 0x0 PUSH20 0xFFFFFFFFFFFFFFFFFFFFFFFFFFFFFFFFFFFFFFFF DUP3 AND SWAP1 POP SWAP2 SWAP1 POP JUMP JUMPDEST PUSH1 0x0 PUSH2 0x640 DUP3 PUSH2 0x615 JUMP JUMPDEST SWAP1 POP SWAP2 SWAP1 POP JUMP JUMPDEST PUSH2 0x650 DUP2 PUSH2 0x635 JUMP JUMPDEST DUP2 EQ PUSH2 0x65B JUMPI PUSH1 0x0 DUP1 REVERT JUMPDEST POP JUMP JUMPDEST PUSH1 0x0 DUP2 CALLDATALOAD SWAP1 POP PUSH2 0x66D DUP2 PUSH2 0x647 JUMP JUMPDEST SWAP3 SWAP2 POP POP JUMP JUMPDEST PUSH1 0x0 PUSH1 0x20 DUP3 DUP5 SUB SLT ISZERO PUSH2 0x689 JUMPI PUSH2 0x688 PUSH2 0x610 JUMP JUMPDEST JUMPDEST PUSH1 0x0 PUSH2 0x697 DUP5 DUP3 DUP6 ADD PUSH2 0x65E JUMP JUMPDEST SWAP2 POP POP SWAP3 SWAP2 POP POP JUMP JUMPDEST PUSH1 0x0 PUSH1 0xFF DUP3 AND SWAP1 POP SWAP2 SWAP1 POP JUMP JUMPDEST PUSH2 0x6B6 DUP2 PUSH2 0x6A0 JUMP JUMPDEST DUP3 MSTORE POP POP JUMP JUMPDEST PUSH1 0x0 PUSH1 0x20 DUP3 ADD SWAP1 POP PUSH2 0x6D1 PUSH1 0x0 DUP4 ADD DUP5 PUSH2 0x6AD JUMP JUMPDEST SWAP3 SWAP2 POP POP JUMP JUMPDEST PUSH1 0x0 DUP2 MLOAD SWAP1 POP SWAP2 SWAP1 POP JUMP JUMPDEST PUSH1 0x0 DUP3 DUP3 MSTORE PUSH1 0x20 DUP3 ADD SWAP1 POP SWAP3 SWAP2 POP POP JUMP JUMPDEST PUSH1 0x0 JUMPDEST DUP4 DUP2 LT ISZERO PUSH2 0x711 JUMPI DUP1 DUP3 ADD MLOAD DUP2 DUP5 ADD MSTORE PUSH1 0x20 DUP2 ADD SWAP1 POP PUSH2 0x6F6 JUMP JUMPDEST PUSH1 0x0 DUP5 DUP5 ADD MSTORE POP POP POP POP JUMP JUMPDEST PUSH1 0x0 PUSH1 0x1F NOT PUSH1 0x1F DUP4 ADD AND SWAP1 POP SWAP2 SWAP1 POP JUMP JUMPDEST PUSH1 0x0 PUSH2 0x739 DUP3 PUSH2 0x6D7 JUMP JUMPDEST PUSH2 0x743 DUP2 DUP6 PUSH2 0x6E2 JUMP JUMPDEST SWAP4 POP PUSH2 0x753 DUP2 DUP6 PUSH1 0x20 DUP7 ADD PUSH2 0x6F3 JUMP JUMPDEST PUSH2 0x75C DUP2 PUSH2 0x71D JUMP JUMPDEST DUP5 ADD SWAP2 POP POP SWAP3 SWAP2 POP POP JUMP JUMPDEST PUSH1 0x0 PUSH1 0x20 DUP3 ADD SWAP1 POP DUP2 DUP2 SUB PUSH1 0x0 DUP4 ADD MSTORE PUSH2 0x781 DUP2 DUP5 PUSH2 0x72E JUMP JUMPDEST SWAP1 POP SWAP3 SWAP2 POP POP JUMP JUMPDEST PUSH1 0x0 PUSH3 0xFFFFFF DUP3 AND SWAP1 POP SWAP2 SWAP1 POP JUMP JUMPDEST PUSH2 0x7A1 DUP2 PUSH2 0x789 JUMP JUMPDEST DUP3 MSTORE POP POP JUMP JUMPDEST PUSH1 0x0 PUSH4 0xFFFFFFFF DUP3 AND SWAP1 POP SWAP2 SWAP1 POP JUMP JUMPDEST PUSH2 0x7C0 DUP2 PUSH2 0x7A7 JUMP JUMPDEST DUP3 MSTORE POP POP JUMP JUMPDEST PUSH1 0x0 PUSH1 0x60 DUP3 ADD SWAP1 POP PUSH2 0x7DB PUSH1 0x0 DUP4 ADD DUP7 PUSH2 0x798 JUMP JUMPDEST PUSH2 0x7E8 PUSH1 0x20 DUP4 ADD DUP6 PUSH2 0x7B7 JUMP JUMPDEST PUSH2 0x7F5 PUSH1 0x40 DUP4 ADD DUP5 PUSH2 0x6AD JUMP JUMPDEST SWAP5 SWAP4 POP POP POP POP JUMP JUMPDEST PUSH32 0x5061796D656E742E50726F63636573736F720000000000000000000000000000 PUSH1 0x0 DUP3 ADD MSTORE POP JUMP JUMPDEST PUSH1 0x0 PUSH2 0x833 PUSH1 0x12 DUP4 PUSH2 0x6E2 JUMP JUMPDEST SWAP2 POP PUSH2 0x83E DUP3 PUSH2 0x7FD JUMP JUMPDEST PUSH1 0x20 DUP3 ADD SWAP1 POP SWAP2 SWAP1 POP JUMP JUMPDEST PUSH1 0x0 PUSH1 0x20 DUP3 ADD SWAP1 POP DUP2 DUP2 SUB PUSH1 0x0 DUP4 ADD MSTORE PUSH2 0x862 DUP2 PUSH2 0x826 JUMP JUMPDEST SWAP1 POP SWAP2 SWAP1 POP JUMP JUMPDEST PUSH1 0x0 DUP2 MLOAD SWAP1 POP PUSH2 0x878 DUP2 PUSH2 0x647 JUMP JUMPDEST SWAP3 SWAP2 POP POP JUMP JUMPDEST PUSH1 0x0 PUSH1 0x20 DUP3 DUP5 SUB SLT ISZERO PUSH2 0x894 JUMPI PUSH2 0x893 PUSH2 0x610 JUMP JUMPDEST JUMPDEST PUSH1 0x0 PUSH2 0x8A2 DUP5 DUP3 DUP6 ADD PUSH2 0x869 JUMP JUMPDEST SWAP2 POP POP SWAP3 SWAP2 POP POP JUMP JUMPDEST PUSH32 0x50726F63636573736F72206F6E6C790000000000000000000000000000000000 PUSH1 0x0 DUP3 ADD MSTORE POP JUMP JUMPDEST PUSH1 0x0 PUSH2 0x8E1 PUSH1 0xF DUP4 PUSH2 0x6E2 JUMP JUMPDEST SWAP2 POP PUSH2 0x8EC DUP3 PUSH2 0x8AB JUMP JUMPDEST PUSH1 0x20 DUP3 ADD SWAP1 POP SWAP2 SWAP1 POP JUMP JUMPDEST PUSH1 0x0 PUSH1 0x20 DUP3 ADD SWAP1 POP DUP2 DUP2 SUB PUSH1 0x0 DUP4 ADD MSTORE PUSH2 0x910 DUP2 PUSH2 0x8D4 JUMP JUMPDEST SWAP1 POP SWAP2 SWAP1 POP JUMP JUMPDEST PUSH1 0x0 DUP2 SWAP1 POP SWAP2 SWAP1 POP JUMP JUMPDEST PUSH32 0x4E487B7100000000000000000000000000000000000000000000000000000000 PUSH1 0x0 MSTORE PUSH1 0x11 PUSH1 0x4 MSTORE PUSH1 0x24 PUSH1 0x0 REVERT JUMPDEST PUSH1 0x0 PUSH2 0x95B DUP3 PUSH2 0x917 JUMP JUMPDEST SWAP2 POP PUSH2 0x966 DUP4 PUSH2 0x917 JUMP JUMPDEST SWAP3 POP DUP3 DUP3 ADD SWAP1 POP DUP1 DUP3 GT ISZERO PUSH2 0x97E JUMPI PUSH2 0x97D PUSH2 0x921 JUMP JUMPDEST JUMPDEST SWAP3 SWAP2 POP POP JUMP JUMPDEST PUSH1 0x0 PUSH2 0x98F DUP3 PUSH2 0x789 JUMP JUMPDEST SWAP2 POP PUSH2 0x99A DUP4 PUSH2 0x789 JUMP JUMPDEST SWAP3 POP DUP3 DUP3 ADD SWAP1 POP PUSH3 0xFFFFFF DUP2 GT ISZERO PUSH2 0x9B5 JUMPI PUSH2 0x9B4 PUSH2 0x921 JUMP JUMPDEST JUMPDEST SWAP3 SWAP2 POP POP JUMP INVALID LOG2 PUSH5 0x6970667358 0x22 SLT KECCAK256 ADD POP 0xC9 LT 0x24 0xB2 0xCF PUSH25 0xDA06C93E8548350D49AE9EE2947A2B1AF4154D67562DF9164 PUSH20 0x6F6C634300081200330000000000000000000000 "
		},
		"gasEstimates": {
			"creation": {
				"codeDepositCost": "509000",
				"executionCost": "543",
				"totalCost": "509543"
			},
			"external": {
				"": "157",
				"GetEpochReward(address)": "infinite",
				"GetImplementorProfile(address)": "7690",
				"Name()": "infinite"
			}
		},
		"methodIdentifiers": {
			"GetEpochReward(address)": "6452c22d",
			"GetImplementorProfile(address)": "925849ad",
			"Name()": "8052474d"
		}
	},
	"abi": [
		{
			"stateMutability": "nonpayable",
			"type": "fallback"
		},
		{
			"inputs": [
				{
					"internalType": "address",
					"name": "_implementor",
					"type": "address"
				}
			],
			"name": "GetEpochReward",
			"outputs": [
				{
					"internalType": "uint8",
					"name": "",
					"type": "uint8"
				}
			],
			"stateMutability": "nonpayable",
			"type": "function"
		},
		{
			"inputs": [
				{
					"internalType": "address",
					"name": "_implementor",
					"type": "address"
				}
			],
			"name": "GetImplementorProfile",
			"outputs": [
				{
					"internalType": "uint24",
					"name": "epochSales",
					"type": "uint24"
				},
				{
					"internalType": "uint32",
					"name": "epochEnd",
					"type": "uint32"
				},
				{
					"internalType": "uint8",
					"name": "epochReward",
					"type": "uint8"
				}
			],
			"stateMutability": "view",
			"type": "function"
		},
		{
			"inputs": [],
			"name": "Name",
			"outputs": [
				{
					"internalType": "string",
					"name": "",
					"type": "string"
				}
			],
			"stateMutability": "view",
			"type": "function"
		},
		{
			"stateMutability": "payable",
			"type": "receive"
		}
	]
}